:020000040800F2
:1000000000500020A9420008B11F0008B51F0008D9
:10001000BD1F0008C51F0008CD1F0008000000001C
:10002000000000000000000000000000D51F0008D4
:10003000D91F000800000000DD1F0008E11F0008B4
:10004000F9420008F9420008F9420008F9420008A4
:10005000F9420008F9420008F9420008F942000894
:10006000F9420008F9420008F9420008F942000884
:10007000F9420008F9420008F9420008F942000874
:10008000F9420008F9420008F9420008F942000864
:1000900081200008F9420008F9420008F9420008EE
:1000A000F9420008F9420008F942000891200008CE
:1000B000F9420008F9420008F9420008F942000834
:1000C000F9420008F9420008F9420008F942000824
:1000D000F942000871200008F94200086120000878
:1000E000F9420008F9420008F94200080000000047
:1000F0000000000000000000000000000000000000
:1001000000000000000000005FF808F110B5054C89
:10011000237833B9044B13B10448AFF300800123B3
:10012000237010BD400A002000000000FC160108EA
:1001300008B5064B1BB106480649AFF300800648D8
:10014000036813B1054B03B1984708BD00000000D8
:10015000FC160108440A00203C0A002000000000B0
:100160002DE9F04104460D46C04B1B6803F0070320
:100170008B4280F0CA80BD4B1A6822F007020A4306
:100180001A601B6803F007038B4240F0A4810368E8
:1001900013F0020F06D0B64B596821F0F0018268C7
:1001A0000A435A60236813F0010F00F077816368F7
:1001B000012B24D14FF4003292FAA2F2B2FA82F269
:1001C00042F02002C2F34212012A02D1A84A116869
:1001D00007E04FF4003292FAA2F2B2FA82F2A44A95
:1001E000516A4FF4003292FAA2F2B2FA82F202F0AD
:1001F0001F0221FA02F212F0010F49D16EE1022B27
:1002000024D14FF0007292FAA2F2B2FA82F242F0D6
:100210002002C2F34212012A02D1954A116807E076
:100220004FF0007292FAA2F2B2FA82F2904A516A48
:100230004FF0007292FAA2F2B2FA82F202F01F02BA
:1002400021FA02F212F0010F22D14AE1022292FABF
:10025000A2F2B2FA82F242F02002C2F34212012A62
:1002600002D1834A116806E0022292FAA2F2B2FA9F
:1002700082F27F4A516A022292FAA2F2B2FA82F222
:1002800002F01F0221FA02F212F0010F00F02C819D
:10029000774A516821F003010B43536000F0F2FAF2
:1002A00005466368012B0FD1714E41F2883705E096
:1002B00000F0E8FA401BB84200F21981736803F0BD
:1002C0000C03042BF4D1E9E0022B03D0684E41F279
:1002D000883715E0664E41F2883705E000F0D2FA23
:1002E000401BB84200F20681736803F00C03082B30
:1002F000F4D1D3E000F0C6FA401BB84200F2FD8012
:10030000736813F00C0FF5D1C8E0036813F0020F07
:1003100006D0574B596821F0F00182680A435A60B1
:10032000236813F0010F00F0AE806368012B24D125
:100330004FF4003292FAA2F2B2FA82F242F02002B4
:10034000C2F34212012A02D1494A116807E04FF470
:10035000003292FAA2F2B2FA82F2454A516A4FF49E
:10036000003292FAA2F2B2FA82F202F01F0221FAED
:1003700002F212F0010F49D1C2E0022B24D14FF05A
:10038000007292FAA2F2B2FA82F242F02002C2F3B2
:100390004212012A02D1364A116807E04FF000727A
:1003A00092FAA2F2B2FA82F2314A516A4FF0007226
:1003B00092FAA2F2B2FA82F202F01F0221FA02F2DB
:1003C00012F0010F22D19EE0022292FAA2F2B2FABA
:1003D00082F242F02002C2F34212012A02D1244AE0
:1003E000116806E0022292FAA2F2B2FA82F2204AE0
:1003F000516A022292FAA2F2B2FA82F202F01F02CB
:1004000021FA02F212F0010F00F08080184A5168C0
:1004100021F003010B43536000F034FA0646636891
:10042000012B0ED1124F41F2883804E000F02AFA75
:10043000801B40456DD87B6803F00C03042BF5D17D
:1004400021E0022B03D00A4F41F2883817E0084F11
:1004500041F2883804E000F015FA801B40455BD873
:100460007B6803F00C03082BF5D10CE00020024060
:100470000010024000F006FA801B40454FD87B6810
:1004800013F00C0FF6D1294B1A6822F007022A4309
:100490001A601B6803F00703AB4243D1236813F0D3
:1004A000040F06D0224B596821F4E061E2680A4348
:1004B0005A60236813F0080F07D01D4B5A68216952
:1004C00022F4605242EAC1025A600F2000F0ACF9F7
:1004D0000020BDE8F0810120BDE8F0810120BDE8E9
:1004E000F0810120BDE8F0810120BDE8F08103200A
:1004F000BDE8F0810320BDE8F0810320BDE8F08174
:100500000120BDE8F0810120BDE8F0810120BDE8B7
:10051000F0810320BDE8F0810320BDE8F0810320D5
:10052000BDE8F0810120BDE8F08100BF002002405D
:10053000001002402DE9F04182B00446036813F038
:10054000010F71D0484BDA6942F08052DA61DB6901
:1005500003F080530193019B444B1A6842F480726C
:100560001A6000F08FF90646404D04E000F08AF969
:10057000801B642870D82B6813F4807FF6D03A4B28
:100580001A6A636803F4407302F44072934217D00E
:10059000354B186A20F440704FF4803191FAA1F580
:1005A000B5FA85F5EDB2324A012642F8256091FA96
:1005B000A1F1B1FA81F1C9B2002542F821501862C7
:1005C0006368B3F5807F28D100F05CF9804602258E
:1005D000254E41F2883705E000F054F9C8EB0000E1
:1005E000B8423BD895FAA5F3B3FA83F395FAA5F38D
:1005F000B3FA83F343F04003C3F34213022B0CBF5F
:10060000326A726A95FAA5F3B3FA83F303F01F0313
:1006100022FA03F313F0010FDED0134B196A21F411
:10062000407162680A431A62236813F0020F06D011
:100630000D4B596821F44041A2680A435A6023686F
:1006400013F0100F0CD0084B5A6822F48002E168B6
:100650000A435A60002004E0032002E0032000E087
:10066000002002B0BDE8F0810010024000700040A0
:100670000004424244F61F63994228BF19460128EC
:1006800002D1094A11647047022802D1064AD16397
:100690007047032802D1044A91637047042804BFBD
:1006A000024A5163704700BF000800400004004048
:1006B00000B587B0104B9A6942F008029A619B69B5
:1006C00003F008030193019B4FF464730293022328
:1006D00003930323059301230493084802A904F01C
:1006E000B5FB074B5A6822F4406242F400625A603C
:1006F00007B05DF804FB00BF00100240000C014091
:100700000000014000B58BB03F4BDA6942F00402B3
:10071000DA61DA6902F004020192019ADA6942F0C0
:100720000202DA61DB6903F002030293029B37489D
:10073000374B03604723436044F61F63C3600023C5
:1007400003618360436105F0C5FF08B103F0A4FBBA
:10075000602303930023059307930693099308935B
:1007600040F2DC530493294803A9042206F066F8FA
:1007700008B103F091FB254803A9082206F05EF8B2
:1007800008B103F089FB214803A90C2206F056F8B2
:1007900008B103F081FB1D48042106F097F908B168
:1007A00003F07AFB1948082106F090F908B103F02C
:1007B00073FB16480C2106F089F908B103F06CFBB5
:1007C0001448154B03604723436044F61F63C3601E
:1007D000002303618360436105F07CFF08B103F0EF
:1007E0005BFB0C4803A9002206F028F808B103F0CF
:1007F00053FB0848002106F069F908B103F04CFBEF
:100800000BB05DF804FB00BF00100240E80E0020B2
:1008100000080040AC0E00200004004008B5FFF7BF
:1008200047FFFFF76FFF08BD10B5044602F090F9CF
:10083000064BA3FB0020800901F0FAFC4FF0FF30CB
:100840002146002201F0B6FC002010BDD34D6210FD
:1008500008B5074B1A6842F010021A60032001F035
:1008600097FC0F20FFF7E0FF08F0FEF9002008BD1D
:1008700000200240024B1A6801321A60704700BF24
:100880005C0A0020014B1868704700BF5C0A00201A
:1008900010B582B00190FFF7F5FF0446FFF7F2FFB5
:1008A000019B001B9842F9D302B010BD704700BFF6
:1008B00038B505460C46054803F054FD044B53F883
:1008C0002500214603F0E0FD38BD00BF08F900080F
:1008D000B4F8000810B582B004460A4A137883F0D1
:1008E0002403137068460521074A09F001FA0748F6
:1008F000214603F037FD6846214603F0C5FD02B0EE
:1009000010BD00BF600A002014F900081CF900089F
:1009100038B505460C46084603F0AEFD05482146AD
:1009200003F020FD2846214603F00AFD024B1D700E
:1009300038BD00BF24F90008600A002038B50378EC
:1009400083B90CE05D400132282A02D1094B1D70A9
:1009500005E014F8013F002BF4D1064B1D7003F0A5
:1009600001FD38BD034A15785D401570044601222B
:10097000EFE700BF600A002070B596B01646CDE9DB
:10098000000102A85021104A09F0B2F99DF80800B0
:1009900088B90BE04440AB4202D10C4B1C7005E01F
:1009A00013F8010F0028F5D1084B1C7002A831463E
:1009B00003F0D8FC06E0054B1C7802AB0DF12F05C7
:1009C0004440EDE716B070BD28F90008600A002029
:1009D00030B595B003460D4668465021104A09F0DF
:1009E00087F99DF800208AB90BE05040A34202D15C
:1009F0000C4B187005E013F8012F002AF5D1094BB4
:100A000018706846294603F0ADFC06E0054B1878DF
:100A10006B460DF127045040EDE715B030BD00BF27
:100A200030F90008600A002030B583B005460C4656
:100A300001A90AF0DDF9C4E9000109F06BF80368C7
:100A400043B9019B9D4207D01878D0F1010038BF0F
:100A5000002002E0002000E0002003B030BD00BF15
:100A600010B5044603F008FD204603F005FD2046BE
:100A700003F002FD3E48214603F006FD204603F048
:100A8000FBFC3C48214603F0FFFC3B48214603F0B9
:100A9000FBFC3A48214603F0F7FC3948214603F0B5
:100AA000F3FC3848214603F0EFFC3748214603F0B9
:100AB000EBFC3648214603F0E7FC012C03D1344817
:100AC000012103F0E1FC3348214603F0DDFC32480C
:100AD000214603F0D9FC3148214603F0D5FC3048CB
:100AE000214603F0D1FC2F48214603F0CDFC2E48CF
:100AF000214603F0C9FC2D48214603F0C5FC2C48D3
:100B0000214603F0C1FC2B48214603F0BDFC2A48D6
:100B1000214603F0B9FC2948214603F0B5FC2848DA
:100B2000214603F0B1FC2748214603F0ADFC2648DE
:100B3000214603F0A9FC2548214603F0A5FC2448E2
:100B4000214603F0A1FC2348214603F09DFC2248E6
:100B5000214603F099FC2148214603F095FC2048EA
:100B6000214603F091FC204603F086FC10BD00BF37
:100B700038F9000850F900089CF90008E8F9000865
:100B800034FA000888FA0008D8FA000840FB000888
:100B900084FB0008E4FB00082CFC000888FC00082B
:100BA000C8FC00081CFD000878FD0008E0FD0008F6
:100BB00040FE000880FE0008C8FE000820FF000874
:100BC0006CFF0008C0FF0008280001086800010849
:100BD000D40001082001010864010108A4010108F2
:100BE000E4010108000000002DE93041804603F0D7
:100BF00043FC404603F040FC404603F03DFC5C48AB
:100C0000414603F041FC404603F036FC404603F009
:100C100033FC5848414603F0A5FB5748414603F0D2
:100C200033FC404603F028FC404603F025FC5348C3
:100C3000414603F029FC5248414603F025FC514847
:100C4000414603F021FC5048414603F01DFC4F484B
:100C5000414603F019FC404603F00EFC4C48414667
:100C600003F080FB07F07CF93FA3D3E9002308F0F1
:100C700055FC20B14748414603F006FC2FE007F041
:100C800043F904460D4607F06BF902460B46204631
:100C9000294608F04DFC88B107F036F9424603F0CA
:100CA00067FB3D48414603F05DFB07F059F94246BA
:100CB00003F05EFB404603F0DFFB10E007F050F965
:100CC000424603F055FB3448414603F04BFB07F026
:100CD0001BF9424603F04CFB404603F0CDFB404677
:100CE00003F0CAFB404603F0C7FB2C48414603F023
:100CF000CBFB2B48414603F0C7FB404603F0BCFB4F
:100D00002848414603F02EFB1B4BD3E90A0142461B
:100D100003F02EFB07F024F913A3D3E9002308F016
:100D2000FDFB20B12048414603F0AEFB02E0404607
:100D300003F0A2FB1D48414603F014FB0E4BD3E920
:100D40000C01424603F014FB07F00AF906A3D3E9AD
:100D5000002308F0E3FB58B31348414603F094FB2B
:100D600029E000BFAFF3008000000000F069F84008
:100D70002402010834020108900F002050020108EB
:100D800080020108EC02010848030108B4030108CD
:100D9000E4030108F4030108100401081C0401081D
:100DA00088040108EC0401082C0501083C05010831
:100DB000404603F061FB404603F05EFB404603F013
:100DC0005BFB7E48414603F05FFB7D48414603F0F4
:100DD0005BFB7C48414603F057FB404603F04CFB6D
:100DE0007948414603F0BEFA784CD4E90401424602
:100DF00003F0BEFA7648414603F0B4FAD4E906019E
:100E0000424603F0B5FA7348414603F0ABFAD4E921
:100E10000801424603F0ACFA404603F02DFB404681
:100E200003F02AFB404603F027FB6B48414603F0E2
:100E30002BFB6A48414603F027FB6948414603F013
:100E400023FB404603F018FB6648414603F08AFA4C
:100E5000608F414603F062FA6348414603F082FA2C
:100E6000A08F414603F05AFA404603F005FB404686
:100E700003F002FB404603F0FFFA5C48414603F0F2
:100E800003FB5B48414603F0FFFA404603F0F4FAE7
:100E90005848414603F066FA94F83E00414603F094
:100EA0003DFA5548414603F05DFA94F83F0041464B
:100EB00003F034FA5148414603F054FA94F84000E4
:100EC000414603F02BFA4E48414603F04BFA94F8A2
:100ED0004100414603F022FA404603F0CDFA404675
:100EE00003F0CAFA404603F0C7FA4648414603F009
:100EF000CBFA4548414603F0C7FA4448414603F05F
:100F0000C3FA404603F0B8FA4148414603F02AFAD2
:100F100094F93900414603F001FA404603F0ACFA77
:100F2000404603F0A9FA404603F0A6FA3948414684
:100F300003F0AAFA404603F09FFA3748414603F00F
:100F400011FA94F83800414603F0E8F9404603F0FE
:100F500093FA404603F090FA404603F08DFA2F488A
:100F6000414603F091FA404603F086FA2C48414688
:100F700003F0F8F994F84200414603F0CFF929480C
:100F8000414603F0EFF994F8423023B92648414630
:100F900003F07AFA06E0012B0CBF244824484146AE
:100FA00003F072FA404603F067FA404603F064FA31
:100FB000404603F061FABDE8308100BF74050108C6
:100FC000E00501084C0601086C060108900F00209E
:100FD000840601088C060108940601080007010830
:100FE0006C070108C8070108DC070108E8070108C9
:100FF00058080108800801089C080108A808010891
:10100000B4080108C00801082C0901089809010862
:10101000080A0108200A0108640A0108740A010884
:101020008C0A0108940A0108980A0108AC0A010810
:10103000B80A0108AFF300802DE9F84380460E4658
:101040009146FFF71FFC05460023337040F6B73486
:101050000B4F0BE0384602F017FC38B13278092A02
:1010600004D808F80200337801333370FFF70AFC24
:10107000401BA042EED9484603F0FEF9BDE8F883D4
:10108000F41700200B78012B08D903784F2B07D1D8
:1010900040784B2814BF0020012070470020704783
:1010A000002070472DE9F0478CB0044600258DF8EC
:1010B000235001AE564F0FCF0FC697E8070086E8C2
:1010C00007006F46DFF87CA1DFF84C91DFF87881EC
:1010D000204603F0D1F95046214603F043F957F872
:1010E000046F3046214603F019F94846214603F0C3
:1010F000CBF9304604F07CF94046002103F032F988
:1011000009A80DF123012246FFF796FF09A80DF16A
:101110002301FFF7B7FF20B90135EDB2072DD7D175
:1011200054E0072D52D0204603F0A6F93948214655
:1011300003F018F90CAA02EB850353F82C0C214696
:1011400003F0ECF83448214603F09EF9042D43D017
:101150003248214603F098F93148002103F002F9A2
:1011600009A80DF123012246FFF766FF4FF4164050
:1011700004F03EF909A80DF12301FFF783FF28B31E
:101180002848214603F080F926E02748214603F04D
:101190007BF9204603F070F92448214603F074F9E6
:1011A0002348002103F0DEF809A80DF123012246AF
:1011B000FFF742FF09A80DF12301FFF763FF28B1F4
:1011C0001C48214603F060F901201EE01A48214620
:1011D00003F05AF9002018E0204603F04DF91748B3
:1011E000214603F051F91648002103F0BBF809A885
:1011F0000DF123012246FFF71FFF09A80DF123017E
:10120000FFF740FF0028E1D0BFE70CB0BDE8F08752
:10121000ECF80008000B0108F40A0108300B010883
:10122000640B0108700B01088C0B0108B00B01085E
:10123000F00B0108FC0B0108280C0108580C0108F0
:10124000940C0108C40A0108FC0A01082DE9F04FBA
:1012500083B00446A64B5B78313B482B00F2FF84F9
:10126000DFE813F049006F009500FD04D604FD048B
:10127000FD04D1033204FD04FD04FD04FD04FD045E
:10128000FD04FD042E01AF04FD04FD04FD04FD0476
:10129000FD04FD04FD04FD04FD04FD04FD04FD0446
:1012A000FD04FD04FD04FD04CB04FD04FD04FD0468
:1012B000FD04FD04FD04FD04FD04FD04FD04FD0426
:1012C000FD04FD040A01A301BB00A902C7015B01E3
:1012D0007F01CE03CF02FD04FD0488026404600395
:1012E000FD043302FD04A103EB010F02FD047B02A8
:1012F0009502FD0457027E4B9B78012B13D17D484C
:101300006946FFF791FB002800F0BC84DDE900018D
:1013100006F020FD31202146FFF7FAFA2046FFF7BC
:10132000D9FA00F0AFBC31202146FFF7F1FA06F000
:101330002FFD2246FFF720FB2046FFF7CBFA00F0F7
:10134000A1BC6B4B9B78012B13D16A486946FFF710
:101350006BFB002800F09684DDE9000106F004FD37
:1013600032202146FFF7D4FA2046FFF7B3FA00F007
:1013700089BC32202146FFF7CBFA06F00FFD22464A
:10138000FFF7FAFA2046FFF7A5FA00F07BBC584BAE
:101390009B78012B13D157486946FFF745FB00287E
:1013A00000F07084DDE9000106F0E8FC33202146FE
:1013B000FFF7AEFA2046FFF78DFA00F063BC33204A
:1013C0002146FFF7A5FA06F0EFFC2246FFF7D4FA14
:1013D0002046FFF77FFA00F055BC454B9B78032B66
:1013E0002BD144486946FFF71FFB002800F04A84D0
:1013F00002AD75E9020106F0ADFC3F486946FFF712
:1014000013FB002800F03E8402AD75E9020106F0EE
:10141000ABFC3A486946FFF707FB002800F032842E
:10142000DDE9000106F0AAFC63202146FFF770FA0F
:101430002046FFF74FFA00F025BCBBB963202146D8
:10144000FFF766FA06F0A4FC2246FFF795FA06F0CD
:10145000A5FC2246FFF790FA06F0A6FC2246FFF70D
:101460008BFA2046FFF736FA00F00CBC0720214625
:10147000FFF71EFA00F006BC1D4B9B78012B12D122
:101480001C486946FFF7D0FA002800F0FB83DDE92D
:10149000000106F0B5FC61202146FFF739FA20462D
:1014A000FFF718FAEEE361202146FFF731FA06F064
:1014B000C3FC2246FFF760FA2046FFF70BFAE1E390
:1014C0000B4B9B78012B1BD10A486946FFF7ACFAFE
:1014D000002800F0D783DDE9000106F06BFC412015
:1014E0002146FFF715FA2046FFF7F4F9CAE300BFDB
:1014F000600A0020640A0020790A00208E0A002079
:1015000041202146FFF704FA06F05AFC2246FFF775
:1015100033FA2046FFF7DEF9B4E3B04B9B78012B9A
:1015200012D1AF486946FFF77FFA002800F0AA837E
:10153000DDE9000106F04AFC66202146FFF7E8F9E4
:101540002046FFF7C7F99DE366202146FFF7E0F943
:1015500006F042FC2246FFF70FFA2046FFF7BAF9E1
:1015600090E39E4B9B78012B12D19D486946FFF773
:101570005BFA002800F08683DDE9000106F032FC0A
:1015800067202146FFF7C4F92046FFF7A3F979E366
:1015900067202146FFF7BCF906F02AFC2246FFF738
:1015A000EBF92046FFF796F96CE38C4B9B78012B07
:1015B00012D18B486946FFF737FA002800F06283A2
:1015C000DDE9000106F07CFC62202146FFF7A0F96E
:1015D0002046FFF77FF955E362202146FFF798F98F
:1015E00006F092FC2246FFF7C7F92046FFF772F992
:1015F00048E37A4B9B78012B12D179486946FFF773
:1016000013FA002800F03E83DDE9000106F084FCB7
:1016100065202146FFF77CF92046FFF75BF931E3AF
:1016200065202146FFF774F906F09AFC2246FFF781
:10163000A3F92046FFF74EF924E3684B9B78012B72
:1016400012D167486946FFF7EFF9002800F01A83C6
:10165000DDE9000106F08CFC73202146FFF758F904
:101660002046FFF737F90DE373202146FFF750F9C5
:1016700006F09AFC2246FFF77FF92046FFF72AF989
:1016800000E3564B9B78012B12D155486946FFF772
:10169000CBF9002800F0F682DDE9000106F08AFCB3
:1016A00074202146FFF734F92046FFF713F9E9E2E9
:1016B00074202146FFF72CF906F082FC2246FFF742
:1016C0005BF92046FFF706F9DCE2444B9B78012BDF
:1016D00012D143486946FFF7A7F9002800F0D282EB
:1016E000DDE9000106F072FC70202146FFF710F9D9
:1016F0002046FFF7EFF8C5E270202146FFF708F912
:1017000006F06CFC2246FFF737F92046FFF7E2F8B7
:10171000B8E2324B9B78012B12D131486946FFF772
:1017200083F9002800F0AE82DDE9000106F060FCDC
:1017300079202146FFF7ECF82046FFF7CBF8A1E22D
:1017400079202146FFF7E4F806F05AFC2246FFF71D
:1017500013F92046FFF7BEF894E276202146FFF702
:10176000D7F806F05DFC2246FFF706F92046FFF7A2
:10177000B1F887E26C202146FFF7CAF806F056FC64
:101780002246FFF7F9F82046FFF7A4F87AE2154859
:101790006821002207F080FA054677202146FFF7EE
:1017A000B7F81DB92046FFF795F86BE208202146EF
:1017B000FFF77EF866E2094B9B78012B14D10848AD
:1017C00008F0A4F9C0B2214604F01AFC64202146B6
:1017D000FFF79EF82046FFF77DF853E2600A0020ED
:1017E000640A0020900F002064202146FFF790F843
:1017F00004F010FC2146FFF7EBF82046FFF76AF8EB
:1018000040E2A54B9B78042B23D1A34D281D08F063
:101810007DF9804605F1190008F078F9074605F1D1
:101820002E0008F073F9064605F1430008F06EF942
:101830009A4B83F83E8083F8407083F83F6083F8CA
:10184000410069202146FFF763F82046FFF742F880
:1018500018E2002B61D169202146FFF759F88F4D1E
:1018600095F83E002146FFF7B3F895F84000214671
:10187000FFF7AEF895F83F002146FFF7A9F895F875
:1018800041002146FFF7A4F885482146FFF756F8A6
:101890000025DFF82C82834F804E40462146FFF71B
:1018A0004DF828462146FFF793F838462146FFF7C2
:1018B00045F8E8B205F06EFD2146FFF789F896F885
:1018C0003E30AB4204D178482146FFF737F819E0A3
:1018D00096F84030AB4204D174482146FFF72EF809
:1018E00010E096F83F30AB4204D171482146FFF733
:1018F00025F807E096F84130AB4203D16D48214608
:10190000FFF71CF866482146FFF718F80135182D37
:10191000C3D12046FEF7DEFFB4E107202146FEF7E3
:10192000C7FFAFE15C4B9B78022B2BD15A4D281D92
:1019300008F0ECF8064605F1190008F0E7F805464E
:101940006E202146FEF7E4FFB3B2A3F2795292B2C1
:10195000C62A12D8A9B2A1F2795292B2C62A0CD8DC
:1019600036B22DB2AE42B2BF18460846194606F04E
:1019700061F92046FEF7AEFF84E109202146FEF71B
:1019800097FF7FE16E202146FEF7C2FF434D688F2F
:101990002146FFF71DF8A88F2146FFF719F82046CA
:1019A000FEF798FF6EE13C4B9B78012B1AD1424821
:1019B00008F0ACF8064685B272202146FEF7A8FF73
:1019C0002BB2012B02D0B3F1FF3F06D1334B83F88A
:1019D00039602046FEF77EFF54E10A202146FEF7DB
:1019E00067FF4FE172202146FEF792FF2B4B93F9E0
:1019F00039002146FEF7ECFF2046FEF76BFF41E180
:101A0000FFF72EF83EE138202146FEF781FF2B48F4
:101A10002146FEF793FF00202146FEF7D9FF21481B
:101A20002146FEF78BFF0020012105F09FFC214697
:101A3000FEF7CEFF02260125DFF8889000274FF041
:101A4000270A03E00135ADB20136B6B21FFA85F8B8
:101A500048462146FEF772FF0FFA88F101F1FF3880
:101A6000012900F00181384605F080FC83463846A4
:101A7000414605F07BFCC0EB0B002146FEF7A8FFBA
:101A800033B2272BDEDD06482146FEF757FF2046FE
:101A9000FEF720FFF6E000BF600A0020900F002054
:101AA000D410010814130108C80C0108E80C01083F
:101AB000100D0108340D0108640A0020500D0108C2
:101AC000A40C01085C0D010839202146FEF720FF17
:101AD0006E482146FEF732FF0025DFF8DC91DFF883
:101AE000DC816B4F48462146FEF728FF28462146F9
:101AF000FEF76EFF40462146FEF720FFEEB230466D
:101B000005F048FC2146FEF763FF38462146FEF704
:101B100015FF304605F058FC2146FEF759FF013508
:101B2000182DDFD12046FEF7D5FEABE0594B9B7850
:101B3000012B18D1584807F0E9FF05466D202146D2
:101B4000FEF7E6FEABB2032B08D8544B83F84250A5
:101B500006F060FA2046FEF7BDFE93E00B2021461A
:101B6000FEF7A6FE8EE06D202146FEF7D1FE4B4D1E
:101B700095F842002146FEF72BFF49482146FEF723
:101B8000DDFE95F8423023B946482146FEF7D6FEE1
:101B900013E0012B04D144482146FEF7CFFE0CE0B0
:101BA000032B04D141482146FEF7C8FE05E0022B75
:101BB00003D13F482146FEF7C1FE2046FEF78AFECC
:101BC00060E0012814D142200121FEF7A1FE39482E
:101BD0000121FEF7B3FE0120FFF764FA012802D1CC
:101BE000FEF778FE4EE00C200121FEF761FE49E091
:101BF0000D202146FEF75CFE44E053202146FEF70F
:101C000087FE2046FEF766FE2046FEF7EDFF39E030
:101C1000204B9B78012B12D11F4807F077FF85B22C
:101C20000320294606F06CF81C4BA3F860503520C1
:101C30002146FEF76DFE2046FEF74CFE22E03520E1
:101C40002146FEF765FE032006F06EF807F088F9DE
:101C50002246FEF791FE2046FEF73CFE12E00620EB
:101C60002146FEF725FE0DE0384605F07FFB804655
:101C70003846514605F07AFBC0EB08002146FEF7D6
:101C8000A7FEDFE603B0BDE8F08F00BF600D0108DE
:101C9000740D0108600A0020640A0020900F0020E3
:101CA000940A0108980A0108780D0108940D0108AA
:101CB000B80A0108B00D0108680D0108700D01088F
:101CC0002DE9F04F85B00391B84B5F7893F8D6506B
:101CD0009C7893F8D7A093F8D860002120224FF089
:101CE0002A0B8C46E1460EE024220BE0242209E078
:101CF0009A461F4664464D46612203E0312201E0C8
:101D0000DDF800A00131CBB2C35C202A17D1242B0F
:101D1000EAD0212BEAD0002BF4D1A44B5F7083F8DA
:101D2000D6509C7083F8D7A083F8D86003780D2B29
:101D300000F0398106200399FEF7BAFD33E1242A29
:101D4000D6D0612A40F09680132D0DD9974B5F7045
:101D500083F8D6509C7083F8D7A083F8D860012010
:101D60000399FEF7A5FD1EE1092C0DD98F4B5F707D
:101D700083F8D6509C7083F8D7A083F8D8600220EF
:101D80000399FEF795FD0EE12C2B11D18AF02C0A58
:101D900004EB4403C3EBC303DFF8108243441D4448
:101DA00085F804C001345FFA8AFAE4B24D46A9E727
:101DB0002A2B0ED104EB4403C3EBC3037B4A134429
:101DC0002B4483F804C0002D98D00134E4B23122B2
:101DD00098E70D2B09D1754B5F7083F8D6509C7036
:101DE00083F8D7A083F8D86015E00A2B09D16F4B90
:101DF0005F7083F8D6509C7083F8D7A083F8D860C2
:101E000009E0E3B9694B5F7083F8D6509C7083F8A2
:101E1000D7A083F8D860654B9A7893F8D61002EB78
:101E20004200C0EBC00003440B440020187111B104
:101E300001325E4B9A700398FFF708FAB3E083EA29
:101E40000A0A5FFA8AFACDF800A0202B3FF458AFB7
:101E500005F10108CDF8088004EB4408C8EBC80878
:101E6000DFF848A1D04445442B71DDF800A0029B67
:101E7000DDB247E7312A25D1A3F130085FFA88F8AF
:101E8000B8F1090F04D81B0103F0F006322239E73C
:101E9000A3F141085FFA88F8B8F1050F05D8A3F15E
:101EA00037063601F6B232222CE7A3F161085FFA59
:101EB00088F8B8F1050F37D8A3F157063601F6B206
:101EC00032221FE7322A0BD038494F7081F8D650A2
:101ED0008C7081F8D7A081F8D8602A2A2ED04CE0E7
:101EE000A3F130085FFA88F8B8F1090F04D8303E42
:101EF0001E44F6B25A4605E7A3F141085FFA88F896
:101F0000B8F1050F04D8373E1E44F6B25A46F9E63A
:101F1000A3F161085FFA88F8B8F1050F23D8573E9E
:101F20001E44F6B25A46EDE620494F7081F8D6506D
:101F30008C7081F8D7A081F8D8601EE00D2B02D0FC
:101F40000A2B00D033BB194B93F8D72093F8D83025
:101F50009A4203D10398FFF779F924E0042003990A
:101F6000FEF7A6FC1FE0114B5F7083F8D6509C7003
:101F700083F8D7A083F8D8600AE0312A08D10D2B66
:101F800002D00A2B00D053B90398FFF75FF90AE09B
:101F90002A2A04D105200399FEF78AFC03E00020D9
:101FA0000399FEF785FC05B0BDE8F08F600A0020BC
:101FB000704700BF08B501F05DFFFEE708B501F00E
:101FC00059FFFEE708B501F055FFFEE708B501F03F
:101FD00051FFFEE7704700BF704700BF704700BF6A
:101FE00008B5FEF747FC184B1B6813B1013B164AB6
:101FF0001360164B1B6813B1013B144A1360144B5A
:102000001B6813B1013B124A1360124B1B681BB1D2
:10201000104B5A6801325A600F4B1B681BB10E4BB4
:102020005A6801325A60FEF72DFC0C4BA3FB0023CB
:102030001B0903EB8303B0EB830F03D102F0C6FE51
:1020400004F002FF08BD00BFE8170020F0170020D1
:10205000EC170020E0170020D8170020CDCCCCCC06
:1020600008B5024801F0A0FC08BD00BFF41700202D
:1020700008B5024801F098FC08BD00BF3C190020DB
:1020800008B5024800F0D6FE08BD00BFB813002016
:1020900008B5024804F020FA08BD00BF3C2B002020
:1020A000044B1B68586AB0F5004FA8BFA0F58030FC
:1020B000704700BFF80F002000B587B0104B9A6939
:1020C00042F004029A619A6902F004020092009AB6
:1020D0009A6942F001029A619B6903F0010301933E
:1020E000019B03230293012204920593002303938F
:1020F000044802A902F0AAFE07B05DF804FB00BF85
:10210000001002400008014030B58BB01B4C4FF06E
:10211000804323604FF6FF73E3600025656025610F
:10212000A5606561204604F08BF9154BDA6942F031
:102130000102DA61DB6903F001030093009B0323D2
:102140000193029501230393049505930695079344
:1021500008950993204601A904F0F4FA08B101F0AA
:102160009BFE0648036800225A62042104F0F6FC34
:1021700008B101F091FE0BB030BD00BFF80F002098
:102180000010024008B5FFF797FFFFF7BDFF08BD3D
:10219000074AD36823F4E0631B041B0C43F0BF63BE
:1021A00043F4003300F0070043EA0023D360704794
:1021B00000ED00E070B4164BDC68C4F30224C4F1F7
:1021C0000703042B28BF0423251D062D8CBF033CC9
:1021D0000024012505FA04F6013E324005FA03F316
:1021E000013B194001FA04F41443002806DA00F018
:1021F0000F002401E4B2074B1C5407E02401E4B2B1
:1022000000F1604000F5614080F8004370BC704709
:1022100000ED00E014ED00E0420900F01F00012392
:1022200003FA00F0014B43F82200704700E100E0A0
:102230000138B0F1807F0AD2064B5860F021064A7F
:1022400082F823100020986007221A60704701204E
:10225000704700BF10E000E000ED00E00F4B1A688F
:1022600042F001021A6059680D4A0A405A601A6821
:1022700022F0847222F480321A601A6822F48022DA
:102280001A605A6822F4FE025A604FF41F029A60E4
:102290004FF00062034B9A60704700BF001002408D
:1022A0000000FFF800ED00E02DE9F04182B00546A6
:1022B000036813F0010F00F0EA80BC4B5B6803F089
:1022C0000C03042B0AD0B94B5B6803F00C03082BFA
:1022D00030D1B64B5B6813F4803F2BD04FF4003302
:1022E00093FAA3F3B3FA83F343F02003C3F3421347
:1022F000012B02D1AD4B1A6807E04FF4003393FA7B
:10230000A3F3B3FA83F3A94B5A6A4FF4003393FA59
:10231000A3F3B3FA83F303F01F0322FA03F313F0DA
:10232000010F00F0B4806B6823F00403012B40F030
:102330009A83ACE09D4B1A6822F480321A601A68C6
:1023400022F480221A60FEF79DFA80464FF4003492
:10235000964E41F2883706E0FEF794FAC8EB00008B
:10236000B84200F2828394FAA4F3B3FA83F343F001
:102370002003C3F34213012B01D1326804E094FA25
:10238000A4F3B3FA83F3726A94FAA4F3B3FA83F36F
:1023900003F01F0322FA03F313F0010FDCD1834B88
:1023A0001A6822F480321A606B68012B09D17F4BC6
:1023B0001A6822F480221A601A6842F480321A6085
:1023C0000AE0052B03D10522794B1A7004E0774B04
:1023D0001A6822F480221A606B6863B3FEF752FA1F
:1023E00080464FF40034714E41F2883706E0FEF724
:1023F00049FAC8EB0000B84200F2398394FAA4F31A
:10240000B3FA83F343F02003C3F34213012B01D14A
:10241000326804E094FAA4F3B3FA83F3726A94FA8C
:10242000A4F3B3FA83F303F01F0322FA03F313F0C8
:10243000010FDCD02BE0FEF725FA80464FF4003484
:102440005A4E41F2883706E0FEF71CFAC8EB00004E
:10245000B84200F20E8394FAA4F3B3FA83F343F084
:102460002003C3F34213012B01D1326804E094FA34
:10247000A4F3B3FA83F3726A94FAA4F3B3FA83F37E
:1024800003F01F0322FA03F313F0010FDCD12B68D2
:1024900013F0020F00F0C380444B5B6813F00C0F85
:1024A0000AD0424B5B6803F00C03082B38D13F4B3A
:1024B0005B6813F4803F33D1022393FAA3F3B3FA9A
:1024C00083F343F02003C3F34213012B02D1374BB4
:1024D0001A6806E0022393FAA3F3B3FA83F3334BAB
:1024E0005A6A022393FAA3F3B3FA83F303F01F03A8
:1024F00022FA03F313F0010F03D02B69012B40F0F4
:10250000BA822A4B1968F82090FAA0F0B0FA80F04D
:10251000C0B26A69824021F0F8010A431A607EE085
:102520002B69002B46D0012292FAA2F3B3FA83F36F
:10253000DBB29B0003F1844303F584031A60FEF7CA
:10254000A1F907460224194E05E0FEF79BF9C01BCE
:10255000642800F2928294FAA4F3B3FA83F343F06E
:102560002003C3F34213012B01D1326804E094FA33
:10257000A4F3B3FA83F3726A94FAA4F3B3FA83F37D
:1025800003F01F0322FA03F313F0010FDDD0074B12
:102590001968F82090FAA0F0B0FA80F0C0B26A6929
:1025A000824021F0F8010A431A6038E0001002402E
:1025B00002100240012393FAA3F3B3FA83F3DBB2D0
:1025C0009B0003F1844303F5840300221A60FEF7A5
:1025D00059F907460224CB4E05E0FEF753F9C01B1C
:1025E000642800F24C8294FAA4F3B3FA83F343F024
:1025F0002003C3F34213012B01D1326804E094FAA3
:10260000A4F3B3FA83F3726A94FAA4F3B3FA83F3EC
:1026100003F01F0322FA03F313F0010FDDD12B683F
:1026200013F0080F58D0AB6963B3012393FAA3F1F9
:10263000B1FA81F1C9B2B44A42F82130FEF722F969
:1026400007460224AF4E05E0FEF71CF9C01B6428C4
:1026500000F2178294FAA4F3B3FA83F394FAA4F382
:10266000B3FA83F3726A94FAA4F3B3FA83F303F030
:102670001F0322FA03F313F0010FE5D00120FEF748
:1026800007F929E0012292FAA2F2B2FA82F2D2B25A
:1026900000219D4B43F82210FEF7F4F80746022470
:1026A000984E05E0FEF7EEF8C01B642800F2EB81BF
:1026B00094FAA4F3B3FA83F394FAA4F3B3FA83F38A
:1026C000726A94FAA4F3B3FA83F303F01F0322FAB5
:1026D00003F313F0010FE5D12B6813F0040F00F0A2
:1026E000EE80884BDA6942F08052DA61DB6903F0F0
:1026F00080530193019B854B1A6842F480721A60E3
:10270000FEF7C0F80646814C05E0FEF7BBF8801BDB
:10271000642800F2BA81236813F4807FF5D0012188
:1027200091FAA1F1B1FA81F1C9B2794B002243F8D3
:102730002120042191FAA1F1B1FA81F1C9B243F843
:102740002120FEF79FF8804602246E4E41F2883722
:1027500006E0FEF797F8C8EB0000B84200F2978158
:1027600094FAA4F3B3FA83F394FAA4F3B3FA83F3D9
:1027700043F04003C3F34213022B0CBF326A726A68
:1027800094FAA4F3B3FA83F303F01F0322FA03F3DA
:1027900013F0010FDDD1EB6893B9012191FAA1F19A
:1027A000B1FA81F1C9B25A4B002243F82120042129
:1027B00091FAA1F1B1FA81F1C9B243F8212026E0E2
:1027C000012B12D1042292FAA2F2B2FA82F2D2B210
:1027D0004F4B002143F82210012292FAA2F1B1FAE4
:1027E00081F1C9B243F8212011E0012292FAA2F14D
:1027F000B1FA81F1C9B2464B002043F8210004210F
:1028000091FAA1F1B1FA81F1C9B243F82120EB6844
:10281000012B2AD1FEF736F880460224394E41F2C8
:10282000883706E0FEF72EF8C8EB0000B84200F249
:10283000308194FAA4F3B3FA83F394FAA4F3B3FACD
:1028400083F343F04003C3F34213022B0CBF326AFD
:10285000726A94FAA4F3B3FA83F303F01F0322FA23
:1028600003F313F0010FDDD029E0FEF70BF88046EB
:102870000224244E41F2883706E0FEF703F8C8EB45
:102880000000B84200F2078194FAA4F3B3FA83F38C
:1028900094FAA4F3B3FA83F343F04003C3F342136F
:1028A000022B0CBF326A726A94FAA4F3B3FA83F370
:1028B00003F01F0322FA03F313F0010FDDD1EB69DC
:1028C000002B00F0EA800F4A526802F00C02082A3E
:1028D00000F0E580022B40F08E804FF0807393FA79
:1028E000A3F3B3FA83F3DBB29B0003F1844303F554
:1028F000840300221A60FDF7C5FF07464FF00074FD
:10290000004E0DE000100240800442420070004082
:1029100000044242FDF7B6FFC01B642800F2C180EC
:1029200094FAA4F3B3FA83F343F02003C3F34213FE
:10293000012B01D1326804E094FAA4F3B3FA83F3D3
:10294000726A94FAA4F3B3FA83F303F01F0322FA32
:1029500003F313F0010FDDD12B6AB3F5803F09D1EA
:1029600003F1804303F58833596821F40031AA68E4
:102970000A435A604F4B5A68686A296A014322F435
:1029800074120A435A604FF0807393FAA3F3B3FAB8
:1029900083F3DBB29B0003F1844303F5840301223C
:1029A0001A60FDF76FFF06464FF00074414D04E0DA
:1029B000FDF768FF801B642875D894FAA4F3B3FA76
:1029C00083F343F02003C3F34213012B01D12A68A0
:1029D00004E094FAA4F3B3FA83F36A6A94FAA4F3D2
:1029E000B3FA83F303F01F0322FA03F313F0010F8A
:1029F000DED000205AE04FF0807393FAA3F3B3FACD
:102A000083F3DBB29B0003F1844303F584030022CC
:102A10001A60FDF737FF06464FF00074254D04E0BD
:102A2000FDF730FF801B64283FD894FAA4F3B3FA73
:102A300083F343F02003C3F34213012B01D12A682F
:102A400004E094FAA4F3B3FA83F36A6A94FAA4F361
:102A5000B3FA83F303F01F0322FA03F313F0010F19
:102A6000DED1002022E0012020E003201EE0032030
:102A70001CE003201AE0012018E0032016E00320E8
:102A800014E0032012E0032010E003200EE00320F6
:102A90000CE003200AE0032008E0002006E001200B
:102AA00004E0032002E0032000E0032002B0BDE8C0
:102AB000F08100BF0010024030B486B0204D02AC5F
:102AC00028686968AA68EB680FC42B8AADF80430DF
:102AD0001C4B5B6803F00C02082A2CD14FF47012D7
:102AE00092FAA2F2B2FA82F203F47011D2B221FA8F
:102AF00002F206A90A4412F8102C13F4803F16D0F3
:102B0000104B59684FF4003393FAA3F3B3FA83F3ED
:102B100001F40031DBB221FA03F306A90B4413F8E8
:102B2000143C0948B0FBF3F002FB00F004E0074856
:102B300000FB02F000E0044806B030BC704700BF64
:102B4000AC0F01080010024000127A0000093D009D
:102B500008B5FFF7B1FF094B5A68F02393FAA3F3C6
:102B6000B3FA83F302F0F002DBB222FA03F3044A71
:102B700013441B7DD840034B186008BD0010024071
:102B8000AC0F01080000002008B5FFF7E1FF094B7A
:102B90005A684FF4E06393FAA3F3B3FA83F302F4B1
:102BA000E062DBB222FA03F3034A13441B7DD840F0
:102BB00008BD00BF00100240AC0F010808B5FFF7C8
:102BC000C7FF094B5A684FF4605393FAA3F3B3FA63
:102BD00083F302F46052DBB222FA03F3034A134494
:102BE0001B7DD84008BD00BF00100240AC0F01089B
:102BF000F0B587B0054600285ED090F8E93313F0B1
:102C0000FF0F04D1002380F8E83302F087FA032392
:102C100085F8E933286801F051FC2C4654F8107B04
:102C20006E460FCC0FC6236833602B1D0ECB384683
:102C300001F032FC2868002101F04AFC2B460022FA
:102C40000124114683F8294083F828209A8683F8C6
:102C50002B109963D9631964013220330F2AF1D103
:102C60002B4600210A4683F8092283F80812998628
:102C700083F80B22C3F81822C3F81C22C3F82022C1
:102C8000013120330F29EED12C4654F8107B6E46CB
:102C90000FCC0FC6236833602B1D0ECB384601F0D6
:102CA00019FC002485F82440012385F8E9332868BD
:102CB00001F032FF204600E0012007B0F0BD00BF68
:102CC00010B5044690F8E833012B0ED0012180F8AE
:102CD000E81302F029FB206801F01CFF206801F0D6
:102CE000E3FB002084F8E80310BD022010BD00BF04
:102CF00010B5044690F8E833012B0BD0012380F87F
:102D0000E83380F82410006801F0FEFE002084F80B
:102D1000E80310BD022010BD38B50546C8B210F05A
:102D2000800F01F07F0405EB441414BF283404F530
:102D3000027401F07F012170C00960702261E370AC
:102D400095F8E833012B0AD0012385F8E833286889
:102D5000214601F0D3FB002085F8E80338BD0220AE
:102D600038BD00BF10B50446CAB212F0800F01F0A2
:102D70007F0300EB431314BF283303F5027301F004
:102D80007F011970D2095A7090F8E823012A0AD0FD
:102D9000012280F8E8230068194601F04BFD00206D
:102DA00084F8E80310BD022010BD00BF38B504460A
:102DB00001F07F00450105F5027561194A618B61DB
:102DC0000023CB614B70605594F8E833012B09D098
:102DD000012384F8E833206801F0C0FE002084F865
:102DE000E80338BD022038BD01F07F0100EB41103F
:102DF000B0F82402704700BF38B5044601F07F00E8
:102E00004501283561194A618B610023CB6101239B
:102E10004B70605594F8E833012B09D0012384F8F6
:102E2000E833206801F09AFE002084F8E80338BDFA
:102E3000022038BD2DE9F04F83B00446006801F050
:102E40006DFE10F4004F00F0FE810023ADF8043059
:102E5000ADF8063040F60F774CF2800840F68F76DA
:102E6000E7E1BDF8043013F00F0540F0C080BDF875
:102E7000043003F010039BB293BB03889BB223F48E
:102E8000E14323F070039BB203802368B3F8502022
:102E900092B294F8281002EBC10203EB4203D3F87C
:102EA0000434C3F309036364E26B1344E363204611
:102EB000002102F077F994F8243013F0FF0F00F0AE
:102EC000B881236C002B40F0B481236894F824204F
:102ED00042F08002A3F84C20002384F82430A8E1BB
:102EE00003889BB2ADF80630BDF8063003F40063EA
:102EF0009BB2E3B1B0F850309BB294F8082203EBD8
:102F0000C20300EB4303D3F80C34C3F30903C4F842
:102F1000243204F57B71B4F80C2201F0FDFE236825
:102F20001A8832401A80204602F028F981E1BDF863
:102F300006301BB2002B80F27C8103883340038073
:102F40002068B0F850309BB294F8082203EBC2031B
:102F500000EB4303D3F80C34C3F30903C4F8243261
:102F600063B1D4F81C12B4F80C2201F0D5FED4F8E9
:102F70001C22D4F824321344C4F81C322046002109
:102F800002F006F92368B3F8501089B203F58062A5
:102F90000631D4F818323E2B0FD9C3F34F1013F07B
:102FA0001F0F04BF00F1FF3080B26FEAC0636FEA09
:102FB00053439BB242F811300AE0C3F34F0013F0C1
:102FC000010F1CBF013080B2800280B242F81100B4
:102FD000226813889BB223F4804323F0700383F4A8
:102FE000405343F4004343F08003138021E12368FE
:102FF00033F825309BB2ADF80630BDF806301BB271
:10300000002B80F2838030F82530334020F82530C3
:103010004FEA451B0BF5027B04EB0B0999F80A30CC
:10302000C3B92068B0F850309BB214F80B2003EB02
:10303000C20300EB4303D3F80C34C3F3090ABAF11B
:10304000000F47D0D9F81410B9F80420534601F006
:1030500063FE3FE0206814F80B3030F8232002F4C0
:10306000804292B2AAB1B0F8502092B202EBC303F0
:1030700000EB4303D3F80434C3F3090ABAF1000F99
:103080001CD0D9F81410B9F80620534601F044FEBC
:1030900014E0B0F8502092B202EBC30300EB4303FC
:1030A000D3F80C34C3F3090ABAF1000F06D0D9F8EB
:1030B0001410B9F80820534601F02EFE14F80B1036
:1030C000226832F821303B4043F4004343F0C00310
:1030D00022F82130D9F81C305344C9F81C30D9F8F3
:1030E00014205244C9F81420D9F818301BB1D9F86B
:1030F00010108A4505D2204614F80B1002F048F84B
:1031000004E0204614F80B10FFF750FEBDF806301F
:1031100003F080039BB2002B00F08B804FEA451A2E
:103120000AF1280A04EB0A09236833F8252092B231
:1031300022F4E14222F0700292B223F8252099F89D
:103140000A30CBB92368B3F8502092B214F80A10B1
:1031500002EBC10203EB4203D3F80434C3F30903C7
:10316000C9F81C30002B45D02068D9F81410B9F8E4
:10317000042001F0D9FC3DE0236814F80A2033F85C
:10318000221001F0400189B2A9B1B3F8501089B200
:1031900001EBC20203EB4203D3F80434C3F3090387
:1031A000C9F81C30E3B12068D9F81410B9F806202A
:1031B00001F0BAFC14E0B3F8501089B201EBC2027E
:1031C00003EB4203D3F80C34C3F30903C9F81C30F2
:1031D00033B12068D9F81410B9F8082001F0A4FC24
:1031E00014F80A20236833F82210394048EA010114
:1031F00023F822102368B3F8502092B214F80A1072
:1032000002EBC10203EB4203D3F80434C3F3090316
:10321000C9F81C30D9F814201A44C9F81420D9F878
:1032200018301BB9204601F0BDFF02E02046FFF731
:10323000E3FD2068B0F844309BB2ADF8043013F4DD
:10324000004F7FF40EAE206801F068FC10F4806F30
:103250000FD02268B2F8443023F480631B041B0CA7
:10326000A2F84430204601F0ADFF20460021FFF7D0
:103270003FFD206801F052FC10F4804F08D0226816
:10328000B2F8443023F480431B041B0CA2F84430F2
:10329000206801F043FC10F4005F08D02268B2F807
:1032A000443023F400531B041B0CA2F84430206864
:1032B00001F034FC10F4805F19D02268B2F840307D
:1032C00023F004031B041B0CA2F8403023684FF4C6
:1032D0003D42A3F84020204601F086FF2268B2F864
:1032E000443023F480531B041B0CA2F844302068A4
:1032F00001F014FC10F4006F21D02268B2F84430C1
:1033000023F400631B041B0CA2F844302368B3F8B9
:10331000402092B242F00802A3F840202368B3F89C
:10332000402092B242F00402A3F84020206801F04D
:10333000F5FB10F4805F02D1204601F04FFF2068BA
:1033400001F0ECFB10F4007F0BD02268B2F844309F
:1033500023F400731B041B0CA2F84430204601F038
:103360002BFF206801F0DAFB10F4807F08D0226880
:10337000B2F8443023F480731B041B0CA2F84430D1
:1033800003B0BDE8F08F00BF38B50446CAB212F0F2
:10339000800F05D001F07F0300EB4313283303E0D7
:1033A00000EB411303F502730120987001F07F05D3
:1033B0001D70D2095A7094F8E82382420FD084F825
:1033C000E8032068194601F01DFB25B9206804F5C3
:1033D0007B7101F0A7FB002084F8E80338BD0220D0
:1033E00038BD00BF10B50446CAB212F0800F05D038
:1033F00001F07F0300EB4313283303E000EB41139C
:1034000003F502730020987001F07F011970D20952
:103410005A7094F8E823012A0AD0012284F8E8239C
:103420002068194601F024FB002084F8E80310BD51
:10343000022010BD2DE9F04104460368196921F40A
:103440004051C2680A431A610268D3680069A168E2
:1034500008436169014323F4B05323F00C030B4389
:10346000D3602368596921F44071A2690A435A6103
:103470002668364B9E4233D1FFF7A0FB00EB80005D
:1034800000EB800063689B00B0FBF3F6304DA5FBBA
:10349000062676093601FFF791FB00EB800000EB72
:1034A000800063689B00B0FBF3F7FFF787FB00EB3E
:1034B000800000EB800063689B00B0FBF3F3A5FB8A
:1034C00003235B09642202FB13773F013237A5FB1C
:1034D0000735C5F343152E431C4B9E60BDE8F081B4
:1034E000FFF752FB00EB800000EB800063689B005D
:1034F000B0FBF3F7164DA5FB07277F093F01FFF748
:1035000043FB00EB800000EB800063689B00B0FB96
:10351000F3F8FFF739FB00EB800000EB80006368F5
:103520009B00B0FBF3F0A5FB00304009642303FBD4
:1035300010884FEA081808F13208A5FB0825C5F3E2
:1035400043152F43B760BDE8F08100BF003801404C
:103550001F85EB512DE9F04106460C4690461D466D
:10356000FDF790F90746B8F1000F26D053E0B5F10A
:10357000FF3F23D025B1FDF785F9C01B85421CD242
:103580003368DA6822F08002DA603368DA6822F0A1
:103590002002DA603368DA6822F48072DA60336815
:1035A0005A6922F001025A61012386F85130002342
:1035B00086F850300320BDE8F0813268136823405C
:1035C000A342D4D10020BDE8F081B5F1FF3F23D064
:1035D00025B1FDF757F9C01B85421CD23368DA6864
:1035E00022F08002DA603368DA6822F02002DA60C2
:1035F0003368DA6822F48072DA6033685A6922F03C
:1036000001025A61012386F85130002386F85030B8
:103610000320BDE8F081326813682340A342D4D070
:103620000020BDE8F08100BF704700BF10B5044620
:1036300048B390F8513013F0FF0F04D1002380F805
:103640005030FFF7F1FF022384F851302368DA6825
:1036500022F40052DA602046FFF7ECFE23681A6974
:1036600022F490421A6123685A6922F02A025A61B0
:103670002368DA6842F40052DA60002060650123B2
:1036800084F8513010BD012010BD00BF704700BF4D
:1036900038B50446B8B1022380F851300368DA68BF
:1036A00022F40052DA6003680025DD6003681D61C2
:1036B00003685D61FFF7EAFF656584F8515084F89F
:1036C0005050284638BD012038BD00BF2DE9F041DB
:1036D00004460D461E4690F85130DBB2012B03D054
:1036E000223BDBB2012B68D8002D68D0002A68D0BD
:1036F00094F85030012B66D0012384F85030002319
:10370000636594F85130DBB2222B03D1322384F865
:10371000513008E094F85130DBB2242B0CBF232346
:10372000122384F85130A28410464FF080080027FD
:103730000138E084A068B0F5805F12D12046414690
:103740003A463346FFF706FF00283ED123682A8811
:10375000C2F308025A6023690BB902350CE0013547
:103760000AE0204641463A463346FFF7F3FE70BB77
:1037700023682A785A600135E08C0028D8D1204689
:10378000402100223346FFF7E5FE034608BB94F8CC
:103790005120D2B2322A03D1222284F8512008E0EB
:1037A00094F85120D2B2232A0CBF2422012284F89B
:1037B0005120002284F850200CE002230AE001236B
:1037C00008E0012306E0022304E0032302E00323D0
:1037D00000E003231846BDE8F08100BF90F85130A7
:1037E000DBB2012B01D0122B2FD100292FD0002AC0
:1037F0002FD090F85030012B2DD0012380F850307D
:103800008162C16202864286002380F834304365BB
:1038100090F85130DBB2122B0CBF3223222380F8F8
:103820005130002380F850300268D16841F4807133
:10383000D1600268516941F0010151610268D168AB
:1038400041F02001D16018467047022070470120E6
:103850007047012070470220704700BF10B5044632
:1038600000238363C3630364FFF7B8FF012384F875
:10387000343010BD10B504464364FFF7AFFF022398
:1038800084F8343010BD00BFC36B826B934209D201
:10389000C16A5A1CC263028EB3FBF2F002FB103302
:1038A000C85C7047002070472DE9F0470446894600
:1038B0009246C56B836B9D425AD24FF001084FF47C
:1038C0007A77238EB5FBF3F203FB1251E26A2046AE
:1038D000114442463B46FFF7F9FEE16AE56B268E4E
:1038E000B5FBF6F306FB1353CB5C0A2B3BD101353A
:1038F000E563236CEF1ABFB257452ED2B3FBF6F83F
:1039000006FB1838B5FBF6F306FB13551FFA88F2D1
:10391000ABB29A4207D21346AAB248461944D21A09
:1039200006F026F90FE01FFA88FA48465144CAEB20
:10393000060206F01DF9208ECAEB00004844E16A39
:10394000AAB206F015F9ADB21FFA88F8C8EB050562
:10395000A944002389F8013000E00027E36B2364C9
:103960003846BDE8F0870135E563A36BAB42A8D8C4
:1039700094F85120D2B2232A04D094F85120D2B224
:10398000242A0DD1E363236494F85130DBB2232B56
:103990000CBF3223222384F851300020BDE8F08789
:1039A0000020BDE8F08700BF10B584B0044603686E
:1039B0001A68D96812F0010F0BD011F4807F08D07B
:1039C0001A6800925A680092009A426D42F0010211
:1039D000426519685A6902F0010211F0020F10D015
:1039E000002A00F019811A6801925A680192019A1E
:1039F000626D42F0040262651A6812F0040F07D18A
:103A00000FE1196811F0040F10D0002A00F00781AF
:103A10001A6802925A680292029A626D42F0020299
:103A200062651A6812F0080F05D10DE0196811F0EF
:103A3000080F09D042B11A6803925A680392039A98
:103A4000626D42F0080262651A68D96812F0200FB0
:103A500079D011F0200F76D094F85120A16A02F0AD
:103A6000EF02222A6FD15A68A368B3F5805F0ED1A6
:103A7000236933B9C2F308030B80A36A0233A3623C
:103A800010E0D3B20B80A36A0133A3620AE023697A
:103A90001BB94B1CA3620A7004E04B1CA36202F02A
:103AA0007F030B7094F8343023BB638E013B9BB2D1
:103AB0006386002B47D12368DA6822F02002DA609F
:103AC00094F85130DBB2322B03D1122384F85130F9
:103AD0000CE02368DA6822F48072DA6023685A699D
:103AE00022F001025A61012384F85130204601F08E
:103AF00001FD28E0022B0CD1636C20469847638EB1
:103B0000013B9BB26386F3B9E36AA362238E6386AB
:103B100019E0A36B0133A363228EE16B11448B4246
:103B200009D394F85130DBB2322B0CBF232324236A
:103B300084F8513007E0638E013B9BB2638613B972
:103B4000E36AA362628623681A68D96812F0800F5C
:103B500032D011F0800F2FD094F85120D2B202F061
:103B6000DF01122901D0232A26D1A268B2F5805F95
:103B70000ED1226A1288C2F308025A6023691BB967
:103B8000236A0233236208E0236A0133236204E0DC
:103B9000226A511C216212785A60E38C013B9BB26D
:103BA000E3844BB92368DA6822F08002DA60236884
:103BB000DA6842F04002DA6023681A68D96812F0C5
:103BC000400F23D011F0400F20D0DA6822F04002DD
:103BD000DA6094F85130DBB2322B03D1222384F81F
:103BE000513010E094F85130DBB2232B03D1242361
:103BF00084F8513007E023685A6922F001025A61C3
:103C0000012384F85130204601F072FC636D73B1DA
:103C1000204601F071FC0AE01A681A6814E71A6875
:103C200012E71A6812F0080F7FF405AF0CE704B032
:103C300010BD00BF08B5034688B1D0F8140210B11A
:103C40000020C3F8140209B1C3F81012012183F84F
:103C5000FC111A70184601F0CDFA002008BD0220B0
:103C600008BD00BF19B1C0F814120020704702202F
:103C7000704700BF08B501F0FBFA002008BD00BF87
:103C800008B5D0F8143233B11B68984700280CBF30
:103C90000020022008BD022008BD00BF08B5D0F8F2
:103CA00014325B689847002008BD00BF38B5044651
:103CB00000F50275284603F0F1F80123C4F8F43149
:103CC000B4F80E32C4F8F83194F8081201F01F036A
:103CD000012B08D013B1022B0AD00EE02046294652
:103CE00003F0FAF80EE02046294603F081FA09E0D5
:103CF0002046294603F098FA04E0204601F08001AE
:103D000001F0D0FA002038BD38B5044609BBD0F820
:103D1000F431032B26D1D0F80C11D0F81031994290
:103D20000AD9C91AC0F80C11994238BF0B4611467E
:103D30009AB203F05DFF15E0D0F814321B6923B18D
:103D400090F8FC21032A00D19847204603F05AFF3F
:103D500008E0D0F814329B6923B190F8FC21032AC3
:103D600000D19847002038BD38B50446002936D127
:103D7000D0F8F431022B2AD1C169036A994206D9DD
:103D8000CB1AC36111469AB203F018FF1FE0826993
:103D9000B2FBF3F103FB112161B993420AD8D0F8C9
:103DA000F8319A4206D20A4603F008FF0023C4F80D
:103DB000F8310CE0D4F81432DB682BB194F8FC2114
:103DC000032A01D120469847204603F027FF94F8A4
:103DD0000032012B0CD1002384F8003208E0D0F827
:103DE00014325B6923B190F8FC21032A00D1984773
:103DF000002038BD38B5044600210A46402301F0B2
:103E00003FFA4025C4F810512046802100222B465D
:103E100001F036FA2562012384F8FC31D4F8183217
:103E20002BB1D4F814325B682046217998470020E2
:103E300038BD00BF01740020704700BF90F8FC310E
:103E400080F8FD31042380F8FC310020704700BF6A
:103E500090F8FD3180F8FC310020704708B590F8EB
:103E6000FC31032B04D1D0F81432DB6903B198473D
:103E7000002008BD08B501200021FCF7FBFB022053
:103E80000021FCF7F7FB03200021FCF7F3FB0420E3
:103E90000021FCF7EFFB08BD08B5FFF7EBFFFEE7DD
:103EA00010B594B000230F931093119312931393B2
:103EB0000793089309930A930B9301930293039337
:103EC00004930123059306934FF4E0130E9302230A
:103ED0000C934FF480330D9305A8FEF7E5F910B16C
:103EE000FFF7C8FFFEE7102301930024049401A804
:103EF000FCF720FB0F230F930221109111944FF434
:103F00008063129313940FA8FCF72AF910B1FFF7FE
:103F1000B1FFFEE714B010BD2DE9F047ADF5027D0D
:103F2000FCF796FCFFF7BCFF01F010FAB84C2046F6
:103F3000B8490022FFF77EFE2046B749FFF792FE00
:103F40002046B64902F0B4F92046FFF793FEB44E7E
:103F5000B44A334607CA03C323F8022B120C1A7063
:103F6000A5A3D3E90023C6E90A230022AE4BC6E984
:103F70000C23A3A3D3E90023C6E904230022AB4BFF
:103F8000C6E90623A0A3D3E90023C6E9082340F22B
:103F9000AE53738740F20263B387062386F83E3040
:103FA000092386F83F30082386F840300B2786F82F
:103FB0004170032386F83830012386F83930002415
:103FC0004FF08045C6E912450024994DC6E91445D5
:103FD0000024984DC6E9164540F2DC53A6F860303F
:103FE00003F074FAFCF71AFC04F026F8FCF75EFC08
:103FF000FEF7C8F84FF4164001F0FAF901F07EFA26
:1040000004F034FE8C48022100F03EFA8B4C20462E
:104010006821002204F05AFE304621463A4605F057
:10402000CBFE48B930462146682205F0A1FD844800
:10403000022100F029FA25E0824880490B2205F090
:10404000BBFED8B9764C20467C49682205F090FD2D
:1040500000224FF08043C4E912230022744BC4E9CC
:1040600014230022734BC4E9162340F2DC53A4F856
:1040700060307548022100F007FA03E0734802211E
:1040800000F002FA0320664BB3F8601003F038FE2C
:104090000220FCF7E5FC624CDFF8C481DFF8C49134
:1040A000DFF8C4A10320002101F084F9002840F0CA
:1040B000E4800120142101F07DF994F83F0003F021
:1040C00069F9074694F8400003F064F9064694F84D
:1040D000410003F05FF9054694F83E0003F05AF9F9
:1040E0000346384631462A4603F0FEFD03F0B0FF92
:1040F00000F074FE00284ED05548052101F0A0FFC5
:10410000002003F047F9052101F08AFF012003F0A8
:1041100041F9052101F084FF022003F03BF905215C
:1041200001F07EFF032003F035F9052101F078FF4F
:10413000042003F02FF9052101F072FF052003F0A0
:1041400029F9052101F06CFF062003F023F9052170
:1041500001F066FF072003F01DF9052101F060FF63
:10416000082003F017F9052101F05AFF092003F098
:1041700011F9052101F054FF0A2003F00BF9052184
:1041800001F04EFF3348052101F05AFFFDF788FF8B
:10419000052101F075FFD8F80030002B66D100F042
:1041A0000FFEB0F57A7F61D32B4B5A6822F0E062A4
:1041B00042F080725A605A6822F0E06242F08062F7
:1041C0005A60D9F8183043F00403C9F81830D9F808
:1041D000183003F004030193019B204908230B606E
:1041E0000323CB6001254D60504600F02FFEC8F838
:1041F000005042E0AFF30080000000A09999C93F51
:10420000666666666666E63F7B14AE47E17A843F83
:104210003410002030000020280100206801002018
:10422000900F0020A410010800408F400000D03FF4
:104230000000F03F00407F40D00F0108280F002011
:10424000E40F0108001001080C10010844100108D7
:104250008810010894100108000001405812002045
:104260003C0B002000100240000C014000F0C8FD93
:1042700018B15046082100F0D5FE02A84FF4007195
:1042800001F02CF918B102A80021FDF719FD02A8D0
:104290004FF4007102F064FD00283FF403AF02A860
:1042A0000121FDF70DFDFDE6002100F004B80D4BE6
:1042B0005B58435004310C480C4B42189A42FFF4AF
:1042C000F6AF0B4A00F003B8002342F8043B094B59
:1042D0009A42FFF4F9AFFDF7C1FF05F021FCFFF7AB
:1042E0001BFE70470417010800000020400A002050
:1042F000400A0020F42B0020FFF7FEBF38B505462A
:104300000C4611F0FD0F01D101F0DAF8013CE4B2E6
:10431000012C02D8284602F08DFD38BD38B5034681
:104320000D46054C20465021044A05F0E1FC20468C
:104330002946FFF7E3FF38BD6812002030F9000876
:1043400038B503460D46054C20465021044A05F079
:10435000CFFC20462946FFF7D1FF38BD6812002068
:10436000B010010808B5FFF7C9FF08BD0000000044
:10437000F0B583B004460D46164611A3D3E90023D9
:1043800005F0F4F838B9204629460FA3D3E90023F5
:1043900005F0CEF820B10E483146FFF7AFFF0BE035
:1043A0000C4FCDE90045384650210B4A05F0A0FCE2
:1043B00038463146FFF7A2FF03B0F0BDAFF30080EF
:1043C000000000007E842E41000000007E842EC18B
:1043D000BC1001086812002028F90008AFF3008023
:1043E00038B503460D46054C20465021044A05F0D9
:1043F0007FFC20462946FFF781FF38BD6812002068
:10440000C810010800000000F0B583B004460D4656
:10441000164611A3D3E9002305F0A8F838B92046C1
:1044200029460FA3D3E9002305F082F820B10E48F6
:104430003146FFF763FF0BE00C4FCDE900453846EE
:1044400050210B4A05F054FC38463146FFF756FF21
:1044500003B0F0BDAFF30080000000007E842E4169
:10446000000000007E842EC1E010010868120020C8
:10447000EC100108AFF3008008B501460148FFF7D2
:104480003DFF08BDD410010810B50C46FFF736FFFC
:104490002046FFF7F1FF10BD84B001A880E80E00B0
:1044A000002004B0704700BFB0F840309BB243F426
:1044B0003D43A0F840300020704700BFB0F84030C6
:1044C00023F474535B045B0CA0F840300020704769
:1044D0000020704784B010B402AC84E80E000123C1
:1044E000A0F840300023A0F84030A0F84430A0F8F5
:1044F000503018465DF8044B04B0704730B4CB78A8
:10450000032B35D8DFE803F002280F1B0B7830F8B7
:10451000232092B222F4EC4222F0700242F40072A4
:1045200020F8232024E00B7830F8232092B222F4E4
:10453000EC4222F0700292B220F8232018E00B78AF
:1045400030F8232092B222F4EC4222F0700242F4BE
:10455000C06220F823200BE00B7830F8232092B2C1
:1045600022F4EC4222F0700242F4806220F8232010
:104570000B7830F8234043F4004242F0800224F0EC
:10458000F0042405240D224320F823208B7A002BED
:1045900040F08A804B7883B3B0F850309BB20A78F1
:1045A00003EBC20300EB43038A8852085200C3F8AE
:1045B00000240B7830F8232002F0400292B25AB166
:1045C00030F8232022F0F0021205120D42F40042CE
:1045D00042F0C00220F823200A7830F822309BB243
:1045E00023F4E04323F0400383F0200343F400432B
:1045F00043F0800320F8223018E1B0F850309BB22D
:1046000000F580620C7803EBC40304338C886408E3
:10461000640042F81340B0F85040A4B20B7804EBA9
:10462000C30406340B693E2B0FD9C3F34F1513F0A7
:104630001F0F04BF05F1FF35ADB26FEAC5656FEA24
:104640005545ADB242F814500AE0C3F34F0513F0DC
:10465000010F1CBF0135ADB2AD02ADB242F814502E
:104660000B7830F8232002F4804292B25AB130F82D
:10467000232022F0F0021205120D42F4404242F0D3
:10468000800220F823200A7830F822309BB223F4ED
:10469000804323F0700383F4405343F4004343F01A
:1046A000800320F82230C1E00A7830F8223023F469
:1046B000F8731B051B0D43F4014343F0800320F8FE
:1046C0002230B0F8502092B200F580630C7802EBF3
:1046D000C402CC886408640043F81240B0F850204B
:1046E00092B20C7802EBC40204320C8964086400B4
:1046F00043F812404B78002B4DD10B7830F8232033
:1047000002F4804292B25AB130F8232022F0F00233
:104710001205120D42F4404242F0800220F823209C
:104720000B7830F8232002F0400292B25AB130F8F0
:10473000232022F0F0021205120D42F4004242F052
:10474000C00220F823200A7830F8223023F0F0034A
:104750001B051B0D43F4004343F0C00320F8223037
:104760000B7830F82340A4B224F4804424F0700481
:1047700084F4405448F28002144320F823400B781C
:1047800030F8231089B221F4E04121F040010A43BE
:1047900020F823204AE00B7830F8232002F48042EE
:1047A00092B25AB130F8232022F0F0021205120D15
:1047B00042F4404242F0800220F823200B7830F887
:1047C000232002F0400292B25AB130F8232022F0A6
:1047D000F0021205120D42F4004242F0C00220F82D
:1047E00023200A7830F8223023F0F0031B051B0D3C
:1047F00043F4404343F0800320F822300B7830F834
:104800002340A4B224F4E04424F0400448F280029F
:10481000144320F823400B7830F8231089B221F498
:10482000804121F070010A4320F82320002030BC91
:10483000704700BF10B48B7A002B45D14B780BB377
:104840000B7830F8232002F0400292B25AB130F8CF
:10485000232022F0F0021205120D42F4004242F031
:10486000C00220F823200A7830F822309BB223F4CB
:10487000E04323F0400343F4004343F0800320F877
:104880002230BBE00B7830F8232002F4804292B251
:104890005AB130F8232022F0F0021205120D42F432
:1048A000404242F0800220F823200A7830F822307B
:1048B0009BB223F4804323F0700343F4004343F09E
:1048C000800320F8223099E04B78002B4BD10B78F5
:1048D00030F8232002F4804292B25AB130F82320FB
:1048E00022F0F0021205120D42F4404242F0800222
:1048F00020F823200B7830F8232002F0400292B2F7
:104900005AB130F8232022F0F0021205120D42F4C1
:10491000004242F0C00220F823200A7830F822300A
:1049200023F0F0031B051B0D43F4004343F0C003C9
:1049300020F822300B7830F82340A4B224F48044CD
:1049400024F0700448F28002144320F823400B78CE
:1049500030F8231089B221F4E04121F040010A43EC
:1049600020F823204AE00B7830F8232002F480421C
:1049700092B25AB130F8232022F0F0021205120D43
:1049800042F4404242F0800220F823200B7830F8B5
:10499000232002F0400292B25AB130F8232022F0D4
:1049A000F0021205120D42F4004242F0C00220F85B
:1049B00023200A7830F8223023F0F0031B051B0D6A
:1049C00043F4404343F0800320F822300B7830F862
:1049D0002340A4B224F4E04424F0400448F28002CE
:1049E000144320F823400B7830F8231089B221F4C7
:1049F000804121F070010A4320F8232000205DF857
:104A0000044B70470B787BB903889BB223F4804337
:104A100023F0400383F4805383F0100343F40043F6
:104A200043F08003038020E04A787AB130F82320F5
:104A300092B222F4E04222F0400282F0100242F4EC
:104A4000004242F0800220F823200EE030F82320BC
:104A500092B222F4804222F0700282F4805242F438
:104A6000004242F0800220F823200020704700BF5F
:104A70004B781BB30B7830F8232002F0400292B23F
:104A80005AB130F8232022F0F0021205120D42F440
:104A9000004242F0C00220F823200A7830F8223089
:104AA0009BB223F4E04323F0400383F0300343F44C
:104AB000004343F0800320F8223022E00B7830F8E6
:104AC000232002F4804292B25AB130F8232022F01F
:104AD000F0021205120D42F4404242F0800220F82A
:104AE00023200A7830F822309BB223F4804323F04D
:104AF000700383F4405343F4004343F0800320F8F1
:104B000022300020704700BF11B98023A0F84C303C
:104B1000002070470020704700207047B0F8440024
:104B200080B270470020704710B4013300F58060F8
:104B300000EB42025B100DD00432023111F8014C3F
:104B400011F8020C40EA042022F8040C043202316D
:104B5000013BF3D15DF8044B704700BF70B50546CB
:104B60000C464A78012A64D18E690B699E4203D9AA
:104B7000F61A8E611E46C7E000238B61C4E028460A
:104B80006169A288B3B2FFF7CFFFB5F850309BB28E
:104B9000227803EBC20305EB4303C3F8046437E058
:104BA000B5F850309BB2227803EBC20305EB430308
:104BB000C3F80C64237835F8233003F040039BB22C
:104BC0000BB1228900E0E28828466169B3B2FFF7A1
:104BD000ABFF63786BB9227835F8223023F0F0030D
:104BE0001B051B0D43F4004343F0C00325F822309E
:104BF0000EE0012B0CD1227835F8223023F0F0039F
:104C00001B051B0D43F4404343F0800325F822307D
:104C1000227835F822309BB223F4E04323F040039E
:104C200083F0300343F4004343F0800325F822303F
:104C30006FE08B6909698B4203D95B1AA3610B464C
:104C400001E00021A161A17A31BBB5F8501089B211
:104C500005F58062207801EBC00106313E2B0FD9AB
:104C6000C3F34F1013F01F0F04BF00F1FF3080B2E9
:104C70006FEAC0606FEA504080B242F8110032E043
:104C8000C3F34F0013F0010F1CBF013080B280024C
:104C900080B242F8110026E02ABBB5F8501089B264
:104CA00005F58062207801EBC00106313E2B0FD95B
:104CB000C3F34F1013F01F0F04BF00F1FF3080B299
:104CC0006FEAC0606FEA504080B242F811000AE01B
:104CD000C3F34F0013F0010F1CBF013080B28002FC
:104CE00080B242F81100227835F822309BB223F4CA
:104CF000804323F0700383F4405343F4004343F0B4
:104D0000800325F8223004E0A37A002B7FF448AF1B
:104D100035E7002070BD00BF013300F5806000EB77
:104D200042025B1005D052F8040B21F8020B013B44
:104D3000F9D1704710B5044600283CD090F85130A6
:104D400013F0FF0F01D100F0B1FE022384F85130BF
:104D500023681A6822F040021A602368A16862681A
:104D600041EA0200E268104322691043626910437D
:104D7000E2691043226A1043A26A1043A26902F456
:104D8000007140EA01021A602368618B01F004019E
:104D9000626A0A435A602368E26A1A612368DA6920
:104DA00022F40062DA610020044B18706065012370
:104DB00084F8513010BD012010BD00BF400B002011
:104DC000014B1868704700BF440B0020024B1A6863
:104DD00001321A60704700BF440B0020064B1B686D
:104DE000064AA2FB03121209322101FB1230D0F154
:104DF000010038BF00207047440B00201F85EB5195
:104E0000064B1B68064AA2FB0312D20802EB820281
:104E1000B3EB420F14BF002001207047440B002069
:104E2000CDCCCCCC074B1B68074AA2FB031252091E
:104E30004FF4FA7101FB1230D0F1010038BF0020AD
:104E4000704700BF440B0020D34D62102DE9F00FD6
:104E500082B000252B46674FDFF8A0C1664C0122C7
:104E60009A400E681640964240F0BB804A68122A6B
:104E70002FD00BD8022A29D003D86AB3012A20D018
:104E800035E0032A30D0112A1DD030E0DFF87081E0
:104E9000424521D008D8DFF86C914A451CD009F56D
:104EA00080394A4523D117E0DFF85C914A4513D099
:104EB000DFF858B15A450FD0A9F570294A4516D1E7
:104EC0000AE0CD6813E0CD68043510E0CD68083500
:104ED0000DE0CD680C350AE08A683AB1012A0CBFB2
:104EE00006614661082502E0002500E00425FF2E4A
:104EF00003D802464FEA830904E0021DA3F1080922
:104F00004FEA8909D2F800B04FF00F0A0AFA09FAFD
:104F10002BEA0A0A05FA09F94AEA0909C2F80090D7
:104F20004A6812F0805F5CD0BA6942F00102BA614F
:104F3000BA6902F001020192019A23F0030202F120
:104F4000804202F58032D2F808B003F003094FEA3C
:104F500089094FF00F0A0AFA09FA2BEA0A0A604592
:104F600010D0DFF8AC8040450FD0DFF8A8B058452E
:104F70000ED008F50068404514BF4FF0040B4FF009
:104F8000030B07E04FF0000B04E04FF0010B01E0D2
:104F90004FF0020B0BFA09F949EA0A09C2F8089026
:104FA0004A6812F4803F226814BF3243B243226041
:104FB0004A6812F4003F626814BF3243B243626031
:104FC0004A6812F4801FA26814BF3243B243A26041
:104FD0004A6812F4001FE26814BF164322EA06066C
:104FE000E6600133102B7FF43AAF02B0BDE8F00F5A
:104FF000704700BF0010024000040140000801405B
:1050000000002110000011100000311000003210CB
:10501000000C0140001001400AB101617047090411
:1050200001617047C3685940C160704712230B800B
:1050300000487047F810010804230B8000487047AF
:105040000C11010830B492B14B1C0331541EE4B270
:1050500001EB44040021020F092A94BF3032373299
:1050600003F8012C000103F8021BA342F3D130BC6A
:10507000704700BF38B51A230B800A4B1A680433F7
:105080001C6804331B68D0180AD0074DA91C0822DD
:10509000FFF7D8FF204605F112010422FFF7D2FFE7
:1050A000014838BDE8F7FF1F1400002010B50A467C
:1050B000034C0448214602F033F9204610BD00BFDE
:1050C000B81200201011010810B50A46034C04481C
:1050D000214602F025F9204610BD00BFB81200207D
:1050E0003411010810B50A46034C0448214602F069
:1050F00017F9204610BD00BFB81200204811010862
:1051000010B50A46034C0448214602F009F920462E
:1051100010BD00BFB81200205411010830B587B08F
:10512000144CA36943F00403A361A36903F00403CF
:105130000093009B4FF4C053029300250395012375
:105140000493032305930C4802A9FFF77FFEE3694C
:1051500043F40003E361E36903F400030193019B5B
:10516000142007212A46FDF725F81420FDF754F8EE
:1051700007B030BD001002400008014008B50146EC
:10518000D0F81C0401F57B71FEF790FD08BD00BF4F
:1051900008B500EB4113D0F81C04D3F81C22FEF72D
:1051A000B3FD08BD08B500EB4113D0F81C04DA6B61
:1051B000FEF7DAFD08BD00BF08B5D0F81C04FEF705
:1051C0004DFE08BD10B50446D0F81C040121FEF7C1
:1051D00031FED4F81C04FEF70DFE10BD08B5D0F862
:1051E0001C04FEF72BFE08BD08B5D0F81C04FEF722
:1051F0002FFE08BD38B505461B481C4A0260082230
:1052000042600024C4600222026182608461C0F8AE
:105210001C54C5F82002FDF7EBFCD5F8200221460E
:105220002246402302F0E8F9D5F8200280212246E8
:105230000B4602F0E1F9D5F8200281212246C02375
:1052400002F0DAF9D5F82002012122464FF48873E2
:1052500002F0D2F9D5F82002822122464FF4807361
:1052600002F0CAF9204638BDB8130020005C0040A7
:1052700008B5D0F82002FDF723FD002008BD00BFCF
:1052800010B51446D0F820021A462346FDF744FD17
:10529000002010BD08B5D0F82002FDF763FD002006
:1052A00008BD00BF08B5D0F82002FEF76DF8002059
:1052B00008BD00BF08B5D0F82002FEF793F8002023
:1052C00008BD00BFD0F8203211F0800F01F07F013F
:1052D00003EB411314BF93F82A0093F80A027047B6
:1052E00008B5D0F82002FDF703FD002008BD00BF7F
:1052F00008B5D0F82002FDF77FFD002008BD00BFF3
:1053000008B5D0F82002FDF751FD002008BD00BF10
:1053100008B5D0F82002FDF767FD08BD00487047CA
:10532000480B0020704700BF08B531B106484FF464
:1053300080410022FFF770FE08BD03484FF4804112
:105340000122FFF769FE08BD000C014008B50023EB
:10535000104A1360104A1360104A1360104A136019
:105360005360104A13605360FDF7A6FB0E4BA3FB7E
:10537000002080090138B0F1807F09D20B4B5860C2
:10538000F0210B4A82F8231000229A6007221A604B
:1053900008BD00BFE8170020F0170020EC17002020
:1053A000E0170020D8170020D34D621010E000E075
:1053B00000ED00E018B901220C4B1A60704701287B
:1053C00003D10A4B196001207047022807D14FF41E
:1053D0007A7303FB01F1054B196001207047034B01
:1053E0001868003018BF0120704700BFF017002078
:1053F000F0B589B007462D4B9A6942F008029A61D0
:105400009A6902F008020192019A9A6942F0010237
:105410009A619A6902F001020292029ADA6942F4F0
:105420008022DA61DB6903F480230393039B4FF44A
:1054300080630493012506950323079302230593B4
:105440001B4E304604A9FFF701FD4FF4006304939F
:1054500000240594304604A9FFF7F8FC27202146D4
:105460002A46FCF7A7FE2720FCF7D6FE1148124A71
:10547000026047608460C460046184610C22426100
:10548000FEF706F908B1FEF707FD0A48FEF7CEF869
:1054900008B1FEF701FD074808495022FEF7DEF982
:1054A00008B1FEF7F9FC09B0F0BD00BF00100240E2
:1054B000000C0140F4170020004800404C18002068
:1054C00010B5044604F048FC82B2034821464FF46C
:1054D0007A73FEF7FBF810BDF417002008B50346F9
:1054E0000A4602481946FEF7DFF908BDF417002006
:1054F000704700BF704700BF704700BFF0B589B06C
:10550000354B9A6942F004029A619A6902F00402EA
:105510000092009A9A6942F008029A619A6902F030
:1055200008020192019A9A6942F001029A619A690D
:1055300002F001020292029A9A6942F480429A6150
:105540009B6903F480430393039B01240694032384
:105550000793042504950594204E304604A9FFF7CF
:1055600075FC304629462246FFF756FD4FF480670A
:105570000497002605961A4804A9FFF767FC252022
:1055800031462246FCF716FE2520FCF745FE15485D
:10559000154B0360154B43604FF4805383604FF409
:1055A0000053C360076186614561FEF771F808B179
:1055B000FEF772FC0B48FEF739F808B1FEF76CFCF9
:1055C00008480B4932220B4BFEF754F908B1FEF79D
:1055D00063FC09B0F0BD00BF00100240000C0140A8
:1055E000000801403C19002000380140A08601005D
:1055F000941900201D56000808B504F0BFF80549AD
:1056000004F014F9044904F009F804F05FFA80B2D8
:1056100008BD00BF0000203F00005C442DE9F04FB2
:10562000B3B01446FFF7CCFB9C4B1B68C31A03EBCB
:10563000830340F6AC51B1EB830F05DA97490023A1
:105640000B71E2B20A7205E094490B79E2B2194497
:105650000A723BB90F2A40F0B081904A10600133C2
:105660001371A6E10133DBB28C4A1371192B40F0A0
:10567000A0811346012482F8214000221A71DA7FAA
:1056800002F00201C9B2309122403192DA69C2F3CC
:105690004A322F929A8BC2F38A022E92598B1A7F2A
:1056A00002F00302520242EAD1122D929A69C2F329
:1056B0000A322C921A8BC2F34A022B92D98A1A7E92
:1056C0002240920242EA91122A925A69C2F3CA22F5
:1056D00029929A8AC2F30A0228925A8AC2F34A127B
:1056E00027921A69C2F38A222692D97B1A8AC2F3B8
:1056F0000902A24042EAD1122592DA89C2F30A12C3
:105700002492DA68C2F34A222392D97A9A89C2F3A0
:105710000802920042EA911222925A89C2F3CA0206
:1057200021929B68C3F30A2320935D4BB3F80CB01E
:105730001A691792B3F81890DA6914929F8C9A6AD2
:1057400011921A8E0F925A6B0D929A8F0B921A6CBD
:105750000992B3F848200792DA6C0592B3F8542006
:1057600004929A6D1592B3F8602013925A6E1292B9
:10577000B3F86C2010921A6F0E92B3F878200C9246
:10578000DA6F0A92B3F884200892D3F88820069240
:10579000B3F890200292D3F894200392B3F89C209F
:1057A0001992D3F8A0201892B3F8A8201692D3F833
:1057B000AC200192B3F8B4201A92D3F8B8201B920F
:1057C000B3F8C0201C92D3F8C4201D92B3F8CCA02B
:1057D000D3F8D0201E92B3F8D880D3F8DC301F93D2
:1057E00040F63406054601E00134E4B2631EDBB244
:1057F000112B7FD8DFE803F0090F151B21272D336C
:10580000393F454B565C62686E762098FFF7F4FE90
:1058100017958346E8E72198FFF7EEFE1495814639
:10582000E2E72298FFF7E8FE11950746DCE72398A8
:10583000FFF7E2FE0D950F90D6E72498FFF7DCFE08
:1058400009950B90D0E72598FFF7D6FE05950790B0
:10585000CAE72698FFF7D0FE15950490C4E727986D
:10586000FFF7CAFE12951390BEE72898FFF7C4FE13
:105870000E951090B8E72998FFF7BEFE0A950C9098
:10588000B2E72A98FFF7B8FE06950890ACE72B9888
:10589000FFF7B2FE03950290A6E700BF780D002047
:1058A0001C2A00202C98FFF7A7FE189519909BE75B
:1058B0002D98FFF7A1FE0195169095E72E98FFF71A
:1058C0009BFE1B951A908FE72F98FFF795FE1D956D
:1058D0001C9089E7319B002B14BFB2464FF4617ACC
:1058E0001E9581E7309A002A14BFB0464FF46178C4
:1058F0001F9579E7162C7FF677AF314BA3F80CB0E4
:10590000179A1A61A3F81890149ADA619F84119A71
:105910009A620F9A1A860D9A5A630B9A9A87099A75
:105920001A64079AA3F84820059ADA64049AA3F83F
:105930005420159A9A65139AA3F86020129A5A6611
:10594000109AA3F86C200E9A1A670C9AA3F8782084
:105950000A9ADA67089AA3F88420069AC3F888207E
:10596000029AA3F89020039AC3F89420199AA3F8F6
:105970009C20189AC3F8A020169AA3F8A820019A90
:10598000C3F8AC201A9AA3F8B4201B9AC3F8B82025
:105990001C9AA3F8C0201D9AC3F8C420A3F8CCA079
:1059A0001E9AC3F8D020A3F8D8801F9AC3F8DC2031
:1059B00003E00022034B83F8212033B0BDE8F08FD1
:1059C0001C2A0020780D00202DE9F04106460C46E7
:1059D00090461D46FAF756FF0746B8F1000F2AD049
:1059E0005BE0B5F1FF3F27D025B1FAF74BFFC01BB5
:1059F000854220D233685A6822F0E0025A60336848
:105A00001A6822F040021A60B36AB3F5005F09D148
:105A100033681A6822F400521A6033681A6842F434
:105A200000521A60012386F85130002386F8503066
:105A30000320BDE8F081326893682340A342D0D1AF
:105A40000020BDE8F081B5F1FF3F27D025B1FAF77E
:105A500019FFC01B854220D233685A6822F0E00249
:105A60005A6033681A6822F040021A60B36AB3F5CC
:105A7000005F09D133681A6822F400521A60336853
:105A80001A6842F400521A60012386F8513000234C
:105A900086F850300320BDE8F081326893682340D7
:105AA000A342D0D00020BDE8F08100BF704700BF06
:105AB000F0B583B004461D4690F85100C0B20128ED
:105AC00040F0C980002900F0C880002A00F0C7809B
:105AD00094F85030012B00F0C480012384F850303A
