:020000040800F2
:1000000000000220BD940008FD9A00080D9B000826
:10001000219B0008359B0008499B00080000000058
:100020000000000000000000000000005D9B0008D0
:100030006D9B0008000000007D9B00088D9B000860
:1000400017950008199500081B9500081D950008D4
:100050001F950008219500082395000825950008A4
:1000600027950008299500082B9500082D95000874
:100070002F95000831950008339500083595000844
:1000800037950008399500083B9500083D95000814
:100090003F950008419500084395000845950008E4
:1000A00047950008499500084B950008019C0008F9
:1000B0004F95000851950008539500085595000884
:1000C00057950008599500085B9500085D95000854
:1000D0005F9500089D9B0008B19B0008C59B000828
:1000E00067950008699500086B9500086D950008F4
:1000F0006F950008719500087395000875950008C4
:100100007795000879950008159C00087D950008F2
:100110007F95000881950008839500088595000863
:1001200087950008899500088B9500088D95000833
:100130008F95000891950008939500089595000803
:1001400097950008999500089B950008ED9B00087D
:100150009F950008A1950008A3950008D99B000869
:10016000A7950008A9950008AB950008AD95000873
:10017000AF950008B1950008B3950008B595000843
:10018000B7950008B995000810B5054C237833B928
:10019000044B13B10448AFF300800123237010BD5A
:1001A00044020020000000006C950108084B10B5C7
:1001B0001BB108490848AFF300800848036803B939
:1001C00010BD074B002BFBD0BDE81040184700BF07
:1001D00000000000480200206C9501084402002045
:1001E00000000000154B002B08BF134B9D46A3F5E4
:1001F000803A00218B460F461348144A121A12F017
:1002000086F90F4B002B00D098470E4B002B00D0E7
:1002100098470020002104000D000D48002802D05E
:100220000C48AFF3008012F031F92000290002F0F1
:100230005DFD12F017F900BF000008000000022069
:10024000000000000000000044020020843A00206A
:10025000000000000000000080B584B000AF7860AE
:100260000B46FB700023FB737B681B7C002B0ED1BD
:100270004FF400730222812178680AF06DFC4FF47C
:1002800000730222012178680AF066FC0BE040232B
:100290000222812178680AF05FFC402302220121BA
:1002A00078680AF059FC08230322822178680AF052
:1002B00053FC4FF4077012F00FF903461A467B689F
:1002C000C3F818227B68D3F81832002B02D101231F
:1002D000FB7326E07B68D3F81832BB607B68D3F8E9
:1002E0001C321B689847BB680022C3F81422BB6805
:1002F0000022C3F818227B681B7C002B09D1BB6845
:10030000D3F804224FF40073012178680AF0A0FDAD
:1003100007E0BB68D3F804224023012178680AF083
:1003200097FDFB7B18461037BD4680BD80B584B075
:1003300000AF78600B46FB700023FB738121786867
:100340000AF048FC012178680AF044FC82217868B0
:100350000AF040FC7B68D3F81832002B0ED07B6883
:10036000D3F81C325B6898477B68D3F8183218467C
:1003700012F0BAF87B680022C3F81822FB7B1846FB
:100380001037BD4680BD00BF80B584B000AF786037
:1003900039607B68D3F81832FB603B681B7803F048
:1003A0006003002B3AD0202B00D043E03B68DB8871
:1003B000002B29D03B681B785BB2002B11DA7B68DD
:1003C000D3F81C329B683A685078F9683A68D2884A
:1003D0009847F9683B68DB881A46786801F09CF812
:1003E00029E03B685A78FB6883F800223B68DB8889
:1003F000DAB2FB6883F80122F9683B68DB881A46A9
:10040000786801F0B7F816E07B68D3F81C329B6877
:100410003A6850780022396898470CE03B685B786E
:100420000A2B01D00B2B05E001220549786801F069
:1004300073F800BF00BF002318461037BD4680BDCB
:100440006002002080B485B000AF78600B46FB707E
:100450007B68D3F81832FB607B68D3F81832002B26
:1004600005D0FB680022C3F81422002300E0022319
:1004700018461437BD465DF8047B704780B584B0DC
:1004800000AF78600B46FB707B68D3F81832FB60D6
:10049000FB78194678680AF015FD0246FB68C3F838
:1004A0000C227B68D3F81832002B0DD07B68D3F870
:1004B0001C32DB68FA68D2F80402FA6802F50372AB
:1004C00011469847002300E0022318461037BD4626
:1004D00080BD00BF80B584B000AF78607B68D3F882
:1004E0001832FB607B68D3F81C32002B15D0FB68F8
:1004F00093F80032FF2B10D07B68D3F81C329B6836
:10050000FA6892F80002F968FA6892F8012292B249
:100510009847FB68FF2283F8002200231846103713
:10052000BD4680BD80B483B000AF78607B68432255
:100530001A80034B18460C37BD465DF8047B7047A4
:100540008800002080B483B000AF78607B684322CD
:100550001A80034B18460C37BD465DF8047B704784
:100560004400002080B483B000AF78607B684322F1
:100570001A80034B18460C37BD465DF8047B704764
:10058000CC00002080B483B000AF78607B680A2282
:100590001A80034B18460C37BD465DF8047B704744
:1005A0000000002080B485B000AF7860396002237D
:1005B000FB733B68002B05D07B683A68C3F81C22AC
:1005C0000023FB73FB7B18461437BD465DF8047BA4
:1005D000704700BF80B487B000AFF860B9601346C1
:1005E000FB80FB68D3F818327B617B69BA68C3F87B
:1005F0000822FA887B69C3F81022002318461C37AA
:10060000BD465DF8047B704780B485B000AF78606C
:1006100039607B68D3F81832FB60FB683A68C3F82E
:100620000422002318461437BD465DF8047B70474A
:1006300080B584B000AF78607B68D3F81832FB6077
:100640007B68D3F81832002B17D0FB68D3F814322C
:10065000002B10D1FB680122C3F81422FB68D3F8E9
:100660000822FB68D3F810329BB2812178680AF027
:10067000B5FB002302E0012300E0022318461037F7
:10068000BD4680BD80B584B000AF78607B68D3F88C
:100690001832FB607B68D3F81832002B17D07B68C8
:1006A0001B7C002B09D1FB68D3F804224FF40073A4
:1006B000012178680AF0CCFB07E0FB68D3F804223C
:1006C0004023012178680AF0C3FB002300E00223E5
:1006D00018461037BD4680BD80B584B000AFF860C5
:1006E000B9601346FB71FB68002B01D102231AE0AD
:1006F000FB68D3F81432002B03D0FB680022C3F848
:100700001422BB68002B03D0FB68BA68C3F8102220
:10071000FB68012283F8FC21FB68FA791A70F868FB
:100720000AF030F9002318461037BD4680BD00BFDF
:1007300080B582B000AF78607B68012283F8FC212D
:100740007B68D3F814325B687A685268D2B211467B
:100750007868984778680AF0CDF978680AF066F901
:10076000002318460837BD4680BD00BF80B485B061
:1007700000AF786039600023FB733B68002B06D024
:100780007B683A68C3F814220023FB7301E002235C
:10079000FB73FB7B18461437BD465DF8047B70473E
:1007A00080B582B000AF786078680AF071F90023F4
:1007B00018460837BD4680BD80B582B000AF78606E
:1007C0007B68D3F814325B687A685268D2B21146FB
:1007D0007868984778680AF08DF90023184608373A
:1007E000BD4680BD80B483B000AF7860002318465A
:1007F0000C37BD465DF8047B704700BF80B584B000
:1008000000AF78600B46FB700223FB737B68D3F864
:100810001432002B0CD07B68D3F814321B68FA78A2
:100820001146786898470346002B01D10023FB73DB
:10083000FB7B18461037BD4680BD00BF80B582B037
:1008400000AF78600B46FB707B68D3F814325B68AE
:10085000FA78114678689847002318460837BD464D
:1008600080BD00BF80B582B000AF786039607B6822
:1008700003F502733968184600F0A2FD7B68012277
:10088000C3F8F4217B68B3F80E321A467B68C3F8CC
:10089000F8217B6893F8083203F01F03012B0BD07B
:1008A000022B11D0002B17D17B6803F50273194678
:1008B000786800F0CFF91AE07B6803F502731946F7
:1008C000786800F017FA12E07B6803F502731946A6
:1008D000786800F043FA0AE07B6893F8083223F066
:1008E0007F03DBB2194678680AF0AAF900BF00233B
:1008F00018460837BD4680BD80B586B000AFF860A9
:100900000B467A60FB72FB7A002B38D1FB6803F54B
:1009100082737B61FB68D3F8F431032B42D17B698E
:100920009A687B69DB689A4214D97B699A687B690B
:10093000DB68D21A7B699A607B69DA687B699B689D
:10094000934228BF13469BB21A467968F86800F0B4
:100950002FFE27E0FB68D3F814321B69002B0AD066
:10096000FB6893F8FC31032B05D1FB68D3F81432F4
:100970001B69F8689847F86800F02CFE12E0FB68E5
:10098000D3F814329B69002B0CD0FB6893F8FC3130
:10099000032B07D1FB68D3F814329B69FA7A11460E
:1009A000F8689847002318461837BD4680BD00BF39
:1009B00080B586B000AFF8600B467A60FB72FB7AB8
:1009C000002B6CD1FB6814337B61FB68D3F8F431E6
:1009D000022B57D17B699A687B69DB689A4215D9EB
:1009E0007B699A687B69DB68D21A7B699A607B694C
:1009F0009B689BB21A467968F86800F0A9FD00234D
:100A000000220021F8680AF023FA3BE07B695B686A
:100A10007A69D268B3FBF2F102FB01F29B1A002B58
:100A20001CD17B695A687B69DB689A4216D37B6963
:100A30005A68FB68D3F8F8319A420FD2002200219D
:100A4000F86800F085FDFB680022C3F8F821002358
:100A500000220021F8680AF0FBF913E0FB68D3F8E4
:100A60001432DB68002B0AD0FB6893F8FC31032BAF
:100A700005D1FB68D3F81432DB68F8689847F8684A
:100A800000F0BCFDFB6893F80032012B1AD1F86826
:100A9000FFF7A8FEFB68002283F8002212E0FB6843
:100AA000D3F814325B69002B0CD0FB6893F8FC314F
:100AB000032B07D1FB68D3F814325B69FA7A11462D
:100AC000F8689847002318461837BD4680BD00BF18
:100AD00080B582B000AF78604023002200217868A2
:100AE0000AF03AF87B684022C3F810214023002224
:100AF000802178680AF030F87B6840221A627B68AF
:100B0000012283F8FC217B68D3F81832002B09D02E
:100B10007B68D3F814325B687A685268D2B21146A7
:100B200078689847002318460837BD4680BD00BF47
:100B300080B483B000AF78600B46FB707B68FA78B6
:100B40001A74002318460C37BD465DF8047B7047C5
:100B500080B483B000AF78607B6893F8FC217B6839
:100B600083F8FD217B68042283F8FC2100231846CA
:100B70000C37BD465DF8047B704700BF80B483B07E
:100B800000AF78607B6893F8FD217B6883F8FC21D7
:100B9000002318460C37BD465DF8047B704700BF44
:100BA00080B582B000AF78607B6893F8FC31032B8E
:100BB0000BD17B68D3F81432DB69002B05D07B683E
:100BC000D3F81432DB697868984700231846083751
:100BD000BD4680BD80B483B000AF78600B46FB702B
:100BE000002318460C37BD465DF8047B704700BFF4
:100BF00080B483B000AF78600B46FB7000231846CA
:100C00000C37BD465DF8047B704700BF80B483B0ED
:100C100000AF7860002318460C37BD465DF8047BB2
:100C2000704700BF80B582B000AF78607B6801225A
:100C300083F8FC217B68D3F814325B687A685268C9
:100C4000D2B2114678689847002318460837BD4647
:100C500080BD00BF80B584B000AF786039600023EC
:100C6000FB733B685B78092B39D801A252F823F05B
:100C7000C10C0008D50C0008DF0C0008CB0C0008E4
:100C8000DF0C0008A30C0008990C0008DF0C00081A
:100C9000B70C0008AD0C00083968786800F036F928
:100CA00022E03968786800F025FA1DE03968786834
:100CB00000F05EFA18E03968786800F0E1FA13E0B5
:100CC0003968786800F00EFB0EE03968786800F04B
:100CD00033FB09E03968786800F04AFB04E03968C2
:100CE000786800F0ABFB00BFFB7B18461037BD46B1
:100CF00080BD00BF80B584B000AF7860396000234C
:100D0000FB737B6893F8FC31032B1BD13B689B88FA
:100D1000DBB2012B11D87B68D3F814329B68396899
:100D2000786898473B68DB88002B10D1FB7B002B51
:100D30000DD1786800F04EFC09E03968786800F061
:100D40007DFB04E03968786800F078FB00E000BFC4
:100D5000002318461037BD4680BD00BF80B584B063
:100D600000AF786039600023FB733B689B88BB73DE
:100D70003B681B7803F06003202B08D17B68D3F815
:100D800014329B683968786898470023BAE03B685A
:100D90005B78012B39D0032B02D0002B6BD0B0E055
:100DA0007B6893F8FC31022B02D0032B0CD025E09A
:100DB000BB7B002B27D0BB7B802B24D0BB7B194671
:100DC000786809F03DFF1EE03B685B88002B0AD184
:100DD000BB7B002B07D0BB7B802B04D0BB7B194691
:100DE000786809F02DFF7B68D3F814329B68396866
:100DF00078689847786800F0EDFB05E03968786816
:100E000000F01CFB00E000BF7BE07B6893F8FC3146
:100E1000022B02D0032B0CD024E0BB7B002B26D06E
:100E2000BB7B802B23D0BB7B1946786809F008FF79
:100E30001DE03B685B88002B1BD1BB7B03F07F036D
:100E4000002B0BD0BB7B1946786809F02FFF7B681D
:100E5000D3F814329B68396878689847786800F04E
:100E6000B9FB06E03968786800F0E8FA02E000BFF4
:100E700047E000BF45E07B6893F8FC31022B02D0CD
:100E8000032B0BD036E0BB7B03F07F03002B36D067
:100E9000BB7B1946786809F0D3FE30E097F90E3035
:100EA000002B08DABB7B03F07F0301331B017A6858
:100EB0001344043307E0BB7B03F07F0310331B01B3
:100EC0007A6813440433BB60BB7B1946786809F029
:100ED00023FF0346002B03D0BB6801221A6002E007
:100EE000BB6800221A60BB6802221946786800F0CD
:100EF00013FB05E03968786800F0A0FA00E000BF55
:100F000000BFFB7B18461037BD4680BD80B584B05E
:100F100000AF786039603B685B881B0A9BB2013B7D
:100F2000062B00F2C98001A252F823F0490F0008F5
:100F3000610F0008A10F0008B9100008B9100008DF
:100F4000651000088B1000087B68D3F810321B680E
:100F50007A68127C07F10A0110469847F860B0E001
:100F60007B681B7C002B0DD17B68D3F814329B6A05
:100F700007F10A0210469847F860FB680133022225
:100F80001A709EE07B68D3F81432DB6A07F10A021C
:100F900010469847F860FB68013302221A7090E00F
:100FA0003B685B88DBB2052B56D801A252F823F0D0
:100FB000C90F0008E10F0008F90F00081110000820
:100FC00029100008411000087B68D3F810325B68D4
:100FD0007A68127C07F10A0110469847F86040E0F1
:100FE0007B68D3F810329B687A68127C07F10A019B
:100FF00010469847F86034E07B68D3F81032DB681D
:101000007A68127C07F10A0110469847F86028E0D8
:101010007B68D3F810321B697A68127C07F10A01E9
:1010200010469847F8601CE07B68D3F810325B6983
:101030007A68127C07F10A0110469847F86010E0C0
:101040007B68D3F810329B697A68127C07F10A0139
:1010500010469847F86004E03968786800F0EEF9C7
:1010600044E02EE07B681B7C002B09D17B68D3F821
:1010700014325B6B07F10A0210469847F86020E0D3
:101080003968786800F0DAF930E07B681B7C002B67
:101090000DD17B68D3F814321B6B07F10A0210469E
:1010A0009847F860FB68013307221A7009E0396835
:1010B000786800F0C3F919E03968786800F0BEF983
:1010C00014E07B89002B11D03B68DB88002B0DD00E
:1010D0003B68DA887B89934228BF13469BB27B81A9
:1010E0007B891A46F968786800F016FA1037BD4611
:1010F00080BD00BF80B584B000AF786039603B68C8
:101100009B88002B2CD13B68DB88002B28D13B68C7
:101110005B88DBB203F07F03FB737B6893F8FC31E1
:10112000032B04D13968786800F088F91CE07B68EB
:10113000FA7B83F8FE21FB7B1946786809F018FEDC
:10114000786800F047FAFB7B002B04D07B68022212
:1011500083F8FC2108E07B68012283F8FC2103E08E
:101160003968786800F06AF900BF1037BD4680BD65
:1011700080B582B000AF786039603B685B88DAB2D6
:101180003E4B1A703D4B1B78012B04D939687868A7
:1011900000F054F96FE07B6893F8FC31022B02D029
:1011A000032B23D062E0354B1B78002B1AD0334B36
:1011B0001B781A467B685A607B68032283F8FC21FF
:1011C0002E4B1B7819467868FFF718FB0346022B55
:1011D00004D13968786800F031F94CE0786800F0A3
:1011E000F9F948E0786800F0F5F944E0234B1B7802
:1011F000002B12D17B68022283F8FC211F4B1B7845
:101200001A467B685A601D4B1B7819467868FFF7B1
:1012100015FB786800F0DEF92DE0184B1B781A46B4
:101220007B685B689A421DD07B685B68DBB21946BD
:101230007868FFF703FB114B1B781A467B685A60EE
:101240000E4B1B7819467868FFF7D8FA0346022B35
:1012500004D13968786800F0F1F80CE0786800F0A3
:10126000B9F908E0786800F0B5F904E03968786801
:1012700000F0E4F800BF0837BD4680BD61020020E1
:1012800080B582B000AF786039603B68DB88012BA5
:1012900004D03968786800F0D1F81FE07B6893F8D3
:1012A000FC31022B02D0032B0BD012E07B68002212
:1012B0009A607B68083301221946786800F02CF99F
:1012C0000CE07B68043301221946786800F024F9A9
:1012D00004E03968786800F0B1F800BF00BF083753
:1012E000BD4680BD80B582B000AF786039607B6854
:1012F00093F8FC31023B012B15D87B680122DA60A0
:101300007B68D3F80432002B05D07B68DB6843F0A0
:1013100002027B68DA607B680C3302221946786827
:1013200000F0FAF804E03968786800F087F800BF48
:1013300000BF0837BD4680BD80B582B000AF786081
:1013400039603B685B88012B0DD17B680122C3F8B3
:1013500004227B68D3F814329B6839687868984710
:10136000786800F037F900BF0837BD4680BD00BF80
:1013700080B582B000AF786039607B6893F8FC314B
:10138000023B012B12D83B685B88012B13D17B6891
:101390000022C3F804227B68D3F814329B683968B2
:1013A00078689847786800F015F904E0396878683B
:1013B00000F044F800E000BF00BF0837BD4680BD24
:1013C00080B483B000AF786039603B681A787B687E
:1013D0001A703B685A787B685A703B6802331B78F6
:1013E0009AB23B6803331B789BB21B029BB2134437
:1013F0009AB27B685A803B6804331B789AB23B6888
:1014000005331B789BB21B029BB213449AB27B68D4
:101410009A803B6806331B789AB23B6807331B7887
:101420009BB21B029BB213449AB27B68DA8000BF66
:101430000C37BD465DF8047B704700BF80B582B0B5
:1014400000AF786039608021786809F0F9FB0021ED
:10145000786809F0F5FB00BF0837BD4680BD00BFC6
:1014600080B586B000AFF860B9607A600023FB7584
:10147000FB68002B33D0F86800F036F803460133E0
:101480009BB25B009AB27B681A80FB7D5A1CFA758E
:101490001A46BB6813447A681288D2B21A70FB7D70
:1014A0005A1CFA751A46BB68134403221A7012E0DC
:1014B000FB7D5A1CFA751A46BB681A44FB68591C16
:1014C000F9601B781370FB7D5A1CFA751A46BB68CD
:1014D000134400221A70FB681B78002BE8D100BF70
:1014E0001837BD4680BD00BF80B485B000AF7860BE
:1014F0000023FB7305E0FB7B0133FB737B68013347
:101500007B607B681B78002BF5D1FB7B184614377A
:10151000BD465DF8047B704780B584B000AFF860CD
:10152000B9601346FB80FB680222C3F8F421FA88F5
:10153000FB689A61FA88FB68DA61FB88BA68002167
:10154000F86809F04BFC002318461037BD4680BDF3
:1015500080B584B000AFF860B9601346FB80FB88AB
:10156000BA680021F86809F039FC002318461037E2
:10157000BD4680BD80B584B000AFF860B960134649
:10158000FB80FB680322C3F8F421FA88FB68C3F8E8
:101590000821FA88FB68C3F80C21FB88BA6800218F
:1015A000F86809F055FC002318461037BD4680BD89
:1015B00080B584B000AFF860B9601346FB80FB884B
:1015C000BA680021F86809F043FC00231846103778
:1015D000BD4680BD80B582B000AF78607B680422D4
:1015E000C3F8F421002300220021786809F0F6FBFB
:1015F000002318460837BD4680BD00BF80B582B0C5
:1016000000AF78607B680522C3F8F4210023002234
:101610000021786809F01CFC002318460837BD46F5
:1016200080BD00BFB0B58CB000AF002387F8233079
:10163000764B3C1D1D460FCD0FC495E8070084E88E
:101640000700002387F82F30002387F82E303DE075
:10165000012007F05BFB01216D4807F081FA97F844
:101660002F309B0007F13002134453F82C3C01212A
:10167000184607F085FA0121664807F0F5FA97F851
:101680002F309B0007F13002134453F82C3C1846CE
:1016900000F042F90021604807F062FA07F12302E6
:1016A00007F124031146184600F0CEF807F1230293
:1016B00007F124031146184600F012F90346002BE7
:1016C00009D197F82F30013387F82F3097F82F3052
:1016D000062BBDD900E000BF97F82F30072B00F094
:1016E0008C80012007F012FB01214C4807F038FAEA
:1016F00097F82F309B0007F13002134453F82C3C2D
:101700000121184607F03CFA0121424807F0ACFAE3
:1017100097F82F30042B26D00121414807F0A4FA76
:101720000021404807F01CFA07F1230207F12403C7
:101730001146184600F088F84FF4164000F0ECF817
:1017400007F1230207F124031146184600F0C8F8F8
:101750000346002B04D00121334807F085FA02E04C
:10176000012387F82E3097F82E30002B45D1012029
:1017700007F0CCFA01212D4807F076FA00212C4819
:1017800007F0EEF907F1230207F12403114618468A
:1017900000F05AF807F1230207F124031146184616
:1017A00000F09EF80346002B27D00121214807F0C6
:1017B0005BFA012007F0AAFA01211F4807F054FA4A
:1017C00000211E4807F0CCF907F1230207F124039A
:1017D0001146184600F038F807F1230207F12403F8
:1017E0001146184600F07CF80346002B05D0012175
:1017F000134807F039FA012304E00121114807F0EA
:1018000033FA002318463037BD46B0BD946B01084B
:10181000B4690108E4690108EC690108F06901088C
:10182000206A0108546A0108606A01087C6A01089C
:10183000B86A0108C86A0108EC6A01082C6B010843
:10184000386B0108646B010880B586B000AF786022
:10185000396009F057FF38613B6800221A701F4B4E
:10186000DB8DFB8229E008F0F9FE1C4BDB8D9BB27F
:10187000FA8A9A4221D0194B996A184B9A8DFB8AA1
:10188000B3FBF2F002FB00F29B1A9BB20B441B78F5
:10189000FB733B681B78092B0CD83B681B781A46F6
:1018A0007B681344FA7B1A703B681B780133DAB209
:1018B0003B681A70FB8A0133FB8209F023FF024662
:1018C0003B69D31A40F6B7329342CCD9012007F0D6
:1018D0001DFA00BF1837BD4680BD00BFFC020020C6
:1018E00080B483B000AF786039603B681B78012B0F
:1018F0000AD97B681B784F2B06D17B6801331B7894
:101900004B2B01D1012300E0002318460C37BD46C4
:101910005DF8047B704700BF80B582B000AF78608F
:10192000084A7B68536007480EF0C2F80346002B54
:1019300003D00121044807F097F900BF0837BD46DE
:1019400080BD00BFFC020020B06B010880B400AF76
:10195000034B1B681846BD465DF8047B704700BF0B
:101960006402002080B400AF044B1B680133034ABB
:10197000136000BFBD465DF8047B70476402002021
:1019800080B400AF094B1A68094BA3FB02131B0973
:10199000322101FB03F3D31A002B0CBF01230023D8
:1019A000DBB21846BD465DF8047B70476402002038
:1019B0001F85EB5180B400AF0A4B19680A4BA3FB9B
:1019C0000123DA0813469B0013445B00CA1A002A5D
:1019D0000CBF01230023DBB21846BD465DF8047B33
:1019E000704700BF64020020CDCCCCCC80B400AFE7
:1019F000044B1B6807EE903AB0EE670ABD465DF8EF
:101A0000047B70476802002080B584B000AF3E4B75
:101A100093F86230012B06D13C4BDB6A184609F083
:101A20009FFBF86002E03A4B5B6AFB60364BD3EDFC
:101A3000037AF5EE407AF1EE10FA08D1FB6807EE72
:101A4000903AF8EEE77A334BC3ED1C7A0CE0FB6872
:101A500007EE903AB8EEE77A2B4BD3ED037A67EEB8
:101A6000277A2C4BC3ED1C7AFFF770FFB860294B27
:101A700093ED1C7A284BD3ED007AB4EE677AF1EE41
:101A800010FA2AD0234B9B6FBA68D31A7B60214B84
:101A900093ED1C7A204BD3ED007A77EE677A1D4BDD
:101AA000C3ED1D7A1B4B93ED1D7A7B6807EE903AD0
:101AB000F8EE677AC7EE276AB0EE660A00F03CF8E7
:101AC000F0EE407A134BC3ED1F7A124ABB6893675E
:101AD000104B1B6F104A136011E00E4B9B6FBA68DE
:101AE000D31A642B0BD90B4B4FF00002DA67094B6A
:101AF0004FF000025A67074B1B6F074A136000BF85
:101B00001037BD4680BD00BF9C070020383800203C
:101B1000000C0040180800206C02002080B400AFC8
:101B2000044B022283F8512000BFBD465DF8047BC0
:101B3000704700BF1808002080B483B000AF87ED65
:101B4000010AD7ED017AF5EEC07AF1EE10FA04D56C
:101B5000D7ED017AF1EE677A01E0D7ED017AB0EEC8
:101B6000670A0C37BD465DF8047B704780B500AF4F
:101B7000044BDB7D184606F011FDF0EE407AB0EE26
:101B8000670A80BD9C07002080B500AF044B1B7E18
:101B9000184606F003FDF0EE407AB0EE670A80BD0D
:101BA0009C07002080B500AF044B5B7E184606F012
:101BB0008DFDF0EE407AB0EE670A80BD9C070020F4
:101BC00080B500AF044B9B7E184606F07FFDF0EE1B
:101BD000407AB0EE670A80BD9C07002080B500AF58
:101BE000044BDB7E184606F0D9FCF0EE407AB0EEEE
:101BF000670A80BD9C07002080B500AF054B93F8B5
:101C00005630184606F0CAFCF0EE407AB0EE670A8D
:101C100080BD00BF9C07002080B500AF054B93F846
:101C20005230184606F0BAFCF0EE407AB0EE670A81
:101C300080BD00BF9C07002080B584B000AF9C4BE6
:101C40009B7D184606F0AAFC87ED030A97ED037A00
:101C5000D7ED037AB4EE677AF1EE10FA02D74FF0BF
:101C600000031EE1934B93F85130022B04D0914BAB
:101C700093F85130032B2FD1D7ED037AF5EE407A4C
:101C8000F1EE10FA28D08B4B93F85130022B20D173
:101C90000221894806F064FF022097ED030A06F04E
:101CA00089FF0221854806F05BFFD7ED037AFDEE40
:101CB000E77AC7ED017ABB881BB20221184606F00D
:101CC00017FF02217E4806F04BFF7A4B032283F870
:101CD00051204FF00003E4E0764B93F85830012B8D
:101CE00040F0DE80734B93F85130002B08D0714BDD
:101CF000022283F858200221724806F0B5FFCFE097
:101D00006B4B1B7F032B08D06A4B022283F85820B1
:101D100002216D4806F0A8FFC2E0D7ED037AF5EE88
:101D2000407AF1EE10FA08D0624B022283F8582074
:101D30000221664806F098FFB2E0654BD3ED037AC6
:101D40009FED647AF4EE477AF1EE10FA08D1594B20
:101D5000022283F8582002215F4806F085FF9FE0A9
:101D60005B4BD3ED047A9FED5D7AF4EE477AF1EEAA
:101D700010FA08D14F4B022283F85820022158480C
:101D800006F072FF8CE04A4BD3ED037AF5EE407A11
:101D9000F1EE10FA08D1474B022283F858200221B5
:101DA000504806F061FF7BE009F0ACFC0246414B75
:101DB000DB6DD31AB3F5FA6F72D23E4B93F95930FB
:101DC000002B1DD13B4B93ED1C7A414BD3ED037A95
:101DD00037EE677A3E4BD3ED046A364BD3ED1C7A6F
:101DE00076EEE77AB4EEE77AF1EE10FA04D5314BED
:101DF000012283F8592003E02E4BFF2283F859205B
:101E000009F080FC02462B4B1B6ED31A41F287323D
:101E1000934203D84FF00003FB6041E0254B93F958
:101E20005930012B1CD1234B93ED1C7A284BD3ED59
:101E3000047ADFED2D6A77EEE67AB4EEE77AF1EE1A
:101E400010FA03D51A4B1B6CFB6029E009F05AFC11
:101E50000246184B1A66174BFF2283F859201FE0E1
:101E6000144B93ED1C7A1A4BD3ED037ADFED1E6A07
:101E700077EEA67AB4EEE77AF1EE10FA07DD0C4BB6
:101E8000D3ED107AF1EE677AC7ED037A08E009F036
:101E900039FC0246074B1A66064B012283F859208B
:101EA000FB6807EE903AB0EE670A1037BD4680BD7A
:101EB0009C07002018080020F46B0108146C01082E
:101EC0002C6C0108806C0108C46C0108F46C0108DA
:101ED00084070020000000CF1C6D01080000004FA7
:101EE0003C6D0108606D01080000304280B590B083
:101EF00000AF87ED010AFFF79FFE87ED0C0ACD4B7F
:101F0000D3ED0E7AB7EE007A37EE677AD7ED0C7A1A
:101F100027EE277AD7ED0C7A27EE277AD7ED0C7AC1
:101F200027EE277AC34BD3ED0E6AD7ED0C7A66EE17
:101F3000A77A77EE277AC7ED0F7ABE4B1B7F012B6E
:101F400000F00582BC4B5B6EFB62BC4BD3ED007AAC
:101F500097ED0F7A77EE677AC7ED0A7A97ED0A7AEE
:101F6000D7ED0B7AB4EEE77AF1EE10FA0ADCD7ED92
:101F70000B7AB1EE677AD7ED0A7AB4EEE77AF1EE32
:101F800010FA04DDAC4B012283F8542003E0AA4B85
:101F9000002283F8542097ED0A7AD7ED0B7AB4EE3D
:101FA000E77AF1EE10FA09DDA44B93ED007AD7ED54
:101FB0000B7A77EE277AC7ED0F7A13E0D7ED0B7A1D
:101FC000B1EE677AD7ED0A7AB4EEE77AF1EE10FA5D
:101FD00008DD9A4B93ED007AD7ED0B7A77EE677AAE
:101FE000C7ED0F7A944B93F85130002B40F0AF813E
:101FF000904B1B7F012B00F0AA818E4B1B7F022B85
:1020000000F0A5818E4B93ED037A8D4BD3ED047ACE
:10201000B4EEE77AF1EE10FA09DD894BDB687B62FA
:10202000874B1B69864AD360854A7B6A1361824B62
:1020300093ED1C7AD7ED017A37EE277A804BD3EDFA
:10204000047AB4EEE77AF1EE10FA17D57A4B93EDF5
:102050001C7AD7ED017A37EE677A794BD3ED037AA4
:10206000B4EEE77AF1EE10FA08DD734B002283F844
:102070005620714B002283F8572068E16E4B93ED98
:102080001C7AD7ED017A37EE277A6D4BD3ED047ABF
:10209000B4EEE77AF1EE10FAC0F29C80D7ED0F7A39
:1020A000F5EEC07AF1EE10FA40F38780002210219D
:1020B000644809F067FF604B93ED1C7A604BD3EDE9
:1020C000047AB4EEE77AF1EE10FA06DB5B4B4FF0E0
:1020D00000021A60594B1B68B8E3584B93ED007A25
:1020E000D7ED0B7A77EE677AC7ED0F7AD7ED0F7AD7
:1020F000F5EEC07AF1EE10FA02D54FF00003FB6363
:102100004D4B93F8563083F00103DBB2002B19D00E
:1021100002214D4806F024FD494B93ED047A464BCD
:10212000D3ED1C7A77EE677A0220B0EE670A06F0EC
:1021300041FD0221454806F013FD022097ED010AFA
:1021400006F0A6FD3C4B012283F85620394BD3ED17
:10215000087AF5EE407AF1EE10FA3BD0364B93ED6B
:102160001C7AD7ED017A37EE277A354BD3ED046A26
:10217000304BD3ED087A76EEA77AB4EEE77AF1EE3B
:1021800010FA27DB2C4B93F8573083F00103DBB2B6
:10219000002B03D002212E4806F066FD264B0122BB
:1021A00083F8572000221021264809F0EBFE234A2D
:1021B000FB6B13604FF0000348E31F4B002283F8D2
:1021C00056201D4B002283F85720012210211D4864
:1021D00009F0D8FE184B93ED1C7AD7ED017A37EE53
:1021E000677A174BD3ED037AB4EEE77AF1EE10FA83
:1021F00000F2AD80D7ED0F7AF5EEC07AF1EE10FA6D
:1022000040F19880002210210E4809F0BBFE0A4BD5
:1022100093ED1C7A0A4BD3ED037AB4EEE77AF1EE34
:1022200010FA17D8054B4FF000021A604FF0000368
:102230000CE300BF9C070020180800206802002063
:102240008407002000040240906D0108B06D010871
:10225000D06D0108B84B93ED007AD7ED0B7A77EE8D
:10226000277AC7ED0F7AD7ED0F7AF5EEC07AF1EE47
:1022700010FA02DD4FF00003FB63B04B93F85630C9
:1022800083F00103DBB2002B19D00221AC4806F029
:1022900067FCAA4B93ED1C7AAA4BD3ED037A77EE39
:1022A000677A0220B0EE670A06F084FC0221A64895
:1022B00006F056FC022097ED010A06F0E9FC9F4B60
:1022C000012283F85620A14BD3ED087AF5EE407A2F
:1022D000F1EE10FA3BD0994B93ED1C7AD7ED017AD1
:1022E00037EE677A974BD3ED036A984BD3ED087AB4
:1022F00076EEE77AB4EEE77AF1EE10FA27D88F4B54
:1023000093F8573083F00103DBB2002B03D0022196
:102310008F4806F0A9FC894B012283F85720002240
:1023200010218C4809F02EFE834AFB6B13604FF09E
:1023300000038BE2814B002283F856207F4B002262
:1023400083F8572001221021824809F01BFE7A4AA7
:10235000FB6B1360FFF70AFCB0EE407ADFED7E7A8C
:10236000B4EEE77AF1EE10FA0DDD744B93F85130CC
:10237000002B03D00221794806F076FC6F4B002237
:1023800083F8512019E06D4B93F85130012B06D0A2
:10239000734B00221A700221724806F065FC674BED
:1023A000012283F85120704B93ED007AD7ED0F7A1C
:1023B00077EE277A6C4BC3ED007AFFF7E5FB87EDEC
:1023C000080AD7ED087A9FED647AF4EEC77AF1EE49
:1023D00010FA40F37381594B93F85130012B40F0C0
:1023E0006D81624BD3ED007A9FED5B7AF4EEC77A94
:1023F000F1EE10FA00F262815C4BD3ED007AF4EE5C
:10240000677AF1EE10FA80F15981554B1B78002B59
:102410000FD14A4B1B6F4B4AD360514B01221A70AC
:102420000221534806F020FC4F4B4FF000021A6087
:1024300044E1424B1B6F434A13614B4BD3ED007A8F
:10244000B8EE087AF4EEC77AF1EE10FA0EDD464BDC
:10245000D3ED007AB0EE087AF4EEC77AF1EE10FA16
:1024600004D50221434806F0FFFB27E10221424840
:1024700006F0FAFB354BD3ED037AF5EE407AF1EE38
:1024800010FA40F085802F4B93ED037A2D4BD3ED5E
:10249000047AB4EEE77AF1EE10FA07D5324BD3EDB9
:1024A000007AF5EEC07AF1EE10FA12DC254B93EDCE
:1024B000037A244BD3ED047AB4EEE77AF1EE10FA06
:1024C00010DD294BD3ED007AF5EEC07AF1EE10FA6B
:1024D00008D51E4B4FF07E52DA600221274806F0E5
:1024E000C3FB16E0194B264ADA60164BD3ED037A8C
:1024F000F1EE677A134BC3ED037A124BD3ED047AF6
:10250000F1EE677A0F4BC3ED047A02211D4806F005
:10251000ABFB02211C4806F0A7FB00227C210B48E4
:1025200000F0E4FAF861FB69002B00F095800221CD
:10253000164806F099FB8FE068020020180800207A
:10254000906D010884070020B06D01089C070020F1
:10255000D06D010800040240CDCC4C3FE46D010871
:102560007C020020006E010878020020800200201A
:10257000246E0108306E0108886E0108946E01080F
:10258000000080BFD06E01080C6F01084C6F01087D
:10259000B24B93ED037AB14BD3ED047AB4EEE77A04
:1025A000F1EE10FA07D5AE4BD3ED007AF5EEC07A16
:1025B000F1EE10FA12DCA94B93ED037AA74BD3EDA1
:1025C000047AB4EEE77AF1EE10FA11DDA44BD3ED04
:1025D000007AF5EEC07AF1EE10FA09D5A14BD3EDF1
:1025E000037ABFEE007AF4EE477AF1EE10FA2FD0BC
:1025F0009A4B93ED037A994BD3ED047AB4EEE77AD4
:10260000F1EE10FA07DD964BD3ED007AF5EEC07AC5
:10261000F1EE10FA12D4914B93ED037A8F4BD3ED78
:10262000047AB4EEE77AF1EE10FA15D58C4BD3EDBF
:10263000007AF5EEC07AF1EE10FA0DDD894BD3ED9C
:10264000037AB7EE007AF4EE477AF1EE10FA03D18E
:102650000221854806F008FB0221844806F080FA32
:102660007E4BD3ED037A0220B0EE670A06F0A2FAA1
:1026700002217F4806F074FA784BD3ED047A0220E9
:10268000B0EE670A06F004FB744B93ED037A734BCC
:10269000D3ED047AB4EEE77AF1EE10FA09DD6F4B70
:1026A000DB68BB616D4B1B696C4AD3606B4ABB69CD
:1026B000136103221821694800F06CFA6D4A3B6AE5
:1026C00013606D4B93F85130002B06D0654B5B6C5B
:1026D000BB63644B9B6C7B6305E0624BDB6BBB6352
:1026E000604B1B6C7B63FFF75DFA87ED050A97ED86
:1026F000057AD7ED057AB4EE677AF1EE10FA19D6BD
:10270000D7ED057AB7EE007A77EE877AF0EE006AB9
:1027100087EEA67AD7ED0E7ADFED586A77EEE67A85
:1027200067EE277A9FED557A77EE877A524BC3EDA5
:10273000197A02E0504ABB6B5366FFF741FA87ED06
:10274000040A97ED047AD7ED047AB4EE677AF1EED5
:1027500010FA19D6D7ED047AB7EE007A77EE877AB9
:10276000F0EE006A87EEA67AD7ED0D7ADFED446AC7
:1027700077EEE67A67EE277A9FED417A77EE877AF1
:102780003D4BC3ED1A7A02E03B4A7B6B9366FFF741
:1027900025FA87ED030A97ED037AD7ED037AB4EEB5
:1027A000677AF1EE10FA2CD6D7ED037AF5EEC07AFF
:1027B000F1EE10FA03D52B4B01221A770DE0D7ED7D
:1027C000037AF5EEC07AF1EE10FA03DD254B032211
:1027D0001A7702E0234B02221A77224B1A7F294BE9
:1027E0001B789A420DD01F4B1A7F264B1A701D4B37
:1027F0001B7F184605F0B4F903460221184606F07F
:1028000033FAFFF7F9F987ED020A97ED027AD7ED6F
:10281000027AB4EE677AF1EE10FA12D6D7ED027AA8
:102820009FED197AF4EEC77AF1EE10FA09DD124B3A
:10283000012283F8582008F065FF02460E4BDA6546
:1028400003E00D4B002283F85820FB6B07EE903A13
:10285000B0EE670A4037BD4680BD00BF8407002048
:10286000780200209C070020686F0108986F01081B
:10287000A46F010880020020180800206F12833A1C
:10288000CDCCCC3D0F010020CDCC4C3F80B588B0E5
:1028900000AFFFF7B9F8FFF7A9F8F0EE406A734B05
:1028A000D3ED197A86EEA77AB0EE470AFFF744F91E
:1028B00087ED060A6D4B93ED1F7AD7ED067A27EE6A
:1028C000277AF0EE006AC7EE267AC7ED057A97ED13
:1028D000050AFFF70BFB87ED040AD7ED047AF5EE46
:1028E000C07AF1EE10FA21DD614A624BB3F92E3065
:1028F0001946604BB3F930300B445C4991ED1A7ABC
:10290000D7ED047A27EE277A5A49B1F9321007EE4B
:10291000901AF8EEE77A67EE277AFDEEE77AC7EDD0
:10292000017AB98809B20B44D3632DE0D7ED047A5C
:10293000F5EEC07AF1EE10FA21D54D4A4D4BB3F9C0
:102940002E3019464B4BB3F93030CB1A474991ED35
:102950001A7AD7ED047A27EE277A4649B1F9321070
:1029600007EE901AF8EEE77A67EE277AFDEEE77A3F
:10297000C7ED017AB98809B20B44D36304E03C4B3C
:102980003C4AB2F92E20DA6397ED040A08F0F6FB10
:10299000FFF742F987ED030AD7ED037AF5EEC07A27
:1029A000F1EE10FA1CDD324A324BB3F964301946AD
:1029B000304BB3F966300B442E49B1F9681007EE7D
:1029C000901AB8EEE77AD7ED037A67EE277AFDEE34
:1029D000E77AC7ED017AB98809B20B44136428E09D
:1029E000D7ED037AF5EEC07AF1EE10FA1CD5204A45
:1029F000204BB3F9643019461E4BB3F96630CB1A3D
:102A00001C49B1F9681007EE901AB8EEE77AD7EDD5
:102A1000037A67EE277AFDEEE77AC7ED017AB98887
:102A200009B20B44136404E0114B124AB2F964205A
:102A30001A640023FB610FE0FB69DBB2184600F06B
:102A40001DF8F0EE407A0C4AFB699B001344C3ED7D
:102A5000007AFB690133FB61FB69072BECDD06485B
:102A600005F046FB00BF2037BD4680BD180800209A
:102A7000000400409C070020DC02002080B582B0EA
:102A800000AF0346FB71FB790B4A134493F85730B0
:102A9000402B02D9DFED097A09E0FB79064A13449D
:102AA00093F85730184605F011FEF0EE407AB0EE7C
:102AB000670A0837BD4680BD9C0700200000C07F24
:102AC00080B500AF06F0C4FB0246064B1A60054B0A
:102AD0001B68054A934201D0002300E000231846FA
:102AE00080BD00BF840200201520200080B584B086
:102AF00000AF78600B467B8013463B800E4B1B6813
:102B0000092B01D8022312E03B881B04FB60F86804
:102B100006F032F97B881A46F968786806F0EAF917
:102B20007B881A46F968786806F0CEFA034618469C
:102B30001037BD4680BD00BF8402002080B584B040
:102B400000AF0346FB80084B1B68092B01D802230A
:102B500006E0FB881B04FB60F86806F00DF90346ED
:102B600018461037BD4680BD8402002080B584B071
:102B700000AFF860B9601346FB80FB881B04BA689D
:102B80001946F86806F008FB034618461037BD469C
:102B900080BD00BF80B582B000AF78600B467B80FF
:102BA00013463B80114B1B88002B19D10F4B1B8800
:102BB00001339AB20D4B1A800D4A7B6813600D4A9F
:102BC0007B8813803B881B040B4A136008F09AFD36
:102BD000034603F51C531033084A1360002300E03A
:102BE000012318460837BD4680BD00BF880200207B
:102BF0008C02002090020020940200209802002005
:102C000080B582B000AF324B1B88002B5CD0002314
:102C10007B602F4B1B88013B042B3FD801A252F84D
:102C200023F000BF392C0008532C00086B2C00083F
:102C3000532C00088D2C0008264B1B68184606F004
:102C4000AFF87860224B1B8801339AB2204B1A8070
:102C500029E006F0E7FB0346002B23D11C4B1B8821
:102C600001339AB21A4B1A801CE01B4B1868194B9F
:102C700019681A4B1B881A4606F054F97860144BF1
:102C80001B8801339AB2124B1A800CE002211448BF
:102C900005F0EAFF0E4B00221A8004E00C4B0022E4
:102CA0001A8000E000BF7B68002B06D108F02AFDE7
:102CB00002460C4B1B689A4206D9054B00221A802B
:102CC0000221094805F0D0FF00BF0837BD4680BD8E
:102CD00088020020940200208C0200209002002034
:102CE000387001089802002050700108B0B5A4B0F7
:102CF00000AF08F087FC00F065FA00F09FFD00F0DF
:102D0000EFFA00F017FB00F04FFB00F097FB00F02C
:102D100033FD07F079FA00F001FD00F0F7FB00F059
:102D200059FD00F07BFE08F091F90421BA480BF040
:102D30000BFE01221021B94809F024F90821B848F6
:102D40000BF078FC0346002B03D09021B54800F02F
:102D50002BFE0C21B2480BF06DFC0346002B03D078
:102D60009521B04800F020FEFFF7AAFE0346002B95
:102D700003D09B21AB4800F017FEAB4BAB4A07CA10
:102D800003C31A70A84B4FF00002DA60A64BA84AA2
:102D90001A62A54B01221A77A34B002283F82C203C
:102DA000A14BFF221A76A04BFF22DA759E4B002220
:102DB0009A759D4BFF225A769B4BFF229A769A4B2F
:102DC000FF22DA76984B9B4ADA63974B9A4A5A6409
:102DD000954B4FF07E521A64934B4FF07A529A649F
:102DE000914B4FF478721A828F4B1E225A828E4B6F
:102DF0004FF42F725A868C4B40F2DC52DA858A4BA4
:102E00001E221A86884B4FF448729A82864B4CF2E7
:102E100050325A63844B884A9A63834B3C22A3F80E
:102E20004E20814B0A22A3F84C207F4B0122A3F8AD
:102E300050207D4BFF2283F852207B4BFF2283F8EA
:102E40005320794BFF2283F85420774BFF2283F8DD
:102E50005520754BFF2283F85620734B4FF42F7289
:102E6000A3F86820704B40F2DC52A3F864206E4B4C
:102E70000022A3F866206C4B002283F86220002316
:102E8000C7F88C3014E0684AD7F88C3013445733B5
:102E9000FF221A70644AD7F88C3034335B00134435
:102EA0004FF478729A80D7F88C300133C7F88C30A1
:102EB000D7F88C30072BE6DD5B4B7C22A3F8602033
:102EC00007F10C0300227C211846FFF74FFE07F1A3
:102ED0000C030B221946544810F0BCFA0346002B91
:102EE00012D1514B184607F10C037C2219460FF002
:102EF00003FB524A524B14461D460FCD0FC495E8B2
:102F0000070084E8070067E007F10C0304224D493D
:102F1000184610F09FFA0346002B0FD1474A4A4B40
:102F200014461D460FCD0FC40FCD0FC40FCD0FC4D7
:102F300095E803002060043421804DE007F10C0384
:102F400004224249184610F085FA0346002B3BDB69
:102F5000354A3B4607CA03C31A800233120C1A7063
:102F6000B7F86C30A7F88A30B7F88A30002B03D056
:102F7000B7F88A307C2B02D97C23A7F88A30B7F8BF
:102F80008A2007F10C03194627480FF0B5FA264BA3
:102F90003A4607CA03C31A800233120C1A70224B36
:102FA0007C22A3F86020254A294B14461D460FCDEC
:102FB0000FC40FCD0FC40FCD0FC42B681A4622804B
:102FC00002341B0C237007E01C4A224B10461946A2
:102FD00044231A460FF090FA032218211E48FFF7E7
:102FE000C5FD0B221D491C4810F034FA0346002B86
:102FF00038D002211A4805F037FE174B4FF09E4299
:103000001A61154B4FF04F42DA60134B134A07CA4F
:1030100003C31A703EE000BF4003002000040240DA
:103020007C030020647001089C0700207070010878
:103030000000C8420AD7233CCDCCCC3D1808002064
:103040007C70010898700108A0700108D870010810
:10305000E07001081471010884070020587101080C
:103060006471010802214B4805F07AFD4A4BD3ED0B
:10307000037A0220B0EE670A05F09CFD0221474862
:1030800005F06EFD444BD3ED047A0220B0EE670AE2
:1030900005F0FEFD404B18229A82414B93F82C30EC
:1030A000012B02D100F03CFC01E000F05DFCFEF7DA
:1030B00035FD08F00BF803464FF400721946394805
:1030C0000CF046FE4FF400723749384806F01EFFF8
:1030D00008F018FB0246364B1B68D31A142B42D952
:1030E00008F010FB0246324B1A60FEF73BFC07F07B
:1030F000B5FAFEF745FC0346002B01D008F0E6F8D0
:10310000FEF73EFC0346002B08D02A4B93F85130C3
:10311000002B03D12021284808F04EFFFEF74AFC7F
:103120000346002B08D0234B93F85130012B03D1D9
:103130002021214808F040FF1E4B93F85130022B0C
:1031400004D01C4B93F85130032B05D100221021E1
:10315000194808F017FF04E001221021164808F072
:1031600011FFFFF793FB07F0A1F90346002B03D0F3
:103170001249012000F068FE06F09EFF0346002B76
:1031800003D00F49002000F05FFE05F093FCFFF72D
:1031900037FD9DE79871010884070020A871010898
:1031A0009C07002044070020AC040020FC02002003
:1031B0003C0300201808002000040240180E0020E4
:1031C000F409002080B598B000AF0023BB60404AEE
:1031D0003F4B1B6C43F0805313643D4B1B6C03F05F
:1031E0008053BB60BB6800237B603A4A394B1B6845
:1031F00043F480431360374B1B6803F480437B60C8
:103200007B680B233B634FF480337B630123FB63B9
:1032100010233B6401237B640223BB644FF48003CF
:10322000FB6404233B6548237B650223BB650323C2
:10323000FB6507F13003184609F0C6FF0346002B73
:1032400004D040F26B11244800F0AEFB0F23FB6169
:1032500000233B6200237B620023BB620023FB62EE
:1032600007F11C03002118460AF008FA0346002B58
:1032700004D040F27911184800F096FB0223FB605D
:103280004FF40073BB6107F10C0318460AF0D6FB3C
:103290000346002B04D04FF4C0710F4800F084FBAC
:1032A0000AF07CFB02460D4BA3FB02239B09184648
:1032B00008F07AFB042008F083FB002200214FF085
:1032C000FF3008F039FB00BF6037BD4680BD00BF4E
:1032D000003802400070004064700108D34D621055
:1032E00080B500AF104B114A1A600F4B00225A6094
:1032F0000D4B7F229A600C4BFF22DA600A4B0022B2
:103300001A61094B00225A61074B00229A61064854
:103310000AF0C8FC0346002B04D040F29D1104487B
:1033200000F042FB00BF80BD500400200028004098
:103330006470010880B500AF184B194A1A60174B2A
:103340004FF482725A60154B00229A60134B002290
:10335000DA60124B00221A61104B00225A610F4BA7
:1033600000229A610D4B0022DA610C4B00221A6296
:103370000A4B00225A62094B00229A62074B0A222A
:10338000DA6206480AF036FD0346002B04D040F20C
:10339000B311044800F008FB00BF80BDEC0600201C
:1033A000003001406470010880B500AF012208219F
:1033B0001E4808F0E7FD1E4B1E4A1A601C4B4FF4D6
:1033C00082725A601A4B00229A60194B0022DA600E
:1033D000174B02221A61164B01225A61144B4FF40B
:1033E00000729A61124B0822DA61114B00221A62B4
:1033F0000F4B00225A620E4B00229A620C4B07229E
:10340000DA620B480AF0F6FC0346002B04D04FF4B6
:10341000E571094800F0C8FA054B1B68044A1268B8
:10342000126842F040021A6000BF80BD00040240F2
:10343000B8030020003C00406470010880B58AB0E9
:1034400000AF2F4B2F4A1A602D4B0F225A602C4B86
:1034500000229A602A4B44F62062DA60284B002250
:103460001A6127480BF0BAF80346002B04D040F24B
:10347000DF11254800F098FA00233B6200237B62AD
:1034800007F1200319461E480CF0B8FA0346002B3A
:1034900004D04FF4F3711C4800F086FA60237B607F
:1034A00040F2DC53BB600023FB6000237B61002300
:1034B0003B610023FB610023BB613B1D08221946D1
:1034C0000F480BF03DFC0346002B04D04FF4F9717C
:1034D0000D4800F069FA3B1D0C22194608480BF014
:1034E0002FFC0346002B04D040F2F711064800F0F1
:1034F0005BFA034806F0B0F900BF2837BD4680BD2F
:103500007C030020000400406470010880B58CB08A
:1035100000AF224B224A1A60204B00225A601F4BF8
:1035200000229A601D4B4FF0FF32DA601B4B0022E5
:103530001A610323FB6000233B6101237B610023AD
:10354000BB610423FB6100233B6201237B620023F8
:10355000BB620423FB6207F10C0319460F480BF012
:103560005DF90346002B04D040F213210D4800F012
:103570001BFA00237B600023BB603B1D19460748F4
:103580000CF03CFA0346002B04D040F21A21054807
:1035900000F00AFA00BF3037BD4680BD400300206E
:1035A000000C00406470010880B58CB000AF3E4B49
:1035B0003E4A1A603C4B0F225A603B4B00229A60F5
:1035C000394B4FF6FF72DA60374B00221A61364BE7
:1035D00000225A6134480AF0D5FF0346002B04D07C
:1035E00040F22E21324800F0DFF92F480BF056F858
:1035F0000346002B04D040F233212D4800F0D4F9CB
:103600000423FB6160233B6200237B620023FB6297
:1036100007F11C03194624480BF058FC0346002B05
:1036200004D040F23D21224800F0BEF900237B6126
:103630000023BB6107F1140319461B480CF0DEF9A7
:103640000346002B04D04FF41171194800F0ACF977
:1036500002237B600123BB600023FB6000233B61EE
:103660003B1D0822194610480BF0CEFA0346002BEA
:1036700004D040F24F210E4800F096F900237B6001
:103680000223BB603B1D0C22194607480BF0BCFA15
:103690000346002B04D040F25721054800F084F97E
:1036A00000BF3037BD4680BD7004002000000140DF
:1036B0006470010880B500AF144B154A1A60134BB3
:1036C000144A5A60114B4FF480529A600F4B4FF4DA
:1036D0000052DA600D4B4FF480621A610B4B0422EA
:1036E0005A610A4B00229A61084B4FF40042DA619A
:1036F00006480CF0DDF90346002B04D04FF41B7193
:10370000054800F051F900BF80BD00BF1004002043
:1037100000100140A08601006470010880B500AF70
:10372000124B134A1A60114B4FF4E1325A600F4B9F
:1037300000229A600D4B0022DA600C4B00221A61C5
:103740000A4B0C225A61094B00229A61074B002256
:10375000DA6106480CF0ACF90346002B04D04FF4B4
:103760002071044800F020F900BF80BD440700200C
:10377000004400406470010880B500AF124B134A4A
:103780001A60114B4FF416425A600F4B00229A6098
:103790000D4B0022DA600C4B00221A610A4B0C22FE
:1037A0005A61094B00229A61074B0022DA610648F0
:1037B0000CF07EF90346002B04D04FF42571044829
:1037C00000F0F2F800BF80BDFC020020004800407D
:1037D0006470010880B500AF144B154A1A60134B92
:1037E000144A5A60114B4FF480529A600F4B4FF4B9
:1037F0000052DA600D4B4FF480621A610B4B0822C5
:103800005A610A4B00229A61084B4FF40042DA6178
:1038100006480CF04DF90346002B04D04FF42A71F2
:10382000054800F0C1F800BF80BD00BFAC06002015
:1038300000140140A08601006470010880B58AB0C0
:1038400000AF00233B61324A314B1B6B43F08003D6
:1038500013632F4B1B6B03F080033B613B69002319
:10386000FB602B4A2A4B1B6B43F001031363284B6D
:103870001B6B03F00103FB60FB680023BB60244A61
:10388000234B1B6B43F004031363214B1B6B03F0AF
:103890000403BB60BB6800237B601D4A1C4B1B6B91
:1038A00043F0020313631A4B1B6B03F002037B60AC
:1038B0007B6800223821174808F064FB10237B61E5
:1038C000154BBB610023FB6107F114031946134834
:1038D00008F0C2F801237B610123BB610023FB6177
:1038E00007F1140319460D4808F0B6F838237B6138
:1038F0000123BB610023FB6100233B6207F114033A
:103900001946044808F0A8F800BF2837BD4680BD16
:10391000003802400004024000001110000802407C
:1039200080B500AF08210D480AF0EEFE0C210B48CF
:103930000AF0EAFEFFF7BEFE04F036FF0346192246
:10394000194607480CF004FA01220121054808F045
:1039500019FB012004F064FB00BF80BD700400204F
:10396000100400200008024080B500AF0B480CF0A6
:10397000EDF8FFF719FE01220121094808F002FBCA
:10398000082108480AF0EAFE0C2106480AF0E6FE83
:10399000002004F045FB00BF80BD00BF10040020E4
:1039A000000802407004002080B5ADF5805D82B053
:1039B00000AF07F10803043B186007F10803083B58
:1039C0001960144B144AB2F92E20DA6307F1080388
:1039D000083B07F10800022219460EF08DFD07F1A1
:1039E0000803043B18680FF02DFD0346591C07F12E
:1039F0000803043B07F10802901C0A4619680EF000
:103A00007BFD07F1080305224FF480511846FFF7AC
:103A10006DF8FEE7000400409C07002080B400AF72
:103A2000044B002283F86C2000BFBD465DF8047B88
:103A3000704700BF1808002080B582B000AF034671
:103A40000A46FB711346BB71BB791946074805F05E
:103A500087F8FB79064A52F82330BA79114618469E
:103A600005F002F900BF0837BD4680BDC8730108E4
:103A70001001002080B584B000AF0346FB71164BE7
:103A80001B7883F02003DAB2134B1A70124B1B78A9
:103A900083F04F03DAB2104B1A700F4B1B7883F090
:103AA0004B03DAB20C4B1A700B4B1B7807F1080072
:103AB0000A4A05210FF044FCFB791946084805F035
:103AC0004FF8FA7907F108031146184605F0CCF8CB
:103AD00000BF1037BD4680BD9C020020D473010892
:103AE000DC73010880B582B000AF03460A46FB7163
:103AF0001346BB71BB791946074805F031F8BA790E
:103B0000FB791146184605F00FF8044AFB7913704B
:103B100000BF0837BD4680BDE47301089C02002049
:103B200080B584B000AF78600B46FB700023FB606B
:103B30000CE0FB687A6813441A780D4B1B785340ED
:103B4000DAB20B4B1A70FB680133FB60FB68272B62
:103B500005DCFB687A6813441B78002BE9D1FB78FD
:103B60001946786804F0FCFF00BF1037BD4680BDE1
:103B70009C02002080B582B000AF03460A46FB716C
:103B80001346BB71084B1A78FB795340DAB2064BE7
:103B90001A70BA79FB791146184604F0C5FF00BFC8
:103BA0000837BD4680BD00BF9C02002090B59DB087
:103BB00002AF87ED020B0346FB7107F11400D7E952
:103BC0000234CDE90034154A50210FF0B9FB00232F
:103BD0007B660DE007F114027B6E13441A78104BDC
:103BE0001B785340DAB20E4B1A707B6E01337B6642
:103BF0007B6E272B06DC07F114027B6E13441B78C7
:103C0000002BE7D1FA7907F114031146184604F0A6
:103C1000A7FF00BF6C37BD4690BD00BFE873010829
:103C20009C02002090B59BB002AF87ED010A0346CD
:103C3000FB7078680EF028F903460C4607F10C007B
:103C4000CDE90034144A50210FF07AFB0023FB65C4
:103C50000DE007F10C02FB6D13441A780F4B1B7833
:103C60005340DAB20D4B1A70FB6D0133FB65FB6DEF
:103C7000272B06DC07F10C02FB6D13441B78002B8D
:103C8000E7D1FA7807F10C031146184604F068FFF3
:103C900000BF6437BD4690BDF07301089C02002050
:103CA00080B598B000AF03460A46FB8013467B718F
:103CB000B7F9063007F10C00144A50210FF040FB11
:103CC0000023FB650DE007F10C02FB6D13441A782D
:103CD0000F4B1B785340DAB20D4B1A70FB6D01335A
:103CE000FB65FB6D272B06DC07F10C02FB6D134413
:103CF0001B78002BE7D17A7907F10C03114618469F
:103D000004F02EFF00BF6037BD4680BDF873010888
:103D10009C02002080B584B000AF03460A46FB71C8
:103D20001346BB71FB7907F10800154A03210FF018
:103D300007FB0023FB600DE007F10802FB6813445A
:103D40001A78104B1B785340DAB20E4B1A70FB688E
:103D50000133FB60FB68022B06DC07F10802FB68FD
:103D600013441B78002BE7D1BA7907F108031146F9
:103D7000184604F0F5FE00BF1037BD4680BD00BFF9
:103D8000FC7301089C02002080B598B000AF7860F9
:103D90000B46FB7007F10C007B68154A50210FF0B1
:103DA000CFFA0023FB650DE007F10C02FB6D134415
:103DB0001A78104B1B785340DAB20E4B1A70FB6D19
:103DC0000133FB65FB6D272B06DC07F10C02FB6D55
:103DD00013441B78002BE7D1FA7807F10C03114646
:103DE000184604F0BDFE00BF6037BD4680BD00BF71
:103DF000047401089C02002080B483B000AF034625
:103E0000FB71FB792F2B05D9FB79392B02D8FB7974
:103E1000303B13E0FB79602B05D9FB79662B02D888
:103E2000FB79573B0AE0FB79402B05D9FB79462B00
:103E300002D8FB79373B01E04FF0FF3318460C37CF
:103E4000BD465DF8047B704780B586B000AF034681
:103E50003960FB710023FB820023BB8295E0FB8A63
:103E60005A1CFA821A463B6813441B787B747B7C8D
:103E7000002B00F090804A4B1B78202B09D17B7CD3
:103E8000242B02D07B7C212B7FD1454B24221A701E
:103E90007BE07B7C0A2B02D07B7C0D2B27D1BB8A5D
:103EA000002B06D1FB8A013B3A68134400221A70AA
:103EB00004E0BB8A3A68134400221A70384B1B781E
:103EC0002A2B09D1FA7CBB7C9A4205D0FB79194692
:103ED0000420FFF7B1FD04E0FB793968184600F0D3
:103EE00063F80023FB742E4B20221A704DE07B7C7C
:103EF0002A2B06D12A4B31221A70FB8A013BBB8246
:103F000043E0274B1B78312B10D17B7C1846FFF701
:103F100073FFF860FB68B3F1FF3F36D0FB68DBB29C
:103F20001B01BB741E4B32221A702EE01C4B1B78F7
:103F3000322B11D17B7C1846FFF75EFFB860BB685F
:103F4000B3F1FF3F21D0BB68DAB2BB7C1344BB7432
:103F5000134B2A221A7018E0114B1B78242B04D122
:103F6000FA7C7B7C5340FB740FE00D4B1B782A2BB3
:103F700005D1FB7919460520FFF75EFD0CE0FB79C2
:103F800019460020FFF758FD06E0FB8AB3F5007FD5
:103F9000FFF465AF00E000BF1837BD4680BD00BF2D
:103FA0004C0100200000000090B5ADF58E5D83B09F
:103FB00006AF024607F11003083B196007F1100332
:103FC000013B1A7007F11003083B1B685B7807F58B
:103FD0008C5202F11702137007F58C5303F117038B
:103FE0001B782D3B4B2B03F20E8001A252F823F0DD
:103FF000CF6F0008077000080770000807700008FE
:10400000ED5E0008077000080770000807700008E0
:1040100007700008077000080770000807700008A4
:104020000770000807700008077000080770000894
:104030000770000807700008077000080770000884
:10404000774F000845590008077000080B68000802
:10405000D55A00080770000843660008B5650008D7
:104060001753000807700008077000080770000861
:1040700007700008D54D000807700008916E000811
:1040800007700008077000088355000807700008D3
:10409000077000089B6F0008414600080770000881
:1040A000077000081F6F00080770000807700008FD
:1040B0000770000807700008CB6F00080770000841
:1040C00021410008B3550008B559000807700008E1
:1040D0004752000807700008DF42000845540008F6
:1040E00095460008EF69000807700008077000088F
:1040F000715400082B4C000807700008AB430008FF
:1041000007700008295100080770000807700008B0
:104110000770000851440008B745000861580008BE
:1041200007F11003083B1B68981C07F58B5303F13C
:104130001803043307F58B5202F11802BD490FF042
:1041400055F9034607F58C5202F11402138007F566
:104150008C5303F11403B3F90030022B63D107F53C
:104160008B5303F11803D3ED007AF5EEC07AF1EE2C
:1041700010FA4EDD07F58B5303F11C03D3ED007AE3
:10418000F5EEC07AF1EE10FA43DD07F58B5303F13B
:104190001803D3ED007AB7EE007AF4EEC77AF1EEA9
:1041A00010FA36D507F58B5303F11C03D3ED007AD3
:1041B000B7EE007AF4EEC77AF1EE10FA29D507F5DA
:1041C0008B5303F11803D3ED007A9FED9B7A67EED2
:1041D000877A9A4BC3ED0F7A07F58B5303F11C03D3
:1041E000D3ED007A9FED947A67EE877A934BC3ED17
:1041F000117A07F11003013B1B7819466120FFF784
:1042000071FC07F11003013B1B781846FFF732FCE5
:1042100062E007F11003013B1B7819460E20FFF7FF
:104220000BFC02F0F9BE07F58C5303F11403B3F94C
:104230000030002B48DC07F11003013B1B781946C6
:104240006120FFF74FFC7D4BD3ED0F7A9FED7A7A1B
:10425000C7EE876A07F11003013B1B781846B0EEE2
:10426000660AFFF7DFFC754BD3ED117A9FED727A8A
:10427000C7EE876A07F11003013B1B781846B0EEC2
:10428000660AFFF7CFFC07F11003013B1B781846C5
:10429000FFF7F0FB07F11003013B1B781946684854
:1042A00004F05EFC674B93F8543007EE903AF8EE5A
:1042B000677A07F11003013B1B781846B0EE670AD6
:1042C00004F0E6FC02F0A8BE07F11003013B1B78E6
:1042D00019460720FFF7B0FB00BF02F09DBE07F1B3
:1042E0001003083B1B68023307F58B5202F11402DE
:1042F000554918460FF07AF8034607F58C5202F13B
:104300001402138007F58C5303F11403B3F9003042
:10431000012B2CD107F58B5303F11403D3ED007A55
:10432000F5EEC07AF1EE10FA17DD07F58B5303F1C5
:1043300014031B68414A136207F11003013B1B7809
:1043400019466720FFF7CEFB07F11003013B1B78EE
:104350001846FFF78FFB02F05FBE07F11003013B29
:104360001B7819460E20FFF767FB02F055BE07F1D8
:104370001003013B1B7819466720FFF7B3FB2F4B57
:10438000D3ED087A07F11003013B1B781846B0EE15
:10439000670AFFF747FC07F11003013B1B7818463B
:1043A000FFF768FB00BF02F037BE07F11003013BC7
:1043B0001B7819467020FFF795FB244BD3ED037A49
:1043C000FDEEE77A07F11003013B1B78194617EE63
:1043D000900AFFF7D9FC1D4BD3ED047AFDEEE77A86
:1043E00007F11003013B1B78194617EE900AFFF7FF
:1043F000CBFC144BD3ED1C7A07F11003013B1B7867
:104400001846B0EE670AFFF70DFC0E4BD3ED1F7A8E
:1044100007F11003013B1B781846B0EE670AFFF75F
:1044200001FC07F11003013B1B781846FFF722FB44
:1044300002F0F2BD0C7401080AD7A33C9C070020CF
:10444000147401081808002024740108840700204F
:1044500007F11003083B1B68981C07F58B5303F109
:104460000C03043307F58B5202F10C0284490EF061
:10447000BDFF034607F58C5202F11402138007F5C5
:104480008C5303F11403B3F90030022B57D107F515
:104490008B5303F10C03D3ED007AF5EEC07AF1EE05
:1044A00010FA42DD07F58B5303F11003D3ED007AC8
:1044B000F5EEC07AF1EE10FA37DD07F58B5303F114
:1044C0000C03D3ED007AB7EE007AF4EEC77AF1EE82
:1044D00010FA2AD807F58B5303F11003D3ED007AB5
:1044E000B7EE007AF4EEC77AF1EE10FA1DD507F5B3
:1044F0008B5303F10C031B68624A136407F58B535B
:1045000003F110031B685F4A936407F11003013B3A
:104510001B7819467620FFF7E5FA07F11003013BF7
:104520001B781846FFF7A6FA42E007F11003013B9B
:104530001B7819460E20FFF77FFA02F06DBD07F5D4
:104540008C5303F11403B3F90030002B28DC07F17E
:104550001003013B1B7819467620FFF7C3FA494B3D
:10456000D3ED107A07F11003013B1B781846B0EE2B
:10457000670AFFF757FB434BD3ED127A07F110039D
:10458000013B1B781846B0EE670AFFF74BFB07F1BB
:104590001003013B1B781846FFF76CFA02F03CBD94
:1045A00007F11003013B1B7819460720FFF744FA77
:1045B00000BF02F031BD00227C213248FEF796FA9E
:1045C00007F58C5303F110031860032218212E48BD
:1045D000FEF78CFA024607F58C5303F110031B68B3
:1045E000134407F58C5202F11002136007F1100317
:1045F000013B1B7819467720FFF774FA07F58C53B7
:1046000003F110031B68002B10D107F11003013BCD
:104610001B7819461D48FFF783FA07F11003013B89
:104620001B781846FFF726FA02F0F6BC07F11003D4
:10463000013B1B7819460820FFF7FEF902F0ECBC9D
:104640000020FEF77BFA0320FEF778FA07F110034B
:10465000013B1B7819465720FFF744FA07F1100376
:10466000013B1B7819460A48FFF75AFA07F1100375
:10467000013B1B781846FFF7FDF902F0CDBC00BFE7
:104680000C7401089C07002084070020287401088E
:104690004874010807F11003083B1B68981C07F5D4
:1046A0008A5303F11C03991C07F58A5202F11C027C
:1046B00007F58A5303F11C030E33059307F58A535C
:1046C00003F11C030C33049307F58A5303F11C0315
:1046D0000A33039307F58A5303F11C03083302934B
:1046E00007F58A5303F11C030633019307F58A5338
:1046F00003F11C03043300930B46D4490EF076FEFD
:10470000034607F58C5202F11402138007F58C530F
:1047100003F11403B3F90030002B40F3E88107F5EF
:104720008A5303F11C03B3F90030002B40F3D58109
:1047300007F58A5303F11C03B3F90030102B00F383
:10474000CC8107F58A5303F11E03B3F90030002B27
:1047500040F3C38107F58A5303F11E03B3F9003018
:10476000102B00F3BA8107F58B53B3F90030002BFF
:1047700040F3B38107F58B53B3F90030102B00F3EE
:10478000AC8107F58A5303F11C03B3F9002007F548
:104790008A5303F11E03B3F900309A4200F09D8161
:1047A00007F58A5303F11C03B3F9002007F58B5377
:1047B000B3F900309A4200F0908107F58A5303F173
:1047C0001E03B3F9002007F58B53B3F900309A426A
:1047D00000F0838107F58A5303F11C03B3F900301D
:1047E000DBB2013BDAB29A4B9A7507F11003013B39
:1047F0001B7819466920FFF775F9954B9B7D9BB295
:1048000001339BB21AB207F11003013B1B78194622
:104810001046FFF745FA07F58C5303F11403B3F97B
:104820000030012B28DD07F58A5303F11E03B3F98D
:104830000030002B20DD07F58A5303F11E03B3F986
:104840000030102B18DC07F58A5303F11E03B3F96F
:104850000030DBB2013BDAB27D4BDA757C4BDB7D9D
:104860009BB201339BB21AB207F11003013B1B78D4
:1048700019461046FFF714FA07F58C5303F1140399
:10488000B3F90030022B22DD07F58B53B3F900306A
:10489000002B1CDD07F58B53B3F90030102B16DC11
:1048A00007F58B53B3F90030DBB2013BDAB2684B4A
:1048B0001A76674B1B7E9BB201339BB21AB207F18B
:1048C0001003013B1B7819461046FFF7E9F907F57D
:1048D0008C5303F11403B3F90030032B28DD07F5E3
:1048E0008B5303F10203B3F90030002B20DD07F5F1
:1048F0008B5303F10203B3F90030102B18DC07F5DA
:104900008B5303F10203B3F90030DBB2013BDAB29F
:104910004F4B5A764E4B5B7E9BB201339BB21AB221
:1049200007F11003013B1B7819461046FFF7B8F951
:1049300007F58C5303F11403B3F90030042B28DD81
:1049400007F58B5303F10403B3F90030002B20DD8E
:1049500007F58B5303F10403B3F90030102B18DC77
:1049600007F58B5303F10403B3F90030DBB2013BCD
:10497000DAB2374B9A76364B9B7E9BB201339BB2B1
:104980001AB207F11003013B1B7819461046FFF7D6
:1049900087F907F58C5303F11403B3F90030052BA5
:1049A00028DD07F58B5303F10603B3F90030002B24
:1049B00020DD07F58B5303F10603B3F90030102B0C
:1049C00018DC07F58B5303F10603B3F90030DBB2B3
:1049D000013BDAB21E4BDA761D4BDB7E9BB2013314
:1049E0009BB21AB207F11003013B1B78194610461F
:1049F000FFF756F907F58C5303F11403B3F90030B0
:104A0000062B2FDD07F58B5303F10803B3F90030B4
:104A1000002B27DD07F58B5303F10803B3F90030B2
:104A2000102B1FDC07F58B5303F10803B3F900309B
:104A3000DBB2013BDAB2064B83F85220044B93F809
:104A400052309BB201339BB21AB203E05874010892
:104A50009C07002007F11003013B1B781946104604
:104A6000FFF71EF907F58C5303F11403B3F9003077
:104A7000072B2ADD07F58B5303F10A03B3F9003046
:104A8000002B22DD07F58B5303F10A03B3F9003045
:104A9000102B1ADC07F58B5303F10A03B3F900302E
:104AA000DBB2013BDAB2C94B83F85620C74B93F80F
:104AB00056309BB201339BB21AB207F11003013B8F
:104AC0001B7819461046FFF7EBF807F11003013B7E
:104AD0001B781846FEF7CEFFA4E007F11003013B58
:104AE0001B7819460E20FEF7A7FF02F095BA07F5CE
:104AF0008C5303F11403B3F90030002B00F38A80C8
:104B000007F11003013B1B7819466920FEF7EAFF05
:104B1000AE4B9B7D9BB201339BB21AB207F11003DF
:104B2000013B1B7819461046FFF7BAF8A74BDB7D0F
:104B30009BB201339BB21AB207F11003013B1B7801
:104B400019461046FFF7ACF8A04B1B7E9BB2013311
:104B50009BB21AB207F11003013B1B7819461046AD
:104B6000FFF79EF8994B5B7E9BB201339BB21AB262
:104B700007F11003013B1B7819461046FFF790F828
:104B8000924B9B7E9BB201339BB21AB207F110038A
:104B9000013B1B7819461046FFF782F88B4BDB7EF2
:104BA0009BB201339BB21AB207F11003013B1B7891
:104BB00019461046FFF774F8844B93F852309BB2B5
:104BC00001339BB21AB207F11003013B1B7819465F
:104BD0001046FFF765F87D4B93F856309BB20133D2
:104BE0009BB21AB207F11003013B1B78194610461D
:104BF000FFF756F807F11003013B1B781846FEF744
:104C000039FF07F11003013B1B78184602F0CAFF79
:104C100002F002BA07F11003013B1B781946072086
:104C2000FEF70AFF00BF02F0F7B907F11003083BD7
:104C30001B68981C07F58A5303F11403991C07F5A8
:104C40008A5202F1140207F58A5303F11403043364
:104C500000930B465E490EF0C9FB034607F58C52E4
:104C600002F11402138007F58C5303F11403B3F916
:104C70000030032B65D107F58A5303F11403B3F910
:104C80000030B3F5FA7F52DD07F58A5303F11403C0
:104C9000B3F90030B3F5FA6F49DA07F58A5303F137
:104CA0001603B3F90030002B41DD07F58A5303F1F9
:104CB0001603B3F90030632B39DC07F58A5303F18F
:104CC0001803B3F90030B3F5967F30DD07F58A534A
:104CD00003F11803B3F90030B3F5AF6F27DA07F12A
:104CE0001003013B1B7819466E20FEF7FBFE07F50B
:104CF0008A5303F11403B3F90020344B1A8207F5E9
:104D00008A5303F11603B3F90020304B5A8207F59A
:104D10008A5303F11803B3F900202C4B9A8207F150
:104D20001003013B1B781846FEF7A4FE4BE007F189
:104D30001003013B1B7819460E20FEF77DFE02F0A2
:104D40006BB907F58C5303F11403B3F90030002B52
:104D500031DC07F11003013B1B7819466E20FEF78A
:104D6000C1FE1A4BB3F9102007F11003013B1B7869
:104D700019461046FEF794FF144BB3F9122007F1C1
:104D80001003013B1B7819461046FEF789FF0F4BB5
:104D9000B3F9142007F11003013B1B7819461046A4
:104DA000FEF77EFF07F11003013B1B781846FEF764
:104DB00061FE02F031B907F11003013B1B7819467F
:104DC0000720FEF739FE00BF02F026B99C0700203D
:104DD0007874010807F11003083B1B68981C07F55D
:104DE0008A5303F10C03991C07F58A5202F10C0255
:104DF00007F58A5303F10C03043300930B46C849AB
:104E00000EF0F4FA034607F58C5202F114021380F7
:104E100007F58C5303F11403B3F90030032B65D16C
:104E200007F58A5303F10C03B3F90030B3F5FA7FA9
:104E300052DD07F58A5303F10C03B3F90030B3F5E3
:104E4000FA6F49DA07F58A5303F10E03B3F900301C
:104E5000002B41DD07F58A5303F10E03B3F900304F
:104E6000632B39DC07F58A5303F11003B3F90030E3
:104E7000B3F5967F30DD07F58A5303F11003B3F9DC
:104E80000030B3F5617F27DA07F11003013B1B788F
:104E900019464E20FEF726FE07F58A5303F10C0350
:104EA000B3F900209F4BDA8507F58A5303F10E030F
:104EB000B3F900209B4B1A8607F58A5303F11003C0
:104EC000B3F90020974B5A8607F11003013B1B787A
:104ED0001846FEF7CFFD4BE007F11003013B1B78AE
:104EE00019460E20FEF7A8FD02F096B807F58C5380
:104EF00003F11403B3F90030002B31DC07F1100388
:104F0000013B1B7819464E20FEF7ECFD854BB3F9AB
:104F10002E2007F11003013B1B7819461046FEF7BF
:104F2000BFFE804BB3F9302007F11003013B1B7823
:104F300019461046FEF7B4FE7A4BB3F9322007F15A
:104F40001003013B1B7819461046FEF7A9FE07F136
:104F50001003013B1B781846FEF78CFD02F05CB88D
:104F600007F11003013B1B7819460720FEF764FD8B
:104F700000BF02F051B807F11003083B1B68981CF2
:104F800007F58A5303F10403991C07F58A5202F1CD
:104F9000040207F58A5303F10403043300930B461C
:104FA0005F490EF023FA034607F58C5202F1140212
:104FB000138007F58C5303F11403B3F90030032B6E
:104FC00068D107F58A5303F10403B3F90030B3F550
:104FD000FA7F55DD07F58A5303F10403B3F9003076
:104FE000B3F5FA6F4CDA07F58A5303F10603B3F908
:104FF0000030002B44DD07F58A5303F10603B3F9B3
:105000000030632B3CDC07F58A5303F10803B3F946
:105010000030B3F5967F33DD07F58A5303F10803BB
:10502000B3F90030B3F5617F2ADA07F11003013BD1
:105030001B7819464120FEF755FD07F58A5303F109
:105040000403B3F90020374BA3F8642007F58A5313
:1050500003F10603B3F90020324BA3F8662007F5ED
:105060008A5303F10803B3F900202E4BA3F86820FC
:1050700007F11003013B1B781846FEF7FBFC4BE0E1
:1050800007F11003013B1B7819460E20FEF7D4FCF4
:1050900001F0C2BF07F58C5303F11403B3F90030DC
:1050A000002B31DC07F11003013B1B78194641202E
:1050B000FEF718FD1B4BB3F9642007F11003013B09
:1050C0001B7819461046FEF7EBFD164BB3F9662028
:1050D00007F11003013B1B7819461046FEF7E0FD6F
:1050E000104BB3F9682007F11003013B1B781946F8
:1050F0001046FEF7D5FD07F11003013B1B7818465B
:10510000FEF7B8FC01F088BF07F11003013B1B78E4
:1051100019460720FEF790FC00BF01F07DBF00BFDD
:10512000787401089C07002007F11003083B1B68F6
:10513000023307F58A5202F10202C74918460EF0FF
:1051400055F9034607F58C5202F11402138007F556
:105150008C5303F11403B3F90030012B50D107F540
:105160008A5303F10203B3F90030012B10D007F585
:105170008A5303F10203B3F90030B3F1FF3F07D0C4
:1051800007F58A5303F10203B3F90030002B2DD148
:1051900007F11003013B1B7819467220FEF7A2FCB1
:1051A00007F58A5303F10203B3F9003007EE903A92
:1051B000F8EEE77AA94BC3ED037AA84BD3ED037A57
:1051C000FDEEE77AC7ED017ABB881AB207F110034A
:1051D000013B1B7819461046FEF762FD07F11003EC
:1051E000013B1B781846FEF745FC29E007F1100348
:1051F000013B1B7819460A20FEF71EFC01F00CBF8C
:1052000007F11003013B1B7819467220FEF76AFC78
:10521000924BD3ED037AFDEEE77AC7ED017ABB88B6
:105220001AB207F11003013B1B7819461046FEF72E
:1052300037FD07F11003013B1B781846FEF71AFCF7
:1052400000BF01F0E9BE07F11003083B1B68023301
:1052500007F5895202F11C02814918460EF0C6F882
:10526000034607F58C5202F11402138007F58C53A4
:1052700003F11403B3F90030012B30D107F5895342
:1052800003F11C031B68B3F5FA7F1EDD07F5895394
:1052900003F11C031B68734A934216DC07F11003E9
:1052A000013B1B7819466520FEF71CFC07F5895366
:1052B00003F11C031B68694A536307F11003013BA8
:1052C0001B781846FEF7D6FB22E007F11003013BDE
:1052D0001B7819460E20FEF7AFFB01F09DBE07F1CB
:1052E0001003013B1B7819466520FEF7FBFB5B4B67
:1052F0005A6B07F11003013B1B7819461046FEF765
:1053000043FD07F11003013B1B781846FEF7B2FB83
:1053100000BF01F081BE07F11003083B1B68023398
:1053200007F5895202F11A024B4918460EF05EF851
:10533000034607F58C5202F11402138007F58C53D3
:1053400003F11403B3F90030012B47D107F589535A
:1053500003F11A03B3F90030002B16D107F1100343
:10536000013B1B7819464920FEF7BCFB3B4B002252
:1053700083F82C20FEF7F8FA07F11003013B1B78A5
:105380001846FEF777FB01F047BE07F5895303F196
:105390001A03B3F90030012B16D107F11003013BBA
:1053A0001B7819464920FEF79DFB2C4B012283F800
:1053B0002C20FEF7B5FA07F11003013B1B781846C5
:1053C000FEF758FB01F028BE07F11003013B1B78E4
:1053D00019460E20FEF730FB01F01EBE07F1100348
:1053E000013B1B7819464920FEF77CFB1B4B93F8C9
:1053F0002C301AB207F11003013B1B7819461046F6
:10540000FEF74EFC154B93F82C30002B08D107F11A
:105410001003013B1B7819461348FEF781FB07E098
:1054200007F11003013B1B7819461048FEF778FB83
:1054300007F11003013B1B781846FEF71BFB00BF6A
:1054400001F0EABD07F11003013B1B78184602F09A
:105450003FF801F0E1BD00BF847401089C07002003
:1054600088740108A08601008C740108AC740108DE
:1054700007F11003083B1B68023307F5895202F15C
:105480001802C94918460DF0B1FF034607F58C52C2
:1054900002F11402138007F58C5303F11403B3F9DE
:1054A0000030012B3AD107F5895303F11803B3F902
:1054B0000030022B0FD007F5895303F11803B3F91D
:1054C0000030032B07D007F5895303F11803B3F914
:1054D0000030012B18D107F11003013B1B7819464E
:1054E0006D20FEF7FFFA07F5895303F11803B3F9AE
:1054F0000030DAB2AD4B1A7707F11003013B1B788D
:105500001846FEF7B7FA39E007F11003013B1B78A4
:1055100019460B20FEF790FA01F07EBD07F110034B
:10552000013B1B7819466D20FEF7DCFA9F4B1B7F71
:105530001AB207F11003013B1B7819461046FEF71B
:10554000AFFB07F11003013B1B7819469848FEF7A3
:10555000E7FA964B1B7F184602F002FB024607F162
:105560001003013B1B7819461046FEF7D9FA07F1E4
:105570001003013B1B781846FEF77CFA00BF01F0D0
:105580004BBD07F11003013B1B7819465320FEF772
:10559000A9FA07F11003013B1B781846FEF76AFAD7
:1055A00007F11003013B1B78184602F0ABF801F03D
:1055B00033BD07F11003083B18680DF043FF0346A5
:1055C0000A2B40F20181022307F58D5202F10E02EF
:1055D000138007F58873103B07F58C5202F10C021B
:1055E00013600AE007F58D5303F10E031B880133A6
:1055F00007F58D5202F10E02138007F58D5303F16A
:105600000E031C8807F11003083B18680DF01AFF01
:1056100003469C4214D207F58D5303F10E031B88F9
:10562000B3F5FF7F0CD807F58D5303F10E031A88ED
:1056300007F11003083B1B6813441B78202BD1D0C3
:10564000002307F58D5202F10C0213807AE007F572
:105650008D5303F10E031B885A1C07F58D5101F180
:105660000E010A801A4607F11003083B1B68134419
:105670001B781846FEF7C0FB07F58C5303F10803AF
:10568000186007F58D5303F10E031B885A1C07F5AC
:105690008D5101F10E010A801A4607F11003083BF3
:1056A0001B6813441B781846FEF7A6FB07F58C53BE
:1056B00003F10403186007F58C5303F108031B681A
:1056C000B3F1FF3F34D007F58C5303F104031B689B
:1056D000B3F1FF3F2CD007F58C5303F108031B688F
:1056E000DBB21B01DAB207F58C5303F104031B682C
:1056F000DBB2134407F58C5202F10302137007F575
:105700008D5303F10C031B885A1C07F58D5101F1D1
:105710000C010A801A4607F58C5303F10C031B6831
:10572000134407F58C5202F1030212781A7009E053
:1057300007F11003013B1B7819460E20FEF77CF998
:1057400001F06ABC07F58D5303F10E031C8807F1C5
:105750001003083B18680DF075FE0346013B9C42A0
:105760000FD207F58D5303F10E031B88B3F5FF7FAE
:1057700007D807F58D5303F10C031B887B2B7FF6AD
:1057800066AF07F58D5303F10C031B887B2B11D8F3
:1057900007F11003013B1B7819460E20FEF74CF968
:1057A00000BF01F039BC00BF847401089C070020D1
:1057B000C8740108C34A07F58873103B10461946A0
:1057C0007C231A460CF098FE07F11003013B1B786E
:1057D00019466220FEF786F907F11003013B1B789A
:1057E00019462020FEF7C6F9B64B07F58C5202F198
:1057F0000C021360002307F58D5202F108021360BA
:105800001EE007F58C5303F10C031A6807F58D535E
:1058100003F108031B6813441A7807F11003013BD6
:105820001B7819461046FEF775FA07F58D5303F1FC
:1058300008031B68013307F58D5202F1080213605B
:1058400007F58D5303F108031B687B2BD9D907F1AA
:105850001003013B1B781846FEF70CF901F0DCBB86
:1058600007F11003083B1B68023307F5895202F168
:105870001402954918460DF0B9FD034607F58C5200
:1058800002F11402138007F58C5303F11403B3F9EA
:105890000030012B39D107F5895303F11403D3EDFF
:1058A000007AF5EEC07AF1EE10FA24DD07F589539F
:1058B00003F11403D3ED007AB7EE007AF4EEC77A61
:1058C000F1EE10FA17D807F5895303F114031B689A
:1058D0007C4A936307F11003013B1B78194678203B
:1058E000FEF700F907F11003013B1B781846FEF79D
:1058F000C1F801F091BB07F11003013B1B78194679
:105900000E20FEF799F801F087BB07F11003013B69
:105910001B7819467820FEF7E5F86A4BD3ED0E7A2E
:1059200007F11003013B1B781846B0EE670AFEF73B
:1059300079F907F11003013B1B781846FEF79AF836
:1059400001F06ABB07F11003013B1B78012B27D143
:1059500007F11003013B1B7819464220FEF7C2F8FD
:1059600007F11003013B1B7819465848FEF7D8F899
:10597000FBF758FE0346012B08D107F11003013B4A
:105980001B781846FEF776F801F046BB07F11003C6
:10599000013B1B7819460C20FEF74EF801F03CBB8A
:1059A00007F11003013B1B7819460D20FEF744F860
:1059B00001F032BB07F11003083B1B68981C07F588
:1059C000895303F11003023307F5895202F11002E3
:1059D0003F490DF00BFD034607F58C5202F114020E
:1059E000138007F58C5303F11403B3F90030022B35
:1059F00040D107F5895303F11003B3F90030002BB0
:105A00002EDB07F5895303F11203B3F90030002BA5
:105A100026DB2C4B0022A3F84E2007F5895303F117
:105A20001003B3F90020274BA3F84C2007F5895346
:105A300003F11203B3F90020224BA3F8502007F121
:105A40001003013B1B7819466320FEF74BF807F162
:105A50001003013B1B781846FEF70CF801F0DCBA86
:105A600007F11003013B1B7819460E20FDF7E4FFF8
:105A700001F0D2BA07F11003013B1B7819466320ED
:105A8000FEF730F80F4BB3F94C2007F11003013B40
:105A90001B7819461046FEF703F90A4BB3F950205C
:105AA00007F11003013B1B7819461046FEF7F8F882
:105AB00007F11003013B1B781846FDF7DBFF01F0EF
:105AC000ABBA00BF9C07002024740108CC74010805
:105AD000E474010807F11003013B1B7819464520C7
