:020000040800F2
:100000000000022061940008A19A0008B19A00083B
:10001000C59A0008D99A0008ED9A0008000000006F
:10002000000000000000000000000000019B00082C
:10003000119B000800000000219B0008319B000874
:10004000BB940008BD940008BF940008C194000848
:10005000C3940008C5940008C7940008C994000818
:10006000CB940008CD940008CF940008D1940008E8
:10007000D3940008D5940008D7940008D9940008B8
:10008000DB940008DD940008DF940008E194000888
:10009000E3940008E5940008E7940008E994000858
:1000A000EB940008ED940008EF940008A59B00086D
:1000B000F3940008F5940008F7940008F9940008F8
:1000C000FB940008FD940008FF94000801950008C7
:1000D00003950008419B0008559B0008699B000898
:1000E0000B9500080D9500080F9500081195000864
:1000F0001395000815950008179500081995000834
:100100001B9500081D950008B99B00082195000863
:1001100023950008259500082795000829950008D3
:100120002B9500082D9500082F95000831950008A3
:100130003395000835950008379500083995000873
:100140003B9500083D9500083F950008919B0008ED
:100150004395000845950008479500087D9B0008D9
:100160004B9500084D9500084F95000851950008E3
:1001700053950008559500085795000859950008B3
:100180005B9500085D95000810B5054C237833B9E0
:10019000044B13B10448AFF300800123237010BD5A
:1001A000440200200000000084940108084B10B5B0
:1001B0001BB108490848AFF300800848036803B939
:1001C00010BD074B002BFBD0BDE81040184700BF07
:1001D000000000004802002084940108440200202E
:1001E00000000000154B002B08BF134B9D46A3F5E4
:1001F000803A00218B460F461348144A121A12F017
:1002000044F90F4B002B00D098470E4B002B00D029
:1002100098470020002104000D000D48002802D05E
:100220000C48AFF3008012F0EFF82000290002F034
:1002300053FD12F0D5F800BF0000080000000220B6
:10024000000000000000000044020020783A002076
:10025000000000000000000080B584B000AF7860AE
:100260000B46FB700023FB737B681B7C002B0ED1BD
:100270004FF400730222812178680AF031FC4FF4B8
:1002800000730222012178680AF02AFC0BE0402367
:100290000222812178680AF023FC402302220121F6
:1002A00078680AF01DFC08230322822178680AF08E
:1002B00017FC4FF4077012F0CDF803461A467B681E
:1002C000C3F818227B68D3F81832002B02D101231F
:1002D000FB7326E07B68D3F81832BB607B68D3F8E9
:1002E0001C321B689847BB680022C3F81422BB6805
:1002F0000022C3F818227B681B7C002B09D1BB6845
:10030000D3F804224FF40073012178680AF064FDE9
:1003100007E0BB68D3F804224023012178680AF083
:100320005BFDFB7B18461037BD4680BD80B584B0B1
:1003300000AF78600B46FB700023FB738121786867
:100340000AF00CFC012178680AF008FC8221786828
:100350000AF004FC7B68D3F81832002B0ED07B68BF
:10036000D3F81C325B6898477B68D3F8183218467C
:1003700012F078F87B680022C3F81822FB7B18463D
:100380001037BD4680BD00BF80B584B000AF786037
:1003900039607B68D3F81832FB603B681B7803F048
:1003A0006003002B3AD0202B00D043E03B68DB8871
:1003B000002B29D03B681B785BB2002B11DA7B68DD
:1003C000D3F81C329B683A685078F9683A68D2884A
:1003D0009847F9683B68DB881A46786801F09CF812
:1003E00029E03B685A78FB6883F800223B68DB8889
:1003F000DAB2FB6883F80122F9683B68DB881A46A9
:10040000786801F0B7F816E07B68D3F81C329B6877
:100410003A6850780022396898470CE03B685B786E
:100420000A2B01D00B2B05E001220549786801F069
:1004300073F800BF00BF002318461037BD4680BDCB
:100440006002002080B485B000AF78600B46FB707E
:100450007B68D3F81832FB607B68D3F81832002B26
:1004600005D0FB680022C3F81422002300E0022319
:1004700018461437BD465DF8047B704780B584B0DC
:1004800000AF78600B46FB707B68D3F81832FB60D6
:10049000FB78194678680AF0D9FC0246FB68C3F875
:1004A0000C227B68D3F81832002B0DD07B68D3F870
:1004B0001C32DB68FA68D2F80402FA6802F50372AB
:1004C00011469847002300E0022318461037BD4626
:1004D00080BD00BF80B584B000AF78607B68D3F882
:1004E0001832FB607B68D3F81C32002B15D0FB68F8
:1004F00093F80032FF2B10D07B68D3F81C329B6836
:10050000FA6892F80002F968FA6892F8012292B249
:100510009847FB68FF2283F8002200231846103713
:10052000BD4680BD80B483B000AF78607B68432255
:100530001A80034B18460C37BD465DF8047B7047A4
:100540008800002080B483B000AF78607B684322CD
:100550001A80034B18460C37BD465DF8047B704784
:100560004400002080B483B000AF78607B684322F1
:100570001A80034B18460C37BD465DF8047B704764
:10058000CC00002080B483B000AF78607B680A2282
:100590001A80034B18460C37BD465DF8047B704744
:1005A0000000002080B485B000AF7860396002237D
:1005B000FB733B68002B05D07B683A68C3F81C22AC
:1005C0000023FB73FB7B18461437BD465DF8047BA4
:1005D000704700BF80B487B000AFF860B9601346C1
:1005E000FB80FB68D3F818327B617B69BA68C3F87B
:1005F0000822FA887B69C3F81022002318461C37AA
:10060000BD465DF8047B704780B485B000AF78606C
:1006100039607B68D3F81832FB60FB683A68C3F82E
:100620000422002318461437BD465DF8047B70474A
:1006300080B584B000AF78607B68D3F81832FB6077
:100640007B68D3F81832002B17D0FB68D3F814322C
:10065000002B10D1FB680122C3F81422FB68D3F8E9
:100660000822FB68D3F810329BB2812178680AF027
:1006700079FB002302E0012300E002231846103733
:10068000BD4680BD80B584B000AF78607B68D3F88C
:100690001832FB607B68D3F81832002B17D07B68C8
:1006A0001B7C002B09D1FB68D3F804224FF40073A4
:1006B000012178680AF090FB07E0FB68D3F8042278
:1006C0004023012178680AF087FB002300E0022321
:1006D00018461037BD4680BD80B584B000AFF860C5
:1006E000B9601346FB71FB68002B01D102231AE0AD
:1006F000FB68D3F81432002B03D0FB680022C3F848
:100700001422BB68002B03D0FB68BA68C3F8102220
:10071000FB68012283F8FC21FB68FA791A70F868FB
:100720000AF0F4F8002318461037BD4680BD00BF1C
:1007300080B582B000AF78607B68012283F8FC212D
:100740007B68D3F814325B687A685268D2B211467B
:100750007868984778680AF091F978680AF02AF979
:10076000002318460837BD4680BD00BF80B485B061
:1007700000AF786039600023FB733B68002B06D024
:100780007B683A68C3F814220023FB7301E002235C
:10079000FB73FB7B18461437BD465DF8047B70473E
:1007A00080B582B000AF786078680AF035F9002330
:1007B00018460837BD4680BD80B582B000AF78606E
:1007C0007B68D3F814325B687A685268D2B21146FB
:1007D0007868984778680AF051F900231846083776
:1007E000BD4680BD80B483B000AF7860002318465A
:1007F0000C37BD465DF8047B704700BF80B584B000
:1008000000AF78600B46FB700223FB737B68D3F864
:100810001432002B0CD07B68D3F814321B68FA78A2
:100820001146786898470346002B01D10023FB73DB
:10083000FB7B18461037BD4680BD00BF80B582B037
:1008400000AF78600B46FB707B68D3F814325B68AE
:10085000FA78114678689847002318460837BD464D
:1008600080BD00BF80B582B000AF786039607B6822
:1008700003F502733968184600F0A2FD7B68012277
:10088000C3F8F4217B68B3F80E321A467B68C3F8CC
:10089000F8217B6893F8083203F01F03012B0BD07B
:1008A000022B11D0002B17D17B6803F50273194678
:1008B000786800F0CFF91AE07B6803F502731946F7
:1008C000786800F017FA12E07B6803F502731946A6
:1008D000786800F043FA0AE07B6893F8083223F066
:1008E0007F03DBB2194678680AF06EF900BF002377
:1008F00018460837BD4680BD80B586B000AFF860A9
:100900000B467A60FB72FB7A002B38D1FB6803F54B
:1009100082737B61FB68D3F8F431032B42D17B698E
:100920009A687B69DB689A4214D97B699A687B690B
:10093000DB68D21A7B699A607B69DA687B699B689D
:10094000934228BF13469BB21A467968F86800F0B4
:100950002FFE27E0FB68D3F814321B69002B0AD066
:10096000FB6893F8FC31032B05D1FB68D3F81432F4
:100970001B69F8689847F86800F02CFE12E0FB68E5
:10098000D3F814329B69002B0CD0FB6893F8FC3130
:10099000032B07D1FB68D3F814329B69FA7A11460E
:1009A000F8689847002318461837BD4680BD00BF39
:1009B00080B586B000AFF8600B467A60FB72FB7AB8
:1009C000002B6CD1FB6814337B61FB68D3F8F431E6
:1009D000022B57D17B699A687B69DB689A4215D9EB
:1009E0007B699A687B69DB68D21A7B699A607B694C
:1009F0009B689BB21A467968F86800F0A9FD00234D
:100A000000220021F8680AF0E7F93BE07B695B68A7
:100A10007A69D268B3FBF2F102FB01F29B1A002B58
:100A20001CD17B695A687B69DB689A4216D37B6963
:100A30005A68FB68D3F8F8319A420FD2002200219D
:100A4000F86800F085FDFB680022C3F8F821002358
:100A500000220021F8680AF0BFF913E0FB68D3F820
:100A60001432DB68002B0AD0FB6893F8FC31032BAF
:100A700005D1FB68D3F81432DB68F8689847F8684A
:100A800000F0BCFDFB6893F80032012B1AD1F86826
:100A9000FFF7A8FEFB68002283F8002212E0FB6843
:100AA000D3F814325B69002B0CD0FB6893F8FC314F
:100AB000032B07D1FB68D3F814325B69FA7A11462D
:100AC000F8689847002318461837BD4680BD00BF18
:100AD00080B582B000AF78604023002200217868A2
:100AE00009F0FEFF7B684022C3F81021402300225A
:100AF0008021786809F0F4FF7B6840221A627B68E5
:100B0000012283F8FC217B68D3F81832002B09D02E
:100B10007B68D3F814325B687A685268D2B21146A7
:100B200078689847002318460837BD4680BD00BF47
:100B300080B483B000AF78600B46FB707B68FA78B6
:100B40001A74002318460C37BD465DF8047B7047C5
:100B500080B483B000AF78607B6893F8FC217B6839
:100B600083F8FD217B68042283F8FC2100231846CA
:100B70000C37BD465DF8047B704700BF80B483B07E
:100B800000AF78607B6893F8FD217B6883F8FC21D7
:100B9000002318460C37BD465DF8047B704700BF44
:100BA00080B582B000AF78607B6893F8FC31032B8E
:100BB0000BD17B68D3F81432DB69002B05D07B683E
:100BC000D3F81432DB697868984700231846083751
:100BD000BD4680BD80B483B000AF78600B46FB702B
:100BE000002318460C37BD465DF8047B704700BFF4
:100BF00080B483B000AF78600B46FB7000231846CA
:100C00000C37BD465DF8047B704700BF80B483B0ED
:100C100000AF7860002318460C37BD465DF8047BB2
:100C2000704700BF80B582B000AF78607B6801225A
:100C300083F8FC217B68D3F814325B687A685268C9
:100C4000D2B2114678689847002318460837BD4647
:100C500080BD00BF80B584B000AF786039600023EC
:100C6000FB733B685B78092B39D801A252F823F05B
:100C7000C10C0008D50C0008DF0C0008CB0C0008E4
:100C8000DF0C0008A30C0008990C0008DF0C00081A
:100C9000B70C0008AD0C00083968786800F036F928
:100CA00022E03968786800F025FA1DE03968786834
:100CB00000F05EFA18E03968786800F0E1FA13E0B5
:100CC0003968786800F00EFB0EE03968786800F04B
:100CD00033FB09E03968786800F04AFB04E03968C2
:100CE000786800F0ABFB00BFFB7B18461037BD46B1
:100CF00080BD00BF80B584B000AF7860396000234C
:100D0000FB737B6893F8FC31032B1BD13B689B88FA
:100D1000DBB2012B11D87B68D3F814329B68396899
:100D2000786898473B68DB88002B10D1FB7B002B51
:100D30000DD1786800F04EFC09E03968786800F061
:100D40007DFB04E03968786800F078FB00E000BFC4
:100D5000002318461037BD4680BD00BF80B584B063
:100D600000AF786039600023FB733B689B88BB73DE
:100D70003B681B7803F06003202B08D17B68D3F815
:100D800014329B683968786898470023BAE03B685A
:100D90005B78012B39D0032B02D0002B6BD0B0E055
:100DA0007B6893F8FC31022B02D0032B0CD025E09A
:100DB000BB7B002B27D0BB7B802B24D0BB7B194671
:100DC000786809F001FF1EE03B685B88002B0AD1C0
:100DD000BB7B002B07D0BB7B802B04D0BB7B194691
:100DE000786809F0F1FE7B68D3F814329B683968A3
:100DF00078689847786800F0EDFB05E03968786816
:100E000000F01CFB00E000BF7BE07B6893F8FC3146
:100E1000022B02D0032B0CD024E0BB7B002B26D06E
:100E2000BB7B802B23D0BB7B1946786809F0CCFEB6
:100E30001DE03B685B88002B1BD1BB7B03F07F036D
:100E4000002B0BD0BB7B1946786809F0F3FE7B685A
:100E5000D3F814329B68396878689847786800F04E
:100E6000B9FB06E03968786800F0E8FA02E000BFF4
:100E700047E000BF45E07B6893F8FC31022B02D0CD
:100E8000032B0BD036E0BB7B03F07F03002B36D067
:100E9000BB7B1946786809F097FE30E097F90E3071
:100EA000002B08DABB7B03F07F0301331B017A6858
:100EB0001344043307E0BB7B03F07F0310331B01B3
:100EC0007A6813440433BB60BB7B1946786809F029
:100ED000E7FE0346002B03D0BB6801221A6002E044
:100EE000BB6800221A60BB6802221946786800F0CD
:100EF00013FB05E03968786800F0A0FA00E000BF55
:100F000000BFFB7B18461037BD4680BD80B584B05E
:100F100000AF786039603B685B881B0A9BB2013B7D
:100F2000062B00F2C98001A252F823F0490F0008F5
:100F3000610F0008A10F0008B9100008B9100008DF
:100F4000651000088B1000087B68D3F810321B680E
:100F50007A68127C07F10A0110469847F860B0E001
:100F60007B681B7C002B0DD17B68D3F814329B6A05
:100F700007F10A0210469847F860FB680133022225
:100F80001A709EE07B68D3F81432DB6A07F10A021C
:100F900010469847F860FB68013302221A7090E00F
:100FA0003B685B88DBB2052B56D801A252F823F0D0
:100FB000C90F0008E10F0008F90F00081110000820
:100FC00029100008411000087B68D3F810325B68D4
:100FD0007A68127C07F10A0110469847F86040E0F1
:100FE0007B68D3F810329B687A68127C07F10A019B
:100FF00010469847F86034E07B68D3F81032DB681D
:101000007A68127C07F10A0110469847F86028E0D8
:101010007B68D3F810321B697A68127C07F10A01E9
:1010200010469847F8601CE07B68D3F810325B6983
:101030007A68127C07F10A0110469847F86010E0C0
:101040007B68D3F810329B697A68127C07F10A0139
:1010500010469847F86004E03968786800F0EEF9C7
:1010600044E02EE07B681B7C002B09D17B68D3F821
:1010700014325B6B07F10A0210469847F86020E0D3
:101080003968786800F0DAF930E07B681B7C002B67
:101090000DD17B68D3F814321B6B07F10A0210469E
:1010A0009847F860FB68013307221A7009E0396835
:1010B000786800F0C3F919E03968786800F0BEF983
:1010C00014E07B89002B11D03B68DB88002B0DD00E
:1010D0003B68DA887B89934228BF13469BB27B81A9
:1010E0007B891A46F968786800F016FA1037BD4611
:1010F00080BD00BF80B584B000AF786039603B68C8
:101100009B88002B2CD13B68DB88002B28D13B68C7
:101110005B88DBB203F07F03FB737B6893F8FC31E1
:10112000032B04D13968786800F088F91CE07B68EB
:10113000FA7B83F8FE21FB7B1946786809F0DCFD19
:10114000786800F047FAFB7B002B04D07B68022212
:1011500083F8FC2108E07B68012283F8FC2103E08E
:101160003968786800F06AF900BF1037BD4680BD65
:1011700080B582B000AF786039603B685B88DAB2D6
:101180003E4B1A703D4B1B78012B04D939687868A7
:1011900000F054F96FE07B6893F8FC31022B02D029
:1011A000032B23D062E0354B1B78002B1AD0334B36
:1011B0001B781A467B685A607B68032283F8FC21FF
:1011C0002E4B1B7819467868FFF718FB0346022B55
:1011D00004D13968786800F031F94CE0786800F0A3
:1011E000F9F948E0786800F0F5F944E0234B1B7802
:1011F000002B12D17B68022283F8FC211F4B1B7845
:101200001A467B685A601D4B1B7819467868FFF7B1
:1012100015FB786800F0DEF92DE0184B1B781A46B4
:101220007B685B689A421DD07B685B68DBB21946BD
:101230007868FFF703FB114B1B781A467B685A60EE
:101240000E4B1B7819467868FFF7D8FA0346022B35
:1012500004D13968786800F0F1F80CE0786800F0A3
:10126000B9F908E0786800F0B5F904E03968786801
:1012700000F0E4F800BF0837BD4680BD61020020E1
:1012800080B582B000AF786039603B68DB88012BA5
:1012900004D03968786800F0D1F81FE07B6893F8D3
:1012A000FC31022B02D0032B0BD012E07B68002212
:1012B0009A607B68083301221946786800F02CF99F
:1012C0000CE07B68043301221946786800F024F9A9
:1012D00004E03968786800F0B1F800BF00BF083753
:1012E000BD4680BD80B582B000AF786039607B6854
:1012F00093F8FC31023B012B15D87B680122DA60A0
:101300007B68D3F80432002B05D07B68DB6843F0A0
:1013100002027B68DA607B680C3302221946786827
:1013200000F0FAF804E03968786800F087F800BF48
:1013300000BF0837BD4680BD80B582B000AF786081
:1013400039603B685B88012B0DD17B680122C3F8B3
:1013500004227B68D3F814329B6839687868984710
:10136000786800F037F900BF0837BD4680BD00BF80
:1013700080B582B000AF786039607B6893F8FC314B
:10138000023B012B12D83B685B88012B13D17B6891
:101390000022C3F804227B68D3F814329B683968B2
:1013A00078689847786800F015F904E0396878683B
:1013B00000F044F800E000BF00BF0837BD4680BD24
:1013C00080B483B000AF786039603B681A787B687E
:1013D0001A703B685A787B685A703B6802331B78F6
:1013E0009AB23B6803331B789BB21B029BB2134437
:1013F0009AB27B685A803B6804331B789AB23B6888
:1014000005331B789BB21B029BB213449AB27B68D4
:101410009A803B6806331B789AB23B6807331B7887
:101420009BB21B029BB213449AB27B68DA8000BF66
:101430000C37BD465DF8047B704700BF80B582B0B5
:1014400000AF786039608021786809F0BDFB002129
:10145000786809F0B9FB00BF0837BD4680BD00BF02
:1014600080B586B000AFF860B9607A600023FB7584
:10147000FB68002B33D0F86800F036F803460133E0
:101480009BB25B009AB27B681A80FB7D5A1CFA758E
:101490001A46BB6813447A681288D2B21A70FB7D70
:1014A0005A1CFA751A46BB68134403221A7012E0DC
:1014B000FB7D5A1CFA751A46BB681A44FB68591C16
:1014C000F9601B781370FB7D5A1CFA751A46BB68CD
:1014D000134400221A70FB681B78002BE8D100BF70
:1014E0001837BD4680BD00BF80B485B000AF7860BE
:1014F0000023FB7305E0FB7B0133FB737B68013347
:101500007B607B681B78002BF5D1FB7B184614377A
:10151000BD465DF8047B704780B584B000AFF860CD
:10152000B9601346FB80FB680222C3F8F421FA88F5
:10153000FB689A61FA88FB68DA61FB88BA68002167
:10154000F86809F00FFC002318461037BD4680BD2F
:1015500080B584B000AFF860B9601346FB80FB88AB
:10156000BA680021F86809F0FDFB0023184610371F
:10157000BD4680BD80B584B000AFF860B960134649
:10158000FB80FB680322C3F8F421FA88FB68C3F8E8
:101590000821FA88FB68C3F80C21FB88BA6800218F
:1015A000F86809F019FC002318461037BD4680BDC5
:1015B00080B584B000AFF860B9601346FB80FB884B
:1015C000BA680021F86809F007FC002318461037B4
:1015D000BD4680BD80B582B000AF78607B680422D4
:1015E000C3F8F421002300220021786809F0BAFB37
:1015F000002318460837BD4680BD00BF80B582B0C5
:1016000000AF78607B680522C3F8F4210023002234
:101610000021786809F0E0FB002318460837BD4632
:1016200080BD00BFB0B58CB000AF002387F8233079
:10163000764B3C1D1D460FCD0FC495E8070084E88E
:101640000700002387F82F30002387F82E303DE075
:10165000012007F02DFB01216D4807F053FA97F8A0
:101660002F309B0007F13002134453F82C3C01212A
:10167000184607F057FA0121664807F0C7FA97F8AD
:101680002F309B0007F13002134453F82C3C1846CE
:1016900000F042F90021604807F034FA07F1230214
:1016A00007F124031146184600F0CEF807F1230293
:1016B00007F124031146184600F012F90346002BE7
:1016C00009D197F82F30013387F82F3097F82F3052
:1016D000062BBDD900E000BF97F82F30072B00F094
:1016E0008C80012007F0E4FA01214C4807F00AFA47
:1016F00097F82F309B0007F13002134453F82C3C2D
:101700000121184607F00EFA0121424807F07EFA3F
:1017100097F82F30042B26D00121414807F076FAA4
:101720000021404807F0EEF907F1230207F12403F6
:101730001146184600F088F84FF4164000F0ECF817
:1017400007F1230207F124031146184600F0C8F8F8
:101750000346002B04D00121334807F057FA02E07A
:10176000012387F82E3097F82E30002B45D1012029
:1017700007F09EFA01212D4807F048FA00212C4875
:1017800007F0C0F907F1230207F1240311461846B8
:1017900000F05AF807F1230207F124031146184616
:1017A00000F09EF80346002B27D00121214807F0C6
:1017B0002DFA012007F07CFA01211F4807F026FAD4
:1017C00000211E4807F09EF907F1230207F12403C8
:1017D0001146184600F038F807F1230207F12403F8
:1017E0001146184600F07CF80346002B05D0012175
:1017F000134807F00BFA012304E00121114807F018
:1018000005FA002318463037BD46B0BD146B0108F9
:1018100034690108646901086C690108706901088C
:10182000A0690108D4690108E0690108FC690108A0
:10183000386A0108486A01086C6A0108AC6A010844
:10184000B86A0108E46A010880B586B000AF786024
:10185000396009F015FF38613B6800221A701F4B90
:10186000DB8DFB8229E008F0BDFE1C4BDB8D9BB2BB
:10187000FA8A9A4221D0194B996A184B9A8DFB8AA1
:10188000B3FBF2F002FB00F29B1A9BB20B441B78F5
:10189000FB733B681B78092B0CD83B681B781A46F6
:1018A0007B681344FA7B1A703B681B780133DAB209
:1018B0003B681A70FB8A0133FB8209F0E1FE0246A5
:1018C0003B69D31A40F6B7329342CCD9012007F0D6
:1018D000EFF900BF1837BD4680BD00BF00030020F0
:1018E00080B483B000AF786039603B681B78012B0F
:1018F0000AD97B681B784F2B06D17B6801331B7894
:101900004B2B01D1012300E0002318460C37BD46C4
:101910005DF8047B704700BF80B582B000AF78608F
:10192000084A7B68536007480EF080F80346002B96
:1019300003D00121044807F069F900BF0837BD460C
:1019400080BD00BF00030020306B010880B400AFF1
:10195000044B1B680133034A136000BFBD465DF8AA
:10196000047B70476402002080B400AF094B1A6802
:10197000094BA3FB02131B09322101FB03F3D31A0A
:10198000002B0CBF01230023DBB21846BD465DF8D7
:10199000047B7047640200201F85EB5180B400AFC8
:1019A0000A4B19680A4BA3FB0123DA0813469B0074
:1019B00013445B00CA1A002A0CBF01230023DBB2C8
:1019C0001846BD465DF8047B704700BF64020020E6
:1019D000CDCCCCCC80B500AF09F052FE02460E4B08
:1019E0001B68D31AB3F5FA6F02D9DFED0C7A10E059
:1019F0000B4B1B68002B02D1DFED087A09E0084B86
:101A00001B6807EE903AB8EE677ADFED066AC6EE1D
:101A1000877AB0EE670A80BD7002002000000000E7
:101A20006C0200200000A04280B400AF044B1B6891
:101A300007EE903AB0EE670ABD465DF8047B70474A
:101A40007402002080B400AF044B1B6807EE903A8C
:101A5000B0EE670ABD465DF8047B7047680200205F
:101A600080B483B000AF114B5B6A7B60104BD3ED49
:101A7000037AF5EE407AF1EE10FA05D17B6807EEB5
:101A8000903AF8EEE77A09E07B6807EE903AB8EE14
:101A9000E77A074BD3ED037A67EE277AB0EE670A51
:101AA0000C37BD465DF8047B704700BF000C00405A
:101AB000A007002080B400AF044B022283F851201D
:101AC00000BFBD465DF8047B704700BF1C080020C6
:101AD00080B483B000AF87ED010AD7ED017AF5EE4F
:101AE000C07AF1EE10FA04D5D7ED017AF1EE677AFB
:101AF00001E0D7ED017AB0EE670A0C37BD465DF81C
:101B0000047B704780B500AF044BDB7D184606F0C0
:101B100017FDF0EE407AB0EE670A80BDA007002006
:101B200080B500AF044B1B7E184606F009FDF0EEB1
:101B3000407AB0EE670A80BDA007002080B500AFF4
:101B4000044B5B7E184606F093FDF0EE407AB0EE53
:101B5000670A80BDA007002080B500AF044B9B7EC4
:101B6000184606F085FDF0EE407AB0EE670A80BDBB
:101B7000A007002080B500AF044BDB7E184606F0BE
:101B8000DFFCF0EE407AB0EE670A80BDA0070020CF
:101B900080B500AF054B93F85630184606F0D0FCE0
:101BA000F0EE407AB0EE670A80BD00BFA0070020CB
:101BB00080B500AF054B93F85230184606F0C0FCD4
:101BC000F0EE407AB0EE670A80BD00BFA0070020AB
:101BD00080B584B000AF9C4B9B7D184606F0B0FCEE
:101BE00087ED030A97ED037AD7ED037AB4EE677AAF
:101BF000F1EE10FA02D74FF000031EE1934B93F879
:101C00005130022B04D0914B93F85130032B2FD13C
:101C1000D7ED037AF5EE407AF1EE10FA28D08B4B2F
:101C200093F85130022B20D10221894806F06AFF37
:101C3000022097ED030A06F08FFF0221854806F087
:101C400061FFD7ED037AFDEEE77AC7ED017ABB8835
:101C50001BB20221184606F01DFF02217E4806F045
:101C600051FF7A4B032283F851204FF00003E4E048
:101C7000FFF7F6FE87ED020A744B93F85830012BFC
:101C800040F0DA80714B93F85130002B08D06F4B45
:101C9000022283F858200221704806F0B7FFCBE0FB
:101CA000694B1B7F032B08D0684B022283F8582016
:101CB00002216B4806F0AAFFBEE0D7ED037AF5EEED
:101CC000407AF1EE10FA08D0604B022283F85820D7
:101CD0000221644806F09AFFAEE0634BD3ED037A2D
:101CE0009FED627AF4EE477AF1EE10FA08D1574B85
:101CF000022283F8582002215D4806F087FF9BE00E
:101D0000594BD3ED047A9FED5B7AF4EE477AF1EE0E
:101D100010FA08D14D4B022283F858200221564870
:101D200006F074FF88E0484BD3ED037AF5EE407A75
:101D3000F1EE10FA08D1454B022283F85820022117
:101D40004E4806F063FF77E009F09AFC02463F4BED
:101D5000DB6DD31AB3F5FA6F6ED23C4B93F9593061
:101D6000002B1BD1404BD3ED037A97ED027A37EE6F
:101D7000677A3D4BD3ED046AD7ED027A76EEE77AC7
:101D8000B4EEE77AF1EE10FA04D5304B012283F875
:101D9000592003E02D4BFF2283F8592009F070FCF5
:101DA00002462A4B1B6ED31A41F28732934203D864
:101DB0004FF00003FB603FE0244B93F95930012BB7
:101DC0001BD1294BD3ED047A9FED2D7A37EEC77ADC
:101DD000D7ED027AB4EEE77AF1EE10FA03DD1A4B92
:101DE0001B6CFB6028E009F04BFC0246174B1A669F
:101DF000164BFF2283F859201EE01B4BD3ED037ACC
:101E00009FED1F7A37EE877AD7ED027AB4EEE77A44
:101E1000F1EE10FA07D50C4BD3ED107AF1EE677A9C
:101E2000C7ED037A08E009F02BFC0246074B1A665F
:101E3000064B012283F85920FB6807EE903AB0EE7A
:101E4000670A1037BD4680BDA00700201C0800208F
:101E5000746B0108946B0108AC6B0108006C0108FD
:101E6000446C0108746C010888070020000000CF52
:101E70009C6C01080000004FBC6C0108E06C01087C
:101E80000000304280B592B000AF87ED010AFFF745
:101E90009FFE87ED0E0AFFF7E3FD87ED0D0AC94BA4
:101EA000D3ED0E7AB7EE007A37EE677AD7ED0E7A79
:101EB00027EE277AD7ED0E7A27EE277AD7ED0E7A1E
:101EC00027EE277ABF4BD3ED0E6AD7ED0E7A66EE7A
:101ED000A77A77EE277AC7ED117ABA4B1B7F012BD1
:101EE00000F0FB81B84B5B6E3B63B84BD3ED007ADF
:101EF00097ED117A77EE677AC7ED0B7A97ED0B7A4B
:101F0000D7ED0C7AB4EEE77AF1EE10FA0ADCD7EDF1
:101F10000C7AB1EE677AD7ED0B7AB4EEE77AF1EE90
:101F200010FA04DDA84B012283F8542003E0A64BED
:101F3000002283F8542097ED0B7AD7ED0C7AB4EE9B
:101F4000E77AF1EE10FA09DDA04B93ED007AD7EDB8
:101F50000C7A77EE277AC7ED117A13E0D7ED0C7A79
:101F6000B1EE677AD7ED0B7AB4EEE77AF1EE10FABC
:101F700008DD964B93ED007AD7ED0C7A77EE677A11
:101F8000C7ED117A904B93F85130002B40F0A581AA
:101F90008C4B1B7F012B00F0A0818A4B1B7F022BF7
:101FA00000F09B818A4B93ED037A894BD3ED047A41
:101FB000B4EEE77AF1EE10FA09DD854BDB68BB621F
:101FC000834B1B69824AD360814ABB6A136197EDD8
:101FD0000D7AD7ED017A37EE277A7D4BD3ED047A6F
:101FE000B4EEE77AF1EE10FA16D597ED0D7AD7ED4B
:101FF000017A37EE677A764BD3ED037AB4EEE77A5F
:10200000F1EE10FA08DD704B002283F856206E4B7B
:10201000002283F8572060E197ED0D7AD7ED017A21
:1020200037EE277A6A4BD3ED047AB4EEE77AF1EE15
:1020300010FAC0F29980D7ED117AF5EEC07AF1EE80
:1020400010FA40F3848000221021624809F058FF02
:102050005F4B93ED047AD7ED0D7AB4EEE77AF1EEAB
:1020600010FA06D8594B4FF000021A60574B1B6804
:10207000B0E3564B93ED007AD7ED0C7A77EE677AA2
:10208000C7ED117AD7ED117AF5EEC07AF1EE10FABC
:1020900002D54FF000037B644B4B93F8563083F02E
:1020A0000103DBB2002B18D002214B4806F02AFDB9
:1020B000474B93ED047AD7ED0D7A77EE677A0220DD
:1020C000B0EE670A06F048FD0221444806F01AFD0A
:1020D000022097ED010A06F0ADFD3B4B012283F88B
:1020E0005620384BD3ED087AF5EE407AF1EE10FA2F
:1020F0003AD097ED0D7AD7ED017A37EE277A344B47
:10210000D3ED046A2F4BD3ED087A76EEA77AB4EEBE
:10211000E77AF1EE10FA27DB2B4B93F8573083F078
:102120000103DBB2002B03D002212D4806F06EFD27
:10213000254B012283F8572000221021254809F061
:10214000DFFE224A7B6C13604FF0000342E31E4B1C
:10215000002283F856201C4B002283F857200122CE
:1021600010211C4809F0CCFE97ED0D7AD7ED017ACD
:1021700037EE677A164BD3ED037AB4EEE77AF1EED9
:1021800010FA00F2AA80D7ED117AF5EEC07AF1EEDE
:1021900010FA40F19580002210210E4809F0B0FE9F
:1021A0000B4B93ED037AD7ED0D7AB4EEE77AF1EEAF
:1021B00010FA17DB054B4FF000021A604FF00003D6
:1021C00008E300BFA00700201C08002068020020D0
:1021D0008807002000040240106D0108306D0108DE
:1021E000506D0108B64B93ED007AD7ED0C7A77EE7F
:1021F000277AC7ED117AD7ED117AF5EEC07AF1EEB4
:1022000010FA02DD4FF000037B64AE4B93F85630BA
:1022100083F00103DBB2002B18D00221AA4806F09C
:1022200071FCAA4BD3ED037A97ED0D7A77EE677ABE
:102230000220B0EE670A06F08FFC0221A44806F0E7
:1022400061FC022097ED010A06F0F4FC9D4B01228F
:1022500083F856209F4BD3ED087AF5EE407AF1EEE5
:1022600010FA3AD097ED0D7AD7ED017A37EE677A0A
:10227000964BD3ED036A974BD3ED087A76EEE77A67
:10228000B4EEE77AF1EE10FA27D88E4B93F8573078
:1022900083F00103DBB2002B03D002218E4806F04D
:1022A000B5FC884B012283F85720002210218B486F
:1022B00009F026FE824A7B6C13604FF0000389E22E
:1022C000804B002283F856207E4B002283F8572053
:1022D00001221021814809F013FE794A7B6C1360BA
:1022E000FFF710FCB0EE407ADFED7D7AB4EEE77ACE
:1022F000F1EE10FA0DDD734B93F85130002B03D043
:102300000221784806F082FC6E4B002283F85120AF
:1023100019E06C4B93F85130012B06D0724B002220
:102320001A700221714806F071FC664B012283F895
:1023300051206F4B93ED007AD7ED117A77EE277A23
:102340006B4BC3ED007AFFF7EBFB87ED090AD7ED86
:10235000097A9FED637AF4EEC77AF1EE10FA40F352
:102360007181584B93F85130012B40F06B81614BD8
:10237000D3ED007A9FED5A7AF4EEC77AF1EE10FAB7
:1023800000F260815B4BD3ED007AF4EE677AF1EEF8
:1023900010FA80F15781544B1B78002B0ED14B4A19
:1023A0007B6BD360504B01221A700221524806F019
:1023B0002DFC4F4B4FF000021A6043E1434A7B6B08
:1023C00013614B4BD3ED007AB8EE087AF4EEC77A7E
:1023D000F1EE10FA0EDD464BD3ED007AB0EE087A3E
:1023E000F4EEC77AF1EE10FA04D50221434806F064
:1023F0000DFC27E10221424806F008FC354BD3EDE5
:10240000037AF5EE407AF1EE10FA40F085802F4B1A
:1024100093ED037A2D4BD3ED047AB4EEE77AF1EE27
:1024200010FA07D5324BD3ED007AF5EEC07AF1EE13
:1024300010FA12DC254B93ED037A244BD3ED047A8A
:10244000B4EEE77AF1EE10FA10DD294BD3ED007A05
:10245000F5EEC07AF1EE10FA08D51E4B4FF07E5221
:10246000DA600221274806F0D1FB16E0194B264A14
:10247000DA60164BD3ED037AF1EE677A134BC3EDB6
:10248000037A124BD3ED047AF1EE677A0F4BC3ED6A
:10249000047A02211D4806F0B9FB02211C4806F00F
:1024A000B5FB00227C210B4800F016FB38623B6A2A
:1024B000002B00F095800221164806F0A7FB8FE064
:1024C000680200201C080020106D01088807002009
:1024D000306D0108A0070020506D01080004024083
:1024E000CDCC4C3F646D010880020020806D010856
:1024F0007802002084020020A46D0108B06D01085C
:10250000086E0108146E0108000080BF506E0108BB
:102510008C6E0108CC6E0108B24B93ED037AB14B7F
:10252000D3ED047AB4EEE77AF1EE10FA07D5AE4BAC
:10253000D3ED007AF5EEC07AF1EE10FA12DCA94B79
:1025400093ED037AA74BD3ED047AB4EEE77AF1EE7C
:1025500010FA11DDA44BD3ED007AF5EEC07AF1EE5E
:1025600010FA09D5A14BD3ED037ABFEE007AF4EE51
:10257000477AF1EE10FA2FD09A4B93ED037A994BEC
:10258000D3ED047AB4EEE77AF1EE10FA07DD964B5C
:10259000D3ED007AF5EEC07AF1EE10FA12D4914B39
:1025A00093ED037A8F4BD3ED047AB4EEE77AF1EE34
:1025B00010FA15D58C4BD3ED007AF5EEC07AF1EE1A
:1025C00010FA0DDD894BD3ED037AB7EE007AF4EE05
:1025D000477AF1EE10FA03D10221854806F016FB86
:1025E0000221844806F08EFA7E4BD3ED037A022056
:1025F000B0EE670A06F0B0FA02217F4806F082FAD0
:10260000784BD3ED047A0220B0EE670A06F012FB95
:10261000744B93ED037A734BD3ED047AB4EEE77AFF
:10262000F1EE10FA09DD6F4BDB68FB616D4B1B6946
:102630006C4AD3606B4AFB69136103221821694815
:1026400000F09EFA6D4A7B6A13606D4B93F851302F
:10265000002B06D0654B5B6C3B64644B9B6CFB634F
:1026600005E0624BDB6B3B64604B1B6CFB63FFF76D
:1026700065FA87ED060A97ED067AD7ED067AB4EE8D
:10268000677AF1EE10FA19D6D7ED067AB7EE007A2E
:1026900077EE877AF0EE006A87EEA67AD7ED107AA9
:1026A000DFED586A77EEE67A67EE277A9FED557A86
:1026B00077EE877A524BC3ED197A02E0504A3B6CB1
:1026C0005366FFF749FA87ED050A97ED057AD7EDCE
:1026D000057AB4EE677AF1EE10FA19D6D7ED057ADD
:1026E000B7EE007A77EE877AF0EE006A87EEA67A88
:1026F000D7ED0F7ADFED446A77EEE67A67EE277A58
:102700009FED417A77EE877A3D4BC3ED1A7A02E06E
:102710003B4AFB6B9366FFF72DFA87ED040A97EDB2
:10272000047AD7ED047AB4EE677AF1EE10FA2CD67B
:10273000D7ED047AF5EEC07AF1EE10FA03D52B4B03
:1027400001221A770DE0D7ED047AF5EEC07AF1EEAA
:1027500010FA03DD254B03221A7702E0234B0222F5
:102760001A77224B1A7F294B1B789A420DD01F4BA8
:102770001A7F264B1A701D4B1B7F184605F0C2F9B5
:1027800003460221184606F041FAFFF701FA87EDE9
:10279000030A97ED037AD7ED037AB4EE677AF1EE88
:1027A00010FA12D6D7ED037A9FED197AF4EEC77AB4
:1027B000F1EE10FA09DD124B012283F8582008F0DF
:1027C0005FFF02460E4BDA6503E00D4B002283F8F3
:1027D00058207B6C07EE903AB0EE670A4837BD464A
:1027E00080BD00BF8807002078020020A0070020DD
:1027F000E86E0108186F0108246F010884020020A8
:102800001C0800206F12833ACDCCCC3D0F01002074
:10281000CDCC4C3F80B58AB000AFFFF721F9F0EE88
:10282000407AFDEEE77A17EE903AFB61884B1A6822
:10283000FB69D31A07EE903AF8EEE77AB0EE670A32
:10284000FFF746F9F0EE407A824BC3ED007AFFF7CE
:10285000C1F887ED060A7F4B1B687B627D4BD3ED89
:10286000007AB1EE047AF4EEC77AF1EE10FA01D8EC
:10287000BB697B62FFF7E6F8F0EE406A764BD3ED7A
:10288000197A86EEA77AB0EE470AFFF721F987EDAD
:10289000050A97ED097AD7ED057A27EE277AF0EE4B
:1028A000006AC7EE267AC7ED047A97ED040AFFF7AF
:1028B000E9FA87ED030AD7ED037AF5EEC07AF1EE77
:1028C00010FA21DD654A664BB3F92E301946644B88
:1028D000B3F930300B44604991ED1A7AD7ED037AA1
:1028E00027EE277A5E49B1F9321007EE901AF8EE1A
:1028F000E77A67EE277AFDEEE77AC7ED017AB988C5
:1029000009B20B44D3632DE0D7ED037AF5EEC07A1C
:10291000F1EE10FA21D5514A514BB3F92E30194638
:102920004F4BB3F93030CB1A4B4991ED1A7AD7EDB2
:10293000037A27EE277A4A49B1F9321007EE901A46
:10294000F8EEE77A67EE277AFDEEE77AC7ED017ACF
:10295000B98809B20B44D36304E0404B404AB2F952
:102960002E20DA6397ED030A08F0CCFBFFF720F97D
:1029700087ED020AD7ED027AF5EEC07AF1EE10FA91
:102980001CDD364A364BB3F964301946344BB3F983
:1029900066300B443249B1F9681007EE901AB8EE70
:1029A000E77AD7ED027A67EE277AFDEEE77AC7ED90
:1029B000017AB98809B20B44136428E0D7ED027A92
:1029C000F5EEC07AF1EE10FA1CD5244A244BB3F987
:1029D00064301946224BB3F96630CB1A2049B1F95D
:1029E000681007EE901AB8EEE77AD7ED027A67EE34
:1029F000277AFDEEE77AC7ED017AB98809B20B4470
:102A0000136404E0154B164AB2F964201A640023DB
:102A10003B620FE03B6ADBB2184600F025F8F0EEAF
:102A2000407A104A3B6A9B001344C3ED007A3B6A2C
:102A300001333B623B6A072BECDD0A4805F02AFBB9
:102A4000034AFB69136000BF2837BD4680BD00BF45
:102A50007C020020740200201C08002000040040BA
:102A6000A0070020E002002080B582B000AF03463E
:102A7000FB71FB790B4A134493F85730402B02D972
:102A8000DFED097A09E0FB79064A134493F85730E1
:102A9000184605F0EDFDF0EE407AB0EE670A083713
:102AA000BD4680BDA00700200000C07F80B500AFFC
:102AB00006F0A0FB0246064B1A60054B1B68054A50
:102AC000934201D0002300E00023184680BD00BFE0
:102AD000880200201520200080B584B000AF786007
:102AE0000B467B8013463B800E4B1B68092B01D89D
:102AF000022312E03B881B04FB60F86806F00EF925
:102B00007B881A46F968786806F0C6F97B881A4609
:102B1000F968786806F0AAFA034618461037BD46E9
:102B200080BD00BF8802002080B584B000AF03469E
:102B3000FB80084B1B68092B01D8022306E0FB88A9
:102B40001B04FB60F86806F0E9F8034618461037E6
:102B5000BD4680BD8802002080B584B000AFF8601B
:102B6000B9601346FB80FB881B04BA681946F868F5
:102B700006F0E4FA034618461037BD4680BD00BF94
:102B800080B582B000AF78600B467B8013463B80F7
:102B9000114B1B88002B19D10F4B1B8801339AB2A4
:102BA0000D4B1A800D4A7B6813600D4A7B88138099
:102BB0003B881B040B4A136008F062FD034603F5D3
:102BC0001C531033084A1360002300E00123184609
:102BD0000837BD4680BD00BF8C0200209002002057
:102BE00094020020980200209C02002080B582B050
:102BF00000AF324B1B88002B5CD000237B602F4B37
:102C00001B88013B042B3FD801A252F823F000BFE0
:102C1000252C00083F2C0008572C00083F2C0008EA
:102C2000792C0008264B1B68184606F08BF8786054
:102C3000224B1B8801339AB2204B1A8029E006F000
:102C4000C3FB0346002B23D11C4B1B8801339AB2D4
:102C50001A4B1A801CE01B4B1868194B19681A4B49
:102C60001B881A4606F030F97860144B1B88013334
:102C70009AB2124B1A800CE00221144805F0C6FFEC
:102C80000E4B00221A8004E00C4B00221A8000E058
:102C900000BF7B68002B06D108F0F2FC02460C4B0B
:102CA0001B689A4206D9054B00221A800221094866
:102CB00005F0ACFF00BF0837BD4680BD8C02002088
:102CC000980200209002002094020020B86F0108B2
:102CD0009C020020D06F0108B0B5A4B000AF08F08E
:102CE0004FFC00F061FA00F09BFD00F0EBFA00F001
:102CF00013FB00F04BFB00F093FB00F02FFD07F0FF
:102D000047FA00F0FDFC00F0F3FB00F055FD00F089
:102D100077FE08F05FF90421B8480BF0D3FD0122DB
:102D20001021B74809F0ECF80821B6480BF040FC38
:102D30000346002B03D09021B34800F027FE0C215E
:102D4000B0480BF035FC0346002B03D09521AE486C
:102D500000F01CFEFFF7AAFE0346002B03D09B21C8
:102D6000A94800F013FEA94BA94A07CA03C31A7069
:102D7000A64B4FF00002DA60A44BA64A1A62A34B9E
:102D800001221A77A14B002283F82C209F4BFF22AF
:102D90001A769E4BFF22DA759C4B00229A759B4B4C
:102DA000FF225A76994BFF229A76984BFF22DA76C9
:102DB000964B994ADA63954B984A5A64934B4FF075
:102DC0007E521A64914B4FF07A529A648F4B4FF4B3
:102DD00078721A828D4B1E225A828C4B4FF42F72BE
:102DE0005A868A4B40F2DC52DA85884B1E221A86BC
:102DF000864B4FF448729A82844B4CF250325A639D
:102E0000824B864A9A63814B3C22A3F84E207F4B2B
:102E10000A22A3F84C207D4B0122A3F850207B4BC3
:102E2000FF2283F85220794BFF2283F85320774BFF
:102E3000FF2283F85420754BFF2283F85520734BF3
:102E4000FF2283F85620714B4FF42F72A3F86820AD
:102E50006E4B40F2DC52A3F864206C4B0022A3F8C6
:102E600066200023C7F88C3014E0684AD7F88C300D
:102E700013445733FF221A70644AD7F88C30343326
:102E80005B0013444FF478729A80D7F88C3001338A
:102E9000C7F88C30D7F88C30072BE6DD5B4B7C22F3
:102EA000A3F8602007F10C0300227C211846FFF7ED
:102EB00053FE07F10C030B221946544810F088FA10
:102EC0000346002B12D1514B184607F10C037C220C
:102ED00019460FF0CFFA524A524B14461D460FCDF9
:102EE0000FC495E8070084E8070067E007F10C03CA
:102EF00004224D49184610F06BFA0346002B0FD1FF
:102F0000474A4A4B14461D460FCD0FC40FCD0FC480
:102F10000FCD0FC495E803002060043421804DE0FC
:102F200007F10C0304224249184610F051FA0346F7
:102F3000002B3BDB354A3B4607CA03C31A800233EA
:102F4000120C1A70B7F86C30A7F88A30B7F88A30CC
:102F5000002B03D0B7F88A307C2B02D97C23A7F84A
:102F60008A30B7F88A2007F10C03194627480FF07A
:102F700081FA264B3A4607CA03C31A800233120C61
:102F80001A70224B7C22A3F86020254A294B144654
:102F90001D460FCD0FC40FCD0FC40FCD0FC42B682E
:102FA0001A46228002341B0C237007E01C4A224B75
:102FB0001046194644231A460FF05CFA03221821E2
:102FC0001E48FFF7C9FD0B221D491C4810F000FAEE
:102FD0000346002B38D002211A4805F017FE174B84
:102FE0004FF09E421A61154B4FF04F42DA60134B7F
:102FF000134A07CA03C31A703EE000BF440300200F
:103000000004024080030020E46F0108A0070020B4
:10301000F06F01080000C8420AD7233CCDCCCC3D5C
:103020001C080020FC6F01081870010820700108BE
:10303000587001086070010894700108880700202A
:10304000D8700108E470010802214B4805F05AFDD0
:103050004A4BD3ED037A0220B0EE670A05F07CFDFF
:103060000221474805F04EFD444BD3ED047A02207F
:10307000B0EE670A05F0DEFD404B18229A82414B04
:1030800093F82C30012B02D100F03CFC01E000F061
:103090005DFCFEF70FFD07F0DDFF03464FF4007205
:1030A000194639480CF012FE4FF40072374938487F
:1030B00006F0F0FE08F0E4FA0246364B1B68D31A1D
:1030C000142B42D908F0DCFA0246324B1A60FEF7A4
:1030D0003DFC07F087FAFEF747FC0346002B01D0C2
:1030E00008F0B2F8FEF740FC0346002B08D02A4B4C
:1030F00093F85130002B03D12021284808F01AFF03
:10310000FEF74CFC0346002B08D0234B93F85130BC
:10311000012B03D12021214808F00CFF1E4B93F80E
:103120005130022B04D01C4B93F85130032B05D1A6
:1031300000221021194808F0E3FE04E001221021CA
:10314000164808F0DDFEFFF765FB07F073F903464C
:10315000002B03D01249012000F068FE06F070FF3A
:103160000346002B03D00F49002000F05FFE05F05E
:1031700073FCFFF73BFD9DE71871010888070020ED
:1031800028710108A007002048070020B004002093
:1031900000030020400300201C080020000402401F
:1031A0000C0E0020E809002080B598B000AF002385
:1031B000BB60404A3F4B1B6C43F0805313643D4B54
:1031C0001B6C03F08053BB60BB6800237B603A4AF2
:1031D000394B1B6843F480431360374B1B6803F47F
:1031E00080437B607B680B233B634FF480337B63BE
:1031F0000123FB6310233B6401237B640223BB6434
:103200004FF48003FB6404233B6548237B65022362
:10321000BB650323FB6507F13003184609F092FFF5
:103220000346002B04D04FF4B571244800F0AEFBE8
:103230000F23FB6100233B6200237B620023BB6200
:103240000023FB6207F11C03002118460AF0D4F9A1
:103250000346002B04D04FF4BC71184800F096FBD5
:103260000223FB604FF40073BB6107F10C031846A7
:103270000AF0A2FB0346002B04D040F27F110F4856
:1032800000F084FB0AF048FB02460D4BA3FB02232F
:103290009B09184608F046FB042008F04FFB00226B
:1032A00000214FF0FF3008F005FB00BF6037BD463E
:1032B00080BD00BF0038024000700040E46F01088C
:1032C000D34D621080B500AF104B114A1A600F4BFE
:1032D00000225A600D4B7F229A600C4BFF22DA606D
:1032E0000A4B00221A61094B00225A61074B002247
:1032F0009A6106480AF094FC0346002B04D04FF470
:10330000CE71044800F042FB00BF80BD5404002091
:1033100000280040E46F010880B500AF184B194A3F
:103320001A60174B4FF482725A60154B00229A6054
:10333000134B0022DA60124B00221A61104B00225C
:103340005A610F4B00229A610D4B0022DA610C4B3F
:1033500000221A620A4B00225A62094B00229A622A
:10336000074B0A22DA6206480AF002FD0346002BE8
:1033700004D04FF4D971044800F008FB00BF80BDB1
:10338000F006002000300140E46F010880B500AF76
:10339000012208211E4808F0B3FD1E4B1E4A1A6088
:1033A0001C4B4FF482725A601A4B00229A60194BE0
:1033B0000022DA60174B02221A61164B01225A6171
:1033C000144B4FF400729A61124B0822DA61114BD0
:1033D00000221A620F4B00225A620E4B00229A62A0
:1033E0000C4B0722DA620B480AF0C2FC0346002BA2
:1033F00004D040F2C911094800F0C8FA054B1B6817
:10340000044A1268126842F040021A6000BF80BD90
:1034100000040240BC030020003C0040E46F0108AF
:1034200080B58AB000AF2F4B2F4A1A602D4B0F2268
:103430005A602C4B00229A602A4B44F62062DA60D4
:10344000284B00221A6127480BF086F80346002B10
:1034500004D04FF4EF71254800F098FA00233B6246
:1034600000237B6207F1200319461E480CF084FA02
:103470000346002B04D040F2E5111C4800F086FA08
:1034800060237B6040F2DC53BB600023FB600023C1
:103490007B6100233B610023FB610023BB613B1D7B
:1034A000082219460F480BF009FC0346002B04D0F4
:1034B00040F2F1110D4800F069FA3B1D0C2219464B
:1034C00008480BF0FBFB0346002B04D04FF4FB71C4
:1034D000064800F05BFA034806F090F900BF283771
:1034E000BD4680BD8003002000040040E46F010859
:1034F00080B58CB000AF224B224A1A60204B0022CC
:103500005A601F4B00229A601D4B4FF0FF32DA6069
:103510001B4B00221A610323FB6000233B61012344
:103520007B610023BB610423FB6100233B62012319
:103530007B620023BB620423FB6207F10C03194684
:103540000F480BF029F90346002B04D040F212215A
:103550000D4800F01BFA00237B600023BB603B1D7D
:10356000194607480CF008FA0346002B04D040F235
:103570001921054800F00AFA00BF3037BD4680BD6A
:1035800044030020000C0040E46F010880B58CB0BB
:1035900000AF3E4B3E4A1A603C4B0F225A603B4BF9
:1035A00000229A60394B4FF6FF72DA60374B0022E7
:1035B0001A61364B00225A6134480AF0A1FF0346D3
:1035C000002B04D040F22D21324800F0DFF92F48C3
:1035D0000BF022F80346002B04D040F232212D4894
:1035E00000F0D4F90423FB6160233B6200237B627B
:1035F0000023FB6207F11C03194624480BF024FC4E
:103600000346002B04D04FF40F71224800F0BEF99E
:1036100000237B610023BB6107F1140319461B489B
:103620000CF0AAF90346002B04D040F243211948BC
:1036300000F0ACF902237B600123BB600023FB6038
:1036400000233B613B1D0822194610480BF09AFAF3
:103650000346002B04D040F24E210E4800F096F9AC
:1036600000237B600223BB603B1D0C2219460748E8
:103670000BF088FA0346002B04D040F2562105488F
:1036800000F084F900BF3037BD4680BD74040020CF
:1036900000000140E46F010880B500AF144B154AEB
:1036A0001A60134B144A5A60114B4FF480529A60BF
:1036B0000F4B4FF40052DA600D4B4FF480621A61E9
:1036C0000B4B04225A610A4B00229A61084B4FF4BB
:1036D0000042DA6106480CF0A9F90346002B04D039
:1036E00040F26B21054800F051F900BF80BD00BFDA
:1036F0001404002000100140A0860100E46F0108BE
:1037000080B500AF124B134A1A60114B4FF4E132EF
:103710005A600F4B00229A600D4B0022DA600C4B6E
:1037200000221A610A4B0C225A61094B00229A614D
:10373000074B0022DA6106480CF078F90346002BAB
:1037400004D040F27F21044800F020F900BF80BD82
:103750004807002000440040E46F010880B500AF36
:10376000124B134A1A60114B4FF416425A600F4B1A
:1037700000229A600D4B0022DA600C4B00221A6185
:103780000A4B0C225A61094B00229A61074B002216
:10379000DA6106480CF04AF90346002B04D040F2E7
:1037A0009321044800F0F2F800BF80BD0003002020
:1037B00000480040E46F010880B500AF144B154A83
:1037C0001A60134B144A5A60114B4FF480529A609E
:1037D0000F4B4FF40052DA600D4B4FF480621A61C8
:1037E0000B4B08225A610A4B00229A61084B4FF496
:1037F0000042DA6106480CF019F90346002B04D0A8
:1038000040F2A721054800F0C1F800BF80BD00BF0D
:10381000B006002000140140A0860100E46F0108FA
:1038200080B58AB000AF00233B61324A314B1B6B3D
:1038300043F0800313632F4B1B6B03F080033B614A
:103840003B690023FB602B4A2A4B1B6B43F00103AF
:103850001363284B1B6B03F00103FB60FB68002321
:10386000BB60244A234B1B6B43F004031363214BBF
:103870001B6B03F00403BB60BB6800237B601D4A25
:103880001C4B1B6B43F0020313631A4B1B6B03F0BF
:1038900002037B607B6800223821174808F030FB68
:1038A00010237B61154BBB610023FB6107F11403FF
:1038B0001946134808F08EF801237B610123BB6190
:1038C0000023FB6107F1140319460D4808F082F844
:1038D00038237B610123BB610023FB6100233B6232
:1038E00007F114031946044808F074F800BF28379C
:1038F000BD4680BD003802400004024000001110A7
:103900000008024080B500AF08210D480AF0BAFE59
:103910000C210B480AF0B6FEFFF7BEFE04F016FFBE
:1039200003461922194607480CF0D0F9012201215B
:10393000054808F0E5FA012004F044FB00BF80BD13
:1039400074040020140400200008024080B500AF79
:103950000B480CF0B9F8FFF719FE012201210948C4
:1039600008F0CEFA082108480AF0B6FE0C210648F5
:103970000AF0B2FE002004F025FB00BF80BD00BFAE
:1039800014040020000802407404002080B5ADF546
:10399000805D82B000AF07F10803043B186007F1B7
:1039A0000803083B1960144B144AB2F92E20DA635D
:1039B00007F10803083B07F10800022219460EF040
:1039C00059FD07F10803043B18680FF0F9FC0346A2
:1039D000591C07F10803043B07F10802901C0A4632
:1039E00019680EF047FD07F1080305224FF48051D6
:1039F0001846FFF771F8FEE700040040A00700201A
:103A000080B400AF044B002283F86C2000BFBD4699
:103A10005DF8047B704700BF1C08002080B582B0B1
:103A200000AF03460A46FB711346BB71BB791946CA
:103A3000074805F067F8FB79064A52F82330BA794F
:103A40001146184605F0E2F800BF0837BD4680BDB4
:103A5000487301081001002080B584B000AF034610
:103A6000FB71164B1B7883F02003DAB2134B1A70EC
:103A7000124B1B7883F04F03DAB2104B1A700F4BC6
:103A80001B7883F04B03DAB20C4B1A700B4B1B788C
:103A900007F108000A4A05210FF010FCFB791946CE
:103AA000084805F02FF8FA7907F10803114618467F
:103AB00005F0ACF800BF1037BD4680BDA002002065
:103AC000547301085C73010880B582B000AF0346EF
:103AD0000A46FB711346BB71BB791946074805F0CE
:103AE00011F8BA79FB791146184604F0EFFF044A41
:103AF000FB79137000BF0837BD4680BD64730108B1
:103B0000A002002080B584B000AF78600B46FB7047
:103B10000023FB600CE0FB687A6813441A780D4BB5
:103B20001B785340DAB20B4B1A70FB680133FB6011
:103B3000FB68272B05DCFB687A6813441B78002B95
:103B4000E9D1FB781946786804F0DCFF00BF103734
:103B5000BD4680BDA002002080B582B000AF034604
:103B60000A46FB711346BB71084B1A78FB79534028
:103B7000DAB2064B1A70BA79FB791146184604F08E
:103B8000A5FF00BF0837BD4680BD00BFA0020020D2
:103B900090B59DB002AF87ED020B0346FB7107F1B4
:103BA0001400D7E90234CDE90034154A50210FF052
:103BB00085FB00237B660DE007F114027B6E134446
:103BC0001A78104B1B785340DAB20E4B1A707B6E8A
:103BD00001337B667B6E272B06DC07F114027B6EBC
:103BE00013441B78002BE7D1FA7907F1140311462F
:103BF000184604F087FF00BF6C37BD4690BD00BF7C
:103C000068730108A002002090B59BB002AF87ED59
:103C1000010A0346FB7078680EF0F4F803460C4680
:103C200007F10C00CDE90034144A50210FF046FB97
:103C30000023FB650DE007F10C02FB6D13441A78BD
:103C40000F4B1B785340DAB20D4B1A70FB6D0133EA
:103C5000FB65FB6D272B06DC07F10C02FB6D1344A3
:103C60001B78002BE7D1FA7807F10C0311461846B0
:103C700004F048FF00BF6437BD4690BD7073010873
:103C8000A002002080B598B000AF03460A46FB8032
:103C900013467B71B7F9063007F10C00144A502126
:103CA0000FF00CFB0023FB650DE007F10C02FB6D30
:103CB00013441A780F4B1B785340DAB20D4B1A702D
:103CC000FB6D0133FB65FB6D272B06DC07F10C0256
:103CD000FB6D13441B78002BE7D17A7907F10C03B5
:103CE0001146184604F00EFF00BF6037BD4680BD88
:103CF00078730108A002002080B584B000AF0346AD
:103D00000A46FB711346BB71FB7907F10800154A9F
:103D100003210FF0D3FA0023FB600DE007F1080246
:103D2000FB6813441A78104B1B785340DAB20E4BE1
:103D30001A70FB680133FB60FB68022B06DC07F19D
:103D40000802FB6813441B78002BE7D1BA7907F10E
:103D500008031146184604F0D5FE00BF1037BD46D3
:103D600080BD00BF7C730108A002002080B598B020
:103D700000AF78600B46FB7007F10C007B68154ABA
:103D800050210FF09BFA0023FB650DE007F10C02B8
:103D9000FB6D13441A78104B1B785340DAB20E4B6C
:103DA0001A70FB6D0133FB65FB6D272B06DC07F1F9
:103DB0000C02FB6D13441B78002BE7D1FA7807F156
:103DC0000C031146184604F09DFE00BF6037BD4647
:103DD00080BD00BF84730108A002002080B483B0BE
:103DE00000AF0346FB71FB792F2B05D9FB79392BEB
:103DF00002D8FB79303B13E0FB79602B05D9FB79C6
:103E0000662B02D8FB79573B0AE0FB79402B05D99A
:103E1000FB79462B02D8FB79373B01E04FF0FF33AB
:103E200018460C37BD465DF8047B704780B586B0F8
:103E300000AF03463960FB710023FB820023BB8285
:103E400095E0FB8A5A1CFA821A463B6813441B7899
:103E50007B747B7C002B00F090804A4B1B78202BDE
:103E600009D17B7C242B02D07B7C212B7FD1454B3D
:103E700024221A707BE07B7C0A2B02D07B7C0D2BEA
:103E800027D1BB8A002B06D1FB8A013B3A68134439
:103E900000221A7004E0BB8A3A68134400221A70A8
:103EA000384B1B782A2B09D1FA7CBB7C9A4205D06F
:103EB000FB7919460420FFF7B1FD04E0FB7939686E
:103EC000184600F061F80023FB742E4B20221A7074
:103ED0004DE07B7C2A2B06D12A4B31221A70FB8ABB
:103EE000013BBB8243E0274B1B78312B10D17B7CFD
:103EF0001846FFF773FFF860FB68B3F1FF3F36D059
:103F0000FB68DBB21B01BB741E4B32221A702EE021
:103F10001C4B1B78322B11D17B7C1846FFF75EFFC0
:103F2000B860BB68B3F1FF3F21D0BB68DAB2BB7C9D
:103F30001344BB74134B2A221A7018E0114B1B78E0
:103F4000242B04D1FA7C7B7C5340FB740FE00D4B97
:103F50001B782A2B05D1FB7919460520FFF75EFD5A
:103F60000CE0FB7919460020FFF758FD06E0FB8ABC
:103F7000B3F5007FFFF465AF00E000BF1837BD4622
:103F800080BD00BF4C01002090B5ADF58E5D83B0C3
:103F900006AF024607F11003083B196007F1100352
:103FA000013B1A7007F11003083B1B685B7807F5AB
:103FB0008C5202F11702137007F58C5303F11703AB
:103FC0001B782D3B4B2B02F2FC8701A252F823F009
:103FD0008B6F0008C36F0008C36F0008C36F000831
:103FE000ED5E0008C36F0008C36F0008C36F0008D0
:103FF000C36F0008C36F0008C36F0008C36F0008D9
:10400000C36F0008C36F0008C36F0008C36F0008C8
:10401000C36F0008C36F0008C36F0008C36F0008B8
:10402000774F000845590008C36F00080968000869
:10403000D55A0008C36F000843660008B56500083C
:1040400017530008C36F0008C36F0008C36F000850
:10405000C36F0008D54D0008C36F0008916E0008BB
:10406000C36F0008C36F000883550008C36F0008C2
:10407000C36F0008576F000841460008C36F00086F
:10408000C36F0008C36F0008C36F0008C36F000848
:10409000C36F0008C36F0008876F0008C36F000874
:1040A00001410008B3550008B5590008C36F000866
:1040B00047520008C36F0008BF420008455400087B
:1040C00095460008EF690008C36F0008C36F000839
:1040D000715400082B4C0008C36F00088B43000884
:1040E000C36F000829510008C36F0008C36F0008A0
:1040F000C36F000851440008B74500086158000824
:1041000007F11003083B1B68981C07F58B5303F15C
:104110001803043307F58B5202F11802C5490FF05A
:1041200023F9034607F58C5202F11402138007F5B8
:104130008C5303F11403B3F90030022B63D107F55C
:104140008B5303F11803D3ED007AF5EEC07AF1EE4C
:1041500010FA4EDD07F58B5303F11C03D3ED007A03
:10416000F5EEC07AF1EE10FA43DD07F58B5303F15B
:104170001803D3ED007AB7EE007AF4EEC77AF1EEC9
:1041800010FA36D507F58B5303F11C03D3ED007AF3
:10419000B7EE007AF4EEC77AF1EE10FA29D507F5FA
:1041A0008B5303F11803D3ED007A9FEDA37A67EEEA
:1041B000877AA24BC3ED0F7A07F58B5303F11C03EB
:1041C000D3ED007A9FED9C7A67EE877A9B4BC3ED27
:1041D000117A07F11003013B1B7819466120FFF7A4
:1041E00073FC07F11003013B1B781846FFF734FC02
:1041F00062E007F11003013B1B7819460E20FFF720
:104200000DFC02F0E7BE07F58C5303F11403B3F97C
:104210000030002B48DC07F11003013B1B781946E6
:104220006120FFF751FC854BD3ED0F7A9FED827A29
:10423000C7EE876A07F11003013B1B781846B0EE02
:10424000660AFFF7E1FC7D4BD3ED117A9FED7A7A98
:10425000C7EE876A07F11003013B1B781846B0EEE2
:10426000660AFFF7D1FC07F11003013B1B781846E3
:10427000FFF7F2FB07F11003013B1B78194670486A
:1042800004F040FC6F4B93F8543007EE903AF8EE90
:10429000677A07F11003013B1B781846B0EE670AF6
:1042A00004F0C8FC02F096BE07F11003013B1B7836
:1042B00019460720FFF7B2FB00BF02F08BBE07F1E3
:1042C0001003083B1B68023307F58B5202F11402FE
:1042D0005D4918460FF048F8034607F58C5202F185
:1042E0001402138007F58C5303F11403B3F9003063
:1042F000012B2CD107F58B5303F11403D3ED007A76
:10430000F5EEC07AF1EE10FA17DD07F58B5303F1E5
:1043100014031B68494A136207F11003013B1B7821
:1043200019466720FFF7D0FB07F11003013B1B780C
:104330001846FFF791FB02F04DBE07F11003013B59
:104340001B7819460E20FFF769FB02F043BE07F108
:104350001003013B1B7819466720FFF7B5FB374B6D
:10436000D3ED087A07F11003013B1B781846B0EE35
:10437000670AFFF749FC07F11003013B1B78184659
:10438000FFF76AFB00BF02F025BE07F11003013BF7
:104390001B7819467020FFF797FB2C4BD3ED037A5F
:1043A000FDEEE77A07F11003013B1B78194617EE83
:1043B000900AFFF7DBFC254BD3ED047AFDEEE77A9C
:1043C00007F11003013B1B78194617EE900AFFF71F
:1043D000CDFCFDF745FBF0EE407A07F11003013B01
:1043E0001B781846B0EE670AFFF70EFCFDF71CFBC2
:1043F000F0EE407A07F11003013B1B781846B0EE4F
:10440000670AFFF701FCFDF7E5FAF0EE407A07F1E5
:104410001003013B1B781846B0EE670AFFF7F4FB68
:1044200007F11003013B1B781846FFF715FB02F05C
:10443000D1BD00BF8C7301080AD7A33CA0070020A0
:10444000947301081C080020A47301088807002049
:1044500007F11003083B1B68981C07F58B5303F109
:104460000C03043307F58B5202F10C0284490EF061
:104470007BFF034607F58C5202F11402138007F507
:104480008C5303F11403B3F90030022B57D107F515
:104490008B5303F10C03D3ED007AF5EEC07AF1EE05
:1044A00010FA42DD07F58B5303F11003D3ED007AC8
:1044B000F5EEC07AF1EE10FA37DD07F58B5303F114
:1044C0000C03D3ED007AB7EE007AF4EEC77AF1EE82
:1044D00010FA2AD807F58B5303F11003D3ED007AB5
:1044E000B7EE007AF4EEC77AF1EE10FA1DD507F5B3
:1044F0008B5303F10C031B68624A136407F58B535B
:1045000003F110031B685F4A936407F11003013B3A
:104510001B7819467620FFF7D7FA07F11003013B05
:104520001B781846FFF798FA42E007F11003013BA9
:104530001B7819460E20FFF771FA02F04BBD07F504
:104540008C5303F11403B3F90030002B28DC07F17E
:104550001003013B1B7819467620FFF7B5FA494B4B
:10456000D3ED107A07F11003013B1B781846B0EE2B
:10457000670AFFF749FB434BD3ED127A07F11003AB
:10458000013B1B781846B0EE670AFFF73DFB07F1C9
:104590001003013B1B781846FFF75EFA02F01ABDC4
:1045A00007F11003013B1B7819460720FFF736FA85
:1045B00000BF02F00FBD00227C213248FEF78CFACA
:1045C00007F58C5303F110031860032218212E48BD
:1045D000FEF782FA024607F58C5303F110031B68BD
:1045E000134407F58C5202F11002136007F1100317
:1045F000013B1B7819467720FFF766FA07F58C53C5
:1046000003F110031B68002B10D107F11003013BCD
:104610001B7819461D48FFF775FA07F11003013B97
:104620001B781846FFF718FA02F0D4BC07F1100304
:10463000013B1B7819460820FFF7F0F902F0CABCCD
:104640000020FEF771FA0320FEF76EFA07F110035F
:10465000013B1B7819465720FFF736FA07F1100384
:10466000013B1B7819460A48FFF74CFA07F1100383
:10467000013B1B781846FFF7EFF902F0ABBC00BF17
:104680008C730108A007002088070020A873010888
:10469000C873010807F11003083B1B68981C07F555
:1046A0008A5303F11C03991C07F58A5202F11C027C
:1046B00007F58A5303F11C030E33059307F58A535C
:1046C00003F11C030C33049307F58A5303F11C0315
:1046D0000A33039307F58A5303F11C03083302934B
:1046E00007F58A5303F11C030633019307F58A5338
:1046F00003F11C03043300930B46D4490EF034FE3F
:10470000034607F58C5202F11402138007F58C530F
:1047100003F11403B3F90030002B40F3E88107F5EF
:104720008A5303F11C03B3F90030002B40F3D58109
:1047300007F58A5303F11C03B3F90030102B00F383
:10474000CC8107F58A5303F11E03B3F90030002B27
:1047500040F3C38107F58A5303F11E03B3F9003018
:10476000102B00F3BA8107F58B53B3F90030002BFF
:1047700040F3B38107F58B53B3F90030102B00F3EE
:10478000AC8107F58A5303F11C03B3F9002007F548
:104790008A5303F11E03B3F900309A4200F09D8161
:1047A00007F58A5303F11C03B3F9002007F58B5377
:1047B000B3F900309A4200F0908107F58A5303F173
:1047C0001E03B3F9002007F58B53B3F900309A426A
:1047D00000F0838107F58A5303F11C03B3F900301D
:1047E000DBB2013BDAB29A4B9A7507F11003013B39
:1047F0001B7819466920FFF767F9954B9B7D9BB2A3
:1048000001339BB21AB207F11003013B1B78194622
:104810001046FFF737FA07F58C5303F11403B3F989
:104820000030012B28DD07F58A5303F11E03B3F98D
:104830000030002B20DD07F58A5303F11E03B3F986
:104840000030102B18DC07F58A5303F11E03B3F96F
:104850000030DBB2013BDAB27D4BDA757C4BDB7D9D
:104860009BB201339BB21AB207F11003013B1B78D4
:1048700019461046FFF706FA07F58C5303F11403A7
:10488000B3F90030022B22DD07F58B53B3F900306A
:10489000002B1CDD07F58B53B3F90030102B16DC11
:1048A00007F58B53B3F90030DBB2013BDAB2684B4A
:1048B0001A76674B1B7E9BB201339BB21AB207F18B
:1048C0001003013B1B7819461046FFF7DBF907F58B
:1048D0008C5303F11403B3F90030032B28DD07F5E3
:1048E0008B5303F10203B3F90030002B20DD07F5F1
:1048F0008B5303F10203B3F90030102B18DC07F5DA
:104900008B5303F10203B3F90030DBB2013BDAB29F
:104910004F4B5A764E4B5B7E9BB201339BB21AB221
:1049200007F11003013B1B7819461046FFF7AAF95F
:1049300007F58C5303F11403B3F90030042B28DD81
:1049400007F58B5303F10403B3F90030002B20DD8E
:1049500007F58B5303F10403B3F90030102B18DC77
:1049600007F58B5303F10403B3F90030DBB2013BCD
:10497000DAB2374B9A76364B9B7E9BB201339BB2B1
:104980001AB207F11003013B1B7819461046FFF7D6
:1049900079F907F58C5303F11403B3F90030052BB3
:1049A00028DD07F58B5303F10603B3F90030002B24
:1049B00020DD07F58B5303F10603B3F90030102B0C
:1049C00018DC07F58B5303F10603B3F90030DBB2B3
:1049D000013BDAB21E4BDA761D4BDB7E9BB2013314
:1049E0009BB21AB207F11003013B1B78194610461F
:1049F000FFF748F907F58C5303F11403B3F90030BE
:104A0000062B2FDD07F58B5303F10803B3F90030B4
:104A1000002B27DD07F58B5303F10803B3F90030B2
:104A2000102B1FDC07F58B5303F10803B3F900309B
:104A3000DBB2013BDAB2064B83F85220044B93F809
:104A400052309BB201339BB21AB203E0D873010813
:104A5000A007002007F11003013B1B781946104600
:104A6000FFF710F907F58C5303F11403B3F9003085
:104A7000072B2ADD07F58B5303F10A03B3F9003046
:104A8000002B22DD07F58B5303F10A03B3F9003045
:104A9000102B1ADC07F58B5303F10A03B3F900302E
:104AA000DBB2013BDAB2C94B83F85620C74B93F80F
:104AB00056309BB201339BB21AB207F11003013B8F
:104AC0001B7819461046FFF7DDF807F11003013B8C
:104AD0001B781846FEF7C0FFA4E007F11003013B66
:104AE0001B7819460E20FEF799FF02F073BA07F5FE
:104AF0008C5303F11403B3F90030002B00F38A80C8
:104B000007F11003013B1B7819466920FEF7DCFF13
:104B1000AE4B9B7D9BB201339BB21AB207F11003DF
:104B2000013B1B7819461046FFF7ACF8A74BDB7D1D
:104B30009BB201339BB21AB207F11003013B1B7801
:104B400019461046FFF79EF8A04B1B7E9BB201331F
:104B50009BB21AB207F11003013B1B7819461046AD
:104B6000FFF790F8994B5B7E9BB201339BB21AB270
:104B700007F11003013B1B7819461046FFF782F836
:104B8000924B9B7E9BB201339BB21AB207F110038A
:104B9000013B1B7819461046FFF774F88B4BDB7E00
:104BA0009BB201339BB21AB207F11003013B1B7891
:104BB00019461046FFF766F8844B93F852309BB2C3
:104BC00001339BB21AB207F11003013B1B7819465F
:104BD0001046FFF757F87D4B93F856309BB20133E0
:104BE0009BB21AB207F11003013B1B78194610461D
:104BF000FFF748F807F11003013B1B781846FEF752
:104C00002BFF07F11003013B1B78184602F09CFFB5
:104C100002F0E0B907F11003013B1B7819460720A9
:104C2000FEF7FCFE00BF02F0D5B907F11003083B08
:104C30001B68981C07F58A5303F11403991C07F5A8
:104C40008A5202F1140207F58A5303F11403043364
:104C500000930B465E490EF087FB034607F58C5226
:104C600002F11402138007F58C5303F11403B3F916
:104C70000030032B65D107F58A5303F11403B3F910
:104C80000030B3F5FA7F52DD07F58A5303F11403C0
:104C9000B3F90030B3F5FA6F49DA07F58A5303F137
:104CA0001603B3F90030002B41DD07F58A5303F1F9
:104CB0001603B3F90030632B39DC07F58A5303F18F
:104CC0001803B3F90030B3F5967F30DD07F58A534A
:104CD00003F11803B3F90030B3F5AF6F27DA07F12A
:104CE0001003013B1B7819466E20FEF7EDFE07F519
:104CF0008A5303F11403B3F90020344B1A8207F5E9
:104D00008A5303F11603B3F90020304B5A8207F59A
:104D10008A5303F11803B3F900202C4B9A8207F150
:104D20001003013B1B781846FEF796FE4BE007F197
:104D30001003013B1B7819460E20FEF76FFE02F0B0
:104D400049B907F58C5303F11403B3F90030002B74
:104D500031DC07F11003013B1B7819466E20FEF78A
:104D6000B3FE1A4BB3F9102007F11003013B1B7877
:104D700019461046FEF786FF144BB3F9122007F1CF
:104D80001003013B1B7819461046FEF77BFF0F4BC3
:104D9000B3F9142007F11003013B1B7819461046A4
:104DA000FEF770FF07F11003013B1B781846FEF772
:104DB00053FE02F00FB907F11003013B1B781946AF
:104DC0000720FEF72BFE00BF02F004B9A007002069
:104DD000F873010807F11003083B1B68981C07F5DE
:104DE0008A5303F10C03991C07F58A5202F10C0255
:104DF00007F58A5303F10C03043300930B46C849AB
:104E00000EF0B2FA034607F58C5202F11402138039
:104E100007F58C5303F11403B3F90030032B65D16C
:104E200007F58A5303F10C03B3F90030B3F5FA7FA9
:104E300052DD07F58A5303F10C03B3F90030B3F5E3
:104E4000FA6F49DA07F58A5303F10E03B3F900301C
:104E5000002B41DD07F58A5303F10E03B3F900304F
:104E6000632B39DC07F58A5303F11003B3F90030E3
:104E7000B3F5967F30DD07F58A5303F11003B3F9DC
:104E80000030B3F5617F27DA07F11003013B1B788F
:104E900019464E20FEF718FE07F58A5303F10C035E
:104EA000B3F900209F4BDA8507F58A5303F10E030F
:104EB000B3F900209B4B1A8607F58A5303F11003C0
:104EC000B3F90020974B5A8607F11003013B1B787A
:104ED0001846FEF7C1FD4BE007F11003013B1B78BC
:104EE00019460E20FEF79AFD02F074B807F58C53B0
:104EF00003F11403B3F90030002B31DC07F1100388
:104F0000013B1B7819464E20FEF7DEFD854BB3F9B9
:104F10002E2007F11003013B1B7819461046FEF7BF
:104F2000B1FE804BB3F9302007F11003013B1B7831
:104F300019461046FEF7A6FE7A4BB3F9322007F168
:104F40001003013B1B7819461046FEF79BFE07F144
:104F50001003013B1B781846FEF77EFD02F03AB8BD
:104F600007F11003013B1B7819460720FEF756FD99
:104F700000BF02F02FB807F11003083B1B68981C14
:104F800007F58A5303F10403991C07F58A5202F1CD
:104F9000040207F58A5303F10403043300930B461C
:104FA0005F490EF0E1F9034607F58C5202F1140255
:104FB000138007F58C5303F11403B3F90030032B6E
:104FC00068D107F58A5303F10403B3F90030B3F550
:104FD000FA7F55DD07F58A5303F10403B3F9003076
:104FE000B3F5FA6F4CDA07F58A5303F10603B3F908
:104FF0000030002B44DD07F58A5303F10603B3F9B3
:105000000030632B3CDC07F58A5303F10803B3F946
:105010000030B3F5967F33DD07F58A5303F10803BB
:10502000B3F90030B3F5617F2ADA07F11003013BD1
:105030001B7819464120FEF747FD07F58A5303F117
:105040000403B3F90020374BA3F8642007F58A5313
:1050500003F10603B3F90020324BA3F8662007F5ED
:105060008A5303F10803B3F900202E4BA3F86820FC
:1050700007F11003013B1B781846FEF7EDFC4BE0EF
:1050800007F11003013B1B7819460E20FEF7C6FC02
:1050900001F0A0BF07F58C5303F11403B3F90030FE
:1050A000002B31DC07F11003013B1B78194641202E
:1050B000FEF70AFD1B4BB3F9642007F11003013B17
:1050C0001B7819461046FEF7DDFD164BB3F9662036
:1050D00007F11003013B1B7819461046FEF7D2FD7D
:1050E000104BB3F9682007F11003013B1B781946F8
:1050F0001046FEF7C7FD07F11003013B1B78184669
:10510000FEF7AAFC01F066BF07F11003013B1B7814
:1051100019460720FEF782FC00BF01F05BBF00BF0D
:10512000F8730108A007002007F11003083B1B6873
:10513000023307F58A5202F10202C74918460EF0FF
:1051400013F9034607F58C5202F11402138007F598
:105150008C5303F11403B3F90030012B50D107F540
:105160008A5303F10203B3F90030012B10D007F585
:105170008A5303F10203B3F90030B3F1FF3F07D0C4
:1051800007F58A5303F10203B3F90030002B2DD148
:1051900007F11003013B1B7819467220FEF794FCBF
:1051A00007F58A5303F10203B3F9003007EE903A92
:1051B000F8EEE77AA94BC3ED037AA84BD3ED037A57
:1051C000FDEEE77AC7ED017ABB881AB207F110034A
:1051D000013B1B7819461046FEF754FD07F11003FA
:1051E000013B1B781846FEF737FC29E007F1100356
:1051F000013B1B7819460A20FEF710FC01F0EABEBD
:1052000007F11003013B1B7819467220FEF75CFC86
:10521000924BD3ED037AFDEEE77AC7ED017ABB88B6
:105220001AB207F11003013B1B7819461046FEF72E
:1052300029FD07F11003013B1B781846FEF70CFC13
:1052400000BF01F0C7BE07F11003083B1B68023323
:1052500007F5895202F11C02814918460EF084F8C4
:10526000034607F58C5202F11402138007F58C53A4
:1052700003F11403B3F90030012B30D107F5895342
:1052800003F11C031B68B3F5FA7F1EDD07F5895394
:1052900003F11C031B68734A934216DC07F11003E9
:1052A000013B1B7819466520FEF70EFC07F5895374
:1052B00003F11C031B68694A536307F11003013BA8
:1052C0001B781846FEF7C8FB22E007F11003013BEC
:1052D0001B7819460E20FEF7A1FB01F07BBE07F1FB
:1052E0001003013B1B7819466520FEF7EDFB5B4B75
:1052F0005A6B07F11003013B1B7819461046FEF765
:1053000035FD07F11003013B1B781846FEF7A4FB9F
:1053100000BF01F05FBE07F11003083B1B680233BA
:1053200007F5895202F11A024B4918460EF01CF893
:10533000034607F58C5202F11402138007F58C53D3
:1053400003F11403B3F90030012B47D107F589535A
:1053500003F11A03B3F90030002B16D107F1100343
:10536000013B1B7819464920FEF7AEFB3B4B002260
:1053700083F82C20FEF7EAFA07F11003013B1B78B3
:105380001846FEF769FB01F025BE07F5895303F1C6
:105390001A03B3F90030012B16D107F11003013BBA
:1053A0001B7819464920FEF78FFB2C4B012283F80E
:1053B0002C20FEF7A7FA07F11003013B1B781846D3
:1053C000FEF74AFB01F006BE07F11003013B1B7814
:1053D00019460E20FEF722FB01F0FCBD07F1100379
:1053E000013B1B7819464920FEF76EFB1B4B93F8D7
:1053F0002C301AB207F11003013B1B7819461046F6
:10540000FEF740FC154B93F82C30002B08D107F128
:105410001003013B1B7819461348FEF773FB07E0A6
:1054200007F11003013B1B7819461048FEF76AFB91
:1054300007F11003013B1B781846FEF70DFB00BF78
:1054400001F0C8BD07F11003013B1B78184602F0BC
:105450001DF801F0BFBD00BF04740108A0070020C3
:1054600008740108A08601000C7401082C7401085E
:1054700007F11003083B1B68023307F5895202F15C
:105480001802C94918460DF06FFF034607F58C5204
:1054900002F11402138007F58C5303F11403B3F9DE
:1054A0000030012B3AD107F5895303F11803B3F902
:1054B0000030022B0FD007F5895303F11803B3F91D
:1054C0000030032B07D007F5895303F11803B3F914
:1054D0000030012B18D107F11003013B1B7819464E
:1054E0006D20FEF7F1FA07F5895303F11803B3F9BC
:1054F0000030DAB2AD4B1A7707F11003013B1B788D
:105500001846FEF7A9FA39E007F11003013B1B78B2
:1055100019460B20FEF782FA01F05CBD07F110037B
:10552000013B1B7819466D20FEF7CEFA9F4B1B7F7F
:105530001AB207F11003013B1B7819461046FEF71B
:10554000A1FB07F11003013B1B7819469848FEF7B1
:10555000D9FA964B1B7F184602F0D4FA024607F19F
:105560001003013B1B7819461046FEF7CBFA07F1F2
:105570001003013B1B781846FEF76EFA00BF01F0DE
:1055800029BD07F11003013B1B7819465320FEF794
:105590009BFA07F11003013B1B781846FEF75CFAF3
:1055A00007F11003013B1B78184602F083F801F065
:1055B00011BD07F11003083B18680DF001FF034609
:1055C0000A2B40F20181022307F58D5202F10E02EF
:1055D000138007F58873103B07F58C5202F10C021B
:1055E00013600AE007F58D5303F10E031B880133A6
:1055F00007F58D5202F10E02138007F58D5303F16A
:105600000E031C8807F11003083B18680DF0D8FE44
:1056100003469C4214D207F58D5303F10E031B88F9
:10562000B3F5FF7F0CD807F58D5303F10E031A88ED
:1056300007F11003083B1B6813441B78202BD1D0C3
:10564000002307F58D5202F10C0213807AE007F572
:105650008D5303F10E031B885A1C07F58D5101F180
:105660000E010A801A4607F11003083B1B68134419
:105670001B781846FEF7B2FB07F58C5303F10803BD
:10568000186007F58D5303F10E031B885A1C07F5AC
:105690008D5101F10E010A801A4607F11003083BF3
:1056A0001B6813441B781846FEF798FB07F58C53CC
:1056B00003F10403186007F58C5303F108031B681A
:1056C000B3F1FF3F34D007F58C5303F104031B689B
:1056D000B3F1FF3F2CD007F58C5303F108031B688F
:1056E000DBB21B01DAB207F58C5303F104031B682C
:1056F000DBB2134407F58C5202F10302137007F575
:105700008D5303F10C031B885A1C07F58D5101F1D1
:105710000C010A801A4607F58C5303F10C031B6831
:10572000134407F58C5202F1030212781A7009E053
:1057300007F11003013B1B7819460E20FEF76EF9A6
:1057400001F048BC07F58D5303F10E031C8807F1E7
:105750001003083B18680DF033FE0346013B9C42E2
:105760000FD207F58D5303F10E031B88B3F5FF7FAE
:1057700007D807F58D5303F10C031B887B2B7FF6AD
:1057800066AF07F58D5303F10C031B887B2B11D8F3
:1057900007F11003013B1B7819460E20FEF73EF976
:1057A00000BF01F017BC00BF04740108A00700206F
:1057B00048740108C34A07F58873103B1046194620
:1057C0007C231A460CF056FE07F11003013B1B78B0
:1057D00019466220FEF778F907F11003013B1B78A8
:1057E00019462020FEF7B8F9B64B07F58C5202F1A6
:1057F0000C021360002307F58D5202F108021360BA
:105800001EE007F58C5303F10C031A6807F58D535E
:1058100003F108031B6813441A7807F11003013BD6
:105820001B7819461046FEF767FA07F58D5303F10A
:1058300008031B68013307F58D5202F1080213605B
:1058400007F58D5303F108031B687B2BD9D907F1AA
:105850001003013B1B781846FEF7FEF801F0BABBB7
:1058600007F11003083B1B68023307F5895202F168
:105870001402954918460DF077FD034607F58C5242
:1058800002F11402138007F58C5303F11403B3F9EA
:105890000030012B39D107F5895303F11403D3EDFF
:1058A000007AF5EEC07AF1EE10FA24DD07F589539F
:1058B00003F11403D3ED007AB7EE007AF4EEC77A61
:1058C000F1EE10FA17D807F5895303F114031B689A
:1058D0007C4A936307F11003013B1B78194678203B
:1058E000FEF7F2F807F11003013B1B781846FEF7AC
:1058F000B3F801F06FBB07F11003013B1B781946A9
:105900000E20FEF78BF801F065BB07F11003013B99
:105910001B7819467820FEF7D7F86A4BD3ED0E7A3C
:1059200007F11003013B1B781846B0EE670AFEF73B
:105930006BF907F11003013B1B781846FEF78CF852
:1059400001F048BB07F11003013B1B78012B27D165
:1059500007F11003013B1B7819464220FEF7B4F80B
:1059600007F11003013B1B7819465848FEF7CAF8A7
:10597000FBF758FE0346012B08D107F11003013B4A
:105980001B781846FEF768F801F024BB07F11003F6
:10599000013B1B7819460C20FEF740F801F01ABBBA
:1059A00007F11003013B1B7819460D20FEF736F86E
:1059B00001F010BB07F11003083B1B68981C07F5AA
:1059C000895303F11003023307F5895202F11002E3
:1059D0003F490DF0C9FC034607F58C5202F1140251
:1059E000138007F58C5303F11403B3F90030022B35
:1059F00040D107F5895303F11003B3F90030002BB0
:105A00002EDB07F5895303F11203B3F90030002BA5
:105A100026DB2C4B0022A3F84E2007F5895303F117
:105A20001003B3F90020274BA3F84C2007F5895346
:105A300003F11203B3F90020224BA3F8502007F121
:105A40001003013B1B7819466320FEF73DF807F170
:105A50001003013B1B781846FDF7FEFF01F0BABAB0
:105A600007F11003013B1B7819460E20FDF7D6FF06
:105A700001F0B0BA07F11003013B1B78194663200F
:105A8000FEF722F80F4BB3F94C2007F11003013B4E
:105A90001B7819461046FEF7F5F80A4BB3F950206B
:105AA00007F11003013B1B7819461046FEF7EAF890
:105AB00007F11003013B1B781846FDF7CDFF01F0FD
:105AC00089BA00BFA0070020A47301084C74010824
:105AD0006474010807F11003013B1B781946452047
