:020000040800F2
:1000000000000220D9980008199F0008299F0008C5
:100010003D9F0008519F0008659F000800000000F8
:10002000000000000000000000000000799F0008B0
:10003000899F000800000000999F0008A99F000800
:100040003399000835990008379900083999000854
:100050003B9900083D9900083F9900084199000824
:1000600043990008459900084799000849990008F4
:100070004B9900084D9900084F99000851990008C4
:100080005399000855990008579900085999000894
:100090005B9900085D9900085F9900086199000864
:1000A0006399000865990008679900081DA0000879
:1000B0006B9900086D9900086F9900087199000804
:1000C00073990008759900087799000879990008D4
:1000D0007B990008B99F0008CD9F0008E19F0008A8
:1000E0008399000885990008879900088999000874
:1000F0008B9900088D9900088F9900089199000844
:10010000939900089599000831A000089999000872
:100110009B9900089D9900089F990008A1990008E3
:10012000A3990008A5990008A7990008A9990008B3
:10013000AB990008AD990008AF990008B199000883
:10014000B3990008B5990008B799000809A00008FC
:10015000BB990008BD990008BF990008F59F0008E9
:10016000C3990008C5990008C7990008C9990008F3
:10017000CB990008CD990008CF990008D1990008C3
:10018000D3990008D599000810B5054C237833B9E8
:10019000044B13B10448AFF300800123237010BD5A
:1001A0004402002000000000C49A0108084B10B56A
:1001B0001BB108490848AFF300800848036803B939
:1001C00010BD074B002BFBD0BDE81040184700BF07
:1001D0000000000048020020C49A010844020020E8
:1001E00000000000154B002B08BF134B9D46A3F5E4
:1001F000803A00218B460F461348144A121A12F017
:1002000094FB0F4B002B00D098470E4B002B00D0D7
:1002100098470020002104000D000D48002802D05E
:100220000C48AFF3008012F03FFB2000290002F0E1
:1002300065FD12F025FB00BF000008000000022051
:10024000000000000000000044020020BC3A002032
:10025000000000000000000080B584B000AF7860AE
:100260000B46FB700023FB737B681B7C002B0ED1BD
:100270004FF400730222812178680AF07BFE4FF46C
:1002800000730222012178680AF074FE0BE040231B
:100290000222812178680AF06DFE402302220121AA
:1002A00078680AF067FE08230322822178680AF042
:1002B00061FE4FF4077012F01DFB03461A467B687F
:1002C000C3F818227B68D3F81832002B02D101231F
:1002D000FB7326E07B68D3F81832BB607B68D3F8E9
:1002E0001C321B689847BB680022C3F81422BB6805
:1002F0000022C3F818227B681B7C002B09D1BB6845
:10030000D3F804224FF40073012178680AF0AEFF9D
:1003100007E0BB68D3F804224023012178680AF083
:10032000A5FFFB7B18461037BD4680BD80B584B065
:1003300000AF78600B46FB700023FB738121786867
:100340000AF056FE012178680AF052FE8221786890
:100350000AF04EFE7B68D3F81832002B0ED07B6873
:10036000D3F81C325B6898477B68D3F8183218467C
:1003700012F0C8FA7B680022C3F81822FB7B1846EB
:100380001037BD4680BD00BF80B584B000AF786037
:1003900039607B68D3F81832FB603B681B7803F048
:1003A0006003002B3AD0202B00D043E03B68DB8871
:1003B000002B29D03B681B785BB2002B11DA7B68DD
:1003C000D3F81C329B683A685078F9683A68D2884A
:1003D0009847F9683B68DB881A46786801F09CF812
:1003E00029E03B685A78FB6883F800223B68DB8889
:1003F000DAB2FB6883F80122F9683B68DB881A46A9
:10040000786801F0B7F816E07B68D3F81C329B6877
:100410003A6850780022396898470CE03B685B786E
:100420000A2B01D00B2B05E001220549786801F069
:1004300073F800BF00BF002318461037BD4680BDCB
:100440006002002080B485B000AF78600B46FB707E
:100450007B68D3F81832FB607B68D3F81832002B26
:1004600005D0FB680022C3F81422002300E0022319
:1004700018461437BD465DF8047B704780B584B0DC
:1004800000AF78600B46FB707B68D3F81832FB60D6
:10049000FB78194678680AF023FF0246FB68C3F828
:1004A0000C227B68D3F81832002B0DD07B68D3F870
:1004B0001C32DB68FA68D2F80402FA6802F50372AB
:1004C00011469847002300E0022318461037BD4626
:1004D00080BD00BF80B584B000AF78607B68D3F882
:1004E0001832FB607B68D3F81C32002B15D0FB68F8
:1004F00093F80032FF2B10D07B68D3F81C329B6836
:10050000FA6892F80002F968FA6892F8012292B249
:100510009847FB68FF2283F8002200231846103713
:10052000BD4680BD80B483B000AF78607B68432255
:100530001A80034B18460C37BD465DF8047B7047A4
:100540008800002080B483B000AF78607B684322CD
:100550001A80034B18460C37BD465DF8047B704784
:100560004400002080B483B000AF78607B684322F1
:100570001A80034B18460C37BD465DF8047B704764
:10058000CC00002080B483B000AF78607B680A2282
:100590001A80034B18460C37BD465DF8047B704744
:1005A0000000002080B485B000AF7860396002237D
:1005B000FB733B68002B05D07B683A68C3F81C22AC
:1005C0000023FB73FB7B18461437BD465DF8047BA4
:1005D000704700BF80B487B000AFF860B9601346C1
:1005E000FB80FB68D3F818327B617B69BA68C3F87B
:1005F0000822FA887B69C3F81022002318461C37AA
:10060000BD465DF8047B704780B485B000AF78606C
:1006100039607B68D3F81832FB60FB683A68C3F82E
:100620000422002318461437BD465DF8047B70474A
:1006300080B584B000AF78607B68D3F81832FB6077
:100640007B68D3F81832002B17D0FB68D3F814322C
:10065000002B10D1FB680122C3F81422FB68D3F8E9
:100660000822FB68D3F810329BB2812178680AF027
:10067000C3FD002302E0012300E0022318461037E7
:10068000BD4680BD80B584B000AF78607B68D3F88C
:100690001832FB607B68D3F81832002B17D07B68C8
:1006A0001B7C002B09D1FB68D3F804224FF40073A4
:1006B000012178680AF0DAFD07E0FB68D3F804222C
:1006C0004023012178680AF0D1FD002300E00223D5
:1006D00018461037BD4680BD80B584B000AFF860C5
:1006E000B9601346FB71FB68002B01D102231AE0AD
:1006F000FB68D3F81432002B03D0FB680022C3F848
:100700001422BB68002B03D0FB68BA68C3F8102220
:10071000FB68012283F8FC21FB68FA791A70F868FB
:100720000AF03EFB002318461037BD4680BD00BFCF
:1007300080B582B000AF78607B68012283F8FC212D
:100740007B68D3F814325B687A685268D2B211467B
:100750007868984778680AF0DBFB78680AF074FBE1
:10076000002318460837BD4680BD00BF80B485B061
:1007700000AF786039600023FB733B68002B06D024
:100780007B683A68C3F814220023FB7301E002235C
:10079000FB73FB7B18461437BD465DF8047B70473E
:1007A00080B582B000AF786078680AF07FFB0023E4
:1007B00018460837BD4680BD80B582B000AF78606E
:1007C0007B68D3F814325B687A685268D2B21146FB
:1007D0007868984778680AF09BFB0023184608372A
:1007E000BD4680BD80B483B000AF7860002318465A
:1007F0000C37BD465DF8047B704700BF80B584B000
:1008000000AF78600B46FB700223FB737B68D3F864
:100810001432002B0CD07B68D3F814321B68FA78A2
:100820001146786898470346002B01D10023FB73DB
:10083000FB7B18461037BD4680BD00BF80B582B037
:1008400000AF78600B46FB707B68D3F814325B68AE
:10085000FA78114678689847002318460837BD464D
:1008600080BD00BF80B582B000AF786039607B6822
:1008700003F502733968184600F0A2FD7B68012277
:10088000C3F8F4217B68B3F80E321A467B68C3F8CC
:10089000F8217B6893F8083203F01F03012B0BD07B
:1008A000022B11D0002B17D17B6803F50273194678
:1008B000786800F0CFF91AE07B6803F502731946F7
:1008C000786800F017FA12E07B6803F502731946A6
:1008D000786800F043FA0AE07B6893F8083223F066
:1008E0007F03DBB2194678680AF0B8FB00BF00232B
:1008F00018460837BD4680BD80B586B000AFF860A9
:100900000B467A60FB72FB7A002B38D1FB6803F54B
:1009100082737B61FB68D3F8F431032B42D17B698E
:100920009A687B69DB689A4214D97B699A687B690B
:10093000DB68D21A7B699A607B69DA687B699B689D
:10094000934228BF13469BB21A467968F86800F0B4
:100950002FFE27E0FB68D3F814321B69002B0AD066
:10096000FB6893F8FC31032B05D1FB68D3F81432F4
:100970001B69F8689847F86800F02CFE12E0FB68E5
:10098000D3F814329B69002B0CD0FB6893F8FC3130
:10099000032B07D1FB68D3F814329B69FA7A11460E
:1009A000F8689847002318461837BD4680BD00BF39
:1009B00080B586B000AFF8600B467A60FB72FB7AB8
:1009C000002B6CD1FB6814337B61FB68D3F8F431E6
:1009D000022B57D17B699A687B69DB689A4215D9EB
:1009E0007B699A687B69DB68D21A7B699A607B694C
:1009F0009B689BB21A467968F86800F0A9FD00234D
:100A000000220021F8680AF031FC3BE07B695B685A
:100A10007A69D268B3FBF2F102FB01F29B1A002B58
:100A20001CD17B695A687B69DB689A4216D37B6963
:100A30005A68FB68D3F8F8319A420FD2002200219D
:100A4000F86800F085FDFB680022C3F8F821002358
:100A500000220021F8680AF009FC13E0FB68D3F8D3
:100A60001432DB68002B0AD0FB6893F8FC31032BAF
:100A700005D1FB68D3F81432DB68F8689847F8684A
:100A800000F0BCFDFB6893F80032012B1AD1F86826
:100A9000FFF7A8FEFB68002283F8002212E0FB6843
:100AA000D3F814325B69002B0CD0FB6893F8FC314F
:100AB000032B07D1FB68D3F814325B69FA7A11462D
:100AC000F8689847002318461837BD4680BD00BF18
:100AD00080B582B000AF78604023002200217868A2
:100AE0000AF048FA7B684022C3F810214023002214
:100AF000802178680AF03EFA7B6840221A627B689F
:100B0000012283F8FC217B68D3F81832002B09D02E
:100B10007B68D3F814325B687A685268D2B21146A7
:100B200078689847002318460837BD4680BD00BF47
:100B300080B483B000AF78600B46FB707B68FA78B6
:100B40001A74002318460C37BD465DF8047B7047C5
:100B500080B483B000AF78607B6893F8FC217B6839
:100B600083F8FD217B68042283F8FC2100231846CA
:100B70000C37BD465DF8047B704700BF80B483B07E
:100B800000AF78607B6893F8FD217B6883F8FC21D7
:100B9000002318460C37BD465DF8047B704700BF44
:100BA00080B582B000AF78607B6893F8FC31032B8E
:100BB0000BD17B68D3F81432DB69002B05D07B683E
:100BC000D3F81432DB697868984700231846083751
:100BD000BD4680BD80B483B000AF78600B46FB702B
:100BE000002318460C37BD465DF8047B704700BFF4
:100BF00080B483B000AF78600B46FB7000231846CA
:100C00000C37BD465DF8047B704700BF80B483B0ED
:100C100000AF7860002318460C37BD465DF8047BB2
:100C2000704700BF80B582B000AF78607B6801225A
:100C300083F8FC217B68D3F814325B687A685268C9
:100C4000D2B2114678689847002318460837BD4647
:100C500080BD00BF80B584B000AF786039600023EC
:100C6000FB733B685B78092B39D801A252F823F05B
:100C7000C10C0008D50C0008DF0C0008CB0C0008E4
:100C8000DF0C0008A30C0008990C0008DF0C00081A
:100C9000B70C0008AD0C00083968786800F036F928
:100CA00022E03968786800F025FA1DE03968786834
:100CB00000F05EFA18E03968786800F0E1FA13E0B5
:100CC0003968786800F00EFB0EE03968786800F04B
:100CD00033FB09E03968786800F04AFB04E03968C2
:100CE000786800F0ABFB00BFFB7B18461037BD46B1
:100CF00080BD00BF80B584B000AF7860396000234C
:100D0000FB737B6893F8FC31032B1BD13B689B88FA
:100D1000DBB2012B11D87B68D3F814329B68396899
:100D2000786898473B68DB88002B10D1FB7B002B51
:100D30000DD1786800F04EFC09E03968786800F061
:100D40007DFB04E03968786800F078FB00E000BFC4
:100D5000002318461037BD4680BD00BF80B584B063
:100D600000AF786039600023FB733B689B88BB73DE
:100D70003B681B7803F06003202B08D17B68D3F815
:100D800014329B683968786898470023BAE03B685A
:100D90005B78012B39D0032B02D0002B6BD0B0E055
:100DA0007B6893F8FC31022B02D0032B0CD025E09A
:100DB000BB7B002B27D0BB7B802B24D0BB7B194671
:100DC00078680AF04BF91EE03B685B88002B0AD17B
:100DD000BB7B002B07D0BB7B802B04D0BB7B194691
:100DE00078680AF03BF97B68D3F814329B6839685D
:100DF00078689847786800F0EDFB05E03968786816
:100E000000F01CFB00E000BF7BE07B6893F8FC3146
:100E1000022B02D0032B0CD024E0BB7B002B26D06E
:100E2000BB7B802B23D0BB7B194678680AF016F970
:100E30001DE03B685B88002B1BD1BB7B03F07F036D
:100E4000002B0BD0BB7B194678680AF03DF97B6814
:100E5000D3F814329B68396878689847786800F04E
:100E6000B9FB06E03968786800F0E8FA02E000BFF4
:100E700047E000BF45E07B6893F8FC31022B02D0CD
:100E8000032B0BD036E0BB7B03F07F03002B36D067
:100E9000BB7B194678680AF0E1F830E097F90E302C
:100EA000002B08DABB7B03F07F0301331B017A6858
:100EB0001344043307E0BB7B03F07F0310331B01B3
:100EC0007A6813440433BB60BB7B194678680AF028
:100ED00031F90346002B03D0BB6801221A6002E0FF
:100EE000BB6800221A60BB6802221946786800F0CD
:100EF00013FB05E03968786800F0A0FA00E000BF55
:100F000000BFFB7B18461037BD4680BD80B584B05E
:100F100000AF786039603B685B881B0A9BB2013B7D
:100F2000062B00F2C98001A252F823F0490F0008F5
:100F3000610F0008A10F0008B9100008B9100008DF
:100F4000651000088B1000087B68D3F810321B680E
:100F50007A68127C07F10A0110469847F860B0E001
:100F60007B681B7C002B0DD17B68D3F814329B6A05
:100F700007F10A0210469847F860FB680133022225
:100F80001A709EE07B68D3F81432DB6A07F10A021C
:100F900010469847F860FB68013302221A7090E00F
:100FA0003B685B88DBB2052B56D801A252F823F0D0
:100FB000C90F0008E10F0008F90F00081110000820
:100FC00029100008411000087B68D3F810325B68D4
:100FD0007A68127C07F10A0110469847F86040E0F1
:100FE0007B68D3F810329B687A68127C07F10A019B
:100FF00010469847F86034E07B68D3F81032DB681D
:101000007A68127C07F10A0110469847F86028E0D8
:101010007B68D3F810321B697A68127C07F10A01E9
:1010200010469847F8601CE07B68D3F810325B6983
:101030007A68127C07F10A0110469847F86010E0C0
:101040007B68D3F810329B697A68127C07F10A0139
:1010500010469847F86004E03968786800F0EEF9C7
:1010600044E02EE07B681B7C002B09D17B68D3F821
:1010700014325B6B07F10A0210469847F86020E0D3
:101080003968786800F0DAF930E07B681B7C002B67
:101090000DD17B68D3F814321B6B07F10A0210469E
:1010A0009847F860FB68013307221A7009E0396835
:1010B000786800F0C3F919E03968786800F0BEF983
:1010C00014E07B89002B11D03B68DB88002B0DD00E
:1010D0003B68DA887B89934228BF13469BB27B81A9
:1010E0007B891A46F968786800F016FA1037BD4611
:1010F00080BD00BF80B584B000AF786039603B68C8
:101100009B88002B2CD13B68DB88002B28D13B68C7
:101110005B88DBB203F07F03FB737B6893F8FC31E1
:10112000032B04D13968786800F088F91CE07B68EB
:10113000FA7B83F8FE21FB7B194678680AF026F8D3
:10114000786800F047FAFB7B002B04D07B68022212
:1011500083F8FC2108E07B68012283F8FC2103E08E
:101160003968786800F06AF900BF1037BD4680BD65
:1011700080B582B000AF786039603B685B88DAB2D6
:101180003E4B1A703D4B1B78012B04D939687868A7
:1011900000F054F96FE07B6893F8FC31022B02D029
:1011A000032B23D062E0354B1B78002B1AD0334B36
:1011B0001B781A467B685A607B68032283F8FC21FF
:1011C0002E4B1B7819467868FFF718FB0346022B55
:1011D00004D13968786800F031F94CE0786800F0A3
:1011E000F9F948E0786800F0F5F944E0234B1B7802
:1011F000002B12D17B68022283F8FC211F4B1B7845
:101200001A467B685A601D4B1B7819467868FFF7B1
:1012100015FB786800F0DEF92DE0184B1B781A46B4
:101220007B685B689A421DD07B685B68DBB21946BD
:101230007868FFF703FB114B1B781A467B685A60EE
:101240000E4B1B7819467868FFF7D8FA0346022B35
:1012500004D13968786800F0F1F80CE0786800F0A3
:10126000B9F908E0786800F0B5F904E03968786801
:1012700000F0E4F800BF0837BD4680BD61020020E1
:1012800080B582B000AF786039603B68DB88012BA5
:1012900004D03968786800F0D1F81FE07B6893F8D3
:1012A000FC31022B02D0032B0BD012E07B68002212
:1012B0009A607B68083301221946786800F02CF99F
:1012C0000CE07B68043301221946786800F024F9A9
:1012D00004E03968786800F0B1F800BF00BF083753
:1012E000BD4680BD80B582B000AF786039607B6854
:1012F00093F8FC31023B012B15D87B680122DA60A0
:101300007B68D3F80432002B05D07B68DB6843F0A0
:1013100002027B68DA607B680C3302221946786827
:1013200000F0FAF804E03968786800F087F800BF48
:1013300000BF0837BD4680BD80B582B000AF786081
:1013400039603B685B88012B0DD17B680122C3F8B3
:1013500004227B68D3F814329B6839687868984710
:10136000786800F037F900BF0837BD4680BD00BF80
:1013700080B582B000AF786039607B6893F8FC314B
:10138000023B012B12D83B685B88012B13D17B6891
:101390000022C3F804227B68D3F814329B683968B2
:1013A00078689847786800F015F904E0396878683B
:1013B00000F044F800E000BF00BF0837BD4680BD24
:1013C00080B483B000AF786039603B681A787B687E
:1013D0001A703B685A787B685A703B6802331B78F6
:1013E0009AB23B6803331B789BB21B029BB2134437
:1013F0009AB27B685A803B6804331B789AB23B6888
:1014000005331B789BB21B029BB213449AB27B68D4
:101410009A803B6806331B789AB23B6807331B7887
:101420009BB21B029BB213449AB27B68DA8000BF66
:101430000C37BD465DF8047B704700BF80B582B0B5
:1014400000AF786039608021786809F007FE0021DC
:10145000786809F003FE00BF0837BD4680BD00BFB5
:1014600080B586B000AFF860B9607A600023FB7584
:10147000FB68002B33D0F86800F036F803460133E0
:101480009BB25B009AB27B681A80FB7D5A1CFA758E
:101490001A46BB6813447A681288D2B21A70FB7D70
:1014A0005A1CFA751A46BB68134403221A7012E0DC
:1014B000FB7D5A1CFA751A46BB681A44FB68591C16
:1014C000F9601B781370FB7D5A1CFA751A46BB68CD
:1014D000134400221A70FB681B78002BE8D100BF70
:1014E0001837BD4680BD00BF80B485B000AF7860BE
:1014F0000023FB7305E0FB7B0133FB737B68013347
:101500007B607B681B78002BF5D1FB7B184614377A
:10151000BD465DF8047B704780B584B000AFF860CD
:10152000B9601346FB80FB680222C3F8F421FA88F5
:10153000FB689A61FA88FB68DA61FB88BA68002167
:10154000F86809F059FE002318461037BD4680BDE3
:1015500080B584B000AFF860B9601346FB80FB88AB
:10156000BA680021F86809F047FE002318461037D2
:10157000BD4680BD80B584B000AFF860B960134649
:10158000FB80FB680322C3F8F421FA88FB68C3F8E8
:101590000821FA88FB68C3F80C21FB88BA6800218F
:1015A000F86809F063FE002318461037BD4680BD79
:1015B00080B584B000AFF860B9601346FB80FB884B
:1015C000BA680021F86809F051FE00231846103768
:1015D000BD4680BD80B582B000AF78607B680422D4
:1015E000C3F8F421002300220021786809F004FEEA
:1015F000002318460837BD4680BD00BF80B582B0C5
:1016000000AF78607B680522C3F8F4210023002234
:101610000021786809F02AFE002318460837BD46E5
:1016200080BD00BFB0B58CB000AF002387F8233079
:10163000764B3C1D1D460FCD0FC495E8070084E88E
:101640000700002387F82F30002387F82E303DE075
:10165000012007F069FD01216D4807F063FC97F850
:101660002F309B0007F13002134453F82C3C01212A
:10167000184607F067FC0121664807F003FD97F85C
:101680002F309B0007F13002134453F82C3C1846CE
:1016900000F042F90021604807F044FC07F1230202
:1016A00007F124031146184600F0CEF807F1230293
:1016B00007F124031146184600F012F90346002BE7
:1016C00009D197F82F30013387F82F3097F82F3052
:1016D000062BBDD900E000BF97F82F30072B00F094
:1016E0008C80012007F020FD01214C4807F01AFCF6
:1016F00097F82F309B0007F13002134453F82C3C2D
:101700000121184607F01EFC0121424807F0BAFCEF
:1017100097F82F30042B26D00121414807F0B2FC66
:101720000021404807F0FEFB07F1230207F12403E4
:101730001146184600F088F84FF4164000F0ECF817
:1017400007F1230207F124031146184600F0C8F8F8
:101750000346002B04D00121334807F093FC02E03C
:10176000012387F82E3097F82E30002B45D1012029
:1017700007F0DAFC01212D4807F084FC00212C48F9
:1017800007F0D0FB07F1230207F1240311461846A6
:1017900000F05AF807F1230207F124031146184616
:1017A00000F09EF80346002B27D00121214807F0C6
:1017B00069FC012007F0B8FC01211F4807F062FC1A
:1017C00000211E4807F0AEFB07F1230207F12403B6
:1017D0001146184600F038F807F1230207F12403F8
:1017E0001146184600F07CF80346002B05D0012175
:1017F000134807F047FC012304E00121114807F0DA
:1018000041FC002318463037BD46B0BDB46F010817
:10181000D46D0108046E01080C6E0108106E0108F9
:10182000406E0108746E0108806E01089C6E01080C
:10183000D86E0108E86E01080C6F01084C6F0108B2
:10184000586F0108846F010880B586B000AF7860DA
:1018500039600AF065F938613B6800221A701F4B45
:10186000DB8DFB8229E009F007F91C4BDB8D9BB275
:10187000FA8A9A4221D0194B996A184B9A8DFB8AA1
:10188000B3FBF2F002FB00F29B1A9BB20B441B78F5
:10189000FB733B681B78092B0CD83B681B781A46F6
:1018A0007B681344FA7B1A703B681B780133DAB209
:1018B0003B681A70FB8A0133FB820AF031F9024659
:1018C0003B69D31A40F6B7329342CCD9012007F0D6
:1018D0002BFC00BF1837BD4680BD00BFFC020020B6
:1018E00080B483B000AF786039603B681B78012B0F
:1018F0000AD97B681B784F2B06D17B6801331B7894
:101900004B2B01D1012300E0002318460C37BD46C4
:101910005DF8047B704700BF80B582B000AF78608F
:10192000084A7B68536007480EF0D0FA0346002B44
:1019300003D00121044807F0A5FB00BF0837BD46CE
:1019400080BD00BFFC020020D06F010880B400AF52
:10195000034B1B681846BD465DF8047B704700BF0B
:101960006402002080B400AF044B1B680133034ABB
:10197000136000BFBD465DF8047B70476402002021
:1019800080B400AF094B1A68094BA3FB02131B0973
:10199000322101FB03F3D31A002B0CBF01230023D8
:1019A000DBB21846BD465DF8047B70476402002038
:1019B0001F85EB5180B400AF0A4B19680A4BA3FB9B
:1019C0000123DA0813469B0013445B00CA1A002A5D
:1019D0000CBF01230023DBB21846BD465DF8047B33
:1019E000704700BF64020020CDCCCCCC80B400AFE7
:1019F000044B1B6807EE903AB0EE670ABD465DF8EF
:101A0000047B70476802002080B584B000AF3E4B75
:101A100093F86230012B06D13C4BDB6A184609F083
:101A2000ADFDF86002E03A4B5B6AFB60364BD3EDEC
:101A3000037AF5EE407AF1EE10FA08D1FB6807EE72
:101A4000903AF8EEE77A334BC3ED1C7A0CE0FB6872
:101A500007EE903AB8EEE77A2B4BD3ED037A67EEB8
:101A6000277A2C4BC3ED1C7AFFF770FFB860294B27
:101A700093ED1C7A284BD3ED007AB4EE677AF1EE41
:101A800010FA2AD0234B9B6FBA68D31A7B60214B84
:101A900093ED1C7A204BD3ED007A77EE677A1D4BDD
:101AA000C3ED1D7A1B4B93ED1D7A7B6807EE903AD0
:101AB000F8EE677AC7EE276AB0EE660A00F03CF8E7
:101AC000F0EE407A134BC3ED1F7A124ABB6893675E
:101AD000104B1B6F104A136011E00E4B9B6FBA68DE
:101AE000D31A642B0BD90B4B4FF00002DA67094B6A
:101AF0004FF000025A67074B1B6F074A136000BF85
:101B00001037BD4680BD00BF9C0700207038002004
:101B1000000C0040180800206C02002080B400AFC8
:101B2000044B022283F8512000BFBD465DF8047BC0
:101B3000704700BF1808002080B483B000AF87ED65
:101B4000010AD7ED017AF5EEC07AF1EE10FA04D56C
:101B5000D7ED017AF1EE677A01E0D7ED017AB0EEC8
:101B6000670A0C37BD465DF8047B704780B500AF4F
:101B7000044BDB7D184606F0E5FEF0EE407AB0EE51
:101B8000670A80BD9C07002080B500AF044B1B7E18
:101B9000184606F0D7FEF0EE407AB0EE670A80BD38
:101BA0009C07002080B500AF044B5B7E184606F012
:101BB00061FFF0EE407AB0EE670A80BD9C0700201E
:101BC00080B500AF044B9B7E184606F053FFF0EE45
:101BD000407AB0EE670A80BD9C07002080B500AF58
:101BE000044BDB7E184606F0ADFEF0EE407AB0EE18
:101BF000670A80BD9C07002080B500AF054B93F8B5
:101C00005630184606F09EFEF0EE407AB0EE670AB7
:101C100080BD00BF9C07002080B500AF054B93F846
:101C20005230184606F08EFEF0EE407AB0EE670AAB
:101C300080BD00BF9C07002080B584B000AF9C4BE6
:101C40009B7D184606F07EFE87ED030A97ED037A2A
:101C5000D7ED037AB4EE677AF1EE10FA02D74FF0BF
:101C600000031EE1934B93F85130022B04D0914BAB
:101C700093F85130032B2FD1D7ED037AF5EE407A4C
:101C8000F1EE10FA28D08B4B93F85130022B20D173
:101C90000221894807F046F9022097ED030A07F070
:101CA0006BF90221854807F03DF9D7ED037AFDEE87
:101CB000E77AC7ED017ABB881BB20221184607F00C
:101CC000F9F802217E4807F02DF97A4B032283F8B8
:101CD00051204FF00003E4E0764B93F85830012B8D
:101CE00040F0DE80734B93F85130002B08D0714BDD
:101CF000022283F858200221724807F0C3F9CFE08E
:101D00006B4B1B7F032B08D06A4B022283F85820B1
:101D100002216D4807F0B6F9C2E0D7ED037AF5EE7F
:101D2000407AF1EE10FA08D0624B022283F8582074
:101D30000221664807F0A6F9B2E0654BD3ED037ABD
:101D40009FED647AF4EE477AF1EE10FA08D1594B20
:101D5000022283F8582002215F4807F093F99FE0A0
:101D60005B4BD3ED047A9FED5D7AF4EE477AF1EEAA
:101D700010FA08D14F4B022283F85820022158480C
:101D800007F080F98CE04A4BD3ED037AF5EE407A08
:101D9000F1EE10FA08D1474B022283F858200221B5
:101DA000504807F06FF97BE009F0BAFE0246414B5C
:101DB000DB6DD31AB3F5FA6F72D23E4B93F95930FB
:101DC000002B1DD13B4B93ED1C7A414BD3ED037A95
:101DD00037EE677A3E4BD3ED046A364BD3ED1C7A6F
:101DE00076EEE77AB4EEE77AF1EE10FA04D5314BED
:101DF000012283F8592003E02E4BFF2283F859205B
:101E000009F08EFE02462B4B1B6ED31A41F287322D
:101E1000934203D84FF00003FB6041E0254B93F958
:101E20005930012B1CD1234B93ED1C7A284BD3ED59
:101E3000047ADFED2D6A77EEE67AB4EEE77AF1EE1A
:101E400010FA03D51A4B1B6CFB6029E009F068FE01
:101E50000246184B1A66174BFF2283F859201FE0E1
:101E6000144B93ED1C7A1A4BD3ED037ADFED1E6A07
:101E700077EEA67AB4EEE77AF1EE10FA07DD0C4BB6
:101E8000D3ED107AF1EE677AC7ED037A08E009F036
:101E900047FE0246074B1A66064B012283F859207B
:101EA000FB6807EE903AB0EE670A1037BD4680BD7A
:101EB0009C070020180800201470010834700108E5
:101EC0004C700108A0700108E47001081471010849
:101ED00084070020000000CF3C7101080000004F83
:101EE0005C710108807101080000304280B590B03B
:101EF00000AF87ED010AFFF79FFE87ED0C0ACD4B7F
:101F0000D3ED0E7AB7EE007A37EE677AD7ED0C7A1A
:101F100027EE277AD7ED0C7A27EE277AD7ED0C7AC1
:101F200027EE277AC34BD3ED0E6AD7ED0C7A66EE17
:101F3000A77A77EE277AC7ED0F7ABE4B1B7F012B6E
:101F400000F00582BC4B5B6EFB62BC4BD3ED007AAC
:101F500097ED0F7A77EE677AC7ED0A7A97ED0A7AEE
:101F6000D7ED0B7AB4EEE77AF1EE10FA0ADCD7ED92
:101F70000B7AB1EE677AD7ED0A7AB4EEE77AF1EE32
:101F800010FA04DDAC4B012283F8542003E0AA4B85
:101F9000002283F8542097ED0A7AD7ED0B7AB4EE3D
:101FA000E77AF1EE10FA09DDA44B93ED007AD7ED54
:101FB0000B7A77EE277AC7ED0F7A13E0D7ED0B7A1D
:101FC000B1EE677AD7ED0A7AB4EEE77AF1EE10FA5D
:101FD00008DD9A4B93ED007AD7ED0B7A77EE677AAE
:101FE000C7ED0F7A944B93F85130002B40F0AF813E
:101FF000904B1B7F012B00F0AA818E4B1B7F022B85
:1020000000F0A5818E4B93ED037A8D4BD3ED047ACE
:10201000B4EEE77AF1EE10FA09DD894BDB687B62FA
:10202000874B1B69864AD360854A7B6A1361824B62
:1020300093ED1C7AD7ED017A37EE277A804BD3EDFA
:10204000047AB4EEE77AF1EE10FA17D57A4B93EDF5
:102050001C7AD7ED017A37EE677A794BD3ED037AA4
:10206000B4EEE77AF1EE10FA08DD734B002283F844
:102070005620714B002283F8572068E16E4B93ED98
:102080001C7AD7ED017A37EE277A6D4BD3ED047ABF
:10209000B4EEE77AF1EE10FAC0F29C80D7ED0F7A39
:1020A000F5EEC07AF1EE10FA40F38780002210219D
:1020B00064480AF075F9604B93ED1C7A604BD3EDE0
:1020C000047AB4EEE77AF1EE10FA06DB5B4B4FF0E0
:1020D00000021A60594B1B68BCE3584B93ED007A21
:1020E000D7ED0B7A77EE677AC7ED0F7AD7ED0F7AD7
:1020F000F5EEC07AF1EE10FA02D54FF00003FB6363
:102100004D4B93F8563083F00103DBB2002B19D00E
:1021100002214D4806F006FF494B93ED047A464BE9
:10212000D3ED1C7A77EE677A0220B0EE670A06F0EC
:1021300023FF0221454806F0F5FE022097ED010A33
:1021400006F0B4FF3C4B012283F85620394BD3ED07
:10215000087AF5EE407AF1EE10FA3BD0364B93ED6B
:102160001C7AD7ED017A37EE277A354BD3ED046A26
:10217000304BD3ED087A76EEA77AB4EEE77AF1EE3B
:1021800010FA27DB2C4B93F8573083F00103DBB2B6
:10219000002B03D002212E4806F074FF264B0122AB
:1021A00083F857200022102126480AF0F9F8234A24
:1021B000FB6B13604FF000034CE31F4B002283F8CE
:1021C00056201D4B002283F85720012210211D4864
:1021D0000AF0E6F8184B93ED1C7AD7ED017A37EE4A
:1021E000677A174BD3ED037AB4EEE77AF1EE10FA83
:1021F00000F2AD80D7ED0F7AF5EEC07AF1EE10FA6D
:1022000040F19880002210210E480AF0C9F80A4BCC
:1022100093ED1C7A0A4BD3ED037AB4EEE77AF1EE34
:1022200010FA17D8054B4FF000021A604FF0000368
:1022300010E300BF9C07002018080020680200205F
:102240008407002000040240B0710108D071010829
:10225000F0710108B84B93ED007AD7ED0B7A77EE69
:10226000277AC7ED0F7AD7ED0F7AF5EEC07AF1EE47
:1022700010FA02DD4FF00003FB63B04B93F85630C9
:1022800083F00103DBB2002B19D00221AC4806F029
:1022900049FEAA4B93ED1C7AAA4BD3ED037A77EE55
:1022A000677A0220B0EE670A06F066FE0221A648B1
:1022B00006F038FE022097ED010A06F0F7FE9F4B6C
:1022C000012283F85620A14BD3ED087AF5EE407A2F
:1022D000F1EE10FA3BD0994B93ED1C7AD7ED017AD1
:1022E00037EE677A974BD3ED036A984BD3ED087AB4
:1022F00076EEE77AB4EEE77AF1EE10FA27D88F4B54
:1023000093F8573083F00103DBB2002B03D0022196
:102310008F4806F0B7FE894B012283F85720002230
:1023200010218C480AF03CF8834AFB6B13604FF095
:1023300000038FE2814B002283F856207F4B00225E
:1023400083F857200122102182480AF029F87A4A9E
:10235000FB6B1360FFF70AFCB0EE407ADFED7E7A8C
:10236000B4EEE77AF1EE10FA0DDD744B93F85130CC
:10237000002B03D00221794806F084FE6F4B002227
:1023800083F8512019E06D4B93F85130012B06D0A2
:10239000734B00221A700221724806F073FE674BDD
:1023A000012283F85120704B93ED007AD7ED0F7A1C
:1023B00077EE277A6C4BC3ED007AFFF7E5FB87EDEC
:1023C000080AD7ED087A9FED647AF4EEC77AF1EE49
:1023D00010FA40F37381594B93F85130012B40F0C0
:1023E0006D81624BD3ED007A9FED5B7AF4EEC77A94
:1023F000F1EE10FA00F262815C4BD3ED007AF4EE5C
:10240000677AF1EE10FA80F15981554B1B78002B59
:102410000FD14A4B1B6F4B4AD360514B01221A70AC
:102420000221534806F02EFE4F4B4FF000021A6077
:1024300044E1424B1B6F434A13614B4BD3ED007A8F
:10244000B8EE087AF4EEC77AF1EE10FA0EDD464BDC
:10245000D3ED007AB0EE087AF4EEC77AF1EE10FA16
:1024600004D50221434806F00DFE27E1022142482F
:1024700006F008FE354BD3ED037AF5EE407AF1EE27
:1024800010FA40F085802F4B93ED037A2D4BD3ED5E
:10249000047AB4EEE77AF1EE10FA07D5324BD3EDB9
:1024A000007AF5EEC07AF1EE10FA12DC254B93EDCE
:1024B000037A244BD3ED047AB4EEE77AF1EE10FA06
:1024C00010DD294BD3ED007AF5EEC07AF1EE10FA6B
:1024D00008D51E4B4FF07E52DA600221274806F0E5
:1024E000D1FD16E0194B264ADA60164BD3ED037A7C
:1024F000F1EE677A134BC3ED037A124BD3ED047AF6
:10250000F1EE677A0F4BC3ED047A02211D4806F005
:10251000B9FD02211C4806F0B5FD00227C210B48C4
:1025200000F0ECFAF861FB69002B00F095800221C5
:10253000164806F0A7FD8FE068020020180800206A
:10254000B071010884070020D07101089C070020A9
:10255000F071010800040240CDCC4C3F0472010828
:102560007C020020207201087802002080020020F6
:102570004472010850720108A8720108B47201087F
:10258000000080BFF07201082C7301086C73010811
:10259000B44B93ED037AB34BD3ED047AB4EEE77A00
:1025A000F1EE10FA07D5B04BD3ED007AF5EEC07A14
:1025B000F1EE10FA12DCAB4B93ED037AA94BD3ED9D
:1025C000047AB4EEE77AF1EE10FA11DDA64BD3ED02
:1025D000007AF5EEC07AF1EE10FA09D5A34BD3EDEF
:1025E000037ABFEE007AF4EE477AF1EE10FA2FD0BC
:1025F0009C4B93ED037A9B4BD3ED047AB4EEE77AD0
:10260000F1EE10FA07DD984BD3ED007AF5EEC07AC3
:10261000F1EE10FA12D4934B93ED037A914BD3ED74
:10262000047AB4EEE77AF1EE10FA15D58E4BD3EDBD
:10263000007AF5EEC07AF1EE10FA0DDD8B4BD3ED9A
:10264000037AB7EE007AF4EE477AF1EE10FA03D18E
:102650000221874806F016FD0221864806F062FC3A
:10266000804BD3ED037A0220B0EE670A06F084FCBB
:102670000221814806F056FC7A4BD3ED047A022001
:10268000B0EE670A06F012FD764B93ED037A754BB8
:10269000D3ED047AB4EEE77AF1EE10FA09DD714B6E
:1026A000DB68BB616F4B1B696E4AD3606D4ABB69C7
:1026B0001361032218216B4800F074FA6F4A3B6AD9
:1026C00013606F4B93F85130002B06D0674B5B6C57
:1026D000BB63664B9B6C7B6305E0644BDB6BBB634E
:1026E000624B1B6C7B63FFF75DFA87ED050A97ED84
:1026F000057AD7ED057AB4EE677AF1EE10FA19D6BD
:10270000D7ED057AB7EE007A77EE877AF0EE006AB9
:1027100087EEA67AD7ED0E7ADFED5A6A77EEE67A83
:1027200067EE277A9FED577A77EE877A544BC3EDA1
:10273000197A02E0524ABB6B5366FFF741FA87ED04
:10274000040A97ED047AD7ED047AB4EE677AF1EED5
:1027500010FA19D6D7ED047AB7EE007A77EE877AB9
:10276000F0EE006A87EEA67AD7ED0D7ADFED466AC5
:1027700077EEE67A67EE277A9FED437A77EE877AEF
:102780003F4BC3ED1A7A02E03D4A7B6B9366FFF73D
:1027900025FA87ED030A97ED037AD7ED037AB4EEB5
:1027A000677AF1EE10FA30D6D7ED037A9FED377ADB
:1027B000F4EEC77AF1EE10FA03D52C4B01221A770A
:1027C0000FE0D7ED037A9FED327AF4EEC77AF1EE9F
:1027D00010FA03DD254B03221A7702E0234B022275
:1027E0001A77224B1A7F2B4B1B789A420DD01F4B26
:1027F0001A7F284B1A701D4B1B7F184605F044FAB0
:1028000003460221184606F03DFCFFF7F5F987ED77
:10281000020A97ED027AD7ED027AB4EE677AF1EE0A
:1028200010FA12D6D7ED027A9FED1B7AF4EEC77A32
:10283000F1EE10FA09DD124B012283F8582009F05D
:102840006FF902460E4BDA6503E00D4B002283F868
:102850005820FB6B07EE903AB0EE670A4037BD4652
:1028600080BD00BF84070020780200209C07002064
:1028700088730108B8730108C4730108800200203E
:10288000180800206F12833ACDCCCC3D9A9999BE9E
:102890009A99993E0F010020CDCC4C3F80B588B06D
:1028A00000AFFFF7B1F8FFF7A1F8F0EE406A734B05
:1028B000D3ED197A86EEA77AB0EE470AFFF73CF916
:1028C00087ED060A6D4B93ED1F7AD7ED067A27EE5A
:1028D000277AF0EE006AC7EE267AC7ED057A97ED03
:1028E000050AFFF703FB87ED040AD7ED047AF5EE3E
:1028F000C07AF1EE10FA21DD614A624BB3F92E3055
:102900001946604BB3F930300B445C4991ED1A7AAB
:10291000D7ED047A27EE277A5A49B1F9321007EE3B
:10292000901AF8EEE77A67EE277AFDEEE77AC7EDC0
:10293000017AB98809B20B44D3632DE0D7ED047A4C
:10294000F5EEC07AF1EE10FA21D54D4A4D4BB3F9B0
:102950002E3019464B4BB3F93030CB1A474991ED25
:102960001A7AD7ED047A27EE277A4649B1F9321060
:1029700007EE901AF8EEE77A67EE277AFDEEE77A2F
:10298000C7ED017AB98809B20B44D36304E03C4B2C
:102990003C4AB2F92E20DA6397ED040A08F0FCFDF8
:1029A000FFF73AF987ED030AD7ED037AF5EEC07A1F
:1029B000F1EE10FA1CDD324A324BB3F9643019469D
:1029C000304BB3F966300B442E49B1F9681007EE6D
:1029D000901AB8EEE77AD7ED037A67EE277AFDEE24
:1029E000E77AC7ED017AB98809B20B44136428E08D
:1029F000D7ED037AF5EEC07AF1EE10FA1CD5204A35
:102A0000204BB3F9643019461E4BB3F96630CB1A2C
:102A10001C49B1F9681007EE901AB8EEE77AD7EDC5
:102A2000037A67EE277AFDEEE77AC7ED017AB98877
:102A300009B20B44136404E0114B124AB2F964204A
:102A40001A640023FB610FE0FB69DBB2184600F05B
:102A50001DF8F0EE407A0C4AFB699B001344C3ED6D
:102A6000007AFB690133FB61FB69072BECDD06484B
:102A700005F016FD00BF2037BD4680BD18080020B8
:102A8000000400409C070020DC02002080B582B0DA
:102A900000AF0346FB71FB790B4A134493F85730A0
:102AA000402B02D9DFED097A09E0FB79064A13448D
:102AB00093F85730184605F0DDFFF0EE407AB0EE9F
:102AC000670A0837BD4680BD9C0700200000C07F14
:102AD00080B500AF06F0CAFD0246064B1A60054BF2
:102AE0001B68054A934201D0002300E000231846EA
:102AF00080BD00BF840200201520200080B584B076
:102B000000AF78600B467B8013463B800E4B1B6802
:102B1000092B01D8022312E03B881B04FB60F868F4
:102B200006F038FB7B881A46F968786806F0F0FBF7
:102B30007B881A46F968786806F0D4FC0346184684
:102B40001037BD4680BD00BF8402002080B584B030
:102B500000AF0346FB80084B1B68092B01D80223FA
:102B600006E0FB881B04FB60F86806F013FB0346D5
:102B700018461037BD4680BD8402002080B584B061
:102B800000AFF860B9601346FB80FB881B04BA688D
:102B90001946F86806F00EFD034618461037BD4684
:102BA00080BD00BF80B582B000AF78600B467B80EF
:102BB00013463B80114B1B88002B19D10F4B1B88F0
:102BC00001339AB20D4B1A800D4A7B6813600D4A8F
:102BD0007B8813803B881B040B4A136008F0A0FF1E
:102BE000034603F51C531033084A1360002300E02A
:102BF000012318460837BD4680BD00BF880200206B
:102C00008C020020900200209402002098020020F4
:102C100080B582B000AF324B1B88002B5CD0002304
:102C20007B602F4B1B88013B042B3FD801A252F83D
:102C300023F000BF492C0008632C00087B2C0008FF
:102C4000632C00089D2C0008264B1B68184606F0D4
:102C5000B5FA7860224B1B8801339AB2204B1A8058
:102C600029E006F0EDFD0346002B23D11C4B1B8809
:102C700001339AB21A4B1A801CE01B4B1868194B8F
:102C800019681A4B1B881A4606F05AFB7860144BD9
:102C90001B8801339AB2124B1A800CE002211448AF
:102CA00006F0F0F90E4B00221A8004E00C4B0022D3
:102CB0001A8000E000BF7B68002B06D108F030FFCF
:102CC00002460C4B1B689A4206D9054B00221A801B
:102CD0000221094806F0D6F900BF0837BD4680BD7D
:102CE00088020020940200208C0200209002002024
:102CF000587401089802002070740108B0B5A4B09F
:102D000000AF08F08DFE00F065FA00F09FFD00F0C6
:102D1000EFFA00F017FB00F04FFB00F097FB00F01C
:102D200033FD07F07FFC00F001FD00F0F7FB00F041
:102D300059FD00F07BFE08F097FB0421BA480CF027
:102D400011F801221021B94809F02AFB0821B848DE
:102D50000BF07EFE0346002B03D09021B54800F017
:102D60002BFE0C21B2480BF073FE0346002B03D060
:102D70009521B04800F020FEFFF7AAFE0346002B85
:102D800003D09B21AB4800F017FEAB4BAB4A07CA00
:102D900003C31A70A84B4FF00002DA60A64BA84A92
:102DA0001A62A54B01221A77A34B002283F82C202C
:102DB000A14BFF221A76A04BFF22DA759E4B002210
:102DC0009A759D4BFF225A769B4BFF229A769A4B1F
:102DD000FF22DA76984B9B4ADA63974B9A4A5A64F9
:102DE000954B4FF07E521A64934B4FF07A529A648F
:102DF000914B4FF478721A828F4B1E225A828E4B5F
:102E00004FF42F725A868C4B40F2DC52DA858A4B93
:102E10001E221A86884B4FF448729A82864B4CF2D7
:102E200050325A63844B884A9A63834B3C22A3F8FE
:102E30004E20814B0A22A3F84C207F4B0122A3F89D
:102E400050207D4BFF2283F852207B4BFF2283F8DA
:102E50005320794BFF2283F85420774BFF2283F8CD
:102E60005520754BFF2283F85620734B4FF42F7279
:102E7000A3F86820704B40F2DC52A3F864206E4B3C
:102E80000022A3F866206C4B002283F86220002306
:102E9000C7F88C3014E0684AD7F88C3013445733A5
:102EA000FF221A70644AD7F88C3034335B00134425
:102EB0004FF478729A80D7F88C300133C7F88C3091
:102EC000D7F88C30072BE6DD5B4B7C22A3F8602023
:102ED00007F10C0300227C211846FFF74FFE07F193
:102EE0000C030B221946544810F0C2FC0346002B79
:102EF00012D1514B184607F10C037C2219460FF0F2
:102F000009FD524A524B14461D460FCD0FC495E899
:102F1000070084E8070067E007F10C0304224D492D
:102F2000184610F0A5FC0346002B0FD1474A4A4B28
:102F300014461D460FCD0FC40FCD0FC40FCD0FC4C7
:102F400095E803002060043421804DE007F10C0374
:102F500004224249184610F08BFC0346002B3BDB51
:102F6000354A3B4607CA03C31A800233120C1A7053
:102F7000B7F86C30A7F88A30B7F88A30002B03D046
:102F8000B7F88A307C2B02D97C23A7F88A30B7F8AF
:102F90008A2007F10C03194627480FF0BBFC264B8B
:102FA0003A4607CA03C31A800233120C1A70224B26
:102FB0007C22A3F86020254A294B14461D460FCDDC
:102FC0000FC40FCD0FC40FCD0FC42B681A4622803B
:102FD00002341B0C237007E01C4A224B1046194692
:102FE00044231A460FF096FC032218211E48FFF7CF
:102FF000C5FD0B221D491C4810F03AFC0346002B6E
:1030000038D002211A4806F03DF8174B4FF09E4287
:103010001A61154B4FF04F42DA60134B134A07CA3F
:1030200003C31A703EE000BF4003002000040240CA
:103030007C030020847401089C0700209074010820
:103040000000C8420AD7233CCDCCCC3D1808002054
:103050009C740108B8740108C0740108F874010870
:10306000007501083475010884070020787501088F
:103070008475010802214B4805F054FF4A4BD3EDFB
:10308000037A0220B0EE670A05F076FF0221474876
:1030900005F048FF444BD3ED047A0220B0EE670AF6
:1030A00006F004F8404B18229A82414B93F82C30DA
:1030B000012B02D100F03CFC01E000F05DFCFEF7CA
:1030C0002DFD08F011FA03464FF4007219463948F5
:1030D0000DF04CF84FF400723749384807F024F9E6
:1030E00008F01EFD0246364B1B68D31A142B42D93A
:1030F00008F016FD0246324B1A60FEF733FC07F06B
:10310000BBFCFEF73DFC0346002B01D008F0ECFAB7
:10311000FEF736FC0346002B08D02A4B93F85130BB
:10312000002B03D12021284809F054F9FEF742FC76
:103130000346002B08D0234B93F85130012B03D1C9
:103140002021214809F046F91E4B93F85130022BFB
:1031500004D01C4B93F85130032B05D100221021D1
:10316000194809F01DF904E001221021164809F060
:1031700017F9FFF793FB07F0A7FB0346002B03D0DB
:103180001249012000F068FE07F0A4F90346002B65
:1031900003D00F49002000F05FFE05F06DFEFFF741
:1031A00037FD9DE7B875010884070020C875010840
:1031B0009C07002044070020AC040020FC020020F3
:1031C0003C0300201808002000040240500E00209C
:1031D0002C0A002080B598B000AF0023BB60404AA5
:1031E0003F4B1B6C43F0805313643D4B1B6C03F04F
:1031F0008053BB60BB6800237B603A4A394B1B6835
:1032000043F480431360374B1B6803F480437B60B7
:103210007B680B233B634FF480337B630123FB63A9
:1032200010233B6401237B640223BB644FF48003BF
:10323000FB6404233B6548237B650223BB650323B2
:10324000FB6507F1300318460AF0CCF90346002B62
:1032500004D040F26B11244800F0AEFB0F23FB6159
:1032600000233B6200237B620023BB620023FB62DE
:1032700007F11C03002118460AF00EFC0346002B40
:1032800004D040F27911184800F096FB0223FB604D
:103290004FF40073BB6107F10C0318460AF0DCFD24
:1032A0000346002B04D04FF4C0710F4800F084FB9C
:1032B0000AF082FD02460D4BA3FB02239B09184630
:1032C00008F080FD042008F089FD002200214FF065
:1032D000FF3008F03FFD00BF6037BD4680BD00BF36
:1032E000003802400070004084740108D34D621021
:1032F00080B500AF104B114A1A600F4B00225A6084
:103300000D4B7F229A600C4BFF22DA600A4B0022A1
:103310001A61094B00225A61074B00229A61064844
:103320000AF0CEFE0346002B04D040F29D11044863
:1033300000F042FB00BF80BD500400200028004088
:103340008474010880B500AF184B194A1A60174BF6
:103350004FF482725A60154B00229A60134B002280
:10336000DA60124B00221A61104B00225A610F4B97
:1033700000229A610D4B0022DA610C4B00221A6286
:103380000A4B00225A62094B00229A62074B0A221A
:10339000DA6206480AF03CFF0346002B04D040F2F4
:1033A000B311044800F008FB00BF80BDEC0600200C
:1033B000003001408474010880B500AF012208216B
:1033C0001E4808F0EDFF1E4B1E4A1A601C4B4FF4BE
:1033D00082725A601A4B00229A60194B0022DA60FE
:1033E000174B02221A61164B01225A61144B4FF4FB
:1033F00000729A61124B0822DA61114B00221A62A4
:103400000F4B00225A620E4B00229A620C4B07228D
:10341000DA620B480AF0FCFE0346002B04D04FF49E
:10342000E571094800F0C8FA054B1B68044A1268A8
:10343000126842F040021A6000BF80BD00040240E2
:10344000B8030020003C00408474010880B58AB0B5
:1034500000AF2F4B2F4A1A602D4B0F225A602C4B76
:1034600000229A602A4B44F62062DA60284B002240
:103470001A6127480BF0C0FA0346002B04D040F233
:10348000DF11254800F098FA00233B6200237B629D
:1034900007F1200319461E480CF0BEFC0346002B22
:1034A00004D04FF4F3711C4800F086FA60237B606F
:1034B00040F2DC53BB600023FB6000237B610023F0
:1034C0003B610023FB610023BB613B1D08221946C1
:1034D0000F480BF043FE0346002B04D04FF4F97164
:1034E0000D4800F069FA3B1D0C22194608480BF004
:1034F00035FE0346002B04D040F2F711064800F0D9
:103500005BFA034806F0B6FB00BF2837BD4680BD16
:103510007C030020000400408474010880B58CB056
:1035200000AF224B224A1A60204B00225A601F4BE8
:1035300000229A601D4B4FF0FF32DA601B4B0022D5
:103540001A610323FB6000233B6101237B6100239D
:10355000BB610423FB6100233B6201237B620023E8
:10356000BB620423FB6207F10C0319460F480BF002
:1035700063FB0346002B04D040F213210D4800F0FA
:103580001BFA00237B600023BB603B1D19460748E4
:103590000CF042FC0346002B04D040F21A210548EF
:1035A00000F00AFA00BF3037BD4680BD400300205E
:1035B000000C00408474010880B58CB000AF3E4B15
:1035C0003E4A1A603C4B0F225A603B4B00229A60E5
:1035D000394B4FF6FF72DA60374B00221A61364BD7
:1035E00000225A6134480BF0DBF90346002B04D06B
:1035F00040F22E21324800F0DFF92F480BF05CFA40
:103600000346002B04D040F233212D4800F0D4F9BA
:103610000423FB6160233B6202237B620023FB6285
:1036200007F11C03194624480BF05EFE0346002BED
:1036300004D04FF40F71224800F0BEF900237B61E3
:103640000023BB6107F1140319461B480CF0E4FB8F
:103650000346002B04D040F24321194800F0ACF996
:1036600002237B600123BB600023FB6000233B61DE
:103670003B1D0822194610480BF0D4FC0346002BD2
:1036800004D040F24E210E4800F096F900237B60F2
:103690000223BB603B1D0C22194607480BF0C2FCFD
:1036A0000346002B04D040F25621054800F084F96F
:1036B00000BF3037BD4680BD7004002000000140CF
:1036C0008474010880B500AF144B154A1A60134B7F
:1036D000144A5A60114B4FF480529A600F4B4FF4CA
:1036E0000052DA600D4B4FF480621A610B4B0422DA
:1036F0005A610A4B00229A61084B4FF40042DA618A
:1037000006480CF0E3FB0346002B04D040F26B218B
:10371000054800F051F900BF80BD00BF1004002033
:1037200000100140A08601008474010880B500AF3C
:10373000124B134A1A60114B4FF4E1325A600F4B8F
:1037400000229A600D4B0022DA600C4B00221A61B5
:103750000A4B0C225A61094B00229A61074B002246
:10376000DA6106480CF0B2FB0346002B04D040F2AD
:103770007F21044800F020F900BF80BD44070020ED
:10378000004400408474010880B500AF124B134A16
:103790001A60114B4FF416425A600F4B00229A6088
:1037A0000D4B0022DA600C4B00221A610A4B0C22EE
:1037B0005A61094B00229A61074B0022DA610648E0
:1037C0000CF084FB0346002B04D040F29321044804
:1037D00000F0F2F800BF80BDFC020020004800406D
:1037E0008474010880B500AF144B154A1A60134B5E
:1037F000144A5A60114B4FF480529A600F4B4FF4A9
:103800000052DA600D4B4FF480621A610B4B0822B4
:103810005A610A4B00229A61084B4FF40042DA6168
:1038200006480CF053FB0346002B04D040F2A721BE
:10383000054800F0C1F800BF80BD00BFAC06002005
:1038400000140140A08601008474010880B58AB08C
:1038500000AF00233B61324A314B1B6B43F08003C6
:1038600013632F4B1B6B03F080033B613B69002309
:10387000FB602B4A2A4B1B6B43F001031363284B5D
:103880001B6B03F00103FB60FB680023BB60244A51
:10389000234B1B6B43F004031363214B1B6B03F09F
:1038A0000403BB60BB6800237B601D4A1C4B1B6B81
:1038B00043F0020313631A4B1B6B03F002037B609C
:1038C0007B6800223821174808F06AFD10237B61CD
:1038D000154BBB610023FB6107F114031946134824
:1038E00008F0C8FA01237B610123BB610023FB615F
:1038F00007F1140319460D4808F0BCFA38237B6120
:103900000123BB610023FB6100233B6207F1140329
:103910001946044808F0AEFA00BF2837BD4680BDFE
:10392000003802400004024000001110000802406C
:1039300080B500AF08210D480BF0F4F80C210B48BE
:103940000BF0F0F8FFF7BEFE05F002F9034619226E
:10395000194607480CF00AFC01220121054808F02D
:103960001FFD012004F016FD00BF80BD7004002083
:10397000100400200008024080B500AF0B480CF096
:10398000F3FAFFF719FE01220121094808F008FDAA
:10399000082108480BF0F0F80C2106480BF0ECF871
:1039A000002004F0F7FC00BF80BD00BF1004002021
:1039B000000802407004002080B5ADF5805D82B043
:1039C00000AF07F10803043B186007F10803083B48
:1039D0001960144B144AB2F92E20DA6307F1080378
:1039E000083B07F10800022219460EF093FF07F189
:1039F0000803043B18680FF033FF0346591C07F116
:103A00000803043B07F10802901C0A4619680EF0EF
:103A100081FF07F1080305224FF480511846FFF794
:103A20006DF8FEE7000400409C07002080B400AF62
:103A3000044B002283F86C2000BFBD465DF8047B78
:103A4000704700BF1808002080B582B000AF034661
:103A50000A46FB711346BB71BB791946074805F04E
:103A600061FAFB79064A52F82330BA7911461846B2
:103A700005F008FB00BF0837BD4680BDE8770108A8
:103A80001001002080B584B000AF0346FB71164BD7
:103A90001B7883F02003DAB2134B1A70124B1B7899
:103AA00083F04F03DAB2104B1A700F4B1B7883F080
:103AB0004B03DAB20C4B1A700B4B1B7807F1080062
:103AC0000A4A05210FF04AFEFB791946084805F01D
:103AD00029FAFA7907F108031146184605F0D2FAD7
:103AE00000BF1037BD4680BD9C020020F47701085E
:103AF000FC77010880B582B000AF03460A46FB712F
:103B00001346BB71BB791946074805F00BFABA7921
:103B1000FB791146184605F0E9F9044AFB79137060
:103B200000BF0837BD4680BD047801089C02002014
:103B300080B584B000AF78600B46FB700023FB605B
:103B40000CE0FB687A6813441A780D4B1B785340DD
:103B5000DAB20B4B1A70FB680133FB60FB68272B52
:103B600005DCFB687A6813441B78002BE9D1FB78ED
:103B70001946786805F0D6F900BF1037BD4680BDFC
:103B80009C02002080B582B000AF03460A46FB715C
:103B90001346BB71084B1A78FB795340DAB2064BD7
:103BA0001A70BA79FB791146184605F09FF900BFE3
:103BB0000837BD4680BD00BF9C02002090B59DB077
:103BC00002AF87ED020B0346FB7107F11400D7E942
:103BD0000234CDE90034154A50210FF0BFFD002317
:103BE0007B660DE007F114027B6E13441A78104BCC
:103BF0001B785340DAB20E4B1A707B6E01337B6632
:103C00007B6E272B06DC07F114027B6E13441B78B6
:103C1000002BE7D1FA7907F114031146184605F095
:103C200081F900BF6C37BD4690BD00BF0878010820
:103C30009C02002090B59BB002AF87ED010A0346BD
:103C4000FB7078680EF02EFB03460C4607F10C0063
:103C5000CDE90034144A50210FF080FD0023FB65AC
:103C60000DE007F10C02FB6D13441A780F4B1B7823
:103C70005340DAB20D4B1A70FB6D0133FB65FB6DDF
:103C8000272B06DC07F10C02FB6D13441B78002B7D
:103C9000E7D1FA7807F10C031146184605F042F90E
:103CA00000BF6437BD4690BD107801089C0200201B
:103CB00080B598B000AF03460A46FB8013467B717F
:103CC000B7F9063007F10C00144A50210FF046FDF9
:103CD0000023FB650DE007F10C02FB6D13441A781D
:103CE0000F4B1B785340DAB20D4B1A70FB6D01334A
:103CF000FB65FB6D272B06DC07F10C02FB6D134403
:103D00001B78002BE7D17A7907F10C03114618468E
:103D100005F008F900BF6037BD4680BD187801087E
:103D20009C02002080B584B000AF03460A46FB71B8
:103D30001346BB71FB7907F10800154A03210FF008
:103D40000DFD0023FB600DE007F10802FB68134442
:103D50001A78104B1B785340DAB20E4B1A70FB687E
:103D60000133FB60FB68022B06DC07F10802FB68ED
:103D700013441B78002BE7D1BA7907F108031146E9
:103D8000184605F0CFF800BF1037BD4680BD00BF14
:103D90001C7801089C02002080B598B000AF7860C4
:103DA0000B46FB7007F10C007B68154A50210FF0A1
:103DB000D5FC0023FB650DE007F10C02FB6D1344FD
:103DC0001A78104B1B785340DAB20E4B1A70FB6D09
:103DD0000133FB65FB6D272B06DC07F10C02FB6D45
:103DE00013441B78002BE7D1FA7807F10C03114636
:103DF000184605F097F800BF6037BD4680BD00BF8C
:103E0000247801089C02002080B483B000AF0346F0
:103E1000FB71FB792F2B05D9FB79392B02D8FB7964
:103E2000303B13E0FB79602B05D9FB79662B02D878
:103E3000FB79573B0AE0FB79402B05D9FB79462BF0
:103E400002D8FB79373B01E04FF0FF3318460C37BF
:103E5000BD465DF8047B704780B586B000AF034671
:103E60003960FB710023FB820023BB8295E0FB8A53
:103E70005A1CFA821A463B6813441B787B747B7C7D
:103E8000002B00F090804A4B1B78202B09D17B7CC3
:103E9000242B02D07B7C212B7FD1454B24221A700E
:103EA0007BE07B7C0A2B02D07B7C0D2B27D1BB8A4D
:103EB000002B06D1FB8A013B3A68134400221A709A
:103EC00004E0BB8A3A68134400221A70384B1B780E
:103ED0002A2B09D1FA7CBB7C9A4205D0FB79194682
:103EE0000420FFF7B1FD04E0FB793968184600F0C3
:103EF00063F80023FB742E4B20221A704DE07B7C6C
:103F00002A2B06D12A4B31221A70FB8A013BBB8235
:103F100043E0274B1B78312B10D17B7C1846FFF7F1
:103F200073FFF860FB68B3F1FF3F36D0FB68DBB28C
:103F30001B01BB741E4B32221A702EE01C4B1B78E7
:103F4000322B11D17B7C1846FFF75EFFB860BB684F
:103F5000B3F1FF3F21D0BB68DAB2BB7C1344BB7422
:103F6000134B2A221A7018E0114B1B78242B04D112
:103F7000FA7C7B7C5340FB740FE00D4B1B782A2BA3
:103F800005D1FB7919460520FFF75EFD0CE0FB79B2
:103F900019460020FFF758FD06E0FB8AB3F5007FC5
:103FA000FFF465AF00E000BF1837BD4680BD00BF1D
:103FB0004C0100200000000090B5ADF58E5D85B08D
:103FC00006AF024607F11803103B196007F118030A
:103FD000093B1A7007F11803103B1B685B7807F563
:103FE0008C5202F11F02137007F58C5303F11F036B
:103FF0001B782D3B4B2B03F2828001A252F823F059
:10400000C7700008FF700008FF700008FF7000080C
:10401000A55F0008FF700008FF700008FF7000082F
:10402000FF700008FF700008FF700008FF700008B4
:10403000FF700008FF700008FF700008FF700008A4
:10404000FF700008FF700008FF700008FF70000894
:104050003B4E0008FF590008FF700008FD6800088B
:104060008D5B0008FF700008136700088566000874
:10407000DB510008FF700008FF700008FF700008A7
:10408000FF700008994C0008FF700008816F00085D
:10409000FF700008FF70000833540008FF7000082C
:1040A000FF700008937000083D460008FF7000088C
:1040B000FF7000080F700008FF700008FF70000814
:1040C000FF700008FF700008C3700008FF70000850
:1040D00031410008375600086F5A00086354000841
:1040E0000B510008FF700008DB420008095300086C
:1040F00091460008DF6A0008FF700008FF700008A2
:1041000035530008F94A0008FF700008A74300086B
:10411000FF700008ED4F0008FF700008FF700008F6
:10412000FF7000084D440008B34500081B59000803
:1041300007F11803103B1B68981C07F58C530433D8
:1041400007F58C52BA490FF05FFB034607F58C5216
:1041500002F11C02138007F58C5303F11C03B3F921
:104160000030022B5DD107F58C53D3ED007AF5EECC
:10417000C07AF1EE10FA4ADD07F58C5303F104031F
:10418000D3ED007AF5EEC07AF1EE10FA3FDD07F5D7
:104190008C53D3ED007AB7EE007AF4EEC77AF1EEE5
:1041A00010FA34D507F58C5303F10403D3ED007AEC
:1041B000B7EE007AF4EEC77AF1EE10FA27D507F5DC
:1041C0008C53D3ED007A9FED9B7A67EE877A9A4BFA
:1041D000C3ED0F7A07F58C5303F10403D3ED007A96
:1041E0009FED947A67EE877A934BC3ED117A07F1CE
:1041F0001803093B1B7819466120FFF77BFC07F188
:104200001803093B1B781846FFF73CFC62E007F1F6
:104210001803093B1B7819460E20FFF715FC02F026
:1042200077BF07F58C5303F11C03B3F90030002B63
:1042300048DC07F11803093B1B7819466120FFF79A
:1042400059FC7D4BD3ED0F7A9FED7A7AC7EE876AE2
:1042500007F11803093B1B781846B0EE660AFFF712
:10426000E9FC754BD3ED117A9FED727AC7EE876A40
:1042700007F11803093B1B781846B0EE660AFFF7F2
:10428000D9FC07F11803093B1B781846FFF7FAFB26
:1042900007F11803093B1B781946684804F042FEF1
:1042A000674B93F8543007EE903AF8EE677A07F1CF
:1042B0001803093B1B781846B0EE670A04F0F6FEB7
:1042C00002F026BF07F11803093B1B7819460720A7
:1042D000FFF7BAFB00BF02F01BBF07F11803103B4A
:1042E0001B68023307F58B5202F11C025549184630
:1042F0000FF08AFA034607F58C5202F11C02138074
:1043000007F58C5303F11C03B3F90030012B2CD1BA
:1043100007F58B5303F11C03D3ED007AF5EEC07A59
:10432000F1EE10FA17DD07F58B5303F11C031B6840
:10433000414A136207F11803093B1B7819466720AD
:10434000FFF7D8FB07F11803093B1B781846FFF766
:1043500099FB02F0DDBE07F11803093B1B781946F3
:104360000E20FFF771FB02F0D3BE07F11803093BE3
:104370001B7819466720FFF7BDFB2F4BD3ED087A5A
:1043800007F11803093B1B781846B0EE670AFFF7E0
:1043900051FC07F11803093B1B781846FFF772FB25
:1043A00000BF02F0B5BE07F11803093B1B781946A0
:1043B0007020FFF79FFB244BD3ED037AFDEEE77AE5
:1043C00007F11803093B1B78194617EE900AFFF70F
:1043D000E3FC1D4BD3ED047AFDEEE77A07F11803F9
:1043E000093B1B78194617EE900AFFF7D5FC144BD2
:1043F000D3ED1C7A07F11803093B1B781846B0EE81
:10440000670AFFF717FC0E4BD3ED1F7A07F118036D
:10441000093B1B781846B0EE670AFFF70BFC07F163
:104420001803093B1B781846FFF72CFB02F070BEFF
:104430002C7801080AD7A33C9C0700203478010897
:1044400018080020447801088407002007F11803A9
:10445000103B1B68981C07F58B5303F114030433BE
:1044600007F58B5202F1140284490FF0CDF903468F
:1044700007F58C5202F11C02138007F58C5303F1EF
:104480001C03B3F90030022B57D107F58B5303F10E
:104490001403D3ED007AF5EEC07AF1EE10FA42DDA6
:1044A00007F58B5303F11803D3ED007AF5EEC07ACC
:1044B000F1EE10FA37DD07F58B5303F11403D3ED5A
:1044C000007AB7EE007AF4EEC77AF1EE10FA2AD845
:1044D00007F58B5303F11803D3ED007AB7EE007A9A
:1044E000F4EEC77AF1EE10FA1DD507F58B5303F100
:1044F00014031B68624A136407F58B5303F1180316
:104500001B685F4A936407F11803093B1B7819463F
:104510007620FFF7EFFA07F11803093B1B781846DE
:10452000FFF7B0FA42E007F11803093B1B78194680
:104530000E20FFF789FA02F0EBBD07F58C5303F16B
:104540001C03B3F90030002B28DC07F11803093BEA
:104550001B7819467620FFF7CDFA494BD3ED107A38
:1045600007F11803093B1B781846B0EE670AFFF7FE
:1045700061FB434BD3ED127A07F11803093B1B781B
:104580001846B0EE670AFFF755FB07F11803093B21
:104590001B781846FFF776FA02F0BABD07F1180348
:1045A000093B1B7819460720FFF74EFA00BF02F0BF
:1045B000AFBD00227C213248FEF7A0FA07F58C53EC
:1045C00003F118031860032218212E48FEF796FA0B
:1045D000024607F58C5303F118031B68134407F5D3
:1045E0008C5202F11802136007F11803093B1B7883
:1045F00019467720FFF77EFA07F58C5303F118036D
:104600001B68002B10D107F11803093B1B781946D2
:104610001D48FFF78DFA07F11803093B1B78184670
:10462000FFF730FA02F074BD07F11803093B1B785D
:1046300019460820FFF708FA02F06ABD0020FEF7CD
:1046400085FA0320FEF782FA07F11803093B1B786D
:1046500019465720FFF74EFA07F11803093B1B785C
:1046600019460A48FFF764FA07F11803093B1B785B
:104670001846FFF707FA02F04BBD00BF2C7801087F
:104680009C0700208407002048780108687801080A
:1046900007F11803103B1B68981C07F58B5303F1B7
:1046A0000403991C07F58B5202F1040207F58B53A2
:1046B00003F104030E33059307F58B5303F1040351
:1046C0000C33049307F58B5303F104030A3303936C
:1046D00007F58B5303F104030833029307F58B535B
:1046E00003F104030633019307F58B5303F104032D
:1046F000043300930B46AF490FF086F8034607F5E5
:104700008C5202F11C02138007F58C5303F11C0339
:10471000B3F90030002B40F3518107F58B5303F1BF
:104720000403B3F90030002B40F3398107F58B53B4
:1047300003F10403B3F90030102B00F3308107F5C7
:104740008B5303F10403B3F90030DBB2013BDAB25F
:10475000994B9A7507F11803093B1B781946692094
:10476000FFF7C8F9944B9B7D9BB201339BB21AB201
:1047700007F11803093B1B7819461046FFF798FA12
:1047800007F58C5303F11C03B3F90030012B1CDD3A
:1047900007F58B5303F10603B3F90030184602F016
:1047A000C5FC0346DBB2013BDAB2834BDA75824BC0
:1047B000DB7D9BB201339BB21AB207F11803093BB0
:1047C0001B7819461046FFF773FA07F58C5303F16F
:1047D0001C03B3F90030022B1CDD07F58B5303F1EA
:1047E0000803B3F90030184602F0A0FC0346DBB220
:1047F000013BDAB2704B1A766F4B1B7E9BB20133D2
:104800009BB21AB207F11803093B1B7819461046F0
:10481000FFF74EFA07F58C5303F11C03B3F9003090
:10482000032B1CDD07F58B5303F10A03B3F90030AA
:10483000184602F07BFC0346DBB2013BDAB25E4B6A
:104840005A765D4B5B7E9BB201339BB21AB207F185
:104850001803093B1B7819461046FFF729FA07F59C
:104860008C5303F11C03B3F90030042B1CDD07F556
:104870008B5303F10C03B3F90030184602F056FCD9
:104880000346DBB2013BDAB24B4B9A764A4B9B7E36
:104890009BB201339BB21AB207F11803093B1B7894
:1048A00019461046FFF704FA07F58C5303F11C0371
:1048B000B3F90030052B1CDD07F58B5303F10E0314
:1048C000B3F90030184602F031FC0346DBB2013B7D
:1048D000DAB2394BDA76384BDB7E9BB201339BB2CE
:1048E0001AB207F11803093B1B7819461046FFF767
:1048F000DFF907F58C5303F11C03B3F90030062BE5
:104900001EDD07F58B5303F11003B3F90030184691
:1049100002F00CFC0346DBB2013BDAB2264B83F813
:104920005220254B93F852309BB201339BB21AB2FE
:1049300007F11803093B1B7819461046FFF7B8F931
:1049400007F58C5303F11C03B3F90030072B1EDD70
:1049500007F58B5303F11203B3F90030184602F048
:10496000E5FB0346DBB2013BDAB2134B83F856207A
:10497000114B93F856309BB201339BB21AB207F138
:104980001803093B1B7819461046FFF791F907F108
:104990001803093B1B781846FFF774F8A9E007F1E4
:1049A0001803093B1B7819460E20FFF74DF802F05B
:1049B000AFBB00BF787801089C07002007F58C5337
:1049C00003F11C03B3F90030002B00F38A8007F1D8
:1049D0001803093B1B7819466920FFF78BF8AC4B8D
:1049E0009B7D9BB201339BB21AB207F11803093BBE
:1049F0001B7819461046FFF75BF9A54BDB7D9BB290
:104A000001339BB21AB207F11803093B1B78194610
:104A10001046FFF74DF99E4B1B7E9BB201339BB2B4
:104A20001AB207F11803093B1B7819461046FFF725
:104A30003FF9974B5B7E9BB201339BB21AB207F1F1
:104A40001803093B1B7819461046FFF731F9904BC4
:104A50009B7E9BB201339BB21AB207F11803093B4C
:104A60001B7819461046FFF723F9894BDB7E9BB272
:104A700001339BB21AB207F11803093B1B781946A0
:104A80001046FFF715F9824B93F852309BB2013371
:104A90009BB21AB207F11803093B1B78194610465E
:104AA000FFF706F97A4B93F856309BB201339BB26D
:104AB0001AB207F11803093B1B7819461046FFF795
:104AC000F7F807F11803093B1B781846FEF7DAFFE1
:104AD00007F11803093B1B78184603F0F7F802F0BA
:104AE00017BB07F11803093B1B7819460720FEF78F
:104AF000ABFF00BF02F00CBB07F11803103B1B68B3
:104B0000981C07F58A5303F11C03991C07F58A5278
:104B100002F11C0207F58A5303F11C0304330093CE
:104B20000B465C490EF070FE034607F58C5202F10D
:104B30001C02138007F58C5303F11C03B3F90030FA
:104B4000032B5FD107F58A5303F11C03B3F900303F
:104B5000B3F5FA7F4CDD07F58A5303F11C03B3F973
:104B60000030B3F5FA6F43DA07F58A5303F11E03F9
:104B7000B3F90030002B3BDD07F58A5303F11E0328
:104B8000B3F90030632B33DC07F58B53B3F90030F6
:104B9000B3F5967F2CDD07F58B53B3F90030B3F5F1
:104BA000AF6F25DA07F11803093B1B7819466E2011
:104BB000FEF7A0FF07F58A5303F11C03B3F90020A9
:104BC000334B1A8207F58A5303F11E03B3F9002011
:104BD0002F4B5A8207F58B53B3F900202C4B9A8246
:104BE00007F11803093B1B781846FEF74BFF4BE013
:104BF00007F11803093B1B7819460E20FEF724FF26
:104C000002F086BA07F58C5303F11C03B3F90030A8
:104C1000002B31DC07F11803093B1B7819466E2085
:104C2000FEF768FF1A4BB3F9102007F11803093B90
:104C30001B7819461046FFF73BF8154BB3F91220C5
:104C400007F11803093B1B7819461046FFF730F8A7
:104C50000F4BB3F9142007F11803093B1B781946D1
:104C60001046FFF725F807F11803093B1B78184693
:104C7000FEF708FF02F04CBA07F11803093B1B7856
:104C800019460720FEF7E0FE00BF02F041BA00BF60
:104C90009C0700209878010807F11803103B1B6857
:104CA000981C07F58A5303F11403991C07F58A52DF
:104CB00002F1140207F58A5303F11403043300933D
:104CC0000B46C8490EF0A0FD034607F58C5202F1D1
:104CD0001C02138007F58C5303F11C03B3F9003059
:104CE000032B65D107F58A5303F11403B3F90030A0
:104CF000B3F5FA7F52DD07F58A5303F11403B3F9D4
:104D00000030B3F5FA6F49DA07F58A5303F1160359
:104D1000B3F90030002B41DD07F58A5303F1160388
:104D2000B3F90030632B39DC07F58A5303F118031C
:104D3000B3F90030B3F5967F30DD07F58A5303F100
:104D40001803B3F90030B3F5617F27DA07F11803D0
:104D5000093B1B7819464E20FEF7CCFE07F58A5317
:104D600003F11403B3F900209F4BDA8507F58A534A
:104D700003F11603B3F900209B4B1A8607F58A53FB
:104D800003F11803B3F90020974B5A8607F1180373
:104D9000093B1B781846FEF775FE4BE007F1180338
:104DA000093B1B7819460E20FEF74EFE02F0B0B903
:104DB00007F58C5303F11C03B3F90030002B31DCF1
:104DC00007F11803093B1B7819464E20FEF792FEA7
:104DD000854BB3F92E2007F11803093B1B781946C0
:104DE0001046FEF765FF804BB3F9302007F118033A
:104DF000093B1B7819461046FEF75AFF7A4BB3F968
:104E0000322007F11803093B1B7819461046FEF7BC
:104E10004FFF07F11803093B1B781846FEF732FED7
:104E200002F076B907F11803093B1B7819460720F1
:104E3000FEF70AFE00BF02F06BB907F11803103B42
:104E40001B68981C07F58A5303F10C03991C07F59E
:104E50008A5202F10C0207F58A5303F10C03043362
:104E600000930B465F490EF0CFFC034607F58C52CA
:104E700002F11C02138007F58C5303F11C03B3F9F4
:104E80000030032B68D107F58A5303F10C03B3F903
:104E90000030B3F5FA7F55DD07F58A5303F10C03B3
:104EA000B3F90030B3F5FA6F4CDA07F58A5303F122
:104EB0000E03B3F90030002B44DD07F58A5303F1EC
:104EC0000E03B3F90030632B3CDC07F58A5303F182
:104ED0001003B3F90030B3F5967F33DD07F58A533D
:104EE00003F11003B3F90030B3F5617F2ADA07F15B
:104EF0001803093B1B7819464120FEF7FBFD07F517
:104F00008A5303F10C03B3F90020374BA3F8642054
:104F100007F58A5303F10E03B3F90020324BA3F8CF
:104F2000662007F58A5303F11003B3F900202E4BD6
:104F3000A3F8682007F11803093B1B781846FEF711
:104F4000A1FD4BE007F11803093B1B7819460E2021
:104F5000FEF77AFD02F0DCB807F58C5303F11C0371
:104F6000B3F90030002B31DC07F11803093B1B7843
:104F700019464120FEF7BEFD1B4BB3F9642007F133
:104F80001803093B1B7819461046FEF791FE164B95
:104F9000B3F9662007F11803093B1B781946104640
:104FA000FEF786FE104BB3F9682007F11803093BA2
:104FB0001B7819461046FEF77BFE07F11803093BE4
:104FC0001B781846FEF75EFD02F0A2B807F1180341
:104FD000093B1B7819460720FEF736FD00BF02F09B
:104FE00097B800BF987801089C07002007F11803C4
:104FF000103B1B68023307F58A5202F10A02C749C7
:1050000018460EF001FC034607F58C5202F11C0213
:10501000138007F58C5303F11C03B3F90030012B07
:1050200050D107F58A5303F10A03B3F90030012B7D
:1050300010D007F58A5303F10A03B3F90030B3F136
:10504000FF3F07D007F58A5303F10A03B3F9003095
:10505000002B2DD107F11803093B1B78194672204C
:10506000FEF748FD07F58A5303F10A03B3F9003050
:1050700007EE903AF8EEE77AA94BC3ED037AA84B16
:10508000D3ED037AFDEEE77AC7ED017ABB881AB259
:1050900007F11803093B1B7819461046FEF708FE76
:1050A00007F11803093B1B781846FEF7EBFC29E0D3
:1050B00007F11803093B1B7819460A20FEF7C4FCC8
:1050C00002F026B807F11803093B1B781946722035
:1050D000FEF710FD924BD3ED037AFDEEE77AC7EDB4
:1050E000017ABB881AB207F11803093B1B781946ED
:1050F0001046FEF7DDFD07F11803093B1B78184643
:10510000FEF7C0FC00BF02F003B807F11803103B24
:105110001B68023307F58A5202F1040281491846DE
:105120000EF072FB034607F58C5202F11C0213804D
:1051300007F58C5303F11C03B3F90030012B30D178
:1051400007F58A5303F104031B68B3F5FA7F1EDDEC
:1051500007F58A5303F104031B68734A934216DC74
:1051600007F11803093B1B7819466520FEF7C2FCBE
:1051700007F58A5303F104031B68694A536307F177
:105180001803093B1B781846FEF77CFC22E007F168
:105190001803093B1B7819460E20FEF755FC01F059
:1051A000B7BF07F11803093B1B7819466520FEF7C6
:1051B000A1FC5B4B5A6B07F11803093B1B7819469E
:1051C0001046FEF7E9FD07F11803093B1B78184666
:1051D000FEF758FC00BF01F09BBF07F11803103B1E
:1051E0001B68023307F58A5202F102024B49184646
:1051F0000EF00AFB034607F58C5202F11C021380E5
:1052000007F58C5303F11C03B3F90030012B47D190
:1052100007F58A5303F10203B3F90030002B16D1CE
:1052200007F11803093B1B7819464920FEF762FC79
:105230003B4B002283F82C20FEF79EFB07F118035E
:10524000093B1B781846FEF71DFC01F061BF07F50E
:105250008A5303F10203B3F90030012B16D107F191
:105260001803093B1B7819464920FEF743FC2C4BD9
:10527000012283F82C20FEF75BFB07F11803093BA2
:105280001B781846FEF7FEFB01F042BF07F118033A
:10529000093B1B7819460E20FEF7D6FB01F038BFFC
:1052A00007F11803093B1B7819464920FEF722FC39
:1052B0001B4B93F82C301AB207F11803093B1B78EB
:1052C00019461046FEF7F4FC154B93F82C30002BD2
:1052D00008D107F11803093B1B7819461348FEF75C
:1052E00027FC07E007F11803093B1B781946104813
:1052F000FEF71EFC07F11803093B1B781846FEF762
:10530000C1FB00BF01F004BF07F11803093B1B7884
:10531000184602F071F901F0FBBE00BFA478010845
:105320009C070020A8780108A0860100AC7801083D
:10533000CC78010807F11803103B1B68023307F50E
:105340008A52C94918460EF05FFA034607F58C5297
:1053500002F11C02138007F58C5303F11C03B3F90F
:105360000030012B32D107F58A53B3F90030022BFC
:105370000BD007F58A53B3F90030032B05D007F59E
:105380008A53B3F90030012B16D107F11803093BFA
:105390001B7819466D20FEF7ADFB07F58A53B3F96C
:1053A0000030DAB2B14B1A7707F11803093B1B78CA
:1053B0001846FEF767FB39E007F11803093B1B7835
:1053C00019460B20FEF740FB01F0A2BE07F11803BF
:1053D000093B1B7819466D20FEF78CFBA34B1B7F06
:1053E0001AB207F11803093B1B7819461046FEF75D
:1053F0005FFC07F11803093B1B7819469C48FEF730
:1054000097FB9A4B1B7F184602F03EFC024607F1C1
:105410001803093B1B7819461046FEF789FB07F174
:105420001803093B1B781846FEF72CFB00BF01F060
:105430006FBE07F11803093B1B7819465320FEF78E
:1054400059FB07F11803093B1B781846FEF71AFBB6
:1054500007F11803093B1B78184602F0E7F901F041
:1054600057BE07F11803103B1B68023307F589523A
:1054700002F11F027F4918460EF0C6F9034607F5F0
:105480008C5202F11C02138007F58C5303F11C03AC
:10549000B3F90030012B40F0C38007F5895303F1C5
:1054A0001F031B78702B00F0A980732B40F0AE8097
:1054B00007F11803093B1B7819466F4803F032FDCA
:1054C0006E4BD3F89C301AB207F11803093B1B78D6
:1054D0001946104603F0EEFC07F11803093B1B7850
:1054E0001946674803F01EFD644BD3F8A0301AB28A
:1054F00007F11803093B1B781946104603F0DAFC44
:1055000007F11803093B1B7819465E4803F00AFDB2
:105510005A4BD3F8A4301AB207F11803093B1B7891
:105520001946104603F0C6FC07F11803093B1B7827
:105530001946554803F0F6FC504BD3F8A8301AB280
:1055400007F11803093B1B781946104603F0B2FC1B
:1055500007F11803093B1B7819464C4803F0E2FC9D
:10556000464BD3F8AC301AB207F11803093B1B784D
:105570001946104603F09EFC07F11803093B1B78FF
:105580001946434803F0CEFC3C4BD3F8B0301AB276
:1055900007F11803093B1B781946104603F08AFCF3
:1055A00007F11803093B1B7819463A4803F0BAFC87
:1055B000324BD3F8B4301AB207F11803093B1B7809
:1055C0001946104603F076FC07F11803093B1B78D7
:1055D0001946314803F056FD07F11803093B1B78C3
:1055E00019462E4803F09EFC07F11803093B1B786F
:1055F0001A4619212A4803F0FDFC19E007F11803A7
:10560000093B1B78184603F007FC11E007F118036B
:10561000093B1B781946234803F034FD00BF07E01F
:1056200007F11803093B1B7819461F4803F02AFDB0
:1056300000BF01F06DBD07F11803103B18680EF0B4
:105640000FF903460A2B40F21C81022307F58D5205
:1056500002F11602138007F58C73143B07F58C5288
:1056600002F1140213602CE0A47801089C070020CA
:10567000E8780108EC780108F078010818080020A3
:10568000007901080C7901081879010828790108C6
:105690003C7901084C7901086079010864790108B6
:1056A00098080020747901089879010807F58D534E
:1056B00003F116031B88013307F58D5202F1160220
:1056C000138007F58D5303F116031C8807F11803A7
:1056D000103B18680EF0C4F803469C4214D207F53C
:1056E0008D5303F116031B88B3F5FF7F0CD807F524
:1056F0008D5303F116031A8807F11803103B1B683A
:1057000013441B78202BD1D0002307F58D5202F1D2
:10571000140213807AE007F58D5303F116031B88FA
:105720005A1C07F58D5101F116010A801A4607F13E
:105730001803103B1B6813441B781846FEF764FBE4
:1057400007F58C5303F11003186007F58D5303F12F
:1057500016031B885A1C07F58D5101F116010A80AA
:105760001A4607F11803103B1B6813441B781846B0
:10577000FEF74AFB07F58C5303F10C03186007F59D
:105780008C5303F110031B68B3F1FF3F34D007F5CE
:105790008C5303F10C031B68B3F1FF3F2CD007F5CA
:1057A0008C5303F110031B68DBB21B01DAB207F55F
:1057B0008C5303F10C031B68DBB2134407F58C52C6
:1057C00002F10B02137007F58D5303F114031B88CC
:1057D0005A1C07F58D5101F114010A801A4607F58C
:1057E0008C5303F114031B68134407F58C5202F128
:1057F0000B0212781A7009E007F11803093B1B78B5
:1058000019460E20FEF720F901F082BC07F58D53F2
:1058100003F116031C8807F11803103B18680EF0FB
:105820001FF80346013B9C420FD207F58D5303F14D
:1058300016031B88B3F5FF7F07D807F58D5303F1D7
:1058400014031B887B2B7FF666AF07F58D5303F19E
:1058500014031B887B2B0AD807F11803093B1B781C
:1058600019460E20FEF7F0F800BF01F051BCC34A04
:1058700007F58C73143B104619467C231A460DF02D
:1058800049F807F11803093B1B7819466220FEF717
:1058900031F907F11803093B1B7819462020FEF760
:1058A00071F9B64B07F58C5202F114021360002314
:1058B00007F58D5202F1100213601EE007F58C53BC
:1058C00003F114031A6807F58D5303F110031B68E5
:1058D00013441A7807F11803093B1B781946104640
:1058E000FEF720FA07F58D5303F110031B6801330F
:1058F00007F58D5202F11002136007F58D5303F185
:1059000010031B687B2BD9D907F11803093B1B78BF
:105910001846FEF7B7F801F0FBBB07F11803103B80
:105920001B68023307F5895202F1180294491846A0
:105930000DF06AFF034607F58C5202F11C0213803A
:1059400007F58C5303F11C03B3F90030012B39D157
:1059500007F5895303F11803D3ED007AF5EEC07A09
:10596000F1EE10FA24DD07F5895303F11803D3EDA6
:10597000007AB7EE007AF4EEC77AF1EE10FA17D893
:1059800007F5895303F118031B687C4A936307F1F9
:105990001803093B1B7819467820FEF7ABF807F18E
:1059A0001803093B1B781846FEF76CF801F0B0BBF2
:1059B00007F11803093B1B7819460E20FEF744F83F
:1059C00001F0A6BB07F11803093B1B7819467820A4
:1059D000FEF790F8694BD3ED0E7A07F11803093BF7
:1059E0001B781846B0EE670AFEF724F907F1180392
:1059F000093B1B781846FEF745F801F089BB07F113
:105A00001803093B1B78012B27D107F11803093B29
:105A10001B7819464220FEF76DF807F11803093B81
:105A20001B7819465748FEF783F8FBF7FBFD034642
:105A3000012B08D107F11803093B1B781846FEF724
:105A400021F801F065BB07F11803093B1B781946E3
:105A50000C20FDF7F9FF01F05BBB07F11803093BD0
:105A60001B7819460D20FDF7EFFF01F051BB07F140
:105A70001803103B1B68981C07F5895303F11403A6
:105A8000023307F5895202F114023F490DF0BCFEC2
:105A9000034607F58C5202F11C02138007F58C5364
:105AA00003F11C03B3F90030022B40D107F58953F1
:105AB00003F11403B3F90030002B2EDB07F58953F3
:105AC00003F11603B3F90030002B26DB2B4B002229
:105AD000A3F84E2007F5895303F11403B3F900200E
