:020000040800F2
:1000000000000220F9610008316900084169000818
:10001000496900085169000859690008000000009A
:1000200000000000000000000000000061690008FE
:1000300071690008000000008169000891690008EA
:1000400053620008556200085762000859620008B0
:100050005B6200085D6200085F6200086162000880
:100060006362000865620008676200086962000850
:10007000A16900086D620008B56900087162000896
:10008000C9690008DD690008776200087962000824
:100090007B6200087D6200087F62000881620008C0
:1000A000836200088562000887620008556A0008BC
:1000B0008B6200088D6200088F6200089162000860
:1000C0009362000895620008976200089962000830
:1000D0009B620008F1690008056A0008196A0008B7
:1000E000A3620008A5620008A7620008A9620008D0
:1000F000AB620008AD620008AF620008B1620008A0
:10010000B3620008B5620008696A0008B9620008B5
:10011000BB620008BD620008BF620008C16200083F
:10012000C3620008C56200082D6A0008C9620008A1
:10013000CB620008CD620008CF620008D1620008DF
:10014000D3620008D5620008D7620008416A00083F
:10015000DB620008DD620008DF620008E16200087F
:10016000E3620008E5620008E7620008E96200084F
:10017000EB620008ED620008EF620008F16200081F
:10018000F3620008F562000810B5054C237833B916
:10019000044B13B10448AFF300800123237010BD5A
:1001A000400200200000000084460108084B10B502
:1001B0001BB108490848AFF300800848036803B939
:1001C00010BD074B002BFBD0BDE81040184700BF07
:1001D0000000000044020020844601084002002084
:1001E00000000000154B002B08BF134B9D46A3F5E4
:1001F000803A00218B460F461348144A121A0EF01B
:10020000D6FB0F4B002B00D098470E4B002B00D095
:1002100098470020002104000D000D48002802D05E
:100220000C48AFF300800EF081FB2000290002F0A3
:10023000BFFA0EF067FB00BF0000080000000220BC
:10024000000000000000000040020020E0D6002076
:10025000000000000000000080B584B000AF7860AE
:100260000B46FB700023FB737B681B7C002B0ED1BD
:100270004FF4007302228121786807F0F5F84FF4FB
:10028000007302220121786807F0EEF80BE04023AA
:1002900002228121786807F0E7F840230222012139
:1002A000786807F0E1F8082303228221786807F0D4
:1002B000DBF84FF407700EF05FFB03461A467B68CD
:1002C000C3F818227B68D3F81832002B02D101231F
:1002D000FB7326E07B68D3F81832BB607B68D3F8E9
:1002E0001C321B689847BB680022C3F81422BB6805
:1002F0000022C3F818227B681B7C002B09D1BB6845
:10030000D3F804224FF400730121786807F028FA2B
:1003100007E0BB68D3F8042240230121786807F086
:100320001FFAFB7B18461037BD4680BD80B584B0F0
:1003300000AF78600B46FB700023FB738121786867
:1003400007F0D0F80121786807F0CCF882217868AE
:1003500007F0C8F87B68D3F81832002B0ED07B6802
:10036000D3F81C325B6898477B68D3F8183218467C
:100370000EF00AFB7B680022C3F81822FB7B1846AC
:100380001037BD4680BD00BF80B584B000AF786037
:1003900039607B68D3F81832FB603B681B7803F048
:1003A0006003002B3AD0202B00D043E03B68DB8871
:1003B000002B29D03B681B785BB2002B11DA7B68DD
:1003C000D3F81C329B683A685078F9683A68D2884A
:1003D0009847F9683B68DB881A46786801F068F846
:1003E00029E03B685A78FB6883F800223B68DB8889
:1003F000DAB2FB6883F80122F9683B68DB881A46A9
:10040000786801F083F816E07B68D3F81C329B68AB
:100410003A6850780022396898470CE03B685B786E
:100420000A2B01D00B2B05E001220549786801F069
:100430003FF800BF00BF002318461037BD4680BDFF
:100440005C02002080B485B000AF78600B46FB7082
:100450007B68D3F81832FB607B68D3F81832002B26
:1004600005D0FB680022C3F81422002300E0022319
:1004700018461437BD465DF8047B704780B584B0DC
:1004800000AF78600B46FB707B68D3F81832FB60D6
:10049000FB781946786807F09DF90246FB68C3F8B7
:1004A0000C227B68D3F81832002B0DD07B68D3F870
:1004B0001C32DB68FA68D2F80402FA6802F50372AB
:1004C00011469847002300E0022318461037BD4626
:1004D00080BD00BF80B584B000AF78607B68D3F882
:1004E0001832FB607B68D3F81C32002B15D0FB68F8
:1004F00093F80032FF2B10D07B68D3F81C329B6836
:10050000FA6892F80002F968FA6892F8012292B249
:100510009847FB68FF2283F8002200231846103713
:10052000BD4680BD80B483B000AF78607B68432255
:100530001A80034B18460C37BD465DF8047B7047A4
:100540008800002080B483B000AF78607B684322CD
:100550001A80034B18460C37BD465DF8047B704784
:100560004400002080B483B000AF78607B684322F1
:100570001A80034B18460C37BD465DF8047B704764
:10058000CC00002080B483B000AF78607B680A2282
:100590001A80034B18460C37BD465DF8047B704744
:1005A0000000002080B485B000AF7860396002237D
:1005B000FB733B68002B05D07B683A68C3F81C22AC
:1005C0000023FB73FB7B18461437BD465DF8047BA4
:1005D000704700BF80B487B000AFF860B9601346C1
:1005E000FB80FB68D3F818327B617B69BA68C3F87B
:1005F0000822FA887B69C3F81022002318461C37AA
:10060000BD465DF8047B704780B485B000AF78606C
:1006100039607B68D3F81832FB60FB683A68C3F82E
:100620000422002318461437BD465DF8047B70474A
:1006300080B584B000AF78607B68D3F81832FB6077
:100640007B68D3F81832002B17D0FB68D3F814322C
:10065000002B10D1FB680122C3F81422FB68D3F8E9
:100660000822FB68D3F810329BB28121786807F02A
:100670003DF8002302E0012300E002231846103772
:10068000BD4680BD80B584B000AF78607B68D3F88C
:100690001832FB607B68D3F81832002B17D07B68C8
:1006A0001B7C002B09D1FB68D3F804224FF40073A4
:1006B0000121786807F054F807E0FB68D3F80422BA
:1006C00040230121786807F04BF8002300E0022363
:1006D00018461037BD4680BD80B584B000AFF860C5
:1006E000B9601346FB71FB68002B01D102231AE0AD
:1006F000FB68D3F81432002B03D0FB680022C3F848
:100700001422BB68002B03D0FB68BA68C3F8102220
:10071000FB68012283F8FC21FB68FA791A70F868FB
:1007200006F01CFE002318461037BD4680BD00BFF2
:1007300080B485B000AF786039600023FB733B68FC
:10074000002B06D07B683A68C3F814220023FB73A1
:1007500001E00223FB73FB7B18461437BD465DF8AE
:10076000047B704780B582B000AF7860786806F08F
:1007700049FE002318460837BD4680BD80B483B0CB
:1007800000AF7860002318460C37BD465DF8047B47
:10079000704700BF80B584B000AF78600B46FB7037
:1007A0000223FB737B68D3F81432002B0CD07B68D8
:1007B000D3F814321B68FA781146786898470346D4
:1007C000002B01D10023FB73FB7B18461037BD467D
:1007D00080BD00BF80B582B000AF78600B46FB7073
:1007E0007B68D3F814325B68FA78114678689847CA
:1007F000002318460837BD4680BD00BF80B582B0D3
:1008000000AF786039607B6803F502733968184679
:1008100000F0A2FD7B680122C3F8F4217B68B3F8E5
:100820000E321A467B68C3F8F8217B6893F80832C9
:1008300003F01F03012B0BD0022B11D0002B17D17B
:100840007B6803F502731946786800F0CFF91AE067
:100850007B6803F502731946786800F017FA12E016
:100860007B6803F502731946786800F043FA0AE0E2
:100870007B6893F8083223F07F03DBB2194678686F
:1008800006F066FE00BF002318460837BD4680BD4F
:1008900080B586B000AFF8600B467A60FB72FB7AD9
:1008A000002B38D1FB6803F582737B61FB68D3F8BA
:1008B000F431032B42D17B699A687B69DB689A42E9
:1008C00014D97B699A687B69DB68D21A7B699A6064
:1008D0007B69DA687B699B68934228BF13469BB2A9
:1008E0001A467968F86800F02FFE27E0FB68D3F815
:1008F00014321B69002B0AD0FB6893F8FC31032BE0
:1009000005D1FB68D3F814321B69F8689847F8687A
:1009100000F02CFE12E0FB68D3F814329B69002B28
:100920000CD0FB6893F8FC31032B07D1FB68D3F89C
:1009300014329B69FA7A1146F868984700231846E2
:100940001837BD4680BD00BF80B586B000AFF860E7
:100950000B467A60FB72FB7A002B6CD1FB68143378
:100960007B61FB68D3F8F431022B57D17B699A681D
:100970007B69DB689A4215D97B699A687B69DB6879
:10098000D21A7B699A607B699B689BB21A46796828
:10099000F86800F0A9FD002300220021F86806F0A5
:1009A000DFFE3BE07B695B687A69D268B3FBF2F1FA
:1009B00002FB01F29B1A002B1CD17B695A687B69F0
:1009C000DB689A4216D37B695A68FB68D3F8F83122
:1009D0009A420FD200220021F86800F085FDFB68E2
:1009E0000022C3F8F821002300220021F86806F055
:1009F000B7FE13E0FB68D3F81432DB68002B0AD093
:100A0000FB6893F8FC31032B05D1FB68D3F8143253
:100A1000DB68F8689847F86800F0BCFDFB6893F85D
:100A20000032012B1AD1F868FFF7A8FEFB680022FC
:100A300083F8002212E0FB68D3F814325B69002BC4
:100A40000CD0FB6893F8FC31032B07D1FB68D3F87B
:100A500014325B69FA7A1146F86898470023184601
:100A60001837BD4680BD00BF80B582B000AF78604A
:100A7000402300220021786806F0F6FC7B684022C3
:100A8000C3F81021402300228021786806F0ECFC96
:100A90007B6840221A627B68012283F8FC217B6814
:100AA000D3F81832002B09D07B68D3F814325B6876
:100AB0007A685268D2B2114678689847002318467F
:100AC0000837BD4680BD00BF80B483B000AF7860FA
:100AD0000B46FB707B68FA781A74002318460C37B3
:100AE000BD465DF8047B704780B483B000AF78608A
:100AF0007B6893F8FC217B6883F8FD217B680422E6
:100B000083F8FC21002318460C37BD465DF8047BB2
:100B1000704700BF80B483B000AF78607B6893F803
:100B2000FD217B6883F8FC21002318460C37BD4665
:100B30005DF8047B704700BF80B582B000AF78607D
:100B40007B6893F8FC31032B0BD17B68D3F814320C
:100B5000DB69002B05D07B68D3F81432DB69786839
:100B60009847002318460837BD4680BD80B483B03F
:100B700000AF78600B46FB70002318460C37BD466B
:100B80005DF8047B704700BF80B483B000AF78602D
:100B90000B46FB70002318460C37BD465DF8047BFE
:100BA000704700BF80B483B000AF78600023184660
:100BB0000C37BD465DF8047B704700BF80B582B03E
:100BC00000AF78607B68012283F8FC217B68D3F852
:100BD00014325B687A685268D2B2114678689847D6
:100BE000002318460837BD4680BD00BF80B584B0DD
:100BF00000AF786039600023FB733B685B78092B9A
:100C000039D801A252F823F0590C00086D0C0008E5
:100C1000770C0008630C0008770C00083B0C0008F8
:100C2000310C0008770C00084F0C0008450C000838
:100C30003968786800F036F922E03968786800F0A1
:100C400025FA1DE03968786800F05EFA18E0396826
:100C5000786800F0E1FA13E03968786800F00EFB7C
:100C60000EE03968786800F033FB09E0396878688D
:100C700000F04AFB04E03968786800F0ABFB00BF85
:100C8000FB7B18461037BD4680BD00BF80B584B0E1
:100C900000AF786039600023FB737B6893F8FC3108
:100CA000032B1BD13B689B88DBB2012B11D87B68DF
:100CB000D3F814329B683968786898473B68DB88BA
:100CC000002B10D1FB7B002B0DD1786800F04EFC7F
:100CD00009E03968786800F07DFB04E039687868DD
:100CE00000F078FB00E000BF002318461037BD4637
:100CF00080BD00BF80B584B000AF7860396000234C
:100D0000FB733B689B88BB733B681B7803F06003F5
:100D1000202B08D17B68D3F814329B683968786837
:100D200098470023BAE03B685B78012B39D0032B4E
:100D300002D0002B6BD0B0E07B6893F8FC31022B23
:100D400002D0032B0CD025E0BB7B002B27D0BB7B34
:100D5000802B24D0BB7B1946786806F0F9FB1EE097
:100D60003B685B88002B0AD1BB7B002B07D0BB7B89
:100D7000802B04D0BB7B1946786806F0E9FB7B68C2
:100D8000D3F814329B68396878689847786800F01F
:100D9000EDFB05E03968786800F01CFB00E000BF5F
:100DA0007BE07B6893F8FC31022B02D0032B0CD044
:100DB00024E0BB7B002B26D0BB7B802B23D0BB7BCE
:100DC0001946786806F0C4FB1DE03B685B88002B81
:100DD0001BD1BB7B03F07F03002B0BD0BB7B1946E1
:100DE000786806F0EBFB7B68D3F814329B683968AF
:100DF00078689847786800F0B9FB06E03968786849
:100E000000F0E8FA02E000BF47E000BF45E07B6881
:100E100093F8FC31022B02D0032B0BD036E0BB7BC6
:100E200003F07F03002B36D0BB7B1946786806F0B1
:100E30008FFB30E097F90E30002B08DABB7B03F014
:100E40007F0301331B017A681344043307E0BB7B43
:100E500003F07F0310331B017A6813440433BB6033
:100E6000BB7B1946786806F0DFFB0346002B03D0F6
:100E7000BB6801221A6002E0BB6800221A60BB68EE
:100E800002221946786800F013FB05E0396878689B
:100E900000F0A0FA00E000BF00BFFB7B184610374F
:100EA000BD4680BD80B584B000AF786039603B68D6
:100EB0005B881B0A9BB2013B062B00F2C98001A292
:100EC00052F823F0E10E0008F90E0008390F00086F
:100ED0005110000851100008FD0F000823100008F1
:100EE0007B68D3F810321B687A68127C07F10A011C
:100EF00010469847F860B0E07B681B7C002B0DD152
:100F00007B68D3F814329B6A07F10A0210469847AF
:100F1000F860FB68013302221A709EE07B68D3F808
:100F20001432DB6A07F10A0210469847F860FB6842
:100F3000013302221A7090E03B685B88DBB2052B1C
:100F400056D801A252F823F0610F0008790F00086B
:100F5000910F0008A90F0008C10F0008D90F000861
:100F60007B68D3F810325B687A68127C07F10A015B
:100F700010469847F86040E07B68D3F810329B68D1
:100F80007A68127C07F10A0110469847F86034E04D
:100F90007B68D3F81032DB687A68127C07F10A01AB
:100FA00010469847F86028E07B68D3F810321B6938
:100FB0007A68127C07F10A0110469847F8601CE035
:100FC0007B68D3F810325B697A68127C07F10A01FA
:100FD00010469847F86010E07B68D3F810329B69A0
:100FE0007A68127C07F10A0110469847F86004E01D
:100FF0003968786800F0EEF944E02EE07B681B7CED
:10100000002B09D17B68D3F814325B6B07F10A021D
:1010100010469847F86020E03968786800F0DAF9FF
:1010200030E07B681B7C002B0DD17B68D3F8143239
:101030001B6B07F10A0210469847F860FB68013302
:1010400007221A7009E03968786800F0C3F919E0DE
:101050003968786800F0BEF914E07B89002B11D064
:101060003B68DB88002B0DD03B68DA887B89934294
:1010700028BF13469BB27B817B891A46F968786842
:1010800000F016FA1037BD4680BD00BF80B584B0B1
:1010900000AF786039603B689B88002B2CD13B689F
:1010A000DB88002B28D13B685B88DBB203F07F0331
:1010B000FB737B6893F8FC31032B04D139687868A3
:1010C00000F088F91CE07B68FA7B83F8FE21FB7B4B
:1010D0001946786806F0D4FA786800F047FAFB7B86
:1010E000002B04D07B68022283F8FC2108E07B6897
:1010F000012283F8FC2103E03968786800F06AF97E
:1011000000BF1037BD4680BD80B582B000AF7860AB
:1011100039603B685B88DAB23E4B1A703D4B1B78F6
:10112000012B04D93968786800F054F96FE07B68C6
:1011300093F8FC31022B02D0032B23D062E0354B15
:101140001B78002B1AD0334B1B781A467B685A60E9
:101150007B68032283F8FC212E4B1B7819467868A4
:10116000FFF718FB0346022B04D13968786800F0BA
:1011700031F94CE0786800F0F9F948E0786800F05F
:10118000F5F944E0234B1B78002B12D17B68022237
:1011900083F8FC211F4B1B781A467B685A601D4B55
:1011A0001B7819467868FFF715FB786800F0DEF9C0
:1011B0002DE0184B1B781A467B685B689A421DD05D
:1011C0007B685B68DBB219467868FFF703FB114B5D
:1011D0001B781A467B685A600E4B1B781946786854
:1011E000FFF7D8FA0346022B04D13968786800F07B
:1011F000F1F80CE0786800F0B9F908E0786800F0E0
:10120000B5F904E03968786800F0E4F800BF083701
:10121000BD4680BD5D02002080B582B000AF786021
:1012200039603B68DB88012B04D03968786800F0AE
:10123000D1F81FE07B6893F8FC31022B02D0032B1E
:101240000BD012E07B6800229A607B680833012291
:101250001946786800F02CF90CE07B680433012211
:101260001946786800F024F904E03968786800F0DD
:10127000B1F800BF00BF0837BD4680BD80B582B061
:1012800000AF786039607B6893F8FC31023B012B3A
:1012900015D87B680122DA607B68D3F80432002B12
:1012A00005D07B68DB6843F002027B68DA607B680C
:1012B0000C3302221946786800F0FAF804E0396825
:1012C000786800F087F800BF00BF0837BD4680BDD2
:1012D00080B582B000AF786039603B685B88012BD5
:1012E0000DD17B680122C3F804227B68D3F8143245
:1012F0009B68396878689847786800F037F900BFCC
:101300000837BD4680BD00BF80B582B000AF7860B1
:1013100039607B6893F8FC31023B012B12D83B68A3
:101320005B88012B13D17B680022C3F804227B6801
:10133000D3F814329B68396878689847786800F069
:1013400015F904E03968786800F044F800E000BF5F
:1013500000BF0837BD4680BD80B483B000AF786061
:1013600039603B681A787B681A703B685A787B68EA
:101370005A703B6802331B789AB23B6803331B7880
:101380009BB21B029BB213449AB27B685A803B68A3
:1013900004331B789AB23B6805331B789BB21B025F
:1013A0009BB213449AB27B689A803B6806331B78E1
:1013B0009AB23B6807331B789BB21B029BB2134463
:1013C0009AB27B68DA8000BF0C37BD465DF8047BBB
:1013D000704700BF80B582B000AF7860396080216F
:1013E000786806F0B5F80021786806F0B1F800BF1B
:1013F0000837BD4680BD00BF80B586B000AFF8603D
:10140000B9607A600023FB75FB68002B33D0F86865
:1014100000F036F8034601339BB25B009AB27B685A
:101420001A80FB7D5A1CFA751A46BB6813447A6809
:101430001288D2B21A70FB7D5A1CFA751A46BB6824
:10144000134403221A7012E0FB7D5A1CFA751A46E7
:10145000BB681A44FB68591CF9601B781370FB7D4C
:101460005A1CFA751A46BB68134400221A70FB68AE
:101470001B78002BE8D100BF1837BD4680BD00BFE8
:1014800080B485B000AF78600023FB7305E0FB7B80
:101490000133FB737B6801337B607B681B78002B17
:1014A000F5D1FB7B18461437BD465DF8047B7047C9
:1014B00080B584B000AFF860B9601346FB80FB686C
:1014C0000222C3F8F421FA88FB689A61FA88FB6863
:1014D000DA61FB88BA680021F86806F007F9002392
:1014E00018461037BD4680BD80B584B000AFF860A7
:1014F000B9601346FB80FB88BA680021F86806F0E3
:10150000F5F8002318461037BD4680BD80B584B07D
:1015100000AFF860B9601346FB80FB680322C3F894
:10152000F421FA88FB68C3F80821FA88FB68C3F83D
:101530000C21FB88BA680021F86806F011F9002335
:1015400018461037BD4680BD80B584B000AFF86046
:10155000B9601346FB80FB88BA680021F86806F082
:10156000FFF8002318461037BD4680BD80B582B015
:1015700000AF78607B680422C3F8F42100230022C6
:101580000021786806F0B2F8002318460837BD46F7
:1015900080BD00BF80B582B000AF78607B68052257
:1015A000C3F8F421002300220021786806F0D8F85F
:1015B000002318460837BD4680BD00BF80B400AF89
:1015C000044B1B680133034A136000BFBD465DF83E
:1015D000047B70476002002080B400AF094B1A689A
:1015E000094BA3FB02131B09322101FB03F3D31A9E
:1015F000002B0CBF01230023DBB21846BD465DF86B
:10160000047B7047600200201F85EB5180B400AF5F
:101610000A4B19680A4BA3FB0123DA0813469B0007
:1016200013445B00CA1A002A0CBF01230023DBB25B
:101630001846BD465DF8047B704700BF600200207D
:10164000CDCCCCCC90B482B000AF87ED000B054A76
:10165000D7E90034C2E9043400BF0837BD4690BC66
:10166000704700BF3009002090B482B000AF87ED12
:10167000000B054AD7E90034C2E9063400BF083739
:10168000BD4690BC704700BF3009002090B482B0C6
:1016900000AF87ED000B054AD7E90034C2E90834F2
:1016A00000BF0837BD4690BC704700BF300900201E
:1016B00098B500AF06F0C0F90246154B1B68D31A67
:1016C000B3F5FA6F04D94FF000034FF0000418E0AF
:1016D000104B1B68002B04D14FF000034FF00004A7
:1016E0000FE00C4B1B6818460CF0D4FD03460C466B
:1016F0001A4623464FF0000007490CF06BFF0346E3
:101700000C4644EC173BB0EE470AF0EE670A98BD72
:1017100084020020800200200000544090B400AFFA
:10172000054BD3E9003444EC173BB0EE470AF0EE2A
:10173000670ABD4690BC70478802002098B500AF8C
:10174000044BD3E90034184621460DF0B3F80346A4
:10175000184698BD9802002080B400AF034BB3F93F
:1017600000301846BD465DF8047B704764020020D7
:1017700080B400AF034B5B6A1846BD465DF8047B3E
:10178000704700BF000C004080B400AF064B02223F
:1017900083F85120044B002283F8522000BFBD463D
:1017A0005DF8047B704700BFA0090020B0B582B08F
:1017B00000AF87ED000B4FF000024FF00003D7E9B8
:1017C00000010DF04FF80346002B04D03C687B6805
:1017D00083F0004501E0D7E9004545EC174BB0EE3A
:1017E000470AF0EE670A0837BD46B0BD80B500AFC6
:1017F000044B93F83730184603F086FF03469BB23C
:10180000184680BD3009002080B500AF044B93F826
:101810003830184603F078FF03469BB2184680BD67
:101820003009002080B500AF044B93F868301846AB
:1018300003F06AFF03469BB2184680BD30090020C2
:1018400080B500AF044B93F86930184603F05CFF95
:1018500003469BB2184680BD3009002080B500AF1A
:10186000044B93F86A30184603F04EFF03469BB2D0
:10187000184680BD3009002080B582B000AF484BCB
:1018800093F83630184603F03FFF03469AB2444BB4
:10189000B3F92A309BB2D31A9BB2FB80B7F906206A
:1018A0003F4BB3F92A305B429A4201D1002373E0E7
:1018B0003C4B93F85130022B04D03A4B93F8513003
:1018C000032B47D1364BB3F92C30B7F906209A4297
:1018D00007DCB7F90620324BB3F92C305B429A4251
:1018E00038DA304B93F85130022B31D102212E4897
:1018F00004F0AEF8B7F906300221184604F070F88B
:1019000002212A4804F0A4F8B7F90630022118464B
:1019100004F066F80221264804F09AF8204BB3F947
:101920002A300221184604F05BF80221214804F015
:101930008FF81B4BB3F92C300221184604F050F8F5
:1019400002211D4804F084F8164B032283F851202D
:10195000002321E0124BB3F92C30B7F906209A424C
:1019600008DDFA880E4BB3F92C309BB2D31A9BB228
:101970001BB211E0B7F90620094BB3F92C305B42DA
:101980009A4208DA064BB3F92C309AB2FB8813441A
:101990009BB21BB200E0002318460837BD4680BD4D
:1019A00030090020A0090020142E0108342E01085F
:1019B0004C2E0108682E01086C2E01080000000062
:1019C000F0B58FB000AF87ED020B87ED001BFFF77E
:1019D00053FF03463B86B7F93020964B1B681344F0
:1019E000944A13603B8E1A46920013445B009BB2EC
:1019F000FB86914B5B6A914A12689B1AFB62904B83
:101A000093F83930012B00F0AC818D4BDB8DBB8618
:101A10008B4B1B8E7B868B4B93F85130002B05D064
:101A2000874B5B8EBB86864B9B8E7B86FA8E864B66
:101A3000B3F900309BB2D31A9BB27B85B7F92A2049
:101A4000B7F934309A4208DD7F4BB3F900309AB2CF
:101A5000BB8E13449BB2FB860EE0B7F92A20B7F980
:101A600034305B429A4207DA774BB3F900309AB2CE
:101A7000BB8ED31A9BB2FB86B7F93610B7F932206A
:101A800013469B0013445B00994207DD7B8E1A4688
:101A9000920013445B009BB2FB8612E0B7F936203C
:101AA000B7F932306FF0090101FB03F39A4208DA0B
:101AB0007B8E1A465203D21A9200D31A5B009BB255
:101AC000FB86604B93F85130002B40F04A815C4B11
:101AD00093F83930012B00F04481594B93F8393099
:101AE000022B00F03E81564BD3E91201544BD3E94F
:101AF00014341A4623460CF0D3FE0346002B0FD0B5
:101B00004F4BD3E91234C7E908344D4BD3E91434B1
:101B10004B4AC2E912344A4AD7E90834C2E91434BC
:101B2000D7E90023D7E902010CF078FA03460C4606
:101B300018462146424BD3E914341A4623460CF08A
:101B4000A5FE0346002B00F083803D4B93F929301E
:101B50001A46B7F9363003FB02F3002B31DD3A4B5E
:101B6000B3F900309AB2364B93F9293099B2BB8E53
:101B700011FB03F39BB2D31A9BB2FB86B7F9363045
:101B80002F4A92F9292002FB03F3002B01DA0023EC
:101B9000FB862C4B022283F85220002210212B4876
:101BA00006F054FD264BD3E91401D7E902230CF0CB
:101BB00063FE0346002B0DD0234B00221A80002326
:101BC0003FE2204B002283F85220012210211F48BF
:101BD00006F03CFDD7E90023D7E902010CF01EFA1C
:101BE00003460C461D462646154BD3E91401144BFB
:101BF000D3E910341A4623460CF010FA03460C467B
:101C00001A462346284631460CF040FE0346002B78
:101C10001ED0FB6A002B1BDD0A4B012283F85220E9
:101C200000221021094806F011FD074AFB8E13809F
:101C3000002306E2AC020020000C004090020020CD
:101C400030090020A00900206402002000040240A6
:101C5000D7E90023D7E902010CF0DEF903460C4670
:101C600018462146774BD3E912341A4623460CF026
:101C700003FE0346002B74D0724B93F929301A46A9
:101C8000B7F9363003FB02F3002B31DA6D4B93F9D1
:101C900029309AB2BB8E12FB03F39AB26A4BB3F9A6
:101CA00000309BB213449BB2FB86B7F93630654ACD
:101CB00092F9292002FB03F3002B01DD0023FB86B0
:101CC000624B022283F8522000221021604806F065
:101CD000BDFC5C4BD3E91201D7E902230CF0D6FD21
:101CE0000346002B0DD0584B00221A800023A8E198
:101CF000564B002283F8522001221021544806F04E
:101D0000A5FCD7E90023D7E902010CF085F90346C9
:101D10000C461D4626464B4BD3E91201494BD3E9ED
:101D200010341A4623460CF077F903460C461A463F
:101D30002346284631460CF09FFD0346002B10D069
:101D4000FB6A002B0DDA414B012283F8522000225E
:101D500010213F4806F07AFC3B4AFB8E138000239B
:101D60006FE1394AFB8E1380FFF740FD0346B3F560
:101D7000966F0DD9354B93F85130002B03D00221CB
:101D8000344803F0EFFE314B002283F851200FE07E
:101D90002E4B93F85130012B06D02F4B00221A7096
:101DA00002212E4803F0DEFE284B012283F8512049
:101DB000FFF72AFD0346FB83FB8BB3F5966F65D9CE
:101DC000224B93F85130012B60D1254B1B88B3F582
:101DD000966F5BD8224B1B88002B57D0214B5B6A38
:101DE000BB611D4B1B78002B0FD1B8690CF062FA58
:101DF00003460C46134AC2E91234174B01221A70EB
:101E00000221194803F0AEFE40E00221174803F01A
:101E1000A9FE0C4BD3E91245B8690CF04BFA024607
:101E20000B46204629460CF01DFD0346002B1FD013
:101E3000B8690CF03FFA03460C46024AC2E9143472
:101E400024E000BF3009002064020020A009002027
:101E500000040240C02E0108A8020020DC2E010868
:101E6000AA020020000C0040002F01080C2F0108DE
:101E7000794BD3E91234784AC2E91434B8690CF0CA
:101E800019FA03460C46744AC2E91234734AFB8BB2
:101E90001380FFF7C7FC0346FB82FB8A002B21D08F
:101EA000FA8A6D4BB3F92A3019466B4BB3F92C30D3
:101EB0000B449A4216DDFB8A674AB2F92A209B1A24
:101EC000654AB2F92C209B1A634AB2F9662093FB4B
:101ED000F2F3DA0F13445B109BB201339BB21AB2D8
:101EE0005D4BDA85FFF7ACFC0346BB82BB8A002B57
:101EF00023D0BA8A584BB3F92A301946564BB3F956
:101F00002C300B449A4218DDBB8A534AB2F92A207E
:101F10009B1A514AB2F92C209A1A13469B0013447B
:101F20005B001A464C4BB3F9663092FBF3F39BB25D
:101F300001339BB21AB2484B1A86FFF78FFC034657
:101F40007B827B8A002B3AD07A8A434BB3F92A30C2
:101F50001946414BB3F92C30CB1A9A4204DA3E4B66
:101F6000012283F8392013E07A8A3B4BB3F92A30F7
:101F70001946394BB3F92C300B449A4204DD364BE9
:101F8000032283F8392003E0334B022283F83920FF
:101F9000314B93F83920324B1B789A420FD02E4B9D
:101FA00093F839202E4B1A702B4B93F83930184682
:101FB00003F0A8FA03460221184603F0D3FD264B8E
:101FC00093F92930002B3AD14FF00002254BD7E985
:101FD00002010CF065FC0346002B09D11CA3D3E9D8
:101FE0000023D7E902010CF03DFC0346002B26D06C
:101FF0001D4B1B68002B0ADD4FF000024FF0000361
:10200000D7E902010CF04CFC0346002B0ED1164B15
:102010001B68002B0FDA4FF000024FF00003D7E9E6
:1020200002010CF01FFC0346002B04D00A4B0122D6
:1020300083F8292003E0084BFF2283F82920B7F911
:10204000363018463C37BD46F0BD00BFAFF30080C8
:102050000000000000407FC030090020AA020020DC
:102060000F01002000407F40AC02002090B400AF80
:102070000C4A4FF000034FF00004C2E900340A4A52
:102080004FF000034FF00004C2E90034074A4FF05C
:1020900000034FF00004C2E9003400BFBD4690BC0D
:1020A000704700BF78020020700200206802002004
:1020B00098B500AF084B5B6A18460CF0EBF8034686
:1020C0000C46064AC2E90034044BD3E90034044A02
:1020D000C2E9003400BF98BD000C00409802002007
:1020E000A0020020000000002DE9B04F92B000AF28
:1020F0008B4B002283F852208A4B5B6ABB638A4B6E
:102100001A68BB6BD31A18460CF0D4F802460B467B
:1021100043EC102BFFF74AFBB0EE407AF0EE607A0A
:10212000824B83ED007BB86B0CF0C4F802460B4683
:10213000C7E90C23FFF7BCFA87ED0A0B7B4BD3E909
:102140000023C7E91023794BD3E900014FF00002C7
:10215000774B0CF091FB0346002B03D0D7E90A2301
:10216000C7E91023FFF7F8FA03461A46714BB3F993
:102170002E3092FBF3F318460CF09CF802460B4607
:1021800043EC102BFFF712FB87ED080BD7E9082370
:10219000D7E910010CF0F4F802460B461046194638
:1021A0004FF000024FF080430CF014FA02460B4649
:1021B000C7E906235F4B93F83930002B0DD15E4BF6
:1021C00093ED007B97ED061BB0EE470AF0EE670A31
:1021D000FFF7F6FB0346FB8707E097ED061B97ED3D
:1021E0000C0BFFF7EDFB0346FB87FB8FBB87514BC7
:1021F00093F83930012B00F028814E4B93F8393099
:10220000022B00F022814B4B93F83930002B40F029
:102210001C81B7F93E3018460CF04CF8454BD3E919
:1022200016230CF0ADF802460B4610461946434BF8
:10223000D3E900230BF0F2FE02460B463F49C1E909
:102240000023374B93F85130002B22D1394BD3E97F
:1022500014013A4BD3E900230CF004FB0346002B96
:1022600006D0344BD3E914233449C1E9002310E0EC
:10227000304BD3E91201314BD3E900230CF010FBB2
:102280000346002B05D02B4BD3E912232B49C1E980
:1022900000232A4BD3E900232749C1E900234FF04B
:1022A00000024FF00003C7E90423244BD3E90001E7
:1022B000D7E90C230BF0B0FE02460B46C7E9022318
:1022C0001F4BD3E90001D7E902230BF0A7FE02461A
:1022D0000B461B49C1E90023164BD3E91001D7E98E
:1022E00002230CF0C9FA0346002B0ED1114BD3E99F
:1022F0001023904683F00049D7E90223404649461F
:102300000CF0C4FA0346002B1CD0FFF7AFFEFFF71A
:10231000CFFE0023BB87024B012283F8522094E0BA
:10232000A0090020000C004090020020880200203C
:102330000000144030090020A00200209802002074
:1023400078020020944BD3E90401D7E902230CF072
:1023500017F802460B46904699468F4BD3E9060183
:102360008BA3D3E900230CF00BF802460B46104672
:1023700019468A4BD3E900230CF002F802460B46BB
:10238000404649460BF04AFE02460B4690469946A7
:10239000814BD3E908017EA3D3E900230CF01AF99D
:1023A00002460B4692469B467D4BD3E90023D7E974
:1023B00002010BF031FE02460B46504659460BF027
:1023C000DFFF02460B46404649460BF027FE024619
:1023D0000B46C7E90423704B93F92930012B06D132
:1023E000D7E904010CF066FA0346BB8709E03C69B3
:1023F0007B6983F00045204629460CF05BFA0346D2
:10240000BB87674AD7E90234C2E90034FFF7E4F832
:102410000346002B14D097ED020BFFF7C7F951ECE0
:10242000100B4FF000025F4B0CF03AFA0346002B02
:1024300006D0012097ED041B97ED020B00F0BCF8CD
:10244000594AD7E90434C2E90034B7F93C30002BCB
:1024500012DD5649504BB3F962301A464E4BB3F970
:1024600064301A44B7F93C304B48B0F9660093FB2E
:10247000F0F31344CB631BE0B7F93C30002B12DAC6
:102480004A49454BB3F962301A46434BB3F96430BD
:10249000D21AB7F93C304048B0F9660093FBF0F32C
:1024A0001344CB6304E0414B3B4AB2F96220DA6348
:1024B000FFF792F80346002B03D0BB8F184605F0B8
:1024C0004DFA4FF000024FF00003D7E910010CF075
:1024D000BFF90346002B03D0B7F93C30002B4BD09B
:1024E000334B03F520435833B3F900301A461346F3
:1024F0009B001344DB0058332D4A13447B607A68F9
:10250000D7E90634C2E90434284BDB6B9AB27B6806
:102510001A847A68D7E90C34C2E900347A68D7E9BA
:102520001034C2E90634FFF717F903461A467B68F0
:102530001A8105F081FA02467B685A621C4B03F54A
:1025400020435833B3F900309BB201339BB21AB227
:10255000174B03F5204358331A80154B03F52043DE
:102560005833B3F90030B3F5806F05DD104B03F538
:102570002043583300221A800E4ABB6B1360FFF7CA
:102580002BF800BF4837BD46BDE8B08FAFF30080E1
:102590007B14AE47E17A943F300900207802002096
:1025A000700200200000F03F68020020000400409C
:1025B000A00900209002002090B587B000AF87ED01
:1025C000040B87ED021B0346FB71FB791946464855
:1025D00003F03EFA454B93ED047BFB791846B0EED1
:1025E000470AF0EE670A03F05FFAFB7919464048A4
:1025F00003F02EFAFB79184697ED040B03F054FA1A
:10260000FB7919463B4803F023FA384B93ED067BE0
:10261000FB791846B0EE470AF0EE670A03F044FA79
:10262000FB791946324803F013FAFB7918469FEDFF
:102630002C0B03F039FAFB7919462D4803F008FA00
:102640002D4B93ED007BFB791846B0EE470AF0EE78
:10265000670A03F029FAFB791946264803F0F8F9CE
:10266000224B93ED087BFB791846B0EE470AF0EE5B
:10267000670A03F019FAFB7919461D4803F0E8F9D7
:102680001E4BD3E900341A462346D7E904010BF068
:10269000C3FC03460C4644EC173BFB791846B0EEEE
:1026A000470AF0EE670A03F0FFF9FB791946144870
:1026B00003F0CEF9FB7918469FED090B03F0F4F90E
:1026C000FB7919460F4803F0C3F9FB79184697EDDB
:1026D000020B03F05DFA00BF1C37BD4690BD00BF82
:1026E0007B14AE47E17A943FDC2F010830090020CB
:1026F000E42F0108E82F0108780200207002002072
:10270000F02F0108F42F010880B500AF03F0A4FCFE
:102710000246074B1A60064B1B68064A934204D0D8
:10272000034B01221A60022300E00023184680BDFB
:10273000B00200201520200080B584B000AF786082
:102740000B467B8013463B800E4B1B68092B01D840
:10275000022312E03B881B04FB60F86803F07EFA5A
:102760007B881A46F968786803F008FB7B881A466C
:10277000F968786803F0AEFB034618461037BD468B
:1027800080BD00BFB002002080B584B000AFF8600B
:10279000B9601346FB80FB881B04BA681946F868C9
:1027A00003F000FC00BF1037BD4680BD00000000F4
:1027B000B0B59CB000AF05F0F3F800F0D3F900F02D
:1027C00027FD00F0D7FC00F05BFA00F083FA00F080
:1027D000BBFA00F003FB00F09FFC04F025FA00F0C8
:1027E0006DFC00F063FB00F099FD0421984808F0AF
:1027F00063FB01221021974805F028FF0821964825
:1028000008F0FAF90346002B03D08A21934800F020
:1028100071FD0C21904808F0EFF90346002B03D01E
:102820008F218E4800F066FDFFF76EFF0346002BF8
:1028300003D09521894800F05DFD894B002283F883
:102840002920874A4FF000034FF00004C2E9083402
:10285000834A4FF000034FF00004C2E90634804A77
:102860004FF000034FF00004C2E904347C4A4FF0FB
:1028700000037C4CC2E91034794B012283F83920E3
:10288000774A6DA4D4E90034C2E91434744A6CA4C4
:10289000D4E90034C2E91234714B062283F838209F
:1028A0006F4B052283F837206D4B002283F83620CA
:1028B0006B4B1422DA856A4B0A225A86684B4FF416
:1028C000FA721A86664B64229A86654B4FF47872C8
:1028D0005A85634B1E229A85614B634A07CA03C31C
:1028E0001A705F4A58A4D4E90034C2E916345C4B2C
:1028F000002283F860205A4B40F2DC52A3F8622099
:10290000574B1E22A3F86420554BFF2283F8682002
:10291000534BFF2283F86920514BFF2283F86A2032
:102920003B46002270211846FFF72EFF3B460B2244
:1029300019464B480CF0E6FF0346002B11D1484BDB
:1029400018463B46702219460CF026F8474A484B79
:1029500014461D460FCD0FC495E8070084E8070014
:1029600051E03B460222194642480CF0CBFF034699
:10297000002B40D13B463A4918460CF0B3FF384B88
:1029800018463B46702219460CF006F8374A3A4B77
:1029900014461D460FCD0FC40FCD0FC40FCD0FC46D
:1029A0002B681A46228002341B0C23702C4BB3F97F
:1029B0006230002B08D12A4B40F2DC52A3F862208F
:1029C000274B1E22A3F86420254B93F86830002B78
:1029D00007D1234BFF2283F86820214BFF2283F885
:1029E00069201F4B93F86A30002B0CD11C4BFF223F
:1029F00083F86A2007E01D4A204B104619464423FD
:102A00001A460BF0C9FF164B93F86030012B3BD1EF
:102A100000F020FB02F0B8FE0346192219461848C0
:102A200009F0E4FB01220121164805F00FFE0C4BD2
:102A30000C22A3F866203AE00000C0FFFFFFDF4150
:102A40000000C0FFFFFFDFC100000040E17A843FCB
:102A50006404002000040240A0040020F82F0108B4
:102A6000300900200000594004300108A00900206E
:102A7000103001082C3001083030010864300108A2
:102A8000F40500200008024000F05EFA0022012157
:102A90002E4805F0DBFD08212D4808F017F90C2120
:102AA0002B4808F013F92B4B0622A3F86620FEF7FB
:102AB0006BFE04F0C1FF0246274B1B68D31A142B90
:102AC0003BD904F0B9FF0246234B1A60FEF776FDAE
:102AD00004F0D0FAFEF780FD0346002B08D01F4B10
:102AE00093F85130002B03D120211D4805F0C8FD7B
:102AF000FEF78CFD0346002B08D0184B93F851309D
:102B0000012B03D12021164805F0BAFD134B93F891
:102B10005130022B04D0114B93F85130032B05D1C7
:102B2000002210210E4805F091FD04E00122102141
:102B30000B4805F08BFDFFF7D7FA04F0C7F9034601
:102B4000002BB6D0012000F0BFFDB2E70008024024
:102B5000540600203009002000040020A0090020B5
:102B60000004024080B598B000AF0023BB60404A2B
:102B70003F4B1B6C43F0805313643D4B1B6C03F0C5
:102B80008053BB60BB6800237B603A4A394B1B68AB
:102B900043F480431360374B1B6803F480437B602E
:102BA0007B680B233B634FF480337B630123FB6320
:102BB00010233B6401237B640223BB644FF4800336
:102BC000FB6404233B6548237B650223BB65032329
:102BD000FB6507F13003184606F016FE0346002B8E
:102BE00004D040F25111244800F084FB0F23FB6114
:102BF00000233B6200237B620023BB620023FB6255
:102C000007F11C030021184607F058F80346002B73
:102C100004D040F25F11184800F06CFB0223FB6007
:102C20004FF40073BB6107F10C03184607F026FA56
:102C30000346002B04D04FF4B3710F4800F05AFB49
:102C400007F0CCF902460D4BA3FB02239B09184663
:102C500005F01CF8042005F025F8002200214FF0B3
:102C6000FF3004F0E9FF00BF6037BD4680BD00BF04
:102C70000038024000700040F82F0108D34D621068
:102C800080B500AF104B114A1A600F4B00225A60FA
:102C90000D4B7F229A600C4BFF22DA600A4B002218
:102CA0001A61094B00225A61074B00229A610648BB
:102CB00007F0DAFA0346002B04D040F283110448EF
:102CC00000F018FB00BF80BD340600200028004043
:102CD000F82F010880B500AF184B194A1A60174B3E
:102CE0004FF482725A60154B00229A60134B0022F7
:102CF000DA60124B00221A61104B00225A610F4B0E
:102D000000229A610D4B0022DA610C4B00221A62FC
:102D10000A4B00225A62094B00229A62074B0A2290
:102D2000DA62064807F048FB0346002B04D040F265
:102D30009911044800F0DEFA00BF80BD9006002023
:102D400000300140F82F010880B500AF01220821B2
:102D50001E4805F07BFC1E4B1E4A1A601C4B4FF4AC
:102D600082725A601A4B00229A60194B0022DA6074
:102D7000174B02221A61164B01225A61144B4FF471
:102D800000729A61124B0822DA61114B00221A621A
:102D90000F4B00225A620E4B00229A620C4B072204
:102DA000DA620B4807F008FB0346002B04D04FF40F
:102DB000D871094800F09EFA054B1B68044A126856
:102DC000126842F040021A6000BF80BD0004024059
:102DD000DC040020003C0040F82F010880B58AB0D8
:102DE00000AF2F4B2F4A1A602D4B0F225A602C4BED
:102DF00000229A602A4B44F62062DA60284B0022B7
:102E00001A61274807F0CCFE0346002B04D040F29D
:102E1000C511254800F06EFA00233B6200237B6257
:102E200007F1200319461E4809F0A0F80346002BBD
:102E300004D04FF4E6711C4800F05CFA60237B601C
:102E400040F2DC53BB600023FB6000237B61002366
:102E50003B610023FB610023BB613B1D0822194637
:102E60000F4808F025FA0346002B04D04FF4EC710C
:102E70000D4800F03FFA3B1D0C221946084808F0A7
:102E800017FA0346002B04D040F2DD11064800F08B
:102E900031FA034803F07EFB00BF2837BD4680BDF2
:102EA000A004002000040040F82F010880B58CB079
:102EB00000AF224B224A1A60204B00225A601F4B5F
:102EC00000229A601D4B4FF0FF32DA601B4B00224C
:102ED0001A610323FB6000233B6101237B61002314
:102EE000BB610023FB6100233B6201237B62002363
:102EF000BB620023FB6207F10C0319460F4807F081
:102F000045FF0346002B04D040F2F9110D4800F0B4
:102F1000F1F900237B600023BB603B1D1946074885
:102F200009F024F80346002B04D04FF40071054843
:102F300000F0E0F900BF3037BD4680BD64040020DA
:102F4000000C0040F82F010880B58CB000AF3E4B5C
:102F50003E4A1A603C4B0F225A603B4B00229A605B
:102F6000394B4FF6FF72DA60374B00221A61364B4D
:102F700000225A61344807F0E7FD0346002B04D0D5
:102F80004FF40571324800F0B5F92F4807F068FE9C
:102F90000346002B04D040F219212D4800F0AAF975
:102FA0000423FB6160233B6202237B620023FB62FC
:102FB00007F11C031946244808F040FA0346002B89
:102FC00004D040F22221224800F094F900237B61D2
:102FD0000023BB6107F1140319461B4808F0C6FF24
:102FE0000346002B04D040F22921194800F082F951
:102FF00000237B600123BB600023FB6000233B6157
:103000003B1D08221946104808F0B6F80346002B6D
:1030100004D040F233210E4800F06CF902237B60AB
:103020000223BB603B1D0C221946074808F0A4F898
:103030000346002B04D040F23A21054800F05AF92B
:1030400000BF3037BD4680BD54060020000001405F
:10305000F82F010880B500AF144B154A1A60134BC6
:10306000144A5A60114B4FF480529A600F4B4FF440
:103070000052DA600D4B4FF480621A610B4B042250
:103080005A610A4B00229A61084B4FF40042DA6100
:10309000064808F0C5FF0346002B04D04FF4137117
:1030A000054800F027F900BF80BD00BFF4050020EF
:1030B00000100140A0860100F82F010880B500AF84
:1030C000124B134A1A60114B4FF4E1325A600F4B06
:1030D00000229A600D4B0022DA600C4B00221A612C
:1030E0000A4B0C225A61094B00229A61074B0022BD
:1030F000DA61064808F094FF0346002B04D040F242
:103100005D21044800F0F6F800BF80BDE80600200D
:1031100000440040F82F010880B500AF124B134A5D
:103120001A60114B4FF4E1325A600F4B00229A6043
:103130000D4B0022DA600C4B00221A610A4B0C2264
:103140005A61094B00229A61074B0022DA61064856
:1031500008F066FF0346002B04D040F26E210448BD
:1031600000F0C8F800BF80BDC00300200048004048
:10317000F82F010880B582B000AF00237B60234A9E
:10318000224B1B6B43F480031363204B1B6B03F434
:1031900080037B607B6800233B601C4A1B4B1B6BDE
:1031A00043F400131363194B1B6B03F400133B60D0
:1031B0003B68002200210C2004F03EFD0C2004F0AE
:1031C00057FD002200210E2004F036FD0E2004F0F1
:1031D0004FFD00220021102004F02EFD102004F0ED
:1031E00047FD00220021112004F026FD112004F0EB
:1031F0003FFD002200213A2004F01EFD3A2004F099
:1032000037FD00BF0837BD4680BD00BF0038024013
:1032100080B58AB000AF00233B61324A314B1B6B53
:1032200043F0800313632F4B1B6B03F080033B6160
:103230003B690023FB602B4A2A4B1B6B43F00103C5
:103240001363284B1B6B03F00103FB60FB68002337
:10325000BB60244A234B1B6B43F004031363214BD5
:103260001B6B03F00403BB60BB6800237B601D4A3B
:103270001C4B1B6B43F0020313631A4B1B6B03F0D5
:1032800002037B607B6800223821174805F0DEF9D5
:1032900010237B61154BBB610023FB6107F1140315
:1032A0001946134805F038F801237B610123BB61FF
:1032B0000023FB6107F1140319460D4805F02CF8B3
:1032C00038237B610123BB610023FB6100233B6248
:1032D00007F114031946044805F01EF800BF28370B
:1032E000BD4680BD003802400004024000001110BD
:1032F0000008024080B483B000AF78603960054BAD
:10330000054AB2F96220DA63024B034AB2F962203D
:103310001A64FEE7000400403009002080B400AFCA
:1033200000BFBD465DF8047B704700BF80B582B02A
:1033300000AF03460A46FB711346BB71BB791946C1
:10334000074802F085FBFB79064A52F82330BA7928
:103350001146184602F006FC00BF0837BD4680BD86
:10336000B43201081001002080B584B000AF0346DC
:10337000FB71164B1B7883F02003DAB2134B1A70E3
:10338000124B1B7883F04F03DAB2104B1A700F4BBD
:103390001B7883F04B03DAB20C4B1A700B4B1B7883
:1033A00007F108000A4A05210CF01AFAFB791946C0
:1033B000084802F04DFBFA7907F108031146184658
:1033C00002F0D0FB00BF1037BD4680BDB702002021
:1033D000C0320108C832010880B582B000AF034690
:1033E0000A46FB711346BB71BB79184602F012FC0A
:1033F000BB791946074802F02BFBBA79FB791146D5
:10340000184602F009FB044AFB79137000BF083725
:10341000BD4680BDD0320108B702002080B584B01F
:1034200000AF78600B46FB700023FB600CE0FB688C
:103430007A6813441A780D4B1B785340DAB20B4B61
:103440001A70FB680133FB60FB68272B05DCFB6807
:103450007A6813441B78002BE9D1FB781946786809
:1034600002F0F6FA00BF1037BD4680BDB70200205B
:1034700080B582B000AF03460A46FB711346BB71AC
:10348000084B1A78FB795340DAB2064B1A70BA79B6
:10349000FB791146184602F0BFFA00BF0837BD4657
:1034A00080BD00BFB702002090B59DB002AF87ED90
:1034B000020B0346FB7107F11400D7E90234CDE992
:1034C0000034154A50210CF08BF900237B660DE087
:1034D00007F114027B6E13441A78104B1B7853408B
:1034E000DAB20E4B1A707B6E01337B667B6E272B34
:1034F00006DC07F114027B6E13441B78002BE7D126
:10350000FA7907F114031146184602F0A1FA00BF38
:103510006C37BD4690BD00BFD4320108B702002011
:1035200080B598B000AF03460A46FB8013467B7116
:10353000B7F9063007F10C00144A50210CF050F98D
:103540000023FB650DE007F10C02FB6D13441A78B4
:103550000F4B1B785340DAB20D4B1A70FB6D0133E1
:10356000FB65FB6D272B06DC07F10C02FB6D13449A
:103570001B78002BE7D17A7907F10C031146184626
:1035800002F066FA00BF6037BD4680BDDC3201083C
:10359000B702002080B584B000AF03460A46FB7135
:1035A0001346BB71FB7907F10800154A03210CF0A3
:1035B00017F90023FB600DE007F10802FB681344D4
:1035C0001A78104B1B785340DAB20E4B1A70FB6816
:1035D0000133FB60FB68022B06DC07F10802FB6885
:1035E00013441B78002BE7D1BA7907F10803114681
:1035F000184602F02DFA00BF1037BD4680BD00BF4F
:10360000E4320108B702002080B598B000AF7860BE
:103610000B46FB7007F10C007B68154A50210CF03B
:10362000DFF80023FB650DE007F10C02FB6D13448E
:103630001A78104B1B785340DAB20E4B1A70FB6DA0
:103640000133FB65FB6D272B06DC07F10C02FB6DDC
:1036500013441B78002BE7D1FA7807F10C031146CD
:10366000184602F0F5F900BF6037BD4680BD00BFC7
:10367000EC320108B702002080B483B000AF0346EB
:10368000FB71FB792F2B05D9FB79392B02D8FB79FC
:10369000303B13E0FB79602B05D9FB79662B02D810
:1036A000FB79573B0AE0FB79402B05D9FB79462B88
:1036B00002D8FB79373B01E04FF0FF3318460C3757
:1036C000BD465DF8047B704780B586B000AF034609
:1036D000FB710023FB82A0E0FB8A5A1CFA821A4687
:1036E000534B9B5C7B757B7D002B00F09C80514B8A
:1036F0001B78202B0AD17B7D242B03D07B7D212BB3
:1037000040F08B804B4B24221A7086E07B7D0D2B82
:1037100002D07B7D0A2B23D1474B1B781A46474B9F
:1037200000219954434B1B782A2B0BD1444B1A7818
:10373000444B1B789A4205D0FB7919460420FFF7C9
:10374000F5FD03E0FB79184600F07EF83C4B0022C3
:103750001A70384B20221A70374B00221A705CE026
:103760007B7D2A2B03D1334B31221A7055E0314B2C
:103770001B78312B12D17B7D1846FFF77DFF386116
:103780003B69B3F1FF3F48D03B69DBB21B01DAB2C2
:103790002C4B1A70274B32221A703EE0254B1B78B7
:1037A000322B14D17B7D1846FFF766FFF860FB686B
:1037B000B3F1FF3F31D0FB68DAB2224B1B781344E0
:1037C000DAB2204B1A701B4B2A221A7025E0194BD3
:1037D0001B78242B11D1184B1B785A1CD1B2164AD6
:1037E00011701946154A7B7D5354154B1A787B7D11
:1037F0005340DAB2124B1A700FE00E4B1B782A2B93
:1038000005D1FB7919460520FFF790FD0CE0FB7907
:1038100019460020FFF78AFD06E0FB8AB3F5007F1A
:10382000FFF45AAF00E000BF1837BD4680BD00BFAF
:10383000D4CC00204C010020B40200202807002036
:10384000B5020020B602002090B5C9B006AF02460E
:10385000FB1D1A70CA4B1B7887F8E63097F8E630E4
:10386000313B492B01F25F8101A252F823F000BFE6
:10387000993900083B3A0008DD3A0008274B000858
:10388000274B0008274B0008274B0008274B000850
:10389000274B0008274B0008274B0008274B000840
:1038A000274B0008274B0008274B0008274B000830
:1038B000274B0008274B0008274B0008274B000820
:1038C000274B0008274B0008274B0008274B000810
:1038D000A1470008274B0008274B0008274B00088A
:1038E000274B00082F460008274B0008274B0008ED
:1038F000274B0008274B000875490008274B000894
:10390000274B0008274B0008274B0008274B0008CF
:10391000274B0008274B0008274B0008274B0008BF
:10392000274B0008274B0008274B0008274B0008AF
:10393000CF3C0008A34900088D3B0008274B000836
:10394000274B0008393E0008973D000881480008D1
:10395000A9400008274B0008274B0008274B000808
:10396000A948000859450008274B0008D93E00081F
:10397000274B000809470008274B0008274B000881
:10398000274B0008953F00085D400008274B0008C2
:10399000274B00089749000807F1D80307F1E60212
:1039A000784977480BF072FF0346A7F8FA30B7F86A
:1039B000FA30022B27D1D7E936014FF000024FF041
:1039C00000030AF063FF0346002B14D097ED367B0B
:1039D000B0EE470AF0EE670AFDF734FEFB1D1B78D8
:1039E00019463120FFF7F8FCFB1D1B781846FFF73E
:1039F000BBFC01F09FB8FB1D1B7819460E20FFF79A
:103A000095FC01F097B8FB1D1B7819463120FFF794
:103A1000E3FC5D4B93ED047BFB1D1B781846B0EE79
:103A2000470AF0EE670AFFF73FFDFB1D1B781846BB
:103A3000FFF79AFC00BF01F07DB807F1D00307F152
:103A4000E60250494E480BF021FF0346A7F8FA3032
:103A5000B7F8FA30022B27D1D7E934014FF0000232
:103A60004FF000030AF012FF0346002B14D097ED2D
:103A7000347BB0EE470AF0EE670AFDF7F5FDFB1D5B
:103A80001B7819463220FFF7A7FCFB1D1B78184650
:103A9000FFF76AFC01F04EB8FB1D1B7819460E209B
:103AA000FFF744FC01F046B8FB1D1B781946322095
:103AB000FFF792FC344B93ED067BFB1D1B781846F9
:103AC000B0EE470AF0EE670AFFF7EEFCFB1D1B782D
:103AD0001846FFF749FC00BF01F02CB807F1C803F6
:103AE00007F1E602274926480BF0D0FE0346A7F867
:103AF000FA30B7F8FA30022B27D1D7E932014FF06C
:103B000000024FF000030AF0C1FE0346002B14D060
:103B100097ED327BB0EE470AF0EE670AFDF7B6FD8F
:103B2000FB1D1B7819463320FFF756FCFB1D1B7845
:103B30001846FFF719FC00F0FDBFFB1D1B78194666
:103B40000E20FFF7F3FB00F0F5BFFB1D1B781946B5
:103B50003320FFF741FC0C4B93ED087BFB1D1B78DA
:103B60001846B0EE470AF0EE670AFFF79DFCFB1D12
:103B70001B781846FFF7F8FB00BF00F0DBBF00BF63
:103B800028070020F43201083009002007F1C001A5
:103B900007F1E60207F1B003019307F1B8030093C0
:103BA0000B46C849C8480BF071FE0346A7F8FA3027
:103BB000B7F8FA30042B4CD1D7E930014FF00002AE
:103BC0004FF000030AF062FE0346002B39D0D7E91C
:103BD0002E014FF000024FF000030AF057FE03469B
:103BE000002B2ED0D7E92C014FF000024FF000033C
:103BF0000AF04CFE0346002B23D097ED307BB0EE4D
:103C0000470AF0EE670AFDF71DFD97ED2E7BB0EE3B
:103C1000470AF0EE670AFDF727FD97ED2C7BB0EE23
:103C2000470AF0EE670AFDF731FDFB1D1B781946C8
:103C30006320FFF7D1FBFB1D1B781846FFF794FBB1
:103C400042E0FB1D1B7819460E20FFF76FFB00F0CA
:103C500071BFB7F8FA30012B30D1FB1D1B78194624
:103C60006320FFF7B9FB994B93ED047BFB1D1B7899
:103C70001846B0EE470AF0EE670AFFF715FC934BC3
:103C800093ED067BFB1D1B781846B0EE470AF0EE5D
:103C9000670AFFF709FC8D4B93ED087BFB1D1B7832
:103CA0001846B0EE470AF0EE670AFFF7FDFBFB1D72
:103CB0001B781846FFF758FB00F03CBFFB1D1B7834
:103CC00019460720FFF732FB00BF00F033BF07F1B2
:103CD000AC0107F1E60207F1AC03023300930B4697
:103CE0007B4979480BF0D2FD0346A7F8FA30B7F8C4
:103CF000FA30032B23D1B7F9AC30002B17DDB7F91D
:103D0000AE30002B13DDB7F9AC20704BDA85B7F974
:103D1000AE206E4B5A86FB1D1B7819466120FFF7BB
:103D20005BFBFB1D1B781846FFF71EFB30E0FB1DFD
:103D30001B7819460E20FFF7F9FA00F0FBBEB7F822
:103D4000FA30012B1ED1FB1D1B7819466120FFF7AD
:103D500043FB5E4BB3F92E20FB1D1B781946104622
:103D6000FFF7DEFB594BB3F93220FB1D1B781946D8
:103D70001046FFF7D5FBFB1D1B781846FFF7F4FA3A
:103D800000F0D8BEFB1D1B7819460720FFF7CEFABE
:103D900000BF00F0CFBE07F1A00307F1E6024D49D6
:103DA00049480BF073FD0346A7F8FA30B7F8FA302C
:103DB000022B24D1D7E928014FF000024FF0000375
:103DC0000AF06EFD0346002B11D0D7E928343F4A94
:103DD000C2E91034FB1D1B7819466720FFF7FCFA77
:103DE000FB1D1B781846FFF7BFFA00F0A3BEFB1DB2
:103DF0001B7819460E20FFF799FA00F09BBEFB1DB9
:103E00001B7819466720FFF7E7FA304BD3E91034E7
:103E1000184621460AF04EFD03461AB2FB1D1B78D8
:103E200019461046FFF77CFBFB1D1B781846FFF771
:103E30009BFA00BF00F07EBE07F1980307F1E6028F
:103E4000244921480BF022FD0346A7F8FA30B7F8C1
:103E5000FA30022B11D1D7E926341C4AC2E91634B4
:103E6000FB1D1B7819466620FFF7B6FAFB1D1B7871
:103E70001846FFF779FA00F05DBEFB1D1B78194666
:103E80006620FFF7A9FA114B93ED167BFB1D1B78FB
:103E90001846B0EE470AF0EE670AFFF705FBFDF79C
:103EA0005BFC03461A46FB1D1B7819461046FFF7BC
:103EB00037FBFB1D1B781846FFF756FA00BF00F0D2
:103EC00039BE00BFFC32010828070020300900205D
:103ED0000C330108F4320108FB1D1B7819467020D1
:103EE000FFF77AFAD04BD3E91234184621460AF08C
:103EF000E1FC0246FB1D1B7819461046FFF784FBC8
:103F0000C94BD3E91434184621460AF0D3FC0246C3
:103F1000FB1D1B7819461046FFF776FBFDF728FCC2
:103F20000246FB1D1B7819461046FFF76DFBFDF797
:103F3000F5FBB0EE407AF0EE607AFB1D1B78184678
:103F4000B0EE470AF0EE670AFFF7AEFAFDF7B0FBF6
:103F5000B0EE407AF0EE607AFB1D1B781846B0EEAA
:103F6000470AF0EE670AFFF79FFAAF4B93F8393034
:103F7000002B08D1FDF7E2FB0246FB1D1B7819461A
:103F80001046FFF741FBFB1D1B781846FFF7ECF9C5
:103F900000F0D0BD07F1940107F1E60207F19403A8
:103FA000023300930B46A149A1480BF06FFC034676
:103FB000A7F8FA30B7F8FA30032B23D1B7F99430C9
:103FC000002B17DDB7F99630002B13DDB7F99420DD
:103FD000954B1A86B7F99620934B9A86FB1D1B7852
:103FE00019467620FFF7F8F9FB1D1B781846FFF7F6
:103FF000BBF930E0FB1D1B7819460E20FFF796F940
:1040000000F098BDB7F8FA30012B1ED1FB1D1B78CC
:1040100019467620FFF7E0F9834BB3F93020FB1DFA
:104020001B7819461046FFF77BFA7F4BB3F9342013
:10403000FB1D1B7819461046FFF772FAFB1D1B7813
:104040001846FFF791F900F075BDFB1D1B78194666
:104050000720FFF76BF900BF00F06CBD0022702154
:104060007148FEF769FBC7F8F400FB1D1B78194681
:104070007720FFF7B1F9D7F8F430002B0CD1FB1DF6
:104080001B7819466B48FFF7C9F9FB1D1B781846CA
:10409000FFF76AF900F04EBDFB1D1B78194608209A
:1040A000FFF744F900F046BD07F1880107F1E60289
:1040B00007F188030A33049307F188030833039355
:1040C00007F188030633029307F188030433019351
:1040D00007F18803023300930B46574954480BF00D
:1040E000D5FB0346A7F8FA30B7F8FA30032B40F2B5
:1040F0000381B7F98830002B40F3F680B7F9883098
:10410000102B00F3F180B7F98A30002B40F3EC80DC
:10411000B7F98A30102B00F3E780B7F98C30002B09
:1041200040F3E280B7F98C30102B00F3DD80B7F953
:104130008820B7F98A309A4200F0D680B7F98820F3
:10414000B7F98C309A4200F0CF80B7F98A20B7F9DE
:104150008C309A4200F0C880B7F98830DBB2013B5E
:10416000DAB2314B83F83620B7F98A30DBB2013B43
:10417000DAB22D4B83F83720B7F98C30DBB2013B34
:10418000DAB2294B83F83820FB1D1B7819466920C9
:10419000FFF722F9244B93F836309BB201339BB2E0
:1041A0001AB2FB1D1B7819461046FFF7B9F91E4BD2
:1041B00093F837309BB201339BB21AB2FB1D1B78C8
:1041C00019461046FFF7ACF9174B93F838309BB2FD
:1041D00001339BB21AB2FB1D1B7819461046FFF73C
:1041E0009FF9B7F8FA30042B2CD9B7F98E30002B91
:1041F00024DDB7F98E30102B20DCB7F98E30DBB21E
:10420000013BDAB2084B83F86820074B93F868301B
:104210009BB201339BB21AB2FB1D1B7819461046A4
:10422000FFF77EF90EE000BF300900200C330108D3
:10423000280700201833010838330108BA4BFF2241
:1042400083F86820B7F8FA30052B21D9B7F99030F8
:10425000002B19DDB7F99030102B15DCB7F9903031
:10426000DBB2013BDAB2B04B83F86920AE4B93F876
:1042700069309BB201339BB21AB2FB1D1B78194601
:104280001046FFF74DF903E0A74BFF2283F86920A2
:10429000B7F8FA30062B21D9B7F99230002B19DD87
:1042A000B7F99230102B15DCB7F99230DBB2013B35
:1042B000DAB29D4B83F86A209B4B93F86A309BB22D
:1042C00001339BB21AB2FB1D1B7819461046FFF74B
:1042D00027F903E0944BFF2283F86A20FB1D1B782B
:1042E0001846FFF741F81DE1FB1D1B7819460E200B
:1042F000FFF71CF800F01EBCB7F8FA30012B40F0B5
:104300000B81FB1D1B7819466920FFF765F8864B6A
:1043100093F836309BB201339BB21AB2FB1D1B7867
:1043200019461046FFF7FCF87F4B93F837309BB2E5
:1043300001339BB21AB2FB1D1B7819461046FFF7DA
:10434000EFF8794B93F838309BB201339BB21AB235
:10435000FB1D1B7819461046FFF7E2F8724B93F8E5
:1043600068309BB201339BB21AB2FB1D1B78194611
:104370001046FFF7D5F86C4B93F869309BB20133C8
:104380009BB21AB2FB1D1B7819461046FFF7C8F8FE
:10439000654B93F86A309BB201339BB21AB2FB1D96
:1043A0001B7819461046FFF7BBF8FB1D1B78194612
:1043B0005E48FFF733F80023C7F804310023C7F83D
:1043C000043189E0FB1D1B7819465948FFF726F890
:1043D000D7F804319BB201339BB21AB2FB1D1B7894
:1043E00019461046FFF79CF8FB1D1B7819465148EB
:1043F000FFF714F8D7F80431DBB2184601F084F95E
:1044000003461A46FB1D1B7819461046FFF788F82D
:10441000454B93F836301A46D7F804319A4206D104
:10442000FB1D1B7819464448FEF7F8FF49E03E4B58
:1044300093F837301A46D7F804319A4206D1FB1D5B
:104440001B7819463D48FEF7E9FF3AE0364B93F8F2
:1044500038301A46D7F804319A4206D1FB1D1B7832
:1044600019463748FEF7DAFF2BE02F4B93F86830F8
:104470001A46D7F804319A4206D1FB1D1B7819461B
:104480003048FEF7CBFF1CE0274B93F869301A4603
:10449000D7F804319A4206D1FB1D1B7819462A48E9
:1044A000FEF7BCFF0DE0204B93F86A301A46D7F8B0
:1044B00004319A4205D1FB1D1B7819462348FEF7AB
:1044C000ADFFFB1D1B7819461848FEF7A7FFD7F86C
:1044D00004310133C7F80431D7F804310F2B7FF7CB
:1044E00071AFFB1D1B7819461948FEF797FF194B52
:1044F000DB6B1AB2FB1D1B7819461046FFF710F84C
:10450000FB1D1B7819460948FEF788FFFB1D1B7829
:104510001846FEF729FF0DE3FB1D1B7819460720FF
:10452000FEF704FF00BF05E3300900205433010803
:10453000583301087C33010880330108A033010897
:10454000C0330108DC3301080834010828340108AD
:10455000443401080004004007F1840107F1E60239
:1045600007F18403023300930B46C849C8480BF097
:104570008DF90346A7F8FA30B7F8FA30032B2CD19F
:10458000B7F98430B3F5FA7F20DDB7F98430B3F59D
:10459000FA6F1BDAB7F98630002B17DDB7F98630D2
:1045A000632B13DCFB1D1B7819466E20FEF714FFEE
:1045B000B7F98420B74B5A85B7F98620B54B9A8551
:1045C000FB1D1B781846FEF7CFFE2EE0FB1D1B7867
:1045D00019460E20FEF7AAFEACE2B7F8FA30012B1E
:1045E0001DD1FB1D1B7819466E20FEF7F5FEA94B69
:1045F000B3F92A20FB1D1B7819461046FEF790FFE1
:10460000A44BB3F92C20FB1D1B7819461046FEF76E
:1046100087FFFB1D1B781846FEF7A6FE8AE2FB1DEE
:104620001B7819460720FEF781FE00BF82E207F1E2
:10463000800107F1E60207F18003023300930B4685
:10464000924993480BF022F90346A7F8FA30B7F8DD
:10465000FA30032B2ED1B7F98030B3F5FA7F22DD83
:10466000B7F98030B3F5FA6F1DDAB7F98230002B55
:1046700019DDB7F98230632B15DCFB1D1B78194659
:104680004E20FEF7A9FEB7F98020824BA3F86220E6
:10469000B7F982207F4BA3F86420FB1D1B781846D6
:1046A000FEF762FE2EE0FB1D1B7819460E20FEF77A
:1046B0003DFE3FE2B7F8FA30012B1DD1FB1D1B7800
:1046C00019464E20FEF788FE724BB3F96220FB1D9F
:1046D0001B7819461046FEF723FF6E4BB3F9642092
:1046E000FB1D1B7819461046FEF71AFFFB1D1B78B1
:1046F0001846FEF739FE1DE2FB1D1B781946072000
:10470000FEF714FE00BF15E207F17E0307F1E60293
:1047100061495F480BF0BAF80346A7F8FA30B7F8DA
:10472000FA30022B25D1B7F97E30012B08D0B7F92A
:104730007E30B3F1FF3F03D0B7F97E30002B11D1AB
:10474000FB1D1B7819467220FEF746FEB7F97E3036
:104750005AB2504B83F82920FB1D1B781846FEF7F0
:1047600003FE1BE0FB1D1B7819460A20FEF7DEFD49
:10477000E0E1FB1D1B7819467220FEF72DFE454B2C
:1047800093F929301AB2FB1D1B7819461046FEF723
:10479000C7FEFB1D1B781846FEF7E6FD00BFC9E10A
:1047A00007F17C0307F1E6023B4939480BF06EF84C
:1047B0000346A7F8FA30B7F8FA30022B2ED1B7F932
:1047C0007C30002B0FD1FB1D1B7819464920FEF7CA
:1047D00003FE304B002283F86020FB1D1B78184637
:1047E000FEF7C2FDA6E1B7F97C30012B0FD1FB1D0E
:1047F0001B7819464920FEF7EFFD264B012283F86E
:104800006020FB1D1B781846FEF7AEFD92E1FB1DF4
:104810001B7819460E20FEF789FD8BE1FB1D1B78E6
:1048200019464920FEF7D8FD1A4B93F860301AB2AA
:10483000FB1D1B7819461046FEF772FE154B93F8C8
:104840006030002B06D1FB1D1B7819461348FEF77C
:10485000E5FD05E0FB1D1B7819461148FEF7DEFD5E
:10486000FB1D1B7819460F48FEF7D8FDFB1D1B7872
:104870001846FEF779FD7720FEF7E6FF00BF59E105
:10488000FB1D1B78184600F061F953E10C33010859
:10489000280700203009002068340108703401081E
:1048A00090340108AC34010807F17A0307F1E602FD
:1048B000A249A3480AF0EAFF0346A7F8FA30B7F87E
:1048C000FA30022B2CD1B7F97A30002B0BD0B7F984
:1048D0007A30022B07D0B7F97A30032B03D0B7F91F
:1048E0007A30012B15D1FB1D1B7819466D20FEF780
:1048F00073FDB7F97A30DAB2924B83F83920FDF7BD
:10490000B5FBFDF7D5FBFB1D1B781846FEF72CFD0C
:104910002EE0FB1D1B7819460B20FEF707FD09E171
:10492000FB1D1B7819466D20FEF756FD854B93F84D
:1049300039301AB2FB1D1B7819461046FEF7F0FD00
:10494000FB1D1B7819468048FEF768FD7D4B93F8E8
:104950003930184600F0D6FD0246FB1D1B7819467B
:104960001046FEF75BFDFB1D1B781846FEF7FCFCAE
:1049700000BFDFE0FB1D1B7819465320FEF72CFD1E
:10498000FB1D1B781846FEF7EFFCFB1D1B78184635
:1049900000F0F0F9CEE0FB1D1B78184600F0B4FCE7
:1049A000C8E067480AF0A6FF03460A2B40F28D8054
:1049B0000123A7F8023107F10803C7F8F03004E03B
:1049C000B7F802310133A7F80231B7F802415C4869
:1049D0000AF090FF03469C420AD2B7F80231B3F5C1
:1049E000007F05D8B7F80231554AD35C202BE7D0B9
:1049F0000023A7F8003142E0B7F802315A1CA7F8AB
:104A000002211A464E4B9B5C1846FEF735FEC7F84E
:104A1000EC00B7F802315A1CA7F802211A46484B9D
:104A20009B5C1846FEF728FEC7F8E800D7F8EC3084
:104A3000B3F1FF3F1CD0D7F8E830B3F1FF3F17D0F8
:104A4000D7F8EC30DBB21B01DAB2D7F8E830DBB2D2
:104A5000134487F8E730B7F800315A1CA7F8002153
:104A60001A46D7F8F030134497F8E7201A7006E09A
:104A7000FB1D1B7819460E20FEF758FC5AE0B7F8CC
:104A800002412F480AF036FF0346013B9C4208D200
:104A9000B7F80231B3F5007F03D2B7F800316F2BBE
:104AA000AAD9B7F800316F2B06D8FB1D1B78194621
:104AB0000E20FEF73BFC3DE0224A07F108031046BA
:104AC000194670231A4609F067FFFB1D1B7819462B
:104AD0006220FEF781FCFB1D1B7819462020FEF7A3
:104AE000C7FC184BC7F8F0300023C7F8FC3010E0C3
:104AF000D7F8FC30D7F8F02013441A78FB1D1B7848
:104B000019461046FEF746FDD7F8FC300133C7F8CA
:104B1000FC30D7F8FC306F2BEAD9FB1D1B78184608
:104B2000FEF722FC06E0FB1D1B7819460620FEF767
:104B3000FDFB00BF07F58677BD4690BD68340108D0
:104B400028070020300900200435010880B582B014
:104B500000AF0346FB71FB79184601F05BF8FB7967
:104B6000184601F057F8FB791946644800F0FAFF3F
:104B7000FB791946624800F06BFF624B93F83930BD
:104B8000184600F0BFFC0246FB791946104600F0BB
:104B9000E9FFFB7919465C4800F05AFF594B93F83E
:104BA0006030002B05D1FB791946584800F0DAFF38
:104BB00004E0FB791946564800F0D4FFFB7919460A
:104BC000544800F045FF00F071FC0246FB7919469D
:104BD000104600F03DFFFB79184601F01BF8FB7909
:104BE000184601F017F8FB79184601F013F8FB7925
:104BF000184601F00FF8FB791946474800F0B2FF5C
:104C0000FB79184601F006F8FB791946434800F095
:104C1000A9FFFB791946424800F0A4FFFB79194629
:104C2000404800F09FFFFB7919463F4800F09AFF8B
:104C3000FB7919463D4800F095FFFB7919463C4841
:104C400000F090FFFB7919463A4800F08BFFFB79A2
:104C50001946394800F086FFFB791946374800F0BD
:104C600081FFFB791946364800F07CFFFB79194635
:104C7000344800F077FFFB791946334800F072FFA3
:104C8000FB791946314800F06DFFFB791946304831
:104C900000F068FFFB7919462E4800F063FFFB79AE
:104CA00019462D4800F05EFFFB7919462B4800F0AD
:104CB00059FFFB79184600F0ADFFFB7919462848EB
:104CC00000F050FFFB791946264800F04BFFFB79B6
:104CD0001946254800F046FFFB791946234800F0A5
:104CE00041FFFB791946224800F03CFFFB7918464A
:104CF00000F090FF00BF0837BD4680BDA00900202E
:104D00000835010830090020183501083035010840
:104D10003835010840350108643501087C35010843
:104D2000F035010868360108E03601082837010827
:104D300074370108C03701080C3801085C380108D5
:104D4000BC3801082839010880390108D839010820
:104D5000103A01087C3A0108B83A0108243B0108DE
:104D6000683B0108B43B0108003C01084C3C0108C9
:104D7000983C0108B0B584B000AF0346FB71FB79E5
:104D8000184600F047FFFB79184600F043FFFB7917
:104D9000184600F03FFFFB791946994800F0E2FE03
:104DA000FB79184600F036FFFB79184600F032FF19
:104DB000FB791946934800F04BFEFB79194692485F
:104DC00000F0D0FEFB79184600F024FFFB7918466E
:104DD00000F020FFFB7919468C4800F039FE8C4B1F
:104DE00093F85230012B04D0022B0ED0002B06D0AA
:104DF00011E0FB791946874800F0B4FE0BE0FB791F
:104E00001946854800F0AEFE05E0FB791946834857
:104E100000F0A8FE00BFFB79184600F0FBFEFB790E
:104E2000184600F0F7FEFB7919467D4800F09AFE1F
:104E30007C4B5B6AFB60744BD3E91201724BD3E984
:104E400014341A46234609F02BFD0346002B16D0D6
:104E50006D4BD3E912341846214609F02BFD034669
:104E6000BB60694BD3E91434674AC2E91234B868AD
:104E700009F020FA03460C46634AC2E91434FB7970
:104E80001946694800F0E4FDF86809F013FA5E4B32
:104E9000D3E912341A46234609F0E4FC0346002BFA
:104EA00009D0FB791946F86800F0E2FDFB79194654
:104EB0005E4800F0CDFD544BD3E91234184621462C
:104EC00009F0F8FC0246FB791946104600F0D0FDC7
:104ED000FB791946564800F0BBFD4B4BD3E9124510
:104EE000F86809F0E7F902460B462046294609F022
:104EF000C3FC0346002B11D0F86809F0DBF9424BE4
:104F0000D3E914341A46234609F0B6FC0346002BB5
:104F100004D0FB791946F86800F0AAFDFB79194620
:104F2000444800F095FD384BD3E914341846214627
:104F300009F0C0FC0246FB791946104600F098FDC6
:104F4000F86809F0B7F9304BD3E914341A46234610
:104F500009F0A6FC0346002B09D0FB79194633481B
:104F600000F076FDFB791946F86800F081FDFB79C9
:104F7000184600F04FFEFB79184600F04BFEFB7917
:104F8000184600F047FEFB7919462B4800F0EAFD71
:104F9000FB791946294800F05BFD1B4BB3F92A3019
:104FA000FA791146184600F01BFDFB791946244892
:104FB00000F04EFD144BB3F92C30FA791146184627
:104FC00000F0B4FDFB79184600F024FEFB7918468A
:104FD00000F020FEFB7919461A4800F0C3FDFB796A
:104FE0001946194800F034FD094B93F85130002B55
:104FF0002ED1FB791946154800F0B4FD2CE000BF16
:10500000E83C0108F83C0108300900201C3D01087B
:10501000A0090020303D0108443D0108543D01082D
:10502000683D0108000C00409C3D0108A03D0108BE
:10503000A83D0108B83D0108C83D0108F03D010840
:10504000043E0108083E0108183E01082C3E0108F4
:10505000FB79184600F0DEFD934B93F83930022BB4
:105060001BD0914B93F83930032B16D08E4B93F80D
:105070003930002B11D0FB7919468C4800F0E8FC40
:1050800000F014FA0246FB791946104600F0E0FCE5
:10509000FB791946864800F065FDFB79194685487D
:1050A00000F0D6FC804BB3F92E30FA791146184641
:1050B00000F096FCFB7919467F4800F0C9FCFB79AB
:1050C00019467E4800F0C4FC774BB3F93030FA79CA
:1050D0001146184600F084FCFB791946784800F028
:1050E00041FDFB79184600F095FDFB79194675489E
:1050F00000F0AEFC744B93F85130012B05D1FB79D5
:105100001946724800F02EFD03E0FB79184600F0C6
:1051100081FDFB791946674800F09AFC624BB3F9B0
:105120003230FA791146184600F05AFCFB791946DC
:10513000674800F08DFCFB791946604800F088FC58
:10514000594BB3F93430FA791146184600F048FC4F
:10515000FB7919465A4800F005FDFB79184600F026
:1051600059FDFB79184600F055FDFB791946594861
:1051700000F0F8FCFB791946574800F069FC4A4BEF
:10518000B3F96230FA791146184600F029FCFB7930
:105190001946524800F05CFC434BB3F96430FA798D
:1051A0001146184600F0C2FCFB79184600F032FDAB
:1051B000FB79184600F02EFDFB791946484800F0AF
:1051C000D1FCFB791946474800F0CCFCFB79194625
:1051D000454800F0C7FCFB791946444800F038FC0C
:1051E000314B93F929301BB2FA791146184600F079
:1051F000F7FB2D4B93F92930B3F1FF3F07D0012B7B
:105200000BD1FB7919463A4800F022FC0BE0FB7900
:105210001946384800F01CFC05E0FB791946364871
:1052200000F016FC00BFFB79184600F0F3FCFB7998
:10523000184600F0EFFCFB79184600F0EBFCFB7918
:1052400019462E4800F08EFCFB7919462C4800F0D8
:10525000FFFB154B93F839301BB2FA79114618460B
:1052600000F0BEFBFB791946264800F0F1FB0E4B1F
:1052700093F83930184600F045F90246FB79194693
:10528000104600F06FFCFB79184600F0C3FCFB7978
:10529000184600F0BFFCFB79184600F0BBFC00BFCD
:1052A0001037BD46B0BD00BF30090020383E0108B0
:1052B000483E0108743E0108943E0108AC3E0108D6
:1052C000C83E0108E43E0108A00900202C3E010868
:1052D000F83E0108143F0108F03D0108043E0108B2
:1052E0005C3F0108B03F0108104001087040010810
:1052F00088400108B4400108E04001083441010839
:105300004C4101080435010880B588B000AF034660
:10531000FB71644B03F5204358331B88FB82B7F9BC
:105320001630FB6158E0FA6913469B001344DB001A
:1053300058335C4A13443B613B695B6A002B48D09D
:105340003B695B6A1A46FB791946104600F090FBF0
:105350003B69B3F90830FA791146184600F040FB72
:105360003B691B8C1BB2FA791146184600F038FBDA
:105370003B6993ED067BFB791846B0EE470AF0EEE9
:10538000670A00F091FB3B6993ED007BFB791846BF
:10539000B0EE470AF0EE670A00F086FB3B6993ED3A
:1053A000047BFB791846B0EE470AF0EE670A00F07E
:1053B000EFFBF9693C4B83FB0123DA10CB17D21AC0
:1053C00013469B0013449B00CA1A002A01D101F026
:1053D00051FEFB690133FB61FB69B3F5806FA2DB12
:1053E0000023BB6154E0BA6913469B001344DB0001
:1053F00058332C4A1344FB60FB685B6A1A46FB79FE
:105400001946104600F034FBFB68B3F90830FA790E
:105410001146184600F0E4FAFB681B8C1BB2FA79BF
:105420001146184600F0DCFAFB6893ED067BFB7929
:105430001846B0EE470AF0EE670A00F035FBFB684D
:1054400093ED007BFB791846B0EE470AF0EE670A51
:1054500000F02AFBFB6893ED047BFB791846B0EE65
:10546000470AF0EE670A00F093FBB9690E4B83FB25
:105470000123DA10CB17D21A13469B0013449B006A
:10548000CA1A002A01D101F0F5FDBB690133BB61E5
:10549000B7F91620BB699A42A5DC00BF2037BD468C
:1054A00080BD00BFA00900206766666680B400AFBB
:1054B0000E4B93F85130032B12D801A252F823F06F
:1054C000DD540008D9540008D1540008D554000810
:1054D000074B06E0074B04E0074B02E0074B00E0F8
:1054E000074B1846BD465DF8047B7047A0090020B5
:1054F00054410108604101087841010894410108C4
:10550000A041010880B483B000AF0346FB71FB7972
:10551000032B13D801A252F823F000BF2D55000829
:10552000395500083155000835550008074B06E08D
:10553000074B04E0074B02E0074B00E0074B18461F
:105540000C37BD465DF8047B704700BFB8410108C9
:10555000CC410108E8410108104201081C42010841
:1055600080B500AF664B1B780F2B40F0C780644BB3
:105570001B7E002B40F0C28002F05EFA0246614BB7
:105580005A605F4B1B68C3F30A239BB21A465D4BFC
:105590001A855B4B5B88C3F3CA039BB21A46594B0F
:1055A0005A85574BDA789209D2B29B88C3F3080325
:1055B0009B0013439BB21A46524B9A85504B5B6833
:1055C000C3F34A239BB21A464E4BDA854C4BDB8819
:1055D000C3F30A139BB21A464A4B1A86484BDA7930
:1055E000D209D2B21B89C3F309035B0013439BB2F8
:1055F0001A46444B5A86424B9B68C3F38A239BB29C
:105600001A46404B9A863E4B5B89C3F34A139BB2C2
:105610001A463C4BDA863A4B9B89C3F30A039BB28A
:105620001A46384B1A87364BDB68C3F3CA239BB242
:105630001A46344B5A87324BDA89920992B21B7C54
:1056400003F001039B0213439BB21A462D4B9A872A
:105650002B4B1B8AC3F34A039BB21A46294BDA87AA
:10566000274B1B69C3F30A339BB21A46254BA3F899
:105670004020234B5A8AD20992B21B7D03F00303C8
:105680005B0213439BB21A461E4BA3F842201C4BED
:105690009B8AC3F38A039BB21A461A4BA3F8442091
:1056A000174B5B69C3F34A339BB21A46154BA3F8F9
:1056B0004620134BDB7D03F00103DAB2114B83F874
:1056C00048200F4BDB7D03F00203DAB20D4B83F869
:1056D00049200B4BDB7D03F00403DAB2094B83F85E
:1056E0004A20074BDB7D03F00803DAB2054B83F851
:1056F0004B20044B1B690133024A136100BF80BD7C
:10570000B802002000AA002080B582B000AF034696
:10571000FB7102F091F902461A4B5B68D31A40F60E
:10572000B832934204D8174B93F84B30002B01D07A
:10573000002322E0FB790F2B1ED8FB79114A14338A
:1057400032F81330002B01D1002316E00D4B93F8F3
:105750004C30022B09D1FB790A4A143332F813304A
:10576000A3F5FA739BB21BB207E0FB79054A143329
:1057700032F813301BB200E0002318460837BD464C
:1057800080BD00BF00AA002080B400AF024B1846C5
:10579000BD465DF8047B7047B802002080B58EB02E
:1057A00000AF78607B681B681B683B637B681B6885
:1057B000DB68FB627B681B685B69BB6200237B6202
:1057C0007B681B685B6887F823303B6B03F00F0333
:1057D0007B627B6A002B62D13B6B03F02003002BC2
:1057E00000F0F680FB6A03F02003002B00F0F0804D
:1057F00002F022F9F861784B1B68FA69D31ABB6191
:10580000BB69032B0DD97B68744A9A627B681922A5
:10581000DA85714AFB6913606F4B5B6901336E4A2D
:1058200053617B68DB8D9BB2002B00F0D1807B68DD
:105830009B6A97F823201A707B68DB8D9BB2192B2B
:1058400005D17B689B6A1B780F2B40F0C1807B6879
:10585000DB8D9BB2192B02D15F4AFB6913607B6819
:10586000DB8D9BB2013B9AB27B68DA857B689B6AD1
:105870005A1C7B689A627B68DB8D9BB2002B40F0E0
:10588000A780FFF76DFE7B68544A9A627B681922F5
:10589000DA85514B9B6801334F4A936098E00023AF
:1058A00087F837303B6B03F00103002B1DD0FB6AF8
:1058B00003F48073002B18D07B68DB6B43F001028C
:1058C0007B68DA6300237B617B681B681B687B61F4
:1058D0007B681B685B687B617B693F4B9B6901331D
:1058E0003D4A9361012387F837303B6B03F0040393
:1058F000002B1DD0BB6A03F00103002B18D07B687E
:10590000DB6B43F002027B68DA6300233B617B6858
:105910001B681B683B617B681B685B683B613B697C
:105920002D4BDB6901332C4AD361012387F83730D3
:105930003B6B03F00203002B1DD0BB6A03F0010395
:10594000002B18D07B68DB6B43F004027B68DA63C2
:105950000023FB607B681B681B68FB607B681B681F
:105960005B68FB60FB681C4B1B6A01331A4A1362BD
:10597000012387F837303B6B03F00803002B1DD061
:10598000BB6A03F00103002B18D07B68DB6B43F08C
:1059900008027B68DA630023BB607B681B681B68B6
:1059A000BB607B681B685B68BB60BB680A4B5B6A5B
:1059B0000133094A5362012387F8373097F83730AB
:1059C000002B05D0044BDB680133034AD360FFE7AB
:1059D00000BF3837BD4680BD00AA0020B8020020B5
:1059E00080B582B000AF03460A46FB8013467B7148
:1059F000B7F90630064A5021064809F0F1FE7B79D6
:105A00001946044800F016F900BF0837BD4680BDAE
:105A10003042010850AA002080B582B000AF034692
:105A20000A46FB711346BB71FB79074A50210748B0
:105A300009F0D6FEBB791946044800F0FBF800BF18
:105A40000837BD4680BD00BF3842010850AA00207B
:105A500080B582B000AF78600B46FB70FB781946CA
:105A6000786800F0E7F800BF0837BD4680BD00BF8A
:105A700080B582B000AF78600B46FB707B68074A48
:105A80005021074809F0ACFEFB781946044800F0A5
:105A9000D1F800BF0837BD4680BD00BF3C420108B9
:105AA00050AA00200000000090B587B002AF87ED3B
:105AB000020B0346FB7119A3D3E90023D7E90201C6
:105AC00008F0EEFE0346002B09D116A3D3E900230C
:105AD000D7E9020108F0C6FE0346002B05D0FB798A
