:020000040800F2
:100000000000022081A9000841B4000851B4000892
:1000100065B4000879B400088DB400080000000041
:10002000000000000000000000000000A1B4000873
:10003000B1B4000800000000C1B40008D1B4000849
:10004000EFA90008F1A90008F3A90008F5A9000824
:10005000F7A90008F9A90008FBA90008FDA90008F4
:10006000FFA9000801AA000803AA000805AA0008C1
:100070006DB5000809AA000881B500080DAA00089E
:1000800095B50008A9B5000813AA000815AA00082C
:1000900017AA000819AA00081BAA00081DAA000830
:1000A0001FAA000821AA000823AA000845B50008D5
:1000B00027AA000829AA00082BAA00082DAA0008D0
:1000C0002FAA000831AA000833AA000835AA0008A0
:1000D00037AA0008E1B40008F5B4000809B5000823
:1000E0003FAA000841AA000843AA000845AA000840
:1000F00047AA000849AA00084BAA00084DAA000810
:100100004FAA000851AA000859B5000855AA0008CE
:1001100057AA000859AA00085BAA00085DAA0008AF
:100120005FAA000861AA0008BDB5000865AA00081A
:1001300067AA000869AA00086BAA00086DAA00084F
:100140006FAA000871AA000873AA000831B5000858
:1001500077AA0008D1B500087BAA00081DB50008E1
:100160007FAA000881AA000883AA000885AA0008BF
:1001700087AA000889AA00088BAA00088DAA00088F
:100180008FAA000891AA000810B5054C237833B94E
:10019000044B13B10448AFF300800123237010BD5A
:1001A000480200200000000064BF0108084B10B5A1
:1001B0001BB108490848AFF300800848036803B939
:1001C00010BD074B002BFBD0BDE81040184700BF07
:1001D000000000004C02002064BF0108480200201B
:1001E00000000000154B002B08BF134B9D46A3F5E4
:1001F000803A00218B460F461348144A121A14F015
:10020000F2FB0F4B002B00D098470E4B002B00D079
:1002100098470020002104000D000D48002802D05E
:100220000C48AFF3008014F09DFB2000290003F080
:1002300025F914F083FB00BF000008000000022035
:1002400000000000000000004802002028C4002038
:10025000000000000000000080B584B000AF7860AE
:100260000B46FB700023FB737B681B7C002B0ED1BD
:100270004FF400730222812178680CF0FDF84FF4EE
:1002800000730222012178680CF0F6F80BE040239D
:100290000222812178680CF0EFF84023022201212C
:1002A00078680CF0E9F808230322822178680CF0C2
:1002B000E3F84FF4077014F07BFB03461A467B68A3
:1002C000C3F818227B68D3F81832002B02D101231F
:1002D000FB7326E07B68D3F81832BB607B68D3F8E9
:1002E0001C321B689847BB680022C3F81422BB6805
:1002F0000022C3F818227B681B7C002B09D1BB6845
:10030000D3F804224FF40073012178680CF030FA1E
:1003100007E0BB68D3F804224023012178680CF081
:1003200027FAFB7B18461037BD4680BD80B584B0E8
:1003300000AF78600B46FB700023FB738121786867
:100340000CF0D8F8012178680CF0D4F88221786894
:100350000CF0D0F87B68D3F81832002B0ED07B68F5
:10036000D3F81C325B6898477B68D3F8183218467C
:1003700014F026FB7B680022C3F81822FB7B18468A
:100380001037BD4680BD00BF80B584B000AF786037
:1003900039607B68D3F81832FB603B681B7803F048
:1003A0006003002B3AD0202B00D043E03B68DB8871
:1003B000002B29D03B681B785BB2002B11DA7B68DD
:1003C000D3F81C329B683A685078F9683A68D2884A
:1003D0009847F9683B68DB881A46786801F09CF812
:1003E00029E03B685A78FB6883F800223B68DB8889
:1003F000DAB2FB6883F80122F9683B68DB881A46A9
:10040000786801F0B7F816E07B68D3F81C329B6877
:100410003A6850780022396898470CE03B685B786E
:100420000A2B01D00B2B05E001220549786801F069
:1004300073F800BF00BF002318461037BD4680BDCB
:100440006402002080B485B000AF78600B46FB707A
:100450007B68D3F81832FB607B68D3F81832002B26
:1004600005D0FB680022C3F81422002300E0022319
:1004700018461437BD465DF8047B704780B584B0DC
:1004800000AF78600B46FB707B68D3F81832FB60D6
:10049000FB78194678680CF0A5F90246FB68C3F8AA
:1004A0000C227B68D3F81832002B0DD07B68D3F870
:1004B0001C32DB68FA68D2F80402FA6802F50372AB
:1004C00011469847002300E0022318461037BD4626
:1004D00080BD00BF80B584B000AF78607B68D3F882
:1004E0001832FB607B68D3F81C32002B15D0FB68F8
:1004F00093F80032FF2B10D07B68D3F81C329B6836
:10050000FA6892F80002F968FA6892F8012292B249
:100510009847FB68FF2283F8002200231846103713
:10052000BD4680BD80B483B000AF78607B68432255
:100530001A80034B18460C37BD465DF8047B7047A4
:100540008800002080B483B000AF78607B684322CD
:100550001A80034B18460C37BD465DF8047B704784
:100560004400002080B483B000AF78607B684322F1
:100570001A80034B18460C37BD465DF8047B704764
:10058000CC00002080B483B000AF78607B680A2282
:100590001A80034B18460C37BD465DF8047B704744
:1005A0000000002080B485B000AF7860396002237D
:1005B000FB733B68002B05D07B683A68C3F81C22AC
:1005C0000023FB73FB7B18461437BD465DF8047BA4
:1005D000704700BF80B487B000AFF860B9601346C1
:1005E000FB80FB68D3F818327B617B69BA68C3F87B
:1005F0000822FA887B69C3F81022002318461C37AA
:10060000BD465DF8047B704780B485B000AF78606C
:1006100039607B68D3F81832FB60FB683A68C3F82E
:100620000422002318461437BD465DF8047B70474A
:1006300080B584B000AF78607B68D3F81832FB6077
:100640007B68D3F81832002B17D0FB68D3F814322C
:10065000002B10D1FB680122C3F81422FB68D3F8E9
:100660000822FB68D3F810329BB2812178680CF025
:1006700045F8002302E0012300E00223184610376A
:10068000BD4680BD80B584B000AF78607B68D3F88C
:100690001832FB607B68D3F81832002B17D07B68C8
:1006A0001B7C002B09D1FB68D3F804224FF40073A4
:1006B000012178680CF05CF807E0FB68D3F80422AD
:1006C0004023012178680CF053F8002300E0022356
:1006D00018461037BD4680BD80B584B000AFF860C5
:1006E000B9601346FB71FB68002B01D102231AE0AD
:1006F000FB68D3F81432002B03D0FB680022C3F848
:100700001422BB68002B03D0FB68BA68C3F8102220
:10071000FB68012283F8FC21FB68FA791A70F868FB
:100720000BF0C0FD002318461037BD4680BD00BF4A
:1007300080B582B000AF78607B68012283F8FC212D
:100740007B68D3F814325B687A685268D2B211467B
:100750007868984778680BF05DFE78680BF0F6FDD6
:10076000002318460837BD4680BD00BF80B485B061
:1007700000AF786039600023FB733B68002B06D024
:100780007B683A68C3F814220023FB7301E002235C
:10079000FB73FB7B18461437BD465DF8047B70473E
:1007A00080B582B000AF786078680BF001FE00235E
:1007B00018460837BD4680BD80B582B000AF78606E
:1007C0007B68D3F814325B687A685268D2B21146FB
:1007D0007868984778680BF01DFE002318460837A4
:1007E000BD4680BD80B483B000AF7860002318465A
:1007F0000C37BD465DF8047B704700BF80B584B000
:1008000000AF78600B46FB700223FB737B68D3F864
:100810001432002B0CD07B68D3F814321B68FA78A2
:100820001146786898470346002B01D10023FB73DB
:10083000FB7B18461037BD4680BD00BF80B582B037
:1008400000AF78600B46FB707B68D3F814325B68AE
:10085000FA78114678689847002318460837BD464D
:1008600080BD00BF80B582B000AF786039607B6822
:1008700003F502733968184600F0A2FD7B68012277
:10088000C3F8F4217B68B3F80E321A467B68C3F8CC
:10089000F8217B6893F8083203F01F03012B0BD07B
:1008A000022B11D0002B17D17B6803F50273194678
:1008B000786800F0CFF91AE07B6803F502731946F7
:1008C000786800F017FA12E07B6803F502731946A6
:1008D000786800F043FA0AE07B6893F8083223F066
:1008E0007F03DBB2194678680BF03AFE00BF0023A5
:1008F00018460837BD4680BD80B586B000AFF860A9
:100900000B467A60FB72FB7A002B38D1FB6803F54B
:1009100082737B61FB68D3F8F431032B42D17B698E
:100920009A687B69DB689A4214D97B699A687B690B
:10093000DB68D21A7B699A607B69DA687B699B689D
:10094000934228BF13469BB21A467968F86800F0B4
:100950002FFE27E0FB68D3F814321B69002B0AD066
:10096000FB6893F8FC31032B05D1FB68D3F81432F4
:100970001B69F8689847F86800F02CFE12E0FB68E5
:10098000D3F814329B69002B0CD0FB6893F8FC3130
:10099000032B07D1FB68D3F814329B69FA7A11460E
:1009A000F8689847002318461837BD4680BD00BF39
:1009B00080B586B000AFF8600B467A60FB72FB7AB8
:1009C000002B6CD1FB6814337B61FB68D3F8F431E6
:1009D000022B57D17B699A687B69DB689A4215D9EB
:1009E0007B699A687B69DB68D21A7B699A607B694C
:1009F0009B689BB21A467968F86800F0A9FD00234D
:100A000000220021F8680BF0B3FE3BE07B695B68D5
:100A10007A69D268B3FBF2F102FB01F29B1A002B58
:100A20001CD17B695A687B69DB689A4216D37B6963
:100A30005A68FB68D3F8F8319A420FD2002200219D
:100A4000F86800F085FDFB680022C3F8F821002358
:100A500000220021F8680BF08BFE13E0FB68D3F84E
:100A60001432DB68002B0AD0FB6893F8FC31032BAF
:100A700005D1FB68D3F81432DB68F8689847F8684A
:100A800000F0BCFDFB6893F80032012B1AD1F86826
:100A9000FFF7A8FEFB68002283F8002212E0FB6843
:100AA000D3F814325B69002B0CD0FB6893F8FC314F
:100AB000032B07D1FB68D3F814325B69FA7A11462D
:100AC000F8689847002318461837BD4680BD00BF18
:100AD00080B582B000AF78604023002200217868A2
:100AE0000BF0CAFC7B684022C3F81021402300228F
:100AF000802178680BF0C0FC7B6840221A627B681A
:100B0000012283F8FC217B68D3F81832002B09D02E
:100B10007B68D3F814325B687A685268D2B21146A7
:100B200078689847002318460837BD4680BD00BF47
:100B300080B483B000AF78600B46FB707B68FA78B6
:100B40001A74002318460C37BD465DF8047B7047C5
:100B500080B483B000AF78607B6893F8FC217B6839
:100B600083F8FD217B68042283F8FC2100231846CA
:100B70000C37BD465DF8047B704700BF80B483B07E
:100B800000AF78607B6893F8FD217B6883F8FC21D7
:100B9000002318460C37BD465DF8047B704700BF44
:100BA00080B582B000AF78607B6893F8FC31032B8E
:100BB0000BD17B68D3F81432DB69002B05D07B683E
:100BC000D3F81432DB697868984700231846083751
:100BD000BD4680BD80B483B000AF78600B46FB702B
:100BE000002318460C37BD465DF8047B704700BFF4
:100BF00080B483B000AF78600B46FB7000231846CA
:100C00000C37BD465DF8047B704700BF80B483B0ED
:100C100000AF7860002318460C37BD465DF8047BB2
:100C2000704700BF80B582B000AF78607B6801225A
:100C300083F8FC217B68D3F814325B687A685268C9
:100C4000D2B2114678689847002318460837BD4647
:100C500080BD00BF80B584B000AF786039600023EC
:100C6000FB733B685B78092B39D801A252F823F05B
:100C7000C10C0008D50C0008DF0C0008CB0C0008E4
:100C8000DF0C0008A30C0008990C0008DF0C00081A
:100C9000B70C0008AD0C00083968786800F036F928
:100CA00022E03968786800F025FA1DE03968786834
:100CB00000F05EFA18E03968786800F0E1FA13E0B5
:100CC0003968786800F00EFB0EE03968786800F04B
:100CD00033FB09E03968786800F04AFB04E03968C2
:100CE000786800F0ABFB00BFFB7B18461037BD46B1
:100CF00080BD00BF80B584B000AF7860396000234C
:100D0000FB737B6893F8FC31032B1BD13B689B88FA
:100D1000DBB2012B11D87B68D3F814329B68396899
:100D2000786898473B68DB88002B10D1FB7B002B51
:100D30000DD1786800F04EFC09E03968786800F061
:100D40007DFB04E03968786800F078FB00E000BFC4
:100D5000002318461037BD4680BD00BF80B584B063
:100D600000AF786039600023FB733B689B88BB73DE
:100D70003B681B7803F06003202B08D17B68D3F815
:100D800014329B683968786898470023BAE03B685A
:100D90005B78012B39D0032B02D0002B6BD0B0E055
:100DA0007B6893F8FC31022B02D0032B0CD025E09A
:100DB000BB7B002B27D0BB7B802B24D0BB7B194671
:100DC00078680BF0CDFB1EE03B685B88002B0AD1F6
:100DD000BB7B002B07D0BB7B802B04D0BB7B194691
:100DE00078680BF0BDFB7B68D3F814329B683968D8
:100DF00078689847786800F0EDFB05E03968786816
:100E000000F01CFB00E000BF7BE07B6893F8FC3146
:100E1000022B02D0032B0CD024E0BB7B002B26D06E
:100E2000BB7B802B23D0BB7B194678680BF098FBEB
:100E30001DE03B685B88002B1BD1BB7B03F07F036D
:100E4000002B0BD0BB7B194678680BF0BFFB7B688F
:100E5000D3F814329B68396878689847786800F04E
:100E6000B9FB06E03968786800F0E8FA02E000BFF4
:100E700047E000BF45E07B6893F8FC31022B02D0CD
:100E8000032B0BD036E0BB7B03F07F03002B36D067
:100E9000BB7B194678680BF063FB30E097F90E30A6
:100EA000002B08DABB7B03F07F0301331B017A6858
:100EB0001344043307E0BB7B03F07F0310331B01B3
:100EC0007A6813440433BB60BB7B194678680BF027
:100ED000B3FB0346002B03D0BB6801221A6002E07B
:100EE000BB6800221A60BB6802221946786800F0CD
:100EF00013FB05E03968786800F0A0FA00E000BF55
:100F000000BFFB7B18461037BD4680BD80B584B05E
:100F100000AF786039603B685B881B0A9BB2013B7D
:100F2000062B00F2C98001A252F823F0490F0008F5
:100F3000610F0008A10F0008B9100008B9100008DF
:100F4000651000088B1000087B68D3F810321B680E
:100F50007A68127C07F10A0110469847F860B0E001
:100F60007B681B7C002B0DD17B68D3F814329B6A05
:100F700007F10A0210469847F860FB680133022225
:100F80001A709EE07B68D3F81432DB6A07F10A021C
:100F900010469847F860FB68013302221A7090E00F
:100FA0003B685B88DBB2052B56D801A252F823F0D0
:100FB000C90F0008E10F0008F90F00081110000820
:100FC00029100008411000087B68D3F810325B68D4
:100FD0007A68127C07F10A0110469847F86040E0F1
:100FE0007B68D3F810329B687A68127C07F10A019B
:100FF00010469847F86034E07B68D3F81032DB681D
:101000007A68127C07F10A0110469847F86028E0D8
:101010007B68D3F810321B697A68127C07F10A01E9
:1010200010469847F8601CE07B68D3F810325B6983
:101030007A68127C07F10A0110469847F86010E0C0
:101040007B68D3F810329B697A68127C07F10A0139
:1010500010469847F86004E03968786800F0EEF9C7
:1010600044E02EE07B681B7C002B09D17B68D3F821
:1010700014325B6B07F10A0210469847F86020E0D3
:101080003968786800F0DAF930E07B681B7C002B67
:101090000DD17B68D3F814321B6B07F10A0210469E
:1010A0009847F860FB68013307221A7009E0396835
:1010B000786800F0C3F919E03968786800F0BEF983
:1010C00014E07B89002B11D03B68DB88002B0DD00E
:1010D0003B68DA887B89934228BF13469BB27B81A9
:1010E0007B891A46F968786800F016FA1037BD4611
:1010F00080BD00BF80B584B000AF786039603B68C8
:101100009B88002B2CD13B68DB88002B28D13B68C7
:101110005B88DBB203F07F03FB737B6893F8FC31E1
:10112000032B04D13968786800F088F91CE07B68EB
:10113000FA7B83F8FE21FB7B194678680BF0A8FA4E
:10114000786800F047FAFB7B002B04D07B68022212
:1011500083F8FC2108E07B68012283F8FC2103E08E
:101160003968786800F06AF900BF1037BD4680BD65
:1011700080B582B000AF786039603B685B88DAB2D6
:101180003E4B1A703D4B1B78012B04D939687868A7
:1011900000F054F96FE07B6893F8FC31022B02D029
:1011A000032B23D062E0354B1B78002B1AD0334B36
:1011B0001B781A467B685A607B68032283F8FC21FF
:1011C0002E4B1B7819467868FFF718FB0346022B55
:1011D00004D13968786800F031F94CE0786800F0A3
:1011E000F9F948E0786800F0F5F944E0234B1B7802
:1011F000002B12D17B68022283F8FC211F4B1B7845
:101200001A467B685A601D4B1B7819467868FFF7B1
:1012100015FB786800F0DEF92DE0184B1B781A46B4
:101220007B685B689A421DD07B685B68DBB21946BD
:101230007868FFF703FB114B1B781A467B685A60EE
:101240000E4B1B7819467868FFF7D8FA0346022B35
:1012500004D13968786800F0F1F80CE0786800F0A3
:10126000B9F908E0786800F0B5F904E03968786801
:1012700000F0E4F800BF0837BD4680BD65020020DD
:1012800080B582B000AF786039603B68DB88012BA5
:1012900004D03968786800F0D1F81FE07B6893F8D3
:1012A000FC31022B02D0032B0BD012E07B68002212
:1012B0009A607B68083301221946786800F02CF99F
:1012C0000CE07B68043301221946786800F024F9A9
:1012D00004E03968786800F0B1F800BF00BF083753
:1012E000BD4680BD80B582B000AF786039607B6854
:1012F00093F8FC31023B012B15D87B680122DA60A0
:101300007B68D3F80432002B05D07B68DB6843F0A0
:1013100002027B68DA607B680C3302221946786827
:1013200000F0FAF804E03968786800F087F800BF48
:1013300000BF0837BD4680BD80B582B000AF786081
:1013400039603B685B88012B0DD17B680122C3F8B3
:1013500004227B68D3F814329B6839687868984710
:10136000786800F037F900BF0837BD4680BD00BF80
:1013700080B582B000AF786039607B6893F8FC314B
:10138000023B012B12D83B685B88012B13D17B6891
:101390000022C3F804227B68D3F814329B683968B2
:1013A00078689847786800F015F904E0396878683B
:1013B00000F044F800E000BF00BF0837BD4680BD24
:1013C00080B483B000AF786039603B681A787B687E
:1013D0001A703B685A787B685A703B6802331B78F6
:1013E0009AB23B6803331B789BB21B029BB2134437
:1013F0009AB27B685A803B6804331B789AB23B6888
:1014000005331B789BB21B029BB213449AB27B68D4
:101410009A803B6806331B789AB23B6807331B7887
:101420009BB21B029BB213449AB27B68DA8000BF66
:101430000C37BD465DF8047B704700BF80B582B0B5
:1014400000AF78603960802178680BF089F800215E
:1014500078680BF085F800BF0837BD4680BD00BF37
:1014600080B586B000AFF860B9607A600023FB7584
:10147000FB68002B33D0F86800F036F803460133E0
:101480009BB25B009AB27B681A80FB7D5A1CFA758E
:101490001A46BB6813447A681288D2B21A70FB7D70
:1014A0005A1CFA751A46BB68134403221A7012E0DC
:1014B000FB7D5A1CFA751A46BB681A44FB68591C16
:1014C000F9601B781370FB7D5A1CFA751A46BB68CD
:1014D000134400221A70FB681B78002BE8D100BF70
:1014E0001837BD4680BD00BF80B485B000AF7860BE
:1014F0000023FB7305E0FB7B0133FB737B68013347
:101500007B607B681B78002BF5D1FB7B184614377A
:10151000BD465DF8047B704780B584B000AFF860CD
:10152000B9601346FB80FB680222C3F8F421FA88F5
:10153000FB689A61FA88FB68DA61FB88BA68002167
:10154000F8680BF0DBF8002318461037BD4680BD65
:1015500080B584B000AFF860B9601346FB80FB88AB
:10156000BA680021F8680BF0C9F800231846103754
:10157000BD4680BD80B584B000AFF860B960134649
:10158000FB80FB680322C3F8F421FA88FB68C3F8E8
:101590000821FA88FB68C3F80C21FB88BA6800218F
:1015A000F8680BF0E5F8002318461037BD4680BDFB
:1015B00080B584B000AFF860B9601346FB80FB884B
:1015C000BA680021F8680BF0D3F8002318461037EA
:1015D000BD4680BD80B582B000AF78607B680422D4
:1015E000C3F8F42100230022002178680BF086F86C
:1015F000002318460837BD4680BD00BF80B582B0C5
:1016000000AF78607B680522C3F8F4210023002234
:10161000002178680BF0ACF8002318460837BD4667
:1016200080BD00BFB0B58CB000AF002387F8233079
:10163000764B3C1D1D460FCD0FC495E8070084E88E
:101640000700002387F82F30002387F82E303DE075
:10165000012008F0ADFD01216D4808F053FC97F81A
:101660002F309B0007F13002134453F82C3C01212A
:10167000184608F05BFC0121664808F023FD97F846
:101680002F309B0007F13002134453F82C3C1846CE
:1016900000F042F90021604808F034FC07F1230211
:1016A00007F124031146184600F0CEF807F1230293
:1016B00007F124031146184600F012F90346002BE7
:1016C00009D197F82F30013387F82F3097F82F3052
:1016D000062BBDD900E000BF97F82F30072B00F094
:1016E0008C80012008F064FD01214C4808F00AFCC0
:1016F00097F82F309B0007F13002134453F82C3C2D
:101700000121184608F012FC0121424808F0DAFCD9
:1017100097F82F30042B26D00121414808F0D2FC45
:101720000021404808F0EEFB07F1230207F12403F3
:101730001146184600F088F84FF4164000F0ECF817
:1017400007F1230207F124031146184600F0C8F8F8
:101750000346002B04D00121334808F0B3FC02E01B
:10176000012387F82E3097F82E30002B45D1012029
:1017700008F01EFD01212D4808F0A4FC00212C4892
:1017800008F0C0FB07F1230207F1240311461846B5
:1017900000F05AF807F1230207F124031146184616
:1017A00000F09EF80346002B27D00121214808F0C5
:1017B00089FC012008F0FCFC01211F4808F082FC94
:1017C00000211E4808F09EFB07F1230207F12403C5
:1017D0001146184600F038F807F1230207F12403F8
:1017E0001146184600F07CF80346002B05D0012175
:1017F000134808F067FC012304E00121114808F0B8
:1018000061FC002318463037BD46B0BD7490010816
:10181000948E0108C48E0108CC8E0108D08E010878
:10182000008F0108348F0108408F01085C8F010888
:10183000988F0108A88F0108CC8F01080C9001082F
:10184000189001084490010880B586B000AF786018
:1018500039600BF035FC38613B6800221A701F4B71
:10186000DB8DFB8229E00AF087FB1C4BDB8D9BB2F2
:10187000FA8A9A4221D0194B996A184B9A8DFB8AA1
:10188000B3FBF2F002FB00F29B1A9BB20B441B78F5
:10189000FB733B681B78092B0CD83B681B781A46F6
:1018A0007B681344FA7B1A703B681B780133DAB209
:1018B0003B681A70FB8A0133FB820BF001FC024685
:1018C0003B69D31A40F6B7329342CCD9012008F0D5
:1018D0006FFC00BF1837BD4680BD00BFDC03002091
:1018E00080B483B000AF786039603B681B78012B0F
:1018F0000AD97B681B784F2B06D17B6801331B7894
:101900004B2B01D1012300E0002318460C37BD46C4
:101910005DF8047B704700BF80B582B000AF78608F
:101920000A4B002283F86D20094A7B6853600848FF
:1019300010F038F90346002B03D00121054808F0C8
:10194000C1FB00BF0837BD4680BD00BF8008002036
:10195000DC0300209090010880B400AF034B1B68AB
:101960001846BD465DF8047B704700BF6802002042
:1019700080B400AF044B1B680133034A136000BFFF
:10198000BD465DF8047B70476802002080B400AF5C
:10199000094B1A68094BA3FB02131B09322101FBF7
:1019A00003F3D31A002B0CBF01230023DBB218462C
:1019B000BD465DF8047B7047680200201F85EB512F
:1019C00080B400AF0A4B19680A4BA3FB0123DA0865
:1019D00013469B0013445B00CA1A002A0CBF012364
:1019E0000023DBB21846BD465DF8047B704700BF9C
:1019F00068020020CDCCCCCC80B483B000AF0346CD
:101A00000A46FB801346BB80B7F90630B7F90420BD
:101A100093FBF2F102FB01F29B1AFB80B7F906304F
:101A2000002B04DABA88FB8813449BB200E0FB88E1
:101A300018460C37BD465DF8047B704780B584B00E
:101A400000AF584B93F86230012B06D1564BDB6A3E
:101A500018460BF031F8F86002E0544B5B6AFB600B
:101A6000504BD3ED037AF5EE407AF1EE10FA08D13F
:101A7000FB6807EE903AF8EEE77A4D4BC3ED1C7A1F
:101A80000CE0FB6807EE903AB8EEE77A454BD3EDF1
:101A9000037A67EE277A464BC3ED1C7AFFF75CFFAB
:101AA000B860434B93ED1C7A424BD3ED007AB4EE11
:101AB000677AF1EE10FA2AD03D4B9B6FBA68D31AC1
:101AC0007B603B4B93ED1C7A3A4BD3ED007A77EE7B
:101AD000677A374BC3ED1D7A354B93ED1D7A7B68E2
:101AE00007EE903AF8EE677AC7EE276AB0EE660A1C
:101AF00000F07EF8F0EE407A2D4BC3ED1F7A2C4AB1
:101B0000BB6893672A4B1B6F2A4A136011E0284B6E
:101B10009B6FBA68D31A192B0BD9254B4FF00002D3
:101B2000DA67234B4FF000025A67214B1B6F214AA3
:101B300013601C4B93F86230012B2FD00BF0C0FACE
:101B400002461B4BD3F8BC31D31A3B60184BD3F879
:101B5000B831002B03D03B68B3F5FA7F05D9144B9D
:101B60004FF00002C3F8802018E03B68B3F5967F81
:101B700006D90F4BD3F8B83114330D4AC2F8B83137
:101B80000B4BD3F8B83107EE903AB8EE677ADFED39
:101B90000A6AC6EE877A064BC3ED207A00BF10377B
:101BA000BD4680BDFC070020DCBD0020000C0040CD
:101BB00080080020700200200000A04280B400AF26
:101BC0000A4B022283F85220084B032283F85A2042
:101BD000064B0022C3F8B821044B0022C3F8BC21F5
:101BE00000BFBD465DF8047B704700BF8008002041
:101BF00080B483B000AF87ED010AD7ED017AF5EE2E
:101C0000C07AF1EE10FA04D5D7ED017AF1EE677AD9
:101C100001E0D7ED017AB0EE670A0C37BD465DF8FA
:101C2000047B704780B500AF044BDB7D184607F09E
:101C30000BFFF0EE407AB0EE670A80BDFC07002093
:101C400080B500AF044B1B7E184607F0FDFEF0EE9A
:101C5000407AB0EE670A80BDFC07002080B500AF77
:101C6000044B5B7E184607F087FFF0EE407AB0EE3B
:101C7000670A80BDFC07002080B500AF044B9B7E47
:101C8000184607F079FFF0EE407AB0EE670A80BDA3
:101C9000FC07002080B500AF044BDB7E184607F040
:101CA000D3FEF0EE407AB0EE670A80BDFC0700205C
:101CB00080B500AF054B93F85630184607F0C4FEC8
:101CC000F0EE407AB0EE670A80BD00BFFC0700204E
:101CD00080B500AF054B93F85230184607F0B4FEBC
:101CE000F0EE407AB0EE670A80BD00BFFC0700202E
:101CF00080B584B000AF9C4B9B7D184607F0A4FED6
:101D000087ED030A97ED037AD7ED037AB4EE677A8D
:101D1000F1EE10FA02D74FF000031EE1934B93F857
:101D20005230022B04D0914B93F85230032B2FD119
:101D3000D7ED037AF5EE407AF1EE10FA28D08B4B0E
:101D400093F85230022B20D10221894808F0DAF8AA
:101D5000022097ED030A08F005F90221854808F0F2
:101D6000D1F8D7ED037AFDEEE77AC7ED017ABB88AB
:101D70001BB20221184608F087F802217E4808F0BD
:101D8000C1F87A4B032283F852204FF00003E4E0BD
:101D9000764B93F85A30012B40F0DE80734B93F86A
:101DA0005230002B08D0714B032283F85A200221B5
:101DB000724808F087F9CFE06B4B1B7F032B08D0EC
:101DC0006A4B032283F85A2002216D4808F07AF901
:101DD000C2E0D7ED037AF5EE407AF1EE10FA08D0C2
:101DE000624B032283F85A200221664808F06AF900
:101DF000B2E0654BD3ED037A9FED647AF4EE477A57
:101E0000F1EE10FA08D1594B032283F85A2002212F
:101E10005F4808F057F99FE05B4BD3ED047A9FEDE4
:101E20005D7AF4EE477AF1EE10FA08D14F4B0322B7
:101E300083F85A200221584808F044F98CE04A4BB4
:101E4000D3ED037AF5EE407AF1EE10FA08D1474B64
:101E5000032283F85A200221504808F033F97BE02E
:101E60000BF02EF90246414BDB6DD31AB3F5FA6F36
:101E700072D23E4B93F95B30002B1DD13B4B93ED5F
:101E80001C7A414BD3ED037A37EE677A3E4BD3EDA4
:101E9000046A364BD3ED1C7A76EEE77AB4EEE77A35
:101EA000F1EE10FA04D5314B012283F85B2003E0F8
:101EB0002E4BFF2283F85B200BF002F902462B4BDE
:101EC0001B6ED21A284BDB6F9A4203D24FF00003ED
:101ED000FB6041E0254B93F95B30012B1CD1234B78
:101EE00093ED1C7A284BD3ED047ADFED2D6A77EE63
:101EF000E67AB4EEE77AF1EE10FA03D51A4B1B6CD2
:101F0000FB6029E00BF0DCF80246184B1A66174B11
:101F1000FF2283F85B201FE0144B93ED1C7A1A4BD1
:101F2000D3ED037ADFED1E6A77EEA67AB4EEE77A98
:101F3000F1EE10FA07DD0C4BD3ED107AF1EE677A73
:101F4000C7ED037A08E00BF0BBF80246074B1A66B0
:101F5000064B012283F85B20FB6807EE903AB0EE57
:101F6000670A1037BD4680BDFC07002080080020AE
:101F7000D4900108F49001080C91010860910108C7
:101F8000A4910108D4910108E4070020000000CFCB
:101F9000FC9101080000004F1C92010840920108CA
:101FA0000000304280B588B000AFFFF7A1FE87ED9A
:101FB000050ABA4BD3ED0E7AB7EE007A37EE677AA0
:101FC000D7ED057A27EE277AD7ED057A27EE277A1F
:101FD000D7ED057A27EE277AB04BD3ED0E6AD7ED11
:101FE000057A66EEA77A77EE277AC7ED077AAC4BCB
:101FF000D3ED007AB0EE670A00F04EFE00F094FEDA
:1020000001F014F801F056F801F098F801F0E4F846
:10201000A24B1B7F012B00F0A182A24B5B6E3B61A8
:102020009F4BD3ED007A97ED077A77EE677AC7ED8D
:10203000037A97ED037AD7ED047AB4EEE77AF1EEFE
:1020400010FA0ADCD7ED047AB1EE677AD7ED037A9D
:10205000B4EEE77AF1EE10FA04DD924B012283F838
:10206000562003E08F4B002283F8562097ED037A29
:10207000D7ED047AB4EEE77AF1EE10FA09DD884B79
:1020800093ED007AD7ED047A77EE277AC7ED077AD9
:1020900013E0D7ED047AB1EE677AD7ED037AB4EEA8
:1020A000E77AF1EE10FA08DD7D4B93ED007AD7ED7B
:1020B000047A77EE677AC7ED077A7A4B93F8523055
:1020C000002B40F04B82754B1B7F012B00F04682AA
:1020D000724B1B7F022B00F04182724BD3ED197AB9
:1020E00097ED077AC7EE276AB0EE660AFFF780FD24
:1020F00087ED020A6B4BDB6FBB616A4BD3ED1F7A36
:10210000B2EE007AF4EEC77AF1EE10FA0CD5654B18
:10211000D3ED207AF5EE407AF1EE10FA04D0614B5F
:10212000D3F88030BB6102E05E4BDB6FBB6197EDA3
:10213000067AD7ED027A27EE277AF0EE006AC7EE2C
:10214000267AC7ED017A584B93ED037A564BD3EDBF
:10215000047AB4EEE77AF1EE10FA09DD524BDB684F
:102160003B60514B1B69504AD3604F4A3B68136137
:102170004C4B93ED1C7AD7ED017A37EE277A4A4B18
:10218000D3ED046A454BD3ED207A76EEE77AB4EED0
:10219000E77AF1EE10FA37D5424B93ED1C7AD7ED82
:1021A000017A37EE677A404BD3ED036A3B4BD3EDB0
:1021B000207A76EEA77AB4EEE77AF1EE10FA23DD14
:1021C000384B002283F85820364B002283F85920E0
:1021D000344B93F86E30002B00F0BF81D7ED077AB7
:1021E000F5EE407AF1EE10FA00F0B7812D4B93F83E
:1021F00051301946632097ED061AD7ED010A97ED85
:10220000070A00F011FBA8E1D7ED077AF5EEC07AD6
:10221000F1EE10FA40F3BE80224B93ED1C7AD7ED1D
:10222000017A37EE277A204BD3ED046A1B4BD3EDAE
:10223000207A76EEE77AB4EEE77AF1EE10FAC0F2A1
:10224000A9800022102119480BF038FF154B93ED9F
:102250001C7A154BD3ED047AB4EEE77AF1EE10FA5E
:1022600026DB0F4B4FF000021A600E4B93F85930EB
:1022700083F00103DBB2002B09D00221022097ED8D
:10228000061AD7ED010A97ED070A00F0CDFA054BC3
:10229000012283F85920024B1B6863E1FC070020F0
:1022A0006C02002080080020E407002000040240A7
:1022B000B04B93ED007AD7ED047A77EE677AC7EDED
:1022C000077AD7ED077AF5EEC07AF1EE10FA02D56B
:1022D0004FF00003FB61A84BD3ED087AF5EE407A8E
:1022E000F1EE10FA37D0A54B93ED1C7AD7ED017AB9
:1022F00037EE277AA24BD3ED046A9F4BD3ED087AD1
:1023000076EEA77AB4EEE77AF1EE10FA23DB9B4B78
:1023100093F8593083F00103DBB2002B04D1974BC3
:1023200093F86E30002B0CD0944B93F85130194633
:10233000002097ED061AD7ED010A97ED070A00F085
:1023400073FA8E4B012283F859208A4AFB69136085
:102350004FF0000306E1894B93F8583083F00103F6
:10236000DBB2002B04D1854B93F86E30002B0CD0E0
:10237000824B93F851301946012097ED061AD7ED9C
:10238000010A97ED070A00F04FFA7C4B012283F80F
:102390005820E3E0D7ED077AF5EEC07AF1EE10FAB7
:1023A00040F1B480754B93ED1C7AD7ED017A37EE8E
:1023B000677A734BD3ED036A6F4BD3ED207A76EED9
:1023C000A77AB4EEE77AF1EE10FA00F29F800022CD
:1023D00010216C480BF072FE684B93ED1C7A684B31
:1023E000D3ED037AB4EEE77AF1EE10FA1CD8614B24
:1023F0004FF000021A60614B93F8593083F00103EB
:10240000DBB2002B09D002210C2097ED061AD7ED84
:10241000010A97ED070A00F007FA584B012283F8EA
:1024200059204FF000039DE0524B93ED007AD7ED19
:10243000047A77EE277AC7ED077AD7ED077AF5EEBB
:10244000C07AF1EE10FA02DD4FF00003FB614A4B57
:10245000D3ED087AF5EE407AF1EE10FA37D0474B1B
:1024600093ED1C7AD7ED017A37EE677A444BD3EDC2
:10247000036A414BD3ED087A76EEE77AB4EEE77A59
:10248000F1EE10FA23D83D4B93F8593083F0010355
:10249000DBB2002B04D1394B93F86E30002B0CD0FB
:1024A000364B93F8513019460A2097ED061AD7EDAE
:1024B000010A97ED070A00F0B7F9304B012283F8C3
:1024C00059202C4AFB6913604FF000034AE02B4B64
:1024D00093F8583083F00103DBB2002B04D1274B73
:1024E00093F86E30002B0CD0244B93F851301946E2
:1024F0000B2097ED061AD7ED010A97ED070A00F0B9
:1025000093F91E4B012283F8582027E01B4B002231
:1025100083F85820194B002283F8592001221021FA
:1025200018480BF0CBFD154B93F86E30002B15D0EF
:10253000D7ED077AF5EE407AF1EE10FA0ED00F4B98
:1025400093F851301946632097ED061AD7ED010A2A
:1025500097ED070A00F068F900E000BF054AFB6943
:102560001360FB6907EE903AB0EE670A2037BD466C
:1025700080BD00BF6C020020FC0700208008002006
:10258000E40700200004024080B586B000AF914B04
:10259000D3F8AC318F4AC2F8B4310AF091FD02464B
:1025A0008C4BC3F8AC21FFF749FAFFF7FBFC87ED32
:1025B000040AD7ED047AF5EEC07AF1EE10FA42DDA6
:1025C000854B1B7F012B1CD1844A834BB3F92E30E2
:1025D0001946814BB3F930300B447F49B1F93210C1
:1025E00007EE901AB8EEE77AD7ED047A67EE277A0D
:1025F000FDEEE77AC7ED017AB98809B20B44D363DF
:1026000070E0764A744BB3F92E301946724BB3F929
:1026100030300B446F4991ED1A7AD7ED047A27EEEA
:10262000277A6D49B1F9321007EE901AF8EEE77A81
:1026300067EE277AFDEEE77AC7ED017AB98809B22D
:102640000B44D3634EE0D7ED047AF5EEC07AF1EE99
:1026500010FA42D5604B1B7F012B1CD15F4A5E4BA9
:10266000B3F92E3019465C4BB3F93030CB1A5A49C6
:10267000B1F9321007EE901AB8EEE77AD7ED047A86
:1026800067EE277AFDEEE77AC7ED017AB98809B2DD
:102690000B44D36326E0514A4F4BB3F92E30194611
:1026A0004D4BB3F93030CB1A4A4991ED1A7AD7ED38
:1026B000047A27EE277A4849B1F9321007EE901ACA
:1026C000F8EEE77A67EE277AFDEEE77AC7ED017A52
:1026D000B98809B20B44D36304E0404B3E4AB2F9D7
:1026E0002E20DA6397ED040A0AF0F4F9FFF7F0FA06
:1026F00087ED030AD7ED037AF5EEC07AF1EE10FA12
:102700001CDD364A344BB3F964301946324BB3F909
:1027100066300B443049B1F9681007EE901AB8EEF4
:10272000E77AD7ED037A67EE277AFDEEE77AC7ED11
:10273000017AB98809B20B44136428E0D7ED037A13
:10274000F5EEC07AF1EE10FA1CD5244A224BB3F90B
:1027500064301946204BB3F96630CB1A1E49B1F9E3
:10276000681007EE901AB8EEE77AD7ED037A67EEB5
:10277000277AFDEEE77AC7ED017AB98809B20B44F2
:10278000136404E0154B144AB2F964201A64002360
:102790007B610FE07B69DBB2184600F023F8F0EEB6
:1027A000407A0F4A7B699B001344C3ED007A7B6932
:1027B00001337B617B69072BECDD094806F0D0FE15
:1027C0000AF07EFC0246034BC3F8B02100BF183765
:1027D000BD4680BD80080020FC07002000040040AA
:1027E000FC02002080B582B000AF0346FB71FB798C
:1027F0000B4A134493F85730402B02D9DFED097A86
:1028000009E0FB79064A134493F85730184607F05D
:10281000B3F9F0EE407AB0EE670A0837BD4680BDE6
:10282000FC0700200000C07F80B584B000AF87EDBA
:10283000030AC7ED020A87ED011A03460A46FB7038
:102840001346BB70FB78632B40F09F80BB78194622
:102850008D4807F057FB8D4BD3ED037AFDEEE77AF9
:10286000BB78194617EE900A07F060FBBB78194653
:10287000874807F047FB854B93ED037A854BD3EDF3
:10288000207A77EE277AFDEEE77ABB78194617EEC5
:10289000900A07F04BFBBB7819467F4807F032FBE4
:1028A000BB7819467D4807F02DFB784BD3ED047AB1
:1028B000FDEEE77AB8EEE77A764BD3ED207A77EE45
:1028C000677AFDEEE77ABB78194617EE900A07F0B3
:1028D0002DFBBB7819466E4807F014FB6B4BD3ED0C
:1028E000047AFDEEE77ABB78194617EE900A07F0F6
:1028F0001DFBBB7819466A4807F004FBBB781946F4
:10290000684807F0FFFA684BD3ED1C7AFDEEE77AD2
:10291000BB78194617EE900A07F008FBBB781946FA
:10292000624807F0EFFAD7ED027AFDEEE77ABB785E
:10293000194617EE900A07F0F9FABB7819465C4879
:1029400007F0E0FAD7ED017A9FED5A7AC7EE876A71
:10295000BB781846B0EE660A07F004FBBB78194650
:10296000554807F0CFFAD7ED037A9FED547A67EE1A
:10297000877ABB781846B0EE670A07F0F3FABB789F
:1029800019464F4807F0BEFA1BE1D7ED037AF5EE82
:10299000C07AF1EE10FA40F19B80BB7819463A48B4
:1029A00007F0B0FA394BD3ED037AFDEEE77ABB7846
:1029B000194617EE900A07F0B9FABB781946344861
:1029C00007F0A0FA314B93ED037A324BD3ED207A26
:1029D00077EE277AFDEEE77ABB78194617EE900A74
:1029E00007F0A4FABB781946364807F08BFABB7893
:1029F0001946354807F086FA2B4B93ED1C7AD7ED34
:102A0000027A77EE677AFDEEE77ABB78194617EE21
:102A1000900A07F08BFABB7819462C4807F072FA37
:102A2000214BD3ED1C7AFDEEE77ABB78194617EE01
:102A3000900A07F07BFABB7819461D4807F062FA46
:102A4000D7ED017A9FED1B7AC7EE876ABB781846EF
:102A5000B0EE660A07F086FABB781946164807F00A
:102A600051FAD7ED037A9FED157A67EE877ABB7836
:102A70001846B0EE670A07F075FABB781946104899
:102A800007F040FA9DE000BF00930108E407002032
:102A900004930108FC070020109301081C9301080F
:102AA0002C93010834930108800800203C9301080E
:102AB000409301080AD7A33C489301080000C8428C
:102AC0005C93010864930108749301087C930108E6
:102AD000BB7819465C4807F015FA5C4BD3ED047AD5
:102AE000FDEEE77AB8EEE77A594BD3ED207A77EE30
:102AF000677AFDEEE77ABB78194617EE900A07F081
:102B000015FABB781946534807F0FCF94F4BD3ED43
:102B1000047AFDEEE77ABB78194617EE900A07F0C3
:102B200005FABB7819464C4807F0ECF9BB78194612
:102B30004A4807F0E7F94A4BD3ED1C7AFDEEE77AF5
:102B4000BB78194617EE900A07F0F0F9BB781946E2
:102B5000444807F0D7F9424B93ED1C7AD7ED027A3F
:102B600077EE277AFDEEE77ABB78194617EE900AE2
:102B700007F0DCF9BB7819463B4807F0C3F9D7EDFD
:102B8000017A9FED3A7AC7EE876ABB781846B0EEB5
:102B9000660A07F0E7F9BB781946354807F0B2F93D
:102BA000D7ED037A9FED337A67EE877ABB781846C4
:102BB000B0EE670A07F0D6F9BB7819462E4807F041
:102BC000A1F9FB78002B05D1BB7819462B4807F0FB
:102BD00079FA34E0FB78012B05D1BB7819462848F7
:102BE00007F070FA2BE0FB78022B05D1BB78194671
:102BF000244807F067FA22E0FB780A2B05D1BB785E
:102C00001946214807F05EFA19E0FB780B2B05D135
:102C1000BB7819461D4807F055FA10E0FB780C2BDD
:102C200005D1BB7819461A4807F04CFA07E0FB7843
:102C3000632B04D1BB781946164807F043FA00BF4E
:102C40001037BD4680BD00BF1C930108E40700207B
:102C5000FC070020049301082C9301083493010819
:102C60008008002084930108409301080AD7A33C00
:102C7000489301080000C8428C930108949301080E
:102C8000B0930108C4930108D8930108F893010890
:102C90000C9401082494010880B582B000AF87ED40
:102CA000010AFEF7BFFFB0EE407ADFED197AB4EE0D
:102CB000E77AF1EE10FA0DDD164B93F85230002B47
:102CC00003D00221144807F0FDF9124B002283F8CB
:102CD000522019E00F4B93F85230012B06D00F4BC6
:102CE00000221A7002210E4807F0ECF9094B01226C
:102CF00083F852200B4B93ED007AD7ED017A77EEF3
:102D0000277A084BC3ED007A00BF0837BD4680BD67
:102D1000CDCC4C3F8008002034940108780200207C
:102D2000509401087402002080B584B000AFFEF713
:102D300087FF87ED030AD7ED037A9FEDAA7AF4EEB9
:102D4000C77AF1EE10FA40F34581A74B93F8523061
:102D5000012B40F03F81A54BD3ED007A9FEDA17A86
:102D6000F4EEC77AF1EE10FA00F234819F4BD3ED06
:102D7000007AF4EE677AF1EE10FA80F12B819C4B29
:102D80001B78002B0FD1984B1B6F9A4AD360984B3E
:102D900001221A700221984807F094F9974B4FF0DE
:102DA00000021A6016E1904B1B6F924A1361934B1D
:102DB000D3ED007AB8EE087AF4EEC77AF1EE10FAA5
:102DC0000EDD8E4BD3ED007AB0EE087AF4EEC77AC2
:102DD000F1EE10FA04D50221894807F073F9F9E001
:102DE0000221884807F06EF9874BD3ED037AF5EEA0
:102DF000407AF1EE10FA57D17E4B93ED037A7D4B7A
:102E0000D3ED047AB4EEE77AF1EE10FA07D57B4BF6
:102E1000D3ED007AF5EEC07AF1EE10FA12DC754BC4
:102E200093ED037A734BD3ED047AB4EEE77AF1EEC7
:102E300010FA10DD714BD3ED007AF5EEC07AF1EEA9
:102E400010FA08D5704B4FF07E52DA6002216F48BD
:102E500007F038F916E06C4B6D4ADA60654BD3ED3C
:102E6000037AF1EE677A634BC3ED037A614BD3EDDE
:102E7000047AF1EE677A5F4BC3ED047A022165486C
:102E800007F020F90221644807F01CF90022842190
:102E90005D4800F0F3F9B860BB68002B68D00221F0
:102EA0005E4807F00FF963E0524B93ED037A514B04
:102EB000D3ED047AB4EEE77AF1EE10FA07D54F4B72
:102EC000D3ED007AF5EEC07AF1EE10FA12D4494B48
:102ED00093ED037A474BD3ED047AB4EEE77AF1EE43
:102EE00010FA11DD454BD3ED007AF5EEC07AF1EE24
:102EF00010FA09DD444BD3ED037ABFEE007AF4EE0D
:102F0000477AF1EE10FA2FD03A4B93ED037A394B12
:102F1000D3ED047AB4EEE77AF1EE10FA07DD374B21
:102F2000D3ED007AF5EEC07AF1EE10FA12D4314BFF
:102F300093ED037A2F4BD3ED047AB4EEE77AF1EEFA
:102F400010FA15D52D4BD3ED007AF5EEC07AF1EEDF
:102F500010FA0DDD2C4BD3ED037AB7EE007AF4EEC8
:102F6000477AF1EE10FA03D102212D4807F0AAF8B2
:102F700002212C4806F0C6FF1E4BD3ED037A022037
:102F8000B0EE670A06F0EEFF0221274806F0BAFF0E
:102F9000184BD3ED047A0220B0EE670A07F0C6F8AA
:102FA000144B93ED037A134BD3ED047AB4EEE77A26
:102FB000F1EE10FA09DD0F4BDB687B600D4B1B69EE
:102FC0000C4AD3600B4A7B6813610322182109481D
:102FD00000F0A8F9054AFB68136000BF1037BD4632
:102FE00080BD00BFCDCC4C3F800800207C0200207B
:102FF00078020020E4070020749401087402002085
:1030000080940108D8940108FC070020E49401088A
:10301000000080BF209501085C9501089C9501087F
:10302000B8950108E8950108F495010880B582B0CB
:1030300000AF1D4B93F85230002B03D01B4B5B6C41
:103040007B6002E0194BDB6B7B60FEF707FE87EDD0
:10305000000A97ED007AD7ED007AB4EE677AF1EEC8
:1030600010FA19D6D7ED007AB7EE007A77EE877AA4
:10307000F0EE006A87EEA67AD7ED017ADFED0C6AF2
:1030800077EEE67A67EE277A9FED097A77EE877A10
:10309000054BC3ED197A02E0034A7B68536600BF13
:1030A0000837BD4680BD00BF80080020FC07002017
:1030B0006F12833A80B582B000AF1D4B93F8523047
:1030C000002B03D01B4B9B6C7B6002E0194B1B6CED
:1030D0007B60FEF7D1FD87ED000A97ED007AD7ED12
:1030E000007AB4EE677AF1EE10FA19D6D7ED007ACD
:1030F000B7EE007A77EE877AF0EE006A87EEA67A6E
:10310000D7ED017ADFED0C6A77EEE67A67EE277A83
:103110009FED097A77EE877A054BC3ED1A7A02E0C4
:10312000034A7B68936600BF0837BD4680BD00BF79
:1031300080080020FC070020CDCCCC3D80B582B0BB
:1031400000AFFEF7A7FD87ED010A97ED017AD7EDF5
:10315000017AB4EE677AF1EE10FA30D6D7ED017A43
:103160009FED197AF4EEC77AF1EE10FA03D5174BFA
:1031700001221A770FE0D7ED017A9FED157AF4EE70
:10318000C77AF1EE10FA03DD104B03221A7702E042
:103190000E4B02221A770D4B1A7F0E4B1B789A4268
:1031A0000DD00A4B1A7F0B4B1A70084B1B7F184629
:1031B00005F05EFC03460221184606F083FF00BFBF
:1031C0000837BD4680BD00BF9A9999BEFC07002014
:1031D0009A99993E0F01002080B582B000AF194B3B
:1031E00093F856300F2B29D8FEF762FD87ED010AC0
:1031F00097ED017AD7ED017AB4EE677AF1EE10FA25
:1032000017D6D7ED017A9FED107AF4EEC77AF1EE7A
:1032100010FA0EDD0D4B93F85A30032B0ED00B4BEA
:10322000012283F85A2009F04BFF0246074BDA656A
:1032300004E0064B002283F85A20FFE700BF08375E
:10324000BD4680BDFC070020CDCC4C3F800800204F
:1032500080B500AF07F04CFA0246064B1A60054BEA
:103260001B68054A934201D0002300E00023184662
:1032700080BD00BF800200201520200080B584B0F2
:1032800000AF78600B467B8013463B800E4B1B687B
:10329000092B01D8022312E03B881B04FB60F8686D
:1032A00006F0BAFF7B881A46F968786807F072F86A
:1032B0007B881A46F968786807F056F9034618467D
:1032C0001037BD4680BD00BF8002002080B584B0AD
:1032D00000AF0346FB80084B1B68092B01D8022373
:1032E00006E0FB881B04FB60F86806F095FF0346C8
:1032F00018461037BD4680BD8002002080B584B0DE
:1033000000AFF860B9601346FB80FB881B04BA6805
:103310001946F86807F090F9034618461037BD467D
:1033200080BD00BF80B582B000AF78600B467B8067
:1033300013463B80114B1B88002B19D10F4B1B8868
:1033400001339AB20D4B1A800D4A7B6813600D4A07
:103350007B8813803B881B040B4A136009F0B0FE86
:10336000034603F51C531033084A1360002300E0A2
:10337000012318460837BD4680BD00BF84020020E7
:10338000880200208C02002090020020940200207D
:1033900080B582B000AF324B1B88002B5CD000237D
:1033A0007B602F4B1B88013B042B3FD801A252F8B6
:1033B00023F000BFC9330008E3330008FB330008E3
:1033C000E33300081D340008264B1B68184606F03E
:1033D00037FF7860224B1B8801339AB2204B1A804A
:1033E00029E007F06FFA0346002B23D11C4B1B8802
:1033F00001339AB21A4B1A801CE01B4B1868194B08
:1034000019681A4B1B881A4606F0DCFF7860144BCB
:103410001B8801339AB2124B1A800CE00221144827
:1034200006F050FE0E4B00221A8004E00C4B0022E6
:103430001A8000E000BF7B68002B06D109F040FE37
:1034400002460C4B1B689A4206D9054B00221A8093
:103450000221094806F036FE00BF0837BD4680BD90
:103460008402002090020020880200208C020020AC
:10347000F89501089402002010960108B0B5A6B096
:1034800000AF09F0B7FD00F073FA00F0BDFD00F0E9
:10349000FDFA00F025FB00F05DFB00F0A5FB00F05D
:1034A0001BFC08F051FB00F01FFD00F04BFD00F08D
:1034B00077FD00F05DFF0421B6480DF0BFFA012250
:1034C0001021B5480AF0FAFD0821B4480DF02CF996
:1034D0000346002B03D09121B14800F019FF0C21C5
:1034E000AE480DF021F90346002B03D09621AC48DD
:1034F00000F00EFFFFF7ACFE0346002B03D09C212B
:10350000A74800F005FFA74BA74A07CA03C31A70D4
:10351000A44B4FF00002DA60A24BA44A1A62A14BFE
:1035200001221A779F4B012283F82C209D4BFF220A
:103530001A769C4BFF22DA759A4B00229A75994BAA
:10354000FF225A76974BFF229A76964BFF22DA7625
:10355000944B974ADA63934B964A5A64914B4FF0D7
:103560007E521A648F4B4FF07A529A648D4B4FF40F
:1035700078721A828B4B1E225A828A4B4FF42F721A
:103580005A86884B40F2DC52DA85864B1E221A8618
:10359000844B4FF448729A82824B4CF250325A63F9
:1035A000804B844A9A637F4B3C22A3F84E207D4B8C
:1035B0000A22A3F84C207B4B0122A3F85020794B20
:1035C000FF2283F85220774BFF2283F85320754B5C
:1035D000FF2283F85420734BFF2283F85520714B50
:1035E000FF2283F856206F4B4FF42F72A3F8682008
:1035F0006C4B40F2DC52A3F864206A4B0022A3F823
:103600006620684B002283F86220664B6A4AC3F842
:1036100080200023C7F8943014E0624AD7F8943031
:1036200013445733FF221A705E4AD7F8943034336C
:103630005B0013444FF478729A80D7F894300133CA
:10364000C7F89430D7F89430072BE6DD554B41F29C
:103650008832DA67534B8422A3F8602007F10C0309
:10366000002284211846FFF749FE07F10C030B22C4
:1036700019464C4812F05AF90346002B13D1B7F8FB
:103680006C301A4607F10C031946464811F0A0F9B0
:103690004A4A4B4B14461D460FCD0FC495E8070010
:1036A00084E8070057E007F10C0304224549184657
:1036B00012F03CF90346002B45DB07F10C03022214
:1036C0004149184612F032F90346002B3BD1354AE6
:1036D0003B4607CA03C31A800233120C1A70B7F8AC
:1036E0006C30A7F89230B7F89230002B03D0B7F8BF
:1036F0009230842B02D98423A7F89230B7F8922015
:1037000007F10C031946274811F062F9254B3A4698
:1037100007CA03C31A800233120C1A70214B842289
:10372000A3F86020254A294B14461D460FCD0FC42F
:103730000FCD0FC40FCD0FC42B681A462280023460
:103740001B0C237007E01D4A214B104619464423E9
:103750001A4611F03DF9032218211E48FFF7CEFD4D
:103760000B221D491B4812F0E1F80346002B37D00D
:1037700002211A4806F0A6FC164B4FF09E421A6131
:10378000144B4FF04F42DA60124B134A07CA03C37F
:103790001A703DE08004002000040240BC040020B8
:1037A00024960108FC070020309601080000C8425A
:1037B0000AD7233CCDCCCC3D0000A041800800209E
:1037C0003C96010858960108609601086496010825
:1037D00098960108E4070020DC960108E8960108A5
:1037E0000221574806F08EFB564BD3ED037A022098
:1037F000B0EE670A06F0B6FB0221534806F082FBE2
:10380000504BD3ED047A0220B0EE670A06F08EFC2E
:103810004C4B18229A824D4B93F82C30012B02D13D
:1038200000F064FC01E000F07DFCFEF7C7F908F051
:1038300013F809F09BF809F043FC0246444B1B685F
:10384000D31A142B5FD909F03BFC0246404B1A6097
:10385000FEF78EF8FEF79AF80346002B1CD03D4B7E
:1038600093F83A30DBB2222B01D009F07FF83A4BC3
:1038700093F83A30DBB2222B01D007F0EDFF374B43
:1038800093F83A30DBB2222B06D0304B93F82C3031
:10389000012B01D105F0C6FDFEF778F80346002B99
:1038A00008D02F4B93F85230002B03D120212D4804
:1038B0000AF01EFCFEF784F80346002B08D0284BC4
:1038C00093F85230012B03D1202126480AF010FC36
:1038D000234B93F85230022B04D0214B93F85230F3
:1038E000032B05D1002210211E480AF0E7FB04E05B
:1038F000012210211B480AF0E1FBFEF745FE08F00B
:103900003BFB08F0DFF808F071FA0346002B03D008
:103910001549012000F04AFF07F0B6FF0346002BCF
:1039200003D01249002000F041FF06F0E5F909F04C
:103930001FFB06F0FFF909F091F9FFF729FD7AE77F
:103940001C970108E40700202C970108FC070020C1
:103950001C040020A4070020DC03002070060020C7
:103960008008002000040240C03300209C2D00206D
:1039700080B598B000AF0023BB60404A3F4B1B6C42
:1039800043F0805313643D4B1B6C03F08053BB60CA
:10399000BB6800237B603A4A394B1B6843F4804381
:1039A0001360374B1B6803F480437B607B680B23F9
:1039B0003B634FF480337B630123FB6310233B6441
:1039C00001237B640223BB644FF48003FB64042364
:1039D0003B6548237B650223BB650323FB6507F139
:1039E000300318460BF08CFC0346002B04D04FF438
:1039F000BC71244800F08CFC0F23FB6100233B6268
:103A000000237B620023BB620023FB6207F11C03DF
:103A1000002118460BF0B4FE0346002B04D04FF4EF
:103A2000C371184800F074FC0223FB604FF400736C
:103A3000BB6107F10C0318460CF08EF80346002B0F
:103A400004D040F28D110F4800F062FC0CF050F8E9
:103A500002460D4BA3FB02239B09184609F086FC86
:103A6000042009F08FFC002200214FF0FF3009F004
:103A700045FC00BF6037BD4680BD00BF0038024036
:103A80000070004024960108D34D621080B500AF4D
:103A9000104B114A1A600F4B00225A600D4B7F22C7
:103AA0009A600C4BFF22DA600A4B00221A61094B24
:103AB00000225A61074B00229A6106480CF02EF949
:103AC0000346002B04D04FF4D571044800F020FCCD
:103AD00000BF80BDB00600200028004024960108E9
:103AE00080B500AF184B194A1A60174B4FF4827219
:103AF0005A60154B00229A60134B0022DA60124B79
:103B000000221A61104B00225A610F4B00229A6169
:103B10000D4B0022DA610C4B00221A620A4B002284
:103B20005A62094B00229A62074B0A22DA6206485F
:103B30000CF0DAF90346002B04D04FF4E07104488E
:103B400000F0E6FB00BF80BD4C07002000300140C4
:103B50002496010880B500AF012208211E480AF012
:103B6000ADFA1E4B1E4A1A601C4B4FF482725A600B
:103B70001A4B00229A60194B0022DA60174B02227E
:103B80001A61164B01225A61144B4FF400729A616C
:103B9000124B0822DA61114B00221A620F4B0022ED
:103BA0005A620E4B00229A620C4B0722DA620B48D3
:103BB0000CF09AF90346002B04D040F2D7110948C3
:103BC00000F0A6FB054B1B68044A1268126842F01D
:103BD00040021A6000BF80BD00040240F8040020CB
:103BE000003C00402496010880B58EB000AF364BF3
:103BF000364A1A60344B0F225A60334B00229A60C7
:103C0000314B44F62062DA602F4B00221A612E48B5
:103C10000CF05EFD0346002B04D04FF4F6712C48E7
:103C200000F076FB00233B6300237B6307F1300346
:103C3000194625480DF05CFF0346002B04D040F2E6
:103C4000F311234800F064FB60237B6140F2DC53F6
:103C5000BB610023FB6100237B6200233B620023E6
:103C6000FB620023BB6207F11403082219461648C1
:103C70000DF0E0F80346002B04D040F2FF11144889
:103C800000F046FB07F114030C2219460E480DF014
:103C9000D1F80346002B04D04FF401710C4800F01A
:103CA00037FB03233B6002237B600123BB600223BD
:103CB000FB6002233B613B461946064809F068FF5A
:103CC00000BF3837BD4680BDBC0400200004004062
:103CD000249601080004024080B58CB000AF224B4E
:103CE000224A1A60204B00225A601F4B00229A6021
:103CF0001D4B4FF0FF32DA601B4B00221A61032389
:103D0000FB6000233B6101237B610023BB61042333
:103D1000FB6100233B6201237B620023BB6204231F
:103D2000FB6207F10C0319460F480CF0F1FD034646
:103D3000002B04D040F22A210D4800F0E9FA30238C
:103D40007B600023BB603B1D194607480DF0D0FE89
:103D50000346002B04D040F23121054800F0D8FA88
:103D600000BF3037BD4680BD80040020000C0040FD
:103D70002496010880B58CB000AF3E4B3E4A1A60D5
:103D80003C4B0F225A603B4B00229A60394B4FF656
:103D9000FF72DA60374B00221A61364B00225A61FB
:103DA00034480CF069FC0346002B04D04FF4117129
:103DB000324800F0ADFA2F480CF0EAFC0346002B25
:103DC00004D040F249212D4800F0A2FA0423FB61FF
:103DD00060233B6202237B620023FB6207F11C032A
:103DE000194624480DF0ECF80346002B04D040F2AD
:103DF0005221224800F08CFA00237B610023BB6132
:103E000007F1140319461B480DF072FE0346002B00
:103E100004D040F25921194800F07AFA02237B605D
:103E20000123BB600023FB6000233B613B1D082294
:103E3000194610480CF062FF0346002B04D04FF4E3
:103E400019710E4800F064FA00237B600223BB6006
:103E50003B1D0C22194607480CF050FF0346002B6F
:103E600004D04FF41B71054800F052FA00BF303700
:103E7000BD4680BDD0060020000001402496010808
:103E800080B500AF144B154A1A60134B144A5A60A0
:103E9000114B4FF480529A600F4B4FF40052DA608E
:103EA0000D4B4FF480621A610B4B04225A610A4B8E
:103EB00000229A61084B4FF40042DA6106480DF087
:103EC00071FE0346002B04D040F28121054800F02A
:103ED0001FFA00BF80BD00BF700600200010014027
:103EE000A08601002496010880B500AF124B134A4A
:103EF0001A60114B4FF4E1325A600F4B00229A6066
:103F00000D4B0022DA600C4B00221A610A4B0C2286
:103F10005A61094B00229A61074B0022DA61064878
:103F20000DF040FE0346002B04D040F295210448DA
:103F300000F0EEF900BF80BDA4070020004400405F
:103F40002496010880B500AF124B134A1A60114B3A
:103F50004FF416425A600F4B00229A600D4B00221C
:103F6000DA600C4B00221A610A4B0C225A61094B91
:103F700000229A61074B0022DA6106480DF012FE1A
:103F80000346002B04D040F2A921044800F0C0F9F8
:103F900000BF80BDDC0300200048004024960108DB
:103FA00080B500AF144B154A1A60134B144A5A607F
:103FB000114B4FF480529A600F4B4FF40052DA606D
:103FC0000D4B4FF480621A610B4B08225A610A4B69
:103FD00000229A61084B4FF40042DA6106480DF066
:103FE000E1FD0346002B04D040F2BE21054800F05D
:103FF0008FF900BF80BD00BF0C07002000140140F6
:10400000A08601002496010880B58AB000AF002385
:104010003B61324A314B1B6B43F0800313632F4BE0
:104020001B6B03F080033B613B690023FB602B4A61
:104030002A4B1B6B43F001031363284B1B6B03F0EC
:104040000103FB60FB680023BB60244A234B1B6B0E
:1040500043F004031363214B1B6B03F00403BB60A9
:10406000BB6800237B601D4A1C4B1B6B43F00203A3
:1040700013631A4B1B6B03F002037B607B68002207
:10408000382117480AF01AF810237B61154BBB61E1
:104090000023FB6107F114031946134809F078FD6A
:1040A00001237B610123BB610023FB6107F1140342
:1040B00019460D4809F06CFD38237B610123BB6173
:1040C0000023FB6100233B6207F1140319460448F7
:1040D00009F05EFD00BF2837BD4680BD00380240B4
:1040E00000040240000011100008024080B500AF3B
:1040F00008210A480CF082FB0C2108480CF07EFBDA
:10410000FFF7BEFE01220121054809F0D7FF05F0A7
:1041100089F9012005F09EF900BF80BDD00600207E
:104120000008024080B500AF0B480DF089FDFFF795
:1041300021FE01220121094809F0C0FF0821084899
:104140000CF086FB0C2106480CF082FB002005F0E9
:1041500081F900BF80BD00BF70060020000802404A
:10416000D006002080B483B000AF786000BF0C3769
:10417000BD465DF8047B704780B483B000AF7860C3
:1041800000BF0C37BD465DF8047B704780B483B038
:1041900000AF786000BF0C37BD465DF8047B704708
:1041A00080B584B000AF7860FF23FB737B681B6829
:1041B000524A934202D10123FB7316E07B681B68CD
:1041C0004F4A934202D10223FB730EE07B681B68C7
:1041D0004C4A934202D10323FB7306E07B681B68C1
:1041E000494A934201D10623FB7397F90F30B3F18B
:1041F000FF3F7FD078680DF039FF0346013B0F2B5E
:104200006CD801A252F823F049420008634200082A
:10421000DD42000883420008DD420008DD4200085C
:10422000DD420008A3420008DD420008DD4200082C
:10423000DD420008DD420008DD420008DD420008E2
:10424000DD420008BD42000897F90F302F4903F105
:10425000440251F8222001322C49443341F82320F2
:104260003CE097F90F20294902F14A039B000B44D7
:104270005B68591C254802F14A039B0003445960BE
:104280002CE097F90F20214902F13C039B000B44DD
:104290005B68591C1D4802F13C039B0003445960B4
:1042A0001CE097F90F30194903F1520251F822200E
:1042B00001321649523341F823200FE097F90F20BD
:1042C000124902F158039B000B445B68591C0F48CC
:1042D00002F158039B000344596000BF97F90F3067
:1042E0000A4903F1360251F82220013207493633D8
:1042F00041F8232000BF1037BD4680BD00100140AB
:1043000000440040004800400014014080080020A4
:1043100080B584B000AF78603960124B124AB2F9B0
:104320002E20DA6308F0CCFEF86008F0C9FE0246E1
:10433000FB68D31AB3F57A7FF4D93B681BB201212D
:10434000184605F0A1FD0121786805F0BBFE07F0D5
:1043500013FE08F0B5FEF8602021044809F0C8FEFD
:10436000E0E700BF00040040FC070020000402401A
:1043700080B400AF084B002283F86C20064B00226B
:1043800083F86E20044B002283F86D2000BFBD46E9
:104390005DF8047B704700BF8008002080B582B0C4
:1043A00000AF03460A46FB711346BB71BB79194641
:1043B000074805F0A7FDFB79064A52F82330BA7981
:1043C0001146184605F07EFE00BF0837BD4680BD89
:1043D0004C9901081001002080B584B000AF03465D
:1043E000FB71164B1B7883F02003DAB2134B1A7063
:1043F000124B1B7883F04F03DAB2104B1A700F4B3D
:104400001B7883F04B03DAB20C4B1A700B4B1B7802
:1044100007F108000A4A052111F0FEF9FB79194657
:10442000084805F06FFDFA7907F1080311461846B0
:1044300005F048FE00BF1037BD4680BD9802002041
:10444000589901086099010880B582B000AF034611
:104450000A46FB711346BB71BB791946074805F044
:1044600051FDBA79FB791146184605F02DFD044A35
:10447000FB79137000BF0837BD4680BD68990108FD
:104480009802002080B584B000AF78600B46FB70C6
:104490000023FB600CE0FB687A6813441A780D4B2C
:1044A0001B785340DAB20B4B1A70FB680133FB6088
:1044B000FB68272B05DCFB687A6813441B78002B0C
:1044C000E9D1FB781946786805F01CFD00BF10376C
:1044D000BD4680BD9802002080B582B000AF034683
:1044E0000A46FB711346BB71084B1A78FB7953409F
:1044F000DAB2064B1A70BA79FB791146184605F004
:10450000E3FC00BF0837BD4680BD00BF9802002015
:1045100090B59DB002AF87ED020B0346FB7107F12A
:104520001400D7E90234CDE90034154A502111F0C6
:1045300073F900237B660DE007F114027B6E1344D0
:104540001A78104B1B785340DAB20E4B1A707B6E00
:1045500001337B667B6E272B06DC07F114027B6E32
:1045600013441B78002BE7D1FA7907F114031146A5
:10457000184605F0C7FC00BF6C37BD4690BD00BFB4
:104580006C9901089802002090B59BB002AF87EDAE
:10459000010A0346FB7078680FF056FD03460C468F
:1045A00007F10C00CDE90034144A502111F034F920
:1045B0000023FB650DE007F10C02FB6D13441A7834
:1045C0000F4B1B785340DAB20D4B1A70FB6D013361
:1045D000FB65FB6D272B06DC07F10C02FB6D13441A
:1045E0001B78002BE7D1FA7807F10C031146184627
:1045F00005F088FC00BF6437BD4690BD7499010882
:104600009802002080B598B000AF03460A46FB80B0
:1046100013467B71B7F9063007F10C00144A50219C
:1046200011F0FAF80023FB650DE007F10C02FB6DB9
:1046300013441A780F4B1B785340DAB20D4B1A70A3
:10464000FB6D0133FB65FB6D272B06DC07F10C02CC
:10465000FB6D13441B78002BE7D17A7907F10C032B
:104660001146184605F04EFC00BF6037BD4680BDC0
:104670007C9901089802002080B584B000AF034601
:104680000A46FB711346BB71FB7907F10800154A16
:10469000032111F0C1F80023FB600DE007F10802CF
:1046A000FB6813441A78104B1B785340DAB20E4B58
:1046B0001A70FB680133FB60FB68022B06DC07F114
:1046C0000802FB6813441B78002BE7D1BA7907F185
:1046D00008031146184605F015FC00BF1037BD460B
:1046E00080BD00BF809901089802002080B598B075
:1046F00000AF78600B46FB7007F10C007B68154A31
:10470000502111F089F80023FB650DE007F10C0240
:10471000FB6D13441A78104B1B785340DAB20E4BE2
:104720001A70FB6D0133FB65FB6D272B06DC07F16F
:104730000C02FB6D13441B78002BE7D1FA7807F1CC
:104740000C031146184605F0DDFB00BF6037BD467F
:1047500080BD00BF889901089802002080B483B012
:1047600000AF0346FB71FB792F2B05D9FB79392B61
:1047700002D8FB79303B13E0FB79602B05D9FB793C
:10478000662B02D8FB79573B0AE0FB79402B05D911
:10479000FB79462B02D8FB79373B01E04FF0FF3322
:1047A00018460C37BD465DF8047B704780B586B06F
:1047B00000AF03463960FB710023FB820023BB82FC
:1047C00095E0FB8A5A1CFA821A463B6813441B7810
:1047D0007B747B7C002B00F090804A4B1B78202B55
:1047E00009D17B7C242B02D07B7C212B7FD1454BB4
:1047F00024221A707BE07B7C0A2B02D07B7C0D2B61
:1048000027D1BB8A002B06D1FB8A013B3A681344AF
:1048100000221A7004E0BB8A3A68134400221A701E
:10482000384B1B782A2B09D1FA7CBB7C9A4205D0E5
:10483000FB7919460420FFF7B1FD04E0FB793968E4
:10484000184600F061F80023FB742E4B20221A70EA
:104850004DE07B7C2A2B06D12A4B31221A70FB8A31
:10486000013BBB8243E0274B1B78312B10D17B7C73
:104870001846FFF773FFF860FB68B3F1FF3F36D0CF
:10488000FB68DBB21B01BB741E4B32221A702EE098
:104890001C4B1B78322B11D17B7C1846FFF75EFF37
:1048A000B860BB68B3F1FF3F21D0BB68DAB2BB7C14
:1048B0001344BB74134B2A221A7018E0114B1B7857
:1048C000242B04D1FA7C7B7C5340FB740FE00D4B0E
:1048D0001B782A2B05D1FB7919460520FFF75EFDD1
:1048E0000CE0FB7919460020FFF758FD06E0FB8A33
:1048F000B3F5007FFFF465AF00E000BF1837BD4699
:1049000080BD00BF4C01002090B5ADF58F5D83B038
:1049100006AF024607F11003083B196007F11003C8
:10492000013B1A7007F11003083B1B685B7807F521
:104930008D5202F11702137007F58D5303F117031F
:104940001B78313B472B03F2C28201A252F823F0BD
:104950001D6B0008CF7E0008CF7E0008CF7E0008C8
:10496000CF7E0008CF7E0008CF7E0008CF7E0008F3
:10497000CF7E0008CF7E0008CF7E0008CF7E0008E3
:10498000CF7E0008CF7E0008CF7E0008CF7E0008D3
:10499000B95700087D650008CF7E0008B97400088B
:1049A00005670008CF7E00088B720008FD710008C3
:1049B000555B0008CF7E0008CF7E0008CF7E000840
:1049C000CF7E000843560008CF7E0008597B0008C0
:1049D000CF7E0008197C0008955D0008CF7E000896
:1049E000CF7E0008A37D0008F7500008CF7E0008A6
:1049F000CF7E0008FB7C0008CF7E0008CF7E000839
:104A0000CF7E0008CF7E0008D37D0008CF7E00084F
:104A1000714A0008E1610008ED650008D95D0008F1
:104A2000495A0008CF7E00081B4C0008695C00084A
:104A300059510008C5760008CF7E0008CF7E0008D7
:104A40007B5C0008BD540008E77D0008ED4C0008C1
:104A5000CF7E000845590008CF7E0008CF7E0008B1
:104A6000CF7E0008074F00086D50000891640008D1
:104A700007F11003083B1B68981C07F58C5303F1E2
:104A80001403043307F58C5202F11402D94910F0D3
:104A900019FF034607F58D5202F11402138007F542
:104AA0008D5303F11403B3F90030022B58D107F5ED
:104AB0008C5303F11403D3ED007A9FEDCF7AF4EE1B
:104AC000C77AF1EE10FA41DB07F58C5303F11803B6
:104AD000D3ED007A9FEDC87AF4EEC77AF1EE10FAC2
:104AE00034DB07F58C5303F11403D3ED007AB7EEF2
:104AF000007AF4EEC77AF1EE10FA27D807F58C5356
:104B000003F11803D3ED007AB7EE007AF4EEC77A1A
:104B1000F1EE10FA1AD807F58C5303F11403D3ED14
:104B2000007A9FEDB67A67EE877AB54BC3ED0F7AC0
:104B300007F58C5303F11803D3ED007A9FEDAF7A9C
:104B400067EE877AAE4BC3ED117A1DE007F11003D3
:104B5000013B1B7819460E20FFF720FC03F0C0B97B
:104B600007F58D5303F11403B3F90030B3F1FF3FA0
:104B70000AD007F11003013B1B7819460720FFF705
:104B80000DFC00BF03F0ACB907F11003013B1B782B
:104B900019466120FFF758FC994BD3ED0F7A9FED32
:104BA000977AC7EE876A07F11003013B1B78184616
:104BB000B0EE660AFFF7E8FC914BD3ED117A9FED5A
:104BC0008F7AC7EE876A07F11003013B1B781846FE
:104BD000B0EE660AFFF7D8FC07F11003013B1B7823
:104BE0001846FFF7F9FB07F11003013B1B78194644
:104BF000844805F087F9844BD3ED197A9FED7F7ACD
:104C0000C7EE876A07F11003013B1B781846B0EE28
:104C1000660A05F08BFA03F063B907F11003083B4D
:104C20001B68023307F58C5202F1100277491846CF
:104C300010F048FE034607F58D5202F1140213806E
:104C400007F58D5303F11403B3F90030012B1CD188
:104C500007F58C5303F11003D3ED007AF5EEC07A1B
:104C6000F1EE10FA07DD07F58C5303F110031B6812
:104C7000634A13621DE007F11003013B1B781946DC
:104C80000E20FFF78BFB03F02BB907F58D5303F1D3
:104C90001403B3F90030B3F1FF3F0AD007F110035A
:104CA000013B1B7819460720FFF778FB00BF03F094
:104CB00017B907F11003013B1B7819466720FFF76E
:104CC000C3FB4F4BD3ED087A07F11003013B1B7870
:104CD0001846B0EE670AFFF757FC07F11003013BD7
:104CE0001B781846FFF778FB03F0FAB807F11003BA
:104CF000083B1B68981C07F58C5303F10803043329
:104D000007F58C5202F10802414910F0DBFD034621
:104D100007F58D5202F11402138007F58D5303F14C
:104D20001403B3F90030022B40F0808007F58C5358
:104D300003F108031A6807F58C5303F10C031B6891
:104D40009A4225DA07F58C5303F10C031A6807F52C
:104D50008C5303F108031B68D31AC82B18DD07F521
:104D60008C5303F108031B6807EE903AF8EEE77ADC
:104D7000284BC3ED037A07F58C5303F10C031B6832
:104D800007EE903AF8EEE77A224BC3ED047A61E041
:104D900007F58C5303F10C031A6807F58C5303F1E4
:104DA00008031B689A4237DA07F58C5303F10803AE
:104DB0001A6807F58C5303F10C031B68D31AC82B30
:104DC0002ADD07F58C5303F10C031B6807EE903ABC
:104DD000F8EEE77A0F4BC3ED037A07F58C5303F136
:104DE00008031B6807EE903AF8EEE77A094BC3ED2B
:104DF000047A2FE0909901086F12833A0AD7A33CF6
:104E0000FC0700209899010880080020A899010853
:104E1000AC990108E407002007F11003013B1B785F
:104E200019460E20FFF7BAFA03F05AB807F58D536A
:104E300003F11403B3F90030B3F1FF3F0AD007F1D7
:104E40001003013B1B7819460720FFF7A7FA00BFA4
:104E500003F046B807F11003013B1B781946702098
:104E6000FFF7F2FAB34BD3ED037AFDEEE77A07F1E1
:104E70001003013B1B78194617EE900AFFF736FC2A
:104E8000AC4BD3ED047AFDEEE77A07F11003013B5A
:104E90001B78194617EE900AFFF728FCA64BD3EDB6
:104EA0001C7A07F11003013B1B781846B0EE670A25
:104EB000FFF76AFBA04BD3ED1F7A9FEDA07AC7EEF8
:104EC000876A07F11003013B1B781846B0EE660AAB
:104ED000FFF75AFB984BD3ED207A9FED987AC7EEF7
:104EE000876A07F11003013B1B781846B0EE660A8B
:104EF000FFF74AFB07F11003013B1B781846FFF749
:104F00006BFA02F0EDBF07F11003083B1B68981C19
:104F100007F58C53043307F58C52894910F0D2FC05
:104F2000034607F58D5202F11402138007F58D53E5
:104F300003F11403B3F90030022B46D107F58C536B
:104F4000D3ED007A9FED7F7AF4EEC77AF1EE10FA96
:104F500031DB07F58C5303F10403D3ED007A9FEDA9
:104F6000797AF4EEC77AF1EE10FA24DB07F58C5368
:104F7000D3ED007AB7EE007AF4EEC77AF1EE10FACC
:104F800019D807F58C5303F10403D3ED007AB7EE7B
:104F9000007AF4EEC77AF1EE10FA0CD807F58C53CC
:104FA0001B68694A136407F58C5303F104031B68FB
:104FB000654A93641DE007F11003013B1B78194615
:104FC0000E20FFF7EBF902F08BBF07F58D5303F1CD
:104FD0001403B3F90030B3F1FF3F0AD007F1100317
:104FE000013B1B7819460720FFF7D8F900BF02F0F4
:104FF00077BF07F11003013B1B7819467620FFF7B6
:1050000023FA514BD3ED107A07F11003013B1B78C3
:105010001846B0EE670AFFF7B7FA4B4BD3ED127A9A
:1050200007F11003013B1B781846B0EE670AFFF743
:10503000ABFA07F11003013B1B781846FFF7CCF9D8
:1050400007F11003013B1B781946404804F05AFF52
:10505000394BD3ED1A7A07F11003013B1B78184640
:10506000B0EE670A05F062F802F03ABF0022842130
:105070003548FEF703F907F58D5303F11003186067
:10508000032218212B48FEF7F9F8024607F58D5345
:1050900003F110031B68134407F58D5202F110024F
:1050A000136007F11003013B1B7819467720FFF7C7
:1050B000CBF907F58D5303F110031B68002B10D1BA
:1050C00007F11003013B1B7819462148FFF7DAF975
:1050D00007F11003013B1B781846FFF77DF902F03A
:1050E000FFBE07F11003013B1B7819460820FFF7AC
:1050F00055F902F0F5BE0020FEF7E8F80320FEF7B0
:10510000E5F807F11003013B1B7819465720FFF71C
:105110009BF907F11003013B1B7819460D48FFF777
:10512000B1F907F11003013B1B781846FFF754F95A
:1051300002F0D6BEE4070020800800200AD7A33C76
:1051400090990108CDCCCC3DFC070020989901082E
:10515000B4990108D499010807F11003083B1B68B2
:10516000981C07F58B5303F11003991C07F58B521C
:1051700002F1100207F58B5303F110030E33059370
:1051800007F58B5303F110030C33049307F58B538E
:1051900003F110030A33039307F58B5303F1100354
:1051A0000833029307F58B5303F110030633019381
:1051B00007F58B5303F11003043300930B46BD49ED
:1051C00010F080FB034607F58D5202F114021380A4
:1051D00007F58D5303F11403B3F90030002B40F3AE
:1051E000CB8007F58B5303F11003B3F90030002B8C
:1051F00040F3B88007F58B5303F11003B3F9003087
:10520000102B00F3AF8007F58B5303F11003B3F9B4
:105210000030DBB2013BDAB2A74B9A7507F58D532C
:1052200003F11403B3F90030012B0EDD07F58B53A6
:1052300003F11203B3F90030184602F067FE03468B
:10524000DBB2013BDAB29C4BDA7507F58D5303F103
:105250001403B3F90030022B0EDD07F58B5303F175
:105260001403B3F90030184602F050FE0346DBB2D7
:10527000013BDAB2904B1A7607F58D5303F1140314
:10528000B3F90030032B0EDD07F58B5303F1160342
:10529000B3F90030184602F039FE0346DBB2013B99
:1052A000DAB2854B5A7607F58D5303F11403B3F93F
:1052B0000030042B0EDD07F58B5303F11803B3F90F
:1052C0000030184602F022FE0346DBB2013BDAB2A0
:1052D000794B9A7607F58D5303F11403B3F9003037
:1052E000052B0EDD07F58B5303F11A03B3F90030DC
:1052F000184602F00BFE0346DBB2013BDAB26E4BFE
:10530000DA7607F58D5303F11403B3F90030062B59
:105310000FDD07F58B5303F11C03B3F9003018467A
:1053200002F0F4FD0346DBB2013BDAB2624B83F8D4
:10533000522007F58D5303F11403B3F90030072B06
:105340002EDD07F58B5303F11E03B3F90030184629
:1053500002F0DCFD0346DBB2013BDAB2564B83F8C8
:1053600056201DE007F11003013B1B7819460E2063
:10537000FFF714F802F0B4BD07F58D5303F11403E1
:10538000B3F90030B3F1FF3F0AD007F11003013B3E
:105390001B7819460720FFF701F800BF02F0A0BDF7
:1053A00007F11003013B1B7819466920FFF74CF801
:1053B000414B9B7D9BB201339BB21AB207F11003A4
:1053C000013B1B7819461046FFF71CF93A4BDB7D71
:1053D0009BB201339BB21AB207F11003013B1B7859
:1053E00019461046FFF70EF9334B1B7E9BB2013373
:1053F0009BB21AB207F11003013B1B781946104605
:10540000FFF700F92C4B5B7E9BB201339BB21AB2C3
:1054100007F11003013B1B7819461046FFF7F2F81D
:10542000254B9B7E9BB201339BB21AB207F110034E
:10543000013B1B7819461046FFF7E4F81E4BDB7E54
:105440009BB201339BB21AB207F11003013B1B78E8
:1054500019461046FFF7D6F8174B93F852309BB217
:1054600001339BB21AB207F11003013B1B781946B6
:105470001046FFF7C7F8104B93F856309BB2013334
:105480009BB21AB207F11003013B1B781946104674
:10549000FFF7B8F807F11003013B1B781846FEF739
:1054A0009BFF07F11003013B1B78184603F002FB3A
:1054B00002F016BDE4990108FC07002007F1100373
:1054C000083B1B68981C07F58B5303F10803991CD4
:1054D00007F58B5202F1080207F58B5303F108031D
:1054E000043300930B46B24910F0ECF9034607F57C
:1054F0008D5202F11402138007F58D5303F114034A
:10550000B3F90030032B56D107F58B5303F1080391
:10551000B3F90030B3F5FA7F43DD07F58B5303F1A0
:105520000803B3F90030B3F5FA6F3ADA07F58B5395
:1055300003F10A03B3F90030002B32DD07F58B537A
:1055400003F10A03B3F90030632B2ADC07F58B5310
:1055500003F10C03B3F90030B3F5967F21DD07F5B5
:105560008B5303F10C03B3F90030B3F5AF6F18DAC6
:1055700007F58B5303F10803B3F900208D4B1A8212
:1055800007F58B5303F10A03B3F90020894B5A82C4
:1055900007F58B5303F10C03B3F90020854B9A8276
:1055A0001DE007F11003013B1B7819460E20FEF7A2
:1055B000F5FE02F095BC07F58D5303F11403B3F922
:1055C0000030B3F1FF3F0AD007F11003013B1B7815
:1055D00019460720FEF7E2FE00BF02F081BC07F18A
:1055E0001003013B1B7819466E20FEF72DFF714B0F
:1055F000B3F9102007F11003013B1B781946104640
:10560000FFF700F86B4BB3F9122007F11003013BD1
:105610001B7819461046FEF7F5FF664BB3F91420C8
:1056200007F11003013B1B7819461046FEF7EAFF0D
:1056300007F11003013B1B781846FEF7CDFE02F080
:105640004FBC07F11003083B1B68981C07F58B53F0
:10565000991C07F58B5207F58B53043300930B46C7
:10566000534910F02FF9034607F58D5202F1140249
:10567000138007F58D5303F11403B3F90030032BA6
:1056800050D107F58B53B3F90030B3F5FA7F3FDD06
:1056900007F58B53B3F90030B3F5FA6F38DA07F535
:1056A0008B5303F10203B3F90030002B30DD07F513
:1056B0008B5303F10203B3F90030632B28DC07F5A9
:1056C0008B5303F10403B3F90030B3F5967F1FDD6C
:1056D00007F58B5303F10403B3F90030B3F5617F91
:1056E00016DA07F58B53B3F90020324BDA8507F54C
:1056F0008B5303F10203B3F900202E4B1A8607F5F2
:105700008B5303F10403B3F900202A4B5A861DE0A2
:1057100007F11003013B1B7819460E20FEF73EFEF1
:1057200002F0DEBB07F58D5303F11403B3F900302B
:10573000B3F1FF3F0AD007F11003013B1B78194674
:105740000720FEF72BFE00BF02F0CABB07F11003D3
:10575000013B1B7819464E20FEF776FE154BB3F938
:105760002E2007F11003013B1B7819461046FEF767
:1057700049FF104BB3F9302007F11003013B1B78B0
:1057800019461046FEF73EFF0A4BB3F9322007F1E7
:105790001003013B1B7819461046FEF733FF07F153
:1057A0001003013B1B781846FEF716FE02F098BB6B
:1057B000049A0108FC07002007F11003083B1B684E
:1057C000981C07F58A5303F11803991C07F58A52B0
:1057D00002F1180207F58A5303F11803043300930A
:1057E0000B46D74910F06EF8034607F58D5202F1CB
:1057F0001402138007F58D5303F11403B3F900303D
:10580000032B59D107F58A5303F11803B3F900307C
:10581000B3F5FA7F46DD07F58A5303F11803B3F9B0
:105820000030B3F5FA6F3DDA07F58A5303F11A0336
:10583000B3F90030002B35DD07F58A5303F11A0365
:10584000B3F90030632B2DDC07F58A5303F11C03F9
:10585000B3F90030B3F5967F24DD07F58A5303F1E1
:105860001C03B3F90030B3F5617F1BDA07F58A53E7
:1058700003F11803B3F90020B24BA3F8642007F535
:105880008A5303F11A03B3F90020AE4BA3F8662044
:1058900007F58A5303F11C03B3F90020A94BA3F8C1
:1058A00068201DE007F11003013B1B7819460E200C
:1058B000FEF774FD02F014BB07F58D5303F11403DA
:1058C000B3F90030B3F1FF3F0AD007F11003013BF9
:1058D0001B7819460720FEF761FD00BF02F000BBF0
:1058E00007F11003013B1B7819464120FEF7ACFD80
:1058F000944BB3F9642007F11003013B1B78194660
:105900001046FEF77FFE8F4BB3F9662007F11003B8
:10591000013B1B7819461046FEF774FE894BB3F91C
:10592000682007F11003013B1B7819461046FEF76B
:1059300069FE07F11003013B1B781846FEF74CFD8A
:1059400002F0CEBA07F11003083B1B68023307F5DB
:105950008A5202F116027C4918460FF0B3FF034643
:1059600007F58D5202F11402138007F58D5303F1F0
:105970001403B3F90030012B30D107F58A5303F13A
:105980001603B3F90030012B10D007F58A5303F149
:105990001603B3F90030B3F1FF3F07D007F58A5380
:1059A00003F11603B3F90030002B0DD107F58A532C
:1059B00003F11603B3F9003007EE903AF8EEE77AF8
:1059C000604BC3ED037A1DE007F11003013B1B7828
:1059D00019460A20FEF7E2FC02F082BA07F58D5361
:1059E00003F11403B3F90030B3F1FF3F0AD007F11C
:1059F0001003013B1B7819460720FEF7CFFC00BFC0
:105A000002F06EBA07F11003013B1B7819467220B1
:105A1000FEF71AFD4B4BD3ED037AFDEEE77AC7EDA7
:105A2000017ABB881AB207F11003013B1B781946B3
:105A30001046FEF7E7FD07F11003013B1B781846FF
:105A4000FEF7CAFC02F04CBA07F11003083B1B68D2
:105A5000023307F58A5202F110023C4918460FF052
:105A600031FF034607F58D5202F11402138007F54A
:105A70008D5303F11403B3F90030012B30D107F536
:105A80008A5303F110031B68B3F5FA7F1EDD07F597
:105A90008A5303F110031B682D4A934216DC07F169
:105AA0001003013B1B7819466520FEF7CDFC07F576
:105AB0008A5303F110031B68224A536307F1100352
:105AC000013B1B781846FEF787FC1DE007F1100329
:105AD000013B1B7819460E20FEF760FC02F000BA6D
