:020000040800F2
:1000000000000220BD9F0008FDA500080DA6000805
:1000100021A6000835A6000849A600080000000037
:100020000000000000000000000000005DA60008C5
:100030006DA60008000000007DA600088DA600083F
:1000400017A0000819A000081BA000081DA00008A8
:100050001FA0000821A0000823A0000825A0000878
:1000600027A0000829A000082BA000082DA0000848
:100070002FA0000831A0000833A0000835A0000818
:1000800037A0000839A000083BA000083DA00008E8
:100090003FA0000841A0000843A0000845A00008B8
:1000A00047A0000849A000084BA0000801A70008CD
:1000B0004FA0000851A0000853A0000855A0000858
:1000C00057A0000859A000085BA000085DA0000828
:1000D0005FA000089DA60008B1A60008C5A60008FC
:1000E00067A0000869A000086BA000086DA00008C8
:1000F0006FA0000871A0000873A0000875A0000898
:1001000077A0000879A0000815A700087DA00008C6
:100110007FA0000881A0000883A0000885A0000837
:1001200087A0000889A000088BA000088DA0000807
:100130008FA0000891A0000893A0000895A00008D7
:1001400097A0000899A000089BA00008EDA6000851
:100150009FA00008A1A00008A3A00008D9A600083D
:10016000A7A00008A9A00008ABA00008ADA0000847
:10017000AFA00008B1A00008B3A00008B5A0000817
:10018000B7A00008B9A0000810B5054C237833B912
:10019000044B13B10448AFF300800123237010BD5A
:1001A0004402002000000000E4A30108084B10B541
:1001B0001BB108490848AFF300800848036803B939
:1001C00010BD074B002BFBD0BDE81040184700BF07
:1001D0000000000048020020E4A3010844020020BF
:1001E00000000000154B002B08BF134B9D46A3F5E4
:1001F000803A00218B460F461348144A121A12F017
:1002000024FF0F4B002B00D098470E4B002B00D043
:1002100098470020002104000D000D48002802D05E
:100220000C48AFF3008012F0CFFE2000290002F04E
:100230005FFE12F0B5FE00BF0000080000000220C3
:10024000000000000000000044020020C43A00202A
:10025000000000000000000080B584B000AF7860AE
:100260000B46FB700023FB737B681B7C002B0ED1BD
:100270004FF400730222812178680BF0F7F94FF4F4
:1002800000730222012178680BF0F0F90BE04023A3
:100290000222812178680BF0E9F940230222012132
:1002A00078680BF0E3F908230322822178680BF0C9
:1002B000DDF94FF4077012F0ADFE03461A467B6875
:1002C000C3F818227B68D3F81832002B02D101231F
:1002D000FB7326E07B68D3F81832BB607B68D3F8E9
:1002E0001C321B689847BB680022C3F81422BB6805
:1002F0000022C3F818227B681B7C002B09D1BB6845
:10030000D3F804224FF40073012178680BF02AFB24
:1003100007E0BB68D3F804224023012178680BF082
:1003200021FBFB7B18461037BD4680BD80B584B0ED
:1003300000AF78600B46FB700023FB738121786867
:100340000BF0D2F9012178680BF0CEF982217868A0
:100350000BF0CAF97B68D3F81832002B0ED07B68FB
:10036000D3F81C325B6898477B68D3F8183218467C
:1003700012F058FE7B680022C3F81822FB7B184657
:100380001037BD4680BD00BF80B584B000AF786037
:1003900039607B68D3F81832FB603B681B7803F048
:1003A0006003002B3AD0202B00D043E03B68DB8871
:1003B000002B29D03B681B785BB2002B11DA7B68DD
:1003C000D3F81C329B683A685078F9683A68D2884A
:1003D0009847F9683B68DB881A46786801F09CF812
:1003E00029E03B685A78FB6883F800223B68DB8889
:1003F000DAB2FB6883F80122F9683B68DB881A46A9
:10040000786801F0B7F816E07B68D3F81C329B6877
:100410003A6850780022396898470CE03B685B786E
:100420000A2B01D00B2B05E001220549786801F069
:1004300073F800BF00BF002318461037BD4680BDCB
:100440006002002080B485B000AF78600B46FB707E
:100450007B68D3F81832FB607B68D3F81832002B26
:1004600005D0FB680022C3F81422002300E0022319
:1004700018461437BD465DF8047B704780B584B0DC
:1004800000AF78600B46FB707B68D3F81832FB60D6
:10049000FB78194678680BF09FFA0246FB68C3F8B0
:1004A0000C227B68D3F81832002B0DD07B68D3F870
:1004B0001C32DB68FA68D2F80402FA6802F50372AB
:1004C00011469847002300E0022318461037BD4626
:1004D00080BD00BF80B584B000AF78607B68D3F882
:1004E0001832FB607B68D3F81C32002B15D0FB68F8
:1004F00093F80032FF2B10D07B68D3F81C329B6836
:10050000FA6892F80002F968FA6892F8012292B249
:100510009847FB68FF2283F8002200231846103713
:10052000BD4680BD80B483B000AF78607B68432255
:100530001A80034B18460C37BD465DF8047B7047A4
:100540008800002080B483B000AF78607B684322CD
:100550001A80034B18460C37BD465DF8047B704784
:100560004400002080B483B000AF78607B684322F1
:100570001A80034B18460C37BD465DF8047B704764
:10058000CC00002080B483B000AF78607B680A2282
:100590001A80034B18460C37BD465DF8047B704744
:1005A0000000002080B485B000AF7860396002237D
:1005B000FB733B68002B05D07B683A68C3F81C22AC
:1005C0000023FB73FB7B18461437BD465DF8047BA4
:1005D000704700BF80B487B000AFF860B9601346C1
:1005E000FB80FB68D3F818327B617B69BA68C3F87B
:1005F0000822FA887B69C3F81022002318461C37AA
:10060000BD465DF8047B704780B485B000AF78606C
:1006100039607B68D3F81832FB60FB683A68C3F82E
:100620000422002318461437BD465DF8047B70474A
:1006300080B584B000AF78607B68D3F81832FB6077
:100640007B68D3F81832002B17D0FB68D3F814322C
:10065000002B10D1FB680122C3F81422FB68D3F8E9
:100660000822FB68D3F810329BB2812178680BF026
:100670003FF9002302E0012300E00223184610376F
:10068000BD4680BD80B584B000AF78607B68D3F88C
:100690001832FB607B68D3F81832002B17D07B68C8
:1006A0001B7C002B09D1FB68D3F804224FF40073A4
:1006B000012178680BF056F907E0FB68D3F80422B3
:1006C0004023012178680BF04DF9002300E002235C
:1006D00018461037BD4680BD80B584B000AFF860C5
:1006E000B9601346FB71FB68002B01D102231AE0AD
:1006F000FB68D3F81432002B03D0FB680022C3F848
:100700001422BB68002B03D0FB68BA68C3F8102220
:10071000FB68012283F8FC21FB68FA791A70F868FB
:100720000AF0BAFE002318461037BD4680BD00BF50
:1007300080B582B000AF78607B68012283F8FC212D
:100740007B68D3F814325B687A685268D2B211467B
:100750007868984778680AF057FF78680AF0F0FEE2
:10076000002318460837BD4680BD00BF80B485B061
:1007700000AF786039600023FB733B68002B06D024
:100780007B683A68C3F814220023FB7301E002235C
:10079000FB73FB7B18461437BD465DF8047B70473E
:1007A00080B582B000AF786078680AF0FBFE002365
:1007B00018460837BD4680BD80B582B000AF78606E
:1007C0007B68D3F814325B687A685268D2B21146FB
:1007D0007868984778680AF017FF002318460837AA
:1007E000BD4680BD80B483B000AF7860002318465A
:1007F0000C37BD465DF8047B704700BF80B584B000
:1008000000AF78600B46FB700223FB737B68D3F864
:100810001432002B0CD07B68D3F814321B68FA78A2
:100820001146786898470346002B01D10023FB73DB
:10083000FB7B18461037BD4680BD00BF80B582B037
:1008400000AF78600B46FB707B68D3F814325B68AE
:10085000FA78114678689847002318460837BD464D
:1008600080BD00BF80B582B000AF786039607B6822
:1008700003F502733968184600F0A2FD7B68012277
:10088000C3F8F4217B68B3F80E321A467B68C3F8CC
:10089000F8217B6893F8083203F01F03012B0BD07B
:1008A000022B11D0002B17D17B6803F50273194678
:1008B000786800F0CFF91AE07B6803F502731946F7
:1008C000786800F017FA12E07B6803F502731946A6
:1008D000786800F043FA0AE07B6893F8083223F066
:1008E0007F03DBB2194678680AF034FF00BF0023AB
:1008F00018460837BD4680BD80B586B000AFF860A9
:100900000B467A60FB72FB7A002B38D1FB6803F54B
:1009100082737B61FB68D3F8F431032B42D17B698E
:100920009A687B69DB689A4214D97B699A687B690B
:10093000DB68D21A7B699A607B69DA687B699B689D
:10094000934228BF13469BB21A467968F86800F0B4
:100950002FFE27E0FB68D3F814321B69002B0AD066
:10096000FB6893F8FC31032B05D1FB68D3F81432F4
:100970001B69F8689847F86800F02CFE12E0FB68E5
:10098000D3F814329B69002B0CD0FB6893F8FC3130
:10099000032B07D1FB68D3F814329B69FA7A11460E
:1009A000F8689847002318461837BD4680BD00BF39
:1009B00080B586B000AFF8600B467A60FB72FB7AB8
:1009C000002B6CD1FB6814337B61FB68D3F8F431E6
:1009D000022B57D17B699A687B69DB689A4215D9EB
:1009E0007B699A687B69DB68D21A7B699A607B694C
:1009F0009B689BB21A467968F86800F0A9FD00234D
:100A000000220021F8680AF0ADFF3BE07B695B68DB
:100A10007A69D268B3FBF2F102FB01F29B1A002B58
:100A20001CD17B695A687B69DB689A4216D37B6963
:100A30005A68FB68D3F8F8319A420FD2002200219D
:100A4000F86800F085FDFB680022C3F8F821002358
:100A500000220021F8680AF085FF13E0FB68D3F854
:100A60001432DB68002B0AD0FB6893F8FC31032BAF
:100A700005D1FB68D3F81432DB68F8689847F8684A
:100A800000F0BCFDFB6893F80032012B1AD1F86826
:100A9000FFF7A8FEFB68002283F8002212E0FB6843
:100AA000D3F814325B69002B0CD0FB6893F8FC314F
:100AB000032B07D1FB68D3F814325B69FA7A11462D
:100AC000F8689847002318461837BD4680BD00BF18
:100AD00080B582B000AF78604023002200217868A2
:100AE0000AF0C4FD7B684022C3F810214023002295
:100AF000802178680AF0BAFD7B6840221A627B6820
:100B0000012283F8FC217B68D3F81832002B09D02E
:100B10007B68D3F814325B687A685268D2B21146A7
:100B200078689847002318460837BD4680BD00BF47
:100B300080B483B000AF78600B46FB707B68FA78B6
:100B40001A74002318460C37BD465DF8047B7047C5
:100B500080B483B000AF78607B6893F8FC217B6839
:100B600083F8FD217B68042283F8FC2100231846CA
:100B70000C37BD465DF8047B704700BF80B483B07E
:100B800000AF78607B6893F8FD217B6883F8FC21D7
:100B9000002318460C37BD465DF8047B704700BF44
:100BA00080B582B000AF78607B6893F8FC31032B8E
:100BB0000BD17B68D3F81432DB69002B05D07B683E
:100BC000D3F81432DB697868984700231846083751
:100BD000BD4680BD80B483B000AF78600B46FB702B
:100BE000002318460C37BD465DF8047B704700BFF4
:100BF00080B483B000AF78600B46FB7000231846CA
:100C00000C37BD465DF8047B704700BF80B483B0ED
:100C100000AF7860002318460C37BD465DF8047BB2
:100C2000704700BF80B582B000AF78607B6801225A
:100C300083F8FC217B68D3F814325B687A685268C9
:100C4000D2B2114678689847002318460837BD4647
:100C500080BD00BF80B584B000AF786039600023EC
:100C6000FB733B685B78092B39D801A252F823F05B
:100C7000C10C0008D50C0008DF0C0008CB0C0008E4
:100C8000DF0C0008A30C0008990C0008DF0C00081A
:100C9000B70C0008AD0C00083968786800F036F928
:100CA00022E03968786800F025FA1DE03968786834
:100CB00000F05EFA18E03968786800F0E1FA13E0B5
:100CC0003968786800F00EFB0EE03968786800F04B
:100CD00033FB09E03968786800F04AFB04E03968C2
:100CE000786800F0ABFB00BFFB7B18461037BD46B1
:100CF00080BD00BF80B584B000AF7860396000234C
:100D0000FB737B6893F8FC31032B1BD13B689B88FA
:100D1000DBB2012B11D87B68D3F814329B68396899
:100D2000786898473B68DB88002B10D1FB7B002B51
:100D30000DD1786800F04EFC09E03968786800F061
:100D40007DFB04E03968786800F078FB00E000BFC4
:100D5000002318461037BD4680BD00BF80B584B063
:100D600000AF786039600023FB733B689B88BB73DE
:100D70003B681B7803F06003202B08D17B68D3F815
:100D800014329B683968786898470023BAE03B685A
:100D90005B78012B39D0032B02D0002B6BD0B0E055
:100DA0007B6893F8FC31022B02D0032B0CD025E09A
:100DB000BB7B002B27D0BB7B802B24D0BB7B194671
:100DC00078680AF0C7FC1EE03B685B88002B0AD1FC
:100DD000BB7B002B07D0BB7B802B04D0BB7B194691
:100DE00078680AF0B7FC7B68D3F814329B683968DE
:100DF00078689847786800F0EDFB05E03968786816
:100E000000F01CFB00E000BF7BE07B6893F8FC3146
:100E1000022B02D0032B0CD024E0BB7B002B26D06E
:100E2000BB7B802B23D0BB7B194678680AF092FCF1
:100E30001DE03B685B88002B1BD1BB7B03F07F036D
:100E4000002B0BD0BB7B194678680AF0B9FC7B6895
:100E5000D3F814329B68396878689847786800F04E
:100E6000B9FB06E03968786800F0E8FA02E000BFF4
:100E700047E000BF45E07B6893F8FC31022B02D0CD
:100E8000032B0BD036E0BB7B03F07F03002B36D067
:100E9000BB7B194678680AF05DFC30E097F90E30AC
:100EA000002B08DABB7B03F07F0301331B017A6858
:100EB0001344043307E0BB7B03F07F0310331B01B3
:100EC0007A6813440433BB60BB7B194678680AF028
:100ED000ADFC0346002B03D0BB6801221A6002E080
:100EE000BB6800221A60BB6802221946786800F0CD
:100EF00013FB05E03968786800F0A0FA00E000BF55
:100F000000BFFB7B18461037BD4680BD80B584B05E
:100F100000AF786039603B685B881B0A9BB2013B7D
:100F2000062B00F2C98001A252F823F0490F0008F5
:100F3000610F0008A10F0008B9100008B9100008DF
:100F4000651000088B1000087B68D3F810321B680E
:100F50007A68127C07F10A0110469847F860B0E001
:100F60007B681B7C002B0DD17B68D3F814329B6A05
:100F700007F10A0210469847F860FB680133022225
:100F80001A709EE07B68D3F81432DB6A07F10A021C
:100F900010469847F860FB68013302221A7090E00F
:100FA0003B685B88DBB2052B56D801A252F823F0D0
:100FB000C90F0008E10F0008F90F00081110000820
:100FC00029100008411000087B68D3F810325B68D4
:100FD0007A68127C07F10A0110469847F86040E0F1
:100FE0007B68D3F810329B687A68127C07F10A019B
:100FF00010469847F86034E07B68D3F81032DB681D
:101000007A68127C07F10A0110469847F86028E0D8
:101010007B68D3F810321B697A68127C07F10A01E9
:1010200010469847F8601CE07B68D3F810325B6983
:101030007A68127C07F10A0110469847F86010E0C0
:101040007B68D3F810329B697A68127C07F10A0139
:1010500010469847F86004E03968786800F0EEF9C7
:1010600044E02EE07B681B7C002B09D17B68D3F821
:1010700014325B6B07F10A0210469847F86020E0D3
:101080003968786800F0DAF930E07B681B7C002B67
:101090000DD17B68D3F814321B6B07F10A0210469E
:1010A0009847F860FB68013307221A7009E0396835
:1010B000786800F0C3F919E03968786800F0BEF983
:1010C00014E07B89002B11D03B68DB88002B0DD00E
:1010D0003B68DA887B89934228BF13469BB27B81A9
:1010E0007B891A46F968786800F016FA1037BD4611
:1010F00080BD00BF80B584B000AF786039603B68C8
:101100009B88002B2CD13B68DB88002B28D13B68C7
:101110005B88DBB203F07F03FB737B6893F8FC31E1
:10112000032B04D13968786800F088F91CE07B68EB
:10113000FA7B83F8FE21FB7B194678680AF0A2FB54
:10114000786800F047FAFB7B002B04D07B68022212
:1011500083F8FC2108E07B68012283F8FC2103E08E
:101160003968786800F06AF900BF1037BD4680BD65
:1011700080B582B000AF786039603B685B88DAB2D6
:101180003E4B1A703D4B1B78012B04D939687868A7
:1011900000F054F96FE07B6893F8FC31022B02D029
:1011A000032B23D062E0354B1B78002B1AD0334B36
:1011B0001B781A467B685A607B68032283F8FC21FF
:1011C0002E4B1B7819467868FFF718FB0346022B55
:1011D00004D13968786800F031F94CE0786800F0A3
:1011E000F9F948E0786800F0F5F944E0234B1B7802
:1011F000002B12D17B68022283F8FC211F4B1B7845
:101200001A467B685A601D4B1B7819467868FFF7B1
:1012100015FB786800F0DEF92DE0184B1B781A46B4
:101220007B685B689A421DD07B685B68DBB21946BD
:101230007868FFF703FB114B1B781A467B685A60EE
:101240000E4B1B7819467868FFF7D8FA0346022B35
:1012500004D13968786800F0F1F80CE0786800F0A3
:10126000B9F908E0786800F0B5F904E03968786801
:1012700000F0E4F800BF0837BD4680BD61020020E1
:1012800080B582B000AF786039603B68DB88012BA5
:1012900004D03968786800F0D1F81FE07B6893F8D3
:1012A000FC31022B02D0032B0BD012E07B68002212
:1012B0009A607B68083301221946786800F02CF99F
:1012C0000CE07B68043301221946786800F024F9A9
:1012D00004E03968786800F0B1F800BF00BF083753
:1012E000BD4680BD80B582B000AF786039607B6854
:1012F00093F8FC31023B012B15D87B680122DA60A0
:101300007B68D3F80432002B05D07B68DB6843F0A0
:1013100002027B68DA607B680C3302221946786827
:1013200000F0FAF804E03968786800F087F800BF48
:1013300000BF0837BD4680BD80B582B000AF786081
:1013400039603B685B88012B0DD17B680122C3F8B3
:1013500004227B68D3F814329B6839687868984710
:10136000786800F037F900BF0837BD4680BD00BF80
:1013700080B582B000AF786039607B6893F8FC314B
:10138000023B012B12D83B685B88012B13D17B6891
:101390000022C3F804227B68D3F814329B683968B2
:1013A00078689847786800F015F904E0396878683B
:1013B00000F044F800E000BF00BF0837BD4680BD24
:1013C00080B483B000AF786039603B681A787B687E
:1013D0001A703B685A787B685A703B6802331B78F6
:1013E0009AB23B6803331B789BB21B029BB2134437
:1013F0009AB27B685A803B6804331B789AB23B6888
:1014000005331B789BB21B029BB213449AB27B68D4
:101410009A803B6806331B789AB23B6807331B7887
:101420009BB21B029BB213449AB27B68DA8000BF66
:101430000C37BD465DF8047B704700BF80B582B0B5
:1014400000AF78603960802178680AF083F9002164
:1014500078680AF07FF900BF0837BD4680BD00BF3D
:1014600080B586B000AFF860B9607A600023FB7584
:10147000FB68002B33D0F86800F036F803460133E0
:101480009BB25B009AB27B681A80FB7D5A1CFA758E
:101490001A46BB6813447A681288D2B21A70FB7D70
:1014A0005A1CFA751A46BB68134403221A7012E0DC
:1014B000FB7D5A1CFA751A46BB681A44FB68591C16
:1014C000F9601B781370FB7D5A1CFA751A46BB68CD
:1014D000134400221A70FB681B78002BE8D100BF70
:1014E0001837BD4680BD00BF80B485B000AF7860BE
:1014F0000023FB7305E0FB7B0133FB737B68013347
:101500007B607B681B78002BF5D1FB7B184614377A
:10151000BD465DF8047B704780B584B000AFF860CD
:10152000B9601346FB80FB680222C3F8F421FA88F5
:10153000FB689A61FA88FB68DA61FB88BA68002167
:10154000F8680AF0D5F9002318461037BD4680BD6B
:1015500080B584B000AFF860B9601346FB80FB88AB
:10156000BA680021F8680AF0C3F90023184610375A
:10157000BD4680BD80B584B000AFF860B960134649
:10158000FB80FB680322C3F8F421FA88FB68C3F8E8
:101590000821FA88FB68C3F80C21FB88BA6800218F
:1015A000F8680AF0DFF9002318461037BD4680BD01
:1015B00080B584B000AFF860B9601346FB80FB884B
:1015C000BA680021F8680AF0CDF9002318461037F0
:1015D000BD4680BD80B582B000AF78607B680422D4
:1015E000C3F8F42100230022002178680AF080F972
:1015F000002318460837BD4680BD00BF80B582B0C5
:1016000000AF78607B680522C3F8F4210023002234
:10161000002178680AF0A6F9002318460837BD466D
:1016200080BD00BFB0B58CB000AF002387F8233079
:10163000764B3C1D1D460FCD0FC495E8070084E88E
:101640000700002387F82F30002387F82E303DE075
:10165000012008F0DBF801216D4807F0BBFF97F887
:101660002F309B0007F13002134453F82C3C01212A
:10167000184607F0BFFF0121664808F05BF897F8AD
:101680002F309B0007F13002134453F82C3C1846CE
:1016900000F042F90021604807F09CFF07F12302A7
:1016A00007F124031146184600F0CEF807F1230293
:1016B00007F124031146184600F012F90346002BE7
:1016C00009D197F82F30013387F82F3097F82F3052
:1016D000062BBDD900E000BF97F82F30072B00F094
:1016E0008C80012008F092F801214C4807F072FF2D
:1016F00097F82F309B0007F13002134453F82C3C2D
:101700000121184607F076FF0121424808F012F83F
:1017100097F82F30042B26D00121414808F00AF811
:101720000021404807F056FF07F1230207F1240388
:101730001146184600F088F84FF4164000F0ECF817
:1017400007F1230207F124031146184600F0C8F8F8
:101750000346002B04D00121334807F0EBFF02E0E1
:10176000012387F82E3097F82E30002B45D1012029
:1017700008F04CF801212D4807F0DCFF00212C482F
:1017800007F028FF07F1230207F12403114618464A
:1017900000F05AF807F1230207F124031146184616
:1017A00000F09EF80346002B27D00121214807F0C6
:1017B000C1FF012008F02AF801211F4807F0BAFFF5
:1017C00000211E4807F006FF07F1230207F124035A
:1017D0001146184600F038F807F1230207F12403F8
:1017E0001146184600F07CF80346002B05D0012175
:1017F000134807F09FFF012304E00121114807F07F
:1018000099FF002318463037BD46B0BDD476010895
:10181000F4740108247501082C750108307501085D
:101820006075010894750108A0750108BC75010870
:10183000F8750108087601082C7601086C76010815
:1018400078760108A476010880B586B000AF78608C
:1018500039600AF0F5FC38613B6800221A701F4BB2
:10186000DB8DFB8229E009F083FC1C4BDB8D9BB2F6
:10187000FA8A9A4221D0194B996A184B9A8DFB8AA1
:10188000B3FBF2F002FB00F29B1A9BB20B441B78F5
:10189000FB733B681B78092B0CD83B681B781A46F6
:1018A0007B681344FA7B1A703B681B780133DAB209
:1018B0003B681A70FB8A0133FB820AF0C1FC0246C6
:1018C0003B69D31A40F6B7329342CCD9012007F0D6
:1018D0009DFF00BF1837BD4680BD00BFFC02002041
:1018E00080B483B000AF786039603B681B78012B0F
:1018F0000AD97B681B784F2B06D17B6801331B7894
:101900004B2B01D1012300E0002318460C37BD46C4
:101910005DF8047B704700BF80B582B000AF78608F
:101920000A4B002283F86D20094A7B6853600848FF
:101930000EF05CFE0346002B03D00121054807F0A2
:10194000F9FE00BF0837BD4680BD00BF1C0800205F
:10195000FC020020F076010880B400AF034B1B6846
:101960001846BD465DF8047B704700BF6402002046
:1019700080B400AF044B1B680133034A136000BFFF
:10198000BD465DF8047B70476402002080B400AF60
:10199000094B1A68094BA3FB02131B09322101FBF7
:1019A00003F3D31A002B0CBF01230023DBB218462C
:1019B000BD465DF8047B7047640200201F85EB5133
:1019C00080B400AF0A4B19680A4BA3FB0123DA0865
:1019D00013469B0013445B00CA1A002A0CBF012364
:1019E0000023DBB21846BD465DF8047B704700BF9C
:1019F00064020020CDCCCCCC80B584B000AF504B7D
:101A000093F86230012B06D14E4BDB6A18460AF080
:101A100031F9F86002E04C4B5B6AFB60484BD3ED58
:101A2000037AF5EE407AF1EE10FA08D1FB6807EE82
:101A3000903AF8EEE77A454BC3ED1C7A0CE0FB6870
:101A400007EE903AB8EEE77A3D4BD3ED037A67EEB6
:101A5000277A3E4BC3ED1C7AFFF77EFFB8603B4B05
:101A600093ED1C7A3A4BD3ED007AB4EE677AF1EE3F
:101A700010FA2AD0354B9B6FBA68D31A7B60334B70
:101A800093ED1C7A324BD3ED007A77EE677A2F4BC9
:101A9000C3ED1D7A2D4B93ED1D7A7B6807EE903ACE
:101AA000F8EE677AC7EE276AB0EE660A00F06AF8C9
:101AB000F0EE407A254BC3ED1F7A244ABB6893674A
:101AC000224B1B6F224A136011E0204B9B6FBA68B8
:101AD000D31A642B0BD91D4B4FF00002DA671B4B56
:101AE0004FF000025A67194B1B6F194A1360144BD1
:101AF00093F86230012B1FD0164B1B68002B08D0C7
:101B00000AF09EFB0246144B1B68D31AB3F5FA6F1A
:101B100005D90E4B4FF00002C3F880200CE00D4BAE
:101B20001B6807EE903AB8EE677ADFED0C6AC6EEF6
:101B3000877A064BC3ED207A00BF1037BD4680BDC3
:101B40009C07002078380020000C00401C08002072
:101B50006C02002070020020740200200000A042ED
:101B600080B400AF064B022283F85120044B0322BD
:101B700083F8582000BFBD465DF8047B704700BF66
:101B80001C08002080B483B000AF87ED010AD7EDB8
:101B9000017AF5EEC07AF1EE10FA04D5D7ED017AAC
:101BA000F1EE677A01E0D7ED017AB0EE670A0C3703
:101BB000BD465DF8047B704780B500AF044BDB7D0C
:101BC000184607F017FAF0EE407AB0EE670A80BDCB
:101BD0009C07002080B500AF044B1B7E184607F021
:101BE00009FAF0EE407AB0EE670A80BD9C0700204B
:101BF00080B500AF044B5B7E184607F093FAF0EE19
:101C0000407AB0EE670A80BD9C07002080B500AF27
:101C1000044B9B7E184607F085FAF0EE407AB0EE52
:101C2000670A80BD9C07002080B500AF044BDB7EB7
:101C3000184607F0DFF9F0EE407AB0EE670A80BD93
:101C40009C07002080B500AF054B93F8563018462E
:101C500007F0D0F9F0EE407AB0EE670A80BD00BF21
:101C60009C07002080B500AF054B93F85230184612
:101C700007F0C0F9F0EE407AB0EE670A80BD00BF11
:101C80009C07002080B584B000AF9C4B9B7D18461C
:101C900007F0B0F987ED030A97ED037AD7ED037AE1
:101CA000B4EE677AF1EE10FA02D74FF000031EE1AE
:101CB000934B93F85130022B04D0914B93F8513051
:101CC000032B2FD1D7ED037AF5EE407AF1EE10FA1F
:101CD00028D08B4B93F85130022B20D10221894818
:101CE00007F078FC022097ED030A07F09DFC022123
:101CF000854807F06FFCD7ED037AFDEEE77AC7ED74
:101D0000017ABB881BB20221184607F02BFC022186
:101D10007E4807F05FFC7A4B032283F851204FF096
:101D20000003E4E0764B93F85830012B40F0DE805E
:101D3000734B93F85130002B08D0714B032283F87A
:101D400058200221724807F0F5FCCFE06B4B1B7F57
:101D5000032B08D06A4B032283F8582002216D48D8
:101D600007F0E8FCC2E0D7ED037AF5EE407AF1EE39
:101D700010FA08D0624B032283F8582002216648EB
:101D800007F0D8FCB2E0654BD3ED037A9FED647A9F
:101D9000F4EE477AF1EE10FA08D1594B032283F89A
:101DA000582002215F4807F0C5FC9FE05B4BD3ED54
:101DB000047A9FED5D7AF4EE477AF1EE10FA08D1DD
:101DC0004F4B032283F858200221584807F0B2FCF9
:101DD0008CE04A4BD3ED037AF5EE407AF1EE10FA3F
:101DE00008D1474B032283F858200221504807F0BE
:101DF000A1FC7BE00AF024FA0246414BDB6DD31ACA
:101E0000B3F5FA6F72D23E4B93F95930002B1DD1C6
:101E10003B4B93ED1C7A414BD3ED037A37EE677A57
:101E20003E4BD3ED046A364BD3ED1C7A76EEE77A5F
:101E3000B4EEE77AF1EE10FA04D5314B012283F8C3
:101E4000592003E02E4BFF2283F859200AF0F8F9BD
:101E500002462B4B1B6ED21A284BDB6F9A4203D2E1
:101E60004FF00003FB6041E0254B93F95930012B03
:101E70001CD1234B93ED1C7A284BD3ED047ADFED74
:101E80002D6A77EEE67AB4EEE77AF1EE10FA03D532
:101E90001A4B1B6CFB6029E00AF0D2F90246184B82
:101EA0001A66174BFF2283F859201FE0144B93ED5D
:101EB0001C7A1A4BD3ED037ADFED1E6A77EEA67A11
:101EC000B4EEE77AF1EE10FA07DD0C4BD3ED107AA1
:101ED000F1EE677AC7ED037A08E00AF0B1F902463D
:101EE000074B1A66064B012283F85920FB6807EE60
:101EF000903AB0EE670A1037BD4680BD9C070020BF
:101F00001C08002034770108547701086C77010819
:101F1000C07701080478010834780108840700209C
:101F2000000000CF5C7801080000004F7C780108B9
:101F3000A07801080000304280B592B000AFFFF7F2
:101F4000A1FE87ED0D0ACC4BD3ED0E7AB7EE007AE9
:101F500037EE677AD7ED0D7A27EE277AD7ED0D7A2F
:101F600027EE277AD7ED0D7A27EE277AC24BD3EDED
:101F70000E6AD7ED0D7A66EEA77A77EE277AC7ED6F
:101F8000117ABD4B1B7F012B00F04B82BB4B5B6E6C
:101F90003B63BB4BD3ED007A97ED117A77EE677A0E
:101FA000C7ED0B7A97ED0B7AD7ED0C7AB4EEE77AA2
:101FB000F1EE10FA0ADCD7ED0C7AB1EE677AD7EDC4
:101FC0000B7AB4EEE77AF1EE10FA04DDAB4B0122A6
:101FD00083F8542003E0A94B002283F8542097EDA6
:101FE0000B7AD7ED0C7AB4EEE77AF1EE10FA09DD50
:101FF000A34B93ED007AD7ED0C7A77EE277AC7EDF5
:10200000117A13E0D7ED0C7AB1EE677AD7ED0B7A3F
:10201000B4EEE77AF1EE10FA08DD994B93ED007A11
:10202000D7ED0C7A77EE677AC7ED117A934B93F878
:102030005130002B40F0F5818F4B1B7F012B00F0BE
:10204000F0818D4B1B7F022B00F0EB818B4BD3ED8E
:10205000197A97ED117AC7EE276AB0EE660AFFF794
:1020600091FD87ED0A0A854BD3ED207AF5EE407A93
:10207000F1EE10FA04D0814BD3F880303B6402E0DB
:102080007E4BDB6F3B6497ED107AD7ED0A7A27EE33
:10209000277AF0EE006AC7EE267AC7ED097A794B07
:1020A00093ED037A774BD3ED047AB4EEE77AF1EE51
:1020B00010FA09DD734BDB683B62724B1B69714A96
:1020C000D360704A3B6A13616C4B93ED1C7AD7ED79
:1020D000097A37EE277A6B4BD3ED047AB4EEE77AC0
:1020E000F1EE10FA17D5654B93ED1C7AD7ED097A0E
:1020F00037EE677A634BD3ED037AB4EEE77AF1EE0D
:1021000010FA08DD5D4B002283F856205B4B00225D
:1021100083F8572085E1594B93ED1C7AD7ED097A66
:1021200037EE277A574BD3ED047AB4EEE77AF1EE27
:1021300010FAC0F2B880D7ED117AF5EEC07AF1EE60
:1021400010FA40F3A380002210214F480AF0B8FC97
:102150004A4B93ED1C7A4B4BD3ED047AB4EEE77AFD
:10216000F1EE10FA06DB464B4FF000021A60444BCA
:102170001B68F5E3424B93ED007AD7ED0C7A77EECE
:10218000677AC7ED117AD7ED117AF5EEC07AF1EEE4
:1021900010FA02D54FF000037B64384B93F85630A9
:1021A00083F00103DBB2002B04D1344B93F86E3083
:1021B000002B12D0334B93ED047A304BD3ED1C7AC5
:1021C00077EE677A0020D7ED101A97ED091AF0EE36
:1021D000670A97ED110A00F011FD284B012283F8E0
:1021E0005620254BD3ED087AF5EE407AF1EE10FA41
:1021F00059D0224B93ED1C7AD7ED097A37EE277A26
:10220000204BD3ED046A1C4BD3ED087A76EEA77A07
:10221000B4EEE77AF1EE10FA45DB184B93F857303D
:1022200083F00103DBB2002B04D1144B93F86E3022
:10223000002B12D0134B93ED047A104BD3ED1C7A84
:1022400077EE677A0120D7ED101A97ED091AF0EEB4
:10225000670A97ED110A00F0D1FC084B012283F8C0
:1022600057200022102108480AF02AFC044A7B6CFF
:1022700013604FF0000373E39C0700201C0800204C
:10228000680200208407002000040240CA4B00229C
:1022900083F85620C84B002283F8572001221021D2
:1022A000C6480AF00DFCC44B93ED1C7AD7ED097AB1
:1022B00037EE677AC24BD3ED037AB4EEE77AF1EEEC
:1022C00010FA00F2AE80D7ED117AF5EEC07AF1EE99
:1022D00010FA40F1998000221021B8480AF0F0FB72
:1022E000B54B93ED1C7AB64BD3ED037AB4EEE77A97
:1022F000F1EE10FA06D8B34B4FF000021A604FF01F
:1023000000032DE3AF4B93ED007AD7ED0C7A77EE17
:10231000277AC7ED117AD7ED117AF5EEC07AF1EE92
:1023200010FA02DD4FF000037B64A34B93F85630A4
:1023300083F00103DBB2002B04D19F4B93F86E3086
:10234000002B12D09C4B93ED1C7A9D4BD3ED037A5E
:1023500077EE677A0020D7ED101A97ED091AF0EEA4
:10236000670A97ED110A00F049FC934B012283F8AC
:102370005620954BD3ED087AF5EE407AF1EE10FA3F
:102380004FD08D4B93ED1C7AD7ED097A37EE677AF3
:102390008B4BD3ED036A8C4BD3ED087A76EEE77A5C
:1023A000B4EEE77AF1EE10FA3BD8834B93F857304E
:1023B00083F00103DBB2002B04D17F4B93F86E3026
:1023C000002B12D07C4B93ED1C7A7D4BD3ED037A1E
:1023D00077EE677A0120D7ED101A97ED091AF0EE23
:1023E000670A97ED110A00F009FC734B012283F88C
:1023F00057200022102171480AF062FB714A7B6C61
:1024000013604FF00003ABE26B4B002283F85620C1
:10241000694B002283F857200122102167480AF0F7
:102420004FFB684A7B6C1360FFF7C6FBB0EE407A47
:10243000DFED667AB4EEE77AF1EE10FA0DDD5E4B71
:1024400093F85130002B03D00221614807F072F954
:10245000594B002283F8512019E0574B93F8513023
:10246000012B06D05B4B00221A7002215A4807F05C
:1024700061F9514B012283F85120584B93ED007ABA
:10248000D7ED117A77EE277A544BC3ED007AFFF738
:10249000A1FB87ED070AD7ED077A9FED4C7AF4EEA2
:1024A000C77AF1EE10FA40F36481434B93F8513050
:1024B000012B40F05E814A4BD3ED007A9FED437AC9
:1024C000F4EEC77AF1EE10FA00F25381444BD3EDEB
:1024D000007AF4EE677AF1EE10FA80F14A813D4B12
:1024E0001B78002B0FD1344B1B6F354AD360394B0F
:1024F00001221A7002213B4807F01CF9374B4FF0BC
:1025000000021A6035E12C4B1B6F2D4A1361334BCF
:10251000D3ED007AB8EE087AF4EEC77AF1EE10FA4D
:102520000EDD2E4BD3ED007AB0EE087AF4EEC77ACA
:10253000F1EE10FA04D502212B4807F0FBF818E160
:1025400002212A4807F0F6F81F4BD3ED037AF5EE87
:10255000407AF1EE10FA76D1194B93ED037A184BCD
:10256000D3ED047AB4EEE77AF1EE10FA07D51B4BFF
:10257000D3ED007AF5EEC07AF1EE10FA12DC104BD2
:1025800093ED037A0E4BD3ED047AB4EEE77AF1EED5
:1025900010FA2FDD114BD3ED007AF5EEC07AF1EE93
:1025A00010FA27D5084B4FF07E52DA60022110480E
:1025B00007F0C0F835E000BF1C080020000402400E
:1025C00084070020680200209C070020CDCC4C3FEF
:1025D000D07801087C020020EC7801087802002005
:1025E00080020020107901081C7901087479010823
:1025F00080790108A74BA84ADA60A84BD3ED037A8B
:10260000F1EE677AA54BC3ED037AA44BD3ED047AC0
:10261000F1EE677AA14BC3ED047A0221A04807F0DE
:1026200089F802219F4807F085F800228021994807
:1026300000F05EFBB861BB69002B68D002219A48AC
:1026400007F078F863E0954B93ED037A934BD3ED65
:10265000047AB4EEE77AF1EE10FA07D5934BD3ED96
:10266000007AF5EEC07AF1EE10FA12DC8B4B93EDA6
:10267000037A8A4BD3ED047AB4EEE77AF1EE10FADE
:1026800011DD8A4BD3ED007AF5EEC07AF1EE10FA47
:1026900009D5804BD3ED037ABFEE007AF4EE477A8A
:1026A000F1EE10FA2FD07D4B93ED037A7B4BD3EDF7
:1026B000047AB4EEE77AF1EE10FA07DD7B4BD3ED46
:1026C000007AF5EEC07AF1EE10FA12D4734B93ED66
:1026D000037A724BD3ED047AB4EEE77AF1EE10FA96
:1026E00015D5724BD3ED007AF5EEC07AF1EE10FA03
:1026F0000DDD684BD3ED037AB7EE007AF4EE477A3E
:10270000F1EE10FA03D10221694807F013F8022113
:10271000684806F05FFF614BD3ED037A0220B0EE0C
:10272000670A06F081FF0221634806F053FF5B4B06
:10273000D3ED047A0220B0EE670A07F029F8574B70
:1027400093ED037A554BD3ED047AB4EEE77AF1EECC
:1027500010FA09DD514BDB687B61504B1B694F4A16
:10276000D3604E4A7B691361032218214B4800F065
:1027700013FB524AFB691360514B93F85130002B05
:1027800006D0444B5B6CFB63424B9B6CBB6305E028
:10279000404BDB6BFB633F4B1B6CBB63FFF728FAC3
:1027A00087ED040A97ED047AD7ED047AB4EE677AE0
:1027B000F1EE10FA19D6D7ED047AB7EE007A77EE7B
:1027C000877AF0EE006A87EEA67AD7ED0F7ADFED12
:1027D0003D6A77EEE67A67EE277A9FED3A7A77EEF2
:1027E000877A374BC3ED197A02E0354AFB6B5366A3
:1027F000FFF70CFA87ED030A97ED037AD7ED037A1A
:10280000B4EE677AF1EE10FA19D6D7ED037AB7EE87
:10281000007A77EE877AF0EE006A87EEA67AD7ED37
:102820000E7ADFED296A77EEE67A67EE277A9FED7A
:10283000267A77EE877A224BC3ED1A7A02E0204A95
:10284000BB6B9366FFF7F0F987ED020A97ED027A0A
:10285000D7ED027AB4EE677AF1EE10FA51D6D7EDE1
:10286000027A9FED1A7AF4EEC77AF1EE10FA03D5E8
:10287000084B01221A7730E0D7ED027A9FED147AE7
:10288000F4EEC77AF1EE10FA24DD024B03221A7738
:1028900023E000BF9C070020000080BF84070020C9
:1028A000BC790108F8790108387A0108780200201B
:1028B000547A0108847A0108907A01088002002085
:1028C0001C0800206F12833ACDCCCC3D9A9999BE5A
:1028D0009A99993E264B02221A77254B1A7F254B4F
:1028E0001B789A420DD0224B1A7F224B1A70204B34
:1028F0001B7F184605F00AFD03460221184606F024
:1029000019FF1B4B93F856300F2B28D8FFF79AF975
:1029100087ED010A97ED017AD7ED017AB4EE677A77
:10292000F1EE10FA17D6D7ED017A9FED137AF4EE97
:10293000C77AF1EE10FA0EDD104B93F85830032BE6
:102940000DD00E4B012283F8582009F079FC024685
:102950000A4BDA6503E0094B002283F858207B6CB0
:1029600007EE903AB0EE670A4837BD4680BD00BF1B
:102970009C0700200F010020CDCC4C3F1C080020FC
:1029800080B586B000AFFFF737F8FFF7D5FA87EDCF
:10299000040AD7ED047AF5EEC07AF1EE10FA42DDC2
:1029A000814B1B7F012B1CD1804A7F4BB3F92E300A
:1029B00019467D4BB3F930300B447B49B1F93210E5
:1029C00007EE901AB8EEE77AD7ED047A67EE277A29
:1029D000FDEEE77AC7ED017AB98809B20B44D363FB
:1029E00070E0724A704BB3F92E3019466E4BB3F952
:1029F00030300B446E4991ED1A7AD7ED047A27EE08
:102A0000277A6949B1F9321007EE901AF8EEE77AA1
:102A100067EE277AFDEEE77AC7ED017AB98809B249
:102A20000B44D3634EE0D7ED047AF5EEC07AF1EEB5
:102A300010FA42D55C4B1B7F012B1CD15B4A5A4BD1
:102A4000B3F92E301946584BB3F93030CB1A5649EA
:102A5000B1F9321007EE901AB8EEE77AD7ED047AA2
:102A600067EE277AFDEEE77AC7ED017AB98809B2F9
:102A70000B44D36326E04D4A4B4BB3F92E30194635
:102A8000494BB3F93030CB1A494991ED1A7AD7ED59
:102A9000047A27EE277A4449B1F9321007EE901AEA
:102AA000F8EEE77A67EE277AFDEEE77AC7ED017A6E
:102AB000B98809B20B44D36304E03C4B3A4AB2F9FB
:102AC0002E20DA6397ED040A09F0E2F8FFF7CAF85E
:102AD00087ED030AD7ED037AF5EEC07AF1EE10FA2E
:102AE0001CDD324A304BB3F9643019462E4BB3F932
:102AF00066300B442C49B1F9681007EE901AB8EE15
:102B0000E77AD7ED037A67EE277AFDEEE77AC7ED2D
:102B1000017AB98809B20B44136428E0D7ED037A2F
:102B2000F5EEC07AF1EE10FA1CD5204A1E4BB3F92F
:102B3000643019461C4BB3F96630CB1A1A49B1F907
:102B4000681007EE901AB8EEE77AD7ED037A67EED1
:102B5000277AFDEEE77AC7ED017AB98809B20B440E
:102B6000136404E0114B104AB2F964201A64002384
:102B70007B610FE07B69DBB2184600F01DF8F0EED8
:102B8000407A0C4A7B699B001344C3ED007A7B6951
:102B900001337B617B69072BECDD064805F0D8FF2C
:102BA00000BF1837BD4680BD9C07002000040040D0
:102BB0001C080020DC02002080B582B000AF034674
:102BC000FB71FB790B4A134493F85730402B02D921
:102BD000DFED097A09E0FB79064A134493F8573090
:102BE000184606F09FFAF0EE407AB0EE670A083712
:102BF000BD4680BD9C0700200000C07F80B586B028
:102C000000AF87ED050AC7ED040A87ED031AC7ED8B
:102C1000021A0346FB71FB79002B04D002212148E4
:102C200006F0D8FC03E002211F4806F0D3FC022086
:102C300097ED040A06F0F8FC02211C4806F0CAFCD5
:102C4000022097ED050A06F0EFFC0221184806F075
:102C5000C1FC184BD3ED197A9FED177AC7EE876A3E
:102C60000220B0EE660A06F0DFFC0221134806F0EF
:102C7000B1FCD7ED027A9FED107AC7EE876A022089
:102C8000B0EE660A06F0D0FC02210D4806F0A2FC68
:102C9000022097ED030A06F07BFD00BF1837BD4602
:102CA00080BD00BF247B0108447B0108647B0108D0
:102CB000887B01081C0800200AD7A33C907B0108F0
:102CC000987B010880B500AF07F042F80246064B3A
:102CD0001A60054B1B68054A934201D0002300E0AF
:102CE0000023184680BD00BF84020020152020006C
:102CF00080B584B000AF78600B467B8013463B8084
:102D00000E4B1B68092B01D8022312E03B881B04E1
:102D1000FB60F86806F0B0FD7B881A46F9687868B1
:102D200006F068FE7B881A46F968786806F04CFF62
:102D3000034618461037BD4680BD00BF8402002000
:102D400080B584B000AF0346FB80084B1B68092B9D
:102D500001D8022306E0FB881B04FB60F86806F03C
:102D60008BFD034618461037BD4680BD8402002007
:102D700080B584B000AFF860B9601346FB80FB8873
:102D80001B04BA681946F86806F086FF0346184621
:102D90001037BD4680BD00BF80B582B000AF7860FF
:102DA0000B467B8013463B80114B1B88002B19D1AF
:102DB0000F4B1B8801339AB20D4B1A800D4A7B686A
:102DC00013600D4A7B8813803B881B040B4A1360F9
:102DD00009F036FA034603F51C531033084A136012
:102DE000002300E0012318460837BD4680BD00BF20
:102DF000880200208C020020900200209402002013
:102E00009802002080B582B000AF324B1B88002BA7
:102E10005CD000237B602F4B1B88013B042B3FD8E9
:102E200001A252F823F000BF3D2E0008572E0008E3
:102E30006F2E0008572E0008912E0008264B1B68A5
:102E4000184606F02DFD7860224B1B8801339AB29C
:102E5000204B1A8029E007F065F80346002B23D1A8
:102E60001C4B1B8801339AB21A4B1A801CE01B4B77
:102E70001868194B19681A4B1B881A4606F0D2FDC0
:102E80007860144B1B8801339AB2124B1A800CE005
:102E90000221144806F04EFC0E4B00221A8004E07A
:102EA0000C4B00221A8000E000BF7B68002B06D18B
:102EB00009F0C6F902460C4B1B689A4206D9054B2D
:102EC00000221A800221094806F034FC00BF0837AE
:102ED000BD4680BD88020020940200208C020020A4
:102EE00090020020A87B010898020020C07B010806
:102EF000B0B5A6B000AF09F023F900F057FA00F022
:102F000091FD00F0E1FA00F009FB00F041FB00F058
:102F100089FB00F025FD07F001FF00F0F3FC00F055
:102F2000E9FB00F04BFD00F06DFE08F019FE0421F6
:102F3000B4480CF0A7FA01221021B34809F0C0FDF3
:102F40000821B2480CF014F90346002B03D090215D
:102F5000AF4800F01DFE0C21AC480CF009F9034607
:102F6000002B03D09521AA4800F012FEFFF7AAFE1D
:102F70000346002B03D09B21A54800F009FEA54B7A
:102F8000A54A07CA03C31A70A24B4FF00002DA60C9
:102F9000A04BA24A1A629F4B01221A779D4B002236
:102FA00083F82C209B4BFF221A769A4BFF22DA756E
:102FB000984B00229A75974BFF225A76954BFF2229
:102FC0009A76944BFF22DA76924B954ADA63914BCC
:102FD000944A5A648F4B4FF07E521A648D4B4FF0D7
:102FE0007A529A648B4B4FF478721A82894B1E2264
:102FF0005A82884B4FF42F725A86864B40F2DC522D
:10300000DA85844B1E221A86824B4FF448729A82CC
:10301000804B4CF250325A637E4B824A9A637D4B0E
:103020003C22A3F84E207B4B0A22A3F84C20794B7C
:103030000122A3F85020774BFF2283F85220754BD2
:10304000FF2283F85320734BFF2283F85420714BE7
:10305000FF2283F855206F4BFF2283F856206D4BDB
:103060004FF42F72A3F868206A4B40F2DC52A3F8A9
:103070006420684B0022A3F86620664B002283F888
:1030800062200023C7F8943014E0624AD7F89430E5
:1030900013445733FF221A705E4AD7F89430343302
:1030A0005B0013444FF478729A80D7F89430013360
:1030B000C7F89430D7F89430072BE6DD554B41F232
:1030C0008832DA67534B8022A3F8602007F110039F
:1030D000002280211846FFF74BFE07F110030B2258
:1030E00019464C4810F054FF0346002B13D1B7F893
:1030F00070301A4607F11003194646480FF09AFF40
:10310000494A4A4B14461D460FCD0FC495E80700A7
:1031100084E8070057E007F11003042244491846E9
:1031200010F036FF0346002B45DB07F110030222A7
:103130004049184610F02CFF0346002B3BD1354A7E
:103140003B1D07CA03C31A800233120C1A70B7F86A
:103150007030A7F89230B7F89230002B03D0B7F850
:103160009230802B02D98023A7F89230B7F89220B2
:1031700007F11003194627480FF05CFF254B3A1D55
:1031800007CA03C31A800233120C1A70214B802223
:10319000A3F86020244A284B14461D460FCD0FC4C7
:1031A0000FCD0FC40FCD0FC42B681A4622800234F6
:1031B0001B0C237007E01C4A204B10461946442381
:1031C0001A460FF037FF032218211D48FFF7D0FDE4
:1031D0000B221C491A4810F0DBFE0346002B35D0A9
:1031E0000221194806F0A6FA154B4FF09E421A61CB
:1031F000134B4FF04F42DA60114B124A07CA03C318
:103200001A703BE040030020000402407C030020D1
:10321000D47B01089C070020E07B01080000C84225
:103220000AD7233CCDCCCC3D1C080020EC7B010808
:10323000087C0108107C0108147C0108487C010806
:10324000840700208C7C0108987C010802214B48EF
:1032500006F0C0F94A4BD3ED037A0220B0EE670ABC
:1032600006F0E2F90221474806F0B4F9444BD3EDE9
:10327000047A0220B0EE670A06F08AFA404B182260
:103280009A82414B93F82C30012B02D100F03CFC88
:1032900001E000F05DFCFEF763FC08F0A1FC0346D2
:1032A0004FF40072194639480DF0F0FA4FF40072ED
:1032B0003749384807F0AAFB08F0C2FF0246364BF0
:1032C0001B68D31A142B42D908F0BAFF0246324BBE
:1032D0001A60FEF74DFB07F04BFFFEF757FB034666
:1032E000002B01D008F090FDFEF750FB0346002BA9
:1032F00008D02A4B93F85130002B03D120212848C5
:1033000009F0F8FBFEF75CFB0346002B08D0234BCB
:1033100093F85130012B03D12021214809F0EAFB19
:103320001E4B93F85130022B04D01C4B93F85130B4
:10333000032B05D100221021194809F0C1FB04E03C
:1033400001221021164809F0BBFBFFF719FB07F01B
:1033500037FE0346002B03D01249012000F070FE17
:1033600007F034FC0346002B03D00F49002000F087
:1033700067FE06F0D9F8FFF745FD9DE7CC7C010814
:1033800084070020DC7C01089C0700204407002003
:10339000AC040020FC0200203C0300201C0800209C
:1033A00000040240580E0020340A002080B598B076
:1033B00000AF0023BB60404A3F4B1B6C43F080537F
:1033C00013643D4B1B6C03F08053BB60BB68002350
:1033D0007B603A4A394B1B6843F480431360374B98
:1033E0001B6803F480437B607B680B233B634FF4D3
:1033F00080337B630123FB6310233B6401237B64E5
:103400000223BB644FF48003FB6404233B65482321
:103410007B650223BB650323FB6507F13003184678
:103420000AF070FC0346002B04D040F269112448D6
:1034300000F0AEFB0F23FB6100233B6200237B62A5
:103440000023BB620023FB6207F11C030021184626
:103450000AF0B2FE0346002B04D040F27711184860
:1034600000F096FB0223FB604FF40073BB6107F191
:103470000C0318460BF080F80346002B04D04FF4E1
:10348000BF710F4800F084FB0BF026F802460D4B8D
:10349000A3FB02239B09184609F024F8042009F035
:1034A0002DF8002200214FF0FF3008F0E3FF00BFAD
:1034B0006037BD4680BD00BF00380240007000404C
:1034C000D47B0108D34D621080B500AF104B114A78
:1034D0001A600F4B00225A600D4B7F229A600C4BF2
:1034E000FF22DA600A4B00221A61094B00225A615E
:1034F000074B00229A6106480BF072F90346002B35
:1035000004D040F29B11044800F042FB00BF80BD94
:103510005004002000280040D47B010880B500AF93
:10352000184B194A1A60174B4FF482725A60154BA8
:1035300000229A60134B0022DA60124B00221A61BB
:10354000104B00225A610F4B00229A610D4B002252
:10355000DA610C4B00221A620A4B00225A62094BB4
:1035600000229A62074B0A22DA6206480BF0E0F961
:103570000346002B04D040F2B111044800F008FBD0
:1035800000BF80BDEC06002000300140D47B010864
:1035900080B500AF012208211E4809F091FA1E4BA8
:1035A0001E4A1A601C4B4FF482725A601A4B00225A
:1035B0009A60194B0022DA60174B02221A61164BEF
:1035C00001225A61144B4FF400729A61124B082287
:1035D000DA61114B00221A620F4B00225A620E4B25
:1035E00000229A620C4B0722DA620B480BF0A0F91A
:1035F0000346002B04D04FF4E471094800F0C8FAE8
:10360000054B1B68044A1268126842F040021A60B7
:1036100000BF80BD00040240B8030020003C004011
:10362000D47B010880B58AB000AF2F4B2F4A1A60B7
:103630002D4B0F225A602C4B00229A602A4B44F6E5
:103640002062DA60284B00221A6127480BF064FDE3
:103650000346002B04D040F2DD11254800F098FA13
:1036600000233B6200237B6207F1200319461E48BA
:103670000CF062FF0346002B04D04FF4F2711C489B
:1036800000F086FA60237B6040F2DC53BB600023CD
:10369000FB6000237B6100233B610023FB6100236F
:1036A000BB613B1D082219460F480CF0E7F80346A2
:1036B000002B04D04FF4F8710D4800F069FA3B1D5F
:1036C0000C22194608480CF0D9F80346002B04D008
:1036D00040F2F511064800F05BFA034806F03CFEA4
:1036E00000BF2837BD4680BD7C0300200004004099
:1036F000D47B010880B58CB000AF224B224A1A60FF
:10370000204B00225A601F4B00229A601D4B4FF045
:10371000FF32DA601B4B00221A610323FB60002397
:103720003B6101237B610023BB610423FB61002318
:103730003B6201237B620023BB620423FB6207F12F
:103740000C0319460F480BF007FE0346002B04D06C
:1037500040F213210D4800F01BFA00237B60002388
:10376000BB603B1D194607480CF0E6FE0346002BE4
:1037700004D040F21A21054800F00AFA00BF3037A1
:10378000BD4680BD40030020000C0040D47B0108F2
:1037900080B58CB000AF3E4B3E4A1A603C4B0F22C6
:1037A0005A603B4B00229A60394B4FF6FF72DA6049
:1037B000374B00221A61364B00225A6134480BF015
:1037C0007FFC0346002B04D040F22E21324800F04B
:1037D000DFF92F480BF000FD0346002B04D040F228
:1037E00033212D4800F0D4F90423FB6160233B62B0
:1037F00002237B620023FB6207F11C031946244865
:103800000CF002F90346002B04D04FF40F7122484C
:1038100000F0BEF900237B610023BB6107F11403B4
:1038200019461B480CF088FE0346002B04D040F2DA
:103830004321194800F0ACF902237B600123BB60EF
:103840000023FB6000233B613B1D08221946104802
:103850000BF078FF0346002B04D040F24E210E48B7
:1038600000F096F900237B600223BB603B1D0C2215
:10387000194607480BF066FF0346002B04D040F2C0
:103880005621054800F084F900BF3037BD4680BDA1
:103890007004002000000140D47B010880B500AF17
:1038A000144B154A1A60134B144A5A60114B4FF4CB
:1038B00080529A600F4B4FF40052DA600D4B4FF478
:1038C00080621A610B4B04225A610A4B00229A61F2
:1038D000084B4FF40042DA6106480CF087FE0346BD
:1038E000002B04D040F26B21054800F051F900BFD5
:1038F00080BD00BF1004002000100140A086010020
:10390000D47B010880B500AF124B134A1A60114BEB
:103910004FF4E1325A600F4B00229A600D4B0022A7
:10392000DA600C4B00221A610A4B0C225A61094BD7
:1039300000229A61074B0022DA6106480CF056FE1D
:103940000346002B04D040F27F21044800F020F908
:1039500000BF80BD4407002000440040D47B010824
:1039600080B500AF124B134A1A60114B4FF4164248
:103970005A600F4B00229A600D4B0022DA600C4B0C
:1039800000221A610A4B0C225A61094B00229A61EB
:10399000074B0022DA6106480CF028FE0346002B94
:1039A00004D040F29321044800F0F2F800BF80BD3B
:1039B000FC02002000480040D47B010880B500AF25
:1039C000144B154A1A60134B144A5A60114B4FF4AA
:1039D00080529A600F4B4FF40052DA600D4B4FF457
:1039E00080621A610B4B08225A610A4B00229A61CD
:1039F000084B4FF40042DA6106480CF0F7FD03462D
:103A0000002B04D040F2A721054800F0C1F800BF08
:103A100080BD00BFAC06002000140140A08601005C
:103A2000D47B010880B58AB000AF00233B61324AE5
:103A3000314B1B6B43F0800313632F4B1B6B03F065
:103A400080033B613B690023FB602B4A2A4B1B6BC5
:103A500043F001031363284B1B6B03F00103FB606E
:103A6000FB680023BB60244A234B1B6B43F0040319
:103A70001363214B1B6B03F00403BB60BB68002383
:103A80007B601D4A1C4B1B6B43F0020313631A4BF4
:103A90001B6B03F002037B607B6800223821174810
:103AA00009F00EF810237B61154BBB610023FB610D
:103AB00007F114031946134808F06CFD01237B61DC
:103AC0000123BB610023FB6107F1140319460D4874
:103AD00008F060FD38237B610123BB610023FB619B
:103AE00000233B6207F114031946044808F052FD15
:103AF00000BF2837BD4680BD0038024000040240A8
:103B0000000011100008024080B500AF08210D48E8
:103B10000BF098FB0C210B480BF094FBFFF7BEFE5B
:103B200005F06EFB03461922194607480CF0AEFE5D
:103B300001220121054808F0C3FF012004F082FFA3
:103B400000BF80BD70040020100400200008024067
:103B500080B500AF0B480CF097FDFFF719FE01226E
:103B60000121094808F0ACFF082108480BF094FB3C
:103B70000C2106480BF090FB002004F063FF00BF0F
:103B800080BD00BF10040020000802407004002027
:103B900080B5ADF5805D82B000AF07F10803043B4E
:103BA000186007F10803083B1960144B144AB2F976
:103BB0002E20DA6307F10803083B07F10800022210
:103BC00019460FF037FA07F10803043B186810F0A4
:103BD000D7F90346591C07F10803043B07F1080213
:103BE000901C0A4619680FF025FA07F10803052210
:103BF0004FF480511846FFF77BF8FEE700040040C1
:103C00009C07002080B400AF084B002283F86C2092
:103C1000064B002283F86E20044B002283F86D20AF
:103C200000BFBD465DF8047B704700BF1C08002044
:103C300080B582B000AF03460A46FB711346BB71E4
:103C4000BB791946074805F0C5FCFB79064A52F8CE
:103C50002330BA791146184605F06CFD00BF0837CD
:103C6000BD4680BDFC7E01081001002080B584B0F7
:103C700000AF0346FB71164B1B7883F02003DAB2CA
:103C8000134B1A70124B1B7883F04F03DAB2104BB0
:103C90001A700F4B1B7883F04B03DAB20C4B1A707F
:103CA0000B4B1B7807F108000A4A052110F0E6F8D3
:103CB000FB791946084805F08DFCFA7907F10803ED
:103CC0001146184605F036FD00BF1037BD4680BDD1
:103CD0009C020020087F0108107F010880B582B097
:103CE00000AF03460A46FB711346BB71BB79194608
:103CF000074805F06FFCBA79FB791146184605F0C4
:103D00004DFC044AFB79137000BF0837BD4680BDE7
:103D1000187F01089C02002080B584B000AF786055
:103D20000B46FB700023FB600CE0FB687A681344D1
:103D30001A780D4B1B785340DAB20B4B1A70FB68A4
:103D40000133FB60FB68272B05DCFB687A681344B2
:103D50001B78002BE9D1FB781946786805F03AFC0E
:103D600000BF1037BD4680BD9C02002080B582B0E8
:103D700000AF03460A46FB711346BB71084B1A7825
:103D8000FB795340DAB2064B1A70BA79FB791146C7
:103D9000184605F003FC00BF0837BD4680BD00BFD4
:103DA0009C02002090B59DB002AF87ED020B034648
:103DB000FB7107F11400D7E90234CDE90034154A4C
:103DC000502110F05BF800237B660DE007F1140230
:103DD0007B6E13441A78104B1B785340DAB20E4BAB
:103DE0001A707B6E01337B667B6E272B06DC07F136
:103DF00014027B6E13441B78002BE7D1FA7907F18C
:103E000014031146184605F0E5FB00BF6C37BD46AC
:103E100090BD00BF1C7F01089C02002090B59BB0A4
:103E200002AF87ED010A0346FB7078680EF0CAFD09
:103E300003460C4607F10C00CDE90034144A50212A
:103E400010F01CF80023FB650DE007F10C02FB6D80
:103E500013441A780F4B1B785340DAB20D4B1A708B
:103E6000FB6D0133FB65FB6D272B06DC07F10C02B4
:103E7000FB6D13441B78002BE7D1FA7807F10C0394
:103E80001146184605F0A6FB00BF6437BD4690BD3D
:103E9000247F01089C02002080B598B000AF034643
:103EA0000A46FB8013467B71B7F9063007F10C0018
:103EB000144A50210FF0E2FF0023FB650DE007F1EB
:103EC0000C02FB6D13441A780F4B1B785340DAB287
:103ED0000D4B1A70FB6D0133FB65FB6D272B06DC68
:103EE00007F10C02FB6D13441B78002BE7D17A79A4
:103EF00007F10C031146184605F06CFB00BF603754
:103F0000BD4680BD2C7F01089C02002080B584B096
:103F100000AF03460A46FB711346BB71FB7907F1FC
:103F20000800154A03210FF0A9FF0023FB600DE0F4
:103F300007F10802FB6813441A78104B1B785340B2
:103F4000DAB20E4B1A70FB680133FB60FB68022B80
:103F500006DC07F10802FB6813441B78002BE7D14D
:103F6000BA7907F108031146184605F033FB00BF84
:103F70001037BD4680BD00BF307F01089C02002085
:103F800080B598B000AF78600B46FB7007F10C006D
:103F90007B68154A50210FF071FF0023FB650DE08F
:103FA00007F10C02FB6D13441A78104B1B78534039
:103FB000DAB20E4B1A70FB6D0133FB65FB6D272BDC
:103FC00006DC07F10C02FB6D13441B78002BE7D1D4
:103FD000FA7807F10C031146184605F0FBFA00BF0A
:103FE0006037BD4680BD00BF387F01089C020020BD
:103FF00080B483B000AF0346FB71FB792F2B05D94A
:10400000FB79392B02D8FB79303B13E0FB79602B2D
:1040100005D9FB79662B02D8FB79573B0AE0FB797F
:10402000402B05D9FB79462B02D8FB79373B01E0C1
:104030004FF0FF3318460C37BD465DF8047B7047E0
:1040400080B586B000AF03463960FB710023FB8268
:104050000023BB8295E0FB8A5A1CFA821A463B6811
:1040600013441B787B747B7C002B00F090804A4BC0
:104070001B78202B09D17B7C242B02D07B7C212B2D
:104080007FD1454B24221A707BE07B7C0A2B02D027
:104090007B7C0D2B27D1BB8A002B06D1FB8A013BF1
:1040A0003A68134400221A7004E0BB8A3A68134449
:1040B00000221A70384B1B782A2B09D1FA7CBB7C62
:1040C0009A4205D0FB7919460420FFF7B1FD04E0C0
:1040D000FB793968184600F063F80023FB742E4B17
:1040E00020221A704DE07B7C2A2B06D12A4B3122EC
:1040F0001A70FB8A013BBB8243E0274B1B78312BB4
:1041000010D17B7C1846FFF773FFF860FB68B3F1B2
:10411000FF3F36D0FB68DBB21B01BB741E4B322263
:104120001A702EE01C4B1B78322B11D17B7C184669
:10413000FFF75EFFB860BB68B3F1FF3F21D0BB68FB
:10414000DAB2BB7C1344BB74134B2A221A7018E0FA
:10415000114B1B78242B04D1FA7C7B7C5340FB74DD
:104160000FE00D4B1B782A2B05D1FB791946052052
:10417000FFF75EFD0CE0FB7919460020FFF758FDC4
:1041800006E0FB8AB3F5007FFFF465AF00E000BFF7
:104190001837BD4680BD00BF4C0100200000000064
:1041A00090B5ADF58F5D83B006AF024607F1100301
:1041B000083B196007F11003013B1A7007F1100367
:1041C000083B1B685B7807F58D5202F113021370F0
:1041D00007F58D5303F113031B78313B472B03F293
:1041E000CF8201A252F823F02565000881770008EC
:1041F00081770008817700088177000881770008BF
:1042000081770008817700088177000881770008AE
:10421000817700088177000881770008817700089E
:1042200081770008817700083D500008715F000821
:1042300081770008536E0008096100088177000843
:104240007B6C0008ED6B0008D953000881770008EB
:10425000817700088177000881770008AF4E000859
:1042600081770008FD74000881770008AF750008A9
:104270001956000881770008817700084D770008FB
:104280007B49000881770008817700089176000853
:10429000817700088177000881770008817700081E
:1042A0007D7700088177000809430008B55B0008A6
:1042B000E15F000849560008CD52000881770008E8
:1042C000AB440008ED540008DD4900086B7000089D
:1042D0008177000881770008FF540008414D0008ED
:1042E000817700087D45000881770008C9510008E2
:1042F00081770008817700088177000877470008F8
:10430000F1480008855E000807F11003083B1B68B0
:10431000981C07F58C5303F10C03043307F58C52FA
:1043200002F10C02D4490FF0FFFD034607F58D5250
:1043300002F11002138007F58D5303F11003B3F956
:104340000030022B58D107F58C5303F10C03D3ED49
:10435000007A9FEDCA7AF4EEC77AF1EE10FA41DBEB
:1043600007F58C5303F11003D3ED007A9FEDC37A68
:10437000F4EEC77AF1EE10FA34DB07F58C5303F153
:104380000C03D3ED007AB7EE007AF4EEC77AF1EEC3
:1043900010FA27D807F58C5303F11003D3ED007AF8
:1043A000B7EE007AF4EEC77AF1EE10FA1AD807F5F4
:1043B0008C5303F10C03D3ED007A9FEDB17A67EED5
:1043C000877AB04BC3ED0F7A07F58C5303F11003D6
:1043D000D3ED007A9FEDAA7A67EE877AA94BC3EDF9
:1043E000117A1DE007F11003013B1B7819460E20DE
:1043F000FFF71EFC03F0CDB907F58D5303F1100351
:10440000B3F90030B3F1FF3F0AD007F11003013BCD
:104410001B7819460720FFF70BFC00BF03F0B9B962
:1044200007F11003013B1B7819466120FFF756FC8A
:10443000944BD3ED0F7A9FED927AC7EE876A07F11E
:104440001003013B1B781846B0EE660AFFF7E6FC46
:104450008C4BD3ED117A9FED8A7AC7EE876A07F10C
:104460001003013B1B781846B0EE660AFFF7D6FC36
:1044700007F11003013B1B781846FFF7F7FB07F124
:104480001003013B1B7819467F4805F0A3F87F4BCA
:10449000D3ED197A07F11003013B1B781846B0EEF3
:1044A000670A05F075F903F074B907F11003083BCA
:1044B0001B68023307F58C5202F108027449184652
:1044C0000FF032FD034607F58D5202F11002138002
:1044D00007F58D5303F11003B3F90030012B1CD104
:1044E00007F58C5303F10803D3ED007AF5EEC07A9B
:1044F000F1EE10FA07DD07F58C5303F108031B6892
:10450000604A13621DE007F11003013B1B78194656
:104510000E20FFF78DFB03F03CB907F58D5303F137
:104520001003B3F90030B3F1FF3F0AD007F11003D5
:10453000013B1B7819460720FFF77AFB00BF03F009
:1045400028B907F11003013B1B7819466720FFF7D4
:10455000C5FB4C4BD3ED087A07F11003013B1B78E8
:104560001846B0EE670AFFF759FC07F11003013B4C
:104570001B781846FFF77AFB03F00BB907F110031D
:10458000083B1B68981C07F58C53043307F58C52C5
:1045900040490FF0C9FC034607F58D5202F11002A5
:1045A000138007F58D5303F11003B3F90030022B8C
:1045B00074D107F58C531A6807F58C5303F1040383
:1045C0001B689A4221DA07F58C5303F104031A6839
:1045D00007F58C531B68D31AC82B16DD07F58C53CF
:1045E0001B6807EE903AF8EEE77A2B4BC3ED037A9F
:1045F00007F58C5303F104031B6807EE903AF8EEBD
:10460000E77A254BC3ED047A5CE007F58C5303F1A0
:1046100004031A6807F58C531B689A4221DA07F5E0
:104620008C531A6807F58C5303F104031B68D31AE3
:10463000C82B16DD07F58C5303F104031B6807EE46
:10464000903AF8EEE77A144BC3ED037A07F58C53F2
:104650001B6807EE903AF8EEE77A0F4BC3ED047A49
:1046600030E007F11003013B1B7819460E20FFF7DD
:10467000DFFA03F08EB800BF407F01086F12833A63
:104680000AD7A33C9C070020487F01081C08002093
:10469000587F01085C7F01088407002007F58D53CF
:1046A00003F11003B3F90030B3F1FF3F0AD007F173
:1046B0001003013B1B7819460720FFF7B9FA00BF2A
:1046C00003F067B807F11003013B1B78194670200F
:1046D000FFF704FBB84BD3ED037AFDEEE77A07F161
:1046E0001003013B1B78194617EE900AFFF748FCB0
:1046F000B14BD3ED047AFDEEE77A07F11003013BED
:104700001B78194617EE900AFFF73AFCAB4BD3ED36
:104710001C7A07F11003013B1B781846B0EE670ABC
:10472000FFF77CFBA54BD3ED1F7A9FEDA57AC7EE73
:10473000876A07F11003013B1B781846B0EE660A42
:10474000FFF76CFB9D4BD3ED207A9FED9D7AC7EE72
:10475000876A07F11003013B1B781846B0EE660A22
:10476000FFF75CFB07F11003013B1B781846FFF7CE
:104770007DFA03F00EB807F11003083B1B68981C84
:1047800007F58B5303F11803043307F58B5202F13D
:1047900018028C490FF0C8FB034607F58D5202F151
:1047A0001002138007F58D5303F11003B3F90030A5
:1047B000022B4CD107F58B5303F11803D3ED007A8C
:1047C0009FED817AF4EEC77AF1EE10FA35DB07F54A
:1047D0008B5303F11C03D3ED007A9FED7B7AF4EE4B
:1047E000C77AF1EE10FA28DB07F58B5303F11803B3
:1047F000D3ED007AB7EE007AF4EEC77AF1EE10FA54
:104800001BD807F58B5303F11C03D3ED007AB7EEE9
:10481000007AF4EEC77AF1EE10FA0ED807F58B5352
:1048200003F118031B68694A136407F58B5303F1FE
:104830001C031B68654A93641DE007F11003013BEC
:104840001B7819460E20FFF7F3F902F0A2BF07F517
:104850008D5303F11003B3F90030B3F1FF3F0AD0D9
:1048600007F11003013B1B7819460720FFF7E0F919
:1048700000BF02F08EBF07F11003013B1B78194601
:104880007620FFF72BFA514BD3ED107A07F1100386
:10489000013B1B781846B0EE670AFFF7BFFA4B4B97
:1048A000D3ED127A07F11003013B1B781846B0EEE6
:1048B000670AFFF7B3FA07F11003013B1B781846AC
:1048C000FFF7D4F907F11003013B1B781946404864
:1048D00004F080FE394BD3ED1A7A07F11003013B47
:1048E0001B781846B0EE670A04F052FF02F051BF81
:1048F000002280213548FEF7FBF907F58D5303F1BF
:104900000C031860032218212B48FEF7F1F9024628
:1049100007F58D5303F10C031B68134407F58D5203
:1049200002F10C02136007F11003013B1B781946DA
:104930007720FFF7D3F907F58D5303F10C031B68BC
:10494000002B10D107F11003013B1B7819462148B9
:10495000FFF7E2F907F11003013B1B781846FFF758
:1049600085F902F016BF07F11003013B1B781946C9
:104970000820FFF75DF902F00CBF0020FEF7E0F918
:104980000320FEF7DDF907F11003013B1B78194600
:104990005720FFF7A3F907F11003013B1B781946D5
:1049A0000D48FFF7B9F907F11003013B1B781846D2
:1049B000FFF75CF902F0EDBE840700201C08002020
:1049C0000AD7A33C407F0108CDCCCC3D9C070020FA
:1049D000487F0108647F0108847F010807F1100304
:1049E000083B1B68981C07F58B5303F10803991CBF
:1049F00007F58B5202F1080207F58B5303F1080308
:104A00000E33059307F58B5303F108030C3304931E
:104A100007F58B5303F108030A33039307F58B5310
:104A200003F108030833029307F58B5303F10803DE
:104A30000633019307F58B5303F108030433009306
:104A40000B46BD490FF070FA034607F58D5202F18F
:104A50001002138007F58D5303F11003B3F90030F2
:104A6000002B40F3CB8007F58B5303F10803B3F918
:104A70000030002B40F3B88007F58B5303F1080397
:104A8000B3F90030102B00F3AF8007F58B5303F11F
:104A90000803B3F90030DBB2013BDAB2A74B9A75D9
:104AA00007F58D5303F11003B3F90030012B0EDD30
:104AB00007F58B5303F10A03B3F90030184602F0EF
:104AC0006FFE0346DBB2013BDAB29C4BDA7507F5A9
:104AD0008D5303F11003B3F90030022B0EDD07F5FF
:104AE0008B5303F10C03B3F90030184602F058FE63
:104AF0000346DBB2013BDAB2904B1A7607F58D53D1
:104B000003F11003B3F90030032B0EDD07F58B53CF
:104B100003F10E03B3F90030184602F041FE0346DC
:104B2000DBB2013BDAB2854B5A7607F58D5303F1C0
:104B30001003B3F90030042B0EDD07F58B5303F19E
:104B40001003B3F90030184602F02AFE0346DBB228
:104B5000013BDAB2794B9A7607F58D5303F11003D6
:104B6000B3F90030052B0EDD07F58B5303F112036B
:104B7000B3F90030184602F013FE0346DBB2013BE6
:104B8000DAB26E4BDA7607F58D5303F11003B3F901
:104B90000030062B0FDD07F58B5303F11403B3F937
:104BA0000030184602F0FCFD0346DBB2013BDAB2EE
:104BB000624B83F8522007F58D5303F11003B3F9CC
:104BC0000030072B2EDD07F58B5303F11603B3F9E5
:104BD0000030184602F0E4FD0346DBB2013BDAB2D6
:104BE000564B83F856201DE007F11003013B1B785C
:104BF00019460E20FFF71CF802F0CBBD07F58D53C8
:104C000003F11003B3F90030B3F1FF3F0AD007F10D
:104C10001003013B1B7819460720FFF709F800BF76
:104C200002F0B7BD07F11003013B1B78194669205C
:104C3000FFF754F8414B9B7D9BB201339BB21AB2F4
:104C400007F11003013B1B7819461046FFF724F9C2
:104C50003A4BDB7D9BB201339BB21AB207F11003D2
:104C6000013B1B7819461046FFF716F9334B1B7EA4
:104C70009BB201339BB21AB207F11003013B1B78C0
:104C800019461046FFF708F92C4B5B7E9BB20133A7
:104C90009BB21AB207F11003013B1B78194610466C
:104CA000FFF7FAF8254B9B7E9BB201339BB21AB2F9
:104CB00007F11003013B1B7819461046FFF7ECF88B
:104CC0001E4BDB7E9BB201339BB21AB207F110037D
:104CD000013B1B7819461046FFF7DEF8174B93F897
:104CE00052309BB201339BB21AB207F11003013B61
:104CF0001B7819461046FFF7CFF8104B93F8563043
:104D00009BB201339BB21AB207F11003013B1B782F
:104D100019461046FFF7C0F807F11003013B1B7856
:104D20001846FEF7A3FF07F11003013B1B78184656
:104D300003F00EFB02F02DBD947F01089C070020BC
:104D400007F11003083B1B68981C07F58B53991C4F
:104D500007F58B5207F58B53043300930B46B54987
:104D60000FF0E2F8034607F58D5202F110021380AE
:104D700007F58D5303F11003B3F90030032B50D125
:104D800007F58B53B3F90030B3F5FA7F3FDD07F534
:104D90008B53B3F90030B3F5FA6F38DA07F58B535C
:104DA00003F10203B3F90030002B30DD07F58B531C
:104DB00003F10203B3F90030632B28DC07F58B53B2
:104DC00003F10403B3F90030B3F5967F1FDD07F557
:104DD0008B5303F10403B3F90030B3F5AF6F16DA68
:104DE00007F58B53B3F90020934B1A8207F58B53C9
:104DF00003F10203B3F900208F4B5A8207F58B535E
:104E000003F10403B3F900208B4B9A821DE007F1F4
:104E10001003013B1B7819460E20FEF709FF02F034
:104E2000B8BC07F58D5303F11003B3F90030B3F1AB
:104E3000FF3F0AD007F11003013B1B7819460720FA
:104E4000FEF7F6FE00BF02F0A4BC07F11003013B21
:104E50001B7819466E20FEF741FF774BB3F91020FF
:104E600007F11003013B1B7819461046FFF714F8B1
:104E7000714BB3F9122007F11003013B1B7819465F
:104E80001046FFF709F86C4BB3F9142007F1100333
:104E9000013B1B7819461046FEF7FEFF07F1100391
:104EA000013B1B781846FEF7E1FE02F072BC07F1E9
:104EB0001003083B1B68981C07F58A5303F118037D
:104EC000991C07F58A5202F1180207F58A5303F17B
:104ED0001803043300930B4656490FF025F8034698
:104EE00007F58D5202F11002138007F58D5303F17F
:104EF0001003B3F90030032B56D107F58A5303F1A1
:104F00001803B3F90030B3F5FA7F43DD07F58A5390
:104F100003F11803B3F90030B3F5FA6F3ADA07F585
:104F20008A5303F11A03B3F90030002B32DD07F581
:104F30008A5303F11A03B3F90030632B2ADC07F517
:104F40008A5303F11C03B3F90030B3F5967F21DDDA
:104F500007F58A5303F11C03B3F90030B3F5617F01
:104F600018DA07F58A5303F11803B3F90020324B1E
:104F7000DA8507F58A5303F11A03B3F900202E4BA3
:104F80001A8607F58A5303F11C03B3F900202A4B54
:104F90005A861DE007F11003013B1B7819460E20CD
:104FA000FEF746FE02F0F5BB07F58D5303F1100343
:104FB000B3F90030B3F1FF3F0AD007F11003013B12
:104FC0001B7819460720FEF733FE00BF02F0E1BB55
:104FD00007F11003013B1B7819464E20FEF77EFEB9
:104FE000154BB3F92E2007F11003013B1B7819462E
:104FF0001046FEF751FF104BB3F9302007F11003B4
:10500000013B1B7819461046FEF746FF0A4BB3F9E1
:10501000322007F11003013B1B7819461046FEF7BA
:105020003BFF07F11003013B1B781846FEF71EFEFD
:1050300002F0AFBBB47F01089C07002007F110030A
:10504000083B1B68981C07F58A5303F11003991C51
:1050500007F58A5202F1100207F58A5303F1100393
:10506000043300930B46D7490EF05EFF034607F565
:105070008D5202F11002138007F58D5303F11003D6
:10508000B3F90030032B59D107F58A5303F110030C
:10509000B3F90030B3F5FA7F46DD07F58A5303F123
:1050A0001003B3F90030B3F5FA6F3DDA07F58A5310
:1050B00003F11203B3F90030002B35DD07F58A53F5
:1050C00003F11203B3F90030632B2DDC07F58A538B
:1050D00003F11403B3F90030B3F5967F24DD07F52F
:1050E0008A5303F11403B3F90030B3F5617F1BDA7F
:1050F00007F58A5303F11003B3F90020B24BA3F86C
:10510000642007F58A5303F11203B3F90020AE4B74
:10511000A3F8662007F58A5303F11403B3F90020BE
:10512000A94BA3F868201DE007F11003013B1B7891
:1051300019460E20FEF77CFD02F02BBB07F58D53C0
:1051400003F11003B3F90030B3F1FF3F0AD007F1C8
:105150001003013B1B7819460720FEF769FD00BFCD
:1051600002F017BB07F11003013B1B7819464120E1
:10517000FEF7B4FD944BB3F9642007F11003013B33
:105180001B7819461046FEF787FE8F4BB3F9662051
:1051900007F11003013B1B7819461046FEF77CFE11
:1051A000894BB3F9682007F11003013B1B781946BE
:1051B0001046FEF771FE07F11003013B1B781846FD
:1051C000FEF754FD02F0E5BA07F11003083B1B6837
:1051D000023307F58A5202F10E027C4918460EF09E
:1051E000A3FE034607F58D5202F11002138007F566
:1051F0008D5303F11003B3F90030012B30D107F5C3
:105200008A5303F10E03B3F90030012B10D007F5D8
:105210008A5303F10E03B3F90030B3F1FF3F07D017
:1052200007F58A5303F10E03B3F90030002B0DD1BB
:1052300007F58A5303F10E03B3F9003007EE903AF5
:10524000F8EEE77A604BC3ED037A1DE007F1100337
:10525000013B1B7819460A20FEF7EAFC02F099BAD6
:1052600007F58D5303F11003B3F90030B3F1FF3F9D
:105270000AD007F11003013B1B7819460720FEF7FF
:10528000D7FC00BF02F085BA07F11003013B1B7881
:1052900019467220FEF722FD4B4BD3ED037AFDEE4B
:1052A000E77AC7ED017ABB881AB207F11003013B18
:1052B0001B7819461046FEF7EFFD07F11003013B7E
:1052C0001B781846FEF7D2FC02F063BA07F1100310
:1052D000083B1B68023307F58A5202F108023C4979
:1052E00018460EF021FE034607F58D5202F110021A
:1052F000138007F58D5303F11003B3F90030012B30
:1053000030D107F58A5303F108031B68B3F5FA7F20
:105310001EDD07F58A5303F108031B682D4A9342EB
:1053200016DC07F11003013B1B7819466520FEF7D8
:10533000D5FC07F58A5303F108031B68224A53631F
:1053400007F11003013B1B781846FEF78FFC1DE0A8
:1053500007F11003013B1B7819460E20FEF768FC8D
:1053600002F017BA07F58D5303F11003B3F90030BB
:10537000B3F1FF3F0AD007F11003013B1B78194638
:105380000720FEF755FC00BF02F003BA07F1100337
:10539000013B1B7819466520FEF7A0FC0A4B5A6BAF
:1053A00007F11003013B1B7819461046FEF7E8FD94
:1053B00007F11003013B1B781846FEF757FC02F07B
:1053C000E8B900BFB47F01089C070020C07F010836
:1053D000C47F0108A086010007F11003083B1B6889
:1053E000023307F58A5202F10602DD4918460EF033
:1053F0009BFD034607F58D5202F11002138007F55D
:105400008D5303F11003B3F90030012B27D107F5B9
:105410008A5303F10603B3F90030002B06D1D14BB8
:10542000002283F82C20FEF793FB2CE007F58A532B
:1054300003F10603B3F90030012B06D1C94B012259
:1054400083F82C20FEF760FB1DE007F11003013B01
:105450001B7819460E20FEF7EBFB02F09AB907F510
:105460008D5303F11003B3F90030B3F1FF3F0AD0BD
:1054700007F11003013B1B7819460720FEF7D8FB04
:1054800000BF02F086B907F11003013B1B781946F3
:105490004920FEF723FCB34B93F82C301AB207F1E6
:1054A0001003013B1B7819461046FEF7F5FCAD4B87
:1054B00093F82C30002B08D107F11003013B1B7827
:1054C0001946A948FEF728FC07E007F11003013B45
:1054D0001B781946A548FEF71FFC07F11003013B96
:1054E0001B781846FEF7C2FB02F053B907F1100310
:1054F000013B1B78184602F0B9FB02F04AB907F1EC
:105500001003083B1B68023307F58A5202F10402BC
:10551000934918460EF008FD034607F58D5202F137
:105520001002138007F58D5303F11003B3F9003017
:10553000012B2BD107F58A5303F10403B3F9003093
:10554000022B0FD007F58A5303F10403B3F900309F
:10555000032B07D007F58A5303F10403B3F9003096
:10556000012B09D107F58A5303F10403B3F9003085
:10557000DAB27C4B1A771DE007F11003013B1B7870
:1055800019460B20FEF754FB02F003B907F58D53C3
:1055900003F11003B3F90030B3F1FF3F0AD007F174
:1055A0001003013B1B7819460720FEF741FB00BFA3
:1055B00002F0EFB807F11003013B1B7819466D208C
:1055C000FEF78CFB674B1B7F1AB207F11003013B00
:1055D0001B7819461046FEF75FFC07F11003013BEC
:1055E0001B7819466248FEF797FB5E4B1B7F1846F7
:1055F00002F08CFE024607F11003013B1B781946AE
:105600001046FEF789FB07F11003013B1B78184693
:10561000FEF72CFB02F0BDB807F11003013B1B782D
:1056200019465320FEF75AFB07F11003013B1B7884
:105630001846FEF71BFB07F11003013B1B781846C9
:1056400002F036FC02F0A5B807F11003083B1B6816
:10565000023307F58A5202F10302464918460EF05A
:1056600063FC034607F58D5202F11002138007F523
:105670008D5303F11003B3F90030012B40F08F82FA
:1056800007F58A5303F103031B78423B312B00F2E9
:105690007C8201A252F823F0CB5700088B5B0008F4
:1056A0008B5B00088B5B00088B5B00088B5B000842
:1056B0008B5B00088B5B00088B5B00088B5B000832
:1056C0008B5B00088B5B00088B5B00088B5B000822
:1056D0008B5B00088B5B00088B5B00088B5B000812
:1056E0008B5B00088B5B0008195B00088B5B000874
:1056F0008B5B00088B5B00088B5B00088B5B0008F2
:105700008B5B00088B5B00088B5B00088B5B0008E1
:105710008B5B00088B5B0008795700088B5B0008E7
:105720007B580008CD5800088B5B00088B5B000895
:105730008B5B00088B5B00088B5B00088B5B0008B1
:105740008B5B00088B5B00088B5B00088B5B0008A1
:105750008F5900088B5B00088B5B0008CD5900084F
:10576000C07F01089C070020C87F0108E87F01086E
:105770000480010808800108894B93F86D30002BE4
:1057800014BF01230023DBB283F00103DBB203F07B
:105790000103DAB2824B83F86D2007F11003013B5D
:1057A0001B7819467F4803F015FF7D4B93F86D3049
:1057B000184603F031F9024607F11003013B1B784C
:1057C0001946104603F0B6FFF1E107F11003013B63
:1057D0001B781946744803F0FDFE744BDB6B03F035
:1057E0000103724AD363002B08D007F11003013B79
:1057F0001B7819466E4803F09DFF3AE06B4BDB6B5C
:1058000003F00203694AD363002B08D007F11003A9
:10581000013B1B781946674803F08CFF29E0634B76
:10582000DB6B03F00403614AD363002B08D007F15C
:105830001003013B1B7819465F4803F07BFF18E01B
:105840005A4BDB6B03F00803584AD363002B08D094
:1058500007F11003013B1B781946584803F06AFF13
:1058600007E007F11003013B1B781946544803F089
:1058700061FF4E4B0022DA6399E1494B93F86E3099
:10588000002B14BF01230023DBB283F00103DBB242
:1058900003F00103DAB2424B83F86E2007F11003E4
:1058A000013B1B781946474803F094FE3C4B93F8A4
:1058B0006E30184603F0B0F8024607F11003013BC2
:1058C0001B781946104603F035FF70E107F5887321
:1058D000103B002280211846FDF74AFA07F58D5348
:1058E00003F10803186007F58D5303F108031B68E3
:1058F000002B15D007F11003013B1B7819463248E5
:1059000003F068FE07F58D5303F108031A6807F1E9
:105910001003013B1B781946104603F01FFF46E1B8
:1059200007F58873103B07F58D5202F104021360EE
:10593000002307F58E5202F10C0213601EE007F5FA
:105940008D5303F104031A6807F58E5303F10C031A
:105950001B6813441A7807F11003013B1B781946A2
:105960001046FEF7D3FA07F58E5303F10C031B68BC
:10597000013307F58E5202F10C02136007F58E53C6
:1059800003F10C031B687F2BD9D900BF0FE107F18E
:105990001003013B1B78184603F096FD07E100BF9A
:1059A0001C0800200C80010820800108FC02002057
:1059B00050800108608001086C800108788001082F
:1059C0008880010894800108A880010807F110036D
:1059D000013B1B7819469D4803F0FCFD9C4BD3F816
:1059E000A0301AB207F11003013B1B78194610468C
:1059F00003F0B8FD07F11003013B1B7819469548E9
:105A000003F0E8FD924BD3F8A4301AB207F110036B
:105A1000013B1B781946104603F0A4FD07F1100363
:105A2000013B1B7819468C4803F0D4FD884BD3F812
:105A3000A8301AB207F11003013B1B781946104633
:105A400003F090FD07F11003013B1B7819468348D2
:105A500003F0C0FD7E4BD3F8AC301AB207F110034F
:105A6000013B1B781946104603F07CFD07F110033B
:105A7000013B1B7819467A4803F0ACFD744BD3F810
:105A8000B0301AB207F11003013B1B7819461046DB
:105A900003F068FD07F11003013B1B7819467148BC
:105AA00003F098FD6A4BD3F8B4301AB207F1100333
:105AB000013B1B781946104603F054FD07F1100313
:105AC000013B1B781946684803F084FD604BD3F80E
:105AD000B8301AB207F11003013B1B781946104683
