:020000040800F2
:100000000000022059520008815900089159000847
:1000100099590008A1590008A959000800000000DA
:10002000000000000000000000000000B1590008BE
:10003000C159000800000000D1590008E15900082A
:10004000B3520008B5520008B7520008B952000870
:10005000BB520008BD520008BF520008C152000840
:10006000C3520008C5520008C7520008C952000810
:10007000F1590008CD520008055A0008D152000875
:10008000195A00082D5A0008D7520008D952000802
:10009000DB520008DD520008DF520008E152000880
:1000A000E3520008E5520008E7520008A55A00088C
:1000B000EB520008ED520008EF520008F152000820
:1000C000F3520008F5520008F7520008F9520008F0
:1000D000FB520008415A0008555A0008695A0008A6
:1000E000035300080553000807530008095300088C
:1000F0000B5300080D5300080F530008115300085C
:10010000135300081553000817530008195300082B
:100110001B5300081D5300081F53000821530008FB
:1001200023530008255300087D5A0008295300086E
:100130002B5300082D5300082F530008315300089B
:10014000335300083553000837530008915A00080C
:100150003B5300083D5300083F530008415300083B
:10016000435300084553000847530008495300080B
:100170004B5300084D5300084F53000851530008DB
:10018000535300085553000810B5054C237833B974
:10019000044B13B10448AFF300800123237010BD5A
:1001A000400200200000000054330108084B10B545
:1001B0001BB108490848AFF300800848036803B939
:1001C00010BD074B002BFBD0BDE81040184700BF07
:1001D00000000000440200205433010840020020C7
:1001E00000000000154B002B08BF134B9D46A3F5E4
:1001F000803A00218B460F461348144A121A0DF01C
:100200009CFA0F4B002B00D098470E4B002B00D0D0
:1002100098470020002104000D000D48002802D05E
:100220000C48AFF300800DF047FA2000290001F0E0
:10023000D7FF0DF02DFA00BF0000080000000220DB
:100240000000000000000000400200206033002099
:10025000000000000000000080B584B000AF7860AE
:100260000B46FB700023FB737B681B7C002B0ED1BD
:100270004FF4007302228121786806F0DFF84FF412
:10028000007302220121786806F0D8F80BE04023C1
:1002900002228121786806F0D1F840230222012150
:1002A000786806F0CBF8082303228221786806F0EC
:1002B000C5F84FF407700DF025FA03461A467B681F
:1002C000C3F818227B68D3F81832002B02D101231F
:1002D000FB7326E07B68D3F81832BB607B68D3F8E9
:1002E0001C321B689847BB680022C3F81422BB6805
:1002F0000022C3F818227B681B7C002B09D1BB6845
:10030000D3F804224FF400730121786806F012FA42
:1003100007E0BB68D3F8042240230121786806F087
:1003200009FAFB7B18461037BD4680BD80B584B006
:1003300000AF78600B46FB700023FB738121786867
:1003400006F0BAF80121786806F0B6F882217868DC
:1003500006F0B2F87B68D3F81832002B0ED07B6819
:10036000D3F81C325B6898477B68D3F8183218467C
:100370000DF0D0F97B680022C3F81822FB7B1846E9
:100380001037BD4680BD00BF80B584B000AF786037
:1003900039607B68D3F81832FB603B681B7803F048
:1003A0006003002B3AD0202B00D043E03B68DB8871
:1003B000002B29D03B681B785BB2002B11DA7B68DD
:1003C000D3F81C329B683A685078F9683A68D2884A
:1003D0009847F9683B68DB881A46786801F068F846
:1003E00029E03B685A78FB6883F800223B68DB8889
:1003F000DAB2FB6883F80122F9683B68DB881A46A9
:10040000786801F083F816E07B68D3F81C329B68AB
:100410003A6850780022396898470CE03B685B786E
:100420000A2B01D00B2B05E001220549786801F069
:100430003FF800BF00BF002318461037BD4680BDFF
:100440005C02002080B485B000AF78600B46FB7082
:100450007B68D3F81832FB607B68D3F81832002B26
:1004600005D0FB680022C3F81422002300E0022319
:1004700018461437BD465DF8047B704780B584B0DC
:1004800000AF78600B46FB707B68D3F81832FB60D6
:10049000FB781946786806F087F90246FB68C3F8CE
:1004A0000C227B68D3F81832002B0DD07B68D3F870
:1004B0001C32DB68FA68D2F80402FA6802F50372AB
:1004C00011469847002300E0022318461037BD4626
:1004D00080BD00BF80B584B000AF78607B68D3F882
:1004E0001832FB607B68D3F81C32002B15D0FB68F8
:1004F00093F80032FF2B10D07B68D3F81C329B6836
:10050000FA6892F80002F968FA6892F8012292B249
:100510009847FB68FF2283F8002200231846103713
:10052000BD4680BD80B483B000AF78607B68432255
:100530001A80034B18460C37BD465DF8047B7047A4
:100540008800002080B483B000AF78607B684322CD
:100550001A80034B18460C37BD465DF8047B704784
:100560004400002080B483B000AF78607B684322F1
:100570001A80034B18460C37BD465DF8047B704764
:10058000CC00002080B483B000AF78607B680A2282
:100590001A80034B18460C37BD465DF8047B704744
:1005A0000000002080B485B000AF7860396002237D
:1005B000FB733B68002B05D07B683A68C3F81C22AC
:1005C0000023FB73FB7B18461437BD465DF8047BA4
:1005D000704700BF80B487B000AFF860B9601346C1
:1005E000FB80FB68D3F818327B617B69BA68C3F87B
:1005F0000822FA887B69C3F81022002318461C37AA
:10060000BD465DF8047B704780B485B000AF78606C
:1006100039607B68D3F81832FB60FB683A68C3F82E
:100620000422002318461437BD465DF8047B70474A
:1006300080B584B000AF78607B68D3F81832FB6077
:100640007B68D3F81832002B17D0FB68D3F814322C
:10065000002B10D1FB680122C3F81422FB68D3F8E9
:100660000822FB68D3F810329BB28121786806F02B
:1006700027F8002302E0012300E002231846103788
:10068000BD4680BD80B584B000AF78607B68D3F88C
:100690001832FB607B68D3F81832002B17D07B68C8
:1006A0001B7C002B09D1FB68D3F804224FF40073A4
:1006B0000121786806F03EF807E0FB68D3F80422D1
:1006C00040230121786806F035F8002300E002237A
:1006D00018461037BD4680BD80B584B000AFF860C5
:1006E000B9601346FB71FB68002B01D102231AE0AD
:1006F000FB68D3F81432002B03D0FB680022C3F848
:100700001422BB68002B03D0FB68BA68C3F8102220
:10071000FB68012283F8FC21FB68FA791A70F868FB
:1007200005F006FE002318461037BD4680BD00BF09
:1007300080B485B000AF786039600023FB733B68FC
:10074000002B06D07B683A68C3F814220023FB73A1
:1007500001E00223FB73FB7B18461437BD465DF8AE
:10076000047B704780B582B000AF7860786805F090
:1007700033FE002318460837BD4680BD80B483B0E1
:1007800000AF7860002318460C37BD465DF8047B47
:10079000704700BF80B584B000AF78600B46FB7037
:1007A0000223FB737B68D3F81432002B0CD07B68D8
:1007B000D3F814321B68FA781146786898470346D4
:1007C000002B01D10023FB73FB7B18461037BD467D
:1007D00080BD00BF80B582B000AF78600B46FB7073
:1007E0007B68D3F814325B68FA78114678689847CA
:1007F000002318460837BD4680BD00BF80B582B0D3
:1008000000AF786039607B6803F502733968184679
:1008100000F0A2FD7B680122C3F8F4217B68B3F8E5
:100820000E321A467B68C3F8F8217B6893F80832C9
:1008300003F01F03012B0BD0022B11D0002B17D17B
:100840007B6803F502731946786800F0CFF91AE067
:100850007B6803F502731946786800F017FA12E016
:100860007B6803F502731946786800F043FA0AE0E2
:100870007B6893F8083223F07F03DBB2194678686F
:1008800005F050FE00BF002318460837BD4680BD66
:1008900080B586B000AFF8600B467A60FB72FB7AD9
:1008A000002B38D1FB6803F582737B61FB68D3F8BA
:1008B000F431032B42D17B699A687B69DB689A42E9
:1008C00014D97B699A687B69DB68D21A7B699A6064
:1008D0007B69DA687B699B68934228BF13469BB2A9
:1008E0001A467968F86800F02FFE27E0FB68D3F815
:1008F00014321B69002B0AD0FB6893F8FC31032BE0
:1009000005D1FB68D3F814321B69F8689847F8687A
:1009100000F02CFE12E0FB68D3F814329B69002B28
:100920000CD0FB6893F8FC31032B07D1FB68D3F89C
:1009300014329B69FA7A1146F868984700231846E2
:100940001837BD4680BD00BF80B586B000AFF860E7
:100950000B467A60FB72FB7A002B6CD1FB68143378
:100960007B61FB68D3F8F431022B57D17B699A681D
:100970007B69DB689A4215D97B699A687B69DB6879
:10098000D21A7B699A607B699B689BB21A46796828
:10099000F86800F0A9FD002300220021F86805F0A6
:1009A000C9FE3BE07B695B687A69D268B3FBF2F110
:1009B00002FB01F29B1A002B1CD17B695A687B69F0
:1009C000DB689A4216D37B695A68FB68D3F8F83122
:1009D0009A420FD200220021F86800F085FDFB68E2
:1009E0000022C3F8F821002300220021F86805F056
:1009F000A1FE13E0FB68D3F81432DB68002B0AD0A9
:100A0000FB6893F8FC31032B05D1FB68D3F8143253
:100A1000DB68F8689847F86800F0BCFDFB6893F85D
:100A20000032012B1AD1F868FFF7A8FEFB680022FC
:100A300083F8002212E0FB68D3F814325B69002BC4
:100A40000CD0FB6893F8FC31032B07D1FB68D3F87B
:100A500014325B69FA7A1146F86898470023184601
:100A60001837BD4680BD00BF80B582B000AF78604A
:100A7000402300220021786805F0E0FC7B684022DA
:100A8000C3F81021402300228021786805F0D6FCAD
:100A90007B6840221A627B68012283F8FC217B6814
:100AA000D3F81832002B09D07B68D3F814325B6876
:100AB0007A685268D2B2114678689847002318467F
:100AC0000837BD4680BD00BF80B483B000AF7860FA
:100AD0000B46FB707B68FA781A74002318460C37B3
:100AE000BD465DF8047B704780B483B000AF78608A
:100AF0007B6893F8FC217B6883F8FD217B680422E6
:100B000083F8FC21002318460C37BD465DF8047BB2
:100B1000704700BF80B483B000AF78607B6893F803
:100B2000FD217B6883F8FC21002318460C37BD4665
:100B30005DF8047B704700BF80B582B000AF78607D
:100B40007B6893F8FC31032B0BD17B68D3F814320C
:100B5000DB69002B05D07B68D3F81432DB69786839
:100B60009847002318460837BD4680BD80B483B03F
:100B700000AF78600B46FB70002318460C37BD466B
:100B80005DF8047B704700BF80B483B000AF78602D
:100B90000B46FB70002318460C37BD465DF8047BFE
:100BA000704700BF80B483B000AF78600023184660
:100BB0000C37BD465DF8047B704700BF80B582B03E
:100BC00000AF78607B68012283F8FC217B68D3F852
:100BD00014325B687A685268D2B2114678689847D6
:100BE000002318460837BD4680BD00BF80B584B0DD
:100BF00000AF786039600023FB733B685B78092B9A
:100C000039D801A252F823F0590C00086D0C0008E5
:100C1000770C0008630C0008770C00083B0C0008F8
:100C2000310C0008770C00084F0C0008450C000838
:100C30003968786800F036F922E03968786800F0A1
:100C400025FA1DE03968786800F05EFA18E0396826
:100C5000786800F0E1FA13E03968786800F00EFB7C
:100C60000EE03968786800F033FB09E0396878688D
:100C700000F04AFB04E03968786800F0ABFB00BF85
:100C8000FB7B18461037BD4680BD00BF80B584B0E1
:100C900000AF786039600023FB737B6893F8FC3108
:100CA000032B1BD13B689B88DBB2012B11D87B68DF
:100CB000D3F814329B683968786898473B68DB88BA
:100CC000002B10D1FB7B002B0DD1786800F04EFC7F
:100CD00009E03968786800F07DFB04E039687868DD
:100CE00000F078FB00E000BF002318461037BD4637
:100CF00080BD00BF80B584B000AF7860396000234C
:100D0000FB733B689B88BB733B681B7803F06003F5
:100D1000202B08D17B68D3F814329B683968786837
:100D200098470023BAE03B685B78012B39D0032B4E
:100D300002D0002B6BD0B0E07B6893F8FC31022B23
:100D400002D0032B0CD025E0BB7B002B27D0BB7B34
:100D5000802B24D0BB7B1946786805F0E3FB1EE0AE
:100D60003B685B88002B0AD1BB7B002B07D0BB7B89
:100D7000802B04D0BB7B1946786805F0D3FB7B68D9
:100D8000D3F814329B68396878689847786800F01F
:100D9000EDFB05E03968786800F01CFB00E000BF5F
:100DA0007BE07B6893F8FC31022B02D0032B0CD044
:100DB00024E0BB7B002B26D0BB7B802B23D0BB7BCE
:100DC0001946786805F0AEFB1DE03B685B88002B98
:100DD0001BD1BB7B03F07F03002B0BD0BB7B1946E1
:100DE000786805F0D5FB7B68D3F814329B683968C6
:100DF00078689847786800F0B9FB06E03968786849
:100E000000F0E8FA02E000BF47E000BF45E07B6881
:100E100093F8FC31022B02D0032B0BD036E0BB7BC6
:100E200003F07F03002B36D0BB7B1946786805F0B2
:100E300079FB30E097F90E30002B08DABB7B03F02A
:100E40007F0301331B017A681344043307E0BB7B43
:100E500003F07F0310331B017A6813440433BB6033
:100E6000BB7B1946786805F0C9FB0346002B03D00D
:100E7000BB6801221A6002E0BB6800221A60BB68EE
:100E800002221946786800F013FB05E0396878689B
:100E900000F0A0FA00E000BF00BFFB7B184610374F
:100EA000BD4680BD80B584B000AF786039603B68D6
:100EB0005B881B0A9BB2013B062B00F2C98001A292
:100EC00052F823F0E10E0008F90E0008390F00086F
:100ED0005110000851100008FD0F000823100008F1
:100EE0007B68D3F810321B687A68127C07F10A011C
:100EF00010469847F860B0E07B681B7C002B0DD152
:100F00007B68D3F814329B6A07F10A0210469847AF
:100F1000F860FB68013302221A709EE07B68D3F808
:100F20001432DB6A07F10A0210469847F860FB6842
:100F3000013302221A7090E03B685B88DBB2052B1C
:100F400056D801A252F823F0610F0008790F00086B
:100F5000910F0008A90F0008C10F0008D90F000861
:100F60007B68D3F810325B687A68127C07F10A015B
:100F700010469847F86040E07B68D3F810329B68D1
:100F80007A68127C07F10A0110469847F86034E04D
:100F90007B68D3F81032DB687A68127C07F10A01AB
:100FA00010469847F86028E07B68D3F810321B6938
:100FB0007A68127C07F10A0110469847F8601CE035
:100FC0007B68D3F810325B697A68127C07F10A01FA
:100FD00010469847F86010E07B68D3F810329B69A0
:100FE0007A68127C07F10A0110469847F86004E01D
:100FF0003968786800F0EEF944E02EE07B681B7CED
:10100000002B09D17B68D3F814325B6B07F10A021D
:1010100010469847F86020E03968786800F0DAF9FF
:1010200030E07B681B7C002B0DD17B68D3F8143239
:101030001B6B07F10A0210469847F860FB68013302
:1010400007221A7009E03968786800F0C3F919E0DE
:101050003968786800F0BEF914E07B89002B11D064
:101060003B68DB88002B0DD03B68DA887B89934294
:1010700028BF13469BB27B817B891A46F968786842
:1010800000F016FA1037BD4680BD00BF80B584B0B1
:1010900000AF786039603B689B88002B2CD13B689F
:1010A000DB88002B28D13B685B88DBB203F07F0331
:1010B000FB737B6893F8FC31032B04D139687868A3
:1010C00000F088F91CE07B68FA7B83F8FE21FB7B4B
:1010D0001946786805F0BEFA786800F047FAFB7B9D
:1010E000002B04D07B68022283F8FC2108E07B6897
:1010F000012283F8FC2103E03968786800F06AF97E
:1011000000BF1037BD4680BD80B582B000AF7860AB
:1011100039603B685B88DAB23E4B1A703D4B1B78F6
:10112000012B04D93968786800F054F96FE07B68C6
:1011300093F8FC31022B02D0032B23D062E0354B15
:101140001B78002B1AD0334B1B781A467B685A60E9
:101150007B68032283F8FC212E4B1B7819467868A4
:10116000FFF718FB0346022B04D13968786800F0BA
:1011700031F94CE0786800F0F9F948E0786800F05F
:10118000F5F944E0234B1B78002B12D17B68022237
:1011900083F8FC211F4B1B781A467B685A601D4B55
:1011A0001B7819467868FFF715FB786800F0DEF9C0
:1011B0002DE0184B1B781A467B685B689A421DD05D
:1011C0007B685B68DBB219467868FFF703FB114B5D
:1011D0001B781A467B685A600E4B1B781946786854
:1011E000FFF7D8FA0346022B04D13968786800F07B
:1011F000F1F80CE0786800F0B9F908E0786800F0E0
:10120000B5F904E03968786800F0E4F800BF083701
:10121000BD4680BD5D02002080B582B000AF786021
:1012200039603B68DB88012B04D03968786800F0AE
:10123000D1F81FE07B6893F8FC31022B02D0032B1E
:101240000BD012E07B6800229A607B680833012291
:101250001946786800F02CF90CE07B680433012211
:101260001946786800F024F904E03968786800F0DD
:10127000B1F800BF00BF0837BD4680BD80B582B061
:1012800000AF786039607B6893F8FC31023B012B3A
:1012900015D87B680122DA607B68D3F80432002B12
:1012A00005D07B68DB6843F002027B68DA607B680C
:1012B0000C3302221946786800F0FAF804E0396825
:1012C000786800F087F800BF00BF0837BD4680BDD2
:1012D00080B582B000AF786039603B685B88012BD5
:1012E0000DD17B680122C3F804227B68D3F8143245
:1012F0009B68396878689847786800F037F900BFCC
:101300000837BD4680BD00BF80B582B000AF7860B1
:1013100039607B6893F8FC31023B012B12D83B68A3
:101320005B88012B13D17B680022C3F804227B6801
:10133000D3F814329B68396878689847786800F069
:1013400015F904E03968786800F044F800E000BF5F
:1013500000BF0837BD4680BD80B483B000AF786061
:1013600039603B681A787B681A703B685A787B68EA
:101370005A703B6802331B789AB23B6803331B7880
:101380009BB21B029BB213449AB27B685A803B68A3
:1013900004331B789AB23B6805331B789BB21B025F
:1013A0009BB213449AB27B689A803B6806331B78E1
:1013B0009AB23B6807331B789BB21B029BB2134463
:1013C0009AB27B68DA8000BF0C37BD465DF8047BBB
:1013D000704700BF80B582B000AF7860396080216F
:1013E000786805F09FF80021786805F09BF800BF49
:1013F0000837BD4680BD00BF80B586B000AFF8603D
:10140000B9607A600023FB75FB68002B33D0F86865
:1014100000F036F8034601339BB25B009AB27B685A
:101420001A80FB7D5A1CFA751A46BB6813447A6809
:101430001288D2B21A70FB7D5A1CFA751A46BB6824
:10144000134403221A7012E0FB7D5A1CFA751A46E7
:10145000BB681A44FB68591CF9601B781370FB7D4C
:101460005A1CFA751A46BB68134400221A70FB68AE
:101470001B78002BE8D100BF1837BD4680BD00BFE8
:1014800080B485B000AF78600023FB7305E0FB7B80
:101490000133FB737B6801337B607B681B78002B17
:1014A000F5D1FB7B18461437BD465DF8047B7047C9
:1014B00080B584B000AFF860B9601346FB80FB686C
:1014C0000222C3F8F421FA88FB689A61FA88FB6863
:1014D000DA61FB88BA680021F86805F0F1F80023AA
:1014E00018461037BD4680BD80B584B000AFF860A7
:1014F000B9601346FB80FB88BA680021F86805F0E4
:10150000DFF8002318461037BD4680BD80B584B093
:1015100000AFF860B9601346FB80FB680322C3F894
:10152000F421FA88FB68C3F80821FA88FB68C3F83D
:101530000C21FB88BA680021F86805F0FBF800234D
:1015400018461037BD4680BD80B584B000AFF86046
:10155000B9601346FB80FB88BA680021F86805F083
:10156000E9F8002318461037BD4680BD80B582B02B
:1015700000AF78607B680422C3F8F42100230022C6
:101580000021786805F09CF8002318460837BD460E
:1015900080BD00BF80B582B000AF78607B68052257
:1015A000C3F8F421002300220021786805F0C2F876
:1015B000002318460837BD4680BD00BF80B400AF89
:1015C000044B1B680133034A136000BFBD465DF83E
:1015D000047B70476002002080B400AF094B1A689A
:1015E000094BA3FB02131B09322101FB03F3D31A9E
:1015F000002B0CBF01230023DBB21846BD465DF86B
:10160000047B7047600200201F85EB5180B400AF5F
:101610000A4B19680A4BA3FB0123DA0813469B0007
:1016200013445B00CA1A002A0CBF01230023DBB25B
:101630001846BD465DF8047B704700BF600200207D
:10164000CDCCCCCC000000002DE9F84300AF324BEC
:10165000D3E90489304BD3E906012DA3D3E9002354
:101660000BF054FD03460C461A46234640464946B5
:101670000BF09AFB03460C469846A146264BD3E94D
:10168000080123A3D3E900230BF06AFE03460C46AE
:101690001A462346404649460BF086FB03460C4655
:1016A0001E4AC2E900341C4BD3E904341D4684F0C1
:1016B0000046194BD3E9080102460B460BF074FBB8
:1016C00003460C461846214611A3D3E900230BF02C
:1016D00047FE03460C461A462346284631460BF081
:1016E00061FB03460C460E4AC2E900340A4BD3E9BB
:1016F000080107A3D3E900230BF032FE03460C4692
:10170000084AC2E9003400BFBDE8F883AFF30080A7
:101710007B14AE47E17A943F88090020F80200204C
:1017200000030020F002002090B583B000AF87EDE9
:10173000000B054AD7E90034C2E90434FFF784FFFF
:1017400000BF0C37BD4690BD8809002090B583B01E
:1017500000AF87ED000B054AD7E90034C2E9063433
:10176000FFF772FF00BF0C37BD4690BD880900200F
:1017700090B583B000AF87ED000B054AD7E9003480
:10178000C2E90834FFF760FF00BF0C37BD4690BDCB
:101790008809002098B500AF044BD3E900341846FF
:1017A00021460BF04DFF0346184698BD6802002005
:1017B00080B400AF034BB3F900301846BD465DF866
:1017C000047B70476402002080B400AF034B5B6A67
:1017D0001846BD465DF8047B704700BF000C004012
:1017E00080B500AFFFF730FF044B022283F8512091
:1017F000024B002283F8522000BF80BDF009002078
:10180000B0B582B000AF87ED000B4FF000024FF093
:101810000003D7E900010BF0EBFE0346002B04D0D8
:101820003C687B6883F0004501E0D7E9004545EC62
:10183000174BB0EE470AF0EE670A0837BD46B0BD59
:1018400080B500AF044B93F83730184602F08AFF9A
:1018500003469BB2184680BD8809002080B500AFC2
:10186000044B93F83830184602F07CFF03469BB2D5
:10187000184680BD8809002080B582B000AF484B73
:1018800093F83630184602F06DFF03469AB2444B87
:10189000B3F92A309BB2D31A9BB2FB80B7F906206A
:1018A0003F4BB3F92A305B429A4201D1002373E0E7
:1018B0003C4B93F85130022B04D03A4B93F8513003
:1018C000032B47D1364BB3F92C30B7F906209A4297
:1018D00007DCB7F90620324BB3F92C305B429A4251
:1018E00038DA304B93F85130022B31D102212E4897
:1018F00003F058F9B7F906300221184603F01AF937
:1019000002212A4803F04EF9B7F9063002211846A1
:1019100003F010F90221264803F044F9204BB3F9F3
:101920002A300221184603F005F90221214803F06C
:1019300039F91B4BB3F92C300221184603F0FAF8A1
:1019400002211D4803F02EF9164B032283F8512083
:10195000002321E0124BB3F92C30B7F906209A424C
:1019600008DDFA880E4BB3F92C309BB2D31A9BB228
:101970001BB211E0B7F90620094BB3F92C305B42DA
:101980009A4208DA064BB3F92C309AB2FB8813441A
:101990009BB21BB200E0002318460837BD4680BD4D
:1019A00088090020F0090020A41B0108C41B0108BD
:1019B000DC1B0108F81B0108FC1B0108B0B588B04E
:1019C00000AF87ED020B87ED001BFFF755FF0346C5
:1019D0009BB21A46920013445B009BB2FB83AA4B56
:1019E00093F83930012B00F0D080A74BDB8DBB83FF
:1019F000A54B1B8E7B83A54B93F85130002B06D053
:101A0000A14B5B8EBB83A04B9B8E7B8372E09E4B76
:101A100093F83930012B6DD09B4B93F83930022B62
:101A200068D0D7E90023D7E902010BF0BDF90346DE
:101A30000C4618462146944BD3E914341A462346E3
:101A40000BF0EAFD0346002B1DD0B7F91E30002B2A
:101A500019DD0023FB838D4B022283F852200022E4
:101A600010218B4805F0BAFD874BD3E91401D7E963
:101A700002230BF0C7FD0346002B3BD0854B002211
:101A80001A800023FCE0D7E90023D7E902010BF01C
:101A900089F903460C46184621467B4BD3E912349C
:101AA0001A4623460BF0AEFD0346002B1DD0B7F9B6
:101AB0001E30002B19DA0023FB83744B022283F8BB
:101AC000522000221021724805F088FD6E4BD3E9A8
:101AD0001201D7E902230BF09FFD0346002B09D02A
:101AE0006C4B00221A800023CAE0012210216848B2
:101AF00005F074FDFA8B674BB3F900309BB2D31A33
:101B00009BB23B83B7F91820B7F91C309A4208DD25
:101B1000604BB3F900309AB2BB8B13449BB2FB838A
:101B20000EE0B7F91820B7F91C305B429A4207DA89
:101B3000584BB3F900309AB2BB8BD31A9BB2FB83DC
:101B4000B7F91E10B7F91A2013469B0013445B0027
:101B5000994207DD7B8B1A46920013445B009BB2CF
:101B6000FB8312E0B7F91E20B7F91A306FF00901B4
:101B700001FB03F39A4208DA7B8B1A465203D21A0E
:101B80009200D31A5B009BB2FB83424AFB8B13800B
:101B9000FFF756FE0346B3F5966F0DD93B4B93F80E
:101BA0005130002B03D001213B4803F04FF8374B55
:101BB000002283F851200FE0344B93F85130012B71
:101BC00006D0364B00221A700121354803F03EF84A
:101BD0002E4B012283F85120FFF740FE0346FB8283
:101BE000FB8AB3F5966F46D9284B93F85130012BF9
:101BF00041D12C4B1B88B3F5966F3CD8294B1B88E1
:101C0000002B38D0284B5B6A3B61244B1B78002BA0
:101C10000BD138690BF014FA03460C461A4AC2E994
:101C200012341E4B01221A7025E0174BD3E91245DE
:101C300038690BF005FA02460B46204629460BF0A0
:101C4000D7FC0346002B08D038690BF0F9F903469E
:101C50000C460D4AC2E914340DE00B4BD3E91234A3
:101C6000094AC2E9143438690BF0EAF903460C4614
:101C7000054AC2E912340B4AFB8A1380B7F91E30B9
:101C800018462037BD46B0BD88090020F009002065
:101C90000004024064020020501C0108A002002041
:101CA0006C1C0108A2020020000C004090B400AFA0
:101CB0000C4A4FF000034FF00004C2E900340A4A16
:101CC0004FF000034FF00004C2E90034074A4FF020
:101CD00000034FF00004C2E9003400BFBD4690BCD1
:101CE000704700BF800200207802002070020020B0
:101CF000F0B591B000AF984B002283F85220974B7B
:101D00005B6A3B63964B1A683B6BD31A18460BF021
:101D100097F903460C4644EC103BFFF771FD87ED45
:101D20000A0B386B0BF08CF903460C46C7E90834F4
:101D3000FFF73EFD03461A468A4BB3F92E3092FB5D
:101D4000F3F318460BF07CF903460C4644EC103BC9
:101D5000FFF756FD87ED060B4FF00002824BD7E9E7
:101D600006010BF063FC0346002B14D04FF0000279
:101D70007D4BD7E90A010BF059FC0346002B0AD032
:101D8000D7E90623D7E90A010BF0EAFA03460C4625
:101D9000C7E90E3404E04FF00003734CC7E90E347A
:101DA000D7E90A23D7E90A010BF0B0F903460C463C
:101DB000184621464FF000024FF080430BF0D0FA56
:101DC00003460C4618462146D7E90E230BF0C8FA05
:101DD00003460C46C7E90434624B93F83930002BB4
:101DE0000DD1624B93ED007B97ED041BB0EE470ADB
:101DF000F0EE670AFFF7E2FD0346FB8607E097ED8A
:101E0000041B97ED080BFFF7D9FD0346FB86FB8EFD
:101E1000BB86544B93F83930012B00F00B81514BAA
:101E200093F83930022B00F005814E4B93F839308E
:101E3000002B40F0FA80B7F9363018460BF000F965
:101E4000484BD3E916341A4623460BF05FF9034694
:101E50000C4618462146464BD3E900341A46234621
:101E60000AF0A2FF03460C46414AC2E900343A4B4D
:101E700093F85130002B26D13A4BD3E914013C4B57
:101E8000D3E900341A4623460BF0B2FB0346002B7D
:101E900006D0344BD3E91434354AC2E9003412E099
:101EA000304BD3E91201324BD3E900341A462346B2
:101EB0000BF0BCFB0346002B05D02A4BD3E91234B0
:101EC0002B4AC2E900342A4BD3E90001274BD3E95E
:101ED00000341A4623460AF065FF03460C46254A9D
:101EE000C2E90034224BD3E90034204AC2E900346D
:101EF0004FF000034FF00004C7E902341C4BD3E954
:101F00000001D7E908230AF04DFF03460C46C7E954
:101F10000034144BD3E910341D4684F00046D7E951
:101F20000023284631460BF06DFB0346002B23D0DF
:101F30000C4BD3E91001D7E900230BF06DFB0346EE
:101F4000002B19D0FFF7B2FE0023BB86024B012203
:101F500083F852206EE000BFF0090020000C004022
:101F600088020020880900200000F03F980200202D
:101F700090020020680200204E4BD3E90001D7E90F
:101F800000230BF0C3F803460C46184621464A4B83
:101F9000D3E900341A4623460AF006FF03460C46EE
:101FA0001D462646454BD3E90001454BD3E9003495
:101FB0001A4623460BF0AAF803460C461A46234657
:101FC000284631460AF0F0FE03460C461D462646DA
:101FD0003C4BD3E900013C4BD3E900341A4623467D
:101FE0000BF094F803460C461A4623462846314621
:101FF0000AF0DAFE03460C46C7E90234D7E90201CB
:102000000BF01EFB0346BB862D4BD3E900342E4A52
:10201000C2E900342A4AD7E90034C2E90034264A2A
:10202000D7E90234C2E9003404E0284AD7E90A3487
:10203000C2E90034B7F93430002B14DD2448254BB5
:10204000B3F962301A46234BB3F964301A44B7F936
:102050003430214981FB03418910DB17CB1A1BB2B5
:102060001344C3631DE0B7F93430002B14DA184869
:10207000184BB3F962301A46164BB3F96430D21AD2
:10208000B7F93430144981FB03418910DB17CB1AAF
:102090001BB21344C36304E00D4B0E4AB2F9622035
:1020A000DA630E4A3B6B1360FFF796FA00BF4437C2
:1020B000BD46F0BDF80200207002002000030020A1
:1020C00078020020F0020020800200206802002038
:1020D00000040040880900206766666688020020C8
:1020E00080B400AF0E4B93F85130032B12D801A2ED
:1020F00052F823F0112100080D21000805210008E5
:1021000009210008074B06E0074B04E0074B02E0FB
:10211000074B00E0074B1846BD465DF8047B70474F
:10212000F0090020901C01089C1C0108B41C010847
:10213000D01C0108DC1C010880B500AF02F0BCFF18
:102140000246074B1A60064B1B68064A934204D0AE
:10215000034B01221A60022300E00023184680BDD1
:10216000A40200201520200080B584B000AF786064
:102170000B467B8013463B800E4B1B68092B01D816
:10218000022312E03B881B04FB60F86802F096FD16
:102190007B881A46F968786802F020FE7B881A4628
:1021A000F968786802F0C6FE034618461037BD4647
:1021B00080BD00BFA402002080B584B000AFF860ED
:1021C000B9601346FB80FB881B04BA681946F8689F
:1021D00002F018FF00BF1037BD4680BD00000000B0
:1021E000F0B59BB000AF04F0A3FB00F0B3F900F032
:1021F00007FD00F0B7FC00F03BFA00F063FA00F0D6
:102200009BFA00F0E3FA00F07FFC03F08BFC00F097
:102210004DFC00F043FB00F079FD0421BC4807F0C1
:1022200013FE01221021BB4805F0D8F90821BA4855
:1022300007F0AAFC0346002B03D08A21B74800F020
:1022400051FD0C21B44807F09FFC0346002B03D03E
:102250008F21B24800F046FDFFF76EFF0346002BCA
:1022600003D09521AD4800F03DFDAD4B002283F831
:102270002920AB4A4FF000034FF00004C2E90834B4
:10228000A74A4FF000034FF00004C2E90634A44A05
:102290004FF000034FF00004C2E90434A04A4FF0AD
:1022A0000003A04CC2E910349D4B012283F8392071
:1022B0009B4A91A4D4E90034C2E91434984A90A40A
:1022C000D4E90034C2E91234954B062283F8382051
:1022D000934B052283F83720914B002283F8362058
:1022E0008F4B1422DA858E4B0A225A868C4B4FF480
:1022F000FA721A868A4B64229A86894B4FF4787256
:102300005A85874B1E229A85854B874A07CA03C385
:102310001A70834A7CA4D4E90034C2E91634804B95
:10232000002283F860207E4B40F2DC52A3F862204A
:102330007B4B1E22A3F864203B46002268211846EE
:10234000FFF73AFF3B460B22194675480CF0A0F9FF
:102350000346002B14D1724B18463B46682219469F
:102360000BF0E0F9714A724B15461C460FCC286001
:102370006960AA60EB6007CC28616961AA6143E0EB
:102380003B46042219466B480CF082F90346002BA9
:1023900032D13B46624918460CF06AF9604B184648
:1023A0003B46682219460BF0BDF9604B624A144661
:1023B0009E4604F1300C754626460FCE28606960B3
:1023C000AA60EB6010340EF1100E6445F3D1734631
:1023D00022461188927819809A70514BB3F9623075
:1023E000002B11D14E4B40F2DC52A3F862204C4B33
:1023F0001E22A3F8642007E04C4A504B10461946B1
:1024000044231A460BF08EF9454B93F86030012BAC
:102410000FD100F017FB02F0DFF90346192219462D
:10242000474808F0F3FD01220121464805F0D6F89F
:102430000EE000F081FA00220121424805F0CEF8BA
:102440000821414807F00AFC0C213F4807F006FC30
:10245000FFF7C6F904F0B8FA02463C4B1B68D31AE2
:10246000142B3BD904F0B0FA0246384B1A60FFF740
:10247000A5F803F0E9FDFFF7AFF80346002B08D0FD
:102480002A4B93F85130002B03D12021214805F02D
:10249000BFF8FFF7BBF80346002B08D0234B93F897
:1024A0005130012B03D120211A4805F0B1F81F4B00
:1024B00093F85130022B04D01C4B93F85130032B6E
:1024C00005D100221021134805F088F804E001220C
:1024D0001021104805F082F8FFF70AFC4FF4007154
:1024E0001B4803F073FC0346002BB3D001211848AE
:1024F00000F064FDAEE700BF0000C0FFFFFFDF415A
:102500000000C0FFFFFFDFC1000000A09999B93FA4
:102510006C04002000040240A8040020C41D01082F
:102520008809002000005940D01D0108F009002052
:10253000DC1D0108F81D0108001E0108341E0108F9
:10254000FC050020000802405C0600200804002072
:102550009806002080B598B000AF0023BB60404AC9
:102560003F4B1B6C43F0805313643D4B1B6C03F0DB
:102570008053BB60BB6800237B603A4A394B1B68C1
:1025800043F480431360374B1B6803F480437B6044
:102590007B680B233B634FF480337B630123FB6336
:1025A00010233B6401237B640223BB644FF480034C
:1025B000FB6404233B6548237B650223BB6503233F
:1025C000FB6507F13003184606F0E6F80346002BDA
:1025D00004D04FF49671244800F084FB0F23FB6174
:1025E00000233B6200237B620023BB620023FB626B
:1025F00007F11C030021184606F028FB0346002BB8
:1026000004D04FF49D71184800F06CFB0223FB606E
:102610004FF40073BB6107F10C03184606F0F6FC9B
:102620000346002B04D040F241110F4800F05AFB42
:1026300006F09CFC02460D4BA3FB02239B091846A7
:1026400004F0ECFA042004F0F5FA002200214FF027
:10265000FF3004F0B9FA00BF6037BD4680BD00BF4F
:102660000038024000700040C41D0108D34D6210C4
:1026700080B500AF104B114A1A600F4B00225A6010
:102680000D4B7F229A600C4BFF22DA600A4B00222E
:102690001A61094B00225A61074B00229A610648D1
:1026A00006F0AAFD0346002B04D04FF4AF71044896
:1026B00000F018FB00BF80BD3C0600200028004051
:1026C000C41D010880B500AF184B194A1A60174B9A
:1026D0004FF482725A60154B00229A60134B00220D
:1026E000DA60124B00221A61104B00225A610F4B24
:1026F00000229A610D4B0022DA610C4B00221A6213
:102700000A4B00225A62094B00229A62074B0A22A6
:10271000DA62064806F018FE0346002B04D04FF498
:10272000BA71044800F0DEFA00BF80BD98080020AE
:1027300000300140C41D010880B500AF012208210E
:102740001E4804F04BFF1E4B1E4A1A601C4B4FF4F0
:1027500082725A601A4B00229A60194B0022DA608A
:10276000174B02221A61164B01225A61144B4FF487
:1027700000729A61124B0822DA61114B00221A6230
:102780000F4B00225A620E4B00229A620C4B07221A
:10279000DA620B4806F0D8FD0346002B04D040F265
:1027A0008B11094800F09EFA054B1B68044A126819
:1027B000126842F040021A6000BF80BD000402406F
:1027C000E4040020003C0040C41D010880B58AB02C
:1027D00000AF2F4B2F4A1A602D4B0F225A602C4B03
:1027E00000229A602A4B44F62062DA60284B0022CD
:1027F0001A61274807F09CF90346002B04D04FF4D8
:10280000D071254800F06EFA00233B6200237B6202
:1028100007F1200319461E4808F050FB0346002B21
:1028200004D040F2A7111C4800F05CFA60237B60E2
:1028300040F2DC53BB600023FB6000237B6100237C
:102840003B610023FB610023BB613B1D082219464D
:102850000F4807F0D5FC0346002B04D040F2B3111B
:102860000D4800F03FFA3B1D0C221946084807F0BE
:10287000C7FC0346002B04D04FF4DC71064800F07F
:1028800031FA034802F0AEFE00BF2837BD4680BDD6
:10289000A804002000040040C41D010880B58CB0CD
:1028A00000AF224B224A1A60204B00225A601F4B75
:1028B00000229A601D4B4FF0FF32DA601B4B002262
:1028C0001A610323FB6000233B6101237B6100232A
:1028D000BB610023FB6100233B6201237B62002379
:1028E000BB620023FB6207F10C0319460F4807F097
:1028F00015FA0346002B04D04FF4EA710D4800F09E
:10290000F1F900237B600023BB603B1D194607489B
:1029100008F0D4FA0346002B04D040F2DB1105483E
:1029200000F0E0F900BF3037BD4680BD6C040020E8
:10293000000C0040C41D010880B58CB000AF3E4BB8
:102940003E4A1A603C4B0F225A603B4B00229A6071
:10295000394B4FF6FF72DA60374B00221A61364B63
:1029600000225A61344807F0B7F80346002B04D020
:1029700040F2EF11324800F0B5F92F4807F038F96E
:102980000346002B04D04FF4FA712D4800F0AAF949
:102990000423FB6160233B6202237B620023FB6212
:1029A00007F11C031946244807F0F0FC0346002BEE
:1029B00004D040F2FD11224800F094F900237B611D
:1029C0000023BB6107F1140319461B4808F076FA8F
:1029D0000346002B04D04FF40171194800F082F92E
:1029E00000237B600123BB600023FB6000233B616D
:1029F0003B1D08221946104807F066FB0346002BD2
:102A000004D040F20E210E4800F06CF902237B60E6
:102A10000223BB603B1D0C221946074807F054FBFC
:102A20000346002B04D040F21521054800F05AF966
:102A300000BF3037BD4680BD5C060020000001406D
:102A4000C41D010880B500AF144B154A1A60134B22
:102A5000144A5A60114B4FF480529A600F4B4FF456
:102A60000052DA600D4B4FF480621A610B4B042266
:102A70005A610A4B00229A61084B4FF40042DA6116
:102A8000064808F075FA0346002B04D040F22721CF
:102A9000054800F027F900BF80BD00BFFC050020FD
:102AA00000100140A0860100C41D010880B500AFE0
:102AB000124B134A1A60114B4FF4E1325A600F4B1C
:102AC00000229A600D4B0022DA600C4B00221A6142
:102AD0000A4B0C225A61094B00229A61074B0022D3
:102AE000DA61064808F044FA0346002B04D04FF49C
:102AF0000E71044800F0F6F800BF80BDF008002019
:102B000000440040C41D010880B500AF124B134AB9
:102B10001A60114B4FF4E1325A600F4B00229A6059
:102B20000D4B0022DA600C4B00221A610A4B0C227A
:102B30005A61094B00229A61074B0022DA6106486C
:102B400008F016FA0346002B04D040F2492104484D
:102B500000F0C8F800BF80BDC80300200048004056
:102B6000C41D010880B582B000AF00237B60234AFA
:102B7000224B1B6B43F480031363204B1B6B03F44A
:102B800080037B607B6800233B601C4A1B4B1B6BF4
:102B900043F400131363194B1B6B03F400133B60E6
:102BA0003B68002200210C2004F00EF80C2004F0F9
:102BB00027F8002200210E2004F006F80E2004F071
:102BC0001FF800220021102003F0FEFF102004F067
:102BD00017F800220021112003F0F6FF112004F065
:102BE0000FF8002200213A2003F0EEFF3A2004F013
:102BF00007F800BF0837BD4680BD00BF003802405F
:102C000080B58AB000AF00233B61324A314B1B6B69
:102C100043F0800313632F4B1B6B03F080033B6176
:102C20003B690023FB602B4A2A4B1B6B43F00103DB
:102C30001363284B1B6B03F00103FB60FB6800234D
:102C4000BB60244A234B1B6B43F004031363214BEB
:102C50001B6B03F00403BB60BB6800237B601D4A51
:102C60001C4B1B6B43F0020313631A4B1B6B03F0EB
:102C700002037B607B6800223821174804F0AEFC19
:102C800010237B61154BBB610023FB6107F114032B
:102C90001946134804F008FB01237B610123BB6143
:102CA0000023FB6107F1140319460D4804F0FCFAF8
:102CB00038237B610123BB610023FB6100233B625E
:102CC00007F114031946044804F0EEFA00BF283750
:102CD000BD4680BD003802400004024000001110D3
:102CE0000008024080B483B000AF78603960054BC3
:102CF000054AB2F96220DA63024B034AB2F9622054
:102D00001A64FEE7000400408809002080B400AF88
:102D100000BFBD465DF8047B704700BF80B582B040
:102D200000AF03460A46FB711346BB71BB791946D7
:102D3000074801F037FFFB79064A52F82330BA7989
:102D40001146184601F082FF00BF0837BD4680BD1E
:102D5000842001081001002080B584B000AF034634
:102D6000FB71164B1B7883F02003DAB2134B1A70F9
:102D7000124B1B7883F04F03DAB2104B1A700F4BD3
:102D80001B7883F04B03DAB20C4B1A700B4B1B7899
:102D900007F108000A4A05210BF0E8FBFB79194608
:102DA000084801F0FFFEFA7907F1080311461846BA
:102DB00001F04CFF00BF1037BD4680BDAB020020C4
:102DC000902001089820010880B582B000AF03462A
:102DD0000A46FB711346BB71BB79184601F04AFFE6
:102DE000BB791946074801F0DDFEBA79FB79114637
:102DF000184601F0BBFE044AFB79137000BF083788
:102E0000BD4680BDA0200108AB02002080B584B083
:102E100000AF78600B46FB700023FB600CE0FB68A2
:102E20007A6813441A780D4B1B785340DAB20B4B77
:102E30001A70FB680133FB60FB68272B05DCFB681D
:102E40007A6813441B78002BE9D1FB78194678681F
:102E500001F0A8FE00BF1037BD4680BDAB020020C8
:102E600090B59DB002AF87ED020B0346FB7107F1F1
:102E70001400D7E90234CDE90034154A50210BF093
:102E800075FB00237B660DE007F114027B6E134493
:102E90001A78104B1B785340DAB20E4B1A707B6EC7
:102EA00001337B667B6E272B06DC07F114027B6EF9
:102EB00013441B78002BE7D1FA7907F1140311466C
:102EC000184601F06FFE00BF6C37BD4690BD00BFD5
:102ED000A4200108AB02002080B598B000AF0346E3
:102EE0000A46FB8013467B71B7F9063007F10C00E8
:102EF000144A50210BF03AFB0023FB650DE007F16B
:102F00000C02FB6D13441A780F4B1B785340DAB256
:102F10000D4B1A70FB6D0133FB65FB6D272B06DC37
:102F200007F10C02FB6D13441B78002BE7D17A7973
:102F300007F10C031146184601F034FE00BF60375C
:102F4000BD4680BDAC200108AB02002080B598B022
:102F500000AF78600B46FB7007F10C007B68154AE8
:102F600050210BF003FB0023FB650DE007F10C0281
:102F7000FB6D13441A78104B1B785340DAB20E4B9A
:102F80001A70FB6D0133FB65FB6D272B06DC07F127
:102F90000C02FB6D13441B78002BE7D1FA7807F184
:102FA0000C031146184601F0FDFD00BF6037BD4619
:102FB00080BD00BFB4200108AB02002080B584B002
:102FC00000AF78600B46FB700023FB81F9E0FB89C2
:102FD0005A1CFA811A467B6813441B787B737B7BEF
:102FE000002B00F0F4807C4B1B78202B0AD17B7BDC
:102FF000242B03D07B7B212B40F0E380764B2422D3
:103000001A70DEE07B7B0D2B02D07B7B0A2B23D159
:10301000724B1B781A46724B002199546E4B1B78E9
:103020002A2B0BD16F4B1A786F4B1B789A4205D025
:10303000FB7819460420FFF771FE03E0FB78184681
:1030400000F0D4F8674B00221A70634B20221A70EC
:10305000624B00221A70B4E07B7B2A2B03D15E4BBB
:1030600031221A70ADE05C4B1B78312B10D17B7B89
:103070002F2B0DD97B7B392B0AD87B7B303BDBB2E6
:103080001B01DAB2584B1A70534B32221A7098E077
:10309000514B1B78312B10D17B7B402B0DD97B7B87
:1030A000462B0AD87B7B373BDBB21B01DAB24E4B97
:1030B0001A70494B32221A7083E0474B1B78312B30
:1030C00010D17B7B602B0DD97B7B662B0AD87B7B59
:1030D000573BDBB21B01DAB2434B1A703E4B322234
:1030E0001A706EE03C4B1B78322B12D17B7B2F2B5E
:1030F0000FD97B7B392B0CD83B4B1A787B7B134445
:10310000DBB2303BDAB2384B1A70334B2A221A70DA
:1031100057E0314B1B78322B12D17B7B402B0FD9E0
:103120007B7B462B0CD8304B1A787B7B1344DBB26D
:10313000373BDAB22C4B1A70274B2A221A7040E028
:10314000254B1B78322B12D17B7B602B0FD97B7BDD
:10315000662B0CD8244B1A787B7B1344DBB2573B8D
:10316000DAB2214B1A701C4B2A221A7029E01B4B31
:103170001B784F2B15D8184B1B78242B11D1174BCC
:103180001B785A1CD1B2154A11701946144A7B7B20
:103190005354144B1A787B7B5340DAB2114B1A709C
:1031A0000FE00D4B1B782A2B05D1FB781946052023
:1031B000FFF7B4FD0CE0FB7819460020FFF7AEFDE9
:1031C00006E0FB89B3F5007FFFF401AF00E000BF2C
:1031D0001037BD4680BD00BF4C010020A802002072
:1031E00030090020A9020020AA020020B0B5A0B03A
:1031F00002AF0346FB71DB4B1B7887F86B3097F807
:103200006B30313B462B00F2B68601A252F823F018
:103210002D3300089F33000811340008773F000861
:10322000773F0008773F0008773F0008773F0008A6
:10323000773F0008773F0008773F0008773F000896
:10324000773F0008773F0008773F0008773F000886
:10325000773F0008773F0008773F0008773F000876
:10326000773F0008773F0008773F0008773F000866
:103270007D3D0008773F0008773F0008773F000852
:10328000773F00082F3C0008773F0008773F000891
:10329000773F0008773F00085B3F0008773F000852
:1032A000773F0008773F0008773F0008773F000826
:1032B000773F0008773F0008773F0008773F000816
:1032C000773F0008773F0008773F0008773F000806
:1032D00075350008773F000883340008773F000801
:1032E000773F0008BF3600082D360008373E00083B
:1032F0002F390008773F0008773F0008773F000824
:10330000413E0008353B0008773F0008BF37000802
:10331000773F0008F93C0008773F0008773F000836
:10332000773F000827380008F338000807F16003EA
:1033300007F16B028C498B480BF06EF90346A7F836
:103340007230B7F87230022B12D197ED187BB0EEC5
:10335000470AF0EE670AFEF7E7F9FB7919463120D4
:10336000FFF732FDFB791846FFF7F6FC00F009BEC7
:10337000FB7919463120FFF727FD7C4B93ED047B49
:10338000FB791846B0EE470AF0EE670AFFF768FDD2
:10339000FB791846FFF7E0FC00BF00F0F2BD07F133
:1033A000580307F16B0270496E480BF035F903467C
:1033B000A7F87230B7F87230022B12D197ED167B56
:1033C000B0EE470AF0EE670AFEF7C0F9FB7919463E
:1033D0003220FFF7F9FCFB791846FFF7BDFC00F03F
:1033E000D0BDFB7919463220FFF7EEFC5F4B93ED21
:1033F000067BFB791846B0EE470AF0EE670AFFF746
:103400002FFDFB791846FFF7A7FC00BF00F0B9BD00
:1034100007F1500307F16B02534952480BF0FCF8D7
:103420000346A7F87230B7F87230022B12D197ED2D
:10343000147BB0EE470AF0EE670AFEF799F9FB79C4
:1034400019463320FFF7C0FCFB791846FFF784FCD0
:1034500000F097BDFB7919463320FFF7B5FC434BCD
:1034600093ED087BFB791846B0EE470AF0EE670A49
:10347000FFF7F6FCFB791846FFF76EFC00BF00F083
:1034800080BD07F1480107F16B0207F13803019392
:1034900007F1400300930B46354932480BF0BCF866
:1034A0000346A7F87230B7F87230042B22D197ED9B
:1034B000127BB0EE470AF0EE670AFEF735F997ED9A
:1034C000107BB0EE470AF0EE670AFEF73FF997ED82
:1034D0000E7BB0EE470AF0EE670AFEF749F9FB797A
:1034E00019466320FFF770FCFB791846FFF734FCA0
:1034F00000F047BDB7F87230012B2BD1FB7919468C
:103500006320FFF761FC194B93ED047BFB791846B0
:10351000B0EE470AF0EE670AFFF7A2FC134B93EDFB
:10352000067BFB791846B0EE470AF0EE670AFFF714
:1035300097FC0E4B93ED087BFB791846B0EE470ADB
:10354000F0EE670AFFF78CFCFB791846FFF704FCE6
:1035500000F017BDFB7919460720FFF7DFFB00BF1E
:1035600000F00FBD30090020BC20010888090020B0
:10357000C420010807F1340107F16B0207F134039D
:10358000023300930B46C249C2480BF045F803468C
:10359000A7F87230B7F87230032B20D1B7F9343066
:1035A000002B15DDB7F93630002B11DDB7F93420CB
:1035B000B94BDA85B7F93620B74B5A86FB791946ED
:1035C0006120FFF701FCFB791846FFF7C5FB2AE0F5
:1035D000FB7919460E20FFF7A1FB00F0D2BCB7F82B
:1035E0007230012B1AD1FB7919466120FFF7ECFBF1
:1035F000A94BB3F92E30FA7911461846FFF76CFC47
:10360000A54BB3F93230FA7911461846FFF764FC3E
:10361000FB791846FFF7A0FB00F0B3BCFB79194615
:103620000720FFF77BFB00BF00F0ABBC07F13203C4
:1036300007F16B02994997480AF0EEFF0346A7F895
:103640007230B7F87230022B1FD1B7F93230002B2D
:1036500014DDB7F93230184609F0F2FC03460C4687
:103660008D4AC2E91034FB7919466720FFF7ACFB9D
:10367000FB791846FFF770FB00F083BCFB79194615
:103680000E20FFF74BFB00F07CBCFB79194667204E
:10369000FFF79AFB804BD3E910341846214609F016
:1036A000CFFF03461BB2FA7911461846FFF714FC08
:1036B000FB791846FFF750FB00BF00F062BC07F132
:1036C000280307F16B02764972480AF0A5FF03460A
:1036D000A7F87230B7F87230022B0FD1D7E90A344D
:1036E0006D4AC2E91634FB7919466620FFF76CFB78
:1036F000FB791846FFF730FB00F043BCFB79194615
:103700006620FFF761FB644B93ED167BFB7918464F
:10371000B0EE470AF0EE670AFFF7A2FBFEF73AF8B1
:1037200003461BB2FA7911461846FFF7D5FBFEF7A0
:103730003FF803461A46FB7919461046FFF7CCFBC3
:10374000FEF728F80346002B33D0FEF731F8034686
:10375000002B2ED0FB7919465248FFF757FBFEF796
:1037600019F80346184609F06BFC04460D46FEF7AF
:103770001FF80346184609F063FC02460B46204634
:10378000294609F0EDFD03460C4644EC173BB0EE2C
:10379000470AF0EE670AFEF733F80346184609F0C9
:1037A0004FFC0A460146FB79184642EC101BFFF716
:1037B00057FBFB791846FFF7CFFA00BFE1E3FB792F
:1037C00019467020FFF700FB334BD3E9123418463B
:1037D000214609F035FF0246FB7919461046FFF7EE
:1037E000B5FB2D4BD3E914341846214609F028FFC8
:1037F0000246FB7919461046FFF7A8FBFDF7E4FFE8
:103800000246FB7919461046FFF7A0FBFDF7C2FF01
:103810000246FB7919461046FFF798FBFB791846DC
:10382000FFF79AFAADE307F1240107F16B0207F104
:103830002403023300930B46154916480AF0ECFEA8
:103840000346A7F87230B7F87230032B2CD1B7F9C2
:103850002430002B15DDB7F92630002B11DDB7F928
:1038600024200D4B1A86B7F926200B4B9A86FB793C
:1038700019467620FFF7A8FAFB791846FFF76CFA8D
:1038800035E0FB7919460E20FFF748FA79E300BFCF
:10389000D42001083009002088090020E020010818
:1038A000BC200108E8200108B7F87230012B19D1BB
:1038B000FB7919467620FFF787FABD4BB3F9303014
:1038C000FA7911461846FFF707FBB94BB3F93430C4
:1038D000FA7911461846FFF7FFFAFB791846FFF709
:1038E0003BFA4EE3FB7919460720FFF717FA00BFB2
:1038F00047E300226821AE48FEF736FCF866FB7904
:1039000019467720FFF760FAFB6E002B09D1FB798F
:103910001946A848FFF77AFAFB791846FFF71CFA10
:103920002FE3FB7919460820FFF7F8F929E307F19F
:103930001C01023107F11C030233023307F11C02A0
:103940000432023207F16B00019200930B460246EB
:1039500099499A480AF060FE0346A7F87230B7F812
:103960007230042B3FD1B7F91C30002B35DDB7F98D
:103970001C30102B31DCB7F91E30002B2DDDB7F9D0
:103980001E30102B29DCB7F92030002B25DDB7F9CC
:103990002030102B21DCB7F91C30DBB2013BDAB24E
:1039A000834B83F83620B7F91E30DBB2013BDAB225
:1039B0007F4B83F83720B7F92030DBB2013BDAB216
:1039C0007B4B83F83820FB7919466920FFF7FCF917
:1039D000FB791846FFF7C0F9AAE0FB7919460E20DB
:1039E000FFF79CF9CDE2B7F87230012B40F09B80D5
:1039F000FB7919466920FFF7E7F96D4B93F83630EC
:103A00009BB201339BB21BB2FA7911461846FFF7FD
:103A100063FA674B93F837309BB201339BB21BB20A
:103A2000FA7911461846FFF757FA614B93F8383088
:103A30009BB201339BB21BB2FA7911461846FFF7CD
:103A40004BFAFB7919465E48FFF7E0F900237B67E4
:103A500000237B674DE0FB7919465A48FFF7D6F9FA
:103A60007B6F9BB201339BB21BB2FA7911461846A9
:103A7000FFF732FAFB7919465348FFF7C7F97B6F16
:103A8000DBB2184600F06EFE03461A46FB79194673
:103A90001046FFF721FA464B93F836301A467B6FF3
:103AA0009A4205D1FB7919464848FFF7AFF918E06B
:103AB0003F4B93F837301A467B6F9A4205D1FB791A
:103AC00019464348FFF7A2F90BE0394B93F8383019
:103AD0001A467B6F9A4204D1FB7919463D48FFF79D
:103AE00095F9FB7919463648FFF790F97B6F01335A
:103AF0007B677B6F0F2BAEDDFB7919463648FFF7EE
:103B000085F9364BDB6B1BB2FA7911461846FFF785
:103B1000E3F9FB7919462A48FFF778F9FB7918464B
:103B2000FFF71AF92DE2FB7919460720FFF7F6F89F
:103B300000BF26E207F1180107F16B0207F1180335
:103B4000023300930B4626491C480AF065FD0346E4
:103B5000A7F87230B7F87230032B43D1B7F9183099
:103B6000B3F5FA7F1EDDB7F91830B3F5FA6F19DA3D
:103B7000B7F91A30002B15DDB7F91A30632B11DCB9
:103B8000FB7919466E20FFF71FF9B7F91820084B8B
:103B90005A85B7F91A20064B9A85FB791846FFF724
:103BA000DBF842E0FB7919460E20FFF7B7F8E8E1B1
:103BB00088090020FC200108182101083009002094
:103BC000282101082C210108502101085421010855
:103BD0007421010894210108B0210108000400406B
:103BE000D4200108B7F87230012B19D1FB7919469E
:103BF0006E20FFF7E9F8C24BB3F92A30FA79114683
:103C00001846FFF769F9BE4BB3F92C30FA79114623
:103C10001846FFF761F9FB791846FFF79DF8B0E108
:103C2000FB7919460720FFF779F800BFA9E107F1F2
:103C3000140107F16B0207F11403023300930B46E2
:103C4000B049B1480AF0E8FC0346A7F87230B7F86B
:103C50007230032B2BD1B7F91430B3F5FA7F20DD86
:103C6000B7F91430B3F5FA6F1BDAB7F91630002B39
:103C700017DDB7F91630632B13DCFB7919464E209C
:103C8000FFF7A2F8B7F914209D4BA3F86220B7F90B
:103C900016209B4BA3F86420FB791846FFF75CF8CD
:103CA00028E0FB7919460E20FFF738F869E1B7F8EC
:103CB0007230012B19D1FB7919464E20FFF784F899
:103CC0008F4BB3F96230FA7911461846FFF704F9C1
:103CD0008B4BB3F96430FA7911461846FFF7FCF8BC
:103CE000FB791846FFF738F84BE1FB7919460720B6
:103CF000FFF714F800BF44E107F1120307F16B026C
:103D0000824981480AF088FC0346A7F87230B7F868
:103D10007230022B1ED1B7F91230012B04D0B7F943
:103D20001230B3F1FF3F0FD1FB7919467220FFF734
:103D30004BF8B7F912305AB2714B83F82920FB794E
:103D40001846FFF709F817E0FB7919460A20FEF735
:103D5000E5FF16E1FB7919467220FFF735F8684B4D
:103D600093F929301BB2FA7911461846FFF7B4F8D7
:103D7000FB791846FEF7F0FF00BF02E107F11003E0
:103D800007F16B02614960480AF046FC0346A7F858
:103D90007230B7F87230022B29D1B7F91030002BEE
:103DA0000DD1FB7919464920FFF70EF8544B00223C
:103DB00083F86020FB791846FEF7CEFFE1E0B7F903
:103DC0001030012B0DD1FB7919464920FEF7FCFF7D
:103DD0004B4B012283F86020FB791846FEF7BCFFAD
:103DE000CFE0FB7919460E20FEF798FFC9E0FB797A
:103DF00019464920FEF7E8FF414B93F860301BB2AB
:103E0000FA7911461846FFF767F83D4B93F8603092
:103E1000002B05D1FB7919463D48FEF7F7FF04E07A
:103E2000FB7919463B48FEF7F1FFFB791846FEF790
:103E300093FF00BFA5E0FB79184600F0ADF8A0E0C5
:103E400007F10E0307F16B0230492F480AF0E4FB3B
:103E50000346A7F87230B7F87230022B27D1B7F9B2
:103E60000E30002B0BD0B7F90E30022B07D0B7F96C
:103E70000E30032B03D0B7F90E30012B11D1FB7993
:103E800019466D20FEF7A0FFB7F90E30DAB21C4BD1
:103E900083F83920FDF70AFFFB791846FEF75CFF2F
:103EA00059E0FB7919460B20FEF738FF69E0FB79F2
:103EB00019466D20FEF788FF114B93F839301BB27D
:103EC000FA7911461846FFF707F8FB7919461248A8
:103ED000FEF79CFF0A4B93F83930002B05D1FB7994
:103EE00019460E48FEF792FF31E0054B93F8393042
:103EF000022B17D1FB7919460948FEF787FF26E008
:103F000088090020D420010830090020E0200108A1
:103F1000D4210108F421010810220108142201080B
:103F200028220108194B93F83930032B05D1FB796E
:103F300019461748FEF76AFF09E0144B93F8393029
:103F4000012B04D1FB7919461248FEF75FFFFB797C
:103F50001846FEF701FF00BF13E0FB791946532016
:103F6000FEF732FFFB791846FEF7F6FEFB7918469E
:103F700000F042F905E0FB7919460620FEF7CEFE77
:103F800000BF00BF7837BD46B0BD00BF8809002024
:103F9000482201087422010880B582B000AF0346B0
:103FA000FB71FB79184600F065FEFB79184600F0BE
:103FB00061FEFB7919466F4800F048FEFB7919460F
:103FC0006D4800F0EFFD6D4B93F83930002B05D1B3
:103FD000FB7919466A4800F039FE1FE0674B93F8F9
:103FE0003930022B05D1FB791946664800F02EFEC8
:103FF00014E0624B93F83930032B05D1FB79194655
:10400000614800F023FE09E05C4B93F83930012B46
:1040100004D1FB7919465D4800F018FEFB7919467A
:104020005B4800F0BFFD554B93F86030002B05D185
:10403000FB791946574800F009FE04E0FB79194660
:10404000554800F003FEFB791946544800F0AAFDDC
:10405000FEF746F80246FB791946104600F0A2FD2D
:10406000FB79184600F006FEFB79184600F002FEC8
:10407000FB79184600F0FEFDFB79184600F0FAFDCA
:10408000FB791946464800F0E1FDFB79184600F03F
:10409000F1FDFB791946434800F0D8FDFB7919463C
:1040A000414800F0D3FDFB791946404800F0CEFDB1
:1040B000FB7919463E4800F0C9FDFB7919463D4899
:1040C00000F0C4FDFB7919463B4800F0BFFDFB79C9
:1040D00019463A4800F0BAFDFB791946384800F015
:1040E000B5FDFB791946374800F0B0FDFB7919465C
:1040F000354800F0ABFDFB791946344800F0A6FDC9
:10410000FB791946324800F0A1FDFB791946314888
:1041100000F09CFDFB7919462F4800F097FDFB79D4
:1041200019462E4800F092FDFB7919462C4800F004
:104130008DFDFB7919462B4800F088FDFB79194667
:10414000294800F083FDFB791946284800F07EFDE0
:10415000FB791946264800F079FDFB791946254878
:1041600000F074FDFB79184600F084FD00BF0837AD
:10417000BD4680BDF009002080220108880900208A
:104180001422010890220108AC22010874220108BF
:10419000D4220108E8220108F4220108FC220108C7
:1041A000202301083823010884230108D0230108B3
:1041B0001C2401088C240108D424010824250108AA
:1041C0009C250108102601085C260108A426010888
:1041D000F02601083C2701089C270108082801084F
:1041E00054280108A0280108E02801084C290108EA
:1041F00088290108F029010890B583B000AF034673
:10420000FB71FB79184600F035FDFB79184600F08C
:1042100031FDFB79184600F02DFDFB791946BD48AC
:1042200000F014FDFB79184600F024FDFB791846D8
:1042300000F020FDFB791946B74800F0B3FCFB798C
:104240001946B64800F002FDFB79184600F012FD51
:10425000FB79184600F00EFDFB791946B04800F0D6
:10426000F5FCFB791946AF4800F0F0FCFB791946E4
:10427000AD4800F0EBFCFB791946AC4800F0E6FCD9
:10428000FB791946AA4800F0E1FCFB79184600F0DA
:10429000F1FCFB791946A74800F084FCA64B93F883
:1042A0005130002B05D0FB791946A44800F0CEFC14
:1042B0004BE09A4BD3E91201984BD3E914341A46D8
:1042C000234609F095F90346002B1FD0934B93ED3D
:1042D000127BFB791846B0EE470AF0EE670A00F051
:1042E00073FCFB791946964800F05CFC8B4B93ED10
:1042F000147BFB791846B0EE470AF0EE670A00F02F
:1043000063FCFB79184600F0B5FC1EE0834B93ED8F
:10431000147BFB791846B0EE470AF0EE670A00F00E
:1043200053FCFB791946864800F03CFC7B4B93ED2F
:10433000127BFB791846B0EE470AF0EE670A00F0F0
:1043400043FCFB79184600F095FCFB79184600F019
:1043500091FCFB79184600F08DFCFB7919467948F1
:1043600000F074FCFB791946774800F06FFCFB798C
:104370001946764800F06AFCFB79184600F07AFC92
:10438000FB791946724800F00DFC644B93ED047BF9
:10439000FB791846B0EE470AF0EE670A00F014FC0D
:1043A000FB7919466B4800F0FDFB5C4B93ED067BF7
:1043B000FB791846B0EE470AF0EE670A00F004FCFD
:1043C000FB791946644800F0EDFB544B93ED087BF4
:1043D000FB791846B0EE470AF0EE670A00F0F4FBEE
:1043E000FB79184600F046FCFB79184600F042FCC9
:1043F000FB79184600F03EFCFB791946574800F05F
:1044000025FCFB79184600F035FCFB791946544829
:1044100000F0C8FB414BB3F92A30FA79114618462F
:1044200000F088FBFB7919464E4800F0BBFB3B4B84
:10443000B3F92C30FA791146184600F07BFBFB7972
:10444000184600F017FCFB79184600F013FCFB79C6
:10445000184600F00FFCFB791946434800F0F6FBC4
:10446000FB791946414800F0F1FBFB7919464048B9
:1044700000F0ECFBFB79184600F0FCFBFB791946D9
:104480003C4800F08FFB254B93F929301BB2FA7999
:104490001146184600F04EFBFB79184600F0EAFB87
:1044A000FB79184600F0E6FBFB79184600F0E2FBCA
:1044B000FB791946304800F0C9FBFB79184600F03B
:1044C000D9FBFB7919462D4800F06CFB134B93F890
:1044D00039301BB2FA791146184600F02BFBFB79F4
:1044E0001946274800F05EFB0C4B93F83930002B3F
:1044F00005D1FB791946234800F0A8FB4BE0074B98
:1045000093F83930022B41D1FB7919461E4800F04F
:104510009DFB40E0302A0108402A0108880900205C
:104520005C2A01088C2A0108F82A0108542B01088A
:10453000C02B0108F02B0108F0090020002C010815
:104540001C2C0108282C0108942C0108002D0108BE
:10455000202D0108382D0108402D0108482D0108A3
:10456000702D0108842D0108882D0108F42D010803
:10457000602E0108D02E0108E82E0108002F010846
:104580001022010814220108082F0108FB7919469E
:10459000094800F05BFBFB79184600F06BFBFB79E8
:1045A000184600F067FBFB79184600F063FB00BF7C
:1045B0000C37BD4690BD00BF7422010880B500AF26
:1045C000664B1B780F2B40F0C780644B1B7E002B83
:1045D00040F0C28002F0F8F90246614B5A605F4B2E
:1045E0001B68C3F30A239BB21A465D4B1A855B4BCB
:1045F0005B88C3F3CA039BB21A46594B5A85574B83
:10460000DA789209D2B29B88C3F308039B00134364
:104610009BB21A46524B9A85504B5B68C3F34A23B0
:104620009BB21A464E4BDA854C4BDB88C3F30A1318
:104630009BB21A464A4B1A86484BDA79D209D2B253
:104640001B89C3F309035B0013439BB21A46444B17
:104650005A86424B9B68C3F38A239BB21A46404B4F
:104660009A863E4B5B89C3F34A139BB21A463C4B76
:10467000DA863A4B9B89C3F30A039BB21A46384B3E
:104680001A87364BDB68C3F3CA239BB21A46344BF6
:104690005A87324BDA89920992B21B7C03F00103EC
:1046A0009B0213439BB21A462D4B9A872B4B1B8AB6
:1046B000C3F34A039BB21A46294BDA87274B1B697F
:1046C000C3F30A339BB21A46254BA3F84020234B71
:1046D0005A8AD20992B21B7D03F003035B02134393
:1046E0009BB21A461E4BA3F842201C4B9B8AC3F375
:1046F0008A039BB21A461A4BA3F84420174B5B69F6
:10470000C3F34A339BB21A46154BA3F84620134B0A
:10471000DB7D03F00103DAB2114B83F848200F4B25
:10472000DB7D03F00203DAB20D4B83F849200B4B1B
:10473000DB7D03F00403DAB2094B83F84A20074B10
:10474000DB7D03F00803DAB2054B83F84B20044B02
:104750001B690133024A136100BF80BDAC02002017
:10476000440A002080B582B000AF0346FB7102F01E
:104770002BF90246174B5B68D31A40F6B8329342C6
:1047800001D9002322E0FB790F2B1ED8FB79114AB7
:10479000143332F81330002B01D1002316E00D4BF7
:1047A00093F84C30022B09D1FB790A4A143332F8C2
:1047B0001330A3F5FA739BB21BB207E0FB79054AED
:1047C000143332F813301BB200E0002318460837C8
:1047D000BD4680BD440A002080B400AF024B18469D
:1047E000BD465DF8047B7047AC02002080B58EB0FA
:1047F00000AF78607B681B681B683B637B681B6845
:10480000DB68FB627B681B685B69BB6200237B62C1
:104810007B681B685B6887F823303B6B03F00F03F2
:104820007B627B6A002B62D13B6B03F02003002B81
:1048300000F0F680FB6A03F02003002B00F0F0800C
:1048400002F0C2F8F861784B1B68FA69D31ABB61B1
:10485000BB69032B0DD97B68744A9A627B68192265
:10486000DA85714AFB6913606F4B5B6901336E4AED
:1048700053617B68DB8D9BB2002B00F0D1807B689D
:104880009B6A97F823201A707B68DB8D9BB2192BEB
:1048900005D17B689B6A1B780F2B40F0C1807B6839
:1048A000DB8D9BB2192B02D15F4AFB6913607B68D9
:1048B000DB8D9BB2013B9AB27B68DA857B689B6A91
:1048C0005A1C7B689A627B68DB8D9BB2002B40F0A0
:1048D000A780FFF773FE7B68544A9A627B681922AF
:1048E000DA85514B9B6801334F4A936098E000236F
:1048F00087F837303B6B03F00103002B1DD0FB6AB8
:1049000003F48073002B18D07B68DB6B43F001024B
:104910007B68DA6300237B617B681B681B687B61B3
:104920007B681B685B687B617B693F4B9B690133DC
:104930003D4A9361012387F837303B6B03F0040352
:10494000002B1DD0BB6A03F00103002B18D07B683D
:10495000DB6B43F002027B68DA6300233B617B6818
:104960001B681B683B617B681B685B683B613B693C
:104970002D4BDB6901332C4AD361012387F8373093
:104980003B6B03F00203002B1DD0BB6A03F0010355
:10499000002B18D07B68DB6B43F004027B68DA6382
:1049A0000023FB607B681B681B68FB607B681B68DF
:1049B0005B68FB60FB681C4B1B6A01331A4A13627D
:1049C000012387F837303B6B03F00803002B1DD021
:1049D000BB6A03F00103002B18D07B68DB6B43F04C
:1049E00008027B68DA630023BB607B681B681B6876
:1049F000BB607B681B685B68BB60BB680A4B5B6A1B
:104A00000133094A5362012387F8373097F837306A
:104A1000002B05D0044BDB680133034AD360FFE76A
:104A200000BF3837BD4680BD440A0020AC020020DC
:104A300090B585B000AF78607B681B68394A9342B7
:104A40006BD17B681B7E042B67D10C21786805F045
:104A5000D3FC03469AB2344B1B88D31AFB81FB89E3
:104A6000B3F57A6F11D9314B00221A7001F0ACFF07
:104A700002462F4B5A602E4B1B6901332C4A13619F
:104A80002B4B002283F84C200CE0284B93F900308C
:104A90000F2B07DC254B93F9003025491433FA8995
:104AA00021F813200821786805F0A6FC03469CB283
:104AB0000C21786805F0A0FC03469BB2E31ABB8189
:104AC000BB8940F22522934209D8184B93F9003054
:104AD000DBB20133DBB25AB2144B1A7015E0BB895A
:104AE00042F21072934210D9104B00221A7001F05A
:104AF0006BFF02460E4B5A600D4B1B6901330C4A8B
:104B000013610B4B022283F84C200821786805F0D2
:104B100073FC03469AB2044B1A8000BF1437BD469B
:104B200090BD00BF00000140C6020020C502002069
:104B3000440A002080B582B000AF03460A46FB80DD
:104B400013467B71B7F90630064A5021064809F032
:104B50000DFD7B791946044800F09CF800BF08372A
:104B6000BD4680BD142F0108940A002080B582B094
:104B700000AF03460A46FB711346BB71FB79074A37
:104B80005021074809F0F2FCBB791946044800F0AF
:104B900081F800BF0837BD4680BD00BF1C2F01084B
:104BA000940A002080B582B000AF78600B46FB709D
:104BB000FB781946786800F06DF800BF0837BD46ED
:104BC00080BD00BF0000000090B587B002AF87ED48
:104BD000020B0346FB7119A3D3E90023D7E90201B5
:104BE00008F024FD0346002B09D116A3D3E90023C6
:104BF000D7E9020108F0FCFC0346002B05D0FB7945
:104C000019460B4800F046F80DE0D7E90234CDE92B
:104C10000034084A5021084809F0A8FCFB791946DD
:104C2000054800F037F800BF1437BD4690BD00BFFF
:104C3000282F0108342F0108940A002000000000EA
:104C40007E842E41000000007E842EC180B582B09B
:104C500000AF78600B46FB70FB781946786800F06F
:104C600019F8FB78184600F005F800BF0837BD4674
:104C700080BD00BF80B582B000AF0346FB71FB79F9
:104C80001946034800F006F800BF0837BD4680BD4E
:104C90006C2F010880B582B000AF78600B46FB70C6
:104CA000FB78012B02D0FB78022B02D1786801F04F
:104CB000B9F900BF0837BD4680BD00BF80B582B0DE
:104CC00000AF786000F058FA184BD8221A707B6851
:104CD0001B0CDAB2154B5A707B681B0ADAB2134B05
:104CE0009A707B68DAB2114BDA7000220821104802
:104CF00002F074FC41F2883304220C490D4804F0A0
:104D000087FB0346012B0AD0032B0AD000BF0122E8
:104D10000821074802F062FC00F056FA02E000BFEA
:104D200000E000BF0837BD4680BD00BFE40A002098
:104D300000040240E404002080B584B000AFF860B5
:104D4000B9601346FB8000F017FA214B02221A705B
:104D5000BB681B0CDAB21E4B5A70BB681B0ADAB276
:104D60001B4B9A70BB68DAB2194BDA70002208212B
:104D7000184802F033FC41F28833042214491648E3
:104D800004F046FB0346012B17D0032B17D000BFBE
:104D9000FA8841F28833F9680F4804F039FB03467A
:104DA000012B0ED0032B0ED000BF01220821094891
:104DB00002F014FC00F008FA06E000BF04E000BFB7
:104DC00002E000BF00E000BF1037BD4680BD00BF5D
:104DD000E40A002000040240E404002080B58AB008
:104DE00000AFF860B9607A6000237B6200233B6209
:104DF0000023FB610023BB6100237B61BB68DBB246
:104E0000FB61FB69C3F58073BB617B681B0A7B6236
:104E10007B68DBB23B62FB69002B25D17B6A002BF0
:104E200015D17B689BB21A46B968F868FFF784FF12
:104E30007BE04FF48072B968F868FFF77DFFBB68CC
:104E400003F58073BB60FB6803F58073FB607B6ACE
:104E50005A1E7A62002BECD13B6A9BB21A46B968A3
:104E6000F868FFF769FF60E07B6A002B26D13A6A99
:104E7000BB699A421AD93A6ABB69D31A7B61BB698A
:104E80009BB21A46B968F868FFF756FFBA68BB6963
:104E90001344BB60FA68BB691344FB607B699BB237
:104EA0001A46B968F868FFF747FF3EE07B689BB297
:104EB0001A46B968F868FFF73FFF36E07A68BB69C1
:104EC000D31A7B607B681B0A7B627B68DBB23B6228
:104ED000BB699BB21A46B968F868FFF72DFFBA683C
:104EE000BB691344BB60FA68BB691344FB600DE007
:104EF0004FF48072B968F868FFF71EFFBB6803F5CE
:104F00008073BB60FB6803F58073FB607B6A5A1E8D
:104F10007A62002BECD13B6A002B06D03B6A9BB235
:104F20001A46B968F868FFF707FF00BF2837BD4683
:104F300080BD00BF80B588B002AFF860B9607A600C
:104F400000237B612C4B03221A70BB681B0CDAB266
:104F5000294B5A70BB681B0ADAB2274B9A70BB68A0
:104F6000DAB2254BDA7000220821244802F036FB21
:104F700041F2883304222049214804F049FA0346CB
:104F8000012B08D0032B04D000BF1B4BA5221A70A5
:104F900023E001232CE001232AE007F1130241F270
:104FA0008833009301231449154804F06DFB034630
:104FB000012B0AD0032B06D000BFFB681A78FB7CBC
:104FC0009A4207D003E0012312E0012310E07B693D
:104FD00001337B61FB680133FB607B685A1E7A609A
:104FE000002BDAD101220821044802F0F7FA7B698C
:104FF00018461837BD4680BDE40A00200004024070
:10500000E404002080B586B002AFF860B9607A6031
:10501000264B03221A70BB681B0CDAB2234B5A7062
:10502000BB681B0ADAB2214B9A70BB68DAB21F4B1D
:10503000DA70002208211E4802F0D0FA41F28833CB
:1050400004221A491B4804F0E3F90346012B23D03C
:10505000032B23D000BF154BA5221A7011E041F29B
:10506000883300930123FA681049124804F00CFBBE
:105070000346012B14D0032B14D000BFFB6801336F
:10508000FB607B685A1E7A60002BE8D10122082160
:10509000074802F0A3FA06E000BF04E000BF02E008
:1050A00000BF00E000BF1037BD4680BDE40A00200D
:1050B00000040240E404002080B588B002AF002361
:1050C0007B6100233B610023FB600023BB60002267
:1050D0000821264802F082FA254B9F221A7041F2DD
:1050E000883301222249234804F092F90346012B18
:1050F0001AD0032B16D000BF1D4BA5221A701C4BD3
:10510000A5225A701A4BA5229A703A1D41F2883393
:10511000009303231649174804F0B6FA0346012BFF
:105120001ED003E001231CE001231AE0032B15D05D
:1051300000BF012208210D4802F050FA3B793B6183
:105140007B79FB60BB79BB603B691A04FB681B027F
:105150001A43BB6813437B617B6902E0012300E0D3
:10516000012318461837BD4680BD00BF0004024029
:10517000E40A0020E404002080B500AF00220821EA
:105180000E4802F02BFA0E4B06221A7041F28833B9
:1051900001220B490B4804F03BF90346012B08D0D0
:1051A000032B08D000BF01220821044802F016FAA0
:1051B00002E000BF00E000BF80BD00BF000402406D
:1051C000E40A0020E404002080B584B002AF00238C
:1051D000FB71002208211D4802F000FA1C4B052239
:1051E0001A7041F28833012219491A4804F010F963
:1051F0000346012B1FD0032B1FD000BF144BA52249
:105200001A70FA1D41F288330093012310491148A6
:1052100004F03AFA0346012B11D0032B11D000BF42
:10522000FB7903F00103002BEBD101220821074891
:1052300002F0D4F906E000BF04E000BF02E000BFC6
:1052400000E000BF0837BD4680BD00BF000402403B
:10525000E40A0020E40400200649074A074B9A426A
:10526000BEBF51F8040B42F8040BF8E7044880472E
:10527000044800476033010800000020400200207D
:10528000B95A0008E50100083349344A002301E017
:1052900041F8043B9142FBD3FCF7A2FFFEE7FEE797
:1052A000FEE7FEE7FEE7FEE7FEE7FEE7FEE7FEE7D6
:1052B000FEE7FEE7FEE7FEE7FEE7FEE7FEE7FEE7C6
:1052C000FEE7FEE7FEE7FEE7FEE7FEE7FEE7FEE7B6
:1052D000FEE7FEE7FEE7FEE7FEE7FEE7FEE7FEE7A6
:1052E000FEE7FEE7FEE7FEE7FEE7FEE7FEE7FEE796
:1052F000FEE7FEE7FEE7FEE7FEE7FEE7FEE7FEE786
:10530000FEE7FEE7FEE7FEE7FEE7FEE7FEE7FEE775
:10531000FEE7FEE7FEE7FEE7FEE7FEE7FEE7FEE765
:10532000FEE7FEE7FEE7FEE7FEE7FEE7FEE7FEE755
:10533000FEE7FEE7FEE7FEE7FEE7FEE7FEE7FEE745
:10534000FEE7FEE7FEE7FEE7FEE7FEE7FEE7FEE735
:10535000FEE7FEE7FEE70000400200206033002089
:1053600080B500AF032001F023FC002200216FF084
:105370000B0001F029FC002200216FF00A0001F06F
:1053800023FC002200216FF0090001F01DFC002227
:1053900000216FF0040001F017FC002200216FF0E3
:1053A000030001F011FC002200216FF0010001F068
:1053B0000BFC002200214FF0FF3001F005FC00BF84
:1053C00080BD00BF80B483B000AF78607B681B688D
:1053D000054A934202D1054B01221A6000BF0C37E7
:1053E000BD465DF8047B7047002800403C0E4742F4
:1053F00080B58AB000AF78607B681B682D4A934205
:105400001ED100233B612C4A2B4B5B6C43F4805331
:105410005364294B5B6C03F480533B613B69F0237D
:105420007B610223BB610023FB6103233B620523F5
:105430007B6207F114031946204801F035FF34E080
:105440007B681B681E4A93422FD10023FB601A4AD7
:10545000194B1B6C43F400431364174B1B6C03F490
:105460000043FB60FB684FF400437B610223BB6198
:105470000023FB6103233B6206237B6207F11403D5
:1054800019460E4801F010FF4FF4E0537B610223F0
:10549000BB610023FB6103233B6206237B6207F1B0
:1054A00014031946074801F0FFFE00BF2837BD4628
:1054B00080BD00BF003001400038024000000240C3
:1054C000003C00400008024080B485B000AF786026
:1054D0007B681B680B4A93420DD10023FB600A4A8C
:1054E000094B1B6C43F002031364074B1B6C03F066
:1054F0000203FB60FB6800BF1437BD465DF8047B08
:10550000704700BF000400400038024080B588B0FA
:1055100000AF78607B681B68124A93421DD100235C
:10552000BB60114A104B1B6C43F0080313640E4B15
:105530001B6C03F00803BB60BB680323FB60022302
:105540003B6101237B610323BB610223FB6107F104
:105550000C031946054801F0A7FE00BF2037BD46E1
:1055600080BD00BF000C0040003802400000024037
:1055700080B588B000AF78607B681B68164A93429C
:1055800026D10023BB60154A144B5B6C43F001032A
:105590005364124B5B6C03F00103BB60BB684FF4B8
:1055A000C063FB6002233B6100237B610023BB617E
:1055B0000123FB6107F10C031946094801F074FE51
:1055C000002200211B2001F0FFFA1B2001F018FB34
:1055D00000BF2037BD4680BD0000014000380240BA
:1055E0000000024080B588B000AF78607B681B681F
:1055F0000B4A93420FD10323FB6002233B6101233B
:105600007B610223BB610223FB6107F10C03194696
:10561000044801F049FE00BF2037BD4680BD00BFF1
:10562000000400400004024080B58AB000AF7860FA
:105630007B681B68754A934259D100233B61744AC9
:10564000734B5B6C43F010035364714B5B6C03F062
:1056500010033B613B694FF4C0637B610223BB6174
:105660000123FB6103233B6207237B6207F11403E1
:105670001946684801F018FE674B684A1A60664B85
:105680004FF000625A60644B00229A60624B002225
:10569000DA60614B4FF480621A615F4B00225A61FD
:1056A0005D4B00229A615C4B0022DA615A4B4FF449
:1056B00000321A62584B00225A62574801F0E4FA4D
:1056C0000346002B04D040F245115548FDF70AFB74
:1056D0007B68514A5A63504A7B68936300220021D9
:1056E000252001F071FA252001F08AFA33E17B6868
:1056F0001B684C4A934240F09F800023FB60444A61
:10570000434B1B6C43F400331364414B1B6C03F499
:105710000033FB60FB680C237B610223BB61012328
:10572000FB6103233B6207237B6207F114031946E5
:10573000384801F0B9FD3C4B3C4A1A603A4B4FF0F7
:1057400000625A60384B00229A60374B0022DA60C0
:10575000354B4FF480621A61334B00225A61324B51
:1057600000229A61304B0022DA612F4B00221A622C
:105770002D4B00225A622C4801F086FA0346002B7A
:1057800004D04FF4B6712648FDF7ACFA7B68264A80
:105790005A63254A7B689363254B264A1A60244B3B
:1057A0004FF000625A60224B40229A60204B002248
:1057B000DA601F4B4FF480621A611D4B00225A6160
:1057C0001B4B00229A611A4B0022DA61184B00220F
:1057D0001A62174B00225A62154801F055FA034627
:1057E000002B04D04FF4BF710D48FDF77BFA7B68A6
:1057F0000F4A1A630E4A7B68936300220021262019
:1058000001F0E2F9262001F0FBF9A4E000100140CC
:1058100000380240000002403C0500204064024085
:10582000702F0108004400400803002088600240F7
:105830009C050020A06002407B681B68484A934298
:1058400040F089800023BB60464A464B1B6C43F402
:1058500080231364434B1B6C03F48023BB60BB6841
:105860004FF440637B610223BB610123FB6103238F
:105870003B6207237B6207F1140319463A4801F0A3
:1058800013FD3A4B3A4A1A60384B4FF000625A60A7
:10589000364B00229A60354B0022DA60334B4FF4CE
:1058A00080621A61314B00225A61304B00229A61AA
:1058B0002E4B0022DA612D4B00221A622B4B002264
:1058C0005A622A4801F0E0F90346002B04D040F266
:1058D000A5112848FDF706FA7B68244A5A63234A33
:1058E0007B689363244B254A1A60234B4FF0006278
:1058F0005A60214B40229A601F4B0022DA601E4BF7
:105900004FF480621A611C4B00225A611A4B00222C
:105910009A61194B0022DA61174B00221A62164B6A
:1059200000225A62144801F0AFF90346002B04D05C
:1059300040F2B7110F48FDF7D5F97B680E4A1A639C
:105940000D4A7B68936300220021272001F03CF977
:10595000272001F055F900BF2837BD4680BD00BFA4
:105960000048004000380240000402406803002064
:1059700028600240702F01080C040020586002408B
:1059800080B400AF00BFBD465DF8047B704700BF28
:1059900080B400AFFEE700BF80B400AFFEE700BFF9
:1059A00080B400AFFEE700BF80B400AFFEE700BFE9
:1059B00080B400AF00BFBD465DF8047B704700BFF8
:1059C00080B400AF00BFBD465DF8047B704700BFE8
:1059D00080B400AF00BFBD465DF8047B704700BFD8
:1059E00080B500AF00F0E2FF01F040F900BF80BDDC
:1059F00080B500AF024801F017FA00BF80BD00BFBC
:105A00006803002080B500AF024801F00DFA00BF26
:105A100080BD00BF0C04002080B500AF024801F03B
:105A200003FA00BF80BD00BF0803002080B500AFAF
:105A3000024801F0F9F900BF80BD00BF9C050020BD
:105A400080B500AF0248FEF7D1FE00BF80BD00BFA9
:105A5000FC05002080B500AF024805F025FB00BF23
:105A600080BD00BFF008002080B500AF024805F0FF
:105A70001BFB00BF80BD00BFC803002080B500AF86
:105A8000024801F0D1F900BF80BD00BF3C050020F5
:105A900080B500AF024801F0F7FE00BF80BD00BF37
:105AA000682D002080B500AF024804F005FA00BF61
:105AB00080BD00BF5C06002080B400AF164A164BC4
:105AC000D3F8883043F47003C2F88830134A134B7C
:105AD0001B6843F001031360104B00229A600F4AC9
