:020000040800F2
:1000000000000220558C000895920008A592000877
:10001000B9920008CD920008E192000800000000AB
:10002000000000000000000000000000F592000841
:1000300005930008000000001593000825930008B0
:10004000AF8C0008B18C0008B38C0008B58C000898
:10005000B78C0008B98C0008BB8C0008BD8C000868
:10006000BF8C0008C18C0008C38C0008C58C000838
:10007000C78C0008C98C0008CB8C0008CD8C000808
:10008000CF8C0008D18C0008D38C0008D58C0008D8
:10009000D78C0008D98C0008DB8C0008DD8C0008A8
:1000A000DF8C0008E18C0008E38C000899930008BD
:1000B000E78C0008E98C0008EB8C0008ED8C000848
:1000C000EF8C0008F18C0008F38C0008F58C000818
:1000D000F78C000835930008499300085D930008E9
:1000E000FF8C0008018D0008038D0008058D0008B5
:1000F000078D0008098D00080B8D00080D8D000884
:100100000F8D0008118D0008AD930008158D0008B3
:10011000178D0008198D00081B8D00081D8D000823
:100120001F8D0008218D0008238D0008258D0008F3
:10013000278D0008298D00082B8D00082D8D0008C3
:100140002F8D0008318D0008338D0008859300083D
:10015000378D0008398D00083B8D00087193000829
:100160003F8D0008418D0008438D0008458D000833
:10017000478D0008498D00084B8D00084D8D000803
:100180004F8D0008518D000810B5054C237833B908
:10019000044B13B10448AFF300800123237010BD5A
:1001A0004402002000000000FC860108084B10B546
:1001B0001BB108490848AFF300800848036803B939
:1001C00010BD074B002BFBD0BDE81040184700BF07
:1001D0000000000048020020FC86010844020020C4
:1001E00000000000154B002B08BF134B9D46A3F5E4
:1001F000803A00218B460F461348144A121A11F018
:100200000EFB0F4B002B00D098470E4B002B00D05D
:1002100098470020002104000D000D48002802D05E
:100220000C48AFF3008011F0B9FA2000290002F069
:1002300045FD11F09FFA00BF0000080000000220F9
:10024000000000000000000044020020D839002017
:10025000000000000000000080B584B000AF7860AE
:100260000B46FB700023FB737B681B7C002B0ED1BD
:100270004FF4007302228121786809F01FFF4FF4C8
:10028000007302220121786809F018FF0BE0402377
:1002900002228121786809F011FF40230222012106
:1002A000786809F00BFF082303228221786809F09F
:1002B00005FF4FF4077011F097FA03461A467B6862
:1002C000C3F818227B68D3F81832002B02D101231F
:1002D000FB7326E07B68D3F81832BB607B68D3F8E9
:1002E0001C321B689847BB680022C3F81422BB6805
:1002F0000022C3F818227B681B7C002B09D1BB6845
:10030000D3F804224FF40073012178680AF052F800
:1003100007E0BB68D3F804224023012178680AF083
:1003200049F8FB7B18461037BD4680BD80B584B0C8
:1003300000AF78600B46FB700023FB738121786867
:1003400009F0FAFE0121786809F0F6FE822178684A
:1003500009F0F2FE7B68D3F81832002B0ED07B68D0
:10036000D3F81C325B6898477B68D3F8183218467C
:1003700011F042FA7B680022C3F81822FB7B184672
:100380001037BD4680BD00BF80B584B000AF786037
:1003900039607B68D3F81832FB603B681B7803F048
:1003A0006003002B3AD0202B00D043E03B68DB8871
:1003B000002B29D03B681B785BB2002B11DA7B68DD
:1003C000D3F81C329B683A685078F9683A68D2884A
:1003D0009847F9683B68DB881A46786801F068F846
:1003E00029E03B685A78FB6883F800223B68DB8889
:1003F000DAB2FB6883F80122F9683B68DB881A46A9
:10040000786801F083F816E07B68D3F81C329B68AB
:100410003A6850780022396898470CE03B685B786E
:100420000A2B01D00B2B05E001220549786801F069
:100430003FF800BF00BF002318461037BD4680BDFF
:100440006002002080B485B000AF78600B46FB707E
:100450007B68D3F81832FB607B68D3F81832002B26
:1004600005D0FB680022C3F81422002300E0022319
:1004700018461437BD465DF8047B704780B584B0DC
:1004800000AF78600B46FB707B68D3F81832FB60D6
:10049000FB781946786809F0C7FF0246FB68C3F885
:1004A0000C227B68D3F81832002B0DD07B68D3F870
:1004B0001C32DB68FA68D2F80402FA6802F50372AB
:1004C00011469847002300E0022318461037BD4626
:1004D00080BD00BF80B584B000AF78607B68D3F882
:1004E0001832FB607B68D3F81C32002B15D0FB68F8
:1004F00093F80032FF2B10D07B68D3F81C329B6836
:10050000FA6892F80002F968FA6892F8012292B249
:100510009847FB68FF2283F8002200231846103713
:10052000BD4680BD80B483B000AF78607B68432255
:100530001A80034B18460C37BD465DF8047B7047A4
:100540008800002080B483B000AF78607B684322CD
:100550001A80034B18460C37BD465DF8047B704784
:100560004400002080B483B000AF78607B684322F1
:100570001A80034B18460C37BD465DF8047B704764
:10058000CC00002080B483B000AF78607B680A2282
:100590001A80034B18460C37BD465DF8047B704744
:1005A0000000002080B485B000AF7860396002237D
:1005B000FB733B68002B05D07B683A68C3F81C22AC
:1005C0000023FB73FB7B18461437BD465DF8047BA4
:1005D000704700BF80B487B000AFF860B9601346C1
:1005E000FB80FB68D3F818327B617B69BA68C3F87B
:1005F0000822FA887B69C3F81022002318461C37AA
:10060000BD465DF8047B704780B485B000AF78606C
:1006100039607B68D3F81832FB60FB683A68C3F82E
:100620000422002318461437BD465DF8047B70474A
:1006300080B584B000AF78607B68D3F81832FB6077
:100640007B68D3F81832002B17D0FB68D3F814322C
:10065000002B10D1FB680122C3F81422FB68D3F8E9
:100660000822FB68D3F810329BB28121786809F028
:1006700067FE002302E0012300E002231846103742
:10068000BD4680BD80B584B000AF78607B68D3F88C
:100690001832FB607B68D3F81832002B17D07B68C8
:1006A0001B7C002B09D1FB68D3F804224FF40073A4
:1006B0000121786809F07EFE07E0FB68D3F8042288
:1006C00040230121786809F075FE002300E0022331
:1006D00018461037BD4680BD80B584B000AFF860C5
:1006E000B9601346FB71FB68002B01D102231AE0AD
:1006F000FB68D3F81432002B03D0FB680022C3F848
:100700001422BB68002B03D0FB68BA68C3F8102220
:10071000FB68012283F8FC21FB68FA791A70F868FB
:1007200009F046FC002318461037BD4680BD00BFC7
:1007300080B485B000AF786039600023FB733B68FC
:10074000002B06D07B683A68C3F814220023FB73A1
:1007500001E00223FB73FB7B18461437BD465DF8AE
:10076000047B704780B582B000AF7860786809F08C
:1007700073FC002318460837BD4680BD80B483B0A3
:1007800000AF7860002318460C37BD465DF8047B47
:10079000704700BF80B584B000AF78600B46FB7037
:1007A0000223FB737B68D3F81432002B0CD07B68D8
:1007B000D3F814321B68FA781146786898470346D4
:1007C000002B01D10023FB73FB7B18461037BD467D
:1007D00080BD00BF80B582B000AF78600B46FB7073
:1007E0007B68D3F814325B68FA78114678689847CA
:1007F000002318460837BD4680BD00BF80B582B0D3
:1008000000AF786039607B6803F502733968184679
:1008100000F0A2FD7B680122C3F8F4217B68B3F8E5
:100820000E321A467B68C3F8F8217B6893F80832C9
:1008300003F01F03012B0BD0022B11D0002B17D17B
:100840007B6803F502731946786800F0CFF91AE067
:100850007B6803F502731946786800F017FA12E016
:100860007B6803F502731946786800F043FA0AE0E2
:100870007B6893F8083223F07F03DBB2194678686F
:1008800009F090FC00BF002318460837BD4680BD24
:1008900080B586B000AFF8600B467A60FB72FB7AD9
:1008A000002B38D1FB6803F582737B61FB68D3F8BA
:1008B000F431032B42D17B699A687B69DB689A42E9
:1008C00014D97B699A687B69DB68D21A7B699A6064
:1008D0007B69DA687B699B68934228BF13469BB2A9
:1008E0001A467968F86800F02FFE27E0FB68D3F815
:1008F00014321B69002B0AD0FB6893F8FC31032BE0
:1009000005D1FB68D3F814321B69F8689847F8687A
:1009100000F02CFE12E0FB68D3F814329B69002B28
:100920000CD0FB6893F8FC31032B07D1FB68D3F89C
:1009300014329B69FA7A1146F868984700231846E2
:100940001837BD4680BD00BF80B586B000AFF860E7
:100950000B467A60FB72FB7A002B6CD1FB68143378
:100960007B61FB68D3F8F431022B57D17B699A681D
:100970007B69DB689A4215D97B699A687B69DB6879
:10098000D21A7B699A607B699B689BB21A46796828
:10099000F86800F0A9FD002300220021F86809F0A2
:1009A00009FD3BE07B695B687A69D268B3FBF2F1D1
:1009B00002FB01F29B1A002B1CD17B695A687B69F0
:1009C000DB689A4216D37B695A68FB68D3F8F83122
:1009D0009A420FD200220021F86800F085FDFB68E2
:1009E0000022C3F8F821002300220021F86809F052
:1009F000E1FC13E0FB68D3F81432DB68002B0AD06B
:100A0000FB6893F8FC31032B05D1FB68D3F8143253
:100A1000DB68F8689847F86800F0BCFDFB6893F85D
:100A20000032012B1AD1F868FFF7A8FEFB680022FC
:100A300083F8002212E0FB68D3F814325B69002BC4
:100A40000CD0FB6893F8FC31032B07D1FB68D3F87B
:100A500014325B69FA7A1146F86898470023184601
:100A60001837BD4680BD00BF80B582B000AF78604A
:100A7000402300220021786809F020FB7B68402297
:100A8000C3F81021402300228021786809F016FB6A
:100A90007B6840221A627B68012283F8FC217B6814
:100AA000D3F81832002B09D07B68D3F814325B6876
:100AB0007A685268D2B2114678689847002318467F
:100AC0000837BD4680BD00BF80B483B000AF7860FA
:100AD0000B46FB707B68FA781A74002318460C37B3
:100AE000BD465DF8047B704780B483B000AF78608A
:100AF0007B6893F8FC217B6883F8FD217B680422E6
:100B000083F8FC21002318460C37BD465DF8047BB2
:100B1000704700BF80B483B000AF78607B6893F803
:100B2000FD217B6883F8FC21002318460C37BD4665
:100B30005DF8047B704700BF80B582B000AF78607D
:100B40007B6893F8FC31032B0BD17B68D3F814320C
:100B5000DB69002B05D07B68D3F81432DB69786839
:100B60009847002318460837BD4680BD80B483B03F
:100B700000AF78600B46FB70002318460C37BD466B
:100B80005DF8047B704700BF80B483B000AF78602D
:100B90000B46FB70002318460C37BD465DF8047BFE
:100BA000704700BF80B483B000AF78600023184660
:100BB0000C37BD465DF8047B704700BF80B582B03E
:100BC00000AF78607B68012283F8FC217B68D3F852
:100BD00014325B687A685268D2B2114678689847D6
:100BE000002318460837BD4680BD00BF80B584B0DD
:100BF00000AF786039600023FB733B685B78092B9A
:100C000039D801A252F823F0590C00086D0C0008E5
:100C1000770C0008630C0008770C00083B0C0008F8
:100C2000310C0008770C00084F0C0008450C000838
:100C30003968786800F036F922E03968786800F0A1
:100C400025FA1DE03968786800F05EFA18E0396826
:100C5000786800F0E1FA13E03968786800F00EFB7C
:100C60000EE03968786800F033FB09E0396878688D
:100C700000F04AFB04E03968786800F0ABFB00BF85
:100C8000FB7B18461037BD4680BD00BF80B584B0E1
:100C900000AF786039600023FB737B6893F8FC3108
:100CA000032B1BD13B689B88DBB2012B11D87B68DF
:100CB000D3F814329B683968786898473B68DB88BA
:100CC000002B10D1FB7B002B0DD1786800F04EFC7F
:100CD00009E03968786800F07DFB04E039687868DD
:100CE00000F078FB00E000BF002318461037BD4637
:100CF00080BD00BF80B584B000AF7860396000234C
:100D0000FB733B689B88BB733B681B7803F06003F5
:100D1000202B08D17B68D3F814329B683968786837
:100D200098470023BAE03B685B78012B39D0032B4E
:100D300002D0002B6BD0B0E07B6893F8FC31022B23
:100D400002D0032B0CD025E0BB7B002B27D0BB7B34
:100D5000802B24D0BB7B1946786809F023FA1EE06B
:100D60003B685B88002B0AD1BB7B002B07D0BB7B89
:100D7000802B04D0BB7B1946786809F013FA7B6896
:100D8000D3F814329B68396878689847786800F01F
:100D9000EDFB05E03968786800F01CFB00E000BF5F
:100DA0007BE07B6893F8FC31022B02D0032B0CD044
:100DB00024E0BB7B002B26D0BB7B802B23D0BB7BCE
:100DC0001946786809F0EEF91DE03B685B88002B56
:100DD0001BD1BB7B03F07F03002B0BD0BB7B1946E1
:100DE000786809F015FA7B68D3F814329B68396883
:100DF00078689847786800F0B9FB06E03968786849
:100E000000F0E8FA02E000BF47E000BF45E07B6881
:100E100093F8FC31022B02D0032B0BD036E0BB7BC6
:100E200003F07F03002B36D0BB7B1946786809F0AE
:100E3000B9F930E097F90E30002B08DABB7B03F0EC
:100E40007F0301331B017A681344043307E0BB7B43
:100E500003F07F0310331B017A6813440433BB6033
:100E6000BB7B1946786809F009FA0346002B03D0CA
:100E7000BB6801221A6002E0BB6800221A60BB68EE
:100E800002221946786800F013FB05E0396878689B
:100E900000F0A0FA00E000BF00BFFB7B184610374F
:100EA000BD4680BD80B584B000AF786039603B68D6
:100EB0005B881B0A9BB2013B062B00F2C98001A292
:100EC00052F823F0E10E0008F90E0008390F00086F
:100ED0005110000851100008FD0F000823100008F1
:100EE0007B68D3F810321B687A68127C07F10A011C
:100EF00010469847F860B0E07B681B7C002B0DD152
:100F00007B68D3F814329B6A07F10A0210469847AF
:100F1000F860FB68013302221A709EE07B68D3F808
:100F20001432DB6A07F10A0210469847F860FB6842
:100F3000013302221A7090E03B685B88DBB2052B1C
:100F400056D801A252F823F0610F0008790F00086B
:100F5000910F0008A90F0008C10F0008D90F000861
:100F60007B68D3F810325B687A68127C07F10A015B
:100F700010469847F86040E07B68D3F810329B68D1
:100F80007A68127C07F10A0110469847F86034E04D
:100F90007B68D3F81032DB687A68127C07F10A01AB
:100FA00010469847F86028E07B68D3F810321B6938
:100FB0007A68127C07F10A0110469847F8601CE035
:100FC0007B68D3F810325B697A68127C07F10A01FA
:100FD00010469847F86010E07B68D3F810329B69A0
:100FE0007A68127C07F10A0110469847F86004E01D
:100FF0003968786800F0EEF944E02EE07B681B7CED
:10100000002B09D17B68D3F814325B6B07F10A021D
:1010100010469847F86020E03968786800F0DAF9FF
:1010200030E07B681B7C002B0DD17B68D3F8143239
:101030001B6B07F10A0210469847F860FB68013302
:1010400007221A7009E03968786800F0C3F919E0DE
:101050003968786800F0BEF914E07B89002B11D064
:101060003B68DB88002B0DD03B68DA887B89934294
:1010700028BF13469BB27B817B891A46F968786842
:1010800000F016FA1037BD4680BD00BF80B584B0B1
:1010900000AF786039603B689B88002B2CD13B689F
:1010A000DB88002B28D13B685B88DBB203F07F0331
:1010B000FB737B6893F8FC31032B04D139687868A3
:1010C00000F088F91CE07B68FA7B83F8FE21FB7B4B
:1010D0001946786809F0FEF8786800F047FAFB7B5B
:1010E000002B04D07B68022283F8FC2108E07B6897
:1010F000012283F8FC2103E03968786800F06AF97E
:1011000000BF1037BD4680BD80B582B000AF7860AB
:1011100039603B685B88DAB23E4B1A703D4B1B78F6
:10112000012B04D93968786800F054F96FE07B68C6
:1011300093F8FC31022B02D0032B23D062E0354B15
:101140001B78002B1AD0334B1B781A467B685A60E9
:101150007B68032283F8FC212E4B1B7819467868A4
:10116000FFF718FB0346022B04D13968786800F0BA
:1011700031F94CE0786800F0F9F948E0786800F05F
:10118000F5F944E0234B1B78002B12D17B68022237
:1011900083F8FC211F4B1B781A467B685A601D4B55
:1011A0001B7819467868FFF715FB786800F0DEF9C0
:1011B0002DE0184B1B781A467B685B689A421DD05D
:1011C0007B685B68DBB219467868FFF703FB114B5D
:1011D0001B781A467B685A600E4B1B781946786854
:1011E000FFF7D8FA0346022B04D13968786800F07B
:1011F000F1F80CE0786800F0B9F908E0786800F0E0
:10120000B5F904E03968786800F0E4F800BF083701
:10121000BD4680BD6102002080B582B000AF78601D
:1012200039603B68DB88012B04D03968786800F0AE
:10123000D1F81FE07B6893F8FC31022B02D0032B1E
:101240000BD012E07B6800229A607B680833012291
:101250001946786800F02CF90CE07B680433012211
:101260001946786800F024F904E03968786800F0DD
:10127000B1F800BF00BF0837BD4680BD80B582B061
:1012800000AF786039607B6893F8FC31023B012B3A
:1012900015D87B680122DA607B68D3F80432002B12
:1012A00005D07B68DB6843F002027B68DA607B680C
:1012B0000C3302221946786800F0FAF804E0396825
:1012C000786800F087F800BF00BF0837BD4680BDD2
:1012D00080B582B000AF786039603B685B88012BD5
:1012E0000DD17B680122C3F804227B68D3F8143245
:1012F0009B68396878689847786800F037F900BFCC
:101300000837BD4680BD00BF80B582B000AF7860B1
:1013100039607B6893F8FC31023B012B12D83B68A3
:101320005B88012B13D17B680022C3F804227B6801
:10133000D3F814329B68396878689847786800F069
:1013400015F904E03968786800F044F800E000BF5F
:1013500000BF0837BD4680BD80B483B000AF786061
:1013600039603B681A787B681A703B685A787B68EA
:101370005A703B6802331B789AB23B6803331B7880
:101380009BB21B029BB213449AB27B685A803B68A3
:1013900004331B789AB23B6805331B789BB21B025F
:1013A0009BB213449AB27B689A803B6806331B78E1
:1013B0009AB23B6807331B789BB21B029BB2134463
:1013C0009AB27B68DA8000BF0C37BD465DF8047BBB
:1013D000704700BF80B582B000AF7860396080216F
:1013E000786808F0DFFE0021786808F0DBFE00BFB7
:1013F0000837BD4680BD00BF80B586B000AFF8603D
:10140000B9607A600023FB75FB68002B33D0F86865
:1014100000F036F8034601339BB25B009AB27B685A
:101420001A80FB7D5A1CFA751A46BB6813447A6809
:101430001288D2B21A70FB7D5A1CFA751A46BB6824
:10144000134403221A7012E0FB7D5A1CFA751A46E7
:10145000BB681A44FB68591CF9601B781370FB7D4C
:101460005A1CFA751A46BB68134400221A70FB68AE
:101470001B78002BE8D100BF1837BD4680BD00BFE8
:1014800080B485B000AF78600023FB7305E0FB7B80
:101490000133FB737B6801337B607B681B78002B17
:1014A000F5D1FB7B18461437BD465DF8047B7047C9
:1014B00080B584B000AFF860B9601346FB80FB686C
:1014C0000222C3F8F421FA88FB689A61FA88FB6863
:1014D000DA61FB88BA680021F86808F031FF002360
:1014E00018461037BD4680BD80B584B000AFF860A7
:1014F000B9601346FB80FB88BA680021F86808F0E1
:101500001FFF002318461037BD4680BD80B584B04C
:1015100000AFF860B9601346FB80FB680322C3F894
:10152000F421FA88FB68C3F80821FA88FB68C3F83D
:101530000C21FB88BA680021F86808F03BFF002303
:1015400018461037BD4680BD80B584B000AFF86046
:10155000B9601346FB80FB88BA680021F86808F080
:1015600029FF002318461037BD4680BD80B582B0E4
:1015700000AF78607B680422C3F8F42100230022C6
:101580000021786808F0DCFE002318460837BD46C5
:1015900080BD00BF80B582B000AF78607B68052257
:1015A000C3F8F421002300220021786808F002FF2C
:1015B000002318460837BD4680BD00BFB0B58CB0CB
:1015C00000AF002387F82330764B3C1D1D460FCD1E
:1015D0000FC495E8070084E80700002387F82F3040
:1015E000002387F82E303DE0012006F05BFF01214B
:1015F0006D4806F081FE97F82F309B0007F130020E
:10160000134453F82C3C0121184606F085FE0121B5
:10161000664806F0F5FE97F82F309B0007F1300280
:10162000134453F82C3C184600F042F9002160485E
:1016300006F062FE07F1230207F124031146184663
:1016400000F0CEF807F1230207F1240311461846F3
:1016500000F012F90346002B09D197F82F3001331F
:1016600087F82F3097F82F30062BBDD900E000BF48
:1016700097F82F30072B00F08C80012006F012FF26
:1016800001214C4806F038FE97F82F309B0007F1F7
:101690003002134453F82C3C0121184606F03CFE5E
:1016A0000121424806F0ACFE97F82F30042B26D0DB
:1016B0000121414806F0A4FE0021404806F01CFE2E
:1016C00007F1230207F124031146184600F088F8B9
:1016D0004FF4164000F0ECF807F1230207F1240361
:1016E0001146184600F0C8F80346002B04D001212B
:1016F000334806F085FE02E0012387F82E3097F884
:101700002E30002B45D1012006F0CCFE01212D48C2
:1017100006F076FE00212C4806F0EEFD07F12302CC
:1017200007F124031146184600F05AF807F1230286
:1017300007F124031146184600F09EF80346002BDB
:1017400027D00121214806F05BFE012006F0AAFE09
:1017500001211F4806F054FE00211E4806F0CCFD72
:1017600007F1230207F124031146184600F038F868
:1017700007F1230207F124031146184600F07CF814
:101780000346002B05D00121134806F039FE012342
:1017900004E00121114806F033FE002318463037DB
:1017A000BD46B0BDB45E0108D45C0108045D01080B
:1017B0000C5D0108105D0108405D0108745D0108C1
:1017C000805D01089C5D0108D85D0108E85D0108A5
:1017D0000C5E01084C5E0108585E0108845E010839
:1017E00080B586B000AF7860396009F0D9F938610A
:1017F0003B6800221A701F4BDB8DFB8229E008F04A
:1018000063FA1C4BDB8D9BB2FA8A9A4221D0194BAA
:10181000996A184B9A8DFB8AB3FBF2F002FB00F237
:101820009B1A9BB20B441B78FB733B681B78092BFC
:101830000CD83B681B781A467B681344FA7B1A70F5
:101840003B681B780133DAB23B681A70FB8A0133BC
:10185000FB8209F0A5F902463B69D31A40F6B7327C
:101860009342CCD9012006F01DFE00BF1837BD46BB
:1018700080BD00BF3403002080B483B000AF786027
:1018800039603B681B78012B0AD97B681B784F2B8A
:1018900006D17B6801331B784B2B01D1012300E07B
:1018A000002318460C37BD465DF8047B704700BF27
:1018B00080B582B000AF7860084A7B685360074803
:1018C0000DF0C2FA0346002B03D00121044806F0B4
:1018D00097FD00BF0837BD4680BD00BF3403002020
:1018E000D05E010880B400AF044B1B680133034A8B
:1018F000136000BFBD465DF8047B704764020020A2
:1019000080B400AF094B1A68094BA3FB02131B09F3
:10191000322101FB03F3D31A002B0CBF0123002358
:10192000DBB21846BD465DF8047B704764020020B8
:101930001F85EB5180B400AF0A4B19680A4BA3FB1B
:101940000123DA0813469B0013445B00CA1A002ADD
:101950000CBF01230023DBB21846BD465DF8047BB3
:10196000704700BF64020020CDCCCCCC80B500AF66
:1019700009F016F902460E4B1B68D31AB3F5FA6F3D
:1019800002D9DFED0C7A10E00B4B1B68002B02D163
:10199000DFED087A09E0084B1B6807EE903AB8EED5
:1019A000677ADFED066AC6EE877AB0EE670A80BD19
:1019B00070020020000000006C0200200000A04225
:1019C00080B400AF044B1B6807EE903AB0EE670A94
:1019D000BD465DF8047B70477402002080B400AF00
:1019E000044B1B6807EE903AB0EE670ABD465DF8FF
:1019F000047B70476802002080B483B000AF114BB5
:101A00005B6A7B60104BD3ED037AF5EE407AF1EE22
:101A100010FA05D17B6807EE903AF8EEE77A09E014
:101A20007B6807EE903AB8EEE77A074BD3ED037A7E
:101A300067EE277AB0EE670A0C37BD465DF8047B87
:101A4000704700BF000C0040D407002080B400AFF6
:101A5000044B022283F8512000BFBD465DF8047B91
:101A6000704700BF3808002080B483B000AF87ED16
:101A7000010AD7ED017AF5EEC07AF1EE10FA04D53D
:101A8000D7ED017AF1EE677A01E0D7ED017AB0EE99
:101A9000670A0C37BD465DF8047B704780B500AF20
:101AA000044BDB7D184606F00DFAF0EE407AB0EEFE
:101AB000670A80BDD407002080B500AF044B1B7EB1
:101AC000184606F0FFF9F0EE407AB0EE670A80BDE6
:101AD000D407002080B500AF044B5B7E184606F0AB
:101AE000F1F9F0EE407AB0EE670A80BDD40700202D
:101AF00080B500AF044B9B7E184606F0E3F9F0EE8C
:101B0000407AB0EE670A80BDD407002080B500AFF0
:101B1000044BDB7E184606F0D5F9F0EE407AB0EEC5
:101B2000670A80BDD407002080B500AF054B93F84D
:101B30005630184606F0C6F9F0EE407AB0EE670A65
:101B400080BD00BFD407002080B500AF054B93F8DF
:101B50005230184606F0B6F9F0EE407AB0EE670A59
:101B600080BD00BFD407002080B584B000AF9C4B7F
:101B70009B7D184606F0A6F987ED030A97ED037AD8
:101B8000D7ED037AB4EE677AF1EE10FA02D74FF090
:101B900000031EE1934B93F85130022B04D0914B7C
:101BA00093F85130032B2FD1D7ED037AF5EE407A1D
:101BB000F1EE10FA28D08B4B93F85130022B20D144
:101BC0000221894806F098FB022097ED030A06F0EF
:101BD000BDFB0221854806F08FFBD7ED037AFDEEB1
:101BE000E77AC7ED017ABB881BB20221184606F0DE
:101BF0004BFB02217E4806F07FFB7A4B032283F8E1
:101C000051204FF00003E4E0FFF7F6FE87ED020AF3
:101C1000744B93F85830012B40F0DA80714B93F8F5
:101C20005130002B08D06F4B022283F8582002213C
:101C3000704806F0E5FBCBE0694B1B7F032B08D017
:101C4000684B022283F8582002216B4806F0D8FB2B
:101C5000BEE0D7ED037AF5EE407AF1EE10FA08D047
:101C6000604B022283F858200221644806F0C8FB2A
:101C7000AEE0634BD3ED037A9FED627AF4EE477AE0
:101C8000F1EE10FA08D1574B022283F858200221B6
:101C90005D4806F0B5FB9BE0594BD3ED047A9FED10
:101CA0005B7AF4EE477AF1EE10FA08D14D4B02223E
:101CB00083F858200221564806F0A2FB88E0484BE2
:101CC000D3ED037AF5EE407AF1EE10FA08D1454BE8
:101CD000022283F8582002214E4806F091FB77E05B
:101CE00008F05EFF02463F4BDB6DD31AB3F5FA6F87
:101CF0006ED23C4B93F95930002B1BD1404BD3EDA6
:101D0000037A97ED027A37EE677A3D4BD3ED046A9A
:101D1000D7ED027A76EEE77AB4EEE77AF1EE10FAD2
:101D200004D5304B012283F8592003E02D4BFF22CC
:101D300083F8592008F034FF02462A4B1B6ED31A51
:101D400041F28732934203D84FF00003FB603FE03B
:101D5000244B93F95930012B1BD1294BD3ED047A35
:101D60009FED2D7A37EEC77AD7ED027AB4EEE77A97
:101D7000F1EE10FA03DD1A4B1B6CFB6028E008F053
:101D80000FFF0246174B1A66164BFF2283F85920A5
:101D90001EE01B4BD3ED037A9FED1F7A37EE877A57
:101DA000D7ED027AB4EEE77AF1EE10FA07D50C4BD4
:101DB000D3ED107AF1EE677AC7ED037A08E008F008
:101DC000EFFE0246074B1A66064B012283F85920A4
:101DD000FB6807EE903AB0EE670A1037BD4680BD4B
:101DE000D407002038080020145F0108345F010880
:101DF0004C5F0108A05F0108E45F0108146001085E
:101E0000BC070020000000CF3C6001080000004F2C
:101E10005C600108806001080000304280B592B02B
:101E200000AF87ED010AFFF79FFE87ED0E0AFFF76F
:101E3000E3FD87ED0D0ACF4BD3ED0E7AB7EE007AB6
:101E400037EE677AD7ED0E7A27EE277AD7ED0E7A3E
:101E500027EE277AD7ED0E7A27EE277AC54BD3EDFA
:101E60000E6AD7ED0E7A66EEA77A77EE277AC7ED7F
:101E7000117AC04B1B7F012B00F01682BE4B5B6EAC
:101E80003B63BE4BD3ED007A97ED117A77EE677A1C
:101E9000C7ED0B7A97ED0B7AD7ED0C7AB4EEE77AB3
:101EA000F1EE10FA0ADCD7ED0C7AB1EE677AD7EDD5
:101EB0000B7AB4EEE77AF1EE10FA04DDAE4B0122B4
:101EC00083F8542003E0AC4B002283F8542097EDB4
:101ED0000B7AD7ED0C7AB4EEE77AF1EE10FA09DD61
:101EE000A64B93ED007AD7ED0C7A77EE277AC7ED03
:101EF000117A13E0D7ED0C7AB1EE677AD7ED0B7A51
:101F0000B4EEE77AF1EE10FA08DD9C4B93ED007A1F
:101F1000D7ED0C7A77EE677AC7ED117A964B93F886
:101F20005130002B40F0C081924B1B7F012B00F001
:101F3000BB81904B1B7F022B00F0B681904B93ED41
:101F4000037A8F4BD3ED047AB4EEE77AF1EE10FA10
:101F500009DD8B4BDB68BB62894B1B69884AD36008
:101F6000874ABB6A136197ED0D7AD7ED017A37EE98
:101F7000277A834BD3ED047AB4EEE77AF1EE10FAC8
:101F800016D597ED0D7AD7ED017A37EE677A7C4B4F
:101F9000D3ED037AB4EEE77AF1EE10FA08DD764B72
:101FA000002283F85620744B002283F857207BE1EF
:101FB00097ED0D7AD7ED017A37EE277A704BD3ED96
:101FC000047AB4EEE77AF1EE10FAC0F2A680D7ED0B
:101FD000117AF5EEC07AF1EE10FA40F3918000220A
:101FE0001021684809F01CFA654B93ED047AD7ED8F
:101FF0000D7AB4EEE77AF1EE10FA06D85F4B4FF0A7
:1020000000021A605D4B1B68CEE35C4B93ED007AD7
:10201000D7ED0C7A77EE677AC7ED117AD7ED117AA2
:10202000F5EEC07AF1EE10FA02D54FF000037B64B2
:10203000514B93F8563083F00103DBB2002B18D0DC
:102040000221514806F058F94D4B93ED047AD7ED33
:102050000D7A77EE677A0220B0EE670A06F076F91D
:1020600002214A4806F048F9022097ED010A06F0DD
:10207000DBF9414B012283F856203E4BD3ED087A21
:10208000F5EE407AF1EE10FA47D097ED0D7AD7EDE4
:10209000017A37EE277A3A4BD3ED046A354BD3ED0C
:1020A000087A76EEA76A334B93ED086AD7ED017A8A
:1020B00026EE276ADFED365AC6EE257A76EEA77A47
:1020C000B4EEE77AF1EE10FA27DB2B4B93F857309A
:1020D00083F00103DBB2002B03D002212D4806F070
:1020E0008FF9254B012283F8572000221021254823
:1020F00009F096F9214A7B6C13604FF0000353E31B
:102100001D4B002283F856201B4B002283F85720DA
:10211000012210211B4809F083F997ED0D7AD7EDC4
:10212000017A37EE677A164BD3ED037AB4EEE77A8D
:10213000F1EE10FA00F2B880D7ED117AF5EEC07A20
:10214000F1EE10FA40F1A380002210210D4809F0B1
:1021500067F90B4B93ED037AD7ED0D7AB4EEE77A7E
:10216000F1EE10FA18DB054B4FF000021A604FF049
:10217000000319E3D407002038080020680200207B
:10218000BC07002000040240B0600108D0600108D4
:102190000000C842F0600108BD4B93ED007AD7ED16
:1021A0000C7A77EE277AC7ED117AD7ED117AF5EE32
:1021B000C07AF1EE10FA02DD4FF000037B64B54BFC
:1021C00093F8563083F00103DBB2002B18D00221C4
:1021D000B14806F091F8B14BD3ED037A97ED0D7A43
:1021E00077EE677A0220B0EE670A06F0AFF80221B8
:1021F000AB4806F081F8022097ED010A06F014F9C9
:10220000A44B012283F85620A64BD3ED087AF5EEB5
:10221000407AF1EE10FA47D097ED0D7AD7ED017ABA
:1022200037EE677A9D4BD3ED036A9E4BD3ED087A68
:1022300076EEE76A9B4B93ED086AD7ED017A26EEBE
:10224000276ADFED995AC6EE257A76EEE77AB4EE84
:10225000E77AF1EE10FA27D88E4B93F8573083F0D7
:102260000103DBB2002B03D00221904806F0C8F82E
:10227000884B012283F85720002210218C4809F056
:10228000CFF8834A7B6C13604FF000038CE2814BE4
:10229000002283F856207F4B002283F8572001222A
:1022A0001021834809F0BCF8794A7B6C1360FFF772
:1022B000F5FBB0EE407ADFED7F7AB4EEE77AF1EE2F
:1022C00010FA0DDD734B93F85130002B03D002212F
:1022D000794806F095F86F4B002283F8512019E0F9
:1022E0006C4B93F85130012B06D0744B00221A70BE
:1022F0000221734806F084F8664B012283F85120CE
:10230000704B93ED007AD7ED117A77EE277A6D4B0B
:10231000C3ED007AFFF7D0FB87ED090AD7ED097A04
:102320009FED647AF4EEC77AF1EE10FA40F374810F
:10233000584B93F85130012B40F06E81624BD3ED36
:10234000007A9FED5C7AF4EEC77AF1EE10FA00F2B3
:1023500063815D4BD3ED007AF4EE677AF1EE10FA0B
:1023600080F15A81554B1B78002B0ED14B4A7B6B69
:10237000D360524B01221A700221544806F040F8F3
:10238000504B4FF000021A6046E1444A7B6B1361E8
:102390004C4BD3ED007AB8EE087AF4EEC77AF1EE42
:1023A00010FA0EDD474BD3ED007AB0EE087AF4EE6A
:1023B000C77AF1EE10FA04D50221454806F020F85C
:1023C0002AE10221434806F01BF8364BD3ED037A8D
:1023D000F5EE407AF1EE10FA40F088802F4B93ED45
:1023E000037A2E4BD3ED047AB4EEE77AF1EE10FACD
:1023F00007D5344BD3ED007AF5EEC07AF1EE10FA42
:1024000012DC264B93ED037A244BD3ED047AB4EE21
:10241000E77AF1EE10FA10DD2A4BD3ED007AF5EEF3
:10242000C07AF1EE10FA08D51E4B4FF07E52DA60FA
:102430000221294805F0E4FF16E01A4B274ADA602A
:10244000164BD3ED037AF1EE677A144BC3ED037AA2
:10245000124BD3ED047AF1EE677A104BC3ED047A98
:1024600002211F4805F0CCFF02211E4805F0C8FFDD
:10247000002264210B4800F021FB38623B6A002BEC
:1024800000F098800221184805F0BAFF92E000BFE2
:102490006802002038080020B0600108BC07002056
:1024A000D0600108D40700200000C842F060010895
:1024B00000040240CDCC4C3F0461010880020020A2
:1024C0002061010878020020840200204461010894
:1024D00050610108A8610108B4610108000080BFD3
:1024E000F06101082C6201086C620108B24B93EDA7
:1024F000037AB14BD3ED047AB4EEE77AF1EE10FA39
:1025000007D5AE4BD3ED007AF5EEC07AF1EE10FAB6
:1025100012DCA94B93ED037AA74BD3ED047AB4EE0A
:10252000E77AF1EE10FA11DDA44BD3ED007AF5EE67
:10253000C07AF1EE10FA09D5A14BD3ED037ABFEEC4
:10254000007AF4EE477AF1EE10FA2FD09A4B93ED21
:10255000037A994BD3ED047AB4EEE77AF1EE10FAF0
:1025600007DD964BD3ED007AF5EEC07AF1EE10FA66
:1025700012D4914B93ED037A8F4BD3ED047AB4EEE2
:10258000E77AF1EE10FA15D58C4BD3ED007AF5EE23
:10259000C07AF1EE10FA0DDD894BD3ED037AB7EE78
:1025A000007AF4EE477AF1EE10FA03D10221854861
:1025B00005F026FF0221844805F09EFE7E4BD3EDF8
:1025C000037A0220B0EE670A05F0C0FE02217F48C0
:1025D00005F092FE784BD3ED047A0220B0EE670A44
:1025E00005F022FF744B93ED037A734BD3ED047A1D
:1025F000B4EEE77AF1EE10FA09DD6F4BDB68FB61B0
:102600006D4B1B696C4AD3606B4AFB6913610322F3
:102610001821694800F0A6FA6D4A7B6A13606D4B79
:1026200093F85130002B06D0654B5B6C3B64644BD8
:102630009B6CFB6305E0624BDB6B3B64604B1B6C8C
:10264000FB63FFF747FA87ED060A97ED067AD7EDA9
:10265000067AB4EE677AF1EE10FA19D6D7ED067A5B
:10266000B7EE007A77EE877AF0EE006A87EEA67A08
:10267000D7ED107ADFED586A77EEE67A67EE277AC3
:102680009FED557A77EE877A524BC3ED197A02E0C7
:10269000504A3B6C5366FFF72BFA87ED050A97ED1E
:1026A000057AD7ED057AB4EE677AF1EE10FA19D60D
:1026B000D7ED057AB7EE007A77EE877AF0EE006A0A
:1026C00087EEA67AD7ED0F7ADFED446A77EEE67AE9
:1026D00067EE277A9FED417A77EE877A3D4BC3ED1F
:1026E0001A7A02E03B4AFB6B9366FFF70FFA87ED1D
:1026F000040A97ED047AD7ED047AB4EE677AF1EE26
:1027000010FA2CD6D7ED047AF5EEC07AF1EE10FA75
:1027100003D52B4B01221A770DE0D7ED047AF5EEA5
:10272000C07AF1EE10FA03DD254B03221A7702E09E
:10273000234B02221A77224B1A7F294B1B789A428D
:102740000DD01F4B1A7F264B1A701D4B1B7F18464E
:1027500004F0A4FF03460221184605F051FEFFF7DE
:10276000E3F987ED030A97ED037AD7ED037AB4EE28
:10277000677AF1EE10FA12D6D7ED037A9FED197A47
:10278000F4EEC77AF1EE10FA09DD124B012283F85C
:10279000582008F005FA02460E4BDA6503E00D4BAF
:1027A000002283F858207B6C07EE903AB0EE670A5F
:1027B0004837BD4680BD00BFBC070020780200201E
:1027C000D407002088620108B8620108C4620108C9
:1027D00084020020380800206F12833ACDCCCC3D13
:1027E0000F010020CDCC4C3F80B58AB000AFFFF781
:1027F00003F9F0EE407AFDEEE77A17EE903AFB61CE
:10280000884B1A68FB69D31A07EE903AF8EEE77A1C
:10281000B0EE670AFFF728F9F0EE407A824BC3ED7D
:10282000007AFFF7A3F887ED060A7F4B1B687B62EF
:102830007D4BD3ED007AB1EE047AF4EEC77AF1EE77
:1028400010FA01D8BB697B62FFF7C8F8F0EE406A66
:10285000764BD3ED197A86EEA77AB0EE470AFFF7EA
:1028600003F987ED050A97ED097AD7ED057A27EE8A
:10287000277AF0EE006AC7EE267AC7ED047A97ED64
:10288000040AFFF7CBFA87ED030AD7ED037AF5EEDA
:10289000C07AF1EE10FA21DD654A664BB3F92E30AD
:1028A0001946644BB3F930300B44604991ED1A7A04
:1028B000D7ED037A27EE277A5E49B1F9321007EE99
:1028C000901AF8EEE77A67EE277AFDEEE77AC7ED21
:1028D000017AB98809B20B44D3632DE0D7ED037AAE
:1028E000F5EEC07AF1EE10FA21D5514A514BB3F909
:1028F0002E3019464F4BB3F93030CB1A4B4991ED7E
:102900001A7AD7ED037A27EE277A4A49B1F93210BD
:1029100007EE901AF8EEE77A67EE277AFDEEE77A8F
:10292000C7ED017AB98809B20B44D36304E0404B88
:10293000404AB2F92E20DA6397ED030A07F0D0FE81
:10294000FFF702F987ED020AD7ED027AF5EEC07AB9
:10295000F1EE10FA1CDD364A364BB3F92E3019462B
:10296000344BB3F930300B443249B1F9321007EE31
:10297000901AB8EEE77AD7ED027A67EE277AFDEE85
:10298000E77AC7ED017AB98809B20B44136428E0ED
:10299000D7ED027AF5EEC07AF1EE10FA1CD5244A92
:1029A000244BB3F92E301946224BB3F93030CB1AF1
:1029B0002049B1F9321007EE901AB8EEE77AD7ED58
:1029C000027A67EE277AFDEEE77AC7ED017AB988D9
:1029D00009B20B44136404E0154B164AB2F92E20D9
:1029E0001A6400233B620FE03B6ADBB2184600F03A
:1029F00025F8F0EE407A104A3B6A9B001344C3ED81
:102A0000007A3B6A01333B623B6A072BECDD0A48E4
:102A100005F034F8034AFB69136000BF2837BD4650
:102A200080BD00BF7C020020740200203808002016
:102A300000040040D40700201403002080B483B0B9
:102A400000AF0346FB71FB790E4A134493F85730ED
:102A5000FF2B02D1DFED0C7A0CE0FB79094A13441D
:102A600093F85730094A143332F8133007EE903A8E
:102A7000F8EE677AB0EE670A0C37BD465DF8047B66
:102A8000704700BFD40700200000C07FA4080020CA
:102A900080B500AF05F0A8FF0246064B1A60054B53
:102AA0001B68054A934201D0002300E0002318462A
:102AB00080BD00BF880200201520200080B584B0B2
:102AC00000AF78600B467B8013463B800E4B1B6843
:102AD000092B01D8022312E03B881B04FB60F86835
:102AE00005F016FD7B881A46F968786805F0CEFD7A
:102AF0007B881A46F968786805F0B2FE03461846E6
:102B00001037BD4680BD00BF8802002080B584B06C
:102B100000AF0346FB80084B1B68092B01D802233A
:102B200006E0FB881B04FB60F86805F0F1FC034637
:102B300018461037BD4680BD8802002080B584B09D
:102B400000AFF860B9601346FB80FB881B04BA68CD
:102B50001946F86805F0ECFE034618461037BD46E6
:102B600080BD00BF80B582B000AF78600B467B802F
:102B700013463B80114B1B88002B19D10F4B1B8830
:102B800001339AB20D4B1A800D4A7B6813600D4ACF
:102B90007B8813803B881B040B4A136008F000F805
:102BA000034603F51C531033084A1360002300E06A
:102BB000012318460837BD4680BD00BF8C020020A7
:102BC0009002002094020020980200209C02002025
:102BD00080B582B000AF324B1B88002B5CD0002345
:102BE0007B602F4B1B88013B042B3FD801A252F87E
:102BF00023F000BF092C0008232C00083B2C000800
:102C0000232C00085D2C0008264B1B68184605F095
:102C100093FC7860224B1B8801339AB2204B1A80B8
:102C200029E005F0CBFF0346002B23D11C4B1B886A
:102C300001339AB21A4B1A801CE01B4B1868194BCF
:102C400019681A4B1B881A4605F038FD7860144B3A
:102C50001B8801339AB2124B1A800CE002211448EF
:102C600005F0CEFB0E4B00221A8004E00C4B002234
:102C70001A8000E000BF7B68002B06D107F090FFB0
:102C800002460C4B1B689A4206D9054B00221A805B
:102C90000221094805F0B4FB00BF0837BD4680BDDE
:102CA0008C02002098020020900200209402002054
:102CB000586301089C02002070630108B0B59CB005
:102CC00000AF07F021FF00F02DFA00F067FD00F0E3
:102CD000B7FA00F0DFFA00F017FB00F05FFB00F03E
:102CE000FBFC06F0C7FD00F0C9FC00F0BFFB00F0E4
:102CF00021FD00F043FE07F05BFC0421B1480AF01F
:102D0000EFFF01221021B04808F08AFB0821AF48EC
:102D10000AF05CFE0346002B03D09021AC4800F083
:102D2000F3FD0C21A9480AF051FE0346002B03D005
:102D30009521A74800F0E8FDFFF7AAFE0346002B07
:102D400003D09B21A24800F0DFFDA24BA24A07CA94
:102D500003C31A709F4B4FF00002DA609D4B9F4AED
:102D60001A629C4B01221A779A4B002283F82C207E
:102D7000984BFF221A76974BFF22DA75954B00226B
:102D80009A75944BFF225A76924BFF229A76914B7A
:102D9000FF22DA768F4B924ADA638E4B904A5A645E
:102DA0008C4B4FF07E521A648A4B4FF07A529A64E1
:102DB000884B4FF478721A82864B1E225A82854BBA
:102DC0004FF42F725A86834B40F2DC52DA85814BE6
:102DD0001E221A867F4B4FF448729A827D4B4CF22A
:102DE00050325A637B4B7F4A9A637A4B3C22A3F85A
:102DF0004E20784B0A22A3F84C20764B0122A3F8F0
:102E00005020744BFF2283F85220724BFF2283F82C
:102E10005320704BFF2283F854206E4BFF2283F81F
:102E200055206C4BFF2283F856200023FB6608E0F8
:102E3000684AFB6E13445733FF221A70FB6E01334E
:102E4000FB66FB6E072BF3DD624B6422A3F8602068
:102E50003B1D002264211846FFF770FE3B1D0B222C
:102E600019465C480FF086FC0346002B11D1594BE4
:102E700018463B1D642219460EF0C6FC5A4A5B4BAD
:102E800014461D460FCD0FC495E8070084E80700DF
:102E900055E03B1D0422564918460FF06BFC0346D3
:102EA000002B0FD1504A534B14461D460FCD0FC473
:102EB0000FCD0FC40FCD0FC495E80300206004347C
:102EC00021803CE03B1D04224B4918460FF052FC88
:102ED0000346002B2BDB3B1D3E4918460FF03AFC06
:102EE000B7F86430A7F86A30B7F86A30002B03D01F
:102EF000B7F86A30642B02D96423A7F86A30B7F8B0
:102F00006A203B1D194633480EF07EFC364A3B4B87
:102F100014461D460FCD0FC40FCD0FC40FCD0FC4E7
:102F20002B681A46228002341B0C237007E02E4ABD
:102F3000334B1046194644231A460EF065FC032213
:102F400018213048FFF7FAFD0B222F492D480FF0CA
:102F500011FC0346002B11D002212C4805F050FA39
:102F6000284B4FF09E421A61264B4FF04F42DA60D9
:102F7000244B254A07CA03C31A7017E002212448CC
:102F800005F0BAF91F4BD3ED037A0220B0EE670AC1
:102F900005F0DCF902211F4805F0AEF9194BD3ED1D
:102FA000047A0220B0EE670A05F03EFA154B1822AB
:102FB0009A82084B93F82C30012B2DD100F060FC45
:102FC0002CE000BF7803002000040240B40300207E
:102FD00084630108D4070020906301080000C84200
:102FE0000AD7233CCDCCCC3D380800209C63010897
:102FF000B8630108C0630108F863010800640108B0
:1030000034640108BC070020786401088464010866
:10301000B8640108C864010800F056FCFEF716FD0C
:1030200007F006FB03464FF40072194635480CF0D2
:103030005BF84FF400723449344806F0ADFA07F0FB
:10304000AFFD0246324B1B68D31A142B42D907F04E
:10305000A7FD02462E4B1A60FEF744FC06F034FE34
:10306000FEF74EFC0346002B01D007F0C9FBFEF72C
:1030700047FC0346002B08D0264B93F85130002B19
:1030800003D12021244808F0E5F9FEF753FC03465C
:10309000002B08D01F4B93F85130012B03D1202176
:1030A0001D4808F0D7F91B4B93F85130022B04D080
:1030B000184B93F85130032B05D1002210211648EC
:1030C00008F0AEF904E001221021134808F0A8F935
:1030D000FFF78AFB06F020FD0346002B03D00F49C3
:1030E000012000F05BFE06F01DFB0346002B03D021
:1030F0000B49002000F052FE05F0A8F8FFF768FD2C
:103100009DE700BF7C070020E4040020340300207A
:103110007403002038080020000402406C0D0020D9
:103120004809002080B598B000AF0023BB60404A3A
:103130003F4B1B6C43F0805313643D4B1B6C03F0FF
:103140008053BB60BB6800237B603A4A394B1B68E5
:1031500043F480431360374B1B6803F480437B6068
:103160007B680B233B634FF480337B630123FB635A
:1031700010233B6401237B640223BB644FF4800370
:10318000FB6404233B6548237B650223BB65032363
:10319000FB6507F13003184609F020FA0346002BBF
:1031A00004D040F26311244800F0AEFB0F23FB6112
:1031B00000233B6200237B620023BB620023FB628F
:1031C00007F11C030021184609F062FC0346002B9E
:1031D00004D040F27111184800F096FB0223FB6006
:1031E0004FF40073BB6107F10C03184609F030FE81
:1031F0000346002B04D04FF4BC710F4800F084FB51
:1032000009F0D6FD02460D4BA3FB02239B0918468D
:1032100007F018FE042007F021FE002200214FF0E5
:10322000FF3007F0D7FD00BF6037BD4680BD00BF4F
:10323000003802400070004084630108D34D6210E2
:1032400080B500AF104B114A1A600F4B00225A6034
:103250000D4B7F229A600C4BFF22DA600A4B002252
:103260001A61094B00225A61074B00229A610648F5
:1032700009F0E4FE0346002B04D040F29511044807
:1032800000F042FB00BF80BD880400200028004001
:103290008463010880B500AF184B194A1A60174BB8
:1032A0004FF482725A60154B00229A60134B002231
:1032B000DA60124B00221A61104B00225A610F4B48
:1032C00000229A610D4B0022DA610C4B00221A6237
:1032D0000A4B00225A62094B00229A62074B0A22CB
:1032E000DA62064809F052FF0346002B04D040F290
:1032F000AB11044800F008FB00BF80BD240700208C
:10330000003001408463010880B500AF012208212C
:103310001E4808F085F81E4B1E4A1A601C4B4FF4DD
:1033200082725A601A4B00229A60194B0022DA60AE
:10333000174B02221A61164B01225A61144B4FF4AB
:1033400000729A61124B0822DA61114B00221A6254
:103350000F4B00225A620E4B00229A620C4B07223E
:10336000DA620B4809F012FF0346002B04D04FF439
:10337000E171094800F0C8FA054B1B68044A12685D
:10338000126842F040021A6000BF80BD0004024093
:10339000F0030020003C00408463010880B58AB03F
:1033A00000AF2F4B2F4A1A602D4B0F225A602C4B27
:1033B00000229A602A4B44F62062DA60284B0022F1
:1033C0001A6127480AF0D6FA0346002B04D040F2CF
:1033D000D711254800F098FA00233B6200237B6256
:1033E00007F1200319461E480BF0D4FC0346002BBE
:1033F00004D04FF4EF711C4800F086FA60237B6024
:1034000040F2DC53BB600023FB6000237B610023A0
:103410003B610023FB610023BB613B1D0822194671
:103420000F480AF059FE0346002B04D04FF4F57103
:103430000D4800F069FA3B1D0C22194608480AF0B5
:103440004BFE0346002B04D040F2EF11064800F07B
:103450005BFA034805F0CCFD00BF2837BD4680BDB0
:10346000B4030020000400408463010880B58CB0E0
:1034700000AF224B224A1A60204B00225A601F4B99
:1034800000229A601D4B4FF0FF32DA601B4B002286
:103490001A610323FB6000233B6101237B6100234E
:1034A000BB610423FB6100233B6201237B62002399
:1034B000BB620423FB6207F10C0319460F480AF0B4
:1034C00079FB0346002B04D040F20B210D4800F09D
:1034D0001BFA00237B600023BB603B1D1946074895
:1034E0000BF058FC0346002B04D040F21221054893
:1034F00000F00AFA00BF3037BD4680BD78030020D7
:10350000000C00408463010880B58CB000AF3E4BD6
:103510003E4A1A603C4B0F225A603B4B00229A6095
:10352000394B4FF6FF72DA60374B00221A61364B87
:1035300000225A6134480AF0F1F90346002B04D006
:1035400040F22621324800F0DFF92F480AF072FAE3
:103550000346002B04D040F22B212D4800F0D4F973
:103560000423FB6160233B6202237B620023FB6236
:1035700007F11C03194624480AF074FE0346002B89
:1035800004D04FF40D71224800F0BEF900237B6196
:103590000023BB6107F1140319461B480BF0FAFB2B
:1035A0000346002B04D040F23B21194800F0ACF94F
:1035B00000237B600123BB600023FB6000233B6191
:1035C0003B1D0822194610480AF0EAFC0346002B6E
:1035D00004D040F245210E4800F096F902237B60AA
:1035E0000223BB603B1D0C22194607480AF0D8FC99
:1035F0000346002B04D04FF41371054800F084F902
:1036000000BF3037BD4680BDA80400200000014047
:103610008463010880B500AF144B154A1A60134B40
:10362000144A5A60114B4FF480529A600F4B4FF47A
:103630000052DA600D4B4FF480621A610B4B04228A
:103640005A610A4B00229A61084B4FF40042DA613A
:1036500006480BF0F9FB0346002B04D040F2612131
:10366000054800F051F900BF80BD00BF48040020AC
:1036700000100140A08601008463010880B500AFFE
:10368000124B134A1A60114B4FF4E1325A600F4B40
:1036900000229A600D4B0022DA600C4B00221A6166
:1036A0000A4B0C225A61094B00229A61074B0022F7
:1036B000DA6106480BF0C8FB0346002B04D040F249
:1036C0007521044800F020F900BF80BD7C07002070
:1036D000004400408463010880B500AF124B134AD8
:1036E0001A60114B4FF416425A600F4B00229A6039
:1036F0000D4B0022DA600C4B00221A610A4B0C229F
:103700005A61094B00229A61074B0022DA61064890
:103710000BF09AFB0346002B04D040F289210448A9
:1037200000F0F2F800BF80BD3403002000480040E4
:103730008463010880B500AF144B154A1A60134B1F
:10374000144A5A60114B4FF480529A600F4B4FF459
:103750000052DA600D4B4FF480621A610B4B082265
:103760005A610A4B00229A61084B4FF40042DA6119
:1037700006480BF069FB0346002B04D040F29D2164
:10378000054800F0C1F800BF80BD00BFE40600207E
:1037900000140140A08601008463010880B58AB04E
:1037A00000AF00233B61324A314B1B6B43F0800377
:1037B00013632F4B1B6B03F080033B613B690023BA
:1037C000FB602B4A2A4B1B6B43F001031363284B0E
:1037D0001B6B03F00103FB60FB680023BB60244A02
:1037E000234B1B6B43F004031363214B1B6B03F050
:1037F0000403BB60BB6800237B601D4A1C4B1B6B32
:1038000043F0020313631A4B1B6B03F002037B604C
:103810007B6800223821174807F002FE10237B61E5
:10382000154BBB610023FB6107F1140319461348D4
:1038300007F060FB01237B610123BB610023FB6177
:1038400007F1140319460D4807F054FB38237B6138
:103850000123BB610023FB6100233B6207F11403DA
:103860001946044807F046FB00BF2837BD4680BD17
:10387000003802400004024000001110000802401D
:1038800080B500AF08210D480AF00AF90C210B4859
:103890000AF006F9FFF7BEFE04F0ACFB034619225E
:1038A000194607480BF020FC01220121054807F0CA
:1038B000B7FD012004F07AF800BF80BDA804002005
:1038C000480400200008024080B500AF0B480BF010
:1038D00009FBFFF719FE00220121094807F0A0FDAE
:1038E000082108480AF006F90C2106480AF002F9F6
:1038F000002004F05BF800BF80BD00BF480400203A
:1039000000080240A804002080B5ADF5805D82B0BB
:1039100000AF07F10803043B186007F10803083BF8
:103920001960144B144AB2F92E20DA6307F1080328
:10393000083B07F10800022219460DF065FF07F168
:103940000803043B18680EF00DFF0346591C07F1ED
:103950000803043B07F10802901C0A4619680DF0A1
:1039600053FF07F1080301224FF480511846FFF777
:10397000A5F8FEE700040040D407002080B400AFA3
:1039800000BFBD465DF8047B704700BF80B582B0C4
:1039900000AF03460A46FB711346BB71BB7919465B
:1039A000074804F0A9FCFB79064A52F82330BA799B
:1039B0001146184604F024FD00BF0837BD4680BDFF
:1039C000E86601081001002080B584B000AF03460E
:1039D000FB71164B1B7883F02003DAB2134B1A707D
:1039E000124B1B7883F04F03DAB2104B1A700F4B57
:1039F0001B7883F04B03DAB20C4B1A700B4B1B781D
:103A000007F108000A4A05210EF022FEFB7919464B
:103A1000084804F071FCFA7907F1080311461846CA
:103A200004F0EEFC00BF1037BD4680BDA0020020B0
:103A3000F4660108FC66010880B582B000AF034659
:103A40000A46FB711346BB71BB791946074804F05F
:103A500053FCBA79FB791146184604F031FC044A4C
:103A6000FB79137000BF0837BD4680BD04670108AD
:103A7000A002002080B584B000AF78600B46FB70D8
:103A80000023FB600CE0FB687A6813441A780D4B46
:103A90001B785340DAB20B4B1A70FB680133FB60A2
:103AA000FB68272B05DCFB687A6813441B78002B26
:103AB000E9D1FB781946786804F01EFC00BF103786
:103AC000BD4680BDA002002080B582B000AF034695
:103AD0000A46FB711346BB71084B1A78FB795340B9
:103AE000DAB2064B1A70BA79FB791146184604F01F
:103AF000E7FB00BF0837BD4680BD00BFA002002025
:103B000090B59DB002AF87ED020B0346FB7107F144
:103B10001400D7E90234CDE90034154A50210EF0E3
:103B200097FD00237B660DE007F114027B6E1344C2
:103B30001A78104B1B785340DAB20E4B1A707B6E1A
:103B400001337B667B6E272B06DC07F114027B6E4C
:103B500013441B78002BE7D1FA7907F114031146BF
:103B6000184604F0C9FB00BF6C37BD4690BD00BFCE
:103B700008670108A002002090B59BB002AF87ED56
:103B8000010A0346FB7078680DF006FB03460C46FD
:103B900007F10C00CDE90034144A50210EF058FD15
:103BA0000023FB650DE007F10C02FB6D13441A784E
:103BB0000F4B1B785340DAB20D4B1A70FB6D01337B
:103BC000FB65FB6D272B06DC07F10C02FB6D134434
:103BD0001B78002BE7D1FA7807F10C031146184641
:103BE00004F08AFB00BF6437BD4690BD1067010832
:103BF000A002002080B598B000AF03460A46FB80C3
:103C000013467B71B7F9063007F10C00144A5021B6
:103C10000EF01EFD0023FB650DE007F10C02FB6DAD
:103C200013441A780F4B1B785340DAB20D4B1A70BD
:103C3000FB6D0133FB65FB6D272B06DC07F10C02E6
:103C4000FB6D13441B78002BE7D17A7907F10C0345
:103C50001146184604F050FB00BF6037BD4680BDDA
:103C600018670108A002002080B584B000AF0346A9
:103C70000A46FB711346BB71FB7907F10800154A30
:103C800003210EF0E5FC0023FB600DE007F10802C4
:103C9000FB6813441A78104B1B785340DAB20E4B72
:103CA0001A70FB680133FB60FB68022B06DC07F12E
:103CB0000802FB6813441B78002BE7D1BA7907F19F
:103CC00008031146184604F017FB00BF1037BD4625
:103CD00080BD00BF1C670108A002002080B598B01D
:103CE00000AF78600B46FB7007F10C007B68154A4B
:103CF00050210EF0ADFC0023FB650DE007F10C0236
:103D0000FB6D13441A78104B1B785340DAB20E4BFC
:103D10001A70FB6D0133FB65FB6D272B06DC07F189
:103D20000C02FB6D13441B78002BE7D1FA7807F1E6
:103D30000C031146184604F0DFFA00BF6037BD4699
:103D400080BD00BF24670108A002002080B483B0BA
:103D500000AF0346FB71FB792F2B05D9FB79392B7B
:103D600002D8FB79303B13E0FB79602B05D9FB7956
:103D7000662B02D8FB79573B0AE0FB79402B05D92B
:103D8000FB79462B02D8FB79373B01E04FF0FF333C
:103D900018460C37BD465DF8047B704780B586B089
:103DA00000AF03463960FB710023FB820023BB8216
:103DB00095E0FB8A5A1CFA821A463B6813441B782A
:103DC0007B747B7C002B00F090804A4B1B78202B6F
:103DD00009D17B7C242B02D07B7C212B7FD1454BCE
:103DE00024221A707BE07B7C0A2B02D07B7C0D2B7B
:103DF00027D1BB8A002B06D1FB8A013B3A681344CA
:103E000000221A7004E0BB8A3A68134400221A7038
:103E1000384B1B782A2B09D1FA7CBB7C9A4205D0FF
:103E2000FB7919460420FFF7B1FD04E0FB793968FE
:103E3000184600F061F80023FB742E4B20221A7004
:103E40004DE07B7C2A2B06D12A4B31221A70FB8A4B
:103E5000013BBB8243E0274B1B78312B10D17B7C8D
:103E60001846FFF773FFF860FB68B3F1FF3F36D0E9
:103E7000FB68DBB21B01BB741E4B32221A702EE0B2
:103E80001C4B1B78322B11D17B7C1846FFF75EFF51
:103E9000B860BB68B3F1FF3F21D0BB68DAB2BB7C2E
:103EA0001344BB74134B2A221A7018E0114B1B7871
:103EB000242B04D1FA7C7B7C5340FB740FE00D4B28
:103EC0001B782A2B05D1FB7919460520FFF75EFDEB
:103ED0000CE0FB7919460020FFF758FD06E0FB8A4D
:103EE000B3F5007FFFF465AF00E000BF1837BD46B3
:103EF00080BD00BF4C01002090B5ADF58D5D83B055
:103F000006AF024607F11003083B196007F11003E2
:103F1000013B1A7007F11003083B1B685B7807F53B
:103F20008B5202F11F02137007F58B5303F11F032D
:103F30001B78313B472B02F21B8601A252F823F07B
:103F40008D5C0008716B0008716B0008716B0008D4
:103F5000716B0008716B0008716B0008716B0008D1
:103F6000716B0008716B0008716B0008716B0008C1
:103F7000716B0008716B0008716B0008716B0008B1
:103F8000716B0008F5560008716B0008716B000832
:103F900075580008716B0008E1630008556300085C
:103FA000D1500008716B0008716B0008716B00083C
:103FB000716B0008334D0008716B00087B6A0008C4
:103FC000716B0008716B000823530008716B0008C7
:103FD000716B0008416B00088D450008716B00088B
:103FE000716B0008716B0008716B0008716B000841
:103FF000716B0008716B0008716B0008716B000831
:10400000614000087153000865570008716B000893
:1040100001500008716B00080B420008FF510008B6
:10402000E1450008D9650008716B0008716B000854
:1040300011520008954B0008716B0008D742000828
:10404000716B0008D54E0008716B0008716B000899
:10405000716B00089D4300080345000811560008D5
:1040600007F11003083B1B68981C07F58B530433BA
:1040700007F58B52C2490EF041FB034607F58B5200
:1040800002F11C02138007F58B5303F11C03B3F9F3
:104090000030022B5DD107F58B53D3ED007AF5EE9E
:1040A000C07AF1EE10FA4ADD07F58B5303F10403F1
:1040B000D3ED007AF5EEC07AF1EE10FA3FDD07F5A8
:1040C0008B53D3ED007AB7EE007AF4EEC77AF1EEB7
:1040D00010FA34D507F58B5303F10403D3ED007ABE
:1040E000B7EE007AF4EEC77AF1EE10FA27D507F5AD
:1040F0008B53D3ED007A9FEDA37A67EE877AA24BBC
:10410000C3ED0F7A07F58B5303F10403D3ED007A67
:104110009FED9C7A67EE877A9B4BC3ED117A07F18E
:104120001003013B1B7819466120FFF785FC07F15E
:104130001003013B1B781846FFF746FC62E007F1CD
:104140001003013B1B7819460E20FFF71FFC02F0FD
:1041500018BD07F58B5303F11C03B3F90030002B96
:1041600048DC07F11003013B1B7819466120FFF77B
:1041700063FC854BD3ED0F7A9FED827AC7EE876A99
:1041800007F11003013B1B781846B0EE660AFFF7F3
:10419000F3FC7D4BD3ED117A9FED7A7AC7EE876AF7
:1041A00007F11003013B1B781846B0EE660AFFF7D3
:1041B000E3FC07F11003013B1B781846FFF704FCF2
:1041C00007F11003013B1B781946704804F094F87E
:1041D0006F4B93F8543007EE903AF8EE677A07F198
:1041E0001003013B1B781846B0EE670A04F01CF977
:1041F00002F0C7BC07F11003013B1B7819460720EA
:10420000FFF7C4FB00BF02F0BCBC07F11003083B82
:104210001B68023307F58A5202F11C025D491846F9
:104220000EF06CFA034607F58B5202F11C02138064
:1042300007F58B5303F11C03B3F90030012B2CD18C
:1042400007F58A5303F11C03D3ED007AF5EEC07A2B
:10425000F1EE10FA17DD07F58A5303F11C031B6812
:10426000494A136207F11003013B1B781946672086
:10427000FFF7E2FB07F11003013B1B781846FFF73D
:10428000A3FB02F07EBC07F11003013B1B7819462B
:104290000E20FFF77BFB02F074BC07F11003013B1B
:1042A0001B7819466720FFF7C7FB374BD3ED087A19
:1042B00007F11003013B1B781846B0EE670AFFF7C1
:1042C0005BFC07F11003013B1B781846FFF77CFBF2
:1042D00000BF02F056BC07F11003013B1B781946E2
:1042E0007020FFF7A9FB2C4BD3ED037AFDEEE77AA4
:1042F00007F11003013B1B78194617EE900AFFF7F0
:10430000EDFC254BD3ED047AFDEEE77A07F11003BF
:10431000013B1B78194617EE900AFFF7DFFCFDF70B
:104320006BFBF0EE407A07F11003013B1B78184657
:10433000B0EE670AFFF720FCFDF742FBF0EE407A93
:1043400007F11003013B1B781846B0EE670AFFF730
:1043500013FCFDF70BFBF0EE407A07F11003013B75
:104360001B781846B0EE670AFFF706FC07F110034A
:10437000013B1B781846FFF727FB02F002BC00BF89
:104380002C6701080AD7A33CD40700203467010832
:104390003808002044670108BC07002007F110031B
:1043A000083B1B68981C07F58A5303F11403043378
:1043B00007F58A5202F1140284490EF09FF9034670
:1043C00007F58B5202F11C02138007F58B5303F1A2
:1043D0001C03B3F90030022B57D107F58A5303F1C0
:1043E0001403D3ED007AF5EEC07AF1EE10FA42DD57
:1043F00007F58A5303F11803D3ED007AF5EEC07A7E
:10440000F1EE10FA37DD07F58A5303F11403D3ED0B
:10441000007AB7EE007AF4EEC77AF1EE10FA2AD8F5
:1044200007F58A5303F11803D3ED007AB7EE007A4B
:10443000F4EEC77AF1EE10FA1DD507F58A5303F1B1
:1044400014031B68624A136407F58A5303F11803C7
:104450001B685F4A936407F11003013B1B78194600
:104460007620FFF7E9FA07F11003013B1B781846A5
:10447000FFF7AAFA42E007F11003013B1B78194647
:104480000E20FFF783FA02F07CBB07F58B5303F194
:104490001C03B3F90030002B28DC07F11003013BAB
:1044A0001B7819467620FFF7C7FA494BD3ED107AEF
:1044B00007F11003013B1B781846B0EE670AFFF7BF
:1044C0005BFB434BD3ED127A07F11003013B1B78E2
:1044D0001846B0EE670AFFF74FFB07F11003013BE8
:1044E0001B781846FFF770FA02F04BBB07F1100378
:1044F000013B1B7819460720FFF748FA00BF02F07E
:1045000040BB002264213248FEF7D8FA07F58B53EE
:1045100003F118031860032218212E48FEF7CEFA83
:10452000024607F58B5303F118031B68134407F584
:104530008B5202F11802136007F11003013B1B7844
:1045400019467720FFF778FA07F58B5303F1180324
:104550001B68002B10D107F11003013B1B78194693
:104560001D48FFF787FA07F11003013B1B78184637
:10457000FFF72AFA02F005BB07F11003013B1B7895
:1045800019460820FFF702FA02F0FBBA0020FEF7F6
:10459000BDFA0320FEF7BAFA07F11003013B1B78BE
:1045A00019465720FFF748FA07F11003013B1B7823
:1045B00019460A48FFF75EFA07F11003013B1B7822
:1045C0001846FFF701FA02F0DCBA00BF2C670108B9
:1045D000D4070020BC07002048670108686701086D
:1045E00007F11003083B1B68981C07F58A5303F179
:1045F0000403991C07F58A5202F1040207F58A5355
:1046000003F104030E33059307F58A5303F1040302
:104610000C33049307F58A5303F104030A3303931D
:1046200007F58A5303F104030833029307F58A530D
:1046300003F104030633019307F58A5303F10403DE
:10464000043300930B46C6490EF058F8034607F5AD
:104650008B5202F11C02138007F58B5303F11C03EC
:10466000B3F90030002B40F3F78107F58A5303F1CB
:104670000403B3F90030002B40F3E48107F58A53BB
:1046800003F10403B3F90030102B00F3DB8107F5CD
:104690008A5303F10603B3F90030002B40F3D281B3
:1046A00007F58A5303F10603B3F90030102B00F32A
:1046B000C98107F58A5303F10803B3F90030002BD1
:1046C00040F3C08107F58A5303F10803B3F90030C2
:1046D000102B00F3B78107F58A5303F10403B3F9F4
:1046E000002007F58A5303F10603B3F900309A421C
:1046F00000F0A88107F58A5303F10403B3F9002001
:1047000007F58A5303F10803B3F900309A4200F029
:10471000998107F58A5303F10603B3F9002007F5E1
:104720008A5303F10803B3F900309A4200F08A81FA
:1047300007F58A5303F10403B3F90030DBB2013B00
:10474000DAB2884B9A7507F11003013B1B781946C2
:104750006920FFF771F9834B9B7D9BB201339BB2BC
:104760001AB207F11003013B1B7819461046FFF7F8
:1047700041FA07F58B5303F11C03B3F90030012B09
:1047800028DD07F58A5303F10603B3F90030002B47
:1047900020DD07F58A5303F10603B3F90030102B2F
:1047A00018DC07F58A5303F10603B3F90030DBB2D6
:1047B000013BDAB26B4BDA756A4BDB7D9BB201339E
:1047C0009BB21AB207F11003013B1B781946104641
:1047D000FFF710FA07F58B5303F11C03B3F9003010
:1047E000022B28DD07F58A5303F10803B3F90030E3
:1047F000002B20DD07F58A5303F10803B3F90030DD
:10480000102B18DC07F58A5303F10803B3F90030C5
:10481000DBB2013BDAB2534B1A76524B1B7E9BB292
:1048200001339BB21AB207F11003013B1B78194602
:104830001046FFF7DFF907F58B5303F11C03B3F9BB
:104840000030032B28DD07F58A5303F10A03B3F97F
:104850000030002B20DD07F58A5303F10A03B3F97A
:104860000030102B18DC07F58A5303F10A03B3F963
:104870000030DBB2013BDAB23A4B5A76394B5B7E01
:104880009BB201339BB21AB207F11003013B1B78B4
:1048900019461046FFF7AEF907F58B5303F11C03D9
:1048A000B3F90030042B28DD07F58A5303F10C031C
:1048B000B3F90030002B20DD07F58A5303F10C0318
:1048C000B3F90030102B18DC07F58A5303F10C0301
:1048D000B3F90030DBB2013BDAB2224B9A76214BBE
:1048E0009B7E9BB201339BB21AB207F11003013BCE
:1048F0001B7819461046FFF77DF907F58B5303F136
:104900001C03B3F90030052B2EDD07F58A5303F1A4
:104910000E03B3F90030002B26DD07F58A5303F1AF
:104920000E03B3F90030102B1EDC07F58A5303F198
:104930000E03B3F90030DBB2013BDAB2094BDA7691
:10494000084BDB7E9BB201339BB21AB207F1100316
:10495000013B1B7819461046FFF74CF904E000BFF5
:1049600078670108D407002007F58B5303F11C0377
:10497000B3F90030062B2ADD07F58A5303F1100343
:10498000B3F90030002B22DD07F58A5303F1100341
:10499000B3F90030102B1ADC07F58A5303F110032A
:1049A000B3F90030DBB2013BDAB2BD4B83F85220E1
:1049B000BB4B93F852309BB201339BB21AB207F152
:1049C0001003013B1B7819461046FFF713F907F552
:1049D0008B5303F11C03B3F90030072B2ADD07F5D5
:1049E0008A5303F11203B3F90030002B22DD07F5DF
:1049F0008A5303F11203B3F90030102B1ADC07F5C8
:104A00008A5303F11203B3F90030DBB2013BDAB28F
:104A1000A34B83F85620A24B93F856309BB2013338
:104A20009BB21AB207F11003013B1B7819461046DE
:104A3000FFF7E0F807F11003013B1B781846FEF77B
:104A4000C3FFA4E007F11003013B1B7819460E20B9
:104A5000FEF79CFF02F095B807F58B5303F11C039A
:104A6000B3F90030002B00F38A8007F11003013BFB
:104A70001B7819466920FEF7DFFF894B9B7D9BB2AF
:104A800001339BB21AB207F11003013B1B781946A0
:104A90001046FFF7AFF8824BDB7D9BB201339BB230
:104AA0001AB207F11003013B1B7819461046FFF7B5
:104AB000A1F87B4B1B7E9BB201339BB21AB207F16C
:104AC0001003013B1B7819461046FFF793F8744B0F
:104AD0005B7E9BB201339BB21AB207F11003013B1C
:104AE0001B7819461046FFF785F86D4B9B7E9BB2ED
:104AF00001339BB21AB207F11003013B1B78194630
:104B00001046FFF777F8664BDB7E9BB201339BB212
:104B10001AB207F11003013B1B7819461046FFF744
:104B200069F85F4B93F852309BB201339BB21AB2D3
:104B300007F11003013B1B7819461046FFF75AF89E
:104B4000574B93F856309BB201339BB21AB207F120
:104B50001003013B1B7819461046FFF74BF807F18D
:104B60001003013B1B781846FEF72EFF07F11003D8
:104B7000013B1B78184602F0B3FD02F002B807F1C2
:104B80001003013B1B7819460720FEF7FFFE00BF0C
:104B900001F0F7BF07F11003083B1B68981C07F5ED
:104BA000895303F11C03991C07F5895202F11C0279
:104BB00007F5895303F11C03043300930B4639496D
:104BC0000DF09CFD034607F58B5202F11C02138089
:104BD00007F58B5303F11C03B3F90030032B63D1AA
:104BE00007F5895303F11C03B3F90030B3F5FA7FDD
:104BF0004CDD07F5895303F11C03B3F90030B3F51D
:104C0000FA6F43DA07F5895303F11E03B3F9003055
:104C1000002B3BDD07F5895303F11E03B3F9003088
:104C2000632B33DC07F58A53B3F90030B3F5967F75
:104C30002CDD07F58A53B3F90030B3F5AF6F25DAF1
:104C400007F11003013B1B7819466E20FEF7F4FEB6
:104C500007F5895303F11C03B3F90020104B1A82A6
:104C600007F5895303F11E03B3F900200C4B5A8258
:104C700007F58A53B3F90020094B9A8207F1100314
:104C8000013B1B781846FEF79FFE4FE007F110032B
:104C9000013B1B7819460E20FEF778FE01F071BF2C
:104CA000D40700209867010807F58B5303F11C0314
:104CB000B3F90030002B31DC07F11003013B1B7806
:104CC00019466E20FEF7B8FECA4BB3F9102007F163
:104CD0001003013B1B7819461046FEF78BFFC54BAE
:104CE000B3F9122007F11003013B1B781946104657
:104CF000FEF780FFBF4BB3F9142007F11003013B0F
:104D00001B7819461046FEF775FF07F11003013BAB
:104D10001B781846FEF758FE01F033BF07F1100369
:104D2000013B1B7819460720FEF730FE00BF01F05B
:104D300028BF07F11003083B1B68981C07F589532F
:104D400003F11403991C07F5895202F1140207F5C7
:104D5000895303F11403043300930B46A6490DF065
:104D6000CDFC034607F58B5202F11C02138007F5B8
:104D70008B5303F11C03B3F90030032B65D107F506
:104D8000895303F11403B3F90030B3F5FA7F52DD10
:104D900007F5895303F11403B3F90030B3F5FA6F43
:104DA00049DA07F5895303F11603B3F90030002BF4
:104DB00041DD07F5895303F11603B3F90030632B86
:104DC00039DC07F5895303F11803B3F90030B3F563
:104DD000967F30DD07F5895303F11803B3F90030EE
:104DE000B3F5617F27DA07F11003013B1B78194601
:104DF0004E20FEF721FE07F5895303F11403B3F9A2
:104E000000207C4BDA8507F5895303F11603B3F9CB
:104E10000020784B1A8607F5895303F11803B3F97C
:104E20000020744B5A8607F11003013B1B7818468B
:104E3000FEF7CAFD4BE007F11003013B1B78194652
:104E40000E20FEF7A3FD01F09CBE07F58B5303F186
:104E50001C03B3F90030002B31DC07F11003013BD8
:104E60001B7819464E20FEF7E7FD624BB3F92E2062
:104E700007F11003013B1B7819461046FEF7BAFEF6
:104E80005C4BB3F9302007F11003013B1B78194646
:104E90001046FEF7AFFE574BB3F9322007F110036F
:104EA000013B1B7819461046FEF7A4FE07F11003DC
:104EB000013B1B781846FEF787FD01F062BE07F143
:104EC0001003013B1B7819460720FEF75FFD00BF6A
:104ED00001F057BE07F11003083B1B68023307F5CA
:104EE000895202F11202454918460DF007FC0346AB
:104EF00007F58B5202F11C02138007F58B5303F167
:104F00001C03B3F90030012B50D107F5895303F18D
:104F10001203B3F90030012B10D007F5895303F1C8
:104F20001203B3F90030B3F1FF3F07D007F58953FF
:104F300003F11203B3F90030002B2DD107F1100358
:104F4000013B1B7819467220FEF776FD07F5895361
:104F500003F11203B3F9003007EE903AF8EEE77A66
:104F6000244BC3ED037A234BD3ED037AFDEEE77AAE
:104F7000C7ED017ABB881AB207F11003013B1B7819
:104F800019461046FEF736FE07F11003013B1B7869
:104F90001846FEF719FD29E007F11003013B1B78C5
:104FA00019460A20FEF7F2FC01F0EBBD07F11003F1
:104FB000013B1B7819467220FEF73EFD0D4BD3EDE9
:104FC000037AFDEEE77AC7ED017ABB881AB207F1E2
:104FD0001003013B1B7819461046FEF70BFE07F144
:104FE0001003013B1B781846FEF7EEFC00BF01F0F2
:104FF000C8BD00BFD407002098670108A467010856
:1050000007F11003083B1B68023307F5895202F1D0
:105010000C02D04918460DF071FB034607F58B5280
:1050200002F11C02138007F58B5303F11C03B3F943
:105030000030012B30D107F5895303F10C031B68B5
:10504000B3F5FA7F1EDD07F5895303F10C031B68E6
:10505000C14A934216DC07F11003013B1B78194645
:105060006520FEF7E9FC07F5895303F10C031B6883
:10507000BA4A536307F11003013B1B781846FEF749
:10508000A3FC22E007F11003013B1B7819460E2018
:10509000FEF77CFC01F075BD07F11003013B1B78A6
:1050A00019466520FEF7C8FCAC4B5A6B07F110039C
:1050B000013B1B7819461046FEF710FE07F110035E
:1050C000013B1B781846FEF77FFC00BF01F059BD7D
:1050D00007F11003083B1B68023307F5895202F100
:1050E0000A029F4918460DF009FB034607F58B524B
:1050F00002F11C02138007F58B5303F11C03B3F973
:105100000030012B47D107F5895303F10A03B3F9A6
:105110000030002B16D107F11003013B1B78194614
:105120004920FEF789FC8D4B002283F82C20FEF7E6
:10513000CBFB07F11003013B1B781846FEF744FC3C
:1051400001F01FBD07F5895303F10A03B3F90030DD
:10515000012B16D107F11003013B1B78194649209A
:10516000FEF76AFC7D4B012283F82C20FEF788FBBA
:1051700007F11003013B1B781846FEF725FC01F0F0
:1051800000BD07F11003013B1B7819460E20FEF706
:10519000FDFB01F0F6BC07F11003013B1B7819463B
:1051A0004920FEF749FC6D4B93F82C301AB207F1F9
:1051B0001003013B1B7819461046FEF71BFD674B99
:1051C00093F82C30002B08D107F11003013B1B781A
:1051D00019466448FEF74EFC07E007F11003013B57
:1051E0001B7819466048FEF745FC07F11003013BA8
:1051F0001B781846FEF7E8FB00BF01F0C2BC07F1C0
:105200001003013B1B78184601F014FF01F0B9BCF4
:1052100007F11003083B1B68023307F5895202F1BE
:1052200008024F4918460DF069FA034607F58B52FC
:1052300002F11C02138007F58B5303F11C03B3F931
:105240000030012B3AD107F5895303F10803B3F974
:105250000030022B0FD007F5895303F10803B3F98F
:105260000030032B07D007F5895303F10803B3F986
:105270000030012B18D107F11003013B1B781946B0
:105280006D20FEF7D9FB07F5895303F10803B3F945
:105290000030DAB2314B1A7707F11003013B1B786B
:1052A0001846FEF791FB39E007F11003013B1B782C
:1052B00019460B20FEF76AFB01F063BC07F11003EF
:1052C000013B1B7819466D20FEF7B6FB234B1B7F75
:1052D0001AB207F11003013B1B7819461046FEF77E
:1052E00089FC07F11003013B1B7819461F48FEF7A4
:1052F000C1FB1A4B1B7F184602F0D0F9024607F19A
:105300001003013B1B7819461046FEF7B3FB07F16B
:105310001003013B1B781846FEF756FB00BF01F057
:1053200030BC07F11003013B1B7819465320FEF7F0
:1053300083FB07F11003013B1B781846FEF744FB83
:1053400007F11003013B1B78184601F07FFF01F0C5
:1053500018BC00BFA8670108A0860100D407002080
:10536000A4670108AC670108CC670108E867010879
:1053700007F11003083B18680DF0F4F903460A2BF7
:1053800040F2FA80022307F58C5202F10E021380DC
:1053900007F58873103B07F58B5202F11402136076
:1053A0000AE007F58C5303F10E031B88013307F560
:1053B0008C5202F10E02138007F58C5303F10E0399
:1053C0001C8807F11003083B18680DF0CBF9034661
:1053D0009C4214D207F58C5303F10E031B88B3F5DE
:1053E000FF7F0CD807F58C5303F10E031A8807F1E1
:1053F0001003083B1B6813441B78202BD1D00023DB
:1054000007F58C5202F10C0213807AE007F58C53F9
:1054100003F10E031B885A1C07F58C5101F10E0194
:105420000A801A4607F11003083B1B6813441B78D7
:105430001846FEF78BFC07F58B5303F11003186039
:1054400007F58C5303F10E031B885A1C07F58C518A
:1054500001F10E010A801A4607F11003083B1B6890
:1054600013441B781846FEF771FC07F58B5303F1C4
:105470000C03186007F58B5303F110031B68B3F19D
:10548000FF3F34D007F58B5303F10C031B68B3F1D6
:10549000FF3F2CD007F58B5303F110031B68DBB2E1
:1054A0001B01DAB207F58B5303F10C031B68DBB267
:1054B000134407F58B5202F10B02137007F58C535E
:1054C00003F10C031B885A1C07F58C5101F10C01E8
:1054D0000A801A4607F58B5303F114031B68134423
:1054E00007F58B5202F10B0212781A7009E007F1EE
:1054F0001003013B1B7819460E20FEF747FA01F016
:1055000040BB07F58C5303F10E031C8807F1100311
:10551000083B18680DF026F90346013B9C420FD268
:1055200007F58C5303F10E031B88B3F5FF7F07D8F3
:1055300007F58C5303F10C031B88632B7FF666AFD2
:1055400007F58C5303F10C031B88632B0AD807F172
:105550001003013B1B7819460E20FEF717FA00BF17
:1055600001F00FBBBF4A07F58873103B1046194680
:1055700064231A460CF048F907F11003013B1B782D
:1055800019466220FEF758FA07F11003013B1B7819
:1055900019462020FEF798FAB24B07F58B5202F11C
:1055A00014021360002307F58C5202F10802136005
:1055B0001EE007F58B5303F114031A6807F58C53AB
:1055C00003F108031B6813441A7807F11003013B29
:1055D0001B7819461046FEF747FB07F58C5303F17D
:1055E00008031B68013307F58C5202F108021360AF
:1055F00007F58C5303F108031B68632BD9D907F116
:105600001003013B1B781846FEF7DEF901F0B9BA2A
:1056100007F11003083B1B68023307F5895202F1BA
:105620000402914918460DF069F8034607F58B52BC
:1056300002F11C02138007F58B5303F11C03B3F92D
:105640000030012B39D107F5895303F10403D3ED61
:10565000007AF5EEC07AF1EE10FA24DD07F58953F1
:1056600003F10403D3ED007AB7EE007AF4EEC77AC3
:10567000F1EE10FA17D807F5895303F104031B68FC
:10568000784A936307F11003013B1B781946782091
:10569000FEF7D2F907F11003013B1B781846FEF71D
:1056A00093F901F06EBA07F11003013B1B7819461C
:1056B0000E20FEF76BF901F064BA07F11003013B0D
:1056C0001B7819467820FEF7B7F9664BD3ED0E7AB2
:1056D00007F11003013B1B781846B0EE670AFEF78E
:1056E0004BFA07F11003013B1B781846FEF76CF9E3
:1056F00001F047BA07F11003013B1B78012B27D1BA
:1057000007F11003013B1B7819464220FEF794F97C
:1057100007F11003013B1B7819465448FEF7AAF91C
:10572000FBF74CFF0346012B08D107F11003013BA7
:105730001B781846FEF748F901F023BA07F1100369
:10574000013B1B7819460C20FEF720F901F019BA2D
:1057500007F11003013B1B7819460D20FEF716F9DF
:1057600001F00FBA07F11003083B1B68981C07F5FE
:105770008953023307F589523D490CF0BFFF0346B8
:1057800007F58B5202F11C02138007F58B5303F1CE
:105790001C03B3F90030022B3CD107F58953B3F950
:1057A0000030002B2CDB07F5895303F10203B3F91A
:1057B0000030002B24DB2B4B0022A3F84E2007F5F2
:1057C0008953B3F90020274BA3F84C2007F58953E0
:1057D00003F10203B3F90020224BA3F8502007F194
:1057E0001003013B1B7819466320FEF725F907F1EA
:1057F0001003013B1B781846FEF7E6F801F0C1B92B
:1058000007F11003013B1B7819460E20FEF7BEF886
:1058100001F0B7B907F11003013B1B78194663206B
:10582000FEF70AF90F4BB3F94C2007F11003013BC7
:105830001B7819461046FEF7DDF90A4BB3F95020E4
:1058400007F11003013B1B7819461046FEF7D2F909
:1058500007F11003013B1B781846FEF7B5F801F07D
:1058600090B900BFD407002044670108EC67010825
:105870000468010807F11003013B1B781946452015
:10588000FEF7DAF807F11003013B1B781946D648FA
:10589000FEF7F0F8D54B1B889BB2B2EE040A18460F
:1058A00004F0D0FEF0EE407A07F11003013B1B78C4
:1058B0001846B0EE670AFEF75FF907F11003013BE7
:1058C0001B781946CA48FEF7D5F8C84B5B889BB2CF
:1058D000B2EE040A184604F0B5FEF0EE407A07F185
:1058E0001003013B1B781846B0EE670AFEF744F937
:1058F00007F11003013B1B781946BE48FEF7BAF8C2
:10590000BA4B5B689FEDB20B184604F0BDFEB0EEDB
:10591000407AF0EE607A07F11003013B1B781846DD
:10592000B0EE470AF0EE670AFEF7EAF807F1100357
:10593000013B1B781946B048FEF79CF8AB4B9B68BF
:105940009FEDA30B184604F09FFEB0EE407AF0EEF8
:10595000607A07F11003013B1B781846B0EE470A46
:10596000F0EE670AFEF7CCF807F11003013B1B7855
:105970001946A248FEF77EF89C4B9B8A9BB29FED8E
:10598000A00A184604F05EFEF0EE407A07F110031C
:10599000013B1B781846B0EE670AFEF7EDF807F1F9
:1059A0001003013B1B7819469648FEF763F88F4BAE
:1059B000D3F81630184604F085FE024607F11003AE
:1059C000013B1B7819461046FEF788F907F11003D2
:1059D000013B1B7819468C48FEF74CF8834B5B8BD8
:1059E0009BB2B2EE040A184604F02CFEF0EE407AA8
:1059F00007F11003013B1B781846B0EE670AFEF76B
:105A0000BBF807F11003013B1B7819467F48FEF7EE
:105A100031F8764BDB699FED700B184604F034FECD
:105A2000B0EE407AF0EE607A07F11003013B1B788C
:105A30001846B0EE470AF0EE670AFEF761F807F184
:105A40001003013B1B7819467148FEF713F8674BAA
:105A50001B6A9FED610B184604F016FEB0EE407A0B
:105A6000F0EE607A07F11003013B1B781846B0EEA8
:105A7000470AF0EE670AFEF743F807F11003013B0F
:105A80001B7819466348FDF7F5FF584B5B6A9FED9D
:105A9000540B184604F0F8FDB0EE407AF0EE607A50
:105AA00007F11003013B1B781846B0EE470AF0EEF1
:105AB000670AFEF725F807F11003013B1B7819462A
:105AC0005548FDF7D7FF494B9B6A9FED450B18469C
:105AD00004F0DAFDB0EE407AF0EE607A07F11003E0
