:020000040800F2
:1000000000000220E94C00081154000821540008A7
:100010002954000831540008395400080000000039
:100020000000000000000000000000004154000833
:100030005154000800000000615400087154000889
:10004000434D0008454D0008474D0008494D000844
:100050004B4D00084D4D00084F4D0008514D000814
:10006000534D0008554D0008574D0008594D0008E4
:10007000815400085D4D000895540008614D00084A
:10008000A9540008BD540008674D0008694D0008D8
:100090006B4D00086D4D00086F4D0008714D000854
:1000A000734D0008754D0008774D00083555000860
:1000B0007B4D00087D4D00087F4D0008814D0008F4
:1000C000834D0008854D0008874D0008894D0008C4
:1000D0008B4D0008D1540008E5540008F95400087D
:1000E000934D0008954D0008974D0008994D000864
:1000F0009B4D00089D4D00089F4D0008A14D000834
:10010000A34D0008A54D0008A74D0008A94D000803
:10011000AB4D0008AD4D0008AF4D0008B14D0008D3
:10012000B34D0008B54D00080D550008B94D000845
:10013000BB4D0008BD4D0008BF4D0008C14D000873
:10014000C34D0008C54D0008C74D000821550008E3
:10015000CB4D0008CD4D0008CF4D0008D14D000813
:10016000D34D0008D54D0008D74D0008D94D0008E3
:10017000DB4D0008DD4D0008DF4D0008E14D0008B3
:10018000E34D0008E54D000810B5054C237833B960
:10019000044B13B10448AFF300800123237010BD5A
:1001A0004002002000000000142A0108084B10B58E
:1001B0001BB108490848AFF300800848036803B939
:1001C00010BD074B002BFBD0BDE81040184700BF07
:1001D0000000000044020020142A01084002002010
:1001E00000000000154B002B08BF134B9D46A3F5E4
:1001F000803A00218B460F461348144A121A0CF01D
:10020000B0FF0F4B002B00D098470E4B002B00D0B7
:1002100098470020002104000D000D48002802D05E
:100220000C48AFF300800CF05BFF2000290001F0C8
:10023000C3FE0CF041FF00BF0000080000000220D8
:100240000000000000000000400200206033002099
:10025000000000000000000080B584B000AF7860AE
:100260000B46FB700023FB737B681B7C002B0ED1BD
:100270004FF4007302228121786805F0F3FD4FF4FA
:10028000007302220121786805F0ECFD0BE04023A9
:1002900002228121786805F0E5FD40230222012138
:1002A000786805F0DFFD082303228221786805F0D5
:1002B000D9FD4FF407700CF039FF03461A467B68EE
:1002C000C3F818227B68D3F81832002B02D101231F
:1002D000FB7326E07B68D3F81832BB607B68D3F8E9
:1002E0001C321B689847BB680022C3F81422BB6805
:1002F0000022C3F818227B681B7C002B09D1BB6845
:10030000D3F804224FF400730121786805F026FF2A
:1003100007E0BB68D3F8042240230121786805F088
:100320001DFFFB7B18461037BD4680BD80B584B0ED
:1003300000AF78600B46FB700023FB738121786867
:1003400005F0CEFD0121786805F0CAFD82217868AC
:1003500005F0C6FD7B68D3F81832002B0ED07B6801
:10036000D3F81C325B6898477B68D3F8183218467C
:100370000CF0E4FE7B680022C3F81822FB7B1846D1
:100380001037BD4680BD00BF80B584B000AF786037
:1003900039607B68D3F81832FB603B681B7803F048
:1003A0006003002B3AD0202B00D043E03B68DB8871
:1003B000002B29D03B681B785BB2002B11DA7B68DD
:1003C000D3F81C329B683A685078F9683A68D2884A
:1003D0009847F9683B68DB881A46786801F068F846
:1003E00029E03B685A78FB6883F800223B68DB8889
:1003F000DAB2FB6883F80122F9683B68DB881A46A9
:10040000786801F083F816E07B68D3F81C329B68AB
:100410003A6850780022396898470CE03B685B786E
:100420000A2B01D00B2B05E001220549786801F069
:100430003FF800BF00BF002318461037BD4680BDFF
:100440005C02002080B485B000AF78600B46FB7082
:100450007B68D3F81832FB607B68D3F81832002B26
:1004600005D0FB680022C3F81422002300E0022319
:1004700018461437BD465DF8047B704780B584B0DC
:1004800000AF78600B46FB707B68D3F81832FB60D6
:10049000FB781946786805F09BFE0246FB68C3F8B6
:1004A0000C227B68D3F81832002B0DD07B68D3F870
:1004B0001C32DB68FA68D2F80402FA6802F50372AB
:1004C00011469847002300E0022318461037BD4626
:1004D00080BD00BF80B584B000AF78607B68D3F882
:1004E0001832FB607B68D3F81C32002B15D0FB68F8
:1004F00093F80032FF2B10D07B68D3F81C329B6836
:10050000FA6892F80002F968FA6892F8012292B249
:100510009847FB68FF2283F8002200231846103713
:10052000BD4680BD80B483B000AF78607B68432255
:100530001A80034B18460C37BD465DF8047B7047A4
:100540008800002080B483B000AF78607B684322CD
:100550001A80034B18460C37BD465DF8047B704784
:100560004400002080B483B000AF78607B684322F1
:100570001A80034B18460C37BD465DF8047B704764
:10058000CC00002080B483B000AF78607B680A2282
:100590001A80034B18460C37BD465DF8047B704744
:1005A0000000002080B485B000AF7860396002237D
:1005B000FB733B68002B05D07B683A68C3F81C22AC
:1005C0000023FB73FB7B18461437BD465DF8047BA4
:1005D000704700BF80B487B000AFF860B9601346C1
:1005E000FB80FB68D3F818327B617B69BA68C3F87B
:1005F0000822FA887B69C3F81022002318461C37AA
:10060000BD465DF8047B704780B485B000AF78606C
:1006100039607B68D3F81832FB60FB683A68C3F82E
:100620000422002318461437BD465DF8047B70474A
:1006300080B584B000AF78607B68D3F81832FB6077
:100640007B68D3F81832002B17D0FB68D3F814322C
:10065000002B10D1FB680122C3F81422FB68D3F8E9
:100660000822FB68D3F810329BB28121786805F02C
:100670003BFD002302E0012300E00223184610376F
:10068000BD4680BD80B584B000AF78607B68D3F88C
:100690001832FB607B68D3F81832002B17D07B68C8
:1006A0001B7C002B09D1FB68D3F804224FF40073A4
:1006B0000121786805F052FD07E0FB68D3F80422B9
:1006C00040230121786805F049FD002300E0022362
:1006D00018461037BD4680BD80B584B000AFF860C5
:1006E000B9601346FB71FB68002B01D102231AE0AD
:1006F000FB68D3F81432002B03D0FB680022C3F848
:100700001422BB68002B03D0FB68BA68C3F8102220
:10071000FB68012283F8FC21FB68FA791A70F868FB
:1007200005F01AFB002318461037BD4680BD00BFF8
:1007300080B485B000AF786039600023FB733B68FC
:10074000002B06D07B683A68C3F814220023FB73A1
:1007500001E00223FB73FB7B18461437BD465DF8AE
:10076000047B704780B582B000AF7860786805F090
:1007700047FB002318460837BD4680BD80B483B0D0
:1007800000AF7860002318460C37BD465DF8047B47
:10079000704700BF80B584B000AF78600B46FB7037
:1007A0000223FB737B68D3F81432002B0CD07B68D8
:1007B000D3F814321B68FA781146786898470346D4
:1007C000002B01D10023FB73FB7B18461037BD467D
:1007D00080BD00BF80B582B000AF78600B46FB7073
:1007E0007B68D3F814325B68FA78114678689847CA
:1007F000002318460837BD4680BD00BF80B582B0D3
:1008000000AF786039607B6803F502733968184679
:1008100000F0A2FD7B680122C3F8F4217B68B3F8E5
:100820000E321A467B68C3F8F8217B6893F80832C9
:1008300003F01F03012B0BD0022B11D0002B17D17B
:100840007B6803F502731946786800F0CFF91AE067
:100850007B6803F502731946786800F017FA12E016
:100860007B6803F502731946786800F043FA0AE0E2
:100870007B6893F8083223F07F03DBB2194678686F
:1008800005F064FB00BF002318460837BD4680BD55
:1008900080B586B000AFF8600B467A60FB72FB7AD9
:1008A000002B38D1FB6803F582737B61FB68D3F8BA
:1008B000F431032B42D17B699A687B69DB689A42E9
:1008C00014D97B699A687B69DB68D21A7B699A6064
:1008D0007B69DA687B699B68934228BF13469BB2A9
:1008E0001A467968F86800F02FFE27E0FB68D3F815
:1008F00014321B69002B0AD0FB6893F8FC31032BE0
:1009000005D1FB68D3F814321B69F8689847F8687A
:1009100000F02CFE12E0FB68D3F814329B69002B28
:100920000CD0FB6893F8FC31032B07D1FB68D3F89C
:1009300014329B69FA7A1146F868984700231846E2
:100940001837BD4680BD00BF80B586B000AFF860E7
:100950000B467A60FB72FB7A002B6CD1FB68143378
:100960007B61FB68D3F8F431022B57D17B699A681D
:100970007B69DB689A4215D97B699A687B69DB6879
:10098000D21A7B699A607B699B689BB21A46796828
:10099000F86800F0A9FD002300220021F86805F0A6
:1009A000DDFB3BE07B695B687A69D268B3FBF2F1FF
:1009B00002FB01F29B1A002B1CD17B695A687B69F0
:1009C000DB689A4216D37B695A68FB68D3F8F83122
:1009D0009A420FD200220021F86800F085FDFB68E2
:1009E0000022C3F8F821002300220021F86805F056
:1009F000B5FB13E0FB68D3F81432DB68002B0AD098
:100A0000FB6893F8FC31032B05D1FB68D3F8143253
:100A1000DB68F8689847F86800F0BCFDFB6893F85D
:100A20000032012B1AD1F868FFF7A8FEFB680022FC
:100A300083F8002212E0FB68D3F814325B69002BC4
:100A40000CD0FB6893F8FC31032B07D1FB68D3F87B
:100A500014325B69FA7A1146F86898470023184601
:100A60001837BD4680BD00BF80B582B000AF78604A
:100A7000402300220021786805F0F4F97B684022C9
:100A8000C3F81021402300228021786805F0EAF99C
:100A90007B6840221A627B68012283F8FC217B6814
:100AA000D3F81832002B09D07B68D3F814325B6876
:100AB0007A685268D2B2114678689847002318467F
:100AC0000837BD4680BD00BF80B483B000AF7860FA
:100AD0000B46FB707B68FA781A74002318460C37B3
:100AE000BD465DF8047B704780B483B000AF78608A
:100AF0007B6893F8FC217B6883F8FD217B680422E6
:100B000083F8FC21002318460C37BD465DF8047BB2
:100B1000704700BF80B483B000AF78607B6893F803
:100B2000FD217B6883F8FC21002318460C37BD4665
:100B30005DF8047B704700BF80B582B000AF78607D
:100B40007B6893F8FC31032B0BD17B68D3F814320C
:100B5000DB69002B05D07B68D3F81432DB69786839
:100B60009847002318460837BD4680BD80B483B03F
:100B700000AF78600B46FB70002318460C37BD466B
:100B80005DF8047B704700BF80B483B000AF78602D
:100B90000B46FB70002318460C37BD465DF8047BFE
:100BA000704700BF80B483B000AF78600023184660
:100BB0000C37BD465DF8047B704700BF80B582B03E
:100BC00000AF78607B68012283F8FC217B68D3F852
:100BD00014325B687A685268D2B2114678689847D6
:100BE000002318460837BD4680BD00BF80B584B0DD
:100BF00000AF786039600023FB733B685B78092B9A
:100C000039D801A252F823F0590C00086D0C0008E5
:100C1000770C0008630C0008770C00083B0C0008F8
:100C2000310C0008770C00084F0C0008450C000838
:100C30003968786800F036F922E03968786800F0A1
:100C400025FA1DE03968786800F05EFA18E0396826
:100C5000786800F0E1FA13E03968786800F00EFB7C
:100C60000EE03968786800F033FB09E0396878688D
:100C700000F04AFB04E03968786800F0ABFB00BF85
:100C8000FB7B18461037BD4680BD00BF80B584B0E1
:100C900000AF786039600023FB737B6893F8FC3108
:100CA000032B1BD13B689B88DBB2012B11D87B68DF
:100CB000D3F814329B683968786898473B68DB88BA
:100CC000002B10D1FB7B002B0DD1786800F04EFC7F
:100CD00009E03968786800F07DFB04E039687868DD
:100CE00000F078FB00E000BF002318461037BD4637
:100CF00080BD00BF80B584B000AF7860396000234C
:100D0000FB733B689B88BB733B681B7803F06003F5
:100D1000202B08D17B68D3F814329B683968786837
:100D200098470023BAE03B685B78012B39D0032B4E
:100D300002D0002B6BD0B0E07B6893F8FC31022B23
:100D400002D0032B0CD025E0BB7B002B27D0BB7B34
:100D5000802B24D0BB7B1946786805F0F7F81EE09D
:100D60003B685B88002B0AD1BB7B002B07D0BB7B89
:100D7000802B04D0BB7B1946786805F0E7F87B68C8
:100D8000D3F814329B68396878689847786800F01F
:100D9000EDFB05E03968786800F01CFB00E000BF5F
:100DA0007BE07B6893F8FC31022B02D0032B0CD044
:100DB00024E0BB7B002B26D0BB7B802B23D0BB7BCE
:100DC0001946786805F0C2F81DE03B685B88002B87
:100DD0001BD1BB7B03F07F03002B0BD0BB7B1946E1
:100DE000786805F0E9F87B68D3F814329B683968B5
:100DF00078689847786800F0B9FB06E03968786849
:100E000000F0E8FA02E000BF47E000BF45E07B6881
:100E100093F8FC31022B02D0032B0BD036E0BB7BC6
:100E200003F07F03002B36D0BB7B1946786805F0B2
:100E30008DF830E097F90E30002B08DABB7B03F019
:100E40007F0301331B017A681344043307E0BB7B43
:100E500003F07F0310331B017A6813440433BB6033
:100E6000BB7B1946786805F0DDF80346002B03D0FC
:100E7000BB6801221A6002E0BB6800221A60BB68EE
:100E800002221946786800F013FB05E0396878689B
:100E900000F0A0FA00E000BF00BFFB7B184610374F
:100EA000BD4680BD80B584B000AF786039603B68D6
:100EB0005B881B0A9BB2013B062B00F2C98001A292
:100EC00052F823F0E10E0008F90E0008390F00086F
:100ED0005110000851100008FD0F000823100008F1
:100EE0007B68D3F810321B687A68127C07F10A011C
:100EF00010469847F860B0E07B681B7C002B0DD152
:100F00007B68D3F814329B6A07F10A0210469847AF
:100F1000F860FB68013302221A709EE07B68D3F808
:100F20001432DB6A07F10A0210469847F860FB6842
:100F3000013302221A7090E03B685B88DBB2052B1C
:100F400056D801A252F823F0610F0008790F00086B
:100F5000910F0008A90F0008C10F0008D90F000861
:100F60007B68D3F810325B687A68127C07F10A015B
:100F700010469847F86040E07B68D3F810329B68D1
:100F80007A68127C07F10A0110469847F86034E04D
:100F90007B68D3F81032DB687A68127C07F10A01AB
:100FA00010469847F86028E07B68D3F810321B6938
:100FB0007A68127C07F10A0110469847F8601CE035
:100FC0007B68D3F810325B697A68127C07F10A01FA
:100FD00010469847F86010E07B68D3F810329B69A0
:100FE0007A68127C07F10A0110469847F86004E01D
:100FF0003968786800F0EEF944E02EE07B681B7CED
:10100000002B09D17B68D3F814325B6B07F10A021D
:1010100010469847F86020E03968786800F0DAF9FF
:1010200030E07B681B7C002B0DD17B68D3F8143239
:101030001B6B07F10A0210469847F860FB68013302
:1010400007221A7009E03968786800F0C3F919E0DE
:101050003968786800F0BEF914E07B89002B11D064
:101060003B68DB88002B0DD03B68DA887B89934294
:1010700028BF13469BB27B817B891A46F968786842
:1010800000F016FA1037BD4680BD00BF80B584B0B1
:1010900000AF786039603B689B88002B2CD13B689F
:1010A000DB88002B28D13B685B88DBB203F07F0331
:1010B000FB737B6893F8FC31032B04D139687868A3
:1010C00000F088F91CE07B68FA7B83F8FE21FB7B4B
:1010D0001946786804F0D2FF786800F047FAFB7B85
:1010E000002B04D07B68022283F8FC2108E07B6897
:1010F000012283F8FC2103E03968786800F06AF97E
:1011000000BF1037BD4680BD80B582B000AF7860AB
:1011100039603B685B88DAB23E4B1A703D4B1B78F6
:10112000012B04D93968786800F054F96FE07B68C6
:1011300093F8FC31022B02D0032B23D062E0354B15
:101140001B78002B1AD0334B1B781A467B685A60E9
:101150007B68032283F8FC212E4B1B7819467868A4
:10116000FFF718FB0346022B04D13968786800F0BA
:1011700031F94CE0786800F0F9F948E0786800F05F
:10118000F5F944E0234B1B78002B12D17B68022237
:1011900083F8FC211F4B1B781A467B685A601D4B55
:1011A0001B7819467868FFF715FB786800F0DEF9C0
:1011B0002DE0184B1B781A467B685B689A421DD05D
:1011C0007B685B68DBB219467868FFF703FB114B5D
:1011D0001B781A467B685A600E4B1B781946786854
:1011E000FFF7D8FA0346022B04D13968786800F07B
:1011F000F1F80CE0786800F0B9F908E0786800F0E0
:10120000B5F904E03968786800F0E4F800BF083701
:10121000BD4680BD5D02002080B582B000AF786021
:1012200039603B68DB88012B04D03968786800F0AE
:10123000D1F81FE07B6893F8FC31022B02D0032B1E
:101240000BD012E07B6800229A607B680833012291
:101250001946786800F02CF90CE07B680433012211
:101260001946786800F024F904E03968786800F0DD
:10127000B1F800BF00BF0837BD4680BD80B582B061
:1012800000AF786039607B6893F8FC31023B012B3A
:1012900015D87B680122DA607B68D3F80432002B12
:1012A00005D07B68DB6843F002027B68DA607B680C
:1012B0000C3302221946786800F0FAF804E0396825
:1012C000786800F087F800BF00BF0837BD4680BDD2
:1012D00080B582B000AF786039603B685B88012BD5
:1012E0000DD17B680122C3F804227B68D3F8143245
:1012F0009B68396878689847786800F037F900BFCC
:101300000837BD4680BD00BF80B582B000AF7860B1
:1013100039607B6893F8FC31023B012B12D83B68A3
:101320005B88012B13D17B680022C3F804227B6801
:10133000D3F814329B68396878689847786800F069
:1013400015F904E03968786800F044F800E000BF5F
:1013500000BF0837BD4680BD80B483B000AF786061
:1013600039603B681A787B681A703B685A787B68EA
:101370005A703B6802331B789AB23B6803331B7880
:101380009BB21B029BB213449AB27B685A803B68A3
:1013900004331B789AB23B6805331B789BB21B025F
:1013A0009BB213449AB27B689A803B6806331B78E1
:1013B0009AB23B6807331B789BB21B029BB2134463
:1013C0009AB27B68DA8000BF0C37BD465DF8047BBB
:1013D000704700BF80B582B000AF7860396080216F
:1013E000786804F0B3FD0021786804F0AFFD00BF19
:1013F0000837BD4680BD00BF80B586B000AFF8603D
:10140000B9607A600023FB75FB68002B33D0F86865
:1014100000F036F8034601339BB25B009AB27B685A
:101420001A80FB7D5A1CFA751A46BB6813447A6809
:101430001288D2B21A70FB7D5A1CFA751A46BB6824
:10144000134403221A7012E0FB7D5A1CFA751A46E7
:10145000BB681A44FB68591CF9601B781370FB7D4C
:101460005A1CFA751A46BB68134400221A70FB68AE
:101470001B78002BE8D100BF1837BD4680BD00BFE8
:1014800080B485B000AF78600023FB7305E0FB7B80
:101490000133FB737B6801337B607B681B78002B17
:1014A000F5D1FB7B18461437BD465DF8047B7047C9
:1014B00080B584B000AFF860B9601346FB80FB686C
:1014C0000222C3F8F421FA88FB689A61FA88FB6863
:1014D000DA61FB88BA680021F86804F005FE002391
:1014E00018461037BD4680BD80B584B000AFF860A7
:1014F000B9601346FB80FB88BA680021F86804F0E5
:10150000F3FD002318461037BD4680BD80B584B07A
:1015100000AFF860B9601346FB80FB680322C3F894
:10152000F421FA88FB68C3F80821FA88FB68C3F83D
:101530000C21FB88BA680021F86804F00FFE002334
:1015400018461037BD4680BD80B584B000AFF86046
:10155000B9601346FB80FB88BA680021F86804F084
:10156000FDFD002318461037BD4680BD80B582B012
:1015700000AF78607B680422C3F8F42100230022C6
:101580000021786804F0B0FD002318460837BD46F6
:1015900080BD00BF80B582B000AF78607B68052257
:1015A000C3F8F421002300220021786804F0D6FD5E
:1015B000002318460837BD4680BD00BF80B400AF89
:1015C000044B1B680133034A136000BFBD465DF83E
:1015D000047B70476002002080B400AF094B1A689A
:1015E000094BA3FB02131B09322101FB03F3D31A9E
:1015F000002B0CBF01230023DBB21846BD465DF86B
:10160000047B7047600200201F85EB5180B400AF5F
:101610000A4B19680A4BA3FB0123DA0813469B0007
:1016200013445B00CA1A002A0CBF01230023DBB25B
:101630001846BD465DF8047B704700BF600200207D
:10164000CDCCCCCC000000002DE9F84300AF324BEC
:10165000D3E90489304BD3E906012DA3D3E9002354
:101660000BF068FA03460C461A46234640464946A4
:101670000BF0AEF803460C469846A146264BD3E93C
:10168000080123A3D3E900230BF07EFB03460C469D
:101690001A462346404649460BF09AF803460C4644
:1016A0001E4AC2E900341C4BD3E904341D4684F0C1
:1016B0000046194BD3E9080102460B460BF088F8A7
:1016C00003460C461846214611A3D3E900230BF02C
:1016D0005BFB03460C461A462346284631460BF070
:1016E00075F803460C460E4AC2E900340A4BD3E9AA
:1016F000080107A3D3E900230BF046FB03460C4681
:10170000084AC2E9003400BFBDE8F883AFF30080A7
:101710007B14AE47E17A943F88090020F80200204C
:1017200000030020F002002090B583B000AF87EDE9
:10173000000B054AD7E90034C2E90434FFF784FFFF
:1017400000BF0C37BD4690BD8809002090B583B01E
:1017500000AF87ED000B054AD7E90034C2E9063433
:10176000FFF772FF00BF0C37BD4690BD880900200F
:1017700090B583B000AF87ED000B054AD7E9003480
:10178000C2E90834FFF760FF00BF0C37BD4690BDCB
:101790008809002098B500AF044BD3E900341846FF
:1017A00021460BF061FC0346184698BD68020020F4
:1017B00080B400AF034B5B6A1846BD465DF8047BFE
:1017C000704700BF000C004080B500AFFFF73CFF42
:1017D00000BF80BD80B400AF034B1B781846BD46E8
:1017E0005DF8047B704700BF0F010020B0B582B0E8
:1017F00000AF87ED000B4FF000024FF00003D7E978
:1018000000010BF009FC0346002B04D03C687B6808
:1018100083F0004501E0D7E9004545EC174BB0EEF9
:10182000470AF0EE670A0837BD46B0BD80B500AF85
:10183000044B93F83730184602F0DCFC03469BB2A9
:10184000184680BD8809002080B500AF044B93F88E
:101850003830184602F0CEFC03469BB2184680BDD5
:101860008809002080B582B000AF374B93F836303E
:10187000184602F0BFFC0346FB80B7F90630002B88
:1018800001D100235BE0314B1B78022B19D1B7F952
:1018900006202D4BB3F92A3019462B4BB3F92C30C7
:1018A0000B449A420BDCB7F90620274BB3F92A30D8
:1018B0001946254BB3F92C30CB1A9A4201DA002392
:1018C0003DE0FFF7B3FF0346B3F5966F03D91F4B17
:1018D00000221A7009E01D4B1B78012B02D01C4B13
:1018E00000221A70194B01221A70FA88164BB3F9AC
:1018F0002A309BB2D31A9BB2FB80134BB3F92C3026
:10190000B7F906209A4208DDFA880F4BB3F92C305C
:101910009BB2D31A9BB21BB211E0B7F906200A4B57
:10192000B3F92C305B429A4208DA074BB3F92C30FA
:101930009AB2FB8813449BB21BB200E00023184606
:101940000837BD4680BD00BF880900200F01002078
:10195000A2020020B0B588B000AF87ED020B87ED82
:10196000001BFFF77FFF0346FB83774B93F839306B
:10197000022B00F09080744BDB8DBB83724B1B8E6F
:101980007B83724B1B78002B06D06F4B5B8EBB8327
:101990006D4B9B8E7B8344E06B4B93F83930022B6D
:1019A0003FD0694B93F83930012B3AD0D7E9002367
:1019B000D7E902010AF00CFF03460C4618462146FF
:1019C000614BD3E914341A4623460BF039FB034626
:1019D000002B09D0B7F91E30002B05DB0023FB8359
:1019E0005B4B02221A701CE0D7E90023D7E9020101
:1019F0000AF0ECFE03460C4618462146524BD3E94A
:101A000014341A4623460BF011FB0346002B08D072
:101A1000B7F91E30002B04DC0023FB834C4B022261
:101A20001A70FA8B4B4BB3F900309BB2D31A9BB2AE
:101A30003B83B7F91820B7F91C309A4208DD454BB3
:101A4000B3F900309AB2BB8B13449BB2FB830EE018
:101A5000B7F91820B7F91C305B429A4207DA3D4BC0
:101A6000B3F900309AB2BB8BD31A9BB2FB83B7F9A0
:101A70001E20B7F91A309A4202DD7B8BFB830AE005
:101A8000B7F91E20B7F91A305B429A4203DA7B8B12
:101A90005B429BB2FB832F4AFB8B1380FFF7D4FE84
:101AA0000346FB82FB8AB3F5966F45D9274B1B781B
:101AB000012B41D1284B1B88B3F5966F3CD8264BA0
:101AC0001B88002B38D0254B5B6A3B61244B1B786D
:101AD000002B0BD138690AF0C7FF03460C461A4A9F
:101AE000C2E912341E4B01221A7025E0164BD3E9CD
:101AF000124538690AF0B8FF02460B4620462946CF
:101B00000BF08AFA0346002B08D038690AF0ACFFC4
:101B100003460C460C4AC2E914340DE00A4BD3E9E3
:101B20001234094AC2E9143438690AF09DFF0346A9
:101B30000C46054AC2E91234074AFB8A138000BFEB
:101B40002037BD46B0BD00BF880900200F0100202E
:101B500064020020A0020020A4020020000C00402B
:101B6000A202002090B400AF0C4A4FF000034FF0E7
:101B70000004C2E900340A4A4FF000034FF00004A9
:101B8000C2E90034074A4FF000034FF00004C2E9F5
:101B9000003400BFBD4690BC704700BF80020020EB
:101BA00078020020700200202DE9F0438FB000AFD2
:101BB0008C4B00221A708C4B5B6A3B638B4BB3F9E6
:101BC0002E3018460AF050FF884BD3E916341A46D7
:101BD00023460AF0AFFF03460C46C7E90A34844B9C
:101BE00093ED007BB0EE470AF0EE670AFFF7FEFDCB
:101BF00059EC108B7E4B93ED007BB0EE470AF0EE74
:101C0000670AFFF7F3FD51EC100BD7E90A230AF03E
:101C1000DDFD03460C461A462346404649460AF077
:101C200089FF03460C46184621464FF000024FF04C
:101C300080430BF0A9F803460C4618462146D7E925
:101C40000A230BF0A1F803460C46C7E90834386BA9
:101C50000AF00AFF03460C46C7E90634634B93F8C3
:101C60003930002B0BD1634B93ED007B97ED081BB4
:101C7000B0EE470AF0EE670AFFF76CFE05E097ED5D
:101C8000081B97ED060BFFF765FE5B4B1B88FB8679
:101C90005A4B1B689AB23B6B9BB2D31A9BB2FB8226
:101CA000524B93F83930022B00F011814F4B93F8CF
:101CB0003930012B00F00B814C4B93F83930002B5D
:101CC00040F0FB804C4BB3F9003018460AF0CCFED4
:101CD000464BD3E916341A4623460AF02BFF034637
:101CE0000C4618462146464BD3E900341A46234693
:101CF0000AF06EFD03460C46414AC2E90034414BEE
:101D00001B78002B26D1394BD3E914013C4BD3E986
:101D100000341A4623460BF07FF90346002B06D009
:101D2000324BD3E91434364AC2E9003412E02F4B67
:101D3000D3E91201324BD3E900341A4623460BF0A3
:101D400089F90346002B05D0284BD3E912342C4ADD
:101D5000C2E900342A4BD3E90001264BD3E9003411
:101D60001A4623460AF032FD03460C46204AC2E9D1
:101D70000034234BD3E900341E4AC2E900344FF04B
:101D800000034FF00004C7E902341D4BD3E9000102
:101D9000D7E906230AF01AFD03460C46C7E90034CA
:101DA000124BD3E910341D4684F00046D7E90023D6
:101DB000284631460BF03AF90346002B24D00B4B52
:101DC000D3E91001D7E900230BF03AF90346002BC1
:101DD0001AD0FFF7C7FE0023FB86024B01221A70C0
:101DE00075E000BF64020020000C0040880900205C
:101DF0006802002098020020A00200208802002033
:101E0000900200200F010020394BD3E90001D7E9EF
:101E100000230AF08FFE03460C4618462146354B38
:101E2000D3E900341A4623460AF0D2FC03460C4696
:101E30001D462646304BD3E90001304BD3E9003430
:101E40001A4623460AF076FE03460C461A462346F7
:101E5000284631460AF0BCFC03460C461D46264681
:101E6000274BD3E90001274BD3E900341A46234618
:101E70000AF060FE03460C461A46234628463146C1
:101E80000AF0A6FC03460C46C7E90234D7E9020172
:101E90000BF0EAF80346FB86184BD3E90034194AE5
:101EA000C2E90034154AD7E90034C2E90034114AC6
:101EB000D7E90234C2E9003409E0B7F91630184610
:101EC0000AF0D2FD03460C460F4AC2E900340F4A1D
:101ED000B7F9363003F2DC53D3630D4A3B6B136022
:101EE000FFF77AFB00BF3C37BD46BDE8F08300BF7B
:101EF000F802002070020020000300207802002079
:101F0000F00200208002002068020020000400404F
:101F10008802002080B500AF02F016FE0246074B93
:101F20001A60064B1B68064A934204D0034B0122F9
:101F30001A60022300E00023184680BDA80200209A
:101F40001520200080B584B000AF78600B467B8000
:101F500013463B800E4B1B68092B01D8022312E06D
:101F60003B881B04FB60F86802F0F0FB7B881A4694
:101F7000F968786802F07AFC7B881A46F968786814
:101F800002F020FD034618461037BD4680BD00BF55
:101F9000A802002080B584B000AFF860B960134695
:101FA000FB80FB881B04BA681946F86802F072FDD2
:101FB00000BF1037BD4680BDF0B59BB000AF04F048
:101FC000CBF900F06FF900F0C3FC00F073FC00F0F7
:101FD000F7F900F01FFA00F057FA00F09FFA00F04E
:101FE0003BFC03F0E7FA00F009FC00F0FFFA0421E3
:101FF0009B4807F03DFC012210219A4805F002F8A9
:102000000821994807F0D4FA0346002B03D0862113
:10201000964800F00FFD0C21934807F0C9FA0346DB
:10202000002B03D08B21914800F004FDFFF772FFD5
:102030000346002B03D091218C4800F0FBFC8C4B15
:10204000002283F829208A4A4FF000034FF0000451
:10205000C2E90834864A4FF000034FF00004C2E999
:102060000634834A4FF000034FF00004C2E9043401
:102070007F4A4FF000037F4CC2E910347C4B0322AF
:1020800083F839207A4A70A4D4E90034C2E91434C0
:10209000774A6FA4D4E90034C2E91234744B0622A3
:1020A00083F83820724B052283F83720704B0022CA
:1020B00083F836206E4B0222DA856D4B01225A8658
:1020C0006B4B4FF4FA721A86694B64229A86684BFE
:1020D0004FF478725A85664B1E229A85644B664A85
:1020E00007CA03C31A70624A5BA4D4E90034C2E988
:1020F00016345F4B002283F860203B4600226821A3
:102100001846FFF747FF3B460B22194658480BF08D
:10211000CBFF0346002B14D1554B18463B46682293
:1021200019460BF013F8554A554B15461C460FCC73
:1021300028606960AA60EB6007CC28616961AA61C8
:1021400030E03B460B2219464E480BF0ADFF0346EC
:10215000002B1FD1464B18463B46682219460AF011
:10216000F5FF464B484A14469E4604F1300C75462E
:1021700026460FCE28606960AA60EB6010340EF12D
:10218000100E6445F3D17346224610681860127928
:102190001A7107E0394A3D4B1046194644231A4646
:1021A0000AF0D4FF324B93F86030012B0FD100F0CE
:1021B000F1FA02F059F8034619221946344808F09A
:1021C00039FC01220121334804F01CFF0EE000F02D
:1021D0005BFA002201212F4804F014FF08212E4849
:1021E00007F050FA0C212C4807F04CFAFFF7ECFAF4
:1021F00004F0FEF80246294B1B68D31A142B13D99E
:1022000004F0F6F80246254B1A60FFF7D7F903F001
:102210002FFCFFF7FBF90346002B03D020211148C8
:1022200004F00AFFFFF7C0FC4FF400711C4803F0F4
:1022300015FB0346002BDBD00121194800F05AFDA5
:10224000D6E700BFAFF300800000C0FFFFFFDF4113
:102250000000C0FFFFFFDFC1000000A09999B93F57
:102260006C04002000040240A8040020C4150108EA
:102270008809002000005940D0150108F00900200D
:10228000DC150108F8150108041601083C160108C0
:10229000FC050020000802405C0600200804002025
:1022A0009806002080B598B000AF0023BB60404A7C
:1022B0003F4B1B6C43F0805313643D4B1B6C03F08E
:1022C0008053BB60BB6800237B603A4A394B1B6874
:1022D00043F480431360374B1B6803F480437B60F7
:1022E0007B680B233B634FF480337B630123FB63E9
:1022F00010233B6401237B640223BB644FF48003FF
:10230000FB6404233B6548237B650223BB650323F1
:10231000FB6507F13003184605F052FF0346002B1A
:1023200004D040F20511244800F084FB0F23FB6128
:1023300000233B6200237B620023BB620023FB621D
:1023400007F11C030021184606F094F90346002B00
:1023500004D040F21311184800F06CFB0223FB601C
:102360004FF40073BB6107F10C03184606F062FBE3
:102370000346002B04D04FF48D710F4800F05AFB38
:1023800006F008FB02460D4BA3FB02239B091846EF
:1023900004F058F9042004F061F9002200214FF004
:1023A000FF3004F025F900BF6037BD4680BD00BF97
:1023B0000038024000700040C4150108D34D62107F
:1023C00080B500AF104B114A1A600F4B00225A60C3
:1023D0000D4B7F229A600C4BFF22DA600A4B0022E1
:1023E0001A61094B00225A61074B00229A61064884
:1023F00006F016FC0346002B04D040F237110448C7
:1024000000F018FB00BF80BD3C0600200028004003
:10241000C415010880B500AF184B194A1A60174B54
:102420004FF482725A60154B00229A60134B0022BF
:10243000DA60124B00221A61104B00225A610F4BD6
:1024400000229A610D4B0022DA610C4B00221A62C5
:102450000A4B00225A62094B00229A62074B0A2259
:10246000DA62064806F084FC0346002B04D040F2F2
:102470004D11044800F0DEFA00BF80BD980800202E
:1024800000300140C415010880B500AF01220821C9
:102490001E4804F0B7FD1E4B1E4A1A601C4B4FF439
:1024A00082725A601A4B00229A60194B0022DA603D
:1024B000174B02221A61164B01225A61144B4FF43A
:1024C00000729A61124B0822DA61114B00221A62E3
:1024D0000F4B00225A620E4B00229A620C4B0722CD
:1024E000DA620B4806F044FC0346002B04D04FF49C
:1024F000B271094800F09EFA054B1B68044A126845
:10250000126842F040021A6000BF80BD0004024021
:10251000E4040020003C0040C415010880B58AB0E6
:1025200000AF2F4B2F4A1A602D4B0F225A602C4BB5
:1025300000229A602A4B44F62062DA60284B00227F
:102540001A61274807F008F80346002B04D040F230
:102550007911254800F06EFA00233B6200237B626C
:1025600007F1200319461E4808F0BCF90346002B6A
:1025700004D04FF4C0711C4800F05CFA60237B600B
:1025800040F2DC53BB600023FB6000237B6100232F
:102590003B610023FB610023BB613B1D0822194600
:1025A0000F4807F041FB0346002B04D04FF4C671DF
:1025B0000D4800F03FFA3B1D0C221946084807F071
:1025C00033FB0346002B04D040F29111064800F083
:1025D00031FA034802F04EFD00BF2837BD4680BDEA
:1025E000A804002000040040C415010880B58CB088
:1025F00000AF224B224A1A60204B00225A601F4B28
:1026000000229A601D4B4FF0FF32DA601B4B002214
:102610001A610323FB6000233B6101237B610023DC
:10262000BB610023FB6100233B6201237B6200232B
:10263000BB620023FB6207F10C0319460F4807F049
:1026400081F80346002B04D040F2AD110D4800F094
:10265000F1F900237B600023BB603B1D194607484E
:1026600008F040F90346002B04D04FF4DA71054816
:1026700000F0E0F900BF3037BD4680BD6C0400209B
:10268000000C0040C415010880B58CB000AF3E4B73
:102690003E4A1A603C4B0F225A603B4B00229A6024
:1026A000394B4FF6FF72DA60374B00221A61364B16
:1026B00000225A61344806F023FF0346002B04D061
:1026C0004FF4E471324800F0B5F92F4806F0A4FF4A
:1026D0000346002B04D040F2CD112D4800F0AAF99A
:1026E0000423FB6160233B6202237B620023FB62C5
:1026F00007F11C031946244807F05CFB0346002B36
:1027000004D04FF4EB71224800F094F900237B6170
:102710000023BB6107F1140319461B4808F0E2F8D7
:102720000346002B04D040F2DD11194800F082F975
:1027300000237B600123BB600023FB6000233B611F
:102740003B1D08221946104807F0D2F90346002B1A
:1027500004D040F2E7110E4800F06CF902237B60D0
:102760000223BB603B1D0C221946074807F0C0F945
:102770000346002B04D04FF4F771054800F05AF9D6
:1027800000BF3037BD4680BD5C0600200000014020
:10279000C415010880B500AF144B154A1A60134BDD
:1027A000144A5A60114B4FF480529A600F4B4FF409
:1027B0000052DA600D4B4FF480621A610B4B042219
:1027C0005A610A4B00229A61084B4FF40042DA61C9
:1027D000064808F0E1F80346002B04D04FF40071DE
:1027E000054800F027F900BF80BD00BFFC050020B0
:1027F00000100140A0860100C415010880B500AF9B
:10280000124B134A1A60114B4FF4E1325A600F4BCE
:1028100000229A600D4B0022DA600C4B00221A61F4
:102820000A4B0C225A61094B00229A61074B002285
:10283000DA61064808F0B0F80346002B04D040F2F5
:102840001121044800F0F6F800BF80BDF008002018
:1028500000440040C415010880B500AF124B134A74
:102860001A60114B4FF4E1325A600F4B00229A600C
:102870000D4B0022DA600C4B00221A610A4B0C222D
:102880005A61094B00229A61074B0022DA6106481F
:1028900008F082F80346002B04D040F222210448BD
:1028A00000F0C8F800BF80BDC80300200048004009
:1028B000C415010880B582B000AF00237B60234AB5
:1028C000224B1B6B43F480031363204B1B6B03F4FD
:1028D00080037B607B6800233B601C4A1B4B1B6BA7
:1028E00043F400131363194B1B6B03F400133B6099
:1028F0003B68002200210C2003F07AFE0C2003F03C
:1029000093FE002200210E2003F072FE0E2003F041
:102910008BFE00220021102003F06AFE102003F03D
:1029200083FE00220021112003F062FE112003F03B
:102930007BFE002200213A2003F05AFE3A2003F0E9
:1029400073FE00BF0837BD4680BD00BF003802409F
:1029500080B58AB000AF00233B61324A314B1B6B1C
:1029600043F0800313632F4B1B6B03F080033B6129
:102970003B690023FB602B4A2A4B1B6B43F001038E
:102980001363284B1B6B03F00103FB60FB68002300
:10299000BB60244A234B1B6B43F004031363214B9E
:1029A0001B6B03F00403BB60BB6800237B601D4A04
:1029B0001C4B1B6B43F0020313631A4B1B6B03F09E
:1029C00002037B607B6800223821174804F01AFB61
:1029D00010237B61154BBB610023FB6107F11403DE
:1029E0001946134804F074F901237B610123BB618C
:1029F0000023FB6107F1140319460D4804F068F940
:102A000038237B610123BB610023FB6100233B6210
:102A100007F114031946044804F05AF900BF283797
:102A2000BD4680BD00380240000402400000111085
:102A30000008024080B483B000AF78603960044B76
:102A400040F2DC52DA63024B40F2DC521A64FEE7D9
:102A50000004004080B582B000AF03460A46FB7117
:102A60001346BB71BB791946074801F0E3FDFB79BA
:102A7000064A52F82330BA791146184601F02EFE64
:102A800000BF0837BD4680BD8C180108100100202A
:102A900080B584B000AF0346FB71164B1B7883F002
:102AA0002003DAB2134B1A70124B1B7883F04F03DA
:102AB000DAB2104B1A700F4B1B7883F04B03DAB26B
:102AC0000C4B1A700B4B1B7807F108000A4A0521C2
:102AD0000BF060FAFB791946084801F0ABFDFA7972
:102AE00007F108031146184601F0F8FD00BF103742
:102AF000BD4680BDAF02002098180108A01801084B
:102B000080B582B000AF03460A46FB711346BB7125
:102B1000BB79184601F0F6FDBB791946074801F06C
:102B200089FDBA79FB791146184601F067FD044A20
:102B3000FB79137000BF0837BD4680BDA818010897
:102B4000AF02002080B584B000AF78600B46FB7008
:102B50000023FB600CE0FB687A6813441A780D4B85
:102B60001B785340DAB20B4B1A70FB680133FB60E1
:102B7000FB68272B05DCFB687A6813441B78002B65
:102B8000E9D1FB781946786801F054FD00BF103791
:102B9000BD4680BDAF02002090B59DB002AF87ED6D
:102BA000020B0346FB7107F11400D7E90234CDE9AB
:102BB0000034154A50210BF0EDF900237B660DE03F
:102BC00007F114027B6E13441A78104B1B785340A4
:102BD000DAB20E4B1A707B6E01337B667B6E272B4D
:102BE00006DC07F114027B6E13441B78002BE7D13F
:102BF000FA7907F114031146184601F01BFD00BFD6
:102C00006C37BD4690BD00BFAC180108AF02002074
:102C100080B598B000AF03460A46FB8013467B712F
:102C2000B7F9063007F10C00144A50210BF0B2F945
:102C30000023FB650DE007F10C02FB6D13441A78CD
:102C40000F4B1B785340DAB20D4B1A70FB6D0133FA
:102C5000FB65FB6D272B06DC07F10C02FB6D1344B3
:102C60001B78002BE7D17A7907F10C03114618463F
:102C700001F0E0FC00BF6037BD4680BDB41801081C
:102C8000AF02002080B598B000AF78600B46FB70B3
:102C900007F10C007B68154A50210BF07BF90023EB
:102CA000FB650DE007F10C02FB6D13441A78104B25
:102CB0001B785340DAB20E4B1A70FB6D0133FB6583
:102CC000FB6D272B06DC07F10C02FB6D13441B7810
:102CD000002BE7D1FA7807F10C031146184601F0F2
:102CE000A9FC00BF6037BD4680BD00BFBC1801080D
:102CF000AF02002080B584B000AF78600B46FB7057
:102D00000023FB81F9E0FB895A1CFA811A467B6893
:102D100013441B787B737B7B002B00F0F4807C4B8F
:102D20001B78202B0AD17B7B242B03D07B7B212B90
:102D300040F0E380764B24221A70DEE07B7B0D2B83
:102D400002D07B7B0A2B23D1724B1B781A46724B25
:102D5000002199546E4B1B782A2B0BD16F4B1A789C
:102D60006F4B1B789A4205D0FB7819460420FFF779
:102D700071FE03E0FB78184600F0D4F8674B0022A0
:102D80001A70634B20221A70624B00221A70B4E052
:102D90007B7B2A2B03D15E4B31221A70ADE05C4B5A
:102DA0001B78312B10D17B7B2F2B0DD97B7B392BC3
:102DB0000AD87B7B303BDBB21B01DAB2584B1A706E
:102DC000534B32221A7098E0514B1B78312B10D1A3
:102DD0007B7B402B0DD97B7B462B0AD87B7B373BFB
:102DE000DBB21B01DAB24E4B1A70494B32221A7019
:102DF00083E0474B1B78312B10D17B7B602B0DD9A7
:102E00007B7B662B0AD87B7B573BDBB21B01DAB29C
:102E1000434B1A703E4B32221A706EE03C4B1B78CB
:102E2000322B12D17B7B2F2B0FD97B7B392B0CD8EC
:102E30003B4B1A787B7B1344DBB2303BDAB2384B26
:102E40001A70334B2A221A7057E0314B1B78322B01
:102E500012D17B7B402B0FD97B7B462B0CD8304B80
:102E60001A787B7B1344DBB2373BDAB22C4B1A70F7
:102E7000274B2A221A7040E0254B1B78322B12D1A7
:102E80007B7B602B0FD97B7B662B0CD8244B1A786D
:102E90007B7B1344DBB2573BDAB2214B1A701C4BDD
:102EA0002A221A7029E01B4B1B784F2B15D8184B80
:102EB0001B78242B11D1174B1B785A1CD1B2154A01
:102EC00011701946144A7B7B5354144B1A787B7B40
:102ED0005340DAB2114B1A700FE00D4B1B782A2BBE
:102EE00005D1FB7819460520FFF7B4FD0CE0FB780F
:102EF00019460020FFF7AEFD06E0FB89B3F5007F21
:102F0000FFF401AF00E000BF1037BD4680BD00BF39
:102F10004C010020AC02002030090020AD0200204E
:102F2000AE02002090B59FB002AF0346FB71DA4BB2
:102F30001B7887F8633097F86330313B462B00F2FB
:102F4000688501A252F823F065300008D7300008E8
:102F500049310008133A0008133A0008133A0008F0
:102F6000133A0008133A0008133A0008133A00080D
:102F7000133A0008133A0008133A0008133A0008FD
:102F8000133A0008133A0008133A0008133A0008ED
:102F9000133A0008133A0008133A0008133A0008DD
:102FA000133A0008133A00080B380008133A0008D7
:102FB000133A0008133A0008133A0008133A0008BD
:102FC000133A0008133A0008133A0008133A0008AD
:102FD000F7390008133A0008133A0008133A0008BA
:102FE000133A0008133A0008133A0008133A00088D
:102FF000133A0008133A0008133A0008133A00087D
:10300000133A0008133A0008A9320008133A0008DE
:10301000BB310008133A0008133A0008B733000820
:103020003F330008C538000861350008133A00082E
:10303000133A0008133A000801390008F136000875
:10304000133A00081F340008133A000887370008B5
:10305000133A0008133A0008133A000887340008AE
:103060001D35000807F1580307F163028B498A48B0
:103070000AF0E6FF0346A7F86A30B7F86A30022B79
:1030800012D197ED167BB0EE470AF0EE670AFEF715
:103090004BFBFB7919463120FFF732FDFB791846CF
:1030A000FFF7F6FC00F0BBBCFB7919463120FFF7B7
:1030B00027FD7B4B93ED047BFB791846B0EE470A66
:1030C000F0EE670AFFF768FDFB791846FFF7E0FCB2
:1030D00000BF00F0A4BC07F1500307F163026F4981
:1030E0006D480AF0ADFF0346A7F86A30B7F86A30BA
:1030F000022B12D197ED147BB0EE470AF0EE670A6F
:10310000FEF724FBFB7919463220FFF7F9FCFB7927
:103110001846FFF7BDFC00F082BCFB79194632204F
:10312000FFF7EEFC5E4B93ED067BFB791846B0EEA5
:10313000470AF0EE670AFFF72FFDFB791846FFF705
:10314000A7FC00BF00F06BBC07F1480307F1630266
:10315000524951480AF074FF0346A7F86A30B7F89D
:103160006A30022B12D197ED127BB0EE470AF0EED7
:10317000670AFEF7FDFAFB7919463320FFF7C0FC1A
:10318000FB791846FFF784FC00F049BCFB7919462F
:103190003320FFF7B5FC424B93ED087BFB791846D3
:1031A000B0EE470AF0EE670AFFF7F6FCFB79184627
:1031B000FFF76EFC00BF00F032BC07F1400107F1E1
:1031C000630207F13003019307F1380300930B46C4
:1031D000344931480AF034FF0346A7F86A30B7F89B
:1031E0006A30042B21D197ED107BB0EE470AF0EE48
:1031F000670AFEF799FA97ED0E7BB0EE470AF0EEFC
:10320000670AFEF7A3FA97ED0C7BB0EE470AF0EEE3
:10321000670AFEF7ADFAFB7919466320FFF770FCE9
:10322000FB791846FFF734FCF9E3B7F86A30012B55
:103230002AD1FB7919466320FFF762FC184B93ED06
:10324000047BFB791846B0EE470AF0EE670AFFF7F9
:10325000A3FC134B93ED067BFB791846B0EE470AAF
:10326000F0EE670AFFF798FC0D4B93ED087BFB79B6
:103270001846B0EE470AF0EE670AFFF78DFCFB79BF
:103280001846FFF705FCCAE3FB7919460720FFF74C
:10329000E1FB00BFC3E300BF30090020C4180108F0
:1032A00088090020CC18010807F12C0107F16302FE
:1032B00007F12C03023300930B46C349C3480AF0BD
:1032C000BFFE0346A7F86A30B7F86A30032B11D166
:1032D000B7F92C20BE4BDA85B7F92E20BC4B5A86A5
:1032E000FB7919466120FFF70BFCFB791846FFF7C5
:1032F000CFFB94E3B7F86A30012B19D1FB7919465B
:103300006120FFF7FDFBB24BB3F92E30FA7911467D
:103310001846FFF77DFCAE4BB3F93230FA7911460F
:103320001846FFF775FCFB791846FFF7B1FB76E30B
:10333000FB7919460720FFF78DFB00BF6FE307F10C
:103340002A0307F16302A349A0480AF079FE034665
:10335000A7F86A30B7F86A30022B13D1B7F92A30D0
:10336000184609F081FB03460C46994AC2E910341D
:10337000FB7919466720FFF7C3FBFB791846FFF777
:1033800087FB4CE3FB7919466720FFF7B9FB904BAD
:10339000D3E910341846214609F066FE03461BB2F5
:1033A000FA7911461846FFF733FCFB791846FFF708
:1033B0006FFB00BF33E307F1200307F16302864987
:1033C00082480AF03DFE0346A7F86A30B7F86A3033
:1033D000022B0ED1D7E908347D4AC2E91634FB79B5
:1033E00019466620FFF78CFBFB791846FFF750FB68
:1033F00015E3FB7919466620FFF782FB744B93EDCA
:10340000167BFB791846B0EE470AF0EE670AFFF725
:10341000C3FBFB791846FFF73BFB00BFFFE2FB79DC
:1034200019467020FFF76CFB694BD3E9123418463C
:10343000214609F019FE0246FB7919461046FFF7AE
:1034400021FC634BD3E914341846214609F00CFEE5
:103450000246FB7919461046FFF714FCFEF7A8F95F
:103460000246FB7919461046FFF70CFCFEF792F96D
:103470000246FB7919461046FFF704FCFB79184613
:10348000FFF706FBCBE207F11C0107F1630207F12E
:103490001C03023300930B464B494C480AF0D0FD05
:1034A0000346A7F86A30B7F86A30032B11D1B7F991
:1034B0001C20474B1A86B7F91E20454B9A86FB798C
:1034C00019467620FFF71CFBFB791846FFF7E0FA58
:1034D000A5E2B7F86A30012B19D1FB79194676209D
:1034E000FFF70EFB3A4BB3F93030FA791146184624
:1034F000FFF78EFB364BB3F93430FA791146184694
:10350000FFF786FBFB791846FFF7C2FA87E2FB79E3
:1035100019460720FFF79EFA00BF80E2FEF7FAFC8B
:1035200003461BB2FA7911461846FFF771FB0022D9
:1035300068212748FEF706FD7866FB791946772053
:10354000FFF7DEFA7B6E002B04D1FB791846FFF7FC
:103550009FFA64E2FB7919460820FFF77BFA5EE2E6
:1035600007F1140107F1630207F114030433019317
:1035700007F11403023300930B46184913480AF06D
:103580005FFD0346A7F86A30B7F86A30042B27D1ED
:10359000B7F91430DAB20E4B83F83620B7F916308B
:1035A000DAB20B4B83F83720B7F91830DAB2084B90
:1035B00083F83820FB7919466920FFF7A1FAFB79D7
:1035C0001846FFF765FA2AE2DC18010830090020E6
:1035D00088090020E8180108C4180108F01801083B
:1035E000B7F86A30012B7CD1FB7919466920FFF7C7
:1035F00087FAB74B93F836301BB2FA791146184662
:10360000FFF706FBB24B93F837301BB2FA7911463D
:103610001846FFF7FDFAAE4B93F838301BB2FA7933
:1036200011461846FFF7F4FAFB791946A948FFF747
:1036300089FA0023FB660023FB664AE0FB79194602
:10364000A548FFF77FFAFB6E1BB2FA7911461846C0
:10365000FFF7DEFAFB791946A048FFF773FAFB6E15
:10366000DBB2184600F0C6FD03461A46FB79194640
:103670001046FFF7CDFA964B93F836301A46FB6E9C
:103680009A4205D1FB7919469548FFF75BFA18E095
:103690008F4B93F837301A46FB6E9A4205D1FB796F
:1036A00019469048FFF74EFA0BE0894B93F83830F3
:1036B0001A46FB6E9A4204D1FB7919468A48FFF7F5
:1036C00041FAFB7919468348FFF73CFAFB6E013358
:1036D000FB66FB6E0F2BB1DDFB791846FFF7D8F9BF
:1036E0009DE1FB7919460720FFF7B4F900BF96E189
:1036F00007F1100107F1630207F110030233009391
:103700000B467A497A480AF09BFC0346A7F86A30D0
:10371000B7F86A30032B11D1FB7919466E20FFF7F9
:10372000EFF9B7F910206A4B5A85B7F91220684BA8
:103730009A85FB791846FFF7ABF970E1B7F86A3064
:10374000012B19D1FB7919466E20FFF7D9F9604B8F
:10375000B3F92A30FA7911461846FFF759FA5C4B4B
:10376000B3F92C30FA7911461846FFF751FAFB7974
:103770001846FFF78DF952E1FB7919460720FFF74C
:1037800069F900BF4BE107F10E0307F163025949E4
:1037900057480AF055FC0346A7F86A30B7F86A3074
:1037A000022B1ED1B7F90E30012B04D0B7F90E3021
:1037B000B3F1FF3F0FD1FB7919467220FFF7A0F953
:1037C000B7F90E305AB2424B83F82920FB791846DC
:1037D000FFF75EF917E0FB7919460A20FFF73AF97F
:1037E0001DE1FB7919467220FFF78AF9384B93F9EE
:1037F00029301BB2FA7911461846FFF709FAFB790E
:103800001846FFF745F900BF09E107F10C0307F17E
:103810006302384936480AF013FC0346A7F86A30B9
:10382000B7F86A30022B29D1B7F90C30002B0DD133
:10383000FB7919464920FFF763F9254B002283F8ED
:103840006020FB791846FFF723F9E8E0B7F90C3060
:10385000012B0DD1FB7919464920FFF751F91C4B7B
:10386000012283F86020FB791846FFF711F9D6E0B2
:10387000FB7919460E20FFF7EDF8D0E0FB791946E9
:103880004920FFF73DF9124B93F860301BB2FA79EB
:1038900011461846FFF7BCF90D4B93F86030002B2A
:1038A00005D1FB7919461448FFF74CF904E0FB7980
:1038B00019461248FFF746F9FB791846FFF7E8F872
:1038C00000BFACE0FB79184600F0BEF8A7E000BFEF
:1038D00088090020001901080419010828190108A5
:1038E0002C1901084C1901086C190108DC18010891
:1038F00030090020E818010888190108A8190108F2
:1039000007F10A0307F16302474948480AF098FBA8
:103910000346A7F86A30B7F86A30022B27D1B7F907
:103920000A30002B0BD0B7F90A30012B07D0B7F9BA
:103930000A30032B03D0B7F90A30022B11D1FB79DF
:1039400019466D20FFF7DCF8B7F90A30DAB2384BC8
:1039500083F83920FEF706F9FB791846FFF798F847
:1039600047E0FB7919460B20FFF774F857E0FB7925
:1039700019466D20FFF7C4F82D4B93F839301BB270
:10398000FA7911461846FFF743F9FB791946294899
:10399000FFF7D8F8264B93F83930002B05D1FB7987
:1039A00019462548FFF7CEF81FE0214B93F8393030
:1039B000012B05D1FB7919462048FFF7C3F814E025
:1039C0001B4B93F83930032B05D1FB7919461C4862
:1039D000FFF7B8F809E0164B93F83930022B04D101
:1039E000FB7919461748FFF7ADF8FB791846FFF742
:1039F0004FF800BF13E0FB7919465320FFF780F81A
:103A0000FB791846FFF744F8FB79184600F03EF9B9
:103A100005E0FB7919460620FFF71CF800BF00BF40
:103A20007437BD4690BD00BFE8180108300900207A
:103A300088090020C4190108C8190108DC19010807
:103A4000F8190108141A010880B582B000AF0346C6
:103A5000FB71FB79184600F055FEFB7919466C485E
:103A600000F03CFEFB79184600F04CFEFB7919464D
:103A7000684800F0DFFD684B93F83930002B05D122
:103A8000FB791946654800F029FE1FE0624B93F868
:103A90003930012B05D1FB791946614800F01EFE33
:103AA00014E05D4B93F83930032B05D1FB791946AF
:103AB0005C4800F013FE09E0574B93F83930022BB5
:103AC00004D1FB791946584800F008FEFB791846E6
:103AD00000F018FEFB79184600F014FEFB79194639
:103AE000524800F0A7FD4C4B93F86030002B05D1F5
:103AF000FB7919464E4800F0F1FD04E0FB791946C8
:103B00004C4800F0EBFDFB79184600F0FBFDFB791B
:103B1000184600F0F7FDFB79184600F0F3FDFB793D
:103B2000184600F0EFFDFB791946434800F0D6FD3A
:103B3000FB79184600F0E6FDFB7919463F4800F096
:103B4000CDFDFB7919463E4800F0C8FDFB791946CA
:103B50003C4800F0C3FDFB7919463B4800F0BEFD30
:103B6000FB791946394800F0B9FDFB791946384808
:103B700000F0B4FDFB791946364800F0AFFDFB7943
:103B80001946354800F0AAFDFB791946334800F084
:103B9000A5FDFB791946324800F0A0FDFB791946D6
:103BA000304800F09BFDFB7919462F4800F096FD48
:103BB000FB7919462D4800F091FDFB7919462C48F8
:103BC00000F08CFDFB7919462A4800F087FDFB794F
:103BD0001946294800F082FDFB791946274800F074
:103BE0007DFDFB791946264800F078FDFB791946E2
:103BF000244800F073FDFB791946234800F06EFD60
:103C0000FB79184600F07EFD00BF0837BD4680BD39
:103C1000F0090020201A010888090020C8190108AD
:103C2000DC190108F8190108141A0108301A0108F2
:103C300088190108A8190108441A01085C1A01082A
:103C4000A81A0108F41A0108401B0108B01B01085A
:103C5000F81B0108481C0108C01C0108341D01089C
:103C6000801D0108C81D0108141E01086C1E0108F2
:103C7000B81E0108101F01085C1F01089C1F0108E5
:103C80000820010844200108AC20010890B583B049
:103C900000AF0346FB71FB79184600F033FDFB795A
:103CA000184600F02FFDFB79184600F02BFDFB793C
:103CB0001946BD4800F012FDFB79184600F022FDC0
:103CC000FB79184600F01EFDFB791946B74800F055
:103CD000B1FCFB791946B64800F000FDFB791846A7
:103CE00000F010FDFB79184600F00CFDFB79194639
:103CF000B04800F0F3FCFB791946AF4800F0EEFC49
:103D0000FB791946AD4800F0E9FCFB791946AC484F
:103D100000F0E4FCFB791946AA4800F0DFFCFB79CF
:103D2000184600F0EFFCFB791946A74800F082FC2A
:103D3000FDF750FD0346002B05D0FB791946A3483B
:103D400000F0CCFC4BE09A4BD3E91201984BD3E93D
:103D500014341A46234609F05FF90346002B1FD09E
:103D6000934B93ED127BFB791846B0EE470AF0EEC9
:103D7000670A00F071FCFB791946954800F05AFC7F
:103D80008B4B93ED147BFB791846B0EE470AF0EEAF
:103D9000670A00F061FCFB79184600F0B3FC1EE0F6
:103DA000834B93ED147BFB791846B0EE470AF0EE97
:103DB000670A00F051FCFB791946854800F03AFC8F
:103DC0007B4B93ED127BFB791846B0EE470AF0EE81
:103DD000670A00F041FCFB79184600F093FCFB7980
:103DE000184600F08FFCFB79184600F08BFCFB793D
:103DF0001946784800F072FCFB791946764800F0C5
:103E00006DFCFB791946754800F068FCFB79184693
:103E100000F078FCFB791946714800F00BFC644B0C
:103E200093ED047BFB791846B0EE470AF0EE670A83
:103E300000F012FCFB7919466A4800F0FBFB5C4B72
:103E400093ED067BFB791846B0EE470AF0EE670A61
:103E500000F002FCFB791946634800F0EBFB544B81
:103E600093ED087BFB791846B0EE470AF0EE670A3F
:103E700000F0F2FBFB79184600F044FCFB79184691
:103E800000F040FCFB79184600F03CFCFB79194639
:103E9000564800F023FCFB79184600F033FCFB7910
:103EA0001946534800F0C6FB414BB3F92A30FA7962
:103EB0001146184600F086FBFB7919464D4800F084
:103EC000B9FB3B4BB3F92C30FA791146184600F098
:103ED00079FBFB79184600F015FCFB79184600F0D9
:103EE00011FCFB79184600F00DFCFB79194642489D
:103EF00000F0F4FBFB791946404800F0EFFBFB793A
:103F000019463F4800F0EAFBFB79184600F0FAFB3F
:103F1000FB7919463B4800F08DFB254B93F929307E
:103F20001BB2FA791146184600F04CFBFB79184693
:103F300000F0E8FBFB79184600F0E4FBFB7918463B
:103F400000F0E0FBFB7919462F4800F0C7FBFB7936
:103F5000184600F0D7FBFB7919462C4800F06AFBA5
:103F6000134B93F839301BB2FA791146184600F01A
:103F700029FBFB791946264800F05CFB0C4B93F8B3
:103F80003930002B05D1FB791946224800F0A6FBF9
:103F900049E0074B93F83930012B3FD1FB791946A3
:103FA0001D4800F09BFB3EE0EC200108FC200108CE
:103FB000880900201821010848210108B4210108BE
:103FC000102201087C220108AC220108BC22010851
:103FD000D8220108E422010850230108BC2301086B
:103FE000DC230108F4230108FC2301080424010850
:103FF0002C2401084024010844240108B0240108AD
:104000001C2501088C250108A4250108BC250108F0
:10401000C4190108C8190108C4250108FB7919460B
:10402000094800F05BFBFB79184600F06BFBFB795D
:10403000184600F067FBFB79184600F063FB00BFF1
:104040000C37BD4690BD00BF141A010880B500AF03
:10405000664B1B780F2B40F0C780644B1B7E002BF8
:1040600040F0C28002F0C4F90246614B5A605F4BD7
:104070001B68C3F30A239BB21A465D4B1A855B4B40
:104080005B88C3F3CA039BB21A46594B5A85574BF8
:10409000DA789209D2B29B88C3F308039B001343DA
:1040A0009BB21A46524B9A85504B5B68C3F34A2326
:1040B0009BB21A464E4BDA854C4BDB88C3F30A138E
:1040C0009BB21A464A4B1A86484BDA79D209D2B2C9
:1040D0001B89C3F309035B0013439BB21A46444B8D
:1040E0005A86424B9B68C3F38A239BB21A46404BC5
:1040F0009A863E4B5B89C3F34A139BB21A463C4BEC
:10410000DA863A4B9B89C3F30A039BB21A46384BB3
:104110001A87364BDB68C3F3CA239BB21A46344B6B
:104120005A87324BDA89920992B21B7C03F0010361
:104130009B0213439BB21A462D4B9A872B4B1B8A2B
:10414000C3F34A039BB21A46294BDA87274B1B69F4
:10415000C3F30A339BB21A46254BA3F84020234BE6
:104160005A8AD20992B21B7D03F003035B02134308
:104170009BB21A461E4BA3F842201C4B9B8AC3F3EA
:104180008A039BB21A461A4BA3F84420174B5B696B
:10419000C3F34A339BB21A46154BA3F84620134B80
:1041A000DB7D03F00103DAB2114B83F848200F4B9B
:1041B000DB7D03F00203DAB20D4B83F849200B4B91
:1041C000DB7D03F00403DAB2094B83F84A20074B86
:1041D000DB7D03F00803DAB2054B83F84B20044B78
:1041E0001B690133024A136100BF80BDB002002089
:1041F000440A002080B582B000AF0346FB7102F094
:10420000F7F80246174B5B68D31A40F6B832934270
:1042100001D9002322E0FB790F2B1ED8FB79114A2C
:10422000143332F81330002B01D1002316E00D4B6C
:1042300093F84C30022B09D1FB790A4A143332F837
:104240001330A3F5FA739BB21BB207E0FB79054A62
:10425000143332F813301BB200E00023184608373D
:10426000BD4680BD440A002080B400AF024B184612
:10427000BD465DF8047B7047B002002080B58EB06B
:1042800000AF78607B681B681B683B637B681B68BA
:10429000DB68FB627B681B685B69BB6200237B6237
:1042A0007B681B685B6887F823303B6B03F00F0368
:1042B0007B627B6A002B62D13B6B03F02003002BF7
:1042C00000F0F680FB6A03F02003002B00F0F08082
:1042D00002F08EF8F861784B1B68FA69D31ABB615B
:1042E000BB69032B0DD97B68744A9A627B681922DB
:1042F000DA85714AFB6913606F4B5B6901336E4A63
:1043000053617B68DB8D9BB2002B00F0D1807B6812
:104310009B6A97F823201A707B68DB8D9BB2192B60
:1043200005D17B689B6A1B780F2B40F0C1807B68AE
:10433000DB8D9BB2192B02D15F4AFB6913607B684E
:10434000DB8D9BB2013B9AB27B68DA857B689B6A06
:104350005A1C7B689A627B68DB8D9BB2002B40F015
:10436000A780FFF773FE7B68544A9A627B68192224
:10437000DA85514B9B6801334F4A936098E00023E4
:1043800087F837303B6B03F00103002B1DD0FB6A2D
:1043900003F48073002B18D07B68DB6B43F00102C1
:1043A0007B68DA6300237B617B681B681B687B6129
:1043B0007B681B685B687B617B693F4B9B69013352
:1043C0003D4A9361012387F837303B6B03F00403C8
:1043D000002B1DD0BB6A03F00103002B18D07B68B3
:1043E000DB6B43F002027B68DA6300233B617B688E
:1043F0001B681B683B617B681B685B683B613B69B2
:104400002D4BDB6901332C4AD361012387F8373008
:104410003B6B03F00203002B1DD0BB6A03F00103CA
:10442000002B18D07B68DB6B43F004027B68DA63F7
:104430000023FB607B681B681B68FB607B681B6854
:104440005B68FB60FB681C4B1B6A01331A4A1362F2
:10445000012387F837303B6B03F00803002B1DD096
:10446000BB6A03F00103002B18D07B68DB6B43F0C1
:1044700008027B68DA630023BB607B681B681B68EB
:10448000BB607B681B685B68BB60BB680A4B5B6A90
:104490000133094A5362012387F8373097F83730E0
:1044A000002B05D0044BDB680133034AD360FFE7E0
:1044B00000BF3837BD4680BD440A0020B00200204E
:1044C00090B585B000AF78607B681B68394A93422D
:1044D0006BD17B681B7E042B67D10C21786805F0BB
:1044E0009FFC03469AB2344B1B88D31AFB81FB898D
:1044F000B3F57A6F11D9314B00221A7001F078FFB1
:1045000002462F4B5A602E4B1B6901332C4A136114
:104510002B4B002283F84C200CE0284B93F9003001
:104520000F2B07DC254B93F9003025491433FA890A
:1045300021F813200821786805F072FC03469CB22C
:104540000C21786805F06CFC03469BB2E31ABB8132
:10455000BB8940F22522934209D8184B93F90030C9
:10456000DBB20133DBB25AB2144B1A7015E0BB89CF
:1045700042F21072934210D9104B00221A7001F0CF
:1045800037FF02460E4B5A600D4B1B6901330C4A34
:1045900013610B4B022283F84C200821786805F048
:1045A0003FFC03469AB2044B1A8000BF1437BD4645
:1045B00090BD00BF00000140CA020020C9020020D7
:1045C000440A002080B582B000AF03460A46FB8053
:1045D00013467B71B7F90630064A5021064809F0A8
:1045E000D9FC7B791946044800F09CF800BF0837D5
:1045F000BD4680BDD0250108940A002080B582B058
:1046000000AF03460A46FB711346BB71FB79074AAC
:104610005021074809F0BEFCBB791946044800F058
:1046200081F800BF0837BD4680BD00BFD82501080E
:10463000940A002080B582B000AF78600B46FB7012
:10464000FB781946786800F06DF800BF0837BD4662
:1046500080BD00BF0000000090B587B002AF87EDBD
:10466000020B0346FB7119A3D3E90023D7E902012A
:1046700008F0F0FC0346002B09D116A3D3E9002370
:10468000D7E9020108F0C8FC0346002B05D0FB79EE
:1046900019460B4800F046F80DE0D7E90234CDE9A1
:1046A0000034084A5021084809F074FCFB79194687
:1046B000054800F037F800BF1437BD4690BD00BF75
:1046C000E4250108F0250108940A002000000000FC
:1046D0007E842E41000000007E842EC180B582B011
:1046E00000AF78600B46FB70FB781946786800F0E5
:1046F00019F8FB78184600F005F800BF0837BD46EA
:1047000080BD00BF80B582B000AF0346FB71FB796E
:104710001946034800F006F800BF0837BD4680BDC3
:104720002826010880B582B000AF78600B46FB7088
:10473000FB78012B02D0FB78022B02D1786801F0C4
:1047400085F900BF0837BD4680BD00BF80B582B087
:1047500000AF786000F058FA184BD8221A707B68C6
:104760001B0CDAB2154B5A707B681B0ADAB2134B7A
:104770009A707B68DAB2114BDA7000220821104877
:1047800002F040FC41F2883304220C490D4804F049
:1047900053FB0346012B0AD0032B0AD000BF012292
:1047A0000821074802F02EFC00F056FA02E000BF94
:1047B00000E000BF0837BD4680BD00BFE40A00200E
:1047C00000040240E404002080B584B000AFF8602B
:1047D000B9601346FB8000F017FA214B02221A70D1
:1047E000BB681B0CDAB21E4B5A70BB681B0ADAB2EC
:1047F0001B4B9A70BB68DAB2194BDA7000220821A1
:10480000184802F0FFFB41F288330422144916488D
:1048100004F012FB0346012B17D0032B17D000BF67
:10482000FA8841F28833F9680F4804F005FB034623
:10483000012B0ED0032B0ED000BF01220821094806
:1048400002F0E0FB00F008FA06E000BF04E000BF61
:1048500002E000BF00E000BF1037BD4680BD00BFD2
:10486000E40A002000040240E404002080B58AB07D
:1048700000AFF860B9607A6000237B6200233B627E
:104880000023FB610023BB6100237B61BB68DBB2BB
:10489000FB61FB69C3F58073BB617B681B0A7B62AC
:1048A0007B68DBB23B62FB69002B25D17B6A002B66
:1048B00015D17B689BB21A46B968F868FFF784FF88
:1048C0007BE04FF48072B968F868FFF77DFFBB6842
:1048D00003F58073BB60FB6803F58073FB607B6A44
:1048E0005A1E7A62002BECD13B6A9BB21A46B96819
:1048F000F868FFF769FF60E07B6A002B26D13A6A0F
:10490000BB699A421AD93A6ABB69D31A7B61BB69FF
:104910009BB21A46B968F868FFF756FFBA68BB69D8
:104920001344BB60FA68BB691344FB607B699BB2AC
:104930001A46B968F868FFF747FF3EE07B689BB20C
:104940001A46B968F868FFF73FFF36E07A68BB6936
:10495000D31A7B607B681B0A7B627B68DBB23B629D
:10496000BB699BB21A46B968F868FFF72DFFBA68B1
:10497000BB691344BB60FA68BB691344FB600DE07C
:104980004FF48072B968F868FFF71EFFBB6803F543
:104990008073BB60FB6803F58073FB607B6A5A1E03
:1049A0007A62002BECD13B6A002B06D03B6A9BB2AB
:1049B0001A46B968F868FFF707FF00BF2837BD46F9
:1049C00080BD00BF80B588B002AFF860B9607A6082
:1049D00000237B612C4B03221A70BB681B0CDAB2DC
:1049E000294B5A70BB681B0ADAB2274B9A70BB6816
:1049F000DAB2254BDA7000220821244802F002FBCB
:104A000041F2883304222049214804F015FA034674
:104A1000012B08D0032B04D000BF1B4BA5221A701A
:104A200023E001232CE001232AE007F1130241F2E5
:104A30008833009301231449154804F039FB0346D9
:104A4000012B0AD0032B06D000BFFB681A78FB7C31
:104A50009A4207D003E0012312E0012310E07B69B2
:104A600001337B61FB680133FB607B685A1E7A600F
:104A7000002BDAD101220821044802F0C3FA7B6935
:104A800018461837BD4680BDE40A002000040240E5
:104A9000E404002080B586B002AFF860B9607A60A7
:104AA000264B03221A70BB681B0CDAB2234B5A70D8
:104AB000BB681B0ADAB2214B9A70BB68DAB21F4B93
:104AC000DA70002208211E4802F09CFA41F2883375
:104AD00004221A491B4804F0AFF90346012B23D0E6
:104AE000032B23D000BF154BA5221A7011E041F211
:104AF000883300930123FA681049124804F0D8FA69
:104B00000346012B14D0032B14D000BFFB680133E4
:104B1000FB607B685A1E7A60002BE8D101220821D5
:104B2000074802F06FFA06E000BF04E000BF02E0B1
:104B300000BF00E000BF1037BD4680BDE40A002082
:104B400000040240E404002080B588B002AF0023D6
:104B50007B6100233B610023FB600023BB600022DC
:104B60000821264802F04EFA254B9F221A7041F286
:104B7000883301222249234804F05EF90346012BC1
:104B80001AD0032B16D000BF1D4BA5221A701C4B48
:104B9000A5225A701A4BA5229A703A1D41F2883309
:104BA000009303231649174804F082FA0346012BA9
:104BB0001ED003E001231CE001231AE0032B15D0D3
:104BC00000BF012208210D4802F01CFA3B793B612D
:104BD0007B79FB60BB79BB603B691A04FB681B02F5
:104BE0001A43BB6813437B617B6902E0012300E049
:104BF000012318461837BD4680BD00BF000402409F
:104C0000E40A0020E404002080B500AF002208215F
:104C10000E4802F0F7F90E4B06221A7041F2883363
:104C200001220B490B4804F007F90346012B08D079
:104C3000032B08D000BF01220821044802F0E2F94A
:104C400002E000BF00E000BF80BD00BF00040240E2
:104C5000E40A0020E404002080B584B002AF002301
:104C6000FB71002208211D4802F0CCF91C4B0522E3
:104C70001A7041F28833012219491A4804F0DCF80D
:104C80000346012B1FD0032B1FD000BF144BA522BE
:104C90001A70FA1D41F2883300930123104911481C
:104CA00004F006FA0346012B11D0032B11D000BFEC
:104CB000FB7903F00103002BEBD101220821074807
:104CC00002F0A0F906E000BF04E000BF02E000BF70
:104CD00000E000BF0837BD4680BD00BF00040240B1
:104CE000E40A0020E40400200649074A074B9A42E0
:104CF000BEBF51F8040B42F8040BF8E704488047A4
:104D000004480047202A010800000020400200203B
:104D100049550008E50100083349344A002301E001
:104D200041F8043B9142FBD3FDF746F9FEE7FEE76D
:104D3000FEE7FEE7FEE7FEE7FEE7FEE7FEE7FEE74B
:104D4000FEE7FEE7FEE7FEE7FEE7FEE7FEE7FEE73B
:104D5000FEE7FEE7FEE7FEE7FEE7FEE7FEE7FEE72B
:104D6000FEE7FEE7FEE7FEE7FEE7FEE7FEE7FEE71B
:104D7000FEE7FEE7FEE7FEE7FEE7FEE7FEE7FEE70B
:104D8000FEE7FEE7FEE7FEE7FEE7FEE7FEE7FEE7FB
:104D9000FEE7FEE7FEE7FEE7FEE7FEE7FEE7FEE7EB
:104DA000FEE7FEE7FEE7FEE7FEE7FEE7FEE7FEE7DB
:104DB000FEE7FEE7FEE7FEE7FEE7FEE7FEE7FEE7CB
:104DC000FEE7FEE7FEE7FEE7FEE7FEE7FEE7FEE7BB
:104DD000FEE7FEE7FEE7FEE7FEE7FEE7FEE7FEE7AB
:104DE000FEE7FEE7FEE700004002002060330020FF
:104DF00080B500AF032001F0EFFB002200216FF02F
:104E00000B0001F0F5FB002200216FF00A0001F019
:104E1000EFFB002200216FF0090001F0E9FB002206
:104E200000216FF0040001F0E3FB002200216FF08D
:104E3000030001F0DDFB002200216FF0010001F012
:104E4000D7FB002200214FF0FF3001F0D1FB00BF63
:104E500080BD00BF80B483B000AF78607B681B6802
:104E6000054A934202D1054B01221A6000BF0C375C
:104E7000BD465DF8047B7047002800403C0E474269
:104E800080B58AB000AF78607B681B682D4A93427A
:104E90001ED100233B612C4A2B4B5B6C43F48053A7
:104EA0005364294B5B6C03F480533B613B69F023F3
:104EB0007B610223BB610023FB6103233B6205236B
:104EC0007B6207F114031946204801F001FF34E02A
:104ED0007B681B681E4A93422FD10023FB601A4A4D
:104EE000194B1B6C43F400431364174B1B6C03F406
:104EF0000043FB60FB684FF400437B610223BB610E
:104F00000023FB6103233B6206237B6207F114034A
:104F100019460E4801F0DCFE4FF4E0537B6102239A
:104F2000BB610023FB6103233B6206237B6207F125
:104F300014031946074801F0CBFE00BF2837BD46D1
:104F400080BD00BF00300140003802400000024038
:104F5000003C00400008024080B485B000AF78609B
:104F60007B681B680B4A93420DD10023FB600A4A01
:104F7000094B1B6C43F002031364074B1B6C03F0DB
:104F80000203FB60FB6800BF1437BD465DF8047B7D
:104F9000704700BF000400400038024080B588B070
:104FA00000AF78607B681B68124A93421DD10023D2
:104FB000BB60114A104B1B6C43F0080313640E4B8B
:104FC0001B6C03F00803BB60BB680323FB60022378
:104FD0003B6101237B610323BB610223FB6107F17A
:104FE0000C031946054801F073FE00BF2037BD468B
:104FF00080BD00BF000C00400038024000000240AD
:1050000080B588B000AF78607B681B68164A934211
:1050100026D10023BB60154A144B5B6C43F001039F
:105020005364124B5B6C03F00103BB60BB684FF42D
:10503000C063FB6002233B6100237B610023BB61F3
:105040000123FB6107F10C031946094801F040FEFA
:10505000002200211B2001F0CBFA1B2001F0E4FA12
:1050600000BF2037BD4680BD00000140003802402F
:105070000000024080B588B000AF78607B681B6894
:105080000B4A93420FD10323FB6002233B610123B0
:105090007B610223BB610223FB6107F10C0319460C
:1050A000044801F015FE00BF2037BD4680BD00BF9B
:1050B000000400400004024080B58AB000AF786070
:1050C0007B681B68754A934259D100233B61744A3F
:1050D000734B5B6C43F010035364714B5B6C03F0D8
:1050E00010033B613B694FF4C0637B610223BB61EA
:1050F0000123FB6103233B6207237B6207F1140357
:105100001946684801F0E4FD674B684A1A60664B2F
:105110004FF000625A60644B00229A60624B00229A
:10512000DA60614B4FF480621A615F4B00225A6172
:105130005D4B00229A615C4B0022DA615A4B4FF4BE
:1051400000321A62584B00225A62574801F0B0FAF6
:105150000346002B04D040F245115548FDF76AFC88
:105160007B68514A5A63504A7B689363002200214E
:10517000252001F03DFA252001F056FA33E17B6845
:105180001B684C4A934240F09F800023FB60444AD6
:10519000434B1B6C43F400331364414B1B6C03F40F
:1051A0000033FB60FB680C237B610223BB6101239E
:1051B000FB6103233B6207237B6207F1140319465B
:1051C000384801F085FD3C4B3C4A1A603A4B4FF0A1
:1051D00000625A60384B00229A60374B0022DA6036
:1051E000354B4FF480621A61334B00225A61324BC7
:1051F00000229A61304B0022DA612F4B00221A62A2
:105200002D4B00225A622C4801F052FA0346002B23
:1052100004D04FF4B6712648FDF70CFC7B68264A93
:105220005A63254A7B689363254B264A1A60244BB0
:105230004FF000625A60224B40229A60204B0022BD
:10524000DA601F4B4FF480621A611D4B00225A61D5
:105250001B4B00229A611A4B0022DA61184B002284
:105260001A62174B00225A62154801F021FA0346D0
:10527000002B04D04FF4BF710D48FDF7DBFB7B68BA
:105280000F4A1A630E4A7B6893630022002126208E
:1052900001F0AEF9262001F0C7F9A4E000100140AA
:1052A00000380240000002403C05002040640240FB
:1052B0002C260108004400400803002088600240BA
:1052C0009C050020A06002407B681B68484A93420E
:1052D00040F089800023BB60464A464B1B6C43F478
:1052E00080231364434B1B6C03F48023BB60BB68B7
:1052F0004FF440637B610223BB610123FB61032305
:105300003B6207237B6207F1140319463A4801F018
:10531000DFFC3A4B3A4A1A60384B4FF000625A6051
:10532000364B00229A60354B0022DA60334B4FF443
:1053300080621A61314B00225A61304B00229A611F
:105340002E4B0022DA612D4B00221A622B4B0022D9
:105350005A622A4801F0ACF90346002B04D040F20F
:10536000A5112848FDF766FB7B68244A5A63234A47
:105370007B689363244B254A1A60234B4FF00062ED
:105380005A60214B40229A601F4B0022DA601E4B6C
:105390004FF480621A611C4B00225A611A4B0022A2
:1053A0009A61194B0022DA61174B00221A62164BE0
:1053B00000225A62144801F07BF90346002B04D006
:1053C00040F2B7110F48FDF735FB7B680E4A1A63B0
:1053D0000D4A7B68936300220021272001F008F921
:1053E000272001F021F900BF2837BD4680BD00BF4E
:1053F00000480040003802400004024068030020DA
:10540000286002402C2601080C040020586002404D
:1054100080B400AF00BFBD465DF8047B704700BF9D
:1054200080B400AFFEE700BF80B400AFFEE700BF6E
:1054300080B400AFFEE700BF80B400AFFEE700BF5E
:1054400080B400AF00BFBD465DF8047B704700BF6D
:1054500080B400AF00BFBD465DF8047B704700BF5D
:1054600080B400AF00BFBD465DF8047B704700BF4D
:1054700080B500AF00F0AEFF01F00CF900BF80BDB9
:1054800080B500AF024801F0E3F900BF80BD00BF66
:105490006803002080B500AF024801F0D9F900BFD1
:1054A00080BD00BF0C04002080B500AF024801F0B1
:1054B000CFF900BF80BD00BF0803002080B500AF5A
:1054C000024801F0C5F900BF80BD00BF9C05002067
:1054D00080B500AF0248FEF7D1FE00BF80BD00BF1F
:1054E000FC05002080B500AF024805F0F1FA00BFCE
:1054F00080BD00BFF008002080B500AF024805F075
:10550000E7FA00BF80BD00BFC803002080B500AF30
:10551000024801F09DF900BF80BD00BF3C0500209E
:1055200080B500AF024801F0C3FE00BF80BD00BFE0
:10553000682D002080B500AF024804F0D1F900BF0B
:1055400080BD00BF5C06002080B400AF164A164B39
:10555000D3F8883043F47003C2F88830134A134BF1
:105560001B6843F001031360104B00229A600F4A3E
:105570000E4B1B6823F0847323F4803313600B4BB2
:105580000B4A5A60094A094B1B6823F480231360B5
:10559000064B0022DA60044B4FF000629A6000BFB5
:1055A000BD465DF8047B704700ED00E00038024026
:1055B0001030002480B500AF002208490848FBF7EE
:1055C0008BF808490648FBF7B3F807490448FAF78F
:1055D000E9FF0348FBF7C6F800BF80BD6401002067
:1055E000E80A00200C0000205401002080B500AF24
:1055F000002205490548FAF7EDFF05490348FBF786
:1056000003F80023184680BD10150020E80A00208A
:10561000100D002080B400AF00231846BD465DF891
:10562000047B704780B483B000AF03463960FB71E0
:105630001346BB80FB79232B00F28C8001A252F829
:1056400023F000BF5557000855570008555700086C
:10565000555700085557000855570008555700087A
:10566000555700085557000855570008555700086A
:10567000555700085557000855570008555700085A
:10568000555700085557000855570008555700084A
:10569000555700085557000855570008555700083A
:1056A000555700085557000855570008555700082A
:1056B000555700085557000855570008555700081A
:1056C00055570008D55600080F57000855570008D1
:1056D000555700083B681A78224B1A703B685A7875
:1056E000204B5A703B689A781E4B9A703B68DA7868
:1056F0001C4BDA703B681A791A4B1A713B685A795D
:10570000184B5A713B689A79164B9A7123E0154BE6
:105710001A783B681A703B680133124A52781A7043
:105720003B6802330F4A92781A703B6803330D4A84
:10573000D2781A703B6804330A4A12791A703B68AF
:105740000533084A52791A703B680633054A927944
:105750001A7000E000BF002318460C37BD465DF804
:10576000047B7047102D002080B584B000AF7860B6
:1057700039603B681B68FB60314B1A68FB681A4450
:10578000304B1B6850339A4213D92E4B1B6803F1E0
:1057900050022B4B1B689A4204D22B4B01221A70E9
:1057A000002349E0274B1A68254B1B68D31A503356
:1057B000FB60234B1968254BA3FB01239A09134671
:1057C0009B0013441B01CA1A13467B817B89C3F1DA
:1057D00050031A46FB689A4218D27B891C4A9818D3
:1057E0007B89C3F150031A46796807F0AFFC7B89C7
:1057F000C3F150031A467B6899187A89FB681344F1
:10580000503B1A46124807F0A1FC07E07B89104A7A
:105810001344FA687968184607F098FC084B1A6830
:10582000FB681344064A13600A490B48FAF7ECFE7A
:105830000948FAF727FF002318461037BD4680BDF8
:10584000CC020020D4020020D8020020CDCCCCCC49
:10585000182D002010250020E80A002080B584B013
:1058600000AF78600B467B807EE04D4B19684D4B56
:10587000A3FB01239A0913469B0013441B01CA1A78
:10588000494B13440121184600F096F8444B19681F
:10589000444BA3FB01239A0913469B0013441B01AD
:1058A000CA1A414B9B5C0A2B0ED03D4B19683D4BED
:1058B000A3FB01239A0913469B0013441B01CA1A38
:1058C000394B9B5C0D2B4AD1354B1B680133344A55
:1058D0001360334B1A68354B1B68D31AFB607A8808
:1058E000FB689A4236D3314B19682E4BA3FB012338
:1058F0009A0913469B0013441B01CA1A13467B8165
:105900007A89FB681344502B08D87B89264A1344B4
:10591000FA681946786807F019FC14E07B89224A76
:1059200099187B89C3F150031A46786807F00EFC7A
:105930007B897A68D0187A89FB681344503B1A46F1
:10594000194907F003FC164B1B68184A1360FB68E3
:105950009BB220E0124B1B68144A136004E0104B0A
:105960001B6801330E4A13600D4B1A68104B1B68FD
:105970009A42FFF47AAF0F4B1B78012B0AD10C4BE4
:105980001B68074A13600A4B1B68084A1360094BDF
:1059900000221A70002318461037BD4680BD00BF94
:1059A000D0020020CDCCCCCC182D0020D402002079
:1059B000CC020020D802002080B584B000AF78600F
:1059C00039601F4B1B68C3F30A03FB601D4B93F840
:1059D000FC31032B2ED13B68B3F5006F2AD2FA6855
:1059E0003B681344B3F5006F16D9FB68C3F5006339
:1059F000BB60FB68144A1344BA687968184607F01C
:105A0000A5FB7A68BB68D1183A68BB68D31A1A46F6
:105A10000D4807F09BFB07E0FB680B4A13443A680C
:105A20007968184607F092FB054B1A683B681344E7
:105A3000034A1360002318461037BD4680BD00BFDF
:105A4000E0020020E80A0020101D002080B582B08E
:105A500000AF7860786808F01FFB03461946786845
:105A6000FFF7AAFF034618460837BD4680BD00BFB2
:105A700080B582B000AF1B4B1B68C3F30A033B60C9
:105A8000194B1A68174B1B68D31A7B60174B93F896
:105A9000FC31032B21D1144B1A68124B1B689A421C
:105AA0001BD03A687B681344B3F5006F03D93B6899
:105AB000C3F500637B603B680D4A13447A6892B279
:105AC00019460A48FAF786FD0848FAF7B1FD054B72
:105AD0001A687B681344034A136000BF0837BD4649
