:020000040800F2
:1000000000000220A99A0008E9A00008F9A0000851
:100010000DA1000821A1000835A100080000000082
:1000200000000000000000000000000049A10008DE
:1000300059A100080000000069A1000879A100088A
:10004000039B0008059B0008079B0008099B00080C
:100050000B9B00080D9B00080F9B0008119B0008DC
:10006000139B0008159B0008179B0008199B0008AC
:100070001B9B00081D9B00081F9B0008219B00087C
:10008000239B0008259B0008279B0008299B00084C
:100090002B9B00082D9B00082F9B0008319B00081C
:1000A000339B0008359B0008379B0008EDA1000832
:1000B0003B9B00083D9B00083F9B0008419B0008BC
:1000C000439B0008459B0008479B0008499B00088C
:1000D0004B9B000889A100089DA10008B1A1000860
:1000E000539B0008559B0008579B0008599B00082C
:1000F0005B9B00085D9B00085F9B0008619B0008FC
:10010000639B0008659B000801A20008699B00082A
:100110006B9B00086D9B00086F9B0008719B00089B
:10012000739B0008759B0008779B0008799B00086B
:100130007B9B00087D9B00087F9B0008819B00083B
:10014000839B0008859B0008879B0008D9A10008B5
:100150008B9B00088D9B00088F9B0008C5A10008A1
:10016000939B0008959B0008979B0008999B0008AB
:100170009B9B00089D9B00089F9B0008A19B00087B
:10018000A39B0008A59B000810B5054C237833B944
:10019000044B13B10448AFF300800123237010BD5A
:1001A0004402002000000000049D0108084B10B527
:1001B0001BB108490848AFF300800848036803B939
:1001C00010BD074B002BFBD0BDE81040184700BF07
:1001D0000000000048020020049D010844020020A5
:1001E00000000000154B002B08BF134B9D46A3F5E4
:1001F000803A00218B460F461348144A121A12F017
:1002000090FC0F4B002B00D098470E4B002B00D0DA
:1002100098470020002104000D000D48002802D05E
:100220000C48AFF3008012F03BFC2000290002F0E4
:10023000B5FD12F021FC00BF000008000000022004
:10024000000000000000000044020020C03A00202E
:10025000000000000000000080B584B000AF7860AE
:100260000B46FB700023FB737B681B7C002B0ED1BD
:100270004FF400730222812178680AF063FF4FF483
:1002800000730222012178680AF05CFF0BE0402332
:100290000222812178680AF055FF402302220121C1
:1002A00078680AF04FFF08230322822178680AF059
:1002B00049FF4FF4077012F019FC03461A467B6899
:1002C000C3F818227B68D3F81832002B02D101231F
:1002D000FB7326E07B68D3F81832BB607B68D3F8E9
:1002E0001C321B689847BB680022C3F81422BB6805
:1002F0000022C3F818227B681B7C002B09D1BB6845
:10030000D3F804224FF40073012178680BF096F8BB
:1003100007E0BB68D3F804224023012178680BF082
:100320008DF8FB7B18461037BD4680BD80B584B084
:1003300000AF78600B46FB700023FB738121786867
:100340000AF03EFF012178680AF03AFF82217868BE
:100350000AF036FF7B68D3F81832002B0ED07B688A
:10036000D3F81C325B6898477B68D3F8183218467C
:1003700012F0C4FB7B680022C3F81822FB7B1846EE
:100380001037BD4680BD00BF80B584B000AF786037
:1003900039607B68D3F81832FB603B681B7803F048
:1003A0006003002B3AD0202B00D043E03B68DB8871
:1003B000002B29D03B681B785BB2002B11DA7B68DD
:1003C000D3F81C329B683A685078F9683A68D2884A
:1003D0009847F9683B68DB881A46786801F09CF812
:1003E00029E03B685A78FB6883F800223B68DB8889
:1003F000DAB2FB6883F80122F9683B68DB881A46A9
:10040000786801F0B7F816E07B68D3F81C329B6877
:100410003A6850780022396898470CE03B685B786E
:100420000A2B01D00B2B05E001220549786801F069
:1004300073F800BF00BF002318461037BD4680BDCB
:100440006002002080B485B000AF78600B46FB707E
:100450007B68D3F81832FB607B68D3F81832002B26
:1004600005D0FB680022C3F81422002300E0022319
:1004700018461437BD465DF8047B704780B584B0DC
:1004800000AF78600B46FB707B68D3F81832FB60D6
:10049000FB78194678680BF00BF80246FB68C3F846
:1004A0000C227B68D3F81832002B0DD07B68D3F870
:1004B0001C32DB68FA68D2F80402FA6802F50372AB
:1004C00011469847002300E0022318461037BD4626
:1004D00080BD00BF80B584B000AF78607B68D3F882
:1004E0001832FB607B68D3F81C32002B15D0FB68F8
:1004F00093F80032FF2B10D07B68D3F81C329B6836
:10050000FA6892F80002F968FA6892F8012292B249
:100510009847FB68FF2283F8002200231846103713
:10052000BD4680BD80B483B000AF78607B68432255
:100530001A80034B18460C37BD465DF8047B7047A4
:100540008800002080B483B000AF78607B684322CD
:100550001A80034B18460C37BD465DF8047B704784
:100560004400002080B483B000AF78607B684322F1
:100570001A80034B18460C37BD465DF8047B704764
:10058000CC00002080B483B000AF78607B680A2282
:100590001A80034B18460C37BD465DF8047B704744
:1005A0000000002080B485B000AF7860396002237D
:1005B000FB733B68002B05D07B683A68C3F81C22AC
:1005C0000023FB73FB7B18461437BD465DF8047BA4
:1005D000704700BF80B487B000AFF860B9601346C1
:1005E000FB80FB68D3F818327B617B69BA68C3F87B
:1005F0000822FA887B69C3F81022002318461C37AA
:10060000BD465DF8047B704780B485B000AF78606C
:1006100039607B68D3F81832FB60FB683A68C3F82E
:100620000422002318461437BD465DF8047B70474A
:1006300080B584B000AF78607B68D3F81832FB6077
:100640007B68D3F81832002B17D0FB68D3F814322C
:10065000002B10D1FB680122C3F81422FB68D3F8E9
:100660000822FB68D3F810329BB2812178680AF027
:10067000ABFE002302E0012300E0022318461037FE
:10068000BD4680BD80B584B000AF78607B68D3F88C
:100690001832FB607B68D3F81832002B17D07B68C8
:1006A0001B7C002B09D1FB68D3F804224FF40073A4
:1006B000012178680AF0C2FE07E0FB68D3F8042243
:1006C0004023012178680AF0B9FE002300E00223EC
:1006D00018461037BD4680BD80B584B000AFF860C5
:1006E000B9601346FB71FB68002B01D102231AE0AD
:1006F000FB68D3F81432002B03D0FB680022C3F848
:100700001422BB68002B03D0FB68BA68C3F8102220
:10071000FB68012283F8FC21FB68FA791A70F868FB
:100720000AF026FC002318461037BD4680BD00BFE6
:1007300080B582B000AF78607B68012283F8FC212D
:100740007B68D3F814325B687A685268D2B211467B
:100750007868984778680AF0C3FC78680AF05CFC0F
:10076000002318460837BD4680BD00BF80B485B061
:1007700000AF786039600023FB733B68002B06D024
:100780007B683A68C3F814220023FB7301E002235C
:10079000FB73FB7B18461437BD465DF8047B70473E
:1007A00080B582B000AF786078680AF067FC0023FB
:1007B00018460837BD4680BD80B582B000AF78606E
:1007C0007B68D3F814325B687A685268D2B21146FB
:1007D0007868984778680AF083FC00231846083741
:1007E000BD4680BD80B483B000AF7860002318465A
:1007F0000C37BD465DF8047B704700BF80B584B000
:1008000000AF78600B46FB700223FB737B68D3F864
:100810001432002B0CD07B68D3F814321B68FA78A2
:100820001146786898470346002B01D10023FB73DB
:10083000FB7B18461037BD4680BD00BF80B582B037
:1008400000AF78600B46FB707B68D3F814325B68AE
:10085000FA78114678689847002318460837BD464D
:1008600080BD00BF80B582B000AF786039607B6822
:1008700003F502733968184600F0A2FD7B68012277
:10088000C3F8F4217B68B3F80E321A467B68C3F8CC
:10089000F8217B6893F8083203F01F03012B0BD07B
:1008A000022B11D0002B17D17B6803F50273194678
:1008B000786800F0CFF91AE07B6803F502731946F7
:1008C000786800F017FA12E07B6803F502731946A6
:1008D000786800F043FA0AE07B6893F8083223F066
:1008E0007F03DBB2194678680AF0A0FC00BF002342
:1008F00018460837BD4680BD80B586B000AFF860A9
:100900000B467A60FB72FB7A002B38D1FB6803F54B
:1009100082737B61FB68D3F8F431032B42D17B698E
:100920009A687B69DB689A4214D97B699A687B690B
:10093000DB68D21A7B699A607B69DA687B699B689D
:10094000934228BF13469BB21A467968F86800F0B4
:100950002FFE27E0FB68D3F814321B69002B0AD066
:10096000FB6893F8FC31032B05D1FB68D3F81432F4
:100970001B69F8689847F86800F02CFE12E0FB68E5
:10098000D3F814329B69002B0CD0FB6893F8FC3130
:10099000032B07D1FB68D3F814329B69FA7A11460E
:1009A000F8689847002318461837BD4680BD00BF39
:1009B00080B586B000AFF8600B467A60FB72FB7AB8
:1009C000002B6CD1FB6814337B61FB68D3F8F431E6
:1009D000022B57D17B699A687B69DB689A4215D9EB
:1009E0007B699A687B69DB68D21A7B699A607B694C
:1009F0009B689BB21A467968F86800F0A9FD00234D
:100A000000220021F8680AF019FD3BE07B695B6871
:100A10007A69D268B3FBF2F102FB01F29B1A002B58
:100A20001CD17B695A687B69DB689A4216D37B6963
:100A30005A68FB68D3F8F8319A420FD2002200219D
:100A4000F86800F085FDFB680022C3F8F821002358
:100A500000220021F8680AF0F1FC13E0FB68D3F8EB
:100A60001432DB68002B0AD0FB6893F8FC31032BAF
:100A700005D1FB68D3F81432DB68F8689847F8684A
:100A800000F0BCFDFB6893F80032012B1AD1F86826
:100A9000FFF7A8FEFB68002283F8002212E0FB6843
:100AA000D3F814325B69002B0CD0FB6893F8FC314F
:100AB000032B07D1FB68D3F814325B69FA7A11462D
:100AC000F8689847002318461837BD4680BD00BF18
:100AD00080B582B000AF78604023002200217868A2
:100AE0000AF030FB7B684022C3F81021402300222B
:100AF000802178680AF026FB7B6840221A627B68B6
:100B0000012283F8FC217B68D3F81832002B09D02E
:100B10007B68D3F814325B687A685268D2B21146A7
:100B200078689847002318460837BD4680BD00BF47
:100B300080B483B000AF78600B46FB707B68FA78B6
:100B40001A74002318460C37BD465DF8047B7047C5
:100B500080B483B000AF78607B6893F8FC217B6839
:100B600083F8FD217B68042283F8FC2100231846CA
:100B70000C37BD465DF8047B704700BF80B483B07E
:100B800000AF78607B6893F8FD217B6883F8FC21D7
:100B9000002318460C37BD465DF8047B704700BF44
:100BA00080B582B000AF78607B6893F8FC31032B8E
:100BB0000BD17B68D3F81432DB69002B05D07B683E
:100BC000D3F81432DB697868984700231846083751
:100BD000BD4680BD80B483B000AF78600B46FB702B
:100BE000002318460C37BD465DF8047B704700BFF4
:100BF00080B483B000AF78600B46FB7000231846CA
:100C00000C37BD465DF8047B704700BF80B483B0ED
:100C100000AF7860002318460C37BD465DF8047BB2
:100C2000704700BF80B582B000AF78607B6801225A
:100C300083F8FC217B68D3F814325B687A685268C9
:100C4000D2B2114678689847002318460837BD4647
:100C500080BD00BF80B584B000AF786039600023EC
:100C6000FB733B685B78092B39D801A252F823F05B
:100C7000C10C0008D50C0008DF0C0008CB0C0008E4
:100C8000DF0C0008A30C0008990C0008DF0C00081A
:100C9000B70C0008AD0C00083968786800F036F928
:100CA00022E03968786800F025FA1DE03968786834
:100CB00000F05EFA18E03968786800F0E1FA13E0B5
:100CC0003968786800F00EFB0EE03968786800F04B
:100CD00033FB09E03968786800F04AFB04E03968C2
:100CE000786800F0ABFB00BFFB7B18461037BD46B1
:100CF00080BD00BF80B584B000AF7860396000234C
:100D0000FB737B6893F8FC31032B1BD13B689B88FA
:100D1000DBB2012B11D87B68D3F814329B68396899
:100D2000786898473B68DB88002B10D1FB7B002B51
:100D30000DD1786800F04EFC09E03968786800F061
:100D40007DFB04E03968786800F078FB00E000BFC4
:100D5000002318461037BD4680BD00BF80B584B063
:100D600000AF786039600023FB733B689B88BB73DE
:100D70003B681B7803F06003202B08D17B68D3F815
:100D800014329B683968786898470023BAE03B685A
:100D90005B78012B39D0032B02D0002B6BD0B0E055
:100DA0007B6893F8FC31022B02D0032B0CD025E09A
:100DB000BB7B002B27D0BB7B802B24D0BB7B194671
:100DC00078680AF033FA1EE03B685B88002B0AD192
:100DD000BB7B002B07D0BB7B802B04D0BB7B194691
:100DE00078680AF023FA7B68D3F814329B68396874
:100DF00078689847786800F0EDFB05E03968786816
:100E000000F01CFB00E000BF7BE07B6893F8FC3146
:100E1000022B02D0032B0CD024E0BB7B002B26D06E
:100E2000BB7B802B23D0BB7B194678680AF0FEF988
:100E30001DE03B685B88002B1BD1BB7B03F07F036D
:100E4000002B0BD0BB7B194678680AF025FA7B682B
:100E5000D3F814329B68396878689847786800F04E
:100E6000B9FB06E03968786800F0E8FA02E000BFF4
:100E700047E000BF45E07B6893F8FC31022B02D0CD
:100E8000032B0BD036E0BB7B03F07F03002B36D067
:100E9000BB7B194678680AF0C9F930E097F90E3043
:100EA000002B08DABB7B03F07F0301331B017A6858
:100EB0001344043307E0BB7B03F07F0310331B01B3
:100EC0007A6813440433BB60BB7B194678680AF028
:100ED00019FA0346002B03D0BB6801221A6002E016
:100EE000BB6800221A60BB6802221946786800F0CD
:100EF00013FB05E03968786800F0A0FA00E000BF55
:100F000000BFFB7B18461037BD4680BD80B584B05E
:100F100000AF786039603B685B881B0A9BB2013B7D
:100F2000062B00F2C98001A252F823F0490F0008F5
:100F3000610F0008A10F0008B9100008B9100008DF
:100F4000651000088B1000087B68D3F810321B680E
:100F50007A68127C07F10A0110469847F860B0E001
:100F60007B681B7C002B0DD17B68D3F814329B6A05
:100F700007F10A0210469847F860FB680133022225
:100F80001A709EE07B68D3F81432DB6A07F10A021C
:100F900010469847F860FB68013302221A7090E00F
:100FA0003B685B88DBB2052B56D801A252F823F0D0
:100FB000C90F0008E10F0008F90F00081110000820
:100FC00029100008411000087B68D3F810325B68D4
:100FD0007A68127C07F10A0110469847F86040E0F1
:100FE0007B68D3F810329B687A68127C07F10A019B
:100FF00010469847F86034E07B68D3F81032DB681D
:101000007A68127C07F10A0110469847F86028E0D8
:101010007B68D3F810321B697A68127C07F10A01E9
:1010200010469847F8601CE07B68D3F810325B6983
:101030007A68127C07F10A0110469847F86010E0C0
:101040007B68D3F810329B697A68127C07F10A0139
:1010500010469847F86004E03968786800F0EEF9C7
:1010600044E02EE07B681B7C002B09D17B68D3F821
:1010700014325B6B07F10A0210469847F86020E0D3
:101080003968786800F0DAF930E07B681B7C002B67
:101090000DD17B68D3F814321B6B07F10A0210469E
:1010A0009847F860FB68013307221A7009E0396835
:1010B000786800F0C3F919E03968786800F0BEF983
:1010C00014E07B89002B11D03B68DB88002B0DD00E
:1010D0003B68DA887B89934228BF13469BB27B81A9
:1010E0007B891A46F968786800F016FA1037BD4611
:1010F00080BD00BF80B584B000AF786039603B68C8
:101100009B88002B2CD13B68DB88002B28D13B68C7
:101110005B88DBB203F07F03FB737B6893F8FC31E1
:10112000032B04D13968786800F088F91CE07B68EB
:10113000FA7B83F8FE21FB7B194678680AF00EF9EA
:10114000786800F047FAFB7B002B04D07B68022212
:1011500083F8FC2108E07B68012283F8FC2103E08E
:101160003968786800F06AF900BF1037BD4680BD65
:1011700080B582B000AF786039603B685B88DAB2D6
:101180003E4B1A703D4B1B78012B04D939687868A7
:1011900000F054F96FE07B6893F8FC31022B02D029
:1011A000032B23D062E0354B1B78002B1AD0334B36
:1011B0001B781A467B685A607B68032283F8FC21FF
:1011C0002E4B1B7819467868FFF718FB0346022B55
:1011D00004D13968786800F031F94CE0786800F0A3
:1011E000F9F948E0786800F0F5F944E0234B1B7802
:1011F000002B12D17B68022283F8FC211F4B1B7845
:101200001A467B685A601D4B1B7819467868FFF7B1
:1012100015FB786800F0DEF92DE0184B1B781A46B4
:101220007B685B689A421DD07B685B68DBB21946BD
:101230007868FFF703FB114B1B781A467B685A60EE
:101240000E4B1B7819467868FFF7D8FA0346022B35
:1012500004D13968786800F0F1F80CE0786800F0A3
:10126000B9F908E0786800F0B5F904E03968786801
:1012700000F0E4F800BF0837BD4680BD61020020E1
:1012800080B582B000AF786039603B68DB88012BA5
:1012900004D03968786800F0D1F81FE07B6893F8D3
:1012A000FC31022B02D0032B0BD012E07B68002212
:1012B0009A607B68083301221946786800F02CF99F
:1012C0000CE07B68043301221946786800F024F9A9
:1012D00004E03968786800F0B1F800BF00BF083753
:1012E000BD4680BD80B582B000AF786039607B6854
:1012F00093F8FC31023B012B15D87B680122DA60A0
:101300007B68D3F80432002B05D07B68DB6843F0A0
:1013100002027B68DA607B680C3302221946786827
:1013200000F0FAF804E03968786800F087F800BF48
:1013300000BF0837BD4680BD80B582B000AF786081
:1013400039603B685B88012B0DD17B680122C3F8B3
:1013500004227B68D3F814329B6839687868984710
:10136000786800F037F900BF0837BD4680BD00BF80
:1013700080B582B000AF786039607B6893F8FC314B
:10138000023B012B12D83B685B88012B13D17B6891
:101390000022C3F804227B68D3F814329B683968B2
:1013A00078689847786800F015F904E0396878683B
:1013B00000F044F800E000BF00BF0837BD4680BD24
:1013C00080B483B000AF786039603B681A787B687E
:1013D0001A703B685A787B685A703B6802331B78F6
:1013E0009AB23B6803331B789BB21B029BB2134437
:1013F0009AB27B685A803B6804331B789AB23B6888
:1014000005331B789BB21B029BB213449AB27B68D4
:101410009A803B6806331B789AB23B6807331B7887
:101420009BB21B029BB213449AB27B68DA8000BF66
:101430000C37BD465DF8047B704700BF80B582B0B5
:1014400000AF786039608021786809F0EFFE0021F4
:10145000786809F0EBFE00BF0837BD4680BD00BFCD
:1014600080B586B000AFF860B9607A600023FB7584
:10147000FB68002B33D0F86800F036F803460133E0
:101480009BB25B009AB27B681A80FB7D5A1CFA758E
:101490001A46BB6813447A681288D2B21A70FB7D70
:1014A0005A1CFA751A46BB68134403221A7012E0DC
:1014B000FB7D5A1CFA751A46BB681A44FB68591C16
:1014C000F9601B781370FB7D5A1CFA751A46BB68CD
:1014D000134400221A70FB681B78002BE8D100BF70
:1014E0001837BD4680BD00BF80B485B000AF7860BE
:1014F0000023FB7305E0FB7B0133FB737B68013347
:101500007B607B681B78002BF5D1FB7B184614377A
:10151000BD465DF8047B704780B584B000AFF860CD
:10152000B9601346FB80FB680222C3F8F421FA88F5
:10153000FB689A61FA88FB68DA61FB88BA68002167
:10154000F86809F041FF002318461037BD4680BDFA
:1015500080B584B000AFF860B9601346FB80FB88AB
:10156000BA680021F86809F02FFF002318461037E9
:10157000BD4680BD80B584B000AFF860B960134649
:10158000FB80FB680322C3F8F421FA88FB68C3F8E8
:101590000821FA88FB68C3F80C21FB88BA6800218F
:1015A000F86809F04BFF002318461037BD4680BD90
:1015B00080B584B000AFF860B9601346FB80FB884B
:1015C000BA680021F86809F039FF0023184610377F
:1015D000BD4680BD80B582B000AF78607B680422D4
:1015E000C3F8F421002300220021786809F0ECFE02
:1015F000002318460837BD4680BD00BF80B582B0C5
:1016000000AF78607B680522C3F8F4210023002234
:101610000021786809F012FF002318460837BD46FC
:1016200080BD00BFB0B58CB000AF002387F8233079
:10163000764B3C1D1D460FCD0FC495E8070084E88E
:101640000700002387F82F30002387F82E303DE075
:10165000012007F051FE01216D4807F04BFD97F87E
:101660002F309B0007F13002134453F82C3C01212A
:10167000184607F04FFD0121664807F0EBFD97F88B
:101680002F309B0007F13002134453F82C3C1846CE
:1016900000F042F90021604807F02CFD07F1230219
:1016A00007F124031146184600F0CEF807F1230293
:1016B00007F124031146184600F012F90346002BE7
:1016C00009D197F82F30013387F82F3097F82F3052
:1016D000062BBDD900E000BF97F82F30072B00F094
:1016E0008C80012007F008FE01214C4807F002FD24
:1016F00097F82F309B0007F13002134453F82C3C2D
:101700000121184607F006FD0121424807F0A2FD1D
:1017100097F82F30042B26D00121414807F09AFD7D
:101720000021404807F0E6FC07F1230207F12403FB
:101730001146184600F088F84FF4164000F0ECF817
:1017400007F1230207F124031146184600F0C8F8F8
:101750000346002B04D00121334807F07BFD02E053
:10176000012387F82E3097F82E30002B45D1012029
:1017700007F0C2FD01212D4807F06CFD00212C4827
:1017800007F0B8FC07F1230207F1240311461846BD
:1017900000F05AF807F1230207F124031146184616
:1017A00000F09EF80346002B27D00121214807F0C6
:1017B00051FD012007F0A0FD01211F4807F04AFD5F
:1017C00000211E4807F096FC07F1230207F12403CD
:1017D0001146184600F038F807F1230207F12403F8
:1017E0001146184600F07CF80346002B05D0012175
:1017F000134807F02FFD012304E00121114807F0F1
:1018000029FD002318463037BD46B0BDB47101082C
:10181000D46F0108047001080C70010810700108F1
:101820004070010874700108807001089C70010804
:10183000D8700108E87001080C7101084C710108AA
:10184000587101088471010880B586B000AF7860D6
:1018500039600AF061FA38613B6800221A701F4B48
:10186000DB8DFB8229E009F0EFF91C4BDB8D9BB28D
:10187000FA8A9A4221D0194B996A184B9A8DFB8AA1
:10188000B3FBF2F002FB00F29B1A9BB20B441B78F5
:10189000FB733B681B78092B0CD83B681B781A46F6
:1018A0007B681344FA7B1A703B681B780133DAB209
:1018B0003B681A70FB8A0133FB820AF02DFA02465C
:1018C0003B69D31A40F6B7329342CCD9012007F0D6
:1018D00013FD00BF1837BD4680BD00BFFC020020CD
:1018E00080B483B000AF786039603B681B78012B0F
:1018F0000AD97B681B784F2B06D17B6801331B7894
:101900004B2B01D1012300E0002318460C37BD46C4
:101910005DF8047B704700BF80B582B000AF78608F
:10192000084A7B68536007480EF0CCFB0346002B47
:1019300003D00121044807F08DFC00BF0837BD46E5
:1019400080BD00BFFC020020D071010880B400AF50
:10195000034B1B681846BD465DF8047B704700BF0B
:101960006402002080B400AF044B1B680133034ABB
:10197000136000BFBD465DF8047B70476402002021
:1019800080B400AF094B1A68094BA3FB02131B0973
:10199000322101FB03F3D31A002B0CBF01230023D8
:1019A000DBB21846BD465DF8047B70476402002038
:1019B0001F85EB5180B400AF0A4B19680A4BA3FB9B
:1019C0000123DA0813469B0013445B00CA1A002A5D
:1019D0000CBF01230023DBB21846BD465DF8047B33
:1019E000704700BF64020020CDCCCCCC80B400AFE7
:1019F000044B1B6807EE903AB0EE670ABD465DF8EF
:101A0000047B70476802002080B584B000AF3E4B75
:101A100093F86230012B06D13C4BDB6A184609F083
:101A200095FEF86002E03A4B5B6AFB60364BD3ED03
:101A3000037AF5EE407AF1EE10FA08D1FB6807EE72
:101A4000903AF8EEE77A334BC3ED1C7A0CE0FB6872
:101A500007EE903AB8EEE77A2B4BD3ED037A67EEB8
:101A6000277A2C4BC3ED1C7AFFF770FFB860294B27
:101A700093ED1C7A284BD3ED007AB4EE677AF1EE41
:101A800010FA2AD0234B9B6FBA68D31A7B60214B84
:101A900093ED1C7A204BD3ED007A77EE677A1D4BDD
:101AA000C3ED1D7A1B4B93ED1D7A7B6807EE903AD0
:101AB000F8EE677AC7EE276AB0EE660A00F040F8E3
:101AC000F0EE407A134BC3ED1F7A124ABB6893675E
:101AD000104B1B6F104A136011E00E4B9B6FBA68DE
:101AE000D31A642B0BD90B4B4FF00002DA67094B6A
:101AF0004FF000025A67074B1B6F074A136000BF85
:101B00001037BD4680BD00BF9C0700207438002000
:101B1000000C00401C0800206C02002080B400AFC4
:101B2000064B022283F85120044B032283F85820ED
:101B300000BFBD465DF8047B704700BF1C08002055
:101B400080B483B000AF87ED010AD7ED017AF5EEDE
:101B5000C07AF1EE10FA04D5D7ED017AF1EE677A8A
:101B600001E0D7ED017AB0EE670A0C37BD465DF8AB
:101B7000047B704780B500AF044BDB7D184606F050
:101B8000C9FFF0EE407AB0EE670A80BD9C070020E6
:101B900080B500AF044B1B7E184606F0BBFFF0EE8D
:101BA000407AB0EE670A80BD9C07002080B500AF88
:101BB000044B5B7E184607F045F8F0EE407AB0EE35
:101BC000670A80BD9C07002080B500AF044B9B7E58
:101BD000184607F037F8F0EE407AB0EE670A80BD9D
:101BE0009C07002080B500AF044BDB7E184606F052
:101BF00091FFF0EE407AB0EE670A80BD9C070020AE
:101C000080B500AF054B93F85630184606F082FFBA
:101C1000F0EE407AB0EE670A80BD00BF9C0700205E
:101C200080B500AF054B93F85230184606F072FFAE
:101C3000F0EE407AB0EE670A80BD00BF9C0700203E
:101C400080B584B000AF9C4B9B7D184606F062FFC8
:101C500087ED030A97ED037AD7ED037AB4EE677A3E
:101C6000F1EE10FA02D74FF000031EE1934B93F808
:101C70005130022B04D0914B93F85130032B2FD1CC
:101C8000D7ED037AF5EE407AF1EE10FA28D08B4BBF
:101C900093F85130022B20D10221894807F02AFA0B
:101CA000022097ED030A07F04FFA0221854807F05A
:101CB00021FAD7ED037AFDEEE77AC7ED017ABB880A
:101CC0001BB20221184607F0DDF902217E4807F019
:101CD00011FA7A4B032283F851204FF00003E4E01D
:101CE000764B93F85830012B40F0DE80734B93F81D
:101CF0005130002B08D0714B032283F85820022169
:101D0000724807F0A7FACFE06B4B1B7F032B08D07C
:101D10006A4B032283F8582002216D4807F09AFA93
:101D2000C2E0D7ED037AF5EE407AF1EE10FA08D072
:101D3000624B032283F858200221664807F08AFA92
:101D4000B2E0654BD3ED037A9FED647AF4EE477A07
:101D5000F1EE10FA08D1594B032283F858200221E2
:101D60005F4807F077FA9FE05B4BD3ED047A9FED75
:101D70005D7AF4EE477AF1EE10FA08D14F4B032268
:101D800083F858200221584807F064FA8CE04A4B47
:101D9000D3ED037AF5EE407AF1EE10FA08D1474B15
:101DA000032283F858200221504807F053FA7BE0C1
:101DB00009F0B2FF0246414BDB6DD31AB3F5FA6F5F
:101DC00072D23E4B93F95930002B1DD13B4B93ED12
:101DD0001C7A414BD3ED037A37EE677A3E4BD3ED55
:101DE000046A364BD3ED1C7A76EEE77AB4EEE77AE6
:101DF000F1EE10FA04D5314B012283F8592003E0AB
:101E00002E4BFF2283F8592009F086FF02462B4B08
:101E10001B6ED21A284BDB6F9A4203D24FF000039D
:101E2000FB6041E0254B93F95930012B1CD1234B2A
:101E300093ED1C7A284BD3ED047ADFED2D6A77EE13
:101E4000E67AB4EEE77AF1EE10FA03D51A4B1B6C82
:101E5000FB6029E009F060FF0246184B1A66174B39
:101E6000FF2283F859201FE0144B93ED1C7A1A4B84
:101E7000D3ED037ADFED1E6A77EEA67AB4EEE77A49
:101E8000F1EE10FA07DD0C4BD3ED107AF1EE677A24
:101E9000C7ED037A08E009F03FFF0246074B1A66D8
:101EA000064B012283F85920FB6807EE903AB0EE0A
:101EB000670A1037BD4680BD9C0700201C08002023
:101EC00014720108347201084C720108A0720108F2
:101ED000E47201081473010884070020000000CF99
:101EE0003C7301080000004F5C7301088073010817
:101EF0000000304280B590B000AF87ED010AFFF7D7
:101F00009FFE87ED0C0ACD4BD3ED0E7AB7EE007A2B
:101F100037EE677AD7ED0C7A27EE277AD7ED0C7A71
:101F200027EE277AD7ED0C7A27EE277AC34BD3ED2D
:101F30000E6AD7ED0C7A66EEA77A77EE277AC7EDB0
:101F40000F7ABE4B1B7F012B00F00582BC4B5B6EF2
:101F5000FB62BC4BD3ED007A97ED0F7A77EE677A90
:101F6000C7ED0A7A97ED0A7AD7ED0B7AB4EEE77AE5
:101F7000F1EE10FA0ADCD7ED0B7AB1EE677AD7ED05
:101F80000A7AB4EEE77AF1EE10FA04DDAC4B0122E6
:101F900083F8542003E0AA4B002283F8542097EDE5
:101FA0000A7AD7ED0B7AB4EEE77AF1EE10FA09DD92
:101FB000A44B93ED007AD7ED0B7A77EE277AC7ED35
:101FC0000F7A13E0D7ED0B7AB1EE677AD7ED0A7A84
:101FD000B4EEE77AF1EE10FA08DD9A4B93ED007A51
:101FE000D7ED0B7A77EE677AC7ED0F7A944B93F8BB
:101FF0005130002B40F0AF81904B1B7F012B00F044
:10200000AA818E4B1B7F022B00F0A5818E4B93ED96
:10201000037A8D4BD3ED047AB4EEE77AF1EE10FA41
:1020200009DD894BDB687B62874B1B69864AD3607D
:10203000854A7B6A1361824B93ED1C7AD7ED017A56
:1020400037EE277A804BD3ED047AB4EEE77AF1EEDF
:1020500010FA17D57A4B93ED1C7AD7ED017A37EE4B
:10206000677A794BD3ED037AB4EEE77AF1EE10FAA2
:1020700008DD734B002283F85620714B002283F851
:10208000572068E16E4B93ED1C7AD7ED017A37EE5D
:10209000277A6D4BD3ED047AB4EEE77AF1EE10FABD
:1020A000C0F29C80D7ED0F7AF5EEC07AF1EE10FA0F
:1020B00040F387800022102164480AF06DFA604BDB
:1020C00093ED1C7A604BD3ED047AB4EEE77AF1EE2F
:1020D00010FA06DB5B4B4FF000021A60594B1B688D
:1020E000C6E3584B93ED007AD7ED0B7A77EE677A1B
:1020F000C7ED0F7AD7ED0F7AF5EEC07AF1EE10FA50
:1021000002D54FF00003FB634D4B93F8563083F03C
:102110000103DBB2002B19D002214D4806F0EAFF83
:10212000494B93ED047A464BD3ED1C7A77EE677AF0
:102130000220B0EE670A07F007F80221454806F0D2
:10214000D9FF022097ED010A07F098F83C4B0122D5
:1021500083F85620394BD3ED087AF5EE407AF1EE4C
:1021600010FA3BD0364B93ED1C7AD7ED017A37EE5F
:10217000277A354BD3ED046A304BD3ED087A76EEEF
:10218000A77AB4EEE77AF1EE10FA27DB2C4B93F83E
:10219000573083F00103DBB2002B03D002212E481D
:1021A00007F058F8264B012283F85720002210210F
:1021B00026480AF0F1F9234AFB6B13604FF0000345
:1021C00056E31F4B002283F856201D4B002283F854
:1021D0005720012210211D480AF0DEF9184B93ED1B
:1021E0001C7AD7ED017A37EE677A174BD3ED037A75
:1021F000B4EEE77AF1EE10FA00F2AD80D7ED0F7A87
:10220000F5EEC07AF1EE10FA40F19880002210212C
:102210000E480AF0C1F90A4B93ED1C7A0A4BD3ED34
:10222000037AB4EEE77AF1EE10FA17D8054B4FF0C7
:1022300000021A604FF000031AE300BF9C07002061
:102240001C080020680200208407002000040240CF
:10225000B0730108D0730108F0730108B84B93ED17
:10226000007AD7ED0B7A77EE277AC7ED0F7AD7EDA4
:102270000F7AF5EEC07AF1EE10FA02DD4FF00003AE
:10228000FB63B04B93F8563083F00103DBB2002BB5
:1022900019D00221AC4806F02DFFAA4B93ED1C7A11
:1022A000AA4BD3ED037A77EE677A0220B0EE670A85
:1022B00006F04AFF0221A64806F01CFF022097ED17
:1022C000010A06F0DBFF9F4B012283F85620A14B49
:1022D000D3ED087AF5EE407AF1EE10FA3BD0994B47
:1022E00093ED1C7AD7ED017A37EE677A974BD3EDF1
:1022F000036A984BD3ED087A76EEE77AB4EEE77A84
:10230000F1EE10FA27D88F4B93F8573083F0010382
:10231000DBB2002B03D002218F4806F09BFF894BD4
:10232000012283F85720002210218C480AF034F94A
:10233000834AFB6B13604FF0000399E2814B00224C
:1023400083F856207F4B002283F85720012210216A
:1023500082480AF021F97A4AFB6B1360FFF70AFC06
:10236000B0EE407ADFED7E7AB4EEE77AF1EE10FA65
:102370000DDD744B93F85130002B03D002217948C6
:1023800006F068FF6F4B002283F8512019E06D4B77
:1023900093F85130012B06D0734B00221A700221A2
:1023A000724806F057FF674B012283F85120704BAB
:1023B00093ED007AD7ED0F7A77EE277A6C4BC3ED69
:1023C000007AFFF7E5FB87ED080AD7ED087A9FED65
:1023D000647AF4EEC77AF1EE10FA40F37381594B48
:1023E00093F85130012B40F06D81624BD3ED007AB0
:1023F0009FED5B7AF4EEC77AF1EE10FA00F262819B
:102400005C4BD3ED007AF4EE677AF1EE10FA80F1CE
:102410005981554B1B78002B0FD14A4B1B6F4B4AF0
:10242000D360514B01221A700221534806F012FF6B
:102430004F4B4FF000021A6044E1424B1B6F434A7E
:1024400013614B4BD3ED007AB8EE087AF4EEC77AFD
:10245000F1EE10FA0EDD464BD3ED007AB0EE087ABD
:10246000F4EEC77AF1EE10FA04D50221434806F0E3
:10247000F1FE27E10221424806F0ECFE354BD3ED98
:10248000037AF5EE407AF1EE10FA40F085802F4B9A
:1024900093ED037A2D4BD3ED047AB4EEE77AF1EEA7
:1024A00010FA07D5324BD3ED007AF5EEC07AF1EE93
:1024B00010FA12DC254B93ED037A244BD3ED047A0A
:1024C000B4EEE77AF1EE10FA10DD294BD3ED007A85
:1024D000F5EEC07AF1EE10FA08D51E4B4FF07E52A1
:1024E000DA600221274806F0B5FE16E0194B264AAD
:1024F000DA60164BD3ED037AF1EE677A134BC3ED36
:10250000037A124BD3ED047AF1EE677A0F4BC3EDE9
:10251000047A02211D4806F09DFE02211C4806F0A7
:1025200099FE002280210B4800F038FBF861FB691E
:10253000002B00F095800221164806F08BFE8FE0FC
:10254000680200201C080020B073010884070020E6
:10255000D07301089C070020F073010800040240BA
:10256000CDCC4C3F047401087C020020207401088B
:102570007802002080020020447401085074010891
:10258000A8740108B4740108000080BFF074010849
:102590002C7501086C750108B94B93ED037AB84BA3
:1025A000D3ED047AB4EEE77AF1EE10FA07D5B54B25
:1025B000D3ED007AF5EEC07AF1EE10FA12DCB04BF2
:1025C00093ED037AAE4BD3ED047AB4EEE77AF1EEF5
:1025D00010FA11DDAB4BD3ED007AF5EEC07AF1EED7
:1025E00010FA09D5A84BD3ED037ABFEE007AF4EECA
:1025F000477AF1EE10FA2FD0A14B93ED037AA04B5E
:10260000D3ED047AB4EEE77AF1EE10FA07DD9D4BD4
:10261000D3ED007AF5EEC07AF1EE10FA12D4984BB1
:1026200093ED037A964BD3ED047AB4EEE77AF1EEAC
:1026300010FA15D5934BD3ED007AF5EEC07AF1EE92
:1026400010FA0DDD904BD3ED037AB7EE007AF4EE7D
:10265000477AF1EE10FA03D102218C4806F0FAFD18
:1026600002218B4806F046FD854BD3ED037A02200C
:10267000B0EE670A06F068FD0221864806F03AFDD2
:102680007F4BD3ED047A0220B0EE670A06F0F6FD28
:102690007B4B93ED037A7A4BD3ED047AB4EEE77A71
:1026A000F1EE10FA09DD764BDB68BB61744B1B69F8
:1026B000734AD360724ABB691361032218217048C0
:1026C00000F0C0FA744A3B6A1360744B93F85130BF
:1026D000002B06D06C4B5B6CBB636B4B9B6C7B63C2
:1026E00005E0694BDB6BBB63674B1B6C7B63FFF7E0
:1026F0005DFA87ED050A97ED057AD7ED057AB4EE18
:10270000677AF1EE10FA19D6D7ED057AB7EE007AAE
:1027100077EE877AF0EE006A87EEA67AD7ED0E7A2A
:10272000DFED5F6A77EEE67A67EE277A9FED5C7AF7
:1027300077EE877A594BC3ED197A02E0574ABB6BA3
:102740005366FFF741FA87ED040A97ED047AD7ED57
:10275000047AB4EE677AF1EE10FA19D6D7ED047A5E
:10276000B7EE007A77EE877AF0EE006A87EEA67A07
:10277000D7ED0D7ADFED4B6A77EEE67A67EE277AD2
:102780009FED487A77EE877A444BC3ED1A7A02E0E0
:10279000424A7B6B9366FFF725FA87ED030A97EDB4
:1027A000037AD7ED037AB4EE677AF1EE10FA30D6F9
:1027B000D7ED037A9FED3C7AF4EEC77AF1EE10FA8A
:1027C00003D5314B01221A770FE0D7ED037A9FED45
:1027D000377AF4EEC77AF1EE10FA03DD2A4B0322C2
:1027E0001A7702E0284B02221A77274B1A7F304BC8
:1027F0001B789A420DD0244B1A7F2D4B1A70224B16
:102800001B7F184605F028FB03460221184606F0F8
:1028100021FD1D4B93F856300F2B28D8FFF7F0F908
:1028200087ED020A97ED027AD7ED027AB4EE677A65
:10283000F1EE10FA17D6D7ED027A9FED1E7AF4EE7C
:10284000C77AF1EE10FA0EDD144B93F85830032BD3
:102850000DD0124B012283F8582009F05DFA024690
:102860000E4BDA6503E00D4B002283F85820FB6B1A
:1028700007EE903AB0EE670A4037BD4680BD00BF14
:1028800084070020780200209C070020887501083A
:10289000B8750108C4750108800200201C080020DA
:1028A0006F12833ACDCCCC3D9A9999BE9A99993EB4
:1028B0000F010020CDCC4C3F80B588B000AFFFF7B2
:1028C000A3F8FFF793F8F0EE406A944BD3ED197A32
:1028D00086EEA77AB0EE470AFFF732F987ED060ACF
:1028E0008E4B93ED1F7AD7ED067A27EE277AF0EE1E
:1028F000006AC7EE267AC7ED057A97ED050AFFF75D
:10290000F9FA87ED040AD7ED047AF5EEC07AF1EE14
:1029100010FA42DD824B1B7F012B1CD1814A804B78
:10292000B3F92E3019467E4BB3F930300B447C4955
:10293000B1F9321007EE901AB8EEE77AD7ED047AC3
:1029400067EE277AFDEEE77AC7ED017AB98809B21A
:102950000B44D36370E0734A714BB3F92E301946C0
:102960006F4BB3F930300B446C4991ED1A7AD7EDC7
:10297000047A27EE277A6A49B1F9321007EE901AE5
:10298000F8EEE77A67EE277AFDEEE77AC7ED017A8F
:10299000B98809B20B44D3634EE0D7ED047AF5EE63
:1029A000C07AF1EE10FA42D55D4B1B7F012B1CD192
:1029B0005C4A5B4BB3F92E301946594BB3F93030B2
:1029C000CB1A5749B1F9321007EE901AB8EEE77AF0
:1029D000D7ED047A67EE277AFDEEE77AC7ED017A44
:1029E000B98809B20B44D36326E04E4A4C4BB3F985
:1029F0002E3019464A4BB3F93030CB1A474991ED86
:102A00001A7AD7ED047A27EE277A4549B1F93210C0
:102A100007EE901AF8EEE77A67EE277AFDEEE77A8E
:102A2000C7ED017AB98809B20B44D36304E03D4B8A
:102A30003B4AB2F92E20DA6397ED040A08F094FEBF
:102A4000FFF7EEF887ED030AD7ED037AF5EEC07ACB
:102A5000F1EE10FA1CDD334A314BB3F964301946FC
:102A60002F4BB3F966300B442D49B1F9681007EECE
:102A7000901AB8EEE77AD7ED037A67EE277AFDEE83
:102A8000E77AC7ED017AB98809B20B44136428E0EC
:102A9000D7ED037AF5EEC07AF1EE10FA1CD5214A93
:102AA0001F4BB3F9643019461D4BB3F96630CB1A8E
:102AB0001B49B1F9681007EE901AB8EEE77AD7ED26
:102AC000037A67EE277AFDEEE77AC7ED017AB988D7
:102AD00009B20B44136404E0124B114AB2F96420AA
:102AE0001A640023FB610FE0FB69DBB2184600F0BB
:102AF0001DF8F0EE407A0C4AFB699B001344C3EDCD
:102B0000007AFB690133FB61FB69072BECDD0648AA
:102B100005F0AEFD00BF2037BD4680BD1C0800207B
:102B20009C07002000040040DC02002080B582B039
:102B300000AF0346FB71FB790B4A134493F85730FF
:102B4000402B02D9DFED097A09E0FB79064A1344EC
:102B500093F85730184606F075F8F0EE407AB0EE6C
:102B6000670A0837BD4680BD9C0700200000C07F73
:102B700080B500AF06F062FE0246064B1A60054BB8
:102B80001B68054A934201D0002300E00023184649
:102B900080BD00BF840200201520200080B584B0D5
:102BA00000AF78600B467B8013463B800E4B1B6862
:102BB000092B01D8022312E03B881B04FB60F86854
:102BC00006F0D0FB7B881A46F968786806F088FC26
:102BD0007B881A46F968786806F06CFD034618464B
:102BE0001037BD4680BD00BF8402002080B584B090
:102BF00000AF0346FB80084B1B68092B01D802235A
:102C000006E0FB881B04FB60F86806F0ABFB03469C
:102C100018461037BD4680BD8402002080B584B0C0
:102C200000AFF860B9601346FB80FB881B04BA68EC
:102C30001946F86806F0A6FD034618461037BD464B
:102C400080BD00BF80B582B000AF78600B467B804E
:102C500013463B80114B1B88002B19D10F4B1B884F
:102C600001339AB20D4B1A800D4A7B6813600D4AEE
:102C70007B8813803B881B040B4A136009F04CF8D7
:102C8000034603F51C531033084A1360002300E089
:102C9000012318460837BD4680BD00BF88020020CA
:102CA0008C02002090020020940200209802002054
:102CB00080B582B000AF324B1B88002B5CD0002364
:102CC0007B602F4B1B88013B042B3FD801A252F89D
:102CD00023F000BFE92C0008032D00081B2D00087D
:102CE000032D00083D2D0008264B1B68184606F0F2
:102CF0004DFB7860224B1B8801339AB2204B1A801F
:102D000029E006F085FE0346002B23D11C4B1B88CF
:102D100001339AB21A4B1A801CE01B4B1868194BEE
:102D200019681A4B1B881A4606F0F2FB7860144BA0
:102D30001B8801339AB2124B1A800CE0022114480E
:102D400006F088FA0E4B00221A8004E00C4B002299
:102D50001A8000E000BF7B68002B06D108F0DCFF82
:102D600002460C4B1B689A4206D9054B00221A807A
:102D70000221094806F06EFA00BF0837BD4680BD43
:102D800088020020940200208C0200209002002083
:102D9000587601089802002070760108B0B5A6B0F8
:102DA00000AF08F039FF00F057FA00F091FD00F095
:102DB000E1FA00F009FB00F041FB00F089FB00F0B4
:102DC00025FD07F017FD00F0F3FC00F0E9FB00F033
:102DD0004BFD00F06DFE08F02FFC0421B4480CF010
:102DE000BDF801221021B34809F0D6FB0821B248F2
:102DF0000BF02AFF0346002B03D09021AF4800F0D0
:102E00001DFE0C21AC480BF01FFF0346002B03D026
:102E10009521AA4800F012FEFFF7AAFE0346002BF8
:102E200003D09B21A54800F009FEA54BA54A07CA7F
:102E300003C31A70A24B4FF00002DA60A04BA24A03
:102E40001A629F4B01221A779D4B002283F82C2097
:102E50009B4BFF221A769A4BFF22DA75984B002281
:102E60009A75974BFF225A76954BFF229A76944B90
:102E7000FF22DA76924B954ADA63914B944A5A6470
:102E80008F4B4FF07E521A648D4B4FF07A529A64FA
:102E90008B4B4FF478721A82894B1E225A82884BD0
:102EA0004FF42F725A86864B40F2DC52DA85844BFF
:102EB0001E221A86824B4FF448729A82804B4CF243
:102EC00050325A637E4B824A9A637D4B3C22A3F870
:102ED0004E207B4B0A22A3F84C20794B0122A3F809
:102EE0005020774BFF2283F85220754BFF2283F846
:102EF0005320734BFF2283F85420714BFF2283F839
:102F000055206F4BFF2283F856206D4B4FF42F72E4
:102F1000A3F868206A4B40F2DC52A3F86420684BA7
:102F20000022A3F86620664B002283F8622000236B
:102F3000C7F8943014E0624AD7F8943013445733FA
:102F4000FF221A705E4AD7F8943034335B00134482
:102F50004FF478729A80D7F894300133C7F89430E0
:102F6000D7F89430072BE6DD554B41F28832DA670B
:102F7000534B8022A3F8602007F110030022802128
:102F80001846FFF74BFE07F110030B2219464C4879
:102F900010F06AFD0346002B13D1B7F870301A46C3
:102FA00007F11003194646480FF0B0FD494A4A4B55
:102FB00014461D460FCD0FC495E8070084E80700AE
:102FC00057E007F1100304224449184610F04CFD65
:102FD0000346002B45DB07F1100302224049184647
:102FE00010F042FD0346002B3BD1354A3B1D07CA7A
:102FF00003C31A800233120C1A70B7F87030A7F8A6
:103000009230B7F89230002B03D0B7F89230802B73
:1030100002D98023A7F89230B7F8922007F1100365
:10302000194627480FF072FD254B3A1D07CA03C306
:103030001A800233120C1A70214B8022A3F86020F0
:10304000244A284B14461D460FCD0FC40FCD0FC484
:103050000FCD0FC42B681A46228002341B0C23703C
:1030600007E01C4A204B1046194644231A460FF02D
:103070004DFD032218211D48FFF7D0FD0B221C49EE
:103080001A4810F0F1FC0346002B35D002211948F4
:1030900006F0E0F8154B4FF09E421A61134B4FF0CB
:1030A0004F42DA60114B124A07CA03C31A703BE061
:1030B00040030020000402407C03002084760108C5
:1030C0009C070020907601080000C8420AD7233CE4
:1030D000CDCCCC3D1C0800209C760108B8760108B8
:1030E000C0760108C4760108F8760108840700203C
:1030F0003C7701084877010802214B4805F0FAFFA8
:103100004A4BD3ED037A0220B0EE670A06F01CF8B2
:103110000221474805F0EEFF444BD3ED047A02202C
:10312000B0EE670A06F0AAF8404B18229A82414B8B
:1031300093F82C30012B02D100F03CFC01E000F0B0
:103140005DFCFEF7EBFC08F0B7FA03464FF40072A3
:10315000194639480DF006F94FF4007237493848DE
:1031600007F0CAF908F0D8FD0246364B1B68D31A9F
:10317000142B42D908F0D0FD0246324B1A60FEF7FC
:10318000F1FB07F061FDFEF7FBFB0346002B01D0CE
:1031900008F0A6FBFEF7F4FB0346002B08D02A4BF1
:1031A00093F85130002B03D12021284809F00EFA62
:1031B000FEF700FC0346002B08D0234B93F8513058
:1031C000012B03D12021214809F000FA1E4B93F86E
:1031D0005130022B04D01C4B93F85130032B05D1F6
:1031E00000221021194809F0D7F904E0012210212A
:1031F000164809F0D1F9FFF75FFB07F04DFC0346D5
:10320000002B03D01249012000F068FE07F04AFAB3
:103210000346002B03D00F49002000F05FFE05F0AD
:1032200013FFFFF745FD9DE77C7701088407002029
:103230008C7701089C07002044070020AC04002084
:10324000FC0200203C0300201C0800200004024077
:10325000540E0020300A002080B598B000AF002343
:10326000BB60404A3F4B1B6C43F0805313643D4BA3
:103270001B6C03F08053BB60BB6800237B603A4A41
:10328000394B1B6843F480431360374B1B6803F4CE
:1032900080437B607B680B233B634FF480337B630D
:1032A0000123FB6310233B6401237B640223BB6483
:1032B0004FF48003FB6404233B6548237B650223B2
:1032C000BB650323FB6507F1300318460AF086FA55
:1032D0000346002B04D040F26911244800F0AEFBF5
:1032E0000F23FB6100233B6200237B620023BB6250
:1032F0000023FB6207F11C03002118460AF0C8FCFA
:103300000346002B04D040F27711184800F096FBDA
:103310000223FB604FF40073BB6107F10C031846F6
:103320000AF096FE0346002B04D04FF4BF710F48FD
:1033300000F084FB0AF03CFE02460D4BA3FB022387
:103340009B09184608F03AFE042008F043FE0022CC
:1033500000214FF0FF3008F0F9FD00BF6037BD4697
:1033600080BD00BF00380240007000408476010834
:10337000D34D621080B500AF104B114A1A600F4B4D
:1033800000225A600D4B7F229A600C4BFF22DA60BC
:103390000A4B00221A61094B00225A61074B002296
:1033A0009A6106480AF088FF0346002B04D040F2D9
:1033B0009B11044800F042FB00BF80BD5004002078
:1033C000002800408476010880B500AF184B194AE8
:1033D0001A60174B4FF482725A60154B00229A60A4
:1033E000134B0022DA60124B00221A61104B0022AC
:1033F0005A610F4B00229A610D4B0022DA610C4B8F
:1034000000221A620A4B00225A62094B00229A6279
:10341000074B0A22DA6206480AF0F6FF0346002B41
:1034200004D040F2B111044800F008FB00BF80BD99
:10343000EC060020003001408476010880B500AF22
:10344000012208211E4809F0A7F81E4B1E4A1A60E7
:103450001C4B4FF482725A601A4B00229A60194B2F
:103460000022DA60174B02221A61164B01225A61C0
:10347000144B4FF400729A61124B0822DA61114B1F
:1034800000221A620F4B00225A620E4B00229A62EF
:103490000C4B0722DA620B480AF0B6FF0346002BFA
:1034A00004D04FF4E471094800F0C8FA054B1B68DA
:1034B000044A1268126842F040021A6000BF80BDE0
:1034C00000040240B8030020003C0040847601085C
:1034D00080B58AB000AF2F4B2F4A1A602D4B0F22B8
:1034E0005A602C4B00229A602A4B44F62062DA6024
:1034F000284B00221A6127480BF07AFB0346002B69
:1035000004D040F2DD11254800F098FA00233B6218
:1035100000237B6207F1200319461E480CF078FD5A
:103520000346002B04D04FF4F2711C4800F086FAD9
:1035300060237B6040F2DC53BB600023FB60002310
:103540007B6100233B610023FB610023BB613B1DCA
:10355000082219460F480BF0FDFE0346002B04D04D
:103560004FF4F8710D4800F069FA3B1D0C22194622
:1035700008480BF0EFFE0346002B04D040F2F51193
:10358000064800F05BFA034806F05CFC00BF2837F1
:10359000BD4680BD7C030020000400408476010805
:1035A00080B58CB000AF224B224A1A60204B00221B
:1035B0005A601F4B00229A601D4B4FF0FF32DA60B9
:1035C0001B4B00221A610323FB6000233B61012394
:1035D0007B610023BB610423FB6100233B62012369
:1035E0007B620023BB620423FB6207F10C031946D4
:1035F0000F480BF01DFC0346002B04D040F21121B4
:103600000D4800F01BFA00237B600023BB603B1DCC
:10361000194607480CF0FCFC0346002B04D04FF47D
:103620000671054800F00AFA00BF3037BD4680BD7C
:1036300040030020000C00408476010880B58CB067
:1036400000AF3E4B3E4A1A603C4B0F225A603B4B48
:1036500000229A60394B4FF6FF72DA60374B002236
:103660001A61364B00225A6134480BF095FA034632
:10367000002B04D04FF40B71324800F0DFF92F48D3
:103680000BF016FB0346002B04D040F231212D48ED
:1036900000F0D4F90423FB6160233B6202237B62C8
:1036A0000023FB6207F11C03194624480BF018FFA6
:1036B0000346002B04D040F23A21224800F0BEF924
:1036C00000237B610023BB6107F1140319461B48EB
:1036D0000CF09EFC0346002B04D040F24121194817
:1036E00000F0ACF902237B600123BB600023FB6088
:1036F00000233B613B1D0822194610480BF08EFD4C
:103700000346002B04D04FF413710E4800F096F9D5
:1037100000237B600223BB603B1D0C221946074837
:103720000BF07CFD0346002B04D04FF415710548C7
:1037300000F084F900BF3037BD4680BD7004002022
:10374000000001408476010880B500AF144B154A93
:103750001A60134B144A5A60114B4FF480529A600E
:103760000F4B4FF40052DA600D4B4FF480621A6138
:103770000B4B04225A610A4B00229A61084B4FF40A
:103780000042DA6106480CF09DFC0346002B04D091
:1037900040F26921054800F051F900BF80BD00BF2B
:1037A0001004002000100140A0860100847601086A
:1037B00080B500AF124B134A1A60114B4FF4E1323F
:1037C0005A600F4B00229A600D4B0022DA600C4BBE
:1037D00000221A610A4B0C225A61094B00229A619D
:1037E000074B0022DA6106480CF06CFC0346002B04
:1037F00004D040F27D21044800F020F900BF80BDD4
:1038000044070020004400408476010880B500AFE2
:10381000124B134A1A60114B4FF416425A600F4B69
:1038200000229A600D4B0022DA600C4B00221A61D4
:103830000A4B0C225A61094B00229A61074B002265
:10384000DA6106480CF03EFC0346002B04D040F23F
:103850009121044800F0F2F800BF80BDFC02002076
:10386000004800408476010880B500AF144B154A2B
:103870001A60134B144A5A60114B4FF480529A60ED
:103880000F4B4FF40052DA600D4B4FF480621A6117
:103890000B4B08225A610A4B00229A61084B4FF4E5
:1038A0000042DA6106480CF00DFC0346002B04D000
:1038B00040F2A521054800F0C1F800BF80BD00BF5F
:1038C000AC06002000140140A086010084760108A7
:1038D00080B58AB000AF00233B61324A314B1B6B8D
:1038E00043F0800313632F4B1B6B03F080033B619A
:1038F0003B690023FB602B4A2A4B1B6B43F00103FF
:103900001363284B1B6B03F00103FB60FB68002370
:10391000BB60244A234B1B6B43F004031363214B0E
:103920001B6B03F00403BB60BB6800237B601D4A74
:103930001C4B1B6B43F0020313631A4B1B6B03F00E
:1039400002037B607B6800223821174808F024FEC0
:1039500010237B61154BBB610023FB6107F114034E
:103960001946134808F082FB01237B610123BB61E8
:103970000023FB6107F1140319460D4808F076FB9C
:1039800038237B610123BB610023FB6100233B6281
:1039900007F114031946044808F068FB00BF2837F4
:1039A000BD4680BD003802400004024000001110F6
:1039B0000008024080B500AF08210D480BF0AEF9B9
:1039C0000C210B480BF0AAF9FFF7BEFE05F0A8F991
:1039D00003461922194607480CF0C4FC01220121B4
:1039E000054808F0D9FD012004F0BCFD00BF80BDF2
:1039F00070040020100400200008024080B500AFD1
:103A00000B480CF0ADFBFFF719FE0122012109481C
:103A100008F0C2FD082108480BF0AAF90C2106485D
:103A20000BF0A6F9002004F09DFD00BF80BD00BF93
:103A300010040020000802407004002080B5ADF59D
:103A4000805D82B000AF07F10803043B186007F106
:103A50000803083B1960144B144AB2F92E20DA63AC
:103A600007F10803083B07F10800022219460FF08E
:103A70004DF807F10803043B18680FF0EDFF03460B
:103A8000591C07F10803043B07F10802901C0A4681
:103A900019680FF03BF807F1080305224FF4805135
:103AA0001846FFF77BF8FEE7000400409C07002063
:103AB00080B400AF044B002283F86C2000BFBD46E9
:103AC0005DF8047B704700BF1C08002080B582B001
:103AD00000AF03460A46FB711346BB71BB7919461A
:103AE000074805F007FBFB79064A52F82330BA79FC
:103AF0001146184605F0AEFB00BF0837BD4680BD35
:103B0000AC7901081001002080B584B000AF0346F5
:103B1000FB71164B1B7883F02003DAB2134B1A703B
:103B2000124B1B7883F04F03DAB2104B1A700F4B15
:103B30001B7883F04B03DAB20C4B1A700B4B1B78DB
:103B400007F108000A4A05210FF004FFFB79194626
:103B5000084805F0CFFAFA7907F10803114618462C
:103B600005F078FB00BF1037BD4680BD9C020020E9
:103B7000B8790108C079010880B582B000AF03466A
:103B80000A46FB711346BB71BB791946074805F01D
:103B9000B1FABA79FB791146184605F08FFA044A52
:103BA000FB79137000BF0837BD4680BDC879010896
:103BB0009C02002080B584B000AF78600B46FB709B
:103BC0000023FB600CE0FB687A6813441A780D4B05
:103BD0001B785340DAB20B4B1A70FB680133FB6061
:103BE000FB68272B05DCFB687A6813441B78002BE5
:103BF000E9D1FB781946786805F07CFA00BF1037E8
:103C0000BD4680BD9C02002080B582B000AF034657
:103C10000A46FB711346BB71084B1A78FB79534077
:103C2000DAB2064B1A70BA79FB791146184605F0DC
:103C300045FA00BF0837BD4680BD00BF9C0200208A
:103C400090B59DB002AF87ED020B0346FB7107F103
:103C50001400D7E90234CDE90034154A50210FF0A1
:103C600079FE00237B660DE007F114027B6E13449E
:103C70001A78104B1B785340DAB20E4B1A707B6ED9
:103C800001337B667B6E272B06DC07F114027B6E0B
:103C900013441B78002BE7D1FA7907F1140311467E
:103CA000184605F027FA00BF6C37BD4690BD00BF2F
:103CB000CC7901089C02002090B59BB002AF87ED43
:103CC000010A0346FB7078680EF0E8FB03460C46D9
:103CD00007F10C00CDE90034144A50210FF03AFEF0
:103CE0000023FB650DE007F10C02FB6D13441A780D
:103CF0000F4B1B785340DAB20D4B1A70FB6D01333A
:103D0000FB65FB6D272B06DC07F10C02FB6D1344F2
:103D10001B78002BE7D1FA7807F10C0311461846FF
:103D200005F0E8F900BF6437BD4690BDD4790108BD
:103D30009C02002080B598B000AF03460A46FB8085
:103D400013467B71B7F9063007F10C00144A502175
:103D50000FF000FE0023FB650DE007F10C02FB6D88
:103D600013441A780F4B1B785340DAB20D4B1A707C
:103D7000FB6D0133FB65FB6D272B06DC07F10C02A5
:103D8000FB6D13441B78002BE7D17A7907F10C0304
:103D90001146184605F0AEF900BF6037BD4680BD3C
:103DA000DC7901089C02002080B584B000AF034696
:103DB0000A46FB711346BB71FB7907F10800154AEF
:103DC00003210FF0C7FD0023FB600DE007F108029F
:103DD000FB6813441A78104B1B785340DAB20E4B31
:103DE0001A70FB680133FB60FB68022B06DC07F1ED
:103DF0000802FB6813441B78002BE7D1BA7907F15E
:103E000008031146184605F075F900BF1037BD4686
:103E100080BD00BFE07901089C02002080B598B009
:103E200000AF78600B46FB7007F10C007B68154A09
:103E300050210FF08FFD0023FB650DE007F10C0210
:103E4000FB6D13441A78104B1B785340DAB20E4BBB
:103E50001A70FB6D0133FB65FB6D272B06DC07F148
:103E60000C02FB6D13441B78002BE7D1FA7807F1A5
:103E70000C031146184605F03DF900BF6037BD46FA
:103E800080BD00BFE87901089C02002080B483B0A7
:103E900000AF0346FB71FB792F2B05D9FB79392B3A
:103EA00002D8FB79303B13E0FB79602B05D9FB7915
:103EB000662B02D8FB79573B0AE0FB79402B05D9EA
:103EC000FB79462B02D8FB79373B01E04FF0FF33FB
:103ED00018460C37BD465DF8047B704780B586B048
:103EE00000AF03463960FB710023FB820023BB82D5
:103EF00095E0FB8A5A1CFA821A463B6813441B78E9
:103F00007B747B7C002B00F090804A4B1B78202B2D
:103F100009D17B7C242B02D07B7C212B7FD1454B8C
:103F200024221A707BE07B7C0A2B02D07B7C0D2B39
:103F300027D1BB8A002B06D1FB8A013B3A68134488
:103F400000221A7004E0BB8A3A68134400221A70F7
:103F5000384B1B782A2B09D1FA7CBB7C9A4205D0BE
:103F6000FB7919460420FFF7B1FD04E0FB793968BD
:103F7000184600F061F80023FB742E4B20221A70C3
:103F80004DE07B7C2A2B06D12A4B31221A70FB8A0A
:103F9000013BBB8243E0274B1B78312B10D17B7C4C
:103FA0001846FFF773FFF860FB68B3F1FF3F36D0A8
:103FB000FB68DBB21B01BB741E4B32221A702EE071
:103FC0001C4B1B78322B11D17B7C1846FFF75EFF10
:103FD000B860BB68B3F1FF3F21D0BB68DAB2BB7CED
:103FE0001344BB74134B2A221A7018E0114B1B7830
:103FF000242B04D1FA7C7B7C5340FB740FE00D4BE7
:104000001B782A2B05D1FB7919460520FFF75EFDA9
:104010000CE0FB7919460020FFF758FD06E0FB8A0B
:10402000B3F5007FFFF465AF00E000BF1837BD4671
:1040300080BD00BF4C01002090B5ADF58F5D81B013
:1040400006AF024607F10803196007F12803193B80
:104050001A7007F108031B685B7807F58D5202F1AF
:104060000F02137007F58D5303F10F031B782D3BDF
:104070004B2B03F2208101A252F823F07F7200083B
:10408000B7720008B7720008B7720008C55F000871
:10409000B7720008B7720008B7720008B77200085C
:1040A000B7720008B7720008B7720008B77200084C
:1040B000B7720008B7720008B7720008B77200083C
:1040C000B7720008B7720008B7720008A54E000862
:1040D000135A0008B772000871690008A95B00084C
:1040E000B772000833670008A56600083952000857
:1040F000B7720008B7720008B7720008B7720008FC
:10410000254D0008B772000809700008B772000852
:10411000C570000875540008B7720008B77200082F
:104120004B720008E1470008B7720008B772000838
:10413000A5710008B7720008B7720008B7720008CE
:10414000B77200087B720008B7720008AD41000822
:104150008B560008835A0008B954000831510008F2
:10416000B7720008554300084B5300083D4800084B
:10417000776B0008B7720008B77200085D5300083B
:10418000A14B0008B772000825440008B772000868
:104190002F500008B7720008B7720008B772000805
:1041A00013460008574700083959000807F108036B
:1041B0001B68981C07F58C5303F11003043307F5B3
:1041C0008C5202F11002D8490FF01AFC034607F591
:1041D0008D5202F10C02138007F58D5303F10C038D
:1041E000B3F90030022B58D107F58C5303F11003BB
:1041F000D3ED007A9FEDCD7AF4EEC77AF1EE10FAA6
:1042000041DB07F58C5303F11403D3ED007A9FEDE6
:10421000C77AF4EEC77AF1EE10FA34DB07F58C5367
:1042200003F11003D3ED007AB7EE007AF4EEC77A0B
:10423000F1EE10FA27D807F58C5303F11403D3EDF0
:10424000007AB7EE007AF4EEC77AF1EE10FA1AD8D7
:1042500007F58C5303F11003D3ED007A9FEDB47A88
:1042600067EE877AB34BC3ED0F7A07F58C5303F1F2
:104270001403D3ED007A9FEDAE7A67EE877AAD4BEB
:10428000C3ED117A1DE007F12803193B1B7819468D
:104290000E20FFF71BFC03F017B807F58D5303F151
:1042A0000C03B3F90030B3F1FF3F0AD007F1280344
:1042B000193B1B7819460720FFF708FC00BF03F0E5
:1042C00003B807F12803193B1B7819466120FFF753
:1042D00053FC984BD3ED0F7A9FED957AC7EE876A22
:1042E00007F12803193B1B781846B0EE660AFFF762
:1042F000E3FC904BD3ED117A9FED8D7AC7EE876A80
:1043000007F12803193B1B781846B0EE660AFFF741
:10431000D3FC07F12803193B1B781846FFF7F4FB81
:1043200007F12803193B1B781946834804F0E2FE85
:10433000824B93F8543007EE903AF8EE677A07F123
:104340002803193B1B781846B0EE670A04F096FF65
:1043500002F0BABF07F108031B68023307F58C525D
:1043600002F10C02764918460FF04AFB034607F5A6
:104370008D5202F10C02138007F58D5303F10C03EB
:10438000B3F90030012B1CD107F58C5303F10C035A
:10439000D3ED007AF5EEC07AF1EE10FA07DD07F5FD
:1043A0008C5303F10C031B68624A13621DE007F192
:1043B0002803193B1B7819460E20FFF787FB02F0F4
:1043C00083BF07F58D5303F10C03B3F90030B3F14C
:1043D000FF3F0AD007F12803193B1B781946072035
:1043E000FFF774FB00BF02F06FBF07F12803193B12
:1043F0001B7819466720FFF7BFFB4E4BD3ED087AB9
:1044000007F12803193B1B781846B0EE670AFFF73F
:1044100053FC07F12803193B1B781846FFF774FB80
:1044200002F052BF07F108031B68981C07F58C5374
:1044300003F10403043307F58C5202F104024149ED
:104440000FF0DEFA034607F58D5202F10C021380DD
:1044500007F58D5303F10C03B3F90030022B7FD124
:1044600007F58C5303F104031A6807F58C5303F125
:1044700008031B689A4225DA07F58C5303F10803F9
:104480001A6807F58C5303F104031B68D31AC82B71
:1044900018DD07F58C5303F104031B6807EE903A0F
:1044A000F8EEE77A284BC3ED037A07F58C5303F156
:1044B00008031B6807EE903AF8EEE77A224BC3ED4B
:1044C000047A61E007F58C5303F108031A6807F5D5
:1044D0008C5303F104031B689A4237DA07F58C53B7
:1044E00003F104031A6807F58C5303F108031B68F2
:1044F000D31AC82B2ADD07F58C5303F108031B6878
:1045000007EE903AF8EEE77A0F4BC3ED037A07F522
:104510008C5303F104031B6807EE903AF8EEE77A38
:10452000094BC3ED047A2FE0F07901086F12833A4A
:104530000AD7A33C9C070020F87901081C0800203A
:10454000087A01080C7A01088407002007F1280383
:10455000193B1B7819460E20FFF7B8FA02F0B4BEDB
:1045600007F58D5303F10C03B3F90030B3F1FF3FAE
:104570000AD007F12803193B1B7819460720FFF7DB
:10458000A5FA00BF02F0A0BE07F12803193B1B7873
:1045900019467020FFF7F0FAA14BD3ED037AFDEE38
:1045A000E77A07F12803193B1B78194617EE900AA2
:1045B000FFF734FC9A4BD3ED047AFDEEE77A07F16E
:1045C0002803193B1B78194617EE900AFFF726FCC3
:1045D000944BD3ED1C7A07F12803193B1B7818463E
:1045E000B0EE670AFFF768FB8E4BD3ED1F7A07F139
:1045F0002803193B1B781846B0EE670AFFF75CFBEF
:1046000007F12803193B1B781846FFF77DFA02F0E3
:104610005BBE07F108031B68981C07F58B5303F179
:104620001C03043307F58B5202F11C027E490FF084
:10463000E7F9034607F58D5202F10C02138007F5E6
:104640008D5303F10C03B3F90030022B46D107F56B
:104650008B5303F11C03D3ED007A9FED747AF4EED3
:10466000C77AF1EE10FA2FDB07F58C53D3ED007A01
:104670009FED6E7AF4EEC77AF1EE10FA24DB07F5BF
:104680008B5303F11C03D3ED007AB7EE007AF4EEFE
:10469000C77AF1EE10FA17D807F58C53D3ED007AEC
:1046A000B7EE007AF4EEC77AF1EE10FA0CD807F5FF
:1046B0008B5303F11C031B685D4A136407F58C538D
:1046C0001B685B4A93641DE007F12803193B1B78C4
:1046D00019460E20FFF7FAF902F0F6BD07F58D53E3
:1046E00003F10C03B3F90030B3F1FF3F0AD007F137
:1046F0002803193B1B7819460720FFF7E7F900BF8D
:1047000002F0E2BD07F12803193B1B781946762019
:10471000FFF732FA464BD3ED107A07F12803193B25
:104720001B781846B0EE670AFFF7C6FA404BD3ED88
:10473000127A07F12803193B1B781846B0EE670A76
:10474000FFF7BAFA07F12803193B1B781846FFF761
:10475000DBF902F0B9BD002280213548FEF71EFAD0
:1047600007F58D5303F108031860032218212C4824
:10477000FEF714FA024607F58D5303F108031B6890
:10478000134407F58D5202F10802136007F1280364
:10479000193B1B7819467720FFF7EEF907F58D5383
:1047A00003F108031B68002B10D107F12803193B04
:1047B0001B7819461F48FFF7FDF907F12803193B3D
:1047C0001B781846FFF7A0F902F07EBD07F1280319
:1047D000193B1B7819460820FFF778F902F074BDE1
:1047E0000020FEF703FA0320FEF700FA07F1280382
:1047F000193B1B7819465720FFF7BEF907F128032C
:10480000193B1B7819460C48FFF7D4F907F1280328
:10481000193B1B781846FFF777F902F055BD00BF2A
:10482000840700201C080020F0790108CDCCCC3D85
:104830009C070020147A0108347A010807F1080364
:104840001B68981C07F58B5303F10C03991C07F5A3
:104850008B5202F10C0207F58B5303F10C030E335C
:10486000059307F58B5303F10C030C33049307F501
:104870008B5303F10C030A33039307F58B5303F1B6
:104880000C030833029307F58B5303F10C03063333
:10489000019307F58B5303F10C03043300930B468C
:1048A000BD490FF0ADF8034607F58D5202F10C0239
:1048B000138007F58D5303F10C03B3F90030002B7F
:1048C00040F3CB8007F58B5303F10C03B3F90030B1
:1048D000002B40F3B88007F58B5303F10C03B3F9B9
:1048E0000030102B00F3AF8007F58B5303F10C035E
:1048F000B3F90030DBB2013BDAB2A84B9A7507F589
:104900008D5303F10C03B3F90030012B0EDD07F5D5
:104910008B5303F10E03B3F90030184602F0E6FCA6
:104920000346DBB2013BDAB29C4BDA7507F58D53D7
:1049300003F10C03B3F90030022B0EDD07F58B53A6
:1049400003F11003B3F90030184602F0CFFC034620
:10495000DBB2013BDAB2914B1A7607F58D5303F1C6
:104960000C03B3F90030032B0EDD07F58B5303F175
:104970001203B3F90030184602F0B8FC0346DBB26C
:10498000013BDAB2854B5A7607F58D5303F10C03E0
:10499000B3F90030042B0EDD07F58B5303F114033C
:1049A000B3F90030184602F0A1FC0346DBB2013B2C
:1049B000DAB27A4B9A7607F58D5303F10C03B3F90B
:1049C0000030052B0EDD07F58B5303F11603B3F909
:1049D0000030184602F08AFC0346DBB2013BDAB233
:1049E0006E4BDA7607F58D5303F10C03B3F9003003
:1049F000062B0FDD07F58B5303F11803B3F90030D5
:104A0000184602F073FC0346DBB2013BDAB2634B9B
:104A100083F8522007F58D5303F10C03B3F90030EE
:104A2000072B2EDD07F58B5303F11A03B3F9003082
:104A3000184602F05BFC0346DBB2013BDAB2574B8F
:104A400083F856201DE007F12803193B1B7819460F
:104A50000E20FFF73BF802F037BC07F58D5303F14A
:104A60000C03B3F90030B3F1FF3F0AD007F128037C
:104A7000193B1B7819460720FFF728F800BF02F002
:104A800023BC07F12803193B1B7819466920FFF75F
:104A900073F8424B9B7D9BB201339BB21AB207F174
:104AA0002803193B1B7819461046FFF743F93B4B87
:104AB000DB7D9BB201339BB21AB207F12803193B8D
:104AC0001B7819461046FFF735F9344B1B7E9BB215
:104AD00001339BB21AB207F12803193B1B78194620
:104AE0001046FFF727F92D4B5B7E9BB201339BB23B
:104AF0001AB207F12803193B1B7819461046FFF735
:104B000019F9264B9B7E9BB201339BB21AB207F177
:104B10002803193B1B7819461046FFF70BF91F4B6A
:104B2000DB7E9BB201339BB21AB207F12803193B1B
:104B30001B7819461046FFF7FDF8184B93F85230D2
:104B40009BB201339BB21AB207F12803193B1B78C1
:104B500019461046FFF7EEF8104B93F856309BB20B
:104B600001339BB21AB207F12803193B1B7819468F
:104B70001046FFF7DFF807F12803193B1B781846AA
:104B8000FEF7C2FF07F12803193B1B78184603F014
:104B900085F902F099BB00BF447A01089C07002008
:104BA00007F108031B68981C07F58B5303F10403F6
:104BB000991C07F58B5202F1040207F58B5303F1A0
:104BC0000403043300930B46B4490EF019FF034667
:104BD00007F58D5202F10C02138007F58D5303F196
:104BE0000C03B3F90030032B56D107F58B5303F1B7
:104BF0000403B3F90030B3F5FA7F43DD07F58B53B7
:104C000003F10403B3F90030B3F5FA6F3ADA07F5AC
:104C10008B5303F10603B3F90030002B32DD07F5A7
:104C20008B5303F10603B3F90030632B2ADC07F53D
:104C30008B5303F10803B3F90030B3F5967F21DD00
:104C400007F58B5303F10803B3F90030B3F5AF6FE9
:104C500018DA07F58B5303F10403B3F90020904BE6
:104C60001A8207F58B5303F10603B3F900208C4B2E
:104C70005A8207F58B5303F10803B3F90020884BE0
:104C80009A821DE007F12803193B1B7819460E2074
:104C9000FEF71CFF02F018BB07F58D5303F10C0360
:104CA000B3F90030B3F1FF3F0AD007F12803193BF5
:104CB0001B7819460720FEF709FF00BF02F004BB6E
:104CC00007F12803193B1B7819466E20FEF754FFA5
:104CD000734BB3F9102007F12803193B1B781946D1
:104CE0001046FFF727F86E4BB3F9122007F128039F
:104CF000193B1B7819461046FFF71CF8684BB3F9AF
:104D0000142007F12803193B1B7819461046FFF7BA
:104D100011F807F12803193B1B781846FEF7F4FE3B
:104D200002F0D2BA07F108031B68981C07F58A53F2
:104D300003F11C03991C07F58A5202F11C0207F5C6
:104D40008A5303F11C03043300930B4653490EF0BE
:104D500057FE034607F58D5202F10C02138007F54A
:104D60008D5303F10C03B3F90030032B50D107F539
:104D70008A5303F11C03B3F90030B3F5FA7F3DDD2C
:104D800007F58A5303F11C03B3F90030B3F5FA6F4A
:104D900034DA07F58A5303F11E03B3F90030002B10
:104DA0002CDD07F58A5303F11E03B3F90030632BA2
:104DB00024DC07F58B53B3F90030B3F5967F1DDD86
:104DC00007F58B53B3F90030B3F5617F16DA07F5B9
:104DD0008A5303F11C03B3F90020314BDA8507F540
:104DE0008A5303F11E03B3F900202D4B1A8607F5F1
:104DF0008B53B3F900202A4B5A861DE007F1280394
:104E0000193B1B7819460E20FEF760FE02F05CBAD3
:104E100007F58D5303F10C03B3F90030B3F1FF3FF5
:104E20000AD007F12803193B1B7819460720FEF723
:104E30004DFE00BF02F048BA07F12803193B1B786A
:104E400019464E20FEF798FE154BB3F92E2007F1B8
:104E50002803193B1B7819461046FEF76BFF104BD1
:104E6000B3F9302007F12803193B1B781946104687
:104E7000FEF760FF0A4BB3F9322007F12803193B14
:104E80001B7819461046FEF755FF07F12803193B1A
:104E90001B781846FEF738FE02F016BA647A01084D
:104EA0009C07002007F108031B68981C07F58A532C
:104EB00003F11403991C07F58A5202F1140207F555
:104EC0008A5303F11403043300930B46D5490EF0C3
:104ED00097FD034607F58D5202F10C02138007F58A
:104EE0008D5303F10C03B3F90030032B59D107F5AF
:104EF0008A5303F11403B3F90030B3F5FA7F46DDAA
:104F000007F58A5303F11403B3F90030B3F5FA6FD0
:104F10003DDA07F58A5303F11603B3F90030002B8D
:104F200035DD07F58A5303F11603B3F90030632B1F
:104F30002DDC07F58A5303F11803B3F90030B3F5FC
:104F4000967F24DD07F58A5303F11803B3F9003087
:104F5000B3F5617F1BDA07F58A5303F11403B3F944
:104F60000020B14BA3F8642007F58A5303F1160320
:104F7000B3F90020AC4BA3F8662007F58A5303F180
:104F80001803B3F90020A84BA3F868201DE007F12F
:104F90002803193B1B7819460E20FEF797FD02F0F7
:104FA00093B907F58D5303F10C03B3F90030B3F156
:104FB000FF3F0AD007F12803193B1B781946072049
:104FC000FEF784FD00BF02F07FB907F12803193B0B
:104FD0001B7819464120FEF7CFFD934BB3F96420AF
:104FE00007F12803193B1B7819461046FEF7A2FE6D
:104FF0008D4BB3F9662007F12803193B1B7819463E
:105000001046FEF797FE884BB3F9682007F1280396
:10501000193B1B7819461046FEF78CFE07F1280352
:10502000193B1B781846FEF76FFD02F04DB907F1EA
:1050300008031B68023307F58A5202F112027B490A
:1050400018460EF0DDFC034607F58D5202F10C0206
:10505000138007F58D5303F10C03B3F90030012BD6
:1050600030D107F58A5303F11203B3F90030012B55
:1050700010D007F58A5303F11203B3F90030B3F1EE
:10508000FF3F07D007F58A5303F11203B3F900304D
:10509000002B0DD107F58A5303F11203B3F9003049
:1050A00007EE903AF8EEE77A5F4BC3ED037A1DE026
:1050B00007F12803193B1B7819460A20FEF706FD65
:1050C00002F002B907F58D5303F10C03B3F9003078
:1050D000B3F1FF3F0AD007F12803193B1B781946AB
:1050E0000720FEF7F3FC00BF02F0EEB807F128033B
:1050F000193B1B7819467220FEF73EFD4A4BD3ED53
:10510000037AFDEEE77AC7ED017ABB881AB207F1A0
:105110002803193B1B7819461046FEF70BFE07F1D2
:105120002803193B1B781846FEF7EEFC02F0CCB8BA
:1051300007F108031B68023307F58A5202F10C02DB
:105140003B4918460EF05CFC034607F58D5202F110
:105150000C02138007F58D5303F10C03B3F90030F3
:10516000012B30D107F58A5303F10C031B68B3F50B
:10517000FA7F1EDD07F58A5303F10C031B682D4AE5
:10518000934216DC07F12803193B1B78194665206A
:10519000FEF7F2FC07F58A5303F10C031B68224A61
:1051A000536307F12803193B1B781846FEF7ACFC44
:1051B0001DE007F12803193B1B7819460E20FEF766
:1051C00085FC02F081B807F58D5303F10C03B3F9A8
:1051D0000030B3F1FF3F0AD007F12803193B1B78D9
:1051E00019460720FEF772FC00BF02F06DB807F108
:1051F0002803193B1B7819466520FEF7BDFC0A4BB6
:105200005A6B07F12803193B1B7819461046FEF725
:1052100005FE07F12803193B1B781846FEF774FCBE
:1052200002F052B8647A01089C070020707A0108E5
:10523000747A0108A086010007F108031B68023395
:1052400007F58A5202F10A02964918460EF0D8FB79
:10525000034607F58D5202F10C02138007F58D53BA
:1052600003F10C03B3F90030012B27D107F58A5362
:1052700003F10A03B3F90030002B06D18A4B002258
:1052800083F82C20FEF7BAFB2CE007F58A5303F1D4
:105290000A03B3F90030012B06D1834B012283F8B6
:1052A0002C20FEF787FB1DE007F12803193B1B7834
:1052B00019460E20FEF70AFC02F006B807F58D53DA
:1052C00003F10C03B3F90030B3F1FF3F0AD007F14B
:1052D0002803193B1B7819460720FEF7F7FB00BF90
:1052E00001F0F2BF07F12803193B1B78194649204A
:1052F000FEF742FC6C4B93F82C301AB207F12803EE
:10530000193B1B7819461046FEF714FD664B93F8BF
:105310002C30002B08D107F12803193B1B781946C4
:105320006248FEF747FC07E007F12803193B1B78AA
:1053300019465F48FEF73EFC07F12803193B1B782E
:105340001846FEF7E1FB01F0BFBF07F12803193B48
:105350001B78184602F030FA01F0B6BF07F10803D7
:105360001B68023307F58A5202F108024D491846BC
:105370000EF046FB034607F58D5202F10C02138036
:1053800007F58D5303F10C03B3F90030012B2BD13A
:1053900007F58A5303F10803B3F90030022B0FD04D
:1053A00007F58A5303F10803B3F90030032B07D044
:1053B00007F58A5303F10803B3F90030012B09D133
:1053C00007F58A5303F10803B3F90030DAB2364B1C
:1053D0001A771DE007F12803193B1B7819460B20AB
:1053E000FEF774FB01F070BF07F58D5303F10C035A
:1053F000B3F90030B3F1FF3F0AD007F12803193B9E
:105400001B7819460720FEF761FB00BF01F05CBF67
:1054100007F12803193B1B7819466D20FEF7ACFBFA
:10542000214B1B7F1AB207F12803193B1B78194641
:105430001046FEF77FFC07F12803193B1B7819463D
:105440001C48FEF7B7FB184B1B7F184602F004FD03
:10545000024607F12803193B1B7819461046FEF750
:10546000A9FB07F12803193B1B781846FEF74CFBF4
:1054700001F02ABF07F12803193B1B781946532076
:10548000FEF77AFB07F12803193B1B781846FEF755
:105490003BFB07F12803193B1B78184602F0AEFAD4
:1054A00001F012BF707A01089C070020787A010889
:1054B000987A0108B47A010807F108031B680233DF
:1054C00007F58A5202F10702CA4918460EF098FA07
:1054D000034607F58D5202F10C02138007F58D5338
:1054E00003F10C03B3F90030012B40F0C38007F542
:1054F0008A5303F107031B78702B00F0A980732BEC
:1055000040F0AE8007F12803193B1B781946BA48D2
:1055100003F0F0FDB94BD3F89C301AB207F1280321
:10552000193B1B781946104603F0ACFD07F1280320
:10553000193B1B781946B24803F0DCFDAF4BD3F89A
:10554000A0301AB207F12803193B1B781946104600
:1055500003F098FD07F12803193B1B781946A94869
:1055600003F0C8FDA54BD3F8A4301AB207F1280305
:10557000193B1B781946104603F084FD07F12803F8
:10558000193B1B781946A04803F0B4FD9B4BD3F898
:10559000A8301AB207F12803193B1B7819461046A8
:1055A00003F070FD07F12803193B1B781946974853
:1055B00003F0A0FD914BD3F8AC301AB207F12803E9
:1055C000193B1B781946104603F05CFD07F12803D0
:1055D000193B1B7819468E4803F08CFD874BD3F896
:1055E000B0301AB207F12803193B1B781946104650
:1055F00003F048FD07F12803193B1B78194685483D
:1056000003F078FD7D4BD3F8B4301AB207F12803CC
:10561000193B1B781946104603F034FD07F12803A7
:10562000193B1B7819467C4803F014FE07F1280348
:10563000193B1B781946794803F05CFD07F12803F4
:10564000193B1B781A461921754803F0BBFD19E078
:1056500007F12803193B1B78184603F0C5FC11E03D
:1056600007F12803193B1B7819466E4803F0F2FD39
:1056700000BF07E007F12803193B1B7819466A4869
:1056800003F0E8FD00BF01F01FBE07F10803186832
:105690000EF0E2F903460A2B40F20C81022307F5D3
:1056A0008E5202F10602138007F58473043B07F55E
:1056B0008D5202F1040213600AE007F58E5303F1E4
:1056C00006031B88013307F58E5202F10602138090
:1056D00007F58E5303F106031C8807F108031868C9
:1056E0000EF0BAF903469C4213D207F58E5303F12C
:1056F00006031B88B3F5FF7F0BD807F58E5303F124
:1057000006031B8807F10802126813441B78202B3C
:10571000D3D0002307F58E5202F1040213808FE0EC
:1057200007F58E5303F106031B885A1C07F58E51AB
:1057300001F106010A801A4607F108031B681344A9
:105740001B781846FEF7A2FB07F58D53186007F586
:105750008E5303F106031B885A1C07F58E5101F185
:1057600006010A801A4607F108031B6813441B78D8
:105770001846FEF78BFB07F58C5303F11C031860EA
:1057800007F58D531B68B3F1FF3F4FD007F58C53DE
:1057900003F11C031B68B3F1FF3F47D007F58D539E
:1057A0001B68DBB21B01DAB207F58C5303F11C0353
:1057B0001B68DBB2134407F58C5202F11B02137015
:1057C00007F58E5303F104031B885A1C07F58E510D
:1057D00001F104010A801A4607F58D5303F1040311
:1057E0001B68134407F58C5202F11B0212781A70E1
:1057F00026E000BFB87A0108BC7A01081C08002026
:10580000CC7A0108D87A0108E47A0108F47A010810
:10581000087B0108187B01082C7B0108307B0108FC
:105820009C080020407B0108647B010807F12803E5
:10583000193B1B7819460E20FEF748F901F044BDCC
:1058400007F58E5303F106031C8807F10803186857
:105850000EF002F90346013B9C420FD207F58E532E
:1058600003F106031B88B3F5FF7F07D807F58E53B6
:1058700003F104031B887F2B7FF652AF07F58E538D
:1058800003F104031B887F2B0AD807F12803193B77
:105890001B7819460E20FEF719F900BF01F014BD60
:1058A000BD4A07F58473043B1046194680231A4607
:1058B0000DF02CF907F12803193B1B7819466220DB
:1058C000FEF75AF907F12803193B1B7819462020E7
:1058D000FEF79AF9B04B07F58D5202F104021360FE
:1058E000002307F58E52136018E007F58D5303F17E
:1058F00004031A6807F58E531B6813441A7807F1DE
:105900002803193B1B7819461046FEF74DFA07F598
:105910008E531B68013307F58E52136007F58E53C3
:105920001B687F2BE1D907F12803193B1B78184628
:10593000FEF7EAF801F0C8BC07F108031B68023360
:1059400007F58A52954918460EF05AF8034607F5AE
:105950008D5202F10C02138007F58D5303F10C03F5
:10596000B3F90030012B23D107F58A53D3ED007A28
:10597000F5EEC07AF1EE10FA10DD07F58A53D3ED9B
:10598000007AB7EE007AF4EEC77AF1EE10FA05D895
:1059900007F58A531B68804A93631DE007F12803CB
:1059A000193B1B7819460E20FEF790F801F08CBCCD
:1059B00007F58D5303F10C03B3F90030B3F1FF3F4A
:1059C0000AD007F12803193B1B7819460720FEF778
:1059D0007DF800BF01F078BC07F12803193B1B7864
:1059E00019467820FEF7C8F86B4BD3ED0E7A07F115
:1059F0002803193B1B781846B0EE670AFEF75CF9DE
:105A000007F12803193B1B781846FEF77DF801F0D3
:105A10005BBC07F12803193B1B78012B27D107F149
:105A20002803193B1B7819464220FEF7A5F807F119
:105A30002803193B1B7819465948FEF7BBF8FBF7BA
:105A4000F1FD0346012B08D107F12803193B1B7810
:105A50001846FEF759F801F037BC07F12803193B47
:105A60001B7819460C20FEF731F801F02DBC07F128
:105A70002803193B1B7819460D20FEF727F801F083
:105A800023BC07F108031B68981C07F5895303F131
:105A90001C03023307F5895202F11C0241490DF043
:105AA000AFFF034607F58D5202F10C02138007F594
:105AB0008D5303F10C03B3F90030022B30D107F5FD
:105AC000895303F11C03B3F90030002B1EDB07F5EB
:105AD000895303F11E03B3F90030002B16DB2E4B64
