:020000040800F2
:1000000000000220ED6A00089D700008AD70000835
:10001000C1700008D5700008E970000800000000F9
:10002000000000000000000000000000FD7000085B
:100030000D710008000000001D7100082D710008FE
:10004000476B0008496B00084B6B00084D6B0008BC
:100050004F6B0008516B0008536B0008556B00088C
:10006000576B0008596B00085B6B00085D6B00085C
:100070005F6B0008616B0008636B0008656B00082C
:10008000676B0008696B00086B6B00086D6B0008FC
:100090006F6B0008716B0008736B0008756B0008CC
:1000A000776B0008796B00087B6B00088D71000886
:1000B0007F6B0008816B0008836B0008856B00086C
:1000C000876B0008896B00088B6B00088D6B00083C
:1000D0008F6B00083D7100085171000865710008C0
:1000E000976B0008996B00089B6B00089D6B0008DC
:1000F0009F6B0008A16B0008A36B0008A56B0008AC
:10010000A76B0008A96B0008A1710008AD6B00087F
:10011000AF6B0008B16B0008B36B0008B56B00084B
:10012000B76B0008B96B0008BB6B0008BD6B00081B
:10013000BF6B0008C16B0008C36B0008C56B0008EB
:10014000C76B0008C96B0008CB6B00087971000809
:10015000CF6B0008D16B0008D36B0008D56B00088B
:10016000D76B0008D96B0008DB6B0008DD6B00085B
:10017000DF6B0008E16B0008E36B0008E56B00082B
:10018000E76B0008E96B000810B5054C237833B91C
:10019000044B13B10448AFF300800123237010BD5A
:1001A00044020020000000007C5A0108084B10B5F2
:1001B0001BB108490848AFF300800848036803B939
:1001C00010BD074B002BFBD0BDE81040184700BF07
:1001D00000000000480200207C5A01084402002070
:1001E00000000000154B002B08BF134B9D46A3F5E4
:1001F000803A00218B460F461348144A121A0FF01A
:100200000EF80F4B002B00D098470E4B002B00D060
:1002100098470020002104000D000D48002802D05E
:100220000C48AFF300800EF0B9FF2000290002F067
:1002300023FA0EF09FFF00BF00000800000002201C
:100240000000000000000000440200200C99002083
:10025000000000000000000080B584B000AF7860AE
:100260000B46FB700023FB737B681B7C002B0ED1BD
:100270004FF4007302228121786807F00BFE4FF4DF
:10028000007302220121786807F004FE0BE040238E
:1002900002228121786807F0FDFD4023022201211E
:1002A000786807F0F7FD082303228221786807F0B9
:1002B000F1FD4FF407700EF097FF03461A467B6876
:1002C000C3F818227B68D3F81832002B02D101231F
:1002D000FB7326E07B68D3F81832BB607B68D3F8E9
:1002E0001C321B689847BB680022C3F81422BB6805
:1002F0000022C3F818227B681B7C002B09D1BB6845
:10030000D3F804224FF400730121786807F03EFF10
:1003100007E0BB68D3F8042240230121786807F086
:1003200035FFFB7B18461037BD4680BD80B584B0D5
:1003300000AF78600B46FB700023FB738121786867
:1003400007F0E6FD0121786807F0E2FD8221786878
:1003500007F0DEFD7B68D3F81832002B0ED07B68E7
:10036000D3F81C325B6898477B68D3F8183218467C
:100370000EF042FF7B680022C3F81822FB7B184670
:100380001037BD4680BD00BF80B584B000AF786037
:1003900039607B68D3F81832FB603B681B7803F048
:1003A0006003002B3AD0202B00D043E03B68DB8871
:1003B000002B29D03B681B785BB2002B11DA7B68DD
:1003C000D3F81C329B683A685078F9683A68D2884A
:1003D0009847F9683B68DB881A46786801F068F846
:1003E00029E03B685A78FB6883F800223B68DB8889
:1003F000DAB2FB6883F80122F9683B68DB881A46A9
:10040000786801F083F816E07B68D3F81C329B68AB
:100410003A6850780022396898470CE03B685B786E
:100420000A2B01D00B2B05E001220549786801F069
:100430003FF800BF00BF002318461037BD4680BDFF
:100440006002002080B485B000AF78600B46FB707E
:100450007B68D3F81832FB607B68D3F81832002B26
:1004600005D0FB680022C3F81422002300E0022319
:1004700018461437BD465DF8047B704780B584B0DC
:1004800000AF78600B46FB707B68D3F81832FB60D6
:10049000FB781946786807F0B3FE0246FB68C3F89C
:1004A0000C227B68D3F81832002B0DD07B68D3F870
:1004B0001C32DB68FA68D2F80402FA6802F50372AB
:1004C00011469847002300E0022318461037BD4626
:1004D00080BD00BF80B584B000AF78607B68D3F882
:1004E0001832FB607B68D3F81C32002B15D0FB68F8
:1004F00093F80032FF2B10D07B68D3F81C329B6836
:10050000FA6892F80002F968FA6892F8012292B249
:100510009847FB68FF2283F8002200231846103713
:10052000BD4680BD80B483B000AF78607B68432255
:100530001A80034B18460C37BD465DF8047B7047A4
:100540008800002080B483B000AF78607B684322CD
:100550001A80034B18460C37BD465DF8047B704784
:100560004400002080B483B000AF78607B684322F1
:100570001A80034B18460C37BD465DF8047B704764
:10058000CC00002080B483B000AF78607B680A2282
:100590001A80034B18460C37BD465DF8047B704744
:1005A0000000002080B485B000AF7860396002237D
:1005B000FB733B68002B05D07B683A68C3F81C22AC
:1005C0000023FB73FB7B18461437BD465DF8047BA4
:1005D000704700BF80B487B000AFF860B9601346C1
:1005E000FB80FB68D3F818327B617B69BA68C3F87B
:1005F0000822FA887B69C3F81022002318461C37AA
:10060000BD465DF8047B704780B485B000AF78606C
:1006100039607B68D3F81832FB60FB683A68C3F82E
:100620000422002318461437BD465DF8047B70474A
:1006300080B584B000AF78607B68D3F81832FB6077
:100640007B68D3F81832002B17D0FB68D3F814322C
:10065000002B10D1FB680122C3F81422FB68D3F8E9
:100660000822FB68D3F810329BB28121786807F02A
:1006700053FD002302E0012300E002231846103757
:10068000BD4680BD80B584B000AF78607B68D3F88C
:100690001832FB607B68D3F81832002B17D07B68C8
:1006A0001B7C002B09D1FB68D3F804224FF40073A4
:1006B0000121786807F06AFD07E0FB68D3F804229F
:1006C00040230121786807F061FD002300E0022348
:1006D00018461037BD4680BD80B584B000AFF860C5
:1006E000B9601346FB71FB68002B01D102231AE0AD
:1006F000FB68D3F81432002B03D0FB680022C3F848
:100700001422BB68002B03D0FB68BA68C3F8102220
:10071000FB68012283F8FC21FB68FA791A70F868FB
:1007200007F032FB002318461037BD4680BD00BFDE
:1007300080B485B000AF786039600023FB733B68FC
:10074000002B06D07B683A68C3F814220023FB73A1
:1007500001E00223FB73FB7B18461437BD465DF8AE
:10076000047B704780B582B000AF7860786807F08E
:100770005FFB002318460837BD4680BD80B483B0B8
:1007800000AF7860002318460C37BD465DF8047B47
:10079000704700BF80B584B000AF78600B46FB7037
:1007A0000223FB737B68D3F81432002B0CD07B68D8
:1007B000D3F814321B68FA781146786898470346D4
:1007C000002B01D10023FB73FB7B18461037BD467D
:1007D00080BD00BF80B582B000AF78600B46FB7073
:1007E0007B68D3F814325B68FA78114678689847CA
:1007F000002318460837BD4680BD00BF80B582B0D3
:1008000000AF786039607B6803F502733968184679
:1008100000F0A2FD7B680122C3F8F4217B68B3F8E5
:100820000E321A467B68C3F8F8217B6893F80832C9
:1008300003F01F03012B0BD0022B11D0002B17D17B
:100840007B6803F502731946786800F0CFF91AE067
:100850007B6803F502731946786800F017FA12E016
:100860007B6803F502731946786800F043FA0AE0E2
:100870007B6893F8083223F07F03DBB2194678686F
:1008800007F07CFB00BF002318460837BD4680BD3B
:1008900080B586B000AFF8600B467A60FB72FB7AD9
:1008A000002B38D1FB6803F582737B61FB68D3F8BA
:1008B000F431032B42D17B699A687B69DB689A42E9
:1008C00014D97B699A687B69DB68D21A7B699A6064
:1008D0007B69DA687B699B68934228BF13469BB2A9
:1008E0001A467968F86800F02FFE27E0FB68D3F815
:1008F00014321B69002B0AD0FB6893F8FC31032BE0
:1009000005D1FB68D3F814321B69F8689847F8687A
:1009100000F02CFE12E0FB68D3F814329B69002B28
:100920000CD0FB6893F8FC31032B07D1FB68D3F89C
:1009300014329B69FA7A1146F868984700231846E2
:100940001837BD4680BD00BF80B586B000AFF860E7
:100950000B467A60FB72FB7A002B6CD1FB68143378
:100960007B61FB68D3F8F431022B57D17B699A681D
:100970007B69DB689A4215D97B699A687B69DB6879
:10098000D21A7B699A607B699B689BB21A46796828
:10099000F86800F0A9FD002300220021F86807F0A4
:1009A000F5FB3BE07B695B687A69D268B3FBF2F1E7
:1009B00002FB01F29B1A002B1CD17B695A687B69F0
:1009C000DB689A4216D37B695A68FB68D3F8F83122
:1009D0009A420FD200220021F86800F085FDFB68E2
:1009E0000022C3F8F821002300220021F86807F054
:1009F000CDFB13E0FB68D3F81432DB68002B0AD080
:100A0000FB6893F8FC31032B05D1FB68D3F8143253
:100A1000DB68F8689847F86800F0BCFDFB6893F85D
:100A20000032012B1AD1F868FFF7A8FEFB680022FC
:100A300083F8002212E0FB68D3F814325B69002BC4
:100A40000CD0FB6893F8FC31032B07D1FB68D3F87B
:100A500014325B69FA7A1146F86898470023184601
:100A60001837BD4680BD00BF80B582B000AF78604A
:100A7000402300220021786807F00CFA7B684022AE
:100A8000C3F81021402300228021786807F002FA81
:100A90007B6840221A627B68012283F8FC217B6814
:100AA000D3F81832002B09D07B68D3F814325B6876
:100AB0007A685268D2B2114678689847002318467F
:100AC0000837BD4680BD00BF80B483B000AF7860FA
:100AD0000B46FB707B68FA781A74002318460C37B3
:100AE000BD465DF8047B704780B483B000AF78608A
:100AF0007B6893F8FC217B6883F8FD217B680422E6
:100B000083F8FC21002318460C37BD465DF8047BB2
:100B1000704700BF80B483B000AF78607B6893F803
:100B2000FD217B6883F8FC21002318460C37BD4665
:100B30005DF8047B704700BF80B582B000AF78607D
:100B40007B6893F8FC31032B0BD17B68D3F814320C
:100B5000DB69002B05D07B68D3F81432DB69786839
:100B60009847002318460837BD4680BD80B483B03F
:100B700000AF78600B46FB70002318460C37BD466B
:100B80005DF8047B704700BF80B483B000AF78602D
:100B90000B46FB70002318460C37BD465DF8047BFE
:100BA000704700BF80B483B000AF78600023184660
:100BB0000C37BD465DF8047B704700BF80B582B03E
:100BC00000AF78607B68012283F8FC217B68D3F852
:100BD00014325B687A685268D2B2114678689847D6
:100BE000002318460837BD4680BD00BF80B584B0DD
:100BF00000AF786039600023FB733B685B78092B9A
:100C000039D801A252F823F0590C00086D0C0008E5
:100C1000770C0008630C0008770C00083B0C0008F8
:100C2000310C0008770C00084F0C0008450C000838
:100C30003968786800F036F922E03968786800F0A1
:100C400025FA1DE03968786800F05EFA18E0396826
:100C5000786800F0E1FA13E03968786800F00EFB7C
:100C60000EE03968786800F033FB09E0396878688D
:100C700000F04AFB04E03968786800F0ABFB00BF85
:100C8000FB7B18461037BD4680BD00BF80B584B0E1
:100C900000AF786039600023FB737B6893F8FC3108
:100CA000032B1BD13B689B88DBB2012B11D87B68DF
:100CB000D3F814329B683968786898473B68DB88BA
:100CC000002B10D1FB7B002B0DD1786800F04EFC7F
:100CD00009E03968786800F07DFB04E039687868DD
:100CE00000F078FB00E000BF002318461037BD4637
:100CF00080BD00BF80B584B000AF7860396000234C
:100D0000FB733B689B88BB733B681B7803F06003F5
:100D1000202B08D17B68D3F814329B683968786837
:100D200098470023BAE03B685B78012B39D0032B4E
:100D300002D0002B6BD0B0E07B6893F8FC31022B23
:100D400002D0032B0CD025E0BB7B002B27D0BB7B34
:100D5000802B24D0BB7B1946786807F00FF91EE082
:100D60003B685B88002B0AD1BB7B002B07D0BB7B89
:100D7000802B04D0BB7B1946786807F0FFF87B68AE
:100D8000D3F814329B68396878689847786800F01F
:100D9000EDFB05E03968786800F01CFB00E000BF5F
:100DA0007BE07B6893F8FC31022B02D0032B0CD044
:100DB00024E0BB7B002B26D0BB7B802B23D0BB7BCE
:100DC0001946786807F0DAF81DE03B685B88002B6D
:100DD0001BD1BB7B03F07F03002B0BD0BB7B1946E1
:100DE000786807F001F97B68D3F814329B6839689A
:100DF00078689847786800F0B9FB06E03968786849
:100E000000F0E8FA02E000BF47E000BF45E07B6881
:100E100093F8FC31022B02D0032B0BD036E0BB7BC6
:100E200003F07F03002B36D0BB7B1946786807F0B0
:100E3000A5F830E097F90E30002B08DABB7B03F001
:100E40007F0301331B017A681344043307E0BB7B43
:100E500003F07F0310331B017A6813440433BB6033
:100E6000BB7B1946786807F0F5F80346002B03D0E2
:100E7000BB6801221A6002E0BB6800221A60BB68EE
:100E800002221946786800F013FB05E0396878689B
:100E900000F0A0FA00E000BF00BFFB7B184610374F
:100EA000BD4680BD80B584B000AF786039603B68D6
:100EB0005B881B0A9BB2013B062B00F2C98001A292
:100EC00052F823F0E10E0008F90E0008390F00086F
:100ED0005110000851100008FD0F000823100008F1
:100EE0007B68D3F810321B687A68127C07F10A011C
:100EF00010469847F860B0E07B681B7C002B0DD152
:100F00007B68D3F814329B6A07F10A0210469847AF
:100F1000F860FB68013302221A709EE07B68D3F808
:100F20001432DB6A07F10A0210469847F860FB6842
:100F3000013302221A7090E03B685B88DBB2052B1C
:100F400056D801A252F823F0610F0008790F00086B
:100F5000910F0008A90F0008C10F0008D90F000861
:100F60007B68D3F810325B687A68127C07F10A015B
:100F700010469847F86040E07B68D3F810329B68D1
:100F80007A68127C07F10A0110469847F86034E04D
:100F90007B68D3F81032DB687A68127C07F10A01AB
:100FA00010469847F86028E07B68D3F810321B6938
:100FB0007A68127C07F10A0110469847F8601CE035
:100FC0007B68D3F810325B697A68127C07F10A01FA
:100FD00010469847F86010E07B68D3F810329B69A0
:100FE0007A68127C07F10A0110469847F86004E01D
:100FF0003968786800F0EEF944E02EE07B681B7CED
:10100000002B09D17B68D3F814325B6B07F10A021D
:1010100010469847F86020E03968786800F0DAF9FF
:1010200030E07B681B7C002B0DD17B68D3F8143239
:101030001B6B07F10A0210469847F860FB68013302
:1010400007221A7009E03968786800F0C3F919E0DE
:101050003968786800F0BEF914E07B89002B11D064
:101060003B68DB88002B0DD03B68DA887B89934294
:1010700028BF13469BB27B817B891A46F968786842
:1010800000F016FA1037BD4680BD00BF80B584B0B1
:1010900000AF786039603B689B88002B2CD13B689F
:1010A000DB88002B28D13B685B88DBB203F07F0331
:1010B000FB737B6893F8FC31032B04D139687868A3
:1010C00000F088F91CE07B68FA7B83F8FE21FB7B4B
:1010D0001946786806F0EAFF786800F047FAFB7B6B
:1010E000002B04D07B68022283F8FC2108E07B6897
:1010F000012283F8FC2103E03968786800F06AF97E
:1011000000BF1037BD4680BD80B582B000AF7860AB
:1011100039603B685B88DAB23E4B1A703D4B1B78F6
:10112000012B04D93968786800F054F96FE07B68C6
:1011300093F8FC31022B02D0032B23D062E0354B15
:101140001B78002B1AD0334B1B781A467B685A60E9
:101150007B68032283F8FC212E4B1B7819467868A4
:10116000FFF718FB0346022B04D13968786800F0BA
:1011700031F94CE0786800F0F9F948E0786800F05F
:10118000F5F944E0234B1B78002B12D17B68022237
:1011900083F8FC211F4B1B781A467B685A601D4B55
:1011A0001B7819467868FFF715FB786800F0DEF9C0
:1011B0002DE0184B1B781A467B685B689A421DD05D
:1011C0007B685B68DBB219467868FFF703FB114B5D
:1011D0001B781A467B685A600E4B1B781946786854
:1011E000FFF7D8FA0346022B04D13968786800F07B
:1011F000F1F80CE0786800F0B9F908E0786800F0E0
:10120000B5F904E03968786800F0E4F800BF083701
:10121000BD4680BD6102002080B582B000AF78601D
:1012200039603B68DB88012B04D03968786800F0AE
:10123000D1F81FE07B6893F8FC31022B02D0032B1E
:101240000BD012E07B6800229A607B680833012291
:101250001946786800F02CF90CE07B680433012211
:101260001946786800F024F904E03968786800F0DD
:10127000B1F800BF00BF0837BD4680BD80B582B061
:1012800000AF786039607B6893F8FC31023B012B3A
:1012900015D87B680122DA607B68D3F80432002B12
:1012A00005D07B68DB6843F002027B68DA607B680C
:1012B0000C3302221946786800F0FAF804E0396825
:1012C000786800F087F800BF00BF0837BD4680BDD2
:1012D00080B582B000AF786039603B685B88012BD5
:1012E0000DD17B680122C3F804227B68D3F8143245
:1012F0009B68396878689847786800F037F900BFCC
:101300000837BD4680BD00BF80B582B000AF7860B1
:1013100039607B6893F8FC31023B012B12D83B68A3
:101320005B88012B13D17B680022C3F804227B6801
:10133000D3F814329B68396878689847786800F069
:1013400015F904E03968786800F044F800E000BF5F
:1013500000BF0837BD4680BD80B483B000AF786061
:1013600039603B681A787B681A703B685A787B68EA
:101370005A703B6802331B789AB23B6803331B7880
:101380009BB21B029BB213449AB27B685A803B68A3
:1013900004331B789AB23B6805331B789BB21B025F
:1013A0009BB213449AB27B689A803B6806331B78E1
:1013B0009AB23B6807331B789BB21B029BB2134463
:1013C0009AB27B68DA8000BF0C37BD465DF8047BBB
:1013D000704700BF80B582B000AF7860396080216F
:1013E000786806F0CBFD0021786806F0C7FD00BFE5
:1013F0000837BD4680BD00BF80B586B000AFF8603D
:10140000B9607A600023FB75FB68002B33D0F86865
:1014100000F036F8034601339BB25B009AB27B685A
:101420001A80FB7D5A1CFA751A46BB6813447A6809
:101430001288D2B21A70FB7D5A1CFA751A46BB6824
:10144000134403221A7012E0FB7D5A1CFA751A46E7
:10145000BB681A44FB68591CF9601B781370FB7D4C
:101460005A1CFA751A46BB68134400221A70FB68AE
:101470001B78002BE8D100BF1837BD4680BD00BFE8
:1014800080B485B000AF78600023FB7305E0FB7B80
:101490000133FB737B6801337B607B681B78002B17
:1014A000F5D1FB7B18461437BD465DF8047B7047C9
:1014B00080B584B000AFF860B9601346FB80FB686C
:1014C0000222C3F8F421FA88FB689A61FA88FB6863
:1014D000DA61FB88BA680021F86806F01DFE002377
:1014E00018461037BD4680BD80B584B000AFF860A7
:1014F000B9601346FB80FB88BA680021F86806F0E3
:101500000BFE002318461037BD4680BD80B584B061
:1015100000AFF860B9601346FB80FB680322C3F894
:10152000F421FA88FB68C3F80821FA88FB68C3F83D
:101530000C21FB88BA680021F86806F027FE00231A
:1015400018461037BD4680BD80B584B000AFF86046
:10155000B9601346FB80FB88BA680021F86806F082
:1015600015FE002318461037BD4680BD80B582B0F9
:1015700000AF78607B680422C3F8F42100230022C6
:101580000021786806F0C8FD002318460837BD46DC
:1015900080BD00BF80B582B000AF78607B68052257
:1015A000C3F8F421002300220021786806F0EEFD44
:1015B000002318460837BD4680BD00BFB0B58CB0CB
:1015C00000AF002387F82330764B3C1D1D460FCD1E
:1015D0000FC495E8070084E80700002387F82F3040
:1015E000002387F82E303DE0012004F07BFF01212D
:1015F0006D4804F0A1FE97F82F309B0007F13002F0
:10160000134453F82C3C0121184604F0A5FE012197
:10161000664804F015FF97F82F309B0007F1300261
:10162000134453F82C3C184600F042F9002160485E
:1016300004F082FE07F1230207F124031146184645
:1016400000F0CEF807F1230207F1240311461846F3
:1016500000F012F90346002B09D197F82F3001331F
:1016600087F82F3097F82F30062BBDD900E000BF48
:1016700097F82F30072B00F08C80012004F032FF08
:1016800001214C4804F058FE97F82F309B0007F1D9
:101690003002134453F82C3C0121184604F05CFE40
:1016A0000121424804F0CCFE97F82F30042B26D0BD
:1016B0000121414804F0C4FE0021404804F03CFEF2
:1016C00007F1230207F124031146184600F088F8B9
:1016D0004FF4164000F0ECF807F1230207F1240361
:1016E0001146184600F0C8F80346002B04D001212B
:1016F000334804F0A5FE02E0012387F82E3097F866
:101700002E30002B45D1012004F0ECFE01212D48A4
:1017100004F096FE00212C4804F00EFE07F123028F
:1017200007F124031146184600F05AF807F1230286
:1017300007F124031146184600F09EF80346002BDB
:1017400027D00121214804F07BFE012004F0CAFECD
:1017500001211F4804F074FE00211E4804F0ECFD36
:1017600007F1230207F124031146184600F038F868
:1017700007F1230207F124031146184600F07CF814
:101780000346002B05D00121134804F059FE012324
:1017900004E00121114804F053FE002318463037BD
:1017A000BD46B0BDB4380108D4360108043701087D
:1017B0000C37010810370108403701087437010859
:1017C000803701089C370108D8370108E83701083D
:1017D0000C3801084C3801085838010884380108D1
:1017E00080B586B000AF7860396007F057F938618E
:1017F0003B6800221A701F4BDB8DFB8229E006F04C
:101800004FF91C4BDB8D9BB2FA8A9A4221D0194BBF
:10181000996A184B9A8DFB8AB3FBF2F002FB00F237
:101820009B1A9BB20B441B78FB733B681B78092BFC
:101830000CD83B681B781A467B681344FA7B1A70F5
:101840003B681B780133DAB23B681A70FB8A0133BC
:10185000FB8207F023F902463B69D31A40F6B73200
:101860009342CCD9012004F03DFE00BF1837BD469D
:1018700080BD00BFDC02002080B483B000AF786080
:1018800039603B681B78012B0AD97B681B784F2B8A
:1018900006D17B6801331B784B2B01D1012300E07B
:1018A000002318460C37BD465DF8047B704700BF27
:1018B00080B582B000AF7860084A7B685360074803
:1018C0000BF01EFA0346002B03D00121044804F05C
:1018D000B7FD00BF0837BD4680BD00BFDC02002059
:1018E000D038010880B400AF044B1B680133034AB1
:1018F000136000BFBD465DF8047B704764020020A2
:1019000080B400AF094B1A68094BA3FB02131B09F3
:10191000322101FB03F3D31A002B0CBF0123002358
:10192000DBB21846BD465DF8047B704764020020B8
:101930001F85EB5180B400AF0A4B19680A4BA3FB1B
:101940000123DA0813469B0013445B00CA1A002ADD
:101950000CBF01230023DBB21846BD465DF8047BB3
:10196000704700BF64020020CDCCCCCC80B500AF66
:1019700007F094F802460E4B1B68D31AB3F5FA6FC2
:1019800002D9DFED0C7A10E00B4B1B68002B02D163
:10199000DFED087A09E0084B1B6807EE903AB8EED5
:1019A000677ADFED066AC6EE877AB0EE670A80BD19
:1019B00070020020000000006C0200200000A04225
:1019C00080B400AF044B1B6807EE903AB0EE670A94
:1019D000BD465DF8047B70477402002080B400AF00
:1019E000044B1B6807EE903AB0EE670ABD465DF8FF
:1019F000047B70476802002080B400AF034B5B6A31
:101A00001846BD465DF8047B704700BF000C0040DF
:101A100080B400AF044B022283F8512000BFBD46C2
:101A20005DF8047B704700BF7807002080B483B066
:101A300000AF87ED010AD7ED017AF5EEC07AF1EE3D
:101A400010FA04D5D7ED017AF1EE677A01E0D7ED0F
:101A5000017AB0EE670A0C37BD465DF8047B70472B
:101A600080B500AF044BDB7D184604F069FAF0EE58
:101A7000407AB0EE670A80BD2407002080B500AF31
:101A8000044B1B7E184604F05BFAF0EE407AB0EE91
:101A9000670A80BD2407002080B500AF044B5B7E41
:101AA000184604F04DFAF0EE407AB0EE670A80BDB9
:101AB0002407002080B500AF044B9B7E184604F03D
:101AC0003FFAF0EE407AB0EE670A80BD24070020AE
:101AD00080B500AF044BDB7E184604F031FAF0EE1F
:101AE000407AB0EE670A80BD2407002080B584B03C
:101AF00000AF2A4B9B7D184604F022FA87ED030ABB
:101B000097ED037AD7ED037AB4EE677AF1EE10FA27
:101B100002D74FF000033AE0214B93F85130022BEB
:101B200004D01F4B93F85130032B2FD1D7ED037AFC
:101B3000F5EE407AF1EE10FA28D0194B93F85130B7
:101B4000022B20D10221174804F0F6FB022097ED6A
:101B5000030A04F01BFC0221134804F0EDFBD7ED4F
:101B6000037AFDEEE77AC7ED017ABB881BB202214A
:101B7000184604F0A9FB02210C4804F0DDFB084BD9
:101B8000032283F851204FF0000300E0FB6807EECA
:101B9000903AB0EE670A1037BD4680BD240700209A
:101BA0007807002014390108343901084C3901083C
:101BB00080B58EB000AF87ED010AC7ED000AFFF7D0
:101BC00095FF87ED0A0ABC4BD3ED0E7AB7EE007A8B
:101BD00037EE677AD7ED0A7A27EE277AD7ED0A7AB9
:101BE00027EE277AD7ED0A7A27EE277AB24BD3ED84
:101BF0000E6AD7ED0A7A66EEA77A77EE277AC7EDF6
:101C00000D7AAE4B5B6AAE4A12689B1A7B62AA4B96
:101C10001B7F012B00F04C82A74BDB6B3B63A64B79
:101C20001B6CFB62A74B93F85130002B05D0A24BE5
:101C30005B6C3B63A04B9B6CFB62A34BD3ED007AC8
:101C400097ED0D7A77EE677AC7ED087A97ED087A07
:101C5000D7ED0C7AB4EEE77AF1EE10FA0ADCD7EDA4
:101C60000C7AB1EE677AD7ED087AB4EEE77AF1EE46
:101C700010FA06DD934B03F5C043563301221A7068
:101C800005E0904B03F5C043563300221A7097EDE0
:101C9000087AD7ED0C7AB4EEE77AF1EE10FA09DDA6
:101CA000894B93ED007AD7ED0C7A77EE277AC7ED62
:101CB0000D7A13E0D7ED0C7AB1EE677AD7ED087A9A
:101CC000B4EEE77AF1EE10FA08DD7F4B93ED007A7F
:101CD000D7ED0C7A77EE677AC7ED0D7A97ED0D7A2E
:101CE000D7ED0B7AB4EEE77AF1EE10FA0ADCD7ED15
:101CF0000B7AB1EE677AD7ED0D7AB4EEE77AF1EEB2
:101D000010FA06DD6F4B03F5C043573301221A70FA
:101D100005E06C4B03F5C043573300221A7097ED72
:101D20000D7AD7ED0B7AB4EEE77AF1EE10FA02DD18
:101D3000FB6A7B6310E0D7ED0B7AB1EE677AD7EDE3
:101D40000D7AB4EEE77AF1EE10FA05DDD7ED0B7AF5
:101D5000F1EE677AC7ED0D7A5A4B93F85130002BAC
:101D600040F0A681544B1B7F012B00F0A181524B08
:101D70001B7F022B00F09C814F4B93ED097A4E4B59
:101D8000D3ED0A7AB4EEE77AF1EE10FA09DD4A4BA8
:101D90005B6AFB61484B9B6A474A5362464AFB6950
:101DA000936297ED017AD7ED007A37EE277A424BAE
:101DB000D3ED0A7AB4EEE77AF1EE10FA1AD597ED80
:101DC000017AD7ED007A37EE677A3B4BD3ED097A8B
:101DD000B4EEE77AF1EE10FA0CDD3A4B03F5C043AE
:101DE000583300221A70374B03F5C0435933002291
:101DF0001A705DE197ED017AD7ED007A37EE277A18
:101E00002D4BD3ED0A7AB4EEE77AF1EE10FAC0F278
:101E1000A780294B93ED037AD7ED0D7A67EE277AE9
:101E2000F5EEC07AF1EE10FA54DD274B93ED007A0F
:101E3000214BD3ED036AD7ED0C7A66EEA77A77EEE5
:101E4000677AC7ED0D7A1C4B93ED037AD7ED0D7AC7
:101E500067EE277AF5EEC07AF1EE10FA02D54FF070
:101E600000037B63174B03F5C04358331B7883F0A3
:101E70000103DBB2002B03D00221144804F0E0FA86
:101E8000104B03F5C043583301221A700022102171
:101E90000F4807F021FA084B93ED0A7AD7ED017A43
:101EA000B4EEE77AF1EE10FA25D8074B4FF00002B6
:101EB0001A604FF00003B6E224070020000C004037
:101EC0007C0200207807002068020020A039010869
:101ED00000040240AF4B03F5C043583300221A7090
:101EE000AC4B03F5C043593300221A700122102174
:101EF000A94807F0F1F997ED017AD7ED007A37EEAE
:101F0000277AA64BD3ED0A6AA44BD3ED087A76EE76
:101F1000A77AB4EEE77AF1EE10FA21DB7B6A002BA8
:101F20001EDD9C4B03F5C04359331B7883F001033E
:101F3000DBB2002B03D00221994804F081FA954BC3
:101F400003F5C043593301221A7000221021924830
:101F500007F0C2F9934A7B6B13604FF0000362E213
:101F600097ED017AD7ED007A37EE677A8B4BD3ED98
:101F7000097AB4EEE77AF1EE10FA00F29980874B15
:101F800093ED037AD7ED0D7A67EE277AF5EEC07AF6
:101F9000F1EE10FA46D5814B93ED037AD7ED0C7A2A
:101FA00027EE277A7F4BD3ED007A77EE277AC7EDBD
:101FB0000D7A7A4B93ED037AD7ED0D7A67EE277A97
:101FC000F5EEC07AF1EE10FA02DD4FF000037B630C
:101FD000704B03F5C04358331B7883F00103DBB229
:101FE000002B03D00221704804F02AFA694B03F554
:101FF000C043583301221A7000221021664807F0AE
:102000006BF9664B93ED097AD7ED017AB4EEE77A76
:10201000F1EE10FA17DB634B4FF000021A604FF03D
:10202000000300E25B4B03F5C043583300221A70F3
:10203000584B03F5C043593300221A700122102176
:10204000554807F049F997ED017AD7ED007A37EE58
:10205000677A524BD3ED096A504BD3ED087A76EE8E
:10206000E77AB4EEE77AF1EE10FA21D87B6A002B1A
:102070001EDA484B03F5C04359331B7883F0010344
:10208000DBB2002B03D00221454804F0D9F9414BC3
:1020900003F5C043593301221A70002210213E4833
:1020A00007F01AF93F4A7B6B13604FF00003BAE167
:1020B0003C4A7B6B1360FFF7D3FCB0EE407ADFED58
:1020C0003B7AB4EEE77AF1EE10FA0DDD314B93F87E
:1020D0005130002B03D00221354804F0B1F92D4BCB
:1020E000002283F851200FE02A4B93F85130012B46
:1020F00006D0304B00221A7002212F4804F0A0F9BC
:10210000244B012283F851202C4B93ED007AD7ED1C
:102110000D7A77EE277A294BC3ED007AFFF7AEFCF4
:1021200087ED060AD7ED067A9FED207AF4EEC77A9E
:10213000F1EE10FA40F3F980164B93F85130012B71
:1021400040F0F3801E4BD3ED007A9FED187AF4EE49
:10215000C77AF1EE10FA00F2E880194BD3ED007A5D
:10216000F4EE677AF1EE10FA80F1DF80114B1B7804
:10217000002B29D1094A7B6853620E4B01221A7049
:102180000221104804F05CF90C4B4FF000021A6079
:10219000CBE000BF780700200004024024070020A5
:1021A000B439010868020020A0390108CDCC4C3FA9
:1021B000C839010880020020E439010878020020B3
:1021C00084020020083A010802219A4804F038F9F4
:1021D000994B93ED097AD7ED017AB4EEE77AF1EEF7
:1021E00010FA4BD5944A7B6893620221934804F01D
:1021F000A3F8914BD3ED097A0220B0EE670A04F000
:10220000C5F802218E4804F097F88B4BD3ED0A7A7B
:102210000220B0EE670A04F027F9874BD3ED037A6A
:10222000F5EE407AF1EE10FA7FD10221854804F0F4
:1022300083F8854BD3ED007A0220B0EE670A04F0F4
:10224000A5F80221814804F077F87F4BD3ED007A9E
:10225000F5EEC07AF1EE10FA04DD774B4FF07E52C6
:10226000DA6002E0744B7A4ADA60734BD3ED037A9A
:102270000220B0EE670A04F0F7F856E06E4B5B6A96
:102280006D4A93626C4A7B6853620221714804F084
:1022900053F8694BD3ED0A7A0220B0EE670A04F0D6
:1022A00075F802216C4804F047F8634BD3ED097AC6
:1022B0000220B0EE670A04F0D7F85F4BD3ED037A43
:1022C000F5EE407AF1EE10FA2FD102215D4804F0CC
:1022D00033F85D4BD3ED007A0220B0EE670A04F0CC
:1022E00055F80221594804F027F8574BD3ED007AEE
:1022F000F5EEC07AF1EE10FA03DD4F4B544ADA6086
:102300000BE0514BD3ED007AF5EEC07AF1EE10FA06
:1023100003D5494B4FF07E52DA60474BD3ED037A39
:102320000220B0EE670A04F09FF84C4ABB691360C4
:10233000FFF7B2FB87ED050A97ED057AD7ED057A31
:10234000B4EE677AF1EE10FA14D6D7ED057AB7EE4F
:10235000007A37EE877ADFED426AC7EE267A9FED84
:10236000417A77EE877A9FED407A67EE877A324B33
:10237000C3ED0F7AFFF79EFB87ED040A97ED047A11
:10238000D7ED047AB4EE677AF1EE10FA10D6D7EDF5
:10239000047AB7EE007A37EE877ADFED346AC7EE5B
:1023A000267A9FED337A77EE877A234BC3ED107A46
:1023B000FFF78EFB87ED030A97ED037AD7ED037ADB
:1023C000B4EE677AF1EE10FA2CD6D7ED037AF5EE7B
:1023D000C07AF1EE10FA03D5174B01221A770DE0FF
:1023E000D7ED037AF5EEC07AF1EE10FA03DD124B69
:1023F00003221A7702E0104B02221A770E4B1A7F43
:102400001C4B1B789A420DD00B4B1A7F194B1A703C
:10241000094B1B7F184603F089FC0346022118462E
:1024200004F00EF87B6B07EE903AB0EE670A38378F
:10243000BD4680BD143A010824070020203A010857
:10244000343A0108383A010878020020503A01086D
:10245000000080BF743A0108943A01088402002009
:102460003F358E40CDCC4C3D0AD7A33CA2450E4013
:10247000CDCCCC3D0F01002080B58AB000AF504BD1
:102480005B6A3B624F4B1A683B6AD31A07EE903A7D
:10249000F8EEE77AB0EE670AFFF7C8FAF0EE407A96
:1024A000494BC3ED007A3B6A07EE903AF8EEE77AC3
:1024B000C7ED077AFFF75AFA87ED060A424B1B6809
:1024C0007B62414BD3ED007AB1EE047AF4EEC77A29
:1024D000F1EE10FA01D8BB697B62FFF77FFAF0EEEC
:1024E000406A3A4BD3ED0F7A86EEA77AB0EE470AF0
:1024F000FFF79CFA87ED050A97ED097AD7ED057A83
:1025000027EE277AF0EE006AC7EE267AC7ED047A46
:10251000D7ED040A97ED070AFFF74AFB87ED030A98
:10252000D7ED037AF5EEC07AF1EE10FA17DD284AFE
:10253000264BB3F92E301946244BB3F930300B44F7
:10254000D7ED037A9FED237A67EE877AFDEEE77A7F
:10255000C7ED017AB98809B20B44D36323E0D7ED04
:10256000037AF5EEC07AF1EE10FA17D5184A174B38
:10257000B3F92E301946154BB3F93030CB1AD7EDDD
:10258000037A9FED147A67EE877AFDEEE77AC7ED5E
:10259000017AB98809B20B44D36304E00C4B0B4AAF
:1025A000B2F92E20DA6397ED030A05F08DFF054A94
:1025B0003B6A1360FFF7A4F900BF2837BD4680BD12
:1025C000000C00407C020020740200202407002040
:1025D0000004004000002F4480B500AF04F0B6F9BD
:1025E0000246064B1A60054B1B68054A934201D010
:1025F000002300E00023184680BD00BF88020020B1
:102600001520200080B584B000AF78600B467B8039
:1026100013463B800E4B1B68092B01D8022312E0A6
:102620003B881B04FB60F86803F092FF7B881A4626
:10263000F968786804F01CF87B881A46F9687868AD
:1026400004F0C2F8034618461037BD4680BD00BFEF
:102650008802002080B584B000AFF860B9601346EE
:10266000FB80FB881B04BA681946F86804F014F96B
:1026700000BF1037BD4680BDB0B596B000AF06F0C4
:10268000C1F900F0ABF900F0B1FC00F035FA00F050
:102690005DFA00F095FA00F0DDFA00F079FC04F044
:1026A000D7FF00F047FC00F03DFB00F07DFD05F09A
:1026B0006BFE0421B24809F06FFA01221021B148E3
:1026C00006F00AFE0821B04809F0DCF80346002BAA
:1026D00003D08E21AD4800F03FFD0C21AA4809F03F
:1026E000D1F80346002B03D09321A84800F034FD15
:1026F000FFF772FF0346002B03D09921A34800F097
:102700002BFDA34BA34A07CA03C31A70A04B4FF07B
:102710000002DA609E4BA04A1A629D4B01221A7792
:102720009B4B4FF09E429A62994B4FF04F425A6238
:10273000974B002283F82C20954BFF221A76944B5E
:10274000FF22DA75924B00229A75914BFF225A763E
:102750008F4BFF229A768E4BFF22DA768C4B8F4A74
:10276000DA638B4B8E4A5A64894B4FF07E521A645F
:10277000874B4FF07A529A64854B4FF478721A82E5
:10278000834B1E225A82824B4FF42F725A86804B03
:1027900040F2DC52DA857E4B1E221A867C4B4FF4C7
:1027A00048729A827A4B4CF250325A63784B7D4A87
:1027B0009A63774B3C22A3F84E20754B0A22A3F86C
:1027C0004C20734B0122A3F850203B1D00225421C2
:1027D0001846FFF73FFF3B1D0B2219466C480DF0D2
:1027E000C9FC0346002B11D1694B18463B1D5422EE
:1027F00019460CF009FD6C4A6C4B14461D460FCD72
:102800000FC495E8070084E8070046E03B1D04225A
:10281000194667480DF0AEFC0346002B0FD1624A03
:10282000644B14461D460FCD0FC40FCD0FC40FCD02
:102830000FC495E803002060043421802DE03B1D87
:10284000022219465C480DF095FC0346002B1CD172
:102850003B1D4F4918460DF07DFC4D4B18463B1D66
:10286000542219460CF0D0FC4F4A544B14461D46D6
:102870000FCD0FC40FCD0FC40FCD0FC42B681A4658
:10288000228002341B0C237007E0474A4C4B104651
:10289000194644231A460CF0B7FC3D4B93F82C30F4
:1028A000012B02D100F014FC01E000F035FCFFF731
:1028B000AFF805F0B1FD03464FF4007219464148E8
:1028C0000AF028FB4FF400723F49404804F06EFDC7
:1028D00006F0E4F802463E4B1B68D31A142B3BD992
:1028E00006F0DCF802463A4B1A60FEF7FBFF05F0F3
:1028F000D7F8FFF705F80346002B08D02A4B93F8CA
:102900005130002B03D120211E4806F0FFFCFFF7B9
:1029100011F80346002B08D0234B93F85130012BBC
:1029200003D12021174806F0F1FC1F4B93F85130DA
:10293000022B04D01C4B93F85130032B05D10022FD
:102940001021104806F0C8FC04E0012210210D48B7
:1029500006F0C2FCFFF790FD04F0CAFF0346002B0F
:1029600003D01C49012000F02FFE04F0E5FD0346D2
:10297000002BADD01849002000F026FEA8E700BFCC
:1029800020030020000402405C030020343B0108C7
:1029900024070020403B01080000C8420AD7233C1E
:1029A0006F12833ACDCCCC3D780700204C3B010818
:1029B000683B0108703B0108A83B0108AC3B0108DB
:1029C000E03B0108E40600208C040020DC0200202B
:1029D0001C0300209C6C00207868002080B598B013
:1029E00000AF0023BB60404A3F4B1B6C43F0805359
:1029F00013643D4B1B6C03F08053BB60BB6800232A
:102A00007B603A4A394B1B6843F480431360374B71
:102A10001B6803F480437B607B680B233B634FF4AC
:102A200080337B630123FB6310233B6401237B64BE
:102A30000223BB644FF48003FB6404233B654823FB
:102A40007B650223BB650323FB6507F13003184652
:102A500007F020FD0346002B04D040F23311244838
:102A600000F07AFB0F23FB6100233B6200237B62B3
:102A70000023BB620023FB6207F11C030021184600
:102A800007F062FF0346002B04D040F241111848C2
:102A900000F062FB0223FB604FF40073BB6107F19F
:102AA0000C03184608F030F90346002B04D04FF40D
:102AB000A4710F4800F050FB08F0D6F802460D4B09
:102AC000A3FB02239B09184606F03AF9042006F0FE
:102AD00043F9002200214FF0FF3006F0F9F800BF63
:102AE0006037BD4680BD00BF003802400070004026
:102AF000343B0108D34D621080B500AF104B114A32
:102B00001A600F4B00225A600D4B7F229A600C4BCB
:102B1000FF22DA600A4B00221A61094B00225A6137
:102B2000074B00229A61064808F0E4F90346002B9F
:102B300004D040F26511044800F00EFB00BF80BDD8
:102B40003004002000280040343B010880B500AF6D
:102B5000184B194A1A60174B4FF482725A60154B82
:102B600000229A60134B0022DA60124B00221A6195
:102B7000104B00225A610F4B00229A610D4B00222C
:102B8000DA610C4B00221A620A4B00225A62094B8E
:102B900000229A62074B0A22DA62064808F052FACB
:102BA0000346002B04D040F27B11044800F0D4FA15
:102BB00000BF80BD8C06002000300140343B01087E
:102BC00080B500AF012208211E4806F085FB1E4B90
:102BD0001E4A1A601C4B4FF482725A601A4B002234
:102BE0009A60194B0022DA60174B02221A61164BC9
:102BF00001225A61144B4FF400729A61124B082261
:102C0000DA61114B00221A620F4B00225A620E4BFE
:102C100000229A620C4B0722DA620B4808F012FA83
:102C20000346002B04D04FF4C971094800F094FA10
:102C3000054B1B68044A1268126842F040021A6091
:102C400000BF80BD0004024098030020003C00400B
:102C5000343B010880B58AB000AF2F4B2F4A1A6071
:102C60002D4B0F225A602C4B00229A602A4B44F6BF
:102C70002062DA60284B00221A61274808F0D6FD4E
:102C80000346002B04D040F2A711254800F064FA57
:102C900000233B6200237B6207F1200319461E4894
:102CA00009F0D4FF0346002B04D04FF4D7711C4821
:102CB00000F052FA60237B6040F2DC53BB600023DB
:102CC000FB6000237B6100233B610023FB61002349
:102CD000BB613B1D082219460F4809F059F903460C
:102CE000002B04D04FF4DD710D4800F035FA3B1D88
:102CF0000C221946084809F04BF90346002B04D072
:102D000040F2BF11064800F027FA034804F0BCF86F
:102D100000BF2837BD4680BD5C0300200004004092
:102D2000343B010880B58CB000AF224B224A1A60B8
:102D3000204B00225A601F4B00229A601D4B4FF01F
:102D4000FF32DA601B4B00221A610323FB60002371
:102D50003B6101237B610023BB610023FB610023F6
:102D60003B6201237B620023BB620023FB6207F10D
:102D70000C0319460F4808F079FE0346002B04D0D7
:102D800040F2DB110D4800F0E7F900237B600023DF
:102D9000BB603B1D1946074809F058FF0346002B4E
:102DA00004D04FF4F171054800F0D6F900BF303778
:102DB000BD4680BD20030020000C0040343B0108CC
:102DC00080B58CB000AF3E4B3E4A1A603C4B0F22A0
:102DD0005A603B4B00229A60394B4FF6FF72DA6023
:102DE000374B00221A61364B00225A61344808F0F2
:102DF000F1FC0346002B04D04FF4FB71324800F085
:102E0000ABF92F4808F072FD0346002B04D040F2C6
:102E1000FB112D4800F0A0F90423FB6160233B6205
:102E200002237B620023FB6207F11C03194624483E
:102E300009F074F90346002B04D04FF401712248C5
:102E400000F08AF900237B610023BB6107F11403C2
:102E500019461B4809F0FAFE0346002B04D040F245
:102E60000B21194800F078F900237B600123BB6037
:102E70000023FB6000233B613B1D082219461048DC
:102E800008F0EAFF0346002B04D040F215210E485B
:102E900000F062F902237B600223BB603B1D0C2221
:102EA0001946074808F0D8FF0346002B04D04FF41A
:102EB0000771054800F050F900BF3037BD4680BDAE
:102EC0005004002000000140343B010880B500AFF1
:102ED000144B154A1A60134B144A5A60114B4FF4A5
:102EE00080529A600F4B4FF40052DA600D4B4FF452
:102EF00080621A610B4B04225A610A4B00229A61CC
:102F0000084B4FF40042DA61064809F0F9FE034627
:102F1000002B04D040F23121054800F01DF900BF1C
:102F200080BD00BFF003002000100140A08601001A
:102F3000343B010880B500AF124B134A1A60114BA5
:102F40004FF4E1325A600F4B00229A600D4B002281
:102F5000DA600C4B00221A610A4B0C225A61094BB1
:102F600000229A61074B0022DA61064809F0C8FE88
:102F70000346002B04D040F24521044800F0ECF851
:102F800000BF80BDE406002000440040343B01083F
:102F900080B500AF124B134A1A60114B4FF4164222
:102FA0005A600F4B00229A600D4B0022DA600C4BE6
:102FB00000221A610A4B0C225A61094B00229A61C5
:102FC000074B0022DA61064809F09AFE0346002BFF
:102FD00004D040F25621044800F0BEF800BF80BD86
:102FE000DC02002000480040343B010880B58AB074
:102FF00000AF00233B61324A314B1B6B43F080032F
:1030000013632F4B1B6B03F080033B613B69002371
:10301000FB602B4A2A4B1B6B43F001031363284BC5
:103020001B6B03F00103FB60FB680023BB60244AB9
:10303000234B1B6B43F004031363214B1B6B03F007
:103040000403BB60BB6800237B601D4A1C4B1B6BE9
:1030500043F0020313631A4B1B6B03F002037B6004
:103060007B6800223821174806F036F910237B616F
:10307000154BBB610023FB6107F11403194613488C
:1030800005F094FE01237B610123BB610023FB61FA
:1030900007F1140319460D4805F088FE38237B61BB
:1030A0000123BB610023FB6100233B6207F1140392
:1030B0001946044805F07AFE00BF2837BD4680BD9A
:1030C00000380240000402400000111000080240D5
:1030D00080B500AF08210D4808F03EFC0C210B48DC
:1030E00008F03AFCFFF7F2FE02F0C2FF0346192295
:1030F0001946074809F00EFF01220121054806F094
:10310000EBF8012002F034FE00BF80BD5004002027
:10311000F00300200008024080B500AF0B4809F022
:103120003DFEFFF74DFE00220121094806F0D4F8CC
:103130000821084808F03AFC0C21064808F036FC43
:10314000002002F015FE00BF80BD00BFF00300208C
:10315000000802405004002080B582B000AF7860C3
:1031600039600D4B0D4AB2F92E20DA6302210C486A
:1031700003F0E2F80221786803F0DEF80221094842
:1031800003F0DAF83B681BB20221184603F03CF961
:1031900004F086FCFEE700BF000400402407002086
:1031A000243C0108383C010880B400AF00BFBD4694
:1031B0005DF8047B704700BF80B582B000AF034666
:1031C0000A46FB711346BB71BB791946074803F0E9
:1031D000B3F8FB79064A52F82330BA7911461846FB
:1031E00003F02EF900BF0837BD4680BDF83E010848
:1031F0001001002080B584B000AF0346FB71164B70
:103200001B7883F02003DAB2134B1A70124B1B7831
:1032100083F04F03DAB2104B1A700F4B1B7883F018
:103220004B03DAB20C4B1A700B4B1B7807F10800FA
:103230000A4A05210CF00CFFFB791946084803F0F7
:103240007BF8FA7907F108031146184603F0F8F8FD
:1032500000BF1037BD4680BD8C020020043F01082E
:103260000C3F010880B582B000AF03460A46FB71EF
:103270001346BB71BB791946074803F05DF8BA796C
:10328000FB791146184603F03BF8044AFB791370AA
:1032900000BF0837BD4680BD143F01088C020020E6
:1032A00080B584B000AF78600B46FB700023FB60F4
:1032B0000CE0FB687A6813441A780D4B1B78534076
:1032C000DAB20B4B1A70FB680133FB60FB68272BEB
:1032D00005DCFB687A6813441B78002BE9D1FB7886
:1032E0001946786803F028F800BF1037BD4680BD46
:1032F0008C02002080B582B000AF03460A46FB7105
:103300001346BB71084B1A78FB795340DAB2064B6F
:103310001A70BA79FB791146184602F0F1FF00BF26
:103320000837BD4680BD00BF8C02002090B59DB01F
:1033300002AF87ED020B0346FB7107F11400D7E9DA
:103340000234CDE90034154A50210CF081FE0023EF
:103350007B660DE007F114027B6E13441A78104B64
:103360001B785340DAB20E4B1A707B6E01337B66CA
:103370007B6E272B06DC07F114027B6E13441B784F
:10338000002BE7D1FA7907F114031146184602F031
:10339000D3FF00BF6C37BD4690BD00BF183F01088A
:1033A0008C02002090B59BB002AF87ED010A034666
:1033B000FB7078680BF0F0FB03460C4607F10C003D
:1033C000CDE90034144A50210CF042FE0023FB6585
:1033D0000DE007F10C02FB6D13441A780F4B1B78BC
:1033E0005340DAB20D4B1A70FB6D0133FB65FB6D78
:1033F000272B06DC07F10C02FB6D13441B78002B16
:10340000E7D1FA7807F10C031146184602F094FF51
:1034100000BF6437BD4690BD203F01088C020020EC
:1034200080B598B000AF03460A46FB8013467B7117
:10343000B7F9063007F10C00144A50210CF008FED1
:103440000023FB650DE007F10C02FB6D13441A78B5
:103450000F4B1B785340DAB20D4B1A70FB6D0133E2
:10346000FB65FB6D272B06DC07F10C02FB6D13449B
:103470001B78002BE7D17A7907F10C031146184627
:1034800002F05AFF00BF6037BD4680BD283F0108EB
:103490008C02002080B584B000AF03460A46FB7161
:1034A0001346BB71FB7907F10800154A03210CF0A4
:1034B000CFFD0023FB600DE007F10802FB68134419
:1034C0001A78104B1B785340DAB20E4B1A70FB6817
:1034D0000133FB60FB68022B06DC07F10802FB6886
:1034E00013441B78002BE7D1BA7907F10803114682
:1034F000184602F021FF00BF1037BD4680BD00BF57
:103500002C3F01088C02002080B598B000AF786095
:103510000B46FB7007F10C007B68154A50210CF03C
:1035200097FD0023FB650DE007F10C02FB6D1344D2
:103530001A78104B1B785340DAB20E4B1A70FB6DA1
:103540000133FB65FB6D272B06DC07F10C02FB6DDD
:1035500013441B78002BE7D1FA7807F10C031146CE
:10356000184602F0E9FE00BF6037BD4680BD00BFCF
:10357000343F01088C02002080B483B000AF0346C2
:10358000FB71FB792F2B05D9FB79392B02D8FB79FD
:10359000303B13E0FB79602B05D9FB79662B02D811
:1035A000FB79573B0AE0FB79402B05D9FB79462B89
:1035B00002D8FB79373B01E04FF0FF3318460C3758
:1035C000BD465DF8047B704780B586B000AF03460A
:1035D0003960FB710023FB820023BB8295E0FB8AEC
:1035E0005A1CFA821A463B6813441B787B747B7C16
:1035F000002B00F090804A4B1B78202B09D17B7C5C
:10360000242B02D07B7C212B7FD1454B24221A70A6
:103610007BE07B7C0A2B02D07B7C0D2B27D1BB8AE5
:10362000002B06D1FB8A013B3A68134400221A7032
:1036300004E0BB8A3A68134400221A70384B1B78A6
:103640002A2B09D1FA7CBB7C9A4205D0FB7919461A
:103650000420FFF7B1FD04E0FB793968184600F05B
:1036600063F80023FB742E4B20221A704DE07B7C04
:103670002A2B06D12A4B31221A70FB8A013BBB82CE
:1036800043E0274B1B78312B10D17B7C1846FFF78A
:1036900073FFF860FB68B3F1FF3F36D0FB68DBB225
:1036A0001B01BB741E4B32221A702EE01C4B1B7880
:1036B000322B11D17B7C1846FFF75EFFB860BB68E8
:1036C000B3F1FF3F21D0BB68DAB2BB7C1344BB74BB
:1036D000134B2A221A7018E0114B1B78242B04D1AB
:1036E000FA7C7B7C5340FB740FE00D4B1B782A2B3C
:1036F00005D1FB7919460520FFF75EFD0CE0FB794B
:1037000019460020FFF758FD06E0FB8AB3F5007F5D
:10371000FFF465AF00E000BF1837BD4680BD00BFB5
:103720004C0100200000000090B5F7B004AF024645
:1037300007F10803196007F10F031A7007F1080376
:103740001B685B7887F8BB3197F8BB31313B492B5D
:1037500001F2818601A252F823F000BFD74E000883
:10376000575400085754000857540008575400088D
:10377000575400085754000857540008575400087D
:10378000575400085754000857540008575400086D
:10379000575400085754000857540008575400085D
:1037A000A54900085754000857540008094B000861
:1037B000575400085754000857540008494500085A
:1037C000575400085754000857540008575400082D
:1037D000B5420008575400085754000857540008D1
:1037E000575400085754000857540008575400080D
:1037F00057540008575400085754000857540008FD
:1038000057540008575400085754000857540008EC
:1038100057540008575400085754000885380008CA
:103820002D470008094A000857540008954400082D
:1038300057540008B33900083F460008553C0008BB
:103840005754000857540008575400084F460008C2
:103850009141000857540008513A00085754000895
:10386000D94300085754000857540008575400081B
:10387000E73A0008013C0008F748000857540008E0
:103880001D47000807F108031B68981C07F5CE7355
:10389000043307F5CE72D6490CF030FC0346A7F886
:1038A000B831B7F9B831022B48D1D7ED677AF5EEC8
:1038B000C07AF1EE10FA38DDD7ED687AF5EEC07A0D
:1038C000F1EE10FA31DDD7ED677AB7EE007AF4EE5B
:1038D000C77AF1EE10FA28D5D7ED687AB7EE007AFC
:1038E000F4EEC77AF1EE10FA1FD5D7ED677A9FEDA7
:1038F000C17A67EE877AC04BC3ED0F7AD7ED687A4D
:103900009FEDBC7A67EE877ABB4BC3ED117A07F166
:103910000F031B7819466120FFF7A4FC07F10F0382
:103920001B781846FFF766FC40E007F10F031B7891
:1039300019460E20FFF740FC01F095BDB7F9B831EC
:10394000002B2CDC07F10F031B7819466120FFF7D1
:1039500089FCA94BD3ED0F7A9FEDA67AC7EE876A53
:1039600007F10F031B781846B0EE660AFFF71AFD41
:10397000A14BD3ED117A9FED9F7AC7EE876A07F1CD
:103980000F031B781846B0EE660AFFF70BFD07F130
:103990000F031B781846FFF72DFC01F064BD07F1FB
:1039A0000F031B7819460720FFF706FC00BF01F044
:1039B0005ABD07F108031B68023307F5CC728F4923
:1039C00018460CF09BFB0346A7F8B831B7F9B8319D
:1039D000012B22D1D7ED667AF5EEC07AF1EE10FA1E
:1039E00012DDD7F89831844A136207F10F031B7870
:1039F00019466720FFF736FC07F10F031B781846BE
:103A0000FFF7F8FB01F02FBD07F10F031B781946F4
:103A10000E20FFF7D1FB01F026BD07F10F031B7845
:103A200019466720FFF71EFC734BD3ED087A07F1A8
:103A30000F031B781846B0EE670AFFF7B3FC07F1D7
:103A40000F031B781846FFF7D5FB00BF01F00BBD35
:103A500007F10F031B7819467020FFF703FC664B34
:103A6000D3ED097AFDEEE77A07F10F031B781946CB
:103A700017EE900AFFF748FD5F4BD3ED0A7AFDEE93
:103A8000E77A07F10F031B78194617EE900AFFF744
:103A90003BFDFDF7B1FF024607F10F031B78194606
:103AA0001046FFF731FDFDF78BFFF0EE407A07F18E
:103AB0000F031B781846B0EE670AFFF773FCFDF79B
:103AC00055FFF0EE407A07F10F031B781846B0EE71
:103AD000670AFFF767FC07F10F031B781846FFF72B
:103AE00089FB01F0C0BC07F108031B68981C07F5AF
:103AF000C873043307F5C8723D490CF0FFFA03465A
:103B0000A7F8B831B7F9B831022B3ED1D7ED647AB6
:103B1000F5EEC07AF1EE10FA2EDDD7ED657AF5EE0E
:103B2000C07AF1EE10FA27DDD7ED647AB7EE007AAD
:103B3000F4EEC77AF1EE10FA1ED8D7ED657AB7EE3B
:103B4000007AF4EEC77AF1EE10FA15D5D7F8903175
:103B5000294A1364D7F89431274A936407F10F0375
:103B60001B7819467620FFF77DFB07F10F031B78C2
:103B70001846FFF73FFB38E007F10F031B781946A3
:103B80000E20FFF719FB01F06EBCB7F9B831002B1E
:103B900024DC07F10F031B7819467620FFF762FB40
:103BA000154BD3ED107A07F10F031B781846B0EED2
:103BB000670AFFF7F7FB104BD3ED127A07F10F03FB
:103BC0001B781846B0EE670AFFF7ECFB07F10F030E
:103BD0001B781846FFF70EFB01F045BC07F10F03F9
:103BE0001B7819460720FFF7E7FA00BF01F03BBC3E
:103BF0003C3F01080AD7A33C24070020443F0108AA
:103C000000225421AF48FEF7FDFCC7F8B40107F1CC
:103C10000F031B7819467720FFF724FBD7F8B43140
:103C2000002B0ED107F10F031B781946A648FFF7AA
:103C300037FB07F10F031B781846FFF7DBFA01F09B
:103C400012BC07F10F031B7819460820FFF7B4FADE
:103C500001F009BC07F108031B68981C07F5C27343
:103C6000991C07F5C27207F5C2730A33039307F56F
:103C7000C2730833029307F5C2730633019307F545
:103C8000C273043300930B4690490CF037FA034695
:103C9000A7F8B831B7F9B831002B40F31981B7F95B
:103CA0008431002B40F30481B7F98431102B00F3E9
:103CB000FF80B7F98631002B40F3FA80B7F98631DF
:103CC000102B00F3F580B7F98831002B40F3F0801A
:103CD000B7F98831102B00F3EB80B7F98421B7F9DD
:103CE00086319A4200F0E480B7F98421B7F988312F
:103CF0009A4200F0DD80B7F98621B7F988319A42FF
:103D000000F0D680B7F98431DBB2013BDAB26D4BFB
:103D10009A7507F10F031B7819466920FFF7A2FA7D
:103D2000684B9B7D9BB201339BB21AB207F10F0324
:103D30001B7819461046FFF773FBB7F9B831012B12
:103D40001FDDB7F98631002B18DDB7F98631102B4E
:103D500014DCB7F98631DBB2013BDAB2594BDA75C4
:103D6000584BDB7D9BB201339BB21AB207F10F03B4
:103D70001B7819461046FFF753FB02E0514BFF2218
:103D80005A76B7F9B831032B1FDDB7F98831002B0C
:103D900018DDB7F98831102B14DCB7F98831DBB2A4
:103DA000013BDAB2474B1A76464B1B7E9BB201337E
:103DB0009BB21AB207F10F031B7819461046FFF7A2
:103DC0002FFB02E03F4BFF225A76B7F9B831032BA5
:103DD0001FDDB7F98A31002B18DDB7F98A31102BB6
:103DE00014DCB7F98A31DBB2013BDAB2354B5A76D3
:103DF000344B5B7E9BB201339BB21AB207F10F03C7
:103E00001B7819461046FFF70BFB02E02D4BFF22F3
:103E10005A76B7F9B831042B1FDDB7F98C31002B76
:103E200018DDB7F98C31102B14DCB7F98C31DBB20B
:103E3000013BDAB2234B9A76224B9B7E9BB2013335
:103E40009BB21AB207F10F031B7819461046FFF711
:103E5000E7FA02E01B4BFF229A76B7F9B831052B3F
:103E60001FDDB7F98E31002B18DDB7F98E31102B1D
:103E700014DCB7F98E31DBB2013BDAB2114BDA76E2
:103E8000104BDB7E9BB201339BB21AB207F10F03DA
:103E90001B7819461046FFF7C3FA02E0094BFF22D0
:103EA000DA7607F10F031B781846FFF7A3F94DE107
:103EB00007F10F031B7819460E20FFF77DF901F07B
:103EC000D2BA00BF24070020483F0108683F01081C
:103ED000B7F9B831002B00F3328107F10F031B78DB
:103EE00019466920FFF7BEF99A4B9B7D9BB20133BF
:103EF0009BB21AB207F10F031B7819461046FFF761
:103F00008FFA944BDB7D9BB201339BB21AB207F15F
:103F10000F031B7819461046FFF782FA8D4B1B7E64
:103F20009BB201339BB21AB207F10F031B781946FB
:103F30001046FFF775FA874B5B7E9BB201339BB24D
:103F40001AB207F10F031B7819461046FFF768FAFB
:103F5000804B9B7E9BB201339BB21AB207F10F03D9
:103F60001B7819461046FFF75BFA7A4BDB7E9BB253
:103F700001339BB21AB207F10F031B7819461046A2
:103F8000FFF74EFA07F10F031B7819467248FFF747
:103F900087F907F10F031B7819467048FFF780F97E
:103FA00004F07CFD02466E4B5B68D31A1A4607F19B
:103FB0000F031B7819461046FFF7A6FA07F10F0307
:103FC0001B7819466748FFF76BF90023C7F8C4311F
:103FD0000023C7F8C4318DE007F10F031B781946A1
:103FE0006148FFF75DF9D7F8C4319BB201339BB24A
:103FF0001AB207F10F031B7819461046FFF710FAA3
:1040000007F10F031B7819465848FFF749F9544A3E
:10401000D7F8C431143332F813301AB207F10F0352
:104020001B7819461046FFF7FBF94A4B9B7D1A4651
:10403000D7F8C4319A4207D107F10F031B7819460C
:104040004B48FFF72DF949E0424BDB7D1A46D7F884
:10405000C4319A4207D107F10F031B78194645482E
:10406000FFF71EF93AE03B4B1B7E1A46D7F8C431E6
:104070009A4207D107F10F031B7819463E48FFF714
:104080000FF92BE0334B5B7E1A46D7F8C4319A42C6
:1040900007D107F10F031B7819463848FFF700F9DD
:1040A0001CE02C4B9B7E1A46D7F8C4319A4207D1AC
:1040B00007F10F031B7819463148FFF7F1F80DE0BF
:1040C000244BDB7E1A46D7F8C4319A4206D107F159
:1040D0000F031B7819462B48FFF7E2F807F10F038F
:1040E0001B7819461C48FFF7DBF8D7F8C4310133B9
:1040F000C7F8C431D7F8C4310F2B7FF76DAF07F184
:104100000F031B7819462048FFF7CAF81F4BDB6BDB
:104110001AB207F10F031B7819461046FFF780F912
:1041200007F10F031B7819460B48FFF7B9F807F1A1
:104130000F031B781846FFF75DF801F094B907F1FB
:104140000F031B7819460720FFF736F800BF01F070
:104150008AB900BF24070020803F0108843F01087E
:10416000D46700209C3F0108A83F0108B03F010828
:10417000B43F0108D43F0108F43F01081040010892
:104180003C4001085C400108784001080004004000
:1041900007F108031B68981C07F5BE73991C07F507
:1041A000BE7207F5BE73043300930B46D0490BF083
:1041B000A5FF0346A7F8B831B7F9B831032B3ED1B4
:1041C000B7F97C31B3F5FA7F30DDB7F97C31B3F55F
:1041D000FA6F2BDAB7F97E31002B27DDB7F97E3184
:1041E000632B23DCB7F98031B3F5967F1EDDB7F979
:1041F0008031B3F5AF6F19DA07F10F031B78194659
:104200006E20FFF72FF8B7F97C21BA4B1A82B7F965
:104210007E21B84B5A82B7F98021B64B9A8207F1BA
:104220000F031B781846FEF7E5FF40E007F10F0388
:104230001B7819460E20FEF7BFFF01F014B9B7F93D
:10424000B831002B2CDC07F10F031B7819466E20C8
:10425000FFF708F8A74BB3F9102007F10F031B78FD
:1042600019461046FFF7DCF8A24BB3F9122007F10C
:104270000F031B7819461046FFF7D2F89D4BB3F990
:10428000142007F10F031B7819461046FFF7C8F8F2
:1042900007F10F031B781846FEF7ACFF01F0E3B8F7
:1042A00007F10F031B7819460720FEF785FF00BFB3
:1042B00001F0D9B807F108031B68981C07F5BA7319
:1042C000991C07F5BA7207F5BA73043300930B46CD
:1042D00087490BF013FF0346A7F8B831B7F9B83197
:1042E000022B3ED1B7F97431B3F5FA7F30DDB7F95F
:1042F0007431B3F5FA6F2BDAB7F97631002B27DD7D
:10430000B7F97631632B23DCB7F97831B3F5967FB3
:104310001EDDB7F97831B3F5617F19DA07F10F03C4
:104320001B7819464E20FEF79DFFB7F97421714B9B
:10433000DA85B7F976216F4B1A86B7F978216D4B7C
:104340005A8607F10F031B781846FEF753FF40E02B
:1043500007F10F031B7819460E20FEF72DFF01F021
:1043600082B8B7F9B831002B2CDC07F10F031B78AA
:1043700019464E20FEF776FF5E4BB3F92E2007F16B
:104380000F031B7819461046FFF74AF8594BB3F94B
:10439000302007F10F031B7819461046FFF740F84D
:1043A000544BB3F9322007F10F031B78194610461E
:1043B000FFF736F807F10F031B781846FEF71AFFD0
:1043C00001F051B807F10F031B7819460720FEF7DB
:1043D000F3FE00BF01F047B807F108031B68023382
:1043E00007F5B972444918460BF088FE0346A7F852
:1043F000B831B7F9B831012B2CD1B7F97231012B93
:1044000008D0B7F97231B3F1FF3F03D0B7F9723179
:10441000002B16D107F10F031B7819467220FEF707
:1044200021FFB7F9723107EE903AF8EEE77A314B97
:10443000C3ED037A07F10F031B781846FEF7DAFE87
:1044400025E007F10F031B7819460A20FEF7B4FE9A
:1044500001F009B807F10F031B7819467220FEF727
:1044600001FF244BD3ED037AFDEEE77AC7ED017A25
:10447000BB881AB207F10F031B7819461046FEF7E6
:10448000CFFF07F10F031B781846FEF7B3FE00BFFE
:1044900000F0E9BF07F108031B68023307F5B672A5
:1044A000164918460BF02AFE0346A7F8B831B7F9AB
:1044B000B831012B2FD1D7F86C31B3F5FA7F21DD5C
:1044C000D7F86C310E4A93421CDC07F10F031B78BE
:1044D00019466520FEF7C6FED7F86C31054A5363CE
:1044E00007F10F031B781846FEF784FE29E000BF92
:1044F0009C40010824070020A8400108AC400108A6
:10450000A086010007F10F031B7819460E20FEF765
:1045100053FE00F0A8BF07F10F031B781946652072
:10452000FEF7A0FED14B5A6B07F10F031B7819461B
:104530001046FEF7E9FF07F10F031B781846FEF758
:1045400059FE00BF00F08FBF07F108031B6802335C
:1045500007F5B572C64918460BF0D0FD0346A7F81B
:10456000B831B7F9B831012B3AD1B7F96A31002B1C
:1045700014D107F10F031B7819464920FEF772FE8C
:10458000BA4B002283F82C20FEF7C6FD07F10F037B
:104590001B781846FEF72EFE00F065BFB7F96A31AA
:1045A000012B14D107F10F031B7819464920FEF7A0
:1045B00059FEAE4B012283F82C20FEF789FD07F14E
:1045C0000F031B781846FEF715FE00F04CBF07F1ED
:1045D0000F031B7819460E20FEF7EEFD00F043BFD7
:1045E00007F10F031B7819464920FEF73BFE9F4B4E
:1045F00093F82C301AB207F10F031B7819461046B6
:10460000FEF70EFF994B93F82C30002B07D107F1E2
:104610000F031B7819469748FEF742FE06E007F1A4
:104620000F031B7819469448FEF73AFE07F10F0373
:104630001B781846FEF7DEFD00BF00F014BF07F13F
:104640000F031B78184601F079F900F00CBF07F151
:1046500008031B68023307F5B472854918460BF04E
:104660004DFD0346A7F8B831B7F9B831012B27D172
:10467000B7F96831022B07D0B7F96831032B03D0A3
:10468000B7F96831012B12D107F10F031B781946D6
:104690006D20FEF7E7FDB7F96831DAB2734B1A7790
:1046A00007F10F031B781846FEF7A4FD33E007F16E
:1046B0000F031B7819460B20FEF77EFD00F0D3BEDA
:1046C00007F10F031B7819466D20FEF7CBFD674BF2
:1046D0001B7F1AB207F10F031B7819461046FEF72D
:1046E0009FFE07F10F031B7819466448FEF7D8FDBB
:1046F0005E4B1B7F184601F019FB024607F10F03C2
:104700001B7819461046FEF7CBFD07F10F031B7807
:104710001846FEF76FFD00BF00F0A5BE07F10F03BE
:104720001B78184601F00CFA00F09DBE07F1080353
:1047300018680BF017FD03460A2B40F2A9800223EC
:10474000A7F8C23107F58273C7F8B03104E0B7F8B3
:10475000C2310133A7F8C231B7F8C24107F10803EB
:1047600018680BF0FFFC03469C420DD2B7F8C2312B
:10477000B3F5FF7F08D8B7F8C23107F10802126815
:1047800013441B78202BE2D00023A7F8C0314AE065
:10479000B7F8C2315A1CA7F8C2211A4607F108031C
:1047A0001B6813441B781846FEF7E6FEC7F8AC01F9
:1047B000B7F8C2315A1CA7F8C2211A4607F10803FC
:1047C0001B6813441B781846FEF7D6FEC7F8A801ED
:1047D000D7F8AC31B3F1FF3F1CD0D7F8A831B3F113
:1047E000FF3F17D0D7F8AC31DBB21B01DAB2D7F8F4
:1047F000A831DBB2134487F8A731B7F8C0315A1C8F
:10480000A7F8C0211A46D7F8B031134497F8A7216A
:104810001A7008E007F10F031B7819460E20FEF707
:10482000CBFC00F020BEB7F8C24107F108031868BE
:104830000BF098FC0346013B9C4208D2B7F8C2310A
:10484000B3F5FF7F03D8B7F8C031532BA0D9B7F821
:10485000C031532B14D807F10F031B7819460E20D3
:10486000FEF7AAFC00BF00F0FEBD00BF2407002039
:10487000A8400108B0400108D0400108EC40010800
:104880009D4B184607F58273542219460AF0BCFC6A
:1048900007F10F031B7819466220FEF7E3FC07F1CE
:1048A0000F031B7819462020FEF724FD924BC7F812
:1048B000B0310023C7F8BC3111E0D7F8B021D7F8E8
:1048C000BC3113441A7807F10F031B7819461046C0
:1048D000FEF7E0FDD7F8BC310133C7F8BC31D7F89B
:1048E000BC31532BE9D907F10F031B781846FEF7AB
:1048F00081FC00F0B8BD07F108031B68023307F51F
:10490000B2727E4918460BF0F9FB0346A7F8B8319E
:10491000B7F9B831012B2BD1D7ED597AF5EEC07A22
:10492000F1EE10FA1BDDD7ED597AB7EE007AF4EE0E
:10493000C77AF1EE10FA12D8D7F864316E4A936351
:1049400007F10F031B7819467820FEF78BFC07F15F
:104950000F031B781846FEF74DFC00F084BD07F1ED
:104960000F031B7819460E20FEF726FC00F07BBDD6
:1049700007F10F031B7819467820FEF773FC5E4B96
:10498000D3ED0E7A07F10F031B781846B0EE670AD5
:10499000FEF708FD07F10F031B781846FEF72AFC07
:1049A00000F061BD07F10F031B78012B23D107F144
:1049B0000F031B7819464220FEF754FC07F10F0342
:1049C0001B7819464E48FEF76BFCFCF7F7FD0346D3
:1049D000012B07D107F10F031B781846FEF70AFCDD
:1049E00000F041BD07F10F031B7819460C20FEF7BC
:1049F000E3FB00F038BD07F10F031B7819460D20CB
:104A0000FEF7DAFB00F02FBD07F108031B68981CC6
:104A100007F5AE73991C07F5AE7207F5AE73043354
:104A200000930B4637490BF069FB0346A7F8B831F2
:104A3000B7F9B831032B32D1B7F95C31002B25DB44
:104A4000B7F95E31002B21DBB7F96031002B1DDB9C
:104A5000B7F95C21284BA3F84E20B7F95E21264B0D
:104A6000A3F84C20B7F96021234BA3F8502007F19D
:104A70000F031B7819466320FEF7F4FB07F10F03C1
:104A80001B781846FEF7B6FB00F0EDBC07F10F03EC
:104A90001B7819460E20FEF78FFB00F0E4BC07F1EF
:104AA0000F031B7819466320FEF7DCFB124BB3F9AA
:104AB0004E2007F10F031B7819461046FEF7B0FC95
:104AC0000D4BB3F94C2007F10F031B781946104624
:104AD000FEF7A6FC084BB3F9502007F10F031B7833
:104AE00019461046FEF79CFC07F10F031B78184689
:104AF000FEF780FB00F0B7BC24070020443F01080C
:104B0000F04001089C40010807F10F031B7819468B
:104B10004520FEF7A7FB07F10F031B781946D04885
:104B2000FEF7BEFBCF4B1B889BB2B2EE040A1846C1
:104B300003F07CFCF0EE407A07F10F031B78184677
:104B4000B0EE670AFEF72EFC07F10F031B7819463B
:104B5000C548FEF7A5FBC34B5B889BB2B2EE040AC7
:104B6000184603F063FCF0EE407A07F10F031B7860
:104B70001846B0EE670AFEF715FC07F10F031B7825
:104B80001946BA48FEF78CFBB64B5B689FEDAE0B3F
:104B9000184603F06DFCB0EE407AF0EE607A07F153
:104BA0000F031B781846B0EE470AF0EE670AFEF7CF
:104BB000BDFB07F10F031B781946AD48FEF770FBEC
:104BC000A84B9B689FEDA00B184603F051FCB0EE7C
:104BD000407AF0EE607A07F10F031B781846B0EECA
:104BE000470AF0EE670AFEF7A1FB07F10F031B78F7
:104BF0001946A048FEF754FB9A4B9B8A9BB29FED47
:104C00009E0A184603F012FCF0EE407A07F10F03FB
:104C10001B781846B0EE670AFEF7C4FB07F10F03D6
:104C20001B7819469548FEF73BFB8E4BD3F81630A0
:104C3000184603F03BFC024607F10F031B781946A8
:104C40001046FEF761FC07F10F031B7819468C48EC
:104C5000FEF726FB834B5B8B9BB2B2EE040A184631
:104C600003F0E4FBF0EE407A07F10F031B781846DF
:104C7000B0EE670AFEF796FB07F10F031B781946A3
:104C80008048FEF70DFB774BDB699FED710B1846F3
:104C900003F0EEFBB0EE407AF0EE607A07F10F031E
:104CA0001B781846B0EE470AF0EE670AFEF73EFBA7
:104CB00007F10F031B7819467348FEF7F1FA694BA9
:104CC0001B6A9FED630B184603F0D2FBB0EE407AEF
:104CD000F0EE607A07F10F031B781846B0EE470A32
:104CE000F0EE670AFEF722FB07F10F031B78194667
:104CF0006648FEF7D5FA5B4B5B6A9FED570B18468B
:104D000003F0B6FBB0EE407AF0EE607A07F10F03E5
:104D10001B781846B0EE470AF0EE670AFEF706FB6E
:104D200007F10F031B7819465948FEF7B9FA4D4BA6
:104D30009B6A9FED490B184603F09AFBB0EE407A50
:104D4000F0EE607A07F10F031B781846B0EE470AC1
:104D5000F0EE670AFEF7EAFA07F10F031B7819462F
:104D60004C48FEF79DFA3F4BDB6A184603F09EFB6A
:104D7000024607F10F031B7819461046FEF7C4FBE5
:104D800007F10F031B7819464348FEF789FA354BA4
:104D90001B6B184603F08AFB024607F10F031B78D2
:104DA00019461046FEF7B0FB07F10F031B781946B2
:104DB0003A48FEF775FA2B4B93F83430062B00F285
:104DC000838001A252F823F0E54D0008F54D00085C
:104DD000054E0008154E0008254E0008354E000807
:104DE000B94E000807F10F031B7819462C48FEF74F
:104DF00057FA69E007F10F031B7819462948FEF7B7
:104E00004FFA61E007F10F031B7819462648FEF7B9
:104E100047FA59E007F10F031B7819462348FEF7BC
:104E20003FFA51E007F10F031B7819462048FEF7BF
:104E300037FA49E007F10F031B7819461D48FEF7C2
:104E40002FFA41E0AFF3008000000000000059405D
:104E50000000000000002440000000000088C34063
:104E600008410108C09600201841010828410108A6
:104E7000384101084841010800007A4454410108C2
:104E80005C410108684101087C410108904101082A
:104E9000A0410108B4410108C4410108D8410108FA
:104EA000E4410108EC410108FC4101080C42010801
:104EB000184201082842010807F10F031B78194620
:104EC000CE48FEF7EDF900BF07F10F031B78184637
:104ED000FEF790F9C7E207F10F031B781946C8489F
:104EE00001F0AEFA07F10F031B781946C54801F02F
:104EF000A7FAC54B042283F85120FF2387F85B31C2
:104F000007F10F031B781946C04801F099FA02F027
:104F1000C7FD07F5827207F1640107F1140007F17C
:104F20000F031B78009342F2107300F0F1FB07F1BE
:104F30000F031A7807F1640107F11403184600F013
:104F400009FB0346002B00F0708207F10F031B786A
:104F50001946AF4801F074FA07F10F031B781846A1
:104F600001F0C0FA07F10F031B781946A94801F0B8
:104F700067FA07F10F031B781946A74801F060FA9A
:104F800007F10F031B781946A44801F059FA02F003
:104F900087FD07F1B40207F1640107F1140007F17E
:104FA0000F031B78009343F6982300F0B1FB07F141
:104FB0000F031B7807F25B1207F1640107F114007D
:104FC00000F02AFB0346002B00F02F8297F85B21AC
:104FD00007F10F031B7807F5827107F1B40000F0A9
:104FE0005FFA0346002B00F0208207F10F031B78C5
:104FF00019468B4801F0A0F997F85B319BB2013359
:105000009BB21AB207F10F031B781946104601F044
:10501000FBF997F85B21834B9A7597F85B31143352
:105020005B0007F5E472134433F8C43C1AB27D4BBD
:105030001A827C4B1E225A8297F85B311A4607F17E
:105040006403143233F81230194697F85B311A466C
:1050500007F11403143233F81230CB1ADA0F134469
:105060005B109AB26F4BB3F912309BB2D31A9BB25A
:105070001AB26C4B9A8207F10F031B7819466A48E3
:1050800001F05AF9674BB3F9102007F10F031B78B1
:105090001946104601F018F907F10F031B7819465D
:1050A000624801F049F95F4BB3F9122007F10F0391
:1050B0001B781946104601F0A7F907F10F031B787A
:1050C00019465B4801F038F9564BB3F9142007F143
:1050D0000F031B781946104601F096F907F10F03EC
:1050E0001B781946534801F0ABF907F10F031B7801
:1050F0001946514801F0A4F907F5827207F16401DD
:1051000007F1140007F10F031B78009342F21073AC
:1051100000F0FEFA07F10F031B7807F25B1207F1AC
:10512000640107F1140000F077FA0346002B18D051
:1051300007F10F031B781946394801F0FDF897F87D
:105140005B319BB201339BB21AB207F10F031B789C
:105150001946104601F058F997F85B21314BDA7582
:1051600009E007F10F031B781946344801F068F98C
:105170002C4BFF22DA7507F10F031B7819463048D4
:1051800001F05EF907F10F031B7819462D4801F075
:1051900057F907F5827207F1640107F1140007F16E
:1051A0000F031B78009342F2107300F0B1FA07F17D
:1051B0000F031B7807F25B1207F1640107F114007B
:1051C00000F02AFA0346002B3ED007F10F031B78AC
:1051D0001946134801F0B0F897F85B319BB20133E0
:1051E0009BB21AB207F10F031B781946104601F063
:1051F0000BF997F85B210B4B1A762FE03842010828
:105200004C4201087C4201087807002094420108C2
:10521000C4420108D0420108E04201082C430108C1
:10522000604301082407002088430108A0430108C7
:10523000A4430108BC430108D04301080444010809
:105240002C4401084444010807F10F031B78194658
:10525000874801F0F5F8874BFF221A7607F10F0314
:105260001B781946844801F0EBF807F10F031B780F
:105270001946824801F0E4F807F5827207F16401EB
:1052800007F1140007F10F031B78009342F210732B
:1052900000F03EFA07F10F031B7807F25B1207F1EB
:1052A000640107F1140000F0B7F90346002B18D091
:1052B00007F10F031B781946714801F03DF897F884
:1052C0005B319BB201339BB21AB207F10F031B781B
:1052D0001946104601F098F897F85B21654B5A760D
:1052E00009E007F10F031B781946614801F0A8F89F
:1052F000604BFF225A7607F10F031B78194661486D
:1053000001F09EF807F10F031B7819465E4801F083
:1053100097F807F5827207F1640107F1140007F1AD
:105320000F031B78009342F2107300F0F1F907F1BC
:105330000F031B7807F25B1207F1640107F11400F9
:1053400000F06AF90346002B18D007F10F031B7811
:1053500019464B4800F0F0FF97F85B319BB20133E0
:105360009BB21AB207F10F031B781946104601F0E1
:105370004BF897F85B213F4B9A7609E007F10F0352
:105380001B7819463A4801F05BF83A4BFF229A76AF
:1053900007F10F031B7819463C4801F051F807F15B
:1053A0000F031B7819463A4801F04AF807F5827254
:1053B00007F1640107F1140007F10F031B78009354
:1053C00042F2107300F0A4F907F10F031B7807F203
:1053D0005B1207F1640107F1140000F01DF90346A8
:1053E000002B18D007F10F031B781946244800F052
:1053F000A3FF97F85B319BB201339BB21AB207F15E
:105400000F031B781946104600F0FEFF97F85B214A
:10541000184BDA7609E007F10F031B781946144898
:1054200001F00EF8134BFF22DA7607F10F031B7819
:105430001946184801F004F807F10F031B781946C4
:10544000154800F0FDFF02F02BFB144B022283F8FD
:10545000512000BF07E007F10F031B781946062013
:10546000FDF7AAFE00BF07F5E677BD4690BD00BF79
:1054700004440108240700207C4401088C440108EE
:1054800060430108BC440108CC440108FC44010805
:105490000C450108444501085C45010878070020D7
:1054A00080B586B000AFF860B96011461A460B4669
:1054B000FB711346BB71FA79FB68143233F8122082
:1054C000F979BB68143133F81130D31A9BB2FB82DF
:1054D000BB7919461B4800F02FFFFA79FB6814329C
:1054E00033F812301BB2BA791146184600F0ECFEC0
:1054F000BB791946144800F01FFFFA79BB681432D3
:1055000033F812301BB2BA791146184600F07CFF0E
:10551000B7F9163013F1090F0ADBB7F91630092B6A
:1055200006DCBB791946094800F08AFF012305E033
:10553000BB791946064800F083FF00231846183748
:10554000BD4680BDA0450108B8450108D845010801
:10555000F445010880B586B000AFF860B960134625
:10556000FB7100237B6146E0BB687A69143233F833
:1055700012301946FB687A69143233F81230CB1AAC
:10558000C82B35DDFB7919461F4800F0D5FE7B6935
:105590009BB201339BB21BB2FA791146184600F058
:1055A00093FEFB791946194800F0C6FEFB687A693C
:1055B000143233F812301BB2FA791146184600F053
:1055C00083FEFB791946124800F0B6FEBB687A6983
:1055D000143233F812301BB2FA791146184600F033
:1055E00073FEFB7919460B4800F02AFF002306E002
:1055F0007B6901337B617B690F2BB5DD0123184685
:105600001837BD4680BD00BF5446010860460108FA
:10561000744601087846010880B586B000AFF8608E
:10562000B9607A60FB700023FB7500233B614BE09F
:10563000BB683A69143233F812301946FB683A698C
:10564000143233F81230CB1A642B3ADDFB7819464A
:10565000294800F071FE3B699BB201339BB21BB23B
:10566000FA781146184600F02FFEFB7819462348B9
:1056700000F062FEFB683A69143233F812301BB254
:10568000FA781146184600F01FFEFB7819461C48B0
:1056900000F052FEBB683A69143233F812301BB284
:1056A000FA781146184600F00FFEFB7819461548A7
:1056B00000F0C6FE3B69DAB27B681A70FB7D0133ED
:1056C000FB753B6901333B613B690F2BB0DDFB7D13
:1056D000012B01D101230AE0FB7819460A4800F0AA
:1056E000AFFEFB781946094800F0AAFE00231846D1
:1056F0001837BD4680BD00BF54460108604601080A
:1057000074460108D4460108EC4601083C470108EC
:1057100080B58AB000AFF860B9607A603B6003F092
:10572000BDF9786203F0BAF902463B6813447B6125
:1057300097F83030184600F0D5FE00233B620EE0AB
:10574000BB683A6A1432002123F81210FB683A6AE7
:105750001432002123F812103B6A01333B623B6A8A
:105760000F2BEDDD4DE003F099F902467B6AD31A69
:10577000B3F5FA7F09D903F091F9786297F83030E0
:105780001A46B968F86800F06BF80023FB6135E051
:10579000BB68FA69143233F812203049FB691433BC
:1057A00031F813309A4209D22C4AFB69143332F88B
:1057B0001310BB68FA69143223F81210FB68FA69F7
:1057C000143233F812202549FB69143331F81330B1
:1057D0009A4206D8FB68FA69143233F81230002B6B
:1057E00009D11E4AFB69143332F81310FB68FA69B9
:1057F000143223F81210FB690133FB61FB690F2B94
:10580000C6DD03F04BF902467B699A42ABD3002315
:10581000BB6117E0BB68BA69143233F8123019461D
:10582000FB68BA69143233F812300B44DA0F1344B0
:105830005B1099B27B68BA69143223F81210BB6905
:105840000133BB61BB690F2BE4DD97F8303018469C
:1058500000F048FE00BF2837BD4680BDD467002059
:1058600080B586B000AFF860B9601346FB71FB7974
:1058700019460D2000F044FD00237B614FE07B6959
:10588000002B04D0FB791946294800F055FDBB6870
:105890007A69143233F812301946FB687A69143287
:1058A00033F81230CB1AC82B04DDFB791946214896
:1058B00000F042FDFB791946232000F021FD7B69B1
:1058C0009BB201339BB21BB2FA791146184600F025
:1058D000FBFCFB7919463A2000F012FD164A7B6961
:1058E000143332F813301BB2FA791146184600F01F
:1058F000EBFCBB687A69143233F812301946FB6846
:105900007A69143233F81230CB1AC82B04DDFB79D4
:105910001946084800F010FD7B6901337B617B6903
:105920000F2BACDD02F0BCF800BF1837BD4680BDC0
:105930006C47010870470108D467002080B582B029
:1059400000AF0346FB71FB79184600F0CBFDFB79F5
:10595000184600F0C7FDFB7919465D4800F070FD60
:10596000FB7919465B4800F0E7FC5B4B1B7F184650
:1059700000F0DCF90246FB791946104600F060FDA4
:10598000FB791946554800F0D7FC534B93F82C305F
:10599000002B05D1FB791946514800F051FD04E078
:1059A000FB7919464F4800F04BFDFB7919464E48EC
:1059B00000F0C2FC00F08EF90246FB791946104651
:1059C00000F0BAFCFB79184600F08CFDFB79184614
:1059D00000F088FDFB79184600F084FDFB7918463D
:1059E00000F080FDFB791946404800F029FDFB7965
:1059F000184600F077FD02F053F8FB7919463C4851
:105A000000F01EFDFB7919463A4800F019FDFB79BC
:105A10001946394800F014FDFB791946374800F063
:105A20000FFDFB791946364800F00AFDFB7919464F
:105A3000344800F005FDFB791946334800F000FDBD
:105A4000FB791946314800F0FBFCFB7919463048D8
:105A500000F0F6FCFB7919462E4800F0F1FCFB79CA
:105A600019462D4800F0ECFCFB7919462B4800F054
:105A7000E7FC02F015F8FB791946294800F0E0FC34
:105A8000FB791946274800F0DBFCFB7919462648CC
:105A900000F0D6FCFB791946244800F0D1FCFB79D4
:105AA0001946234800F0CCFCFB791946214800F048
:105AB000C7FCFB791946204800F0C2FCFB79194667
:105AC0001E4800F0BDFC00BF0837BD4680BD00BFCA
:105AD0007807002074470108240700208447010844
