:020000040800F2
:100000000000022021B00008E1BA0008F1BA00089F
:1000100005BB000819BB00082DBB0008000000004C
:1000200000000000000000000000000041BB0008CC
:1000300051BB00080000000061BB000871BB000854
:100040008FB0000891B0000893B0000895B0000888
:1000500097B0000899B000089BB000089DB0000858
:100060009FB00008A1B00008A3B00008A5B0000828
:100070000DBC0008A9B0000821BC0008ADB0000804
:1000800035BC000849BC0008B3B00008B5B0000892
:10009000B7B00008B9B00008BBB00008BDB0000898
:1000A000BFB00008C1B00008C3B00008E5BB00083D
:1000B000C7B00008C9B00008CBB00008CDB0000838
:1000C000CFB00008D1B00008D3B00008D5B0000808
:1000D000D7B0000881BB000895BB0008A9BB000889
:1000E000DFB00008E1B00008E3B00008E5B00008A8
:1000F000E7B00008E9B00008EBB00008EDB0000878
:10010000EFB00008F1B00008F9BB0008F5B0000836
:10011000F7B00008F9B00008FBB00008FDB0000817
:10012000FFB0000801B100085DBC000805B100087F
:1001300007B1000809B100080BB100080DB10008B3
:100140000FB1000811B1000813B10008D1BB0008BD
:1001500017B1000871BC00081BB10008BDBB000846
:100160001FB1000821B1000823B1000825B1000823
:1001700027B1000829B100082BB100082DB10008F3
:100180002FB1000831B1000810B5054C237833B900
:10019000044B13B10448AFF300800123237010BD5A
:1001A0004802002000000000BCC50108084B10B543
:1001B0001BB108490848AFF300800848036803B939
:1001C00010BD074B002BFBD0BDE81040184700BF07
:1001D000000000004C020020BCC5010848020020BD
:1001E00000000000154B002B08BF134B9D46A3F5E4
:1001F000803A00218B460F461348144A121A14F015
:100200004CFE0F4B002B00D098470E4B002B00D01C
:1002100098470020002104000D000D48002802D05E
:100220000C48AFF3008014F0F7FD2000290003F024
:1002300029F914F0DDFD00BF0000080000000220D5
:1002400000000000000000004802002034CA002026
:10025000000000000000000080B584B000AF7860AE
:100260000B46FB700023FB737B681B7C002B0ED1BD
:100270004FF400730222812178680CF01BFC4FF4CC
:1002800000730222012178680CF014FC0BE040237B
:100290000222812178680CF00DFC4023022201210A
:1002A00078680CF007FC08230322822178680CF0A0
:1002B00001FC4FF4077014F0D5FD03461A467B6825
:1002C000C3F818227B68D3F81832002B02D101231F
:1002D000FB7326E07B68D3F81832BB607B68D3F8E9
:1002E0001C321B689847BB680022C3F81422BB6805
:1002F0000022C3F818227B681B7C002B09D1BB6845
:10030000D3F804224FF40073012178680CF04EFDFD
:1003100007E0BB68D3F804224023012178680CF081
:1003200045FDFB7B18461037BD4680BD80B584B0C7
:1003300000AF78600B46FB700023FB738121786867
:100340000CF0F6FB012178680CF0F2FB8221786852
:100350000CF0EEFB7B68D3F81832002B0ED07B68D4
:10036000D3F81C325B6898477B68D3F8183218467C
:1003700014F080FD7B680022C3F81822FB7B18462E
:100380001037BD4680BD00BF80B584B000AF786037
:1003900039607B68D3F81832FB603B681B7803F048
:1003A0006003002B3AD0202B00D043E03B68DB8871
:1003B000002B29D03B681B785BB2002B11DA7B68DD
:1003C000D3F81C329B683A685078F9683A68D2884A
:1003D0009847F9683B68DB881A46786801F09CF812
:1003E00029E03B685A78FB6883F800223B68DB8889
:1003F000DAB2FB6883F80122F9683B68DB881A46A9
:10040000786801F0B7F816E07B68D3F81C329B6877
:100410003A6850780022396898470CE03B685B786E
:100420000A2B01D00B2B05E001220549786801F069
:1004300073F800BF00BF002318461037BD4680BDCB
:100440006402002080B485B000AF78600B46FB707A
:100450007B68D3F81832FB607B68D3F81832002B26
:1004600005D0FB680022C3F81422002300E0022319
:1004700018461437BD465DF8047B704780B584B0DC
:1004800000AF78600B46FB707B68D3F81832FB60D6
:10049000FB78194678680CF0C3FC0246FB68C3F889
:1004A0000C227B68D3F81832002B0DD07B68D3F870
:1004B0001C32DB68FA68D2F80402FA6802F50372AB
:1004C00011469847002300E0022318461037BD4626
:1004D00080BD00BF80B584B000AF78607B68D3F882
:1004E0001832FB607B68D3F81C32002B15D0FB68F8
:1004F00093F80032FF2B10D07B68D3F81C329B6836
:10050000FA6892F80002F968FA6892F8012292B249
:100510009847FB68FF2283F8002200231846103713
:10052000BD4680BD80B483B000AF78607B68432255
:100530001A80034B18460C37BD465DF8047B7047A4
:100540008800002080B483B000AF78607B684322CD
:100550001A80034B18460C37BD465DF8047B704784
:100560004400002080B483B000AF78607B684322F1
:100570001A80034B18460C37BD465DF8047B704764
:10058000CC00002080B483B000AF78607B680A2282
:100590001A80034B18460C37BD465DF8047B704744
:1005A0000000002080B485B000AF7860396002237D
:1005B000FB733B68002B05D07B683A68C3F81C22AC
:1005C0000023FB73FB7B18461437BD465DF8047BA4
:1005D000704700BF80B487B000AFF860B9601346C1
:1005E000FB80FB68D3F818327B617B69BA68C3F87B
:1005F0000822FA887B69C3F81022002318461C37AA
:10060000BD465DF8047B704780B485B000AF78606C
:1006100039607B68D3F81832FB60FB683A68C3F82E
:100620000422002318461437BD465DF8047B70474A
:1006300080B584B000AF78607B68D3F81832FB6077
:100640007B68D3F81832002B17D0FB68D3F814322C
:10065000002B10D1FB680122C3F81422FB68D3F8E9
:100660000822FB68D3F810329BB2812178680CF025
:1006700063FB002302E0012300E002231846103749
:10068000BD4680BD80B584B000AF78607B68D3F88C
:100690001832FB607B68D3F81832002B17D07B68C8
:1006A0001B7C002B09D1FB68D3F804224FF40073A4
:1006B000012178680CF07AFB07E0FB68D3F804228C
:1006C0004023012178680CF071FB002300E0022335
:1006D00018461037BD4680BD80B584B000AFF860C5
:1006E000B9601346FB71FB68002B01D102231AE0AD
:1006F000FB68D3F81432002B03D0FB680022C3F848
:100700001422BB68002B03D0FB68BA68C3F8102220
:10071000FB68012283F8FC21FB68FA791A70F868FB
:100720000CF0DEF8002318461037BD4680BD00BF30
:1007300080B582B000AF78607B68012283F8FC212D
:100740007B68D3F814325B687A685268D2B211467B
:100750007868984778680CF07BF978680CF014F9A1
:10076000002318460837BD4680BD00BF80B485B061
:1007700000AF786039600023FB733B68002B06D024
:100780007B683A68C3F814220023FB7301E002235C
:10079000FB73FB7B18461437BD465DF8047B70473E
:1007A00080B582B000AF786078680CF01FF9002344
:1007B00018460837BD4680BD80B582B000AF78606E
:1007C0007B68D3F814325B687A685268D2B21146FB
:1007D0007868984778680CF03BF90023184608378A
:1007E000BD4680BD80B483B000AF7860002318465A
:1007F0000C37BD465DF8047B704700BF80B584B000
:1008000000AF78600B46FB700223FB737B68D3F864
:100810001432002B0CD07B68D3F814321B68FA78A2
:100820001146786898470346002B01D10023FB73DB
:10083000FB7B18461037BD4680BD00BF80B582B037
:1008400000AF78600B46FB707B68D3F814325B68AE
:10085000FA78114678689847002318460837BD464D
:1008600080BD00BF80B582B000AF786039607B6822
:1008700003F502733968184600F0A2FD7B68012277
:10088000C3F8F4217B68B3F80E321A467B68C3F8CC
:10089000F8217B6893F8083203F01F03012B0BD07B
:1008A000022B11D0002B17D17B6803F50273194678
:1008B000786800F0CFF91AE07B6803F502731946F7
:1008C000786800F017FA12E07B6803F502731946A6
:1008D000786800F043FA0AE07B6893F8083223F066
:1008E0007F03DBB2194678680CF058F900BF00238B
:1008F00018460837BD4680BD80B586B000AFF860A9
:100900000B467A60FB72FB7A002B38D1FB6803F54B
:1009100082737B61FB68D3F8F431032B42D17B698E
:100920009A687B69DB689A4214D97B699A687B690B
:10093000DB68D21A7B699A607B69DA687B699B689D
:10094000934228BF13469BB21A467968F86800F0B4
:100950002FFE27E0FB68D3F814321B69002B0AD066
:10096000FB6893F8FC31032B05D1FB68D3F81432F4
:100970001B69F8689847F86800F02CFE12E0FB68E5
:10098000D3F814329B69002B0CD0FB6893F8FC3130
:10099000032B07D1FB68D3F814329B69FA7A11460E
:1009A000F8689847002318461837BD4680BD00BF39
:1009B00080B586B000AFF8600B467A60FB72FB7AB8
:1009C000002B6CD1FB6814337B61FB68D3F8F431E6
:1009D000022B57D17B699A687B69DB689A4215D9EB
:1009E0007B699A687B69DB68D21A7B699A607B694C
:1009F0009B689BB21A467968F86800F0A9FD00234D
:100A000000220021F8680CF0D1F93BE07B695B68BB
:100A10007A69D268B3FBF2F102FB01F29B1A002B58
:100A20001CD17B695A687B69DB689A4216D37B6963
:100A30005A68FB68D3F8F8319A420FD2002200219D
:100A4000F86800F085FDFB680022C3F8F821002358
:100A500000220021F8680CF0A9F913E0FB68D3F834
:100A60001432DB68002B0AD0FB6893F8FC31032BAF
:100A700005D1FB68D3F81432DB68F8689847F8684A
:100A800000F0BCFDFB6893F80032012B1AD1F86826
:100A9000FFF7A8FEFB68002283F8002212E0FB6843
:100AA000D3F814325B69002B0CD0FB6893F8FC314F
:100AB000032B07D1FB68D3F814325B69FA7A11462D
:100AC000F8689847002318461837BD4680BD00BF18
:100AD00080B582B000AF78604023002200217868A2
:100AE0000BF0E8FF7B684022C3F81021402300226E
:100AF000802178680BF0DEFF7B6840221A627B68F9
:100B0000012283F8FC217B68D3F81832002B09D02E
:100B10007B68D3F814325B687A685268D2B21146A7
:100B200078689847002318460837BD4680BD00BF47
:100B300080B483B000AF78600B46FB707B68FA78B6
:100B40001A74002318460C37BD465DF8047B7047C5
:100B500080B483B000AF78607B6893F8FC217B6839
:100B600083F8FD217B68042283F8FC2100231846CA
:100B70000C37BD465DF8047B704700BF80B483B07E
:100B800000AF78607B6893F8FD217B6883F8FC21D7
:100B9000002318460C37BD465DF8047B704700BF44
:100BA00080B582B000AF78607B6893F8FC31032B8E
:100BB0000BD17B68D3F81432DB69002B05D07B683E
:100BC000D3F81432DB697868984700231846083751
:100BD000BD4680BD80B483B000AF78600B46FB702B
:100BE000002318460C37BD465DF8047B704700BFF4
:100BF00080B483B000AF78600B46FB7000231846CA
:100C00000C37BD465DF8047B704700BF80B483B0ED
:100C100000AF7860002318460C37BD465DF8047BB2
:100C2000704700BF80B582B000AF78607B6801225A
:100C300083F8FC217B68D3F814325B687A685268C9
:100C4000D2B2114678689847002318460837BD4647
:100C500080BD00BF80B584B000AF786039600023EC
:100C6000FB733B685B78092B39D801A252F823F05B
:100C7000C10C0008D50C0008DF0C0008CB0C0008E4
:100C8000DF0C0008A30C0008990C0008DF0C00081A
:100C9000B70C0008AD0C00083968786800F036F928
:100CA00022E03968786800F025FA1DE03968786834
:100CB00000F05EFA18E03968786800F0E1FA13E0B5
:100CC0003968786800F00EFB0EE03968786800F04B
:100CD00033FB09E03968786800F04AFB04E03968C2
:100CE000786800F0ABFB00BFFB7B18461037BD46B1
:100CF00080BD00BF80B584B000AF7860396000234C
:100D0000FB737B6893F8FC31032B1BD13B689B88FA
:100D1000DBB2012B11D87B68D3F814329B68396899
:100D2000786898473B68DB88002B10D1FB7B002B51
:100D30000DD1786800F04EFC09E03968786800F061
:100D40007DFB04E03968786800F078FB00E000BFC4
:100D5000002318461037BD4680BD00BF80B584B063
:100D600000AF786039600023FB733B689B88BB73DE
:100D70003B681B7803F06003202B08D17B68D3F815
:100D800014329B683968786898470023BAE03B685A
:100D90005B78012B39D0032B02D0002B6BD0B0E055
:100DA0007B6893F8FC31022B02D0032B0CD025E09A
:100DB000BB7B002B27D0BB7B802B24D0BB7B194671
:100DC00078680BF0EBFE1EE03B685B88002B0AD1D5
:100DD000BB7B002B07D0BB7B802B04D0BB7B194691
:100DE00078680BF0DBFE7B68D3F814329B683968B7
:100DF00078689847786800F0EDFB05E03968786816
:100E000000F01CFB00E000BF7BE07B6893F8FC3146
:100E1000022B02D0032B0CD024E0BB7B002B26D06E
:100E2000BB7B802B23D0BB7B194678680BF0B6FECA
:100E30001DE03B685B88002B1BD1BB7B03F07F036D
:100E4000002B0BD0BB7B194678680BF0DDFE7B686E
:100E5000D3F814329B68396878689847786800F04E
:100E6000B9FB06E03968786800F0E8FA02E000BFF4
:100E700047E000BF45E07B6893F8FC31022B02D0CD
:100E8000032B0BD036E0BB7B03F07F03002B36D067
:100E9000BB7B194678680BF081FE30E097F90E3085
:100EA000002B08DABB7B03F07F0301331B017A6858
:100EB0001344043307E0BB7B03F07F0310331B01B3
:100EC0007A6813440433BB60BB7B194678680BF027
:100ED000D1FE0346002B03D0BB6801221A6002E05A
:100EE000BB6800221A60BB6802221946786800F0CD
:100EF00013FB05E03968786800F0A0FA00E000BF55
:100F000000BFFB7B18461037BD4680BD80B584B05E
:100F100000AF786039603B685B881B0A9BB2013B7D
:100F2000062B00F2C98001A252F823F0490F0008F5
:100F3000610F0008A10F0008B9100008B9100008DF
:100F4000651000088B1000087B68D3F810321B680E
:100F50007A68127C07F10A0110469847F860B0E001
:100F60007B681B7C002B0DD17B68D3F814329B6A05
:100F700007F10A0210469847F860FB680133022225
:100F80001A709EE07B68D3F81432DB6A07F10A021C
:100F900010469847F860FB68013302221A7090E00F
:100FA0003B685B88DBB2052B56D801A252F823F0D0
:100FB000C90F0008E10F0008F90F00081110000820
:100FC00029100008411000087B68D3F810325B68D4
:100FD0007A68127C07F10A0110469847F86040E0F1
:100FE0007B68D3F810329B687A68127C07F10A019B
:100FF00010469847F86034E07B68D3F81032DB681D
:101000007A68127C07F10A0110469847F86028E0D8
:101010007B68D3F810321B697A68127C07F10A01E9
:1010200010469847F8601CE07B68D3F810325B6983
:101030007A68127C07F10A0110469847F86010E0C0
:101040007B68D3F810329B697A68127C07F10A0139
:1010500010469847F86004E03968786800F0EEF9C7
:1010600044E02EE07B681B7C002B09D17B68D3F821
:1010700014325B6B07F10A0210469847F86020E0D3
:101080003968786800F0DAF930E07B681B7C002B67
:101090000DD17B68D3F814321B6B07F10A0210469E
:1010A0009847F860FB68013307221A7009E0396835
:1010B000786800F0C3F919E03968786800F0BEF983
:1010C00014E07B89002B11D03B68DB88002B0DD00E
:1010D0003B68DA887B89934228BF13469BB27B81A9
:1010E0007B891A46F968786800F016FA1037BD4611
:1010F00080BD00BF80B584B000AF786039603B68C8
:101100009B88002B2CD13B68DB88002B28D13B68C7
:101110005B88DBB203F07F03FB737B6893F8FC31E1
:10112000032B04D13968786800F088F91CE07B68EB
:10113000FA7B83F8FE21FB7B194678680BF0C6FD2D
:10114000786800F047FAFB7B002B04D07B68022212
:1011500083F8FC2108E07B68012283F8FC2103E08E
:101160003968786800F06AF900BF1037BD4680BD65
:1011700080B582B000AF786039603B685B88DAB2D6
:101180003E4B1A703D4B1B78012B04D939687868A7
:1011900000F054F96FE07B6893F8FC31022B02D029
:1011A000032B23D062E0354B1B78002B1AD0334B36
:1011B0001B781A467B685A607B68032283F8FC21FF
:1011C0002E4B1B7819467868FFF718FB0346022B55
:1011D00004D13968786800F031F94CE0786800F0A3
:1011E000F9F948E0786800F0F5F944E0234B1B7802
:1011F000002B12D17B68022283F8FC211F4B1B7845
:101200001A467B685A601D4B1B7819467868FFF7B1
:1012100015FB786800F0DEF92DE0184B1B781A46B4
:101220007B685B689A421DD07B685B68DBB21946BD
:101230007868FFF703FB114B1B781A467B685A60EE
:101240000E4B1B7819467868FFF7D8FA0346022B35
:1012500004D13968786800F0F1F80CE0786800F0A3
:10126000B9F908E0786800F0B5F904E03968786801
:1012700000F0E4F800BF0837BD4680BD65020020DD
:1012800080B582B000AF786039603B68DB88012BA5
:1012900004D03968786800F0D1F81FE07B6893F8D3
:1012A000FC31022B02D0032B0BD012E07B68002212
:1012B0009A607B68083301221946786800F02CF99F
:1012C0000CE07B68043301221946786800F024F9A9
:1012D00004E03968786800F0B1F800BF00BF083753
:1012E000BD4680BD80B582B000AF786039607B6854
:1012F00093F8FC31023B012B15D87B680122DA60A0
:101300007B68D3F80432002B05D07B68DB6843F0A0
:1013100002027B68DA607B680C3302221946786827
:1013200000F0FAF804E03968786800F087F800BF48
:1013300000BF0837BD4680BD80B582B000AF786081
:1013400039603B685B88012B0DD17B680122C3F8B3
:1013500004227B68D3F814329B6839687868984710
:10136000786800F037F900BF0837BD4680BD00BF80
:1013700080B582B000AF786039607B6893F8FC314B
:10138000023B012B12D83B685B88012B13D17B6891
:101390000022C3F804227B68D3F814329B683968B2
:1013A00078689847786800F015F904E0396878683B
:1013B00000F044F800E000BF00BF0837BD4680BD24
:1013C00080B483B000AF786039603B681A787B687E
:1013D0001A703B685A787B685A703B6802331B78F6
:1013E0009AB23B6803331B789BB21B029BB2134437
:1013F0009AB27B685A803B6804331B789AB23B6888
:1014000005331B789BB21B029BB213449AB27B68D4
:101410009A803B6806331B789AB23B6807331B7887
:101420009BB21B029BB213449AB27B68DA8000BF66
:101430000C37BD465DF8047B704700BF80B582B0B5
:1014400000AF78603960802178680BF0A7FB00213D
:1014500078680BF0A3FB00BF0837BD4680BD00BF16
:1014600080B586B000AFF860B9607A600023FB7584
:10147000FB68002B33D0F86800F036F803460133E0
:101480009BB25B009AB27B681A80FB7D5A1CFA758E
:101490001A46BB6813447A681288D2B21A70FB7D70
:1014A0005A1CFA751A46BB68134403221A7012E0DC
:1014B000FB7D5A1CFA751A46BB681A44FB68591C16
:1014C000F9601B781370FB7D5A1CFA751A46BB68CD
:1014D000134400221A70FB681B78002BE8D100BF70
:1014E0001837BD4680BD00BF80B485B000AF7860BE
:1014F0000023FB7305E0FB7B0133FB737B68013347
:101500007B607B681B78002BF5D1FB7B184614377A
:10151000BD465DF8047B704780B584B000AFF860CD
:10152000B9601346FB80FB680222C3F8F421FA88F5
:10153000FB689A61FA88FB68DA61FB88BA68002167
:10154000F8680BF0F9FB002318461037BD4680BD44
:1015500080B584B000AFF860B9601346FB80FB88AB
:10156000BA680021F8680BF0E7FB00231846103733
:10157000BD4680BD80B584B000AFF860B960134649
:10158000FB80FB680322C3F8F421FA88FB68C3F8E8
:101590000821FA88FB68C3F80C21FB88BA6800218F
:1015A000F8680BF003FC002318461037BD4680BDD9
:1015B00080B584B000AFF860B9601346FB80FB884B
:1015C000BA680021F8680BF0F1FB002318461037C9
:1015D000BD4680BD80B582B000AF78607B680422D4
:1015E000C3F8F42100230022002178680BF0A4FB4B
:1015F000002318460837BD4680BD00BF80B582B0C5
:1016000000AF78607B680522C3F8F4210023002234
:10161000002178680BF0CAFB002318460837BD4646
:1016200080BD00BFB0B58CB000AF002387F8233079
:10163000764B3C1D1D460FCD0FC495E8070084E88E
:101640000700002387F82F30002387F82E303DE075
:10165000012009F0FDF801216D4808F0A3FF97F87B
:101660002F309B0007F13002134453F82C3C01212A
:10167000184608F0ABFF0121664809F073F897F8A7
:101680002F309B0007F13002134453F82C3C1846CE
:1016900000F042F90021604808F084FF07F12302BE
:1016A00007F124031146184600F0CEF807F1230293
:1016B00007F124031146184600F012F90346002BE7
:1016C00009D197F82F30013387F82F3097F82F3052
:1016D000062BBDD900E000BF97F82F30072B00F094
:1016E0008C80012009F0B4F801214C4808F05AFF21
:1016F00097F82F309B0007F13002134453F82C3C2D
:101700000121184608F062FF0121424809F02AF839
:1017100097F82F30042B26D00121414809F022F8F8
:101720000021404808F03EFF07F1230207F124039F
:101730001146184600F088F84FF4164000F0ECF817
:1017400007F1230207F124031146184600F0C8F8F8
:101750000346002B04D00121334809F003F802E0CE
:10176000012387F82E3097F82E30002B45D1012029
:1017700009F06EF801212D4808F0F4FF00212C48F3
:1017800008F010FF07F1230207F124031146184661
:1017900000F05AF807F1230207F124031146184616
:1017A00000F09EF80346002B27D00121214808F0C5
:1017B000D9FF012009F04CF801211F4808F0D2FFA1
:1017C00000211E4808F0EEFE07F1230207F1240372
:1017D0001146184600F038F807F1230207F12403F8
:1017E0001146184600F07CF80346002B05D0012175
:1017F000134808F0B7FF012304E00121114808F065
:10180000B1FF002318463037BD46B0BD249501080E
:1018100044930108749301087C93010880930108A4
:10182000B0930108E4930108F09301080C940108B7
:1018300048940108589401087C940108BC9401085C
:10184000C8940108F494010880B586B000AF7860B0
:1018500039600BF08FFE38613B6800221A701F4B15
:10186000DB8DFB8229E00AF0A5FE1C4BDB8D9BB2D1
:10187000FA8A9A4221D0194B996A184B9A8DFB8AA1
:10188000B3FBF2F002FB00F29B1A9BB20B441B78F5
:10189000FB733B681B78092B0CD83B681B781A46F6
:1018A0007B681344FA7B1A703B681B780133DAB209
:1018B0003B681A70FB8A0133FB820BF05BFE024629
:1018C0003B69D31A40F6B7329342CCD9012008F0D5
:1018D000BFFF00BF1837BD4680BD00BFE00300203A
:1018E00080B483B000AF786039603B681B78012B0F
:1018F0000AD97B681B784F2B06D17B6801331B7894
:101900004B2B01D1012300E0002318460C37BD46C4
:101910005DF8047B704700BF80B582B000AF78608F
:101920000A4B002283F86C20094A7B685360084800
:1019300010F092FB0346002B03D00121054808F06C
:1019400011FF00BF0837BD4680BD00BF880E0020D4
:10195000E00300204095010880B400AF034B1B68F2
:101960001846BD465DF8047B704700BF6802002042
:1019700080B400AF044B1B680133034A136000BFFF
:10198000BD465DF8047B70476802002080B400AF5C
:10199000094B1A68094BA3FB02131B09322101FBF7
:1019A00003F3D31A002B0CBF01230023DBB218462C
:1019B000BD465DF8047B7047680200201F85EB512F
:1019C00080B400AF0A4B19680A4BA3FB0123DA0865
:1019D00013469B0013445B00CA1A002A0CBF012364
:1019E0000023DBB21846BD465DF8047B704700BF9C
:1019F00068020020CDCCCCCC80B483B000AF0346CD
:101A00000A46FB801346BB80B7F90630B7F90420BD
:101A100093FBF2F102FB01F29B1AFB80B7F906304F
:101A2000002B04DABA88FB8813449BB200E0FB88E1
:101A300018460C37BD465DF8047B704780B584B00E
:101A400000AF584B93F86230012B06D1564BDB6A3E
:101A500018460BF04FFBF86002E0544B5B6AFB60EA
:101A6000504BD3ED037AF5EE407AF1EE10FA08D13F
:101A7000FB6807EE903AF8EEE77A4D4BC3ED1C7A1F
:101A80000CE0FB6807EE903AB8EEE77A454BD3EDF1
:101A9000037A67EE277A464BC3ED1C7AFFF75CFFAB
:101AA000B860434B93ED1C7A424BD3ED007AB4EE11
:101AB000677AF1EE10FA2AD03D4B9B6FBA68D31AC1
:101AC0007B603B4B93ED1C7A3A4BD3ED007A77EE7B
:101AD000677A374BC3ED1D7A354B93ED1D7A7B68E2
:101AE00007EE903AF8EE677AC7EE276AB0EE660A1C
:101AF00000F07EF8F0EE407A2D4BC3ED1F7A2C4AB1
:101B0000BB6893672A4B1B6F2A4A136011E0284B6E
:101B10009B6FBA68D31A192B0BD9254B4FF00002D3
:101B2000DA67234B4FF000025A67214B1B6F214AA3
:101B300013601C4B93F86230012B2FD00BF01AFD71
:101B400002461B4BD3F8BC31D31A3B60184BD3F879
:101B5000B831002B03D03B68B3F5FA7F05D9144B9D
:101B60004FF00002C3F8802018E03B68B3F5967F81
:101B700006D90F4BD3F8B83114330D4AC2F8B83137
:101B80000B4BD3F8B83107EE903AB8EE677ADFED39
:101B90000A6AC6EE877A064BC3ED207A00BF10377B
:101BA000BD4680BD040E0020E8C70020000C0040A8
:101BB000880E0020700200200000A04280B400AF18
:101BC0000A4B022283F85220084B032283F85A2042
:101BD000064B0022C3F8B821044B0022C3F8BC21F5
:101BE00000BFBD465DF8047B704700BF880E002033
:101BF00080B483B000AF87ED010AD7ED017AF5EE2E
:101C0000C07AF1EE10FA04D5D7ED017AF1EE677AD9
:101C100001E0D7ED017AB0EE670A0C37BD465DF8FA
:101C2000047B704780B500AF044BDB7D184608F09D
:101C30005BFAF0EE407AB0EE670A80BD040E002039
:101C400080B500AF044B1B7E184608F04DFAF0EE4D
:101C5000407AB0EE670A80BD040E002080B500AF68
:101C6000044B5B7E184608F0D7FAF0EE407AB0EEEF
:101C7000670A80BD040E002080B500AF044B9B7E38
:101C8000184608F0C9FAF0EE407AB0EE670A80BD57
:101C9000040E002080B500AF044BDB7E184608F030
:101CA00023FAF0EE407AB0EE670A80BD040E002001
:101CB00080B500AF054B93F85630184608F014FA7B
:101CC000F0EE407AB0EE670A80BD00BF040E00203F
:101CD00080B500AF054B93F85230184608F004FA6F
:101CE000F0EE407AB0EE670A80BD00BF040E00201F
:101CF00080B584B000AF9C4B9B7D184608F0F4F98A
:101D000087ED030A97ED037AD7ED037AB4EE677A8D
:101D1000F1EE10FA02D74FF000031EE1934B93F857
:101D20005230022B04D0914B93F85230032B2FD119
:101D3000D7ED037AF5EE407AF1EE10FA28D08B4B0E
:101D400093F85230022B20D10221894808F02AFC56
:101D5000022097ED030A08F055FC0221854808F09F
:101D600021FCD7ED037AFDEEE77AC7ED017ABB8857
:101D70001BB20221184608F0D7FB02217E4808F06A
:101D800011FC7A4B032283F852204FF00003E4E069
:101D9000764B93F85A30012B40F0DE80734B93F86A
:101DA0005230002B08D0714B032283F85A200221B5
:101DB000724808F0D7FCCFE06B4B1B7F032B08D099
:101DC0006A4B032283F85A2002216D4808F0CAFCAE
:101DD000C2E0D7ED037AF5EE407AF1EE10FA08D0C2
:101DE000624B032283F85A200221664808F0BAFCAD
:101DF000B2E0654BD3ED037A9FED647AF4EE477A57
:101E0000F1EE10FA08D1594B032283F85A2002212F
:101E10005F4808F0A7FC9FE05B4BD3ED047A9FED91
:101E20005D7AF4EE477AF1EE10FA08D14F4B0322B7
:101E300083F85A200221584808F094FC8CE04A4B61
:101E4000D3ED037AF5EE407AF1EE10FA08D1474B64
:101E5000032283F85A200221504808F083FC7BE0DB
:101E60000BF088FB0246414BDB6DD31AB3F5FA6FDA
:101E700072D23E4B93F95B30002B1DD13B4B93ED5F
:101E80001C7A414BD3ED037A37EE677A3E4BD3EDA4
:101E9000046A364BD3ED1C7A76EEE77AB4EEE77A35
:101EA000F1EE10FA04D5314B012283F85B2003E0F8
:101EB0002E4BFF2283F85B200BF05CFB02462B4B82
:101EC0001B6ED21A284BDB6F9A4203D24FF00003ED
:101ED000FB6041E0254B93F95B30012B1CD1234B78
:101EE00093ED1C7A284BD3ED047ADFED2D6A77EE63
:101EF000E67AB4EEE77AF1EE10FA03D51A4B1B6CD2
:101F0000FB6029E00BF036FB0246184B1A66174BB4
:101F1000FF2283F85B201FE0144B93ED1C7A1A4BD1
:101F2000D3ED037ADFED1E6A77EEA67AB4EEE77A98
:101F3000F1EE10FA07DD0C4BD3ED107AF1EE677A73
:101F4000C7ED037A08E00BF015FB0246074B1A6653
:101F5000064B012283F85B20FB6807EE903AB0EE57
:101F6000670A1037BD4680BD040E0020880E002091
:101F700084950108A4950108BC95010810960108F4
:101F80005496010884960108EC0D0020000000CF53
:101F9000AC9601080000004FCC960108F0960108AD
:101FA0000000304280B588B000AFFFF7A1FE87ED9A
:101FB000050ACF4BD3ED0E7AB7EE007A37EE677A8B
:101FC000D7ED057A27EE277AD7ED057A27EE277A1F
:101FD000D7ED057A27EE277AC54BD3ED0E6AD7EDFC
:101FE000057A66EEA77A77EE277AC7ED077AC14BB6
:101FF000D3ED007AB0EE670A00F052FE00F098FED2
:1020000001F018F801F05AF801F09CF801F0E8F836
:10201000B74B1B7F012B00F05B82B74B5B6E3B61C4
:10202000B44BD3ED007A97ED077A77EE677AC7ED78
:10203000037A97ED037AD7ED047AB4EEE77AF1EEFE
:1020400010FA0ADCD7ED047AB1EE677AD7ED037A9D
:10205000B4EEE77AF1EE10FA04DDA74B012283F823
:10206000562003E0A44B002283F8562097ED037A14
:10207000D7ED047AB4EEE77AF1EE10FA09DD9D4B64
:1020800093ED007AD7ED047A77EE277AC7ED077AD9
:1020900013E0D7ED047AB1EE677AD7ED037AB4EEA8
:1020A000E77AF1EE10FA08DD924B93ED007AD7ED66
:1020B000047A77EE677AC7ED077A8F4B93F8523040
:1020C000002B40F005828A4B1B7F012B00F0008221
:1020D000874B1B7F022B00F0FB81874BD3ED197AD6
:1020E00097ED077AC7EE276AB0EE660AFFF780FD24
:1020F00087ED020A804BDB6FBB617F4BD3ED1F7A0C
:10210000B2EE007AF4EEC77AF1EE10FA0CD57A4B03
:10211000D3ED207AF5EE407AF1EE10FA04D0764B4A
:10212000D3F88030BB6102E0734BDB6FBB6197ED8E
:10213000067AD7ED027A27EE277AF0EE006AC7EE2C
:10214000267AC7ED017A6D4B93ED037A6B4BD3ED95
:10215000047AB4EEE77AF1EE10FA09DD674BDB683A
:102160003B60664B1B69654AD360644A3B681361F8
:10217000D7ED077AF5EEC07AF1EE10FA40F3C2809F
:102180005D4B93ED1C7AD7ED017A37EE277A5B4BE6
:10219000D3ED046A564BD3ED207A76EEE77AB4EEAF
:1021A000E77AF1EE10FAC0F2AD8000221021544817
:1021B0000CF0DEF9504B93ED1C7A504BD3ED047AC2
:1021C000B4EEE77AF1EE10FA1CDB4A4B4FF0000256
:1021D0001A60494B93F8593083F00103DBB2002BAE
:1021E00009D00221022097ED061AD7ED010A97EDDA
:1021F000070A00F01DFB404B012283F859204FF0E5
:10220000000369E13A4BD3ED087AF5EE407AF1EE3E
:1022100010FA3BD0384B93ED1C7A354BD3ED087A4E
:10222000F7EE006A77EEA66AD7ED017A66EEA77A36
:1022300037EE277A314BD3ED047AB4EEE77AF1EE3C
:1022400010FA23DB2B4AFB6913602B4B93F85930B0
:1022500083F00103DBB2002B04D1274B93F86D30E0
:10226000002B0CD0244B93F851301946002097EDE9
:10227000061AD7ED010A97ED070A00F0D9FA1E4BAE
:10228000012283F859204FF0000325E1194B93ED0B
:10229000007AD7ED047A77EE677AC7ED077AD7ED43
:1022A000077AF5EEC07AF1EE10FA02D54FF000038E
:1022B000FB61114B93F8583083F00103DBB2002B24
:1022C00004D10D4B93F86D30002B0CD00A4B93F8D2
:1022D00051301946012097ED061AD7ED010A97ED06
:1022E000070A00F0A5FA044B012283F85820EFE01A
:1022F000040E00206C020020880E0020EC0D00204F
:1023000000040240D7ED077AF5EEC07AF1EE10FA3C
:1023100040F1B880744B93ED1C7AD7ED017A37EE1B
:10232000677A724BD3ED036A714BD3ED207A76EE68
:10233000A77AB4EEE77AF1EE10FA00F2A380002259
:1023400010216C480CF014F9674B93ED1C7A674B25
:10235000D3ED037AB4EEE77AF1EE10FA1CD8664BAF
:102360004FF000021A60604B93F8593083F001037C
:10237000DBB2002B09D002210C2097ED061AD7ED15
:10238000010A97ED070A00F053FA574B012283F830
:1023900059204FF000039FE0554BD3ED087AF5EE3E
:1023A000407AF1EE10FA3BD04F4B93ED1C7A504B34
:1023B000D3ED087AF7EE006A77EEA66AD7ED017AD8
:1023C00066EEA77A37EE677A484BD3ED037AB4EE20
:1023D000E77AF1EE10FA23D8474AFB691360424BC3
:1023E00093F8593083F00103DBB2002B04D13E4B4C
:1023F00093F86D30002B0CD03B4B93F851301946BD
:102400000A2097ED061AD7ED010A97ED070A00F0AA
:102410000FFA354B012283F859204FF000035BE09F
:10242000354B93ED007AD7ED047A77EE277AC7ED36
:10243000077AD7ED077AF5EEC07AF1EE10FA02DDF1
:102440004FF00003FB61284B93F8583083F00103F1
:10245000DBB2002B04D1244B93F86D30002B0CD051
:10246000214B93F8513019460B2097ED061AD7ED02
:10247000010A97ED070A00F0DBF91B4B012283F8F4
:10248000582025E0184B002283F85820164B0022D4
:1024900083F859200122102116480CF069F8124BDC
:1024A00093F86D30002B13D0D7ED077AF5EE407A14
:1024B000F1EE10FA0CD00C4B93F851301946632012
:1024C00097ED061AD7ED010A97ED070A00F0B0F96B
:1024D000094AFB691360FB6907EE903AB0EE670AA0
:1024E0002037BD4680BD00BF880E0020EC0D0020C7
:1024F000040E0020000402406C02002080B586B06B
:1025000000AF914BD3F8AC318F4AC2F8B4310BF025
:1025100031F802468C4BC3F8AC21FFF78FFAFFF776
:1025200041FD87ED040AD7ED047AF5EEC07AF1EEAD
:1025300010FA42DD854B1B7F012B1CD1844A834B53
:10254000B3F92E301946814BB3F930300B447F4933
:10255000B1F9321007EE901AB8EEE77AD7ED047AA7
:1025600067EE277AFDEEE77AC7ED017AB98809B2FE
:102570000B44D36370E0764A744BB3F92E3019469E
:10258000724BB3F930300B446F4991ED1A7AD7EDA5
:10259000047A27EE277A6D49B1F9321007EE901AC6
:1025A000F8EEE77A67EE277AFDEEE77AC7ED017A73
:1025B000B98809B20B44D3634EE0D7ED047AF5EE47
:1025C000C07AF1EE10FA42D5604B1B7F012B1CD173
:1025D0005F4A5E4BB3F92E3019465C4BB3F930308D
:1025E000CB1A5A49B1F9321007EE901AB8EEE77AD1
:1025F000D7ED047A67EE277AFDEEE77AC7ED017A28
:10260000B98809B20B44D36326E0514A4F4BB3F962
:102610002E3019464D4BB3F93030CB1A4A4991ED63
:102620001A7AD7ED047A27EE277A4849B1F93210A1
:1026300007EE901AF8EEE77A67EE277AFDEEE77A72
:10264000C7ED017AB98809B20B44D36304E0404B6B
:102650003E4AB2F92E20DA6397ED040A00F07CF8C6
:10266000FFF736FB87ED030AD7ED037AF5EEC07A64
:10267000F1EE10FA1CDD364A344BB3F964301946DA
:10268000324BB3F966300B443049B1F9681007EEAC
:10269000901AB8EEE77AD7ED037A67EE277AFDEE67
:1026A000E77AC7ED017AB98809B20B44136428E0D0
:1026B000D7ED037AF5EEC07AF1EE10FA1CD5244A74
:1026C000224BB3F964301946204BB3F96630CB1A6C
:1026D0001E49B1F9681007EE901AB8EEE77AD7ED07
:1026E000037A67EE277AFDEEE77AC7ED017AB988BB
:1026F00009B20B44136404E0154B144AB2F9642088
:102700001A6400237B610FE07B69DBB2184600F09E
:102710006DF8F0EE407A0F4A7B699B001344C3EDDD
:10272000007A7B6901337B617B69072BECDD09480B
:1027300007F066FA0AF01EFF0246034BC3F8B02109
:1027400000BF1837BD4680BD880E0020040E002053
:10275000000400400003002080B582B000AF87ED88
:10276000010A0B4B93F86330022B04D197ED010A59
:102770000AF0CEFC08E0064B93F86330032B03D13C
:1027800097ED010A01F040FE00BF0837BD4680BD4D
:10279000040E002080B500AF084B93F86330022B85
:1027A00002D10AF001FC06E0044B93F86330032BDE
:1027B00001D101F00BFE00BF80BD00BF040E002060
:1027C00080B500AF084B93F86330022B02D10AF0BA
:1027D00051FD06E0044B93F86330032B01D101F067
:1027E00073FF00BF80BD00BF040E002080B582B023
:1027F00000AF0346FB71FB790B4A134493F8573043
:10280000402B02D9DFED097A09E0FB79064A13442F
:1028100093F85730184607F0FFFCF0EE407AB0EE20
:10282000670A0837BD4680BD040E00200000C07F47
:1028300080B584B000AF87ED030AC7ED020A87EDCB
:10284000011A03460A46FB701346BB70FB78632BE4
:1028500040F09F80BB7819468D4807F0A3FE8D4B52
:10286000D3ED037AFDEEE77ABB78194617EE900AAE
:1028700007F0ACFEBB781946874807F093FE854BFE
:1028800093ED037A854BD3ED207A77EE277AFDEE30
:10289000E77ABB78194617EE900A07F097FEBB78E7
:1028A00019467F4807F07EFEBB7819467D4807F041
:1028B00079FE784BD3ED047AFDEEE77AB8EEE77A4D
:1028C000764BD3ED207A77EE677AFDEEE77ABB7828
:1028D000194617EE900A07F079FEBB7819466E4844
:1028E00007F060FE6B4BD3ED047AFDEEE77ABB7820
:1028F000194617EE900A07F069FEBB7819466A4838
:1029000007F050FEBB781946684807F04BFE684B4D
:10291000D3ED1C7AFDEEE77ABB78194617EE900AE4
:1029200007F054FEBB781946624807F03BFED7ED2E
:10293000027AFDEEE77ABB78194617EE900A07F0A7
:1029400045FEBB7819465C4807F02CFED7ED017AAE
:102950009FED5A7AC7EE876ABB781846B0EE660AD2
:1029600007F050FEBB781946554807F01BFED7ED1F
:10297000037A9FED547A67EE877ABB781846B0EEFB
:10298000670A07F03FFEBB7819464F4807F00AFE7A
:102990001BE1D7ED037AF5EEC07AF1EE10FA40F1C3
:1029A0009B80BB7819463A4807F0FCFD394BD3EDC4
:1029B000037AFDEEE77ABB78194617EE900A07F026
:1029C00005FEBB781946344807F0ECFD314B93ED1A
:1029D000037A324BD3ED207A77EE277AFDEEE77A51
:1029E000BB78194617EE900A07F0F0FDBB78194640
:1029F000364807F0D7FDBB781946354807F0D2FDB9
:102A00002B4B93ED1C7AD7ED027A77EE677AFDEEC9
:102A1000E77ABB78194617EE900A07F0D7FDBB7826
:102A200019462C4807F0BEFD214BD3ED1C7AFDEE74
:102A3000E77ABB78194617EE900A07F0C7FDBB7816
:102A400019461D4807F0AEFDD7ED017A9FED1B7AC0
:102A5000C7EE876ABB781846B0EE660A07F0D2FD6B
:102A6000BB781946164807F09DFDD7ED037A9FED18
:102A7000157A67EE877ABB781846B0EE670A07F0DA
:102A8000C1FDBB781946104807F08CFD9DE000BFE2
:102A9000B0970108EC0D0020B4970108040E002047
:102AA000C0970108CC970108DC970108E49701085A
:102AB000880E0020EC970108F09701080AD7A33C84
:102AC000F89701080000C8420C9801081498010802
:102AD000249801082C980108BB7819465C4807F037
:102AE00061FD5C4BD3ED047AFDEEE77AB8EEE77A50
:102AF000594BD3ED207A77EE677AFDEEE77ABB7813
:102B0000194617EE900A07F061FDBB781946534845
:102B100007F048FD4F4BD3ED047AFDEEE77ABB7822
:102B2000194617EE900A07F051FDBB7819464C483C
:102B300007F038FDBB7819464A4807F033FD4A4B89
:102B4000D3ED1C7AFDEEE77ABB78194617EE900AB2
:102B500007F03CFDBB781946444807F023FD424B83
:102B600093ED1C7AD7ED027A77EE277AFDEEE77ABD
:102B7000BB78194617EE900A07F028FDBB78194676
:102B80003B4807F00FFDD7ED017A9FED3A7AC7EE8B
:102B9000876ABB781846B0EE660A07F033FDBB784B
:102BA0001946354807F0FEFCD7ED037A9FED337ADE
:102BB00067EE877ABB781846B0EE670A07F022FD09
:102BC000BB7819462E4807F0EDFCFB78002B05D1A9
:102BD000BB7819462B4807F0C5FD34E0FB78012B84
:102BE00005D1BB781946284807F0BCFD2BE0FB78DF
:102BF000022B05D1BB781946244807F0B3FD22E02B
:102C0000FB780A2B05D1BB781946214807F0AAFDAD
:102C100019E0FB780B2B05D1BB7819461D4807F04E
:102C2000A1FD10E0FB780C2B05D1BB7819461A48A2
:102C300007F098FD07E0FB78632B04D1BB781946B9
:102C4000164807F08FFD00BF1037BD4680BD00BF9E
:102C5000CC970108EC0D0020040E0020B497010869
:102C6000DC970108E4970108880E002034980108D9
:102C7000F09701080AD7A33CF89701080000C84262
:102C80003C9801084498010860980108749801086C
:102C900088980108A8980108BC980108D4980108F0
:102CA00080B582B000AF87ED010AFEF7BBFFB0EE42
:102CB000407ADFED197AB4EEE77AF1EE10FA0DDD25
:102CC000164B93F85230002B03D00221144807F022
:102CD00049FD124B002283F8522019E00F4B93F864
:102CE0005230012B06D00F4B00221A7002210E48E1
:102CF00007F038FD094B012283F852200B4B93ED6E
:102D0000007AD7ED017A77EE277A084BC3ED007A87
:102D100000BF0837BD4680BDCDCC4C3F880E00209B
:102D2000E49801087802002000990108740200204C
:102D300080B584B000AFFEF783FF87ED030AD7EDBF
:102D4000037A9FEDAA7AF4EEC77AF1EE10FA40F317
:102D50004581A74B93F85230012B40F03F81A54BA2
:102D6000D3ED007A9FEDA17AF4EEC77AF1EE10FA76
:102D700000F234819F4BD3ED007AF4EE677AF1EEE6
:102D800010FA80F12B819C4B1B78002B0FD1984BB4
:102D90001B6F9A4AD360984B01221A7002219848FF
:102DA00007F0E0FC974B4FF000021A6016E1904BE1
:102DB0001B6F924A1361934BD3ED007AB8EE087AF9
:102DC000F4EEC77AF1EE10FA0EDD8E4BD3ED007AF9
:102DD000B0EE087AF4EEC77AF1EE10FA04D50221CB
:102DE000894807F0BFFCF9E00221884807F0BAFCE7
:102DF000874BD3ED037AF5EE407AF1EE10FA57D116
:102E00007E4B93ED037A7D4BD3ED047AB4EEE77AF3
:102E1000F1EE10FA07D57B4BD3ED007AF5EEC07AD0
:102E2000F1EE10FA12DC754B93ED037A734BD3ED90
:102E3000047AB4EEE77AF1EE10FA10DD714BD3EDBF
:102E4000007AF5EEC07AF1EE10FA08D5704B4FF02B
:102E50007E52DA6002216F4807F084FC16E06C4B6A
:102E60006D4ADA60654BD3ED037AF1EE677A634B16
:102E7000C3ED037A614BD3ED047AF1EE677A5F4BD1
:102E8000C3ED047A0221654807F06CFC0221644816
:102E900007F068FC002284215D4800F0F3F9B86077
:102EA000BB68002B68D002215E4807F05BFC63E042
:102EB000524B93ED037A514BD3ED047AB4EEE77A9B
:102EC000F1EE10FA07D54F4BD3ED007AF5EEC07A4C
:102ED000F1EE10FA12D4494B93ED037A474BD3ED40
:102EE000047AB4EEE77AF1EE10FA11DD454BD3ED3A
:102EF000007AF5EEC07AF1EE10FA09DD444BD3ED1D
:102F0000037ABFEE007AF4EE477AF1EE10FA2FD092
:102F10003A4B93ED037A394BD3ED047AB4EEE77A6A
:102F2000F1EE10FA07DD374BD3ED007AF5EEC07AFB
:102F3000F1EE10FA12D4314B93ED037A2F4BD3ED0F
:102F4000047AB4EEE77AF1EE10FA15D52D4BD3EDF5
:102F5000007AF5EEC07AF1EE10FA0DDD2C4BD3EDD0
:102F6000037AB7EE007AF4EE477AF1EE10FA03D165
:102F700002212D4807F0F6FB02212C4807F012FB36
:102F80001E4BD3ED037A0220B0EE670A07F03AFB3E
:102F90000221274807F006FB184BD3ED047A0220E4
:102FA000B0EE670A07F012FC144B93ED037A134B53
:102FB000D3ED047AB4EEE77AF1EE10FA09DD0F4BA7
:102FC000DB687B600D4B1B690C4AD3600B4A7B6846
:102FD000136103221821094800F0A8F9054AFB688B
:102FE000136000BF1037BD4680BD00BFCDCC4C3F45
:102FF000880E00207C02002078020020EC0D0020CA
:103000002499010874020020309901088899010868
:10301000040E002094990108000080BFD099010897
:103020000C9A01084C9A0108689A0108989A0108BC
:10303000A49A010880B582B000AF1D4B93F85230BE
:10304000002B03D01B4B5B6C7B6002E0194BDB6BEE
:103050007B60FEF703FE87ED000A97ED007AD7ED5F
:10306000007AB4EE677AF1EE10FA19D6D7ED007A4D
:10307000B7EE007A77EE877AF0EE006A87EEA67AEE
:10308000D7ED017ADFED0C6A77EEE67A67EE277A04
:103090009FED097A77EE877A054BC3ED197A02E046
:1030A000034A7B68536600BF0837BD4680BD00BF3A
:1030B000880E0020040E00206F12833A80B582B083
:1030C00000AF1D4B93F85230002B03D01B4B9B6C71
:1030D0007B6002E0194B1B6C7B60FEF7CDFD87ED3A
:1030E000000A97ED007AD7ED007AB4EE677AF1EE38
:1030F00010FA19D6D7ED007AB7EE007A77EE877A14
:10310000F0EE006A87EEA67AD7ED017ADFED0C6A61
:1031100077EEE67A67EE277A9FED097A77EE877A7F
:10312000054BC3ED1A7A02E0034A7B68936600BF41
:103130000837BD4680BD00BF880E0020040E002069
:10314000CDCCCC3D80B582B000AFFEF7A3FD87EDBE
:10315000010A97ED017AD7ED017AB4EE677AF1EEC4
:1031600010FA30D6D7ED017A9FED197AF4EEC77ACE
:10317000F1EE10FA03D5174B01221A770FE0D7EDC5
:10318000017A9FED157AF4EEC77AF1EE10FA03DDBD
:10319000104B03221A7702E00E4B02221A770D4BD6
:1031A0001A7F0E4B1B789A420DD00A4B1A7F0B4B9D
:1031B0001A70084B1B7F184605F0AAFF0346022130
:1031C000184607F0CFFA00BF0837BD4680BD00BFE4
:1031D0009A9999BE040E00209A99993E0F010020F9
:1031E00080B582B000AF194B93F856300F2B29D819
:1031F000FEF75EFD87ED010A97ED017AD7ED017AC2
:10320000B4EE677AF1EE10FA17D6D7ED017A9FED9A
:10321000107AF4EEC77AF1EE10FA0EDD0D4B93F84A
:103220005A30032B0ED00B4B012283F85A200AF0A0
:10323000A1F90246074BDA6504E0064B002283F849
:103240005A20FFE700BF0837BD4680BD040E0020AE
:10325000CDCC4C3F880E002080B500AF07F098FD24
:103260000246064B1A60054B1B68054A934201D083
:10327000002300E00023184680BD00BF800200202C
:103280001520200080B584B000AF78600B467B80AD
:1032900013463B800E4B1B68092B01D8022312E01A
:1032A0003B881B04FB60F86807F006FB7B881A4626
:1032B000F968786807F0BEFB7B881A46F968786879
:1032C00007F0A2FC034618461037BD4680BD00BF7C
:1032D0008002002080B584B000AF0346FB80084B1D
:1032E0001B68092B01D8022306E0FB881B04FB6046
:1032F000F86807F0E1FA034618461037BD4680BD6E
:103300008002002080B584B000AFF860B960134639
:10331000FB80FB881B04BA681946F86807F0DCFCE0
:10332000034618461037BD4680BD00BF80B582B049
:1033300000AF78600B467B8013463B80114B1B88A7
:10334000002B19D10F4B1B8801339AB20D4B1A80F9
:103350000D4A7B6813600D4A7B8813803B881B04F1
:103360000B4A13600AF006F9034603F51C531033A9
:10337000084A1360002300E0012318460837BD46C1
:1033800080BD00BF84020020880200208C02002043
:10339000900200209402002080B582B000AF324B32
:1033A0001B88002B5CD000237B602F4B1B88013BCC
:1033B000042B3FD801A252F823F000BFD1330008FC
:1033C000EB33000803340008EB3300082534000811
:1033D000264B1B68184607F083FA7860224B1B883F
:1033E00001339AB2204B1A8029E007F0BBFD034657
:1033F000002B23D11C4B1B8801339AB21A4B1A8025
:103400001CE01B4B1868194B19681A4B1B881A468D
:1034100007F028FB7860144B1B8801339AB2124BDB
:103420001A800CE00221144807F09CF90E4B002290
:103430001A8004E00C4B00221A8000E000BF7B6879
:10344000002B06D10AF096F802460C4B1B689A42F4
:1034500006D9054B00221A800221094807F082F99B
:1034600000BF0837BD4680BD8402002090020020C6
:10347000880200208C020020A89A010894020020F3
:10348000C09A0108B0B5A6B000AF0AF00DF800F080
:103490009DFA00F0E7FD00F027FB00F04FFB00F085
:1034A00087FB00F0CFFB00F045FC08F06BFE00F05E
:1034B00049FD00F075FD00F0A1FD01F0C1F9042106
:1034C000A5480DF015FD01221021A4480BF050F87D
:1034D0000821A3480DF082FB0346002B03D0912165
:1034E000A04800F043FF0C219D480DF077FB0346F8
:1034F000002B03D096219B4800F038FFFFF7ACFE6D
:103500000346002B03D09C21964800F02FFF964BDA
:10351000964A07CA03C31A70934B4FF00002DA6051
:10352000914B934A1A62904B01221A778E4B0122DB
:1035300083F82C208C4BFF221A768B4BFF22DA75F6
:10354000894B00229A75884BFF225A76864BFF22C0
:103550009A76854BFF22DA76834B864ADA63824B72
:10356000834A5A64804B4FF07E521A647E4B4FF070
:103570007A529A647C4B4FF478721A827A4B1E22EC
:103580005A82794B4FF42F725A86774B40F2DC52B5
:10359000DA85754B1E221A86734B4FF448729A8255
:1035A000714B4CF250325A636F4B714A9A636E4BB7
:1035B0003C22A3F84E206C4B0A22A3F84C206A4B05
:1035C0000122A3F85020684BFF2283F85220664B5B
:1035D000FF2283F85320644BFF2283F85420624B70
:1035E000FF2283F85520604BFF2283F856205E4B64
:1035F0004FF42F72A3F868205B4B40F2DC52A3F823
:103600006420594B0022A3F86620574B002283F810
:103610006220554B584AC3F88020534B032283F84D
:1036200063200023C7F8943014E04F4AD7F8943051
:1036300013445733FF221A704B4AD7F8943034336F
:103640005B0013444FF478729A80D7F894300133BA
:10365000C7F89430D7F89430072BE6DD424B41F29F
:103660008832DA67404B8422A3F8602007F10C030C
:10367000002284211846FFF745FE07F10C030B22B8
:103680001946394812F0ACFB0346002B13D1B7F8AA
:103690006C301A4607F10C031946334811F0F2FB5F
:1036A000364A374B14461D460FCD0FC495E8070028
:1036B00084E8070074E007F10C030422314918463E
:1036C00012F08EFB0346002B62DB07F10C03022293
:1036D0002D49184612F084FB0346002B58D1224A8C
:1036E0003B4607CA03C31A800233120C1A70B7F89C
:1036F0006C30A7F89230B7F89230002B03D0B7F8AF
:103700009230842B02D98423A7F89230B7F8922004
:1037100007F10C031946144811F0B4FB124B3A465A
:1037200007CA03C31A800233120C1A700E4B84228C
:10373000A3F86020114A154B14461D460FCD0FC447
:103740000FCD0FC40FCD0FC42B681A462280023450
:103750001B0C237024E000BF8404002000040240FE
:10376000C0040020D49A0108040E0020E09A010849
:10377000CDCCCC3D0AD7233C0000A041880E0020D0
:10378000EC9A0108089B0108109B0108149B010892
:103790007D4A7E4B1046194644231A4611F072FBAF
:1037A0007B4BD3ED087A9FED7B7AF4EEC77AF1EE8E
:1037B00010FA09DB764B93ED087ADFED776AC7EEF6
:1037C000267A734BC3ED087A032218217348FFF75A
:1037D00099FD0B227249714812F002FB0346002B3F
:1037E00011D002216F4806F0BDFF6C4B4FF09E4296
:1037F0001A616A4B4FF04F42DA60684B684A07CA59
:1038000003C31A7017E00221674806F0CBFE634B32
:10381000D3ED037A0220B0EE670A06F0F3FE022130
:10382000624806F0BFFE5D4BD3ED047A0220B0EE95
:10383000670A06F0CBFF594B18229A82544B93F833
:103840006330002B08D0524B93F86330032B03D026
:103850004F4B022283F863204D4B93F82C30012B01
:1038600002D100F071FC01E000F08AFCFEF7A6F93D
:1038700008F042FBFEF78EFF09F07CFE02464C4B3F
:103880001B68D31A142B5FD909F074FE0246484B0B
:103890001A60FEF76DF8FEF779F80346002B1CD08E
:1038A000444B93F83A30DBB2222B01D0FEF772FF83
:1038B000414B93F83A30DBB2222B01D008F01CFBCD
:1038C0003E4B93F83A30DBB2222B06D0304B93F8C4
:1038D0002C30012B01D106F0F5F8FEF757F803461E
:1038E000002B08D0284B93F85230002B03D1202115
:1038F00033480AF057FEFEF763F80346002B08D062
:10390000214B93F85230012B03D120212C480AF08F
:1039100049FE1D4B93F85230022B04D01A4B93F8FA
:103920005230032B05D10022102125480AF020FE39
:1039300004E00122102122480AF01AFEFEF7DEFD03
:1039400008F038FE08F0DCFB08F06EFD0346002BA3
:1039500003D01C49012001F08DF908F0E5FA034677
:10396000002B03D01849002001F084F9084B93F88C
:103970002C30012B03D106F00FFD06F02BFDFEF7D6
:103980001FFFFFF709FD77E7880E0020489B01081D
:10399000040E00200000C84200007A44EC0D002014
:1039A0008C9B0108989B0108CC9B0108DC9B0108BB
:1039B00020040020A8070020E00300207406002057
:1039C00000040240CC390020A833002080B598B014
:1039D00000AF0023BB60404A3F4B1B6C43F0805359
:1039E00013643D4B1B6C03F08053BB60BB6800232A
:1039F0007B603A4A394B1B6843F480431360374B72
:103A00001B6803F480437B607B680B233B634FF4AC
:103A100080337B630123FB6310233B6401237B64BE
:103A20000223BB644FF48003FB6404233B654823FB
:103A30007B650223BB650323FB6507F13003184652
:103A40000BF0B8FE0346002B04D04FF4C471244899
:103A500000F08CFC0F23FB6100233B6200237B62A0
:103A60000023BB620023FB6207F11C030021184600
:103A70000CF0E0F80346002B04D04FF4CB7118484B
:103A800000F074FC0223FB604FF40073BB6107F18C
:103A90000C0318460CF0BAFA0346002B04D040F28F
:103AA0009D110F4800F062FC0CF07CFA02460D4BB1
:103AB000A3FB02239B09184609F0B2FE042009F07B
:103AC000BBFE002200214FF0FF3009F071FE00BF65
:103AD0006037BD4680BD00BF003802400070004026
:103AE000D49A0108D34D621080B500AF104B114A33
:103AF0001A600F4B00225A600D4B7F229A600C4BCC
:103B0000FF22DA600A4B00221A61094B00225A6137
:103B1000074B00229A6106480CF05AFB0346002B23
:103B200004D04FF4DD71044800F020FC00BF80BDDC
:103B3000B406002000280040D49A010880B500AFE8
:103B4000184B194A1A60174B4FF482725A60154B82
:103B500000229A60134B0022DA60124B00221A6195
:103B6000104B00225A610F4B00229A610D4B00222C
:103B7000DA610C4B00221A620A4B00225A62094B8E
:103B800000229A62074B0A22DA6206480CF006FC11
:103B90000346002B04D04FF4E871044800F0E6FB24
:103BA00000BF80BD5007002000300140D49A0108BA
:103BB00080B500AF012208211E480AF0D9FC1E4B37
:103BC0001E4A1A601C4B4FF482725A601A4B002234
:103BD0009A60194B0022DA60174B02221A61164BC9
:103BE00001225A61144B4FF400729A61124B082261
:103BF000DA61114B00221A620F4B00225A620E4BFF
:103C000000229A620C4B0722DA620B480CF0C6FBCA
:103C10000346002B04D040F2E711094800F0A6FB50
:103C2000054B1B68044A1268126842F040021A6091
:103C300000BF80BD00040240FC040020003C0040A6
:103C4000D49A010880B58EB000AF364B364A1A6060
:103C5000344B0F225A60334B00229A60314B44F6AA
:103C60002062DA602F4B00221A612E480CF08AFF86
:103C70000346002B04D04FF4FE712C4800F076FB75
:103C800000233B6300237B6307F13003194625487B
:103C90000EF088F90346002B04D040F2032123489C
:103CA00000F064FB60237B6140F2DC53BB610023C6
:103CB000FB6100237B6200233B620023FB62002345
:103CC000BB6207F114030822194616480DF00CFBDD
:103CD0000346002B04D040F20F21144800F046FBAD
:103CE00007F114030C2219460E480DF0FDFA0346A5
:103CF000002B04D04FF405710C4800F037FB032370
:103D00003B6002237B600123BB600223FB60022334
:103D10003B613B46194606480AF094F900BF383724
:103D2000BD4680BDC004002000040040D49A0108B4
:103D30000004024080B58CB000AF224B224A1A60CA
:103D4000204B00225A601F4B00229A601D4B4FF0FF
:103D5000FF32DA601B4B00221A610323FB60002351
:103D60003B6101237B610023BB610423FB610023D2
:103D70003B6201237B620023BB620423FB6207F1E9
:103D80000C0319460F480DF01DF80346002B04D014
:103D900040F23A210D4800F0E9FA30237B6000231D
:103DA000BB603B1D194607480EF0FCF80346002B8C
:103DB00004D040F24121054800F0D8FA00BF303766
:103DC000BD4680BD84040020000C0040D49A010848
:103DD00080B58CB000AF3E4B3E4A1A603C4B0F2280
:103DE0005A603B4B00229A60394B4FF6FF72DA6003
:103DF000374B00221A61364B00225A6134480CF0CE
:103E000095FE0346002B04D04FF41571324800F0A4
:103E1000ADFA2F480CF016FF0346002B04D040F2F9
:103E200059212D4800F0A2FA0423FB6160233B6274
:103E300002237B620023FB6207F11C03194624481E
:103E40000DF018FB0346002B04D040F262212248FB
:103E500000F08CFA00237B610023BB6107F114039F
:103E600019461B480EF09EF80346002B04D040F282
:103E70006921194800F07AFA02237B600123BB60B4
:103E80000023FB6000233B613B1D082219461048BC
:103E90000DF08EF90346002B04D04FF41D710E482F
:103EA00000F064FA00237B600223BB603B1D0C2200
:103EB000194607480DF07CF90346002B04D04FF457
:103EC0001F71054800F052FA00BF3037BD4680BD73
:103ED000D406002000000140D49A010880B500AF4C
:103EE000144B154A1A60134B144A5A60114B4FF485
:103EF00080529A600F4B4FF40052DA600D4B4FF432
:103F000080621A610B4B04225A610A4B00229A61AB
:103F1000084B4FF40042DA6106480EF09DF8034664
:103F2000002B04D040F29121054800F01FFA00BF99
:103F300080BD00BF7406002000100140A086010073
:103F4000D49A010880B500AF124B134A1A60114B86
:103F50004FF4E1325A600F4B00229A600D4B002261
:103F6000DA600C4B00221A610A4B0C225A61094B91
:103F700000229A61074B0022DA6106480EF06CF8C5
:103F80000346002B04D040F2A521044800F0EEF9CE
:103F900000BF80BDA807002000440040D49A01085B
:103FA00080B500AF124B134A1A60114B4FF4164202
:103FB0005A600F4B00229A600D4B0022DA600C4BC6
:103FC00000221A610A4B0C225A61094B00229A61A5
:103FD000074B0022DA6106480EF03EF80346002B3C
:103FE00004D040F2B921044800F0C0F900BF80BD00
:103FF000E003002000480040D49A010880B500AFDB
:10400000144B154A1A60134B144A5A60114B4FF463
:1040100080529A600F4B4FF40052DA600D4B4FF410
:1040200080621A610B4B08225A610A4B00229A6186
:10403000084B4FF40042DA6106480EF00DF80346D3
:10404000002B04D040F2CE21054800F08FF900BFCC
:1040500080BD00BF1007002000140140A0860100B1
:10406000D49A010880B58AB000AF00233B61324A80
:10407000314B1B6B43F0800313632F4B1B6B03F01F
:1040800080033B613B690023FB602B4A2A4B1B6B7F
:1040900043F001031363284B1B6B03F00103FB6028
:1040A000FB680023BB60244A234B1B6B43F00403D3
:1040B0001363214B1B6B03F00403BB60BB6800233D
:1040C0007B601D4A1C4B1B6B43F0020313631A4BAE
:1040D0001B6B03F002037B607B68002238211748CA
:1040E0000AF046FA10237B61154BBB610023FB618C
:1040F00007F114031946134809F0A4FF01237B615B
:104100000123BB610023FB6107F1140319460D482D
:1041100009F098FF38237B610123BB610023FB6119
:1041200000233B6207F114031946044809F08AFF93
:1041300000BF2837BD4680BD003802400004024061
:10414000000011100008024080B500AF08210A48A5
:104150000CF0AEFD0C2108480CF0AAFDFFF7BEFEE6
:104160000122012105480AF003FA05F0ABFC012009
:1041700005F0C0FC00BF80BDD4060020000802404E
:1041800080B500AF0B480DF0B5FFFFF721FE01220F
:10419000012109480AF0ECF9082108480CF0B2FDA9
:1041A0000C2106480CF0AEFD002005F0A3FC00BF7A
:1041B00080BD00BF7406002000080240D406002025
:1041C00080B483B000AF786000BF0C37BD465DF8A7
:1041D000047B704780B483B000AF786000BF0C37B9
:1041E000BD465DF8047B704780B483B000AF786053
:1041F00000BF0C37BD465DF8047B704780B584B0C6
:1042000000AF7860FF23FB737B681B68524A9342C0
:1042100002D10123FB7316E07B681B684F4A93426F
:1042200002D10223FB730EE07B681B684C4A934269
:1042300002D10323FB7306E07B681B68494A934263
:1042400001D10623FB7397F90F30B3F1FF3F7FD005
:1042500078680EF065F90346013B0F2B6CD801A27C
:1042600052F823F0A5420008BF4200083943000875
:10427000DF42000839430008394300083943000889
:10428000FF42000839430008394300083943000859
:10429000394300083943000839430008394300080E
:1042A0001943000897F90F302F4903F1440251F8E0
:1042B000222001322C49443341F823203CE097F975
:1042C0000F20294902F14A039B000B445B68591CEB
:1042D000254802F14A039B00034459602CE097F9FA
:1042E0000F20214902F13C039B000B445B68591CE1
:1042F0001D4802F13C039B00034459601CE097F900
:104300000F30194903F1520251F8222001321649A7
:10431000523341F823200FE097F90F20124902F1A0
:1043200058039B000B445B68591C0F4802F158036B
:104330009B000344596000BF97F90F300A4903F10D
:10434000360251F8222001320749363341F8232042
:1043500000BF1037BD4680BD001001400044004042
:104360000048004000140140880E002080B584B051
:1043700000AF78603960124B124AB2F92E20DA632E
:1043800009F0F8F8F86009F0F5F80246FB68D31A6E
:10439000B3F57A7FF4D93B681BB20121184606F0C9
:1043A000C3F80121786806F0DDF908F003F909F097
:1043B000E1F8F860202104480AF0F4F8E0E700BFD3
:1043C00000040040040E00200004024080B500AF4D
:1043D000094B002283F8C0214FF4007207490848B6
:1043E0000DF018FF0346002B03D024210548FFF7EA
:1043F000BDFF00BF80BD00BF880E0020E807002081
:10440000A8070020EC9B010880B586B000AF87EDBF
:10441000010A644B93F8C031052B00F2BE8001A263
:1044200052F823F03D4400085F440008814400082E
:10443000A1440008BF44000817450008012000F00F
:10444000D5F80346002B00F09F80574B1B78312B8B
:1044500040F09A80534B012283F8C02194E002205F
:1044600000F0C4F80346002B00F090804E4B1B7800
:10447000312B40F08B804B4B022283F8C02185E02A
:10448000032000F0B3F80346002B00F08180464B78
:104490001B78382B7CD1434B032283F8C02177E073
:1044A000042000F0A3F80346002B73D03E4B1B788A
:1044B000322B6FD13B4B042283F8C0216AE00520E8
:1044C00000F094F80346002B66D007F10C031A465F
:1044D0003649354811F050FC03467B827B8A012B1C
:1044E00014D1334B5B6B07EE903AB8EEE77AD7ED19
:1044F000037AB4EEE77AF1EE10FA07DDD7ED037A2E
:10450000FDEEE77A17EE902A294B5A63254B0522D8
:1045100083F8C02140E097ED017AD7ED017AB4EE3F
:10452000677AF1EE10FA03D7002000F043F834E088
:104530001F4B1B7F012B0FD11D4B5B6B07EE903A7E
:10454000B8EEE77AD7ED017A67EE277AFDEEE77AE3
:1045500017EE903A7B6113E0124B93ED1A7AD7ED88
:10456000017A27EE277A124B5B6B07EE903AF8EE52
:10457000E77A67EE277AFDEEE77A17EE903A7B61ED
:10458000786900F017F808E000BF06E000BF04E01B
:1045900000BF02E000BF00E000BF00BF1837BD460B
:1045A00080BD00BF880E0020E8090020FC9B0108A8
:1045B000040E002080B58EB000AF786007F10C00CB
:1045C0007B68094A282111F081FB03467B637B6BE2
:1045D000002B05D007F10C03796B184600F002F9A7
:1045E00000BF3837BD4680BD009C010880B582B051
:1045F00000AF0346FB7108F0BDFF02462A4B1B6863
:1046000003F57A739A4202D9284B00221A70274B7D
:104610001B78002B33D1254AFB79137008F0AAFFD1
:104620000246214B1A60224B00221A70FB79013B93
:10463000042B21D801A252F823F000BF51460008F4
:10464000594600086146000869460008714600089E
:10465000184800F0E1F810E0174800F0DDF80CE031
:10466000164800F0D9F808E0154800F0D5F804E045
:10467000144800F0D1F800E000BF002310E00C4B1C
:104680001B78FA799A4204D1084B00221A70012350
:1046900006E0074B1B78002B01D0002300E000232D
:1046A00018460837BD4680BDE80D0020980200205E
:1046B000990200200C9C01082C9C0108489C0108D0
:1046C000609C0108889C010880B584B000AF3C4B19
:1046D0009A8D3B4B5B6B1B685B689BB2D31AFB816B
:1046E00008F048FFB860374B1B88FA899A4206D019
:1046F000354ABB681360334AFB8913805BE0324B59
:104700001B685A1DBB689A4255D8304B1B88FA89E2
:104710009A4250D02E4BD3F88C3001332C4AC2F839
:104720008C302A4B1B88FA89D31A9BB21AB2244BBD
:104730009B8D1BB219461046FDF75EF90346FB80C0
:10474000FB88234AC2F88831204B1B88FA899A4299
:104750000AD91E4B1B881A461E4B1344FA88194669
:104760001D4810F08FFB1BE0184B1B881A46194B95
:10477000D118134B9B8D1A46144B1B88D31A1A461B
:10478000154810F07FFB0E4B9B8D1A460F4B1B8874
:10479000D31A114A1344FA890E49184610F072FBD5
:1047A000FB880D4A0021D1540C4B1A780C4B1A701F
:1047B000064AFB891380002318461037BD4680BD8A
:1047C000A80700209A020020A00200209C020020DE
:1047D000880E0020E8070020E80900209802002049
:1047E0009902002080B582B000AF786039603A68E5
:1047F0007968074810F046FB3B689BB21A460449AB
:1048000004480DF09BFC00BF0837BD4680BD00BFCB
:10481000E80B0020A807002080B582B000AF7860C8
:10482000786811F0D5FA03469BB21A4679680348B6
:104830000DF084FC00BF0837BD4680BDA8070020EE
:1048400080B400AF064B002283F86D20044B002299
:1048500083F86C2000BFBD465DF8047B704700BF45
:10486000880E002080B582B000AF03460A46FB7177
:104870001346BB71BB791946074805F093FEFB79D7
:10488000064A52F82330BA791146184605F06AFFF5
:1048900000BF0837BD4680BDC09E01081001002042
:1048A00080B584B000AF0346FB71164B1B7883F0D4
:1048B0002003DAB2134B1A70124B1B7883F04F03AC
:1048C000DAB2104B1A700F4B1B7883F04B03DAB23D
:1048D0000C4B1A700B4B1B7807F108000A4A052194
:1048E00011F0F4F9FB791946084805F05BFEFA79F6
:1048F00007F108031146184605F034FF00BF1037D2
:10490000BD4680BDA4020020CC9E0108D49E0108B3
:1049100080B582B000AF03460A46FB711346BB71F7
:10492000BB791946074805F03DFEBA79FB79114677
:10493000184605F019FE044AFB79137000BF0837CA
:10494000BD4680BDDC9E0108A402002080B584B075
:1049500000AF78600B46FB700023FB600CE0FB6847
:104960007A6813441A780D4B1B785340DAB20B4B1C
:104970001A70FB680133FB60FB68272B05DCFB68C2
:104980007A6813441B78002BE9D1FB7819467868C4
:1049900005F008FE00BF1037BD4680BDA402002010
:1049A00080B582B000AF03460A46FB711346BB7167
:1049B000084B1A78FB795340DAB2064B1A70BA7971
:1049C000FB791146184605F0CFFD00BF0837BD46FC
:1049D00080BD00BFA402002090B59DB002AF87ED5E
:1049E000020B0346FB7107F11400D7E90234CDE94D
:1049F0000034154A502111F069F900237B660DE05F
:104A000007F114027B6E13441A78104B1B78534045
:104A1000DAB20E4B1A707B6E01337B667B6E272BEE
:104A200006DC07F114027B6E13441B78002BE7D1E0
:104A3000FA7907F114031146184605F0B3FD00BFDB
:104A40006C37BD4690BD00BFE09E0108A402002067
:104A500090B59BB002AF87ED010A0346FB70786802
:104A60000FF04CFD03460C4607F10C00CDE9003475
:104A7000144A502111F02AF90023FB650DE007F1DB
:104A80000C02FB6D13441A780F4B1B785340DAB2BB
:104A90000D4B1A70FB6D0133FB65FB6D272B06DC9C
:104AA00007F10C02FB6D13441B78002BE7D1FA7859
:104AB00007F10C031146184605F074FD00BF64377A
:104AC000BD4690BDE89E0108A402002080B598B0C4
:104AD00000AF03460A46FB8013467B71B7F90630E8
:104AE00007F10C00144A502111F0F0F80023FB6587
:104AF0000DE007F10C02FB6D13441A780F4B1B7885
:104B00005340DAB20D4B1A70FB6D0133FB65FB6D40
:104B1000272B06DC07F10C02FB6D13441B78002BDE
:104B2000E7D17A7907F10C031146184605F03AFDF2
:104B300000BF6037BD4680BDF09E0108A402002082
:104B400080B584B000AF03460A46FB711346BB71C3
:104B5000FB7907F10800154A032111F0B7F800238B
:104B6000FB600DE007F10802FB6813441A78104B54
:104B70001B785340DAB20E4B1A70FB680133FB60AE
:104B8000FB68022B06DC07F10802FB6813441B7864
:104B9000002BE7D1BA7907F108031146184605F052
:104BA00001FD00BF1037BD4680BD00BFF49E010867
:104BB000A402002080B598B000AF78600B46FB706F
:104BC00007F10C007B68154A502111F07FF8002393
:104BD000FB650DE007F10C02FB6D13441A78104BD6
:104BE0001B785340DAB20E4B1A70FB6D0133FB6534
:104BF000FB6D272B06DC07F10C02FB6D13441B78C1
:104C0000002BE7D1FA7807F10C031146184605F09E
:104C1000C9FC00BF6037BD4680BD00BFFC9E0108D7
:104C2000A402002080B483B000AF0346FB71FB797F
:104C30002F2B05D9FB79392B02D8FB79303B13E0B8
:104C4000FB79602B05D9FB79662B02D8FB79573BA2
:104C50000AE0FB79402B05D9FB79462B02D8FB797A
:104C6000373B01E04FF0FF3318460C37BD465DF887
:104C7000047B704780B586B000AF03463960FB7196
:104C80000023FB820023BB8295E0FB8A5A1CFA8238
:104C90001A463B6813441B787B747B7C002B00F026
:104CA00090804A4B1B78202B09D17B7C242B02D08F
:104CB0007B7C212B7FD1454B24221A707BE07B7CAF
:104CC0000A2B02D07B7C0D2B27D1BB8A002B06D16F
:104CD000FB8A013B3A68134400221A7004E0BB8A45
:104CE0003A68134400221A70384B1B782A2B09D1DA
:104CF000FA7CBB7C9A4205D0FB7919460420FFF769
:104D0000B1FD04E0FB793968184600F061F8002332
:104D1000FB742E4B20221A704DE07B7C2A2B06D18F
:104D20002A4B31221A70FB8A013BBB8243E0274B9E
:104D30001B78312B10D17B7C1846FFF773FFF8608E
:104D4000FB68B3F1FF3F36D0FB68DBB21B01BB74DD
:104D50001E4B32221A702EE01C4B1B78322B11D1C5
:104D60007B7C1846FFF75EFFB860BB68B3F1FF3F7E
:104D700021D0BB68DAB2BB7C1344BB74134B2A222C
:104D80001A7018E0114B1B78242B04D1FA7C7B7C21
:104D90005340FB740FE00D4B1B782A2B05D1FB7998
:104DA00019460520FFF75EFD0CE0FB79194600204F
:104DB000FFF758FD06E0FB8AB3F5007FFFF465AF0F
:104DC00000E000BF1837BD4680BD00BF4C01002089
:104DD00090B5ADF58F5D83B006AF024607F11003C5
:104DE000083B196007F11003013B1A7007F110032B
:104DF000083B1B685B7807F58D5202F117021370B0
:104E000007F58D5303F117031B78313B472B03F252
:104E1000AD8301A252F823F0F57000086D850008FB
:104E20006D8500086D8500086D8500086D8500089A
:104E30006D8500086D8500086D8500086D8500088A
:104E40006D8500086D8500086D8500086D8500087A
:104E50006D8500086D850008BD5C00082F6A00089C
:104E600081840008577A0008B16B00086D8500083E
:104E70004B780008BD770008836000086D85000846
:104E80006D8500086D8500086D850008475B00088A
:104E90006D850008058100086D850008B781000850
:104EA000C36200086D8500086D8500085583000801
:104EB000FB5500086D8500086D8500089982000883
:104EC0006D8500086D8500086D8500086D850008FA
:104ED000858300086D850008394F0008A366000827
:104EE0009F6A0008096300084D5F00086D8500088F
:104EF000E3500008976100085D560008737C0008C5
:104F00006D8500086D850008A9610008C159000879
:104F100099830008EB5100086D850008495E000880
:104F20006D8500086D8500086D8500080B5400082C
:104F3000715500083769000807F11003083B1B682A
:104F4000981C07F58C5303F11403043307F58C52B6
:104F500002F11402CE4910F00FFF034607F58D52FF
:104F600002F11402138007F58D5303F11403B3F912
:104F70000030022B58D107F58C5303F11403D3ED05
:104F8000007A9FEDC47AF4EEC77AF1EE10FA41DBB5
:104F900007F58C5303F11803D3ED007A9FEDBD7A2A
:104FA000F4EEC77AF1EE10FA34DB07F58C5303F117
:104FB0001403D3ED007AB7EE007AF4EEC77AF1EE7F
:104FC00010FA27D807F58C5303F11803D3ED007AB4
:104FD000B7EE007AF4EEC77AF1EE10FA1AD807F5B8
:104FE0008C5303F11403D3ED007A9FEDAB7A67EE97
:104FF000877AAA4BC3ED0F7A07F58C5303F1180398
:10500000D3ED007A9FEDA47A67EE877AA34BC3EDC8
:10501000117A1DE007F11003013B1B7819460E20A1
:10502000FFF720FC03F0ABBA07F58D5303F114032F
:10503000B3F90030B3F1FF3F0AD007F11003013B91
:105040001B7819460720FFF70DFC00BF03F097BA45
:1050500007F11003013B1B7819466120FFF758FC4C
:105060008E4BD3ED0F7A9FED8C7AC7EE876A07F1EE
:105070001003013B1B781846B0EE660AFFF7E8FC08
:10508000864BD3ED117A9FED847AC7EE876A07F1DC
:105090001003013B1B781846B0EE660AFFF7D8FCF8
:1050A00007F11003013B1B781846FFF7F9FB07F1E6
:1050B0001003013B1B781946794805F073FA794BC8
:1050C000D3ED197A9FED747AC7EE876A07F1100362
:1050D000013B1B781846B0EE660A05F077FB03F03B
:1050E0004EBA07F11003083B1B68023307F58C52D8
:1050F00002F110026C49184610F03EFE034607F517
:105100008D5202F11402138007F58D5303F114033D
:10511000B3F90030012B37D107F58C5303F110039D
:10512000D3ED007A9FED617AF4EEC77AF1EE10FAD2
:105130000DDB07F58C5303F1100393ED007ADFEDDF
:105140005B6AC7EE267A554BC3ED087A30E007F567
:105150008C5303F11003D3ED007AF5EEC07AF1EE33
:1051600010FA07DD07F58C5303F110031B684B4A57
:1051700013621DE007F11003013B1B7819460E2056
:10518000FFF770FB03F0FBB907F58D5303F1140330
:10519000B3F90030B3F1FF3F0AD007F11003013B30
:1051A0001B7819460720FFF75DFB00BF03F0E7B946
:1051B00007F11003013B1B7819466720FFF7A8FB96
:1051C000364BD3ED087A07F11003013B1B781846E4
:1051D000B0EE670AFFF73CFC07F11003013B1B78B8
:1051E0001846FFF75DFB03F0CAB907F11003083B4F
:1051F0001B68981C07F58C5303F10803043307F56B
:105200008C5202F108022A4910F0B6FD034607F558
:105210008D5202F11402138007F58D5303F114032C
:10522000B3F90030022B40F0838007F58C5303F173
:1052300008031A6807F58C5303F10C031B689A42A4
:105240003ADA07F58C5303F10C031A6807F58C530F
:1052500003F108031B68D31AC82B2DDD07F58C5307
:1052600003F108031B6807EE903AF8EEE77A114B5A
:10527000C3ED037A07F58C5303F10C031B6807EEAB
:10528000903AF8EEE77A0B4BC3ED047A64E000BF86
:10529000049F01086F12833A0AD7A33C040E002032
:1052A0000C9F0108880E00201C9F01080000C842C6
:1052B000209F0108EC0D002007F58C5303F10C032F
:1052C0001A6807F58C5303F108031B689A4225DA24
:1052D00007F58C5303F108031A6807F58C5303F1A3
:1052E0000C031B68D31AC82B18DD07F58C5303F188
:1052F0000C031B6807EE903AF8EEE77ACE4BC3ED4D
:10530000037A07F58C5303F108031B6807EE903A04
:10531000F8EEE77AC84BC3ED047A1DE007F11003FD
:10532000013B1B7819460E20FFF79CFA03F027B9C2
:1053300007F58D5303F11403B3F90030B3F1FF3FC8
:105340000AD007F11003013B1B7819460720FFF72D
:1053500089FA00BF03F013B907F11003013B1B7872
:1053600019467020FFF7D4FAB34BD3ED037AFDEE64
:10537000E77A07F11003013B1B78194617EE900AF4
:10538000FFF718FCAC4BD3ED047AFDEEE77A07F19A
:105390001003013B1B78194617EE900AFFF70AFC31
:1053A000A64BD3ED1C7A07F11003013B1B7818467E
:1053B000B0EE670AFFF74CFBA04BD3ED1F7A9FEDD1
:1053C000A07AC7EE876A07F11003013B1B781846E5
:1053D000B0EE660AFFF73CFB984BD3ED207A9FEDC9
:1053E000987AC7EE876A07F11003013B1B781846CD
:1053F000B0EE660AFFF72CFB07F11003013B1B78A8
:105400001846FFF74DFA03F0BAB807F11003083B4E
:105410001B68981C07F58C53043307F58C52894997
:1054200010F0AAFC034607F58D5202F11402138016
:1054300007F58D5303F11403B3F90030022B46D165
:1054400007F58C53D3ED007A9FED7F7AF4EEC77A9F
:10545000F1EE10FA31DB07F58C5303F10403D3EDC1
:10546000007A9FED797AF4EEC77AF1EE10FA24DB38
:1054700007F58C53D3ED007AB7EE007AF4EEC77AD5
:10548000F1EE10FA19D807F58C5303F10403D3EDAC
:10549000007AB7EE007AF4EEC77AF1EE10FA0CD883
:1054A00007F58C531B68694A136407F58C5303F1A5
:1054B00004031B68654A93641DE007F11003013B78
:1054C0001B7819460E20FFF7CDF903F058B807F501
:1054D0008D5303F11403B3F90030B3F1FF3F0AD049
:1054E00007F11003013B1B7819460720FFF7BAF9B3
:1054F00000BF03F044B807F11003013B1B781946C5
:105500007620FFF705FA514BD3ED107A07F110031F
:10551000013B1B781846B0EE670AFFF799FA4B4B30
:10552000D3ED127A07F11003013B1B781846B0EE59
:10553000670AFFF78DFA07F11003013B1B78184645
:10554000FFF7AEF907F11003013B1B7819464048FD
:1055500005F028F8394BD3ED1A7A07F11003013B17
:105560001B781846B0EE670A05F030F903F007B86B
:10557000002284213548FDF785FE07F58D5303F1A0
:1055800010031860032218212B48FDF77BFE02460A
:1055900007F58D5303F110031B68134407F58D5273
:1055A00002F11002136007F11003013B1B7819464A
:1055B0007720FFF7ADF907F58D5303F110031B6852
:1055C000002B10D107F11003013B1B78194621482D
:1055D000FFF7BCF907F11003013B1B781846FFF7F2
:1055E0005FF902F0CCBF07F11003013B1B781946AD
:1055F0000820FFF737F902F0C2BF0020FDF76AFE6E
:105600000320FDF767FE07F11003013B1B781946E5
:105610005720FFF77DF907F11003013B1B7819466E
:105620000D48FFF793F907F11003013B1B7818466B
:10563000FFF736F902F0A3BFEC0D0020880E002022
:105640000AD7A33C049F0108CDCCCC3D040E00201A
:105650000C9F0108289F0108489F010807F11003CB
:10566000083B1B68981C07F58B5303F11003991C2A
:1056700007F58B5202F1100207F58B5303F110036B
:105680000E33059307F58B5303F110030C3304938A
:1056900007F58B5303F110030A33039307F58B537C
:1056A00003F110030833029307F58B5303F1100342
:1056B0000633019307F58B5303F110030433009372
:1056C0000B46BD4910F058FB034607F58D5202F119
:1056D0001402138007F58D5303F11403B3F900305E
:1056E000002B40F3CB8007F58B5303F11003B3F984
:1056F0000030002B40F3B88007F58B5303F1100303
:10570000B3F90030102B00F3AF8007F58B5303F192
:105710001003B3F90030DBB2013BDAB2A74B9A7544
:1057200007F58D5303F11403B3F90030012B0EDD9F
:1057300007F58B5303F11203B3F90030184602F05A
:105740002DFF0346DBB2013BDAB29C4BDA7507F55D
:105750008D5303F11403B3F90030022B0EDD07F56E
:105760008B5303F11403B3F90030184602F016FF0F
:105770000346DBB2013BDAB2904B1A7607F58D5344
:1057800003F11403B3F90030032B0EDD07F58B533F
:1057900003F11603B3F90030184602F0FFFE03468A
:1057A000DBB2013BDAB2854B5A7607F58D5303F134
:1057B0001403B3F90030042B0EDD07F58B5303F10E
:1057C0001803B3F90030184602F0E8FE0346DBB2D6
:1057D000013BDAB2794B9A7607F58D5303F1140346
:1057E000B3F90030052B0EDD07F58B5303F11A03D7
:1057F000B3F90030184602F0D1FE0346DBB2013B9C
:10580000DAB26E4BDA7607F58D5303F11403B3F970
:105810000030062B0FDD07F58B5303F11C03B3F9A2
:105820000030184602F0BAFE0346DBB2013BDAB2A2
:10583000624B83F8522007F58D5303F11403B3F93B
:105840000030072B2EDD07F58B5303F11E03B3F950
:105850000030184602F0A2FE0346DBB2013BDAB28A
:10586000564B83F856201DE007F11003013B1B78CF
:1058700019460E20FEF7F6FF02F081BE07F58D53A4
:1058800003F11403B3F90030B3F1FF3F0AD007F17D
:105890001003013B1B7819460720FEF7E3FF00BF0A
:1058A00002F06DBE07F11003013B1B781946692019
:1058B000FFF72EF8414B9B7D9BB201339BB21AB28E
:1058C00007F11003013B1B7819461046FFF7FEF85D
:1058D0003A4BDB7D9BB201339BB21AB207F1100346
:1058E000013B1B7819461046FFF7F0F8334B1B7E3F
:1058F0009BB201339BB21AB207F11003013B1B7834
:1059000019461046FFF7E2F82C4B5B7E9BB2013341
:105910009BB21AB207F11003013B1B7819461046DF
:10592000FFF7D4F8254B9B7E9BB201339BB21AB292
:1059300007F11003013B1B7819461046FFF7C6F824
:105940001E4BDB7E9BB201339BB21AB207F11003F0
:10595000013B1B7819461046FFF7B8F8174B93F830
:1059600052309BB201339BB21AB207F11003013BD4
:105970001B7819461046FFF7A9F8104B93F85630DC
:105980009BB201339BB21AB207F11003013B1B78A3
:1059900019461046FFF79AF807F11003013B1B78F0
:1059A0001846FEF77DFF07F11003013B1B781846F0
:1059B00003F0D0FB02F0E3BD589F0108040E002065
:1059C00007F11003083B1B68981C07F58B5303F184
:1059D0000803991C07F58B5202F1080207F58B5357
:1059E00003F10803043300930B46B24910F0C4F9E5
:1059F000034607F58D5202F11402138007F58D530B
:105A000003F11403B3F90030032B56D107F58B5380
:105A100003F10803B3F90030B3F5FA7F43DD07F56E
:105A20008B5303F10803B3F90030B3F5FA6F3ADA98
:105A300007F58B5303F10A03B3F90030002B32DD75
:105A400007F58B5303F10A03B3F90030632B2ADC0B
:105A500007F58B5303F10C03B3F90030B3F5967FD0
:105A600021DD07F58B5303F10C03B3F90030B3F5D7
:105A7000AF6F18DA07F58B5303F10803B3F9002071
:105A80008D4B1A8207F58B5303F10A03B3F90020FB
:105A9000894B5A8207F58B5303F10C03B3F90020AD
:105AA000854B9A821DE007F11003013B1B781946D4
:105AB0000E20FEF7D7FE02F062BD07F58D5303F10D
:105AC0001403B3F90030B3F1FF3F0AD007F110031C
:105AD000013B1B7819460720FEF7C4FE00BF02F009
