:020000040800F2
:100000000000022085480008394F0008494F0008C9
:10001000514F0008594F0008614F000800000000D0
:10002000000000000000000000000000694F000810
:10003000794F000800000000894F0008994F000820
:10004000DF480008E1480008E3480008E5480008E8
:10005000E7480008E9480008EB480008ED480008B8
:10006000EF480008F1480008F3480008F548000888
:10007000A94F0008F9480008BD4F0008FD480008D6
:10008000D14F0008E54F0008034900080549000862
:1000900007490008094900080B4900080D490008F4
:1000A0000F490008114900081349000815490008C4
:1000B00017490008194900081B4900081D49000894
:1000C0001F49000821490008234900082549000864
:1000D00027490008F94F00080D500008215000087A
:1000E0002F49000831490008334900083549000804
:1000F00037490008394900083B4900083D490008D4
:100100003F490008414900084349000845490008A3
:1001100047490008494900084B4900084D49000873
:100120004F4900085149000835500008554900085A
:1001300057490008594900085B4900085D49000813
:100140005F490008614900086349000849500008F8
:1001500067490008694900086B4900086D490008B3
:100160006F49000871490008734900087549000883
:1001700077490008794900087B4900087D49000853
:100180007F4900088149000810B5054C237833B930
:10019000044B13B10448AFF300800123237010BD5A
:1001A0007002002000000000DC0E0108084B10B5B2
:1001B0001BB108490848AFF300800848036803B939
:1001C00010BD074B002BFBD0BDE81040184700BF07
:1001D0000000000074020020DC0E01087002002004
:1001E00000000000154B002B08BF134B9D46A3F5E4
:1001F000803A00218B460F461348144A121A0BF01E
:1002000046FC0F4B002B00D098470E4B002B00D024
:1002100098470020002104000D000D48002802D05E
:100220000C48AFF300800BF0F1FB2000290001F037
:10023000A5FD0BF0D7FB00BF000008000000022066
:1002400000000000000000007002002020340020A8
:10025000000000000000000080B584B000AF7860AE
:100260000B46FB700023FB737B681B7C002B0ED1BD
:100270004FF4007302228121786805F097FB4FF458
:10028000007302220121786805F090FB0BE0402307
:1002900002228121786805F089FB40230222012196
:1002A000786805F083FB082303228221786805F033
:1002B0007DFB4FF407700BF0CFFB03461A467B68BB
:1002C000C3F818227B68D3F81832002B02D101231F
:1002D000FB7326E07B68D3F81832BB607B68D3F8E9
:1002E0001C321B689847BB680022C3F81422BB6805
:1002F0000022C3F818227B681B7C002B09D1BB6845
:10030000D3F804224FF400730121786805F0CAFC89
:1003100007E0BB68D3F8042240230121786805F088
:10032000C1FCFB7B18461037BD4680BD80B584B04C
:1003300000AF78600B46FB700023FB738121786867
:1003400005F072FB0121786805F06EFB8221786868
:1003500005F06AFB7B68D3F81832002B0ED07B685F
:10036000D3F81C325B6898477B68D3F8183218467C
:100370000BF07AFB7B680022C3F81822FB7B18463F
:100380001037BD4680BD00BF80B584B000AF786037
:1003900039607B68D3F81832FB603B681B7803F048
:1003A0006003002B3AD0202B00D043E03B68DB8871
:1003B000002B29D03B681B785BB2002B11DA7B68DD
:1003C000D3F81C329B683A685078F9683A68D2884A
:1003D0009847F9683B68DB881A46786801F068F846
:1003E00029E03B685A78FB6883F800223B68DB8889
:1003F000DAB2FB6883F80122F9683B68DB881A46A9
:10040000786801F083F816E07B68D3F81C329B68AB
:100410003A6850780022396898470CE03B685B786E
:100420000A2B01D00B2B05E001220549786801F069
:100430003FF800BF00BF002318461037BD4680BDFF
:100440008C02002080B485B000AF78600B46FB7052
:100450007B68D3F81832FB607B68D3F81832002B26
:1004600005D0FB680022C3F81422002300E0022319
:1004700018461437BD465DF8047B704780B584B0DC
:1004800000AF78600B46FB707B68D3F81832FB60D6
:10049000FB781946786805F03FFC0246FB68C3F814
:1004A0000C227B68D3F81832002B0DD07B68D3F870
:1004B0001C32DB68FA68D2F80402FA6802F50372AB
:1004C00011469847002300E0022318461037BD4626
:1004D00080BD00BF80B584B000AF78607B68D3F882
:1004E0001832FB607B68D3F81C32002B15D0FB68F8
:1004F00093F80032FF2B10D07B68D3F81C329B6836
:10050000FA6892F80002F968FA6892F8012292B249
:100510009847FB68FF2283F8002200231846103713
:10052000BD4680BD80B483B000AF78607B68432255
:100530001A80034B18460C37BD465DF8047B7047A4
:100540008800002080B483B000AF78607B684322CD
:100550001A80034B18460C37BD465DF8047B704784
:100560004400002080B483B000AF78607B684322F1
:100570001A80034B18460C37BD465DF8047B704764
:10058000CC00002080B483B000AF78607B680A2282
:100590001A80034B18460C37BD465DF8047B704744
:1005A0000000002080B485B000AF7860396002237D
:1005B000FB733B68002B05D07B683A68C3F81C22AC
:1005C0000023FB73FB7B18461437BD465DF8047BA4
:1005D000704700BF80B487B000AFF860B9601346C1
:1005E000FB80FB68D3F818327B617B69BA68C3F87B
:1005F0000822FA887B69C3F81022002318461C37AA
:10060000BD465DF8047B704780B485B000AF78606C
:1006100039607B68D3F81832FB60FB683A68C3F82E
:100620000422002318461437BD465DF8047B70474A
:1006300080B584B000AF78607B68D3F81832FB6077
:100640007B68D3F81832002B17D0FB68D3F814322C
:10065000002B10D1FB680122C3F81422FB68D3F8E9
:100660000822FB68D3F810329BB28121786805F02C
:10067000DFFA002302E0012300E0022318461037CE
:10068000BD4680BD80B584B000AF78607B68D3F88C
:100690001832FB607B68D3F81832002B17D07B68C8
:1006A0001B7C002B09D1FB68D3F804224FF40073A4
:1006B0000121786805F0F6FA07E0FB68D3F8042218
:1006C00040230121786805F0EDFA002300E00223C1
:1006D00018461037BD4680BD80B584B000AFF860C5
:1006E000B9601346FB71FB68002B01D102231AE0AD
:1006F000FB68D3F81432002B03D0FB680022C3F848
:100700001422BB68002B03D0FB68BA68C3F8102220
:10071000FB68012283F8FC21FB68FA791A70F868FB
:1007200005F0BEF8002318461037BD4680BD00BF57
:1007300080B485B000AF786039600023FB733B68FC
:10074000002B06D07B683A68C3F814220023FB73A1
:1007500001E00223FB73FB7B18461437BD465DF8AE
:10076000047B704780B582B000AF7860786805F090
:10077000EBF8002318460837BD4680BD80B483B02F
:1007800000AF7860002318460C37BD465DF8047B47
:10079000704700BF80B584B000AF78600B46FB7037
:1007A0000223FB737B68D3F81432002B0CD07B68D8
:1007B000D3F814321B68FA781146786898470346D4
:1007C000002B01D10023FB73FB7B18461037BD467D
:1007D00080BD00BF80B582B000AF78600B46FB7073
:1007E0007B68D3F814325B68FA78114678689847CA
:1007F000002318460837BD4680BD00BF80B582B0D3
:1008000000AF786039607B6803F502733968184679
:1008100000F0A2FD7B680122C3F8F4217B68B3F8E5
:100820000E321A467B68C3F8F8217B6893F80832C9
:1008300003F01F03012B0BD0022B11D0002B17D17B
:100840007B6803F502731946786800F0CFF91AE067
:100850007B6803F502731946786800F017FA12E016
:100860007B6803F502731946786800F043FA0AE0E2
:100870007B6893F8083223F07F03DBB2194678686F
:1008800005F008F900BF002318460837BD4680BDB3
:1008900080B586B000AFF8600B467A60FB72FB7AD9
:1008A000002B38D1FB6803F582737B61FB68D3F8BA
:1008B000F431032B42D17B699A687B69DB689A42E9
:1008C00014D97B699A687B69DB68D21A7B699A6064
:1008D0007B69DA687B699B68934228BF13469BB2A9
:1008E0001A467968F86800F02FFE27E0FB68D3F815
:1008F00014321B69002B0AD0FB6893F8FC31032BE0
:1009000005D1FB68D3F814321B69F8689847F8687A
:1009100000F02CFE12E0FB68D3F814329B69002B28
:100920000CD0FB6893F8FC31032B07D1FB68D3F89C
:1009300014329B69FA7A1146F868984700231846E2
:100940001837BD4680BD00BF80B586B000AFF860E7
:100950000B467A60FB72FB7A002B6CD1FB68143378
:100960007B61FB68D3F8F431022B57D17B699A681D
:100970007B69DB689A4215D97B699A687B69DB6879
:10098000D21A7B699A607B699B689BB21A46796828
:10099000F86800F0A9FD002300220021F86805F0A6
:1009A00081F93BE07B695B687A69D268B3FBF2F15D
:1009B00002FB01F29B1A002B1CD17B695A687B69F0
:1009C000DB689A4216D37B695A68FB68D3F8F83122
:1009D0009A420FD200220021F86800F085FDFB68E2
:1009E0000022C3F8F821002300220021F86805F056
:1009F00059F913E0FB68D3F81432DB68002B0AD0F6
:100A0000FB6893F8FC31032B05D1FB68D3F8143253
:100A1000DB68F8689847F86800F0BCFDFB6893F85D
:100A20000032012B1AD1F868FFF7A8FEFB680022FC
:100A300083F8002212E0FB68D3F814325B69002BC4
:100A40000CD0FB6893F8FC31032B07D1FB68D3F87B
:100A500014325B69FA7A1146F86898470023184601
:100A60001837BD4680BD00BF80B582B000AF78604A
:100A7000402300220021786804F098FF7B68402220
:100A8000C3F81021402300228021786804F08EFFF3
:100A90007B6840221A627B68012283F8FC217B6814
:100AA000D3F81832002B09D07B68D3F814325B6876
:100AB0007A685268D2B2114678689847002318467F
:100AC0000837BD4680BD00BF80B483B000AF7860FA
:100AD0000B46FB707B68FA781A74002318460C37B3
:100AE000BD465DF8047B704780B483B000AF78608A
:100AF0007B6893F8FC217B6883F8FD217B680422E6
:100B000083F8FC21002318460C37BD465DF8047BB2
:100B1000704700BF80B483B000AF78607B6893F803
:100B2000FD217B6883F8FC21002318460C37BD4665
:100B30005DF8047B704700BF80B582B000AF78607D
:100B40007B6893F8FC31032B0BD17B68D3F814320C
:100B5000DB69002B05D07B68D3F81432DB69786839
:100B60009847002318460837BD4680BD80B483B03F
:100B700000AF78600B46FB70002318460C37BD466B
:100B80005DF8047B704700BF80B483B000AF78602D
:100B90000B46FB70002318460C37BD465DF8047BFE
:100BA000704700BF80B483B000AF78600023184660
:100BB0000C37BD465DF8047B704700BF80B582B03E
:100BC00000AF78607B68012283F8FC217B68D3F852
:100BD00014325B687A685268D2B2114678689847D6
:100BE000002318460837BD4680BD00BF80B584B0DD
:100BF00000AF786039600023FB733B685B78092B9A
:100C000039D801A252F823F0590C00086D0C0008E5
:100C1000770C0008630C0008770C00083B0C0008F8
:100C2000310C0008770C00084F0C0008450C000838
:100C30003968786800F036F922E03968786800F0A1
:100C400025FA1DE03968786800F05EFA18E0396826
:100C5000786800F0E1FA13E03968786800F00EFB7C
:100C60000EE03968786800F033FB09E0396878688D
:100C700000F04AFB04E03968786800F0ABFB00BF85
:100C8000FB7B18461037BD4680BD00BF80B584B0E1
:100C900000AF786039600023FB737B6893F8FC3108
:100CA000032B1BD13B689B88DBB2012B11D87B68DF
:100CB000D3F814329B683968786898473B68DB88BA
:100CC000002B10D1FB7B002B0DD1786800F04EFC7F
:100CD00009E03968786800F07DFB04E039687868DD
:100CE00000F078FB00E000BF002318461037BD4637
:100CF00080BD00BF80B584B000AF7860396000234C
:100D0000FB733B689B88BB733B681B7803F06003F5
:100D1000202B08D17B68D3F814329B683968786837
:100D200098470023BAE03B685B78012B39D0032B4E
:100D300002D0002B6BD0B0E07B6893F8FC31022B23
:100D400002D0032B0CD025E0BB7B002B27D0BB7B34
:100D5000802B24D0BB7B1946786804F09BFE1EE0F4
:100D60003B685B88002B0AD1BB7B002B07D0BB7B89
:100D7000802B04D0BB7B1946786804F08BFE7B681F
:100D8000D3F814329B68396878689847786800F01F
:100D9000EDFB05E03968786800F01CFB00E000BF5F
:100DA0007BE07B6893F8FC31022B02D0032B0CD044
:100DB00024E0BB7B002B26D0BB7B802B23D0BB7BCE
:100DC0001946786804F066FE1DE03B685B88002BDE
:100DD0001BD1BB7B03F07F03002B0BD0BB7B1946E1
:100DE000786804F08DFE7B68D3F814329B6839680C
:100DF00078689847786800F0B9FB06E03968786849
:100E000000F0E8FA02E000BF47E000BF45E07B6881
:100E100093F8FC31022B02D0032B0BD036E0BB7BC6
:100E200003F07F03002B36D0BB7B1946786804F0B3
:100E300031FE30E097F90E30002B08DABB7B03F06F
:100E40007F0301331B017A681344043307E0BB7B43
:100E500003F07F0310331B017A6813440433BB6033
:100E6000BB7B1946786804F081FE0346002B03D053
:100E7000BB6801221A6002E0BB6800221A60BB68EE
:100E800002221946786800F013FB05E0396878689B
:100E900000F0A0FA00E000BF00BFFB7B184610374F
:100EA000BD4680BD80B584B000AF786039603B68D6
:100EB0005B881B0A9BB2013B062B00F2C98001A292
:100EC00052F823F0E10E0008F90E0008390F00086F
:100ED0005110000851100008FD0F000823100008F1
:100EE0007B68D3F810321B687A68127C07F10A011C
:100EF00010469847F860B0E07B681B7C002B0DD152
:100F00007B68D3F814329B6A07F10A0210469847AF
:100F1000F860FB68013302221A709EE07B68D3F808
:100F20001432DB6A07F10A0210469847F860FB6842
:100F3000013302221A7090E03B685B88DBB2052B1C
:100F400056D801A252F823F0610F0008790F00086B
:100F5000910F0008A90F0008C10F0008D90F000861
:100F60007B68D3F810325B687A68127C07F10A015B
:100F700010469847F86040E07B68D3F810329B68D1
:100F80007A68127C07F10A0110469847F86034E04D
:100F90007B68D3F81032DB687A68127C07F10A01AB
:100FA00010469847F86028E07B68D3F810321B6938
:100FB0007A68127C07F10A0110469847F8601CE035
:100FC0007B68D3F810325B697A68127C07F10A01FA
:100FD00010469847F86010E07B68D3F810329B69A0
:100FE0007A68127C07F10A0110469847F86004E01D
:100FF0003968786800F0EEF944E02EE07B681B7CED
:10100000002B09D17B68D3F814325B6B07F10A021D
:1010100010469847F86020E03968786800F0DAF9FF
:1010200030E07B681B7C002B0DD17B68D3F8143239
:101030001B6B07F10A0210469847F860FB68013302
:1010400007221A7009E03968786800F0C3F919E0DE
:101050003968786800F0BEF914E07B89002B11D064
:101060003B68DB88002B0DD03B68DA887B89934294
:1010700028BF13469BB27B817B891A46F968786842
:1010800000F016FA1037BD4680BD00BF80B584B0B1
:1010900000AF786039603B689B88002B2CD13B689F
:1010A000DB88002B28D13B685B88DBB203F07F0331
:1010B000FB737B6893F8FC31032B04D139687868A3
:1010C00000F088F91CE07B68FA7B83F8FE21FB7B4B
:1010D0001946786804F076FD786800F047FAFB7BE3
:1010E000002B04D07B68022283F8FC2108E07B6897
:1010F000012283F8FC2103E03968786800F06AF97E
:1011000000BF1037BD4680BD80B582B000AF7860AB
:1011100039603B685B88DAB23E4B1A703D4B1B78F6
:10112000012B04D93968786800F054F96FE07B68C6
:1011300093F8FC31022B02D0032B23D062E0354B15
:101140001B78002B1AD0334B1B781A467B685A60E9
:101150007B68032283F8FC212E4B1B7819467868A4
:10116000FFF718FB0346022B04D13968786800F0BA
:1011700031F94CE0786800F0F9F948E0786800F05F
:10118000F5F944E0234B1B78002B12D17B68022237
:1011900083F8FC211F4B1B781A467B685A601D4B55
:1011A0001B7819467868FFF715FB786800F0DEF9C0
:1011B0002DE0184B1B781A467B685B689A421DD05D
:1011C0007B685B68DBB219467868FFF703FB114B5D
:1011D0001B781A467B685A600E4B1B781946786854
:1011E000FFF7D8FA0346022B04D13968786800F07B
:1011F000F1F80CE0786800F0B9F908E0786800F0E0
:10120000B5F904E03968786800F0E4F800BF083701
:10121000BD4680BD8D02002080B582B000AF7860F1
:1012200039603B68DB88012B04D03968786800F0AE
:10123000D1F81FE07B6893F8FC31022B02D0032B1E
:101240000BD012E07B6800229A607B680833012291
:101250001946786800F02CF90CE07B680433012211
:101260001946786800F024F904E03968786800F0DD
:10127000B1F800BF00BF0837BD4680BD80B582B061
:1012800000AF786039607B6893F8FC31023B012B3A
:1012900015D87B680122DA607B68D3F80432002B12
:1012A00005D07B68DB6843F002027B68DA607B680C
:1012B0000C3302221946786800F0FAF804E0396825
:1012C000786800F087F800BF00BF0837BD4680BDD2
:1012D00080B582B000AF786039603B685B88012BD5
:1012E0000DD17B680122C3F804227B68D3F8143245
:1012F0009B68396878689847786800F037F900BFCC
:101300000837BD4680BD00BF80B582B000AF7860B1
:1013100039607B6893F8FC31023B012B12D83B68A3
:101320005B88012B13D17B680022C3F804227B6801
:10133000D3F814329B68396878689847786800F069
:1013400015F904E03968786800F044F800E000BF5F
:1013500000BF0837BD4680BD80B483B000AF786061
:1013600039603B681A787B681A703B685A787B68EA
:101370005A703B6802331B789AB23B6803331B7880
:101380009BB21B029BB213449AB27B685A803B68A3
:1013900004331B789AB23B6805331B789BB21B025F
:1013A0009BB213449AB27B689A803B6806331B78E1
:1013B0009AB23B6807331B789BB21B029BB2134463
:1013C0009AB27B68DA8000BF0C37BD465DF8047BBB
:1013D000704700BF80B582B000AF7860396080216F
:1013E000786804F057FB0021786804F053FB00BFD5
:1013F0000837BD4680BD00BF80B586B000AFF8603D
:10140000B9607A600023FB75FB68002B33D0F86865
:1014100000F036F8034601339BB25B009AB27B685A
:101420001A80FB7D5A1CFA751A46BB6813447A6809
:101430001288D2B21A70FB7D5A1CFA751A46BB6824
:10144000134403221A7012E0FB7D5A1CFA751A46E7
:10145000BB681A44FB68591CF9601B781370FB7D4C
:101460005A1CFA751A46BB68134400221A70FB68AE
:101470001B78002BE8D100BF1837BD4680BD00BFE8
:1014800080B485B000AF78600023FB7305E0FB7B80
:101490000133FB737B6801337B607B681B78002B17
:1014A000F5D1FB7B18461437BD465DF8047B7047C9
:1014B00080B584B000AFF860B9601346FB80FB686C
:1014C0000222C3F8F421FA88FB689A61FA88FB6863
:1014D000DA61FB88BA680021F86804F0A9FB0023F0
:1014E00018461037BD4680BD80B584B000AFF860A7
:1014F000B9601346FB80FB88BA680021F86804F0E5
:1015000097FB002318461037BD4680BD80B584B0D8
:1015100000AFF860B9601346FB80FB680322C3F894
:10152000F421FA88FB68C3F80821FA88FB68C3F83D
:101530000C21FB88BA680021F86804F0B3FB002393
:1015400018461037BD4680BD80B584B000AFF86046
:10155000B9601346FB80FB88BA680021F86804F084
:10156000A1FB002318461037BD4680BD80B582B070
:1015700000AF78607B680422C3F8F42100230022C6
:101580000021786804F054FB002318460837BD4654
:1015900080BD00BF80B582B000AF78607B68052257
:1015A000C3F8F421002300220021786804F07AFBBC
:1015B000002318460837BD4680BD00BF80B400AF89
:1015C000044B1B680133034A136000BFBD465DF83E
:1015D000047B70479002002080B400AF0A4B19686A
:1015E0000A4BA3FB0123DA0813469B0013445B005C
:1015F000CA1A002A0CBF01230023DBB21846BD46DD
:101600005DF8047B704700BF90020020CDCCCCCCAD
:1016100080B483B000AF03460A46FB801346BB800C
:10162000BA88FB881344DA0F13445B101AB20E4BCE
:101630001A800D4BB3F900309BB2BA88D31A9BB213
:101640001AB20A4B1A80084BB3F900309AB2FB88E1
:10165000D31A9BB21AB2064B1A8000BF0C37BD4694
:101660005DF8047B704700BF2401002020010020AA
:1016700022010020000000002DE9F84300AF324BAA
:10168000D3E90489304BD3E906012DA3D3E9002324
:1016900009F0DCFE03460C461A46234640464946FE
:1016A00009F022FD03460C469846A146264BD3E995
:1016B000080123A3D3E9002309F0F2FF03460C46F7
:1016C0001A4623464046494609F00EFD03460C469D
:1016D0001E4AC2E900341C4BD3E904341D4684F091
:1016E0000046194BD3E9080102460B4609F0FCFC01
:1016F00003460C461846214611A3D3E9002309F0FE
:10170000CFFF03460C461A4623462846314609F0C9
:10171000E9FC03460C460E4AC2E900340A4BD3E901
:10172000080107A3D3E9002309F0BAFF03460C46DA
:10173000084AC2E9003400BFBDE8F883AFF3008077
:101740007B14AE47E17A943FF00A00208804002021
:10175000900400208004002080B483B000AF0346D2
:101760000A46FB711346BB80FB79032B1ED801A2EE
:1017700052F823F0A31700088F17000885170008F8
:1017800099170008B7F904200B4B9A800EE0B7F9BF
:101790000420094B5A8009E0B7F90420064BDA808F
:1017A00004E0B7F90420044B1A8000BF00BF0C37D7
:1017B000BD465DF8047B70471001002080B483B003
:1017C00000AF0346FB71FB79032B1FD801A252F82F
:1017D00023F000BF03180008EF170008E517000802
:1017E000F91700080D4BB3F904309BB20FE00B4B17
:1017F000B3F902309BB20AE0084BB3F906309BB252
:1018000005E0064BB3F900309BB200E00023184618
:101810000C37BD465DF8047B704700BF18010020FF
:1018200090B583B000AF87ED000B054AD7E90034CF
:10183000C2E90434FFF720FF00BF0C37BD4690BD5E
:10184000F00A002090B583B000AF87ED000B054A89
:10185000D7E90034C2E90634FFF70EFF00BF0C37AA
:10186000BD4690BDF00A002090B583B000AF87ED73
:10187000000B054AD7E90034C2E90834FFF7FCFE43
:1018800000BF0C37BD4690BDF00A002090B400AFF9
:10189000054BD3E9043444EC173BB0EE470AF0EEB5
:1018A000670ABD4690BC7047F00A002090B400AFB4
:1018B000054BD3E9063444EC173BB0EE470AF0EE93
:1018C000670ABD4690BC7047F00A002090B400AF94
:1018D000054BD3E9083444EC173BB0EE470AF0EE71
:1018E000670ABD4690BC7047F00A002090B482B0F1
:1018F00000AF87ED000B054AD7E90034C2E9123486
:1019000000BF0837BD4690BC704700BFF00A0020FA
:1019100090B400AF054BD3E9123444EC173BB0EE62
:10192000470AF0EE670ABD4690BC7047F00A0020F7
:1019300090B482B000AF87ED000B054AD7E90034C0
:10194000C2E9143400BF0837BD4690BC704700BFE1
:10195000F00A002090B400AF054BD3E9143444ECF6
:10196000173BB0EE470AF0EE670ABD4690BC7047E1
:10197000F00A002090B482B000AF87ED000B054A5A
:10198000D7E90034C2E9163400BF0837BD4690BC21
:10199000704700BFF00A002090B400AF054BD3E9B8
:1019A000163444EC173BB0EE470AF0EE670ABD462A
:1019B00090BC7047F00A002090B583B000AF87ED6F
:1019C000000B0F4AD7E90034C2E90A340D4BD3E9C2
:1019D000000109A3D3E9002309F0A0FF0346002B6F
:1019E00000D004E0084AD7E90034C2E9003400BF5F
:1019F0000C37BD4690BD00BF00000000F069F84004
:101A0000F00A0020400100202801002090B400AF1F
:101A1000054BD3E90A3444EC173BB0EE470AF0EE2D
:101A2000670ABD4690BC7047F00A002090B585B0AB
:101A300000AF87ED020B87ED001BD7E90023D7E944
:101A4000020109F075FF0346002B0AD0134AD7E9BB
:101A50000234C2E90034124AD7E90034C2E9003442
:101A600009E00E4AD7E90034C2E900340C4AD7E94C
:101A70000234C2E900340B4BD3E90A340A4AC2E902
:101A80000034084BD3E90C34084AC2E90034084B4F
:101A900002221A7000BF1437BD4690BD38010020E5
:101AA00040010020F00A0020280100203001002021
:101AB000A10200200000000080B582B000AF87EDD9
:101AC000000B154BD3E900010FA3D3E9002309F064
:101AD00025FF0346002B06D09FED0D1B97ED000B55
:101AE000FFF7A4FF0AE00C4B93ED007BB0EE471A22
:101AF000F0EE671A97ED000BFFF798FF00BF08376D
:101B0000BD4680BDAFF3008000000000F069F840E2
:101B100000000000000000004001002090B400AF71
:101B2000054BD3E9003444EC173BB0EE470AF0EE26
:101B3000670ABD4690BC70473801002000000000D5
:101B400080B582B000AF87ED000B154BD3E90001E3
:101B50000FA3D3E9002309F0E1FE0346002B06D0D2
:101B600097ED001B9FED0C0BFFF760FF0AE00C4B9D
:101B700093ED007B97ED001BB0EE470AF0EE670A8D
:101B8000FFF754FF00BF0837BD4680BDAFF30080AC
:101B900000000000F069F8400000000000000000B4
:101BA0003801002090B400AF054BD3E9003444EC79
:101BB000173BB0EE470AF0EE670ABD4690BC70478F
:101BC000400100200000000090B583B000AF87ED19
:101BD000000B0F4AD7E90034C2E90C340D4BD3E9AE
:101BE000000109A3D3E9002309F098FE0346002B66
:101BF00000D004E0084AD7E90034C2E9003400BF4D
:101C00000C37BD4690BD00BF00000000F069F840F1
:101C1000F00A0020400100203001002090B400AF05
:101C2000054BD3E90C3444EC173BB0EE470AF0EE19
:101C3000670ABD4690BC7047F00A002090B482B09D
:101C400000AF87ED000B054AD7E90034C2E9003444
:101C500000BF0837BD4690BC704700BFA8020020F7
:101C600090B400AF054BD3E9003444EC173BB0EE21
:101C7000470AF0EE670ABD4690BC7047A8020020F4
:101C800080B582B000AF87ED000BD7E9000109F005
:101C900077FE03461AB2034B5A8000BF0837BD4691
:101CA00080BD00BF1001002098B500AF074BB3F90D
:101CB0000230184609F064FB03460C4644EC173B1F
:101CC000B0EE470AF0EE670A98BD00BF1001002091
:101CD00080B582B000AF87ED000BD7E9000109F0B5
:101CE0004FFE03461AB2034B9A8000BF0837BD4629
:101CF00080BD00BF1001002098B500AF074BB3F9BD
:101D00000430184609F03CFB03460C4644EC173BF4
:101D1000B0EE470AF0EE670A98BD00BF1001002040
:101D200080B400AF034B01221A7000BFBD465DF8BE
:101D3000047B7047A002002090B400AF054BD3E9AC
:101D4000003444EC173BB0EE470AF0EE670ABD469C
:101D500090BC70479802002098B500AF064B5B6AB4
:101D6000184609F0FDFA03460C4644EC173BB0EE6A
:101D7000470AF0EE670A98BD000C004080B500AF3E
:101D800004F08EF800F060F800F012FB00F0C2FAE8
:101D900000F0E4F800F00CF900F044F900F07CF9F0
:101DA00000F028FA00F088FA03F08EF900F056FAF5
:101DB00000F0D2F904211E4806F0A4FE01221021F1
:101DC0001C4804F0C3FE02F0C9F903461922194663
:101DD000194807F0BBFA01220121184804F0B6FEA9
:101DE00004F0AAF80246164B1B68D31A142B11D91B
:101DF00004F0A2F80246124B1A60FFF7DFFB03F073
:101E0000DBFBFFF7E9FB0346002B03D02021094849
:101E100004F0B6FE4FF400710A4803F0A9FA034635
:101E2000002BDDD00121074800F050FCD8E700BFAF
:101E3000FC050020000402408C070020000802403E
:101E400098050020EC07002080B598B000AF002373
:101E5000BB603E4A3D4B1B6C43F0805313643B4BCD
:101E60001B6C03F08053BB60BB6800237B60384A67
:101E7000374B1B6843F480431360354B1B6803F4F6
:101E800080437B607B680B233B634FF480337B6331
:101E90000123FB6310233B6401237B640223BB64A7
:101EA0004FF48003FB6404233B6548237B650223D6
:101EB000BB650323FB6507F13003184605F024FFDB
:101EC0000346002B03D0DC21224800F0E3FA0F2365
:101ED000FB6100233B6200237B620023BB62002383
:101EE000FB6207F11C030021184606F067F9034660
:101EF000002B03D0EA21174800F0CCFA0223FB6044
:101F00004FF40073BB6107F10C03184606F036FB73
:101F10000346002B03D0F1210E4800F0BBFA06F077
:101F2000DDFA02460C4BA3FB02239B09184604F082
:101F30002DF9042004F036F9002200214FF0FF3083
:101F400004F0FAF800BF6037BD4680BD003802409B
:101F500000700040CCF60008D34D621080B500AF91
:101F6000104B114A1A600F4B00225A600D4B7F2212
:101F70009A600C4BFF22DA600A4B00221A61094B6F
:101F800000225A61074B00229A61064806F0ECFBDA
:101F90000346002B04D040F20F11044800F07AFAF7
:101FA00000BF80BDCC07002000280040CCF6000810
:101FB00080B500AF184B194A1A60174B4FF4827264
:101FC0005A60154B00229A60134B0022DA60124BC4
:101FD00000221A61104B00225A610F4B00229A61B5
:101FE0000D4B0022DA610C4B00221A620A4B0022D0
:101FF0005A62094B00229A62074B0A22DA620648AB
:1020000006F05AFC0346002B04D04FF493710448A9
:1020100000F040FA00BF80BDEC0900200030014014
:10202000CCF6000880B500AF184B194A1A60174B60
:102030004FF482725A60154B00229A60134B0022B3
:10204000DA60124B00221A61104B00225A610F4BCA
:1020500000229A610D4B0022DA610C4B00221A62B9
:102060000A4B00225A62094B00229A62074B0A224D
:10207000DA62064806F020FC0346002B04D040F24A
:102080003D11044800F006FA00BF80BD7406002030
:10209000003C0040CCF6000880B58AB000AF2B4B66
:1020A0002B4A1A60294B00225A60284B00229A6062
:1020B000264B0022DA60254B00221A61234806F0E5
:1020C0005FFC0346002B04D04FF4A871214800F0B8
:1020D000E1F900233B6200237B6207F120031946EC
:1020E0001A4807F09FF80346002B04D040F257111E
:1020F000184800F0CFF960237B600023BB60002309
:10210000FB6000237B613B1D082219460F4806F047
:1021100031FD0346002B04D04FF4B0710D4800F0A0
:10212000B9F93B1D0C221946084806F023FD034669
:10213000002B04D040F26511064800F0ABF90348CB
:1021400002F02CFD00BF2837BD4680BD38060020B8
:1021500000040040CCF6000880B58CB000AF224BE4
:10216000224A1A60204B00225A601F4B00229A60BC
:102170001D4B4FF0FF32DA601B4B00221A61032324
:10218000FB6000233B6101237B610023BB610023D3
:10219000FB6100233B6201237B620023BB620023BF
:1021A000FB6207F10C0319460F4806F015FC0346C5
:1021B000002B04D040F283110D4800F06BF900238E
:1021C0007B600023BB603B1D1946074807F02AF8D7
:1021D0000346002B04D04FF4C571054800F05AF9AE
:1021E00000BF3037BD4680BDFC050020000C00401C
:1021F000CCF6000880B500AF144B154A1A60134B9B
:10220000144A5A60114B4FF480529A600F4B4FF4AE
:102210000052DA600D4B4FF480621A610B4B0422BE
:102220005A610A4B00229A61084B4FF40042DA616E
:10223000064807F03DF80346002B04D040F29D11FC
:10224000054800F027F900BF80BD00BF8C070020C3
:1022500000100140A0860100CCF6000880B500AF58
:10226000124B134A1A60114B4FF4E1325A600F4B74
:1022700000229A600D4B0022DA600C4B00221A619A
:102280000A4B0C225A61094B00229A61074B00222B
:10229000DA61064807F00CF80346002B04D04FF42F
:1022A000D871044800F0F6F800BF80BD440A002051
:1022B00000440040CCF6000880B500AF124B134A32
:1022C0001A60114B4FF4E1325A600F4B00229A60B2
:1022D0000D4B0022DA600C4B00221A610A4B0C22D3
:1022E0005A61094B00229A61074B0022DA610648C5
:1022F00006F0DEFF0346002B04D040F2C311044871
:1023000000F0C8F800BF80BD58050020004800401C
:10231000CCF6000880B582B000AF00237B60234A72
:10232000224B1B6B43F480031363204B1B6B03F4A2
:1023300080037B607B6800233B601C4A1B4B1B6B4C
:1023400043F400131363194B1B6B03F400133B603E
:102350003B68002200210C2003F0EEFE0C2003F06D
:1023600007FF002200210E2003F0E6FE0E2003F0FE
:10237000FFFE00220021102003F0DEFE102003F0FB
:10238000F7FE00220021112003F0D6FE112003F0F9
:10239000EFFE002200213A2003F0CEFE3A2003F0A7
:1023A000E7FE00BF0837BD4680BD00BF00380240D1
:1023B00080B58AB000AF00233B61324A314B1B6BC2
:1023C00043F0800313632F4B1B6B03F080033B61CF
:1023D0003B690023FB602B4A2A4B1B6B43F0010334
:1023E0001363284B1B6B03F00103FB60FB680023A6
:1023F000BB60244A234B1B6B43F004031363214B44
:102400001B6B03F00403BB60BB6800237B601D4AA9
:102410001C4B1B6B43F0020313631A4B1B6B03F043
:1024200002037B607B6800223821174804F08EFB92
:1024300010237B61154BBB610023FB6107F1140383
:102440001946134804F0E8F901237B610123BB61BD
:102450000023FB6107F1140319460D4804F0DCF971
:1024600038237B610123BB610023FB6100233B62B6
:1024700007F114031946044804F0CEF900BF2837C9
:10248000BD4680BD0038024000040240000011102B
:102490000008024080B483B000AF78603960FEE786
:1024A00080B582B000AF03460A46FB711346BB718C
:1024B000BB791946074802F05BF9FB79064A52F8E6
:1024C0002330BA791146184602F0A4F900BF083744
:1024D000BD4680BDBCF800084801002080B584B02E
:1024E00000AF0346FB71164B1B7883F02003DAB272
:1024F000134B1A70124B1B7883F04F03DAB2104B58
:102500001A700F4B1B7883F04B03DAB20C4B1A7026
:102510000B4B1B7807F108000A4A05210AF0D0F995
:10252000FB791946084802F023F9FA7907F1080304
:102530001146184602F06EF900BF1037BD4680BD47
:1025400084030020C8F80008D0F8000880B582B0E5
:1025500000AF03460A46FB711346BB71BB791846B0
:1025600002F06CF9BB791946074802F001F9BA7913
:10257000FB791146184602F0DFF8044AFB79137024
:1025800000BF0837BD4680BDD8F80008840300208E
:1025900080B584B000AF78600B46FB700023FB6011
:1025A0000CE0FB687A6813441A780D4B1B78534093
:1025B000DAB20B4B1A70FB680133FB60FB68272B08
:1025C00005DCFB687A6813441B78002BE9D1FB78A3
:1025D0001946786802F0CCF800BF1037BD4680BDC0
:1025E0008403002090B59DB002AF87ED020B034637
:1025F000FB7107F11400D7E90234CDE90034154A24
:1026000050210AF05DF900237B660DE007F114020A
:102610007B6E13441A78104B1B785340DAB20E4B82
:102620001A707B6E01337B667B6E272B06DC07F10D
:1026300014027B6E13441B78002BE7D1FA7907F163
:1026400014031146184602F093F800BF6C37BD46DC
:1026500090BD00BFDCF800088403002080B598B06E
:1026600000AF78600B46FB7007F10C007B68154AE1
:1026700050210AF025F90023FB650DE007F10C025B
:10268000FB6D13441A78104B1B785340DAB20E4B93
:102690001A70FB6D0133FB65FB6D272B06DC07F120
:1026A0000C02FB6D13441B78002BE7D1FA7807F17D
:1026B0000C031146184602F05BF800BF6037BD46B8
:1026C00080BD00BFE4F800088403002090B585B009
:1026D00000AF78600B46FB700023FB8120237B73E7
:1026E000AFE1FB895A1CFA811A467B6813441B78B8
:1026F0003B737B7B202B1CD13B7B242B02D03B7B71
:10270000212B02D124237B739BE13B7B002B40F0E8
:1027100098817B681B780D2B00F099817B681B7872
:102720000A2B00F09481FB7819460620FFF7B8FECB
:102730008DE17B7B242B0ED19D4A3B7B13709D4BFF
:1027400000221A709C4B00221A709C4A3B7B13702B
:1027500061237B7375E17B7B612B09D1954B1B78E2
:10276000132B05D9FB7819460120FFF799FE6FE17D
:102770007B7B612B09D1904B1B78092B05D9FB780A
:1027800019460220FFF78CFE62E17B7B612B23D18F
:102790003B7B2C2B20D1894B1A783B7B5340DAB200
:1027A000864B1A70844B1B781A46824B1B7818464E
:1027B000834913465B001344DA00D21A8B18034492
:1027C00000221A707C4B1B780133DAB27A4B1A70F4
:1027D000784B00221A7034E17B7B612B20D13B7B4C
:1027E0002A2B1DD131237B73734B1B781A46714BF7
:1027F0001B781846724913465B001344DA00D21A5C
:102800008B18034400221A706A4B1B78002B00F0CF
:102810001881694B1B780133DAB2674B1A7010E1EB
:102820007B7B612B29D13B7B0D2B05D03B7B0A2B7E
:1028300002D03B7B002B20D131237B735E4B1B7876
:102840001A465C4B1B7818465D4913465B001344DF
:10285000DA00D21A8B18034400221A70554B1B78E9
:10286000002B05D0544B1B780133DAB2524B1A704F
:10287000FB78184600F02EF9EAE07B7B612B1FD134
:102880004E4B1A783B7B5340DAB24C4B1A703B7B71
:10289000202B00F0D680484B1B781846454B1B7800
:1028A0005A1CD1B2434A11701C46454903465B008D
:1028B0000344DA00D21A8B1823443A7B1A70C0E022
:1028C0007B7B312B0FD13B7B2F2B0CD93B7B392BC7
:1028D00009D83B7B303BDBB21B01DAB2394B1A70B3
:1028E00032237B73ADE07B7B312B0FD13B7B402BC5
:1028F0000CD93B7B462B09D83B7B373BDBB21B011A
:10290000DAB2304B1A7032237B739AE07B7B312B27
:102910000FD13B7B602B0CD93B7B662B09D83B7BD3
:10292000573BDBB21B01DAB2264B1A7032237B73A2
:1029300087E07B7B322B11D13B7B2F2B0ED93B7B4E
:10294000392B0BD81F4B1A783B7B1344DBB2303B3F
:10295000DAB21C4B1A702A237B7372E07B7B322B1A
:1029600011D13B7B402B0ED93B7B462B0BD8154B13
:102970001A783B7B1344DBB2373BDAB2114B1A7047
:102980002A237B735DE07B7B322B1DD13B7B602B4D
:102990001AD93B7B662B17D80A4B1A783B7B13441A
:1029A000DBB2573BDAB2074B1A702A237B7348E03D
:1029B0008503002086030020870300208203002077
:1029C000B0020020830300207B7B2A2B19D13B7BA4
:1029D0000D2B05D03B7B0A2B02D03B7B002B10D16B
:1029E0001D4B1A781D4B1B789A4204D1FB78184670
:1029F00000F070F82CE0FB7819460420FFF750FD3A
:102A000026E07B7B312B0DD13B7B0D2B05D03B7B17
:102A10000A2B02D03B7B002B04D1FB78184600F038
:102A200059F815E07B7B2A2B05D1FB781946052048
:102A3000FFF736FD0CE0FB7819460020FFF730FD6C
:102A400006E0FB89B3F5007FFFF44BAE00E000BF6A
:102A50001437BD4690BD00BF8203002083030020D1
:102A600080B584B000AF7860396007F10C03194677
:102A700078680AF0A1FDB0EE407AF0EE607A3B682B
:102A800083ED007B08F0A8FF03461B68002B09D1EB
:102A9000FB687A689A4205D0FB681B78002B01D14D
:102AA000012300E0002318461037BD4680BD00BF5B
:102AB00080B582B000AF78603960786808F088FF30
:102AC00003461AB23B681A80012318460837BD46F0
:102AD00080BD00BF80B5A6B000AF0346FB71E34BDD
:102AE0001B78313B482B00F2248701A252F823F0D7
:102AF000152C0008892C0008FD2C0008333900082B
:102B0000B938000833390008333900083339000870
:102B1000FF3600083339000833390008333900081C
:102B200033390008333900083339000833390008D5
:102B3000032F0008333900083339000833390008FF
:102B400033390008333900083339000833390008B5
:102B500033390008333900083339000833390008A5
:102B60003339000833390008333900083339000895
:102B700033390008333900086B380008333900084E
:102B80003339000833390008333900083339000875
:102B90003339000833390008333900083339000865
:102BA0003339000833390008333900083339000855
:102BB0008F2E00085F300008712D0008333900089F
:102BC000D3300008772F0008EB2F0008F5360008F7
:102BD00071330008333900083339000841330008E5
:102BE0007937000891350008333900083132000880
:102BF000333900087536000847310008B73100083E
:102C0000333900081133000833390008333900081C
:102C1000A1320008964B1B78012B1CD107F18803C9
:102C200019469448FFF71CFF0346002B00F08786E7
:102C300097ED227BB0EE470AF0EE670AFEF7F0FD53
:102C4000FB7919463120FFF781FCFB791846FFF725
:102C500045FC00F074BEFB7919463120FFF776FC85
:102C6000FEF714FEB0EE407AF0EE607AFB7918467B
:102C7000B0EE470AF0EE670AFFF7B4FCFB7918469E
:102C8000FFF72CFC00F05BBE794B1B78012B1CD1AD
:102C900007F1800319467748FFF7E2FE0346002B51
:102CA00000F04F8697ED207BB0EE470AF0EE670A02
:102CB000FEF7C8FDFB7919463220FFF747FCFB7988
:102CC0001846FFF70BFC00F03CBEFB79194632209A
:102CD000FFF73CFCFEF7EAFDB0EE407AF0EE607ADA
:102CE000FB791846B0EE470AF0EE670AFFF77AFC68
:102CF000FB791846FFF7F2FB00F023BE5C4B1B7814
:102D0000012B1CD107F1780319465A48FFF7A8FE9A
:102D10000346002B00F0178697ED1E7BB0EE470AA6
:102D2000F0EE670AFEF7A0FDFB7919463320FFF7A6
:102D30000DFCFB791846FFF7D1FB00F004BEFB79D0
:102D400019463320FFF702FCFEF7C0FDB0EE407AD3
:102D5000F0EE607AFB791846B0EE470AF0EE670AAB
:102D6000FFF740FCFB791846FFF7B8FB00F0EBBD1E
:102D70003F4B1B78032B40D107F1700319463D48A8
:102D8000FFF76EFE0346002B00F0DF8597ED1C7BFE
:102D9000B0EE470AF0EE670AFEF742FD07F1700356
:102DA00019463548FFF75CFE0346002B00F0CD8541
:102DB00097ED1C7BB0EE470AF0EE670AFEF742FD86
:102DC00007F1700319462D48FFF74AFE0346002B12
:102DD00000F0BB8597ED1C7BB0EE470AF0EE670A6A
:102DE000FEF742FDFB7919466320FFF7AFFBFB7945
:102DF0001846FFF773FB00F0A8BD1D4B1B78002B96
:102E00003ED1FB7919466320FFF7A0FBFEF73EFD9C
:102E1000B0EE407AF0EE607AFB791846B0EE470AE1
:102E2000F0EE670AFFF7DEFBFEF740FDB0EE407AFA
:102E3000F0EE607AFB791846B0EE470AF0EE670ACA
:102E4000FFF7D0FBFEF742FDB0EE407AF0EE607A7D
:102E5000FB791846B0EE470AF0EE670AFFF7C2FBAF
:102E6000FB791846FFF73AFB00F06FBD85030020A1
:102E700087030020B0020020C5020020DA020020F3
:102E8000FB7919460720FFF70BFB00F05EBDDA4B1C
:102E90001B78012B1CD107F168031946D748FFF7AF
:102EA000DFFD0346002B00F0528597ED1A7BB0EE54
:102EB000470AF0EE670AFEF77FFDFB7919466120AD
:102EC000FFF744FBFB791846FFF708FB00F03FBD16
:102ED000FB7919466120FFF739FBFEF797FDB0EE4D
:102EE000407AF0EE607AFB791846B0EE470AF0EED1
:102EF000670AFFF777FBFB791846FFF7EFFA00F058
:102F000026BDBD4B1B78012B1CD107F16003194670
:102F1000BA48FFF7A5FD0346002B00F01A8597ED90
:102F2000187BB0EE470AF0EE670AFEF7DFFCFB798C
:102F300019464120FFF70AFBFB791846FFF7CEFA46
:102F400000F007BDFB7919464120FFF7FFFAFEF7B5
:102F5000DFFCB0EE407AF0EE607AFB791846B0EE16
:102F6000470AF0EE670AFFF73DFBFB791846FFF7CB
:102F7000B5FA00F0EEBCA04B1B78012B1CD107F179
:102F8000580319469D48FFF76BFD0346002B00F0E0
:102F9000E28497ED167BB0EE470AF0EE670AFEF783
:102FA000C7FCFB7919466620FFF7D0FAFB79184673
:102FB000FFF794FA00F0CFBCFB7919466620FFF7C3
:102FC000C5FAFEF7C7FCB0EE407AF0EE607AFB7906
:102FD0001846B0EE470AF0EE670AFFF703FBFB79ED
:102FE0001846FFF77BFA00F0B6BC834B1B78012B29
:102FF0001CD107F1500319468048FFF731FD034605
:10300000002B00F0AA8497ED147BB0EE470AF0EE97
:10301000670AFEF7AFFCFB7919466720FFF796FABF
:10302000FB791846FFF75AFA00F097BCFB7919466E
:103030006720FFF78BFAFEF7AFFCB0EE407AF0EEB8
:10304000607AFB791846B0EE470AF0EE670AFFF7A0
:10305000C9FAFB791846FFF741FA00F07EBC664BCF
:103060001B78012B1CD107F1480319466348FFF771
:10307000F7FC0346002B00F0728497ED127BB0EE54
:10308000470AF0EE670AFEF717FDFB791946622042
:10309000FFF75CFAFB791846FFF720FA00F05FBCF7
:1030A000FB7919466220FFF751FAFEF737FDB0EEC3
:1030B000407AF0EE607AFB791846B0EE470AF0EEFF
:1030C000670AFFF78FFAFB791846FFF707FA00F057
:1030D00046BC494B1B78012B1CD107F14003194614
:1030E0004648FFF7BDFC0346002B00F03A8497EDFD
:1030F000107BB0EE470AF0EE670AFEF721FDFB7980
:1031000019466520FFF722FAFB791846FFF7E6F922
:1031100000F027BCFB7919466520FFF717FAFEF788
:1031200041FDB0EE407AF0EE607AFB791846B0EEE1
:10313000470AF0EE670AFFF755FAFB791846FFF7E2
:10314000CDF900F00EBC2C4B1B78012B1BD107F1E5
:10315000380319462948FFF783FC0346002B00F08B
:10316000028497ED0E7BB0EE470AF0EE670AFEF799
:103170002BFDFB7919467320FFF7E8F9FB79184618
:10318000FFF7ACF9EFE3FB7919467320FFF7DEF99F
:10319000FEF744FDB0EE407AF0EE607AFB79184617
:1031A000B0EE470AF0EE670AFFF71CFAFB79184603
:1031B000FFF794F9D7E3104B1B78012B20D107F1CF
:1031C000300319460D48FFF74BFC0346002B00F077
:1031D000CC8397ED0C7BB0EE470AF0EE670AFEF762
:1031E0002DFDFB7919467420FFF7B0F9FB791846DD
:1031F000FFF774F9B9E300BF87030020B002002095
:10320000FB7919467420FFF7A1F9FEF729FDB0EE0E
:10321000407AF0EE607AFB791846B0EE470AF0EE9D
:10322000670AFFF7DFF9FB791846FFF757F99CE3C8
:10323000CA4B1B78012B1BD107F128031946C8483C
:10324000FFF70EFC0346002B00F0918397ED0A7BFD
:10325000B0EE470AF0EE670AFEF712FDFB79194659
:103260007020FFF773F9FB791846FFF737F97EE313
:10327000FB7919467020FFF769F9FEF715FDB0EEEE
:10328000407AF0EE607AFB791846B0EE470AF0EE2D
:10329000670AFFF7A7F9FB791846FFF71FF966E3FE
:1032A000AE4B1B78012B1BD107F120031946AC480C
:1032B000FFF7D6FB0346002B00F05B8397ED087BFE
:1032C000B0EE470AF0EE670AFEF702FDFB791946F9
:1032D0007920FFF73BF9FB791846FFF7FFF848E341
:1032E000FB7919467920FFF731F9FEF705FDB0EEBD
:1032F000407AF0EE607AFB791846B0EE470AF0EEBD
:10330000670AFFF76FF9FB791846FFF7E7F830E334
:10331000FB7919467620FFF719F9FEF70DFDB0EE9F
:10332000407AF0EE607AFB791846B0EE470AF0EE8C
:10333000670AFFF757F9FB791846FFF7CFF823E341
:10334000FB7919466C20FFF701F9FEF705FDB0EE99
:10335000407AF0EE607AFB791846B0EE470AF0EE5C
:10336000670AFFF73FF9FB791846FFF7B7F80BE359
:103370007A4B1B78042B4CD107F118031946784877
:10338000FFF796FB0346002B00F0F58207F11803C8
:10339000023319467348FFF78BFB0346002B00F0FE
:1033A000EA8207F11803043319466F48FFF780FBE0
:1033B0000346002B00F0DF8207F11803063319469D
:1033C0006A48FFF775FB0346002B00F0D482B7F97B
:1033D0001830DAB2664B83F83E20B7F91A30DAB209
:1033E000634B83F84020B7F91C30DAB2604B83F8A6
:1033F0003F20B7F91E30DAB25D4B83F84120FB79EC
:1034000019466920FFF7A2F8FB791846FFF766F81E
:10341000B1E2524B1B78002B40F09980FB791946A2
:103420006920FFF793F8524B93F83E301A46FB7928
:1034300019461046FFF712F94D4B93F840301A46E3
:10344000FB7919461046FFF709F9494B93F83F30CD
:103450001A46FB7919461046FFF700F9444B93F8DA
:1034600041301A46FB7919461046FFF7F7F8FB7909
:1034700019464048FFF78CF80023C7F89430002322
:10348000C7F894305AE0FB7919463B48FFF780F8BB
:10349000FB791946D7F89400FFF7E0F8FB79194655
:1034A0003648FFF775F8D7F8940000F061FE024641
:1034B000FB7919461046FFF7D1F82D4B93F83E30B3
:1034C0001A46D7F894309A4205D1FB7919462C4810
:1034D000FFF75EF828E0264B93F840301A46D7F8FD
:1034E00094309A4205D1FB7919462648FFF750F8E7
:1034F0001AE01F4B93F83F301A46D7F894309A429F
:1035000005D1FB7919462048FFF742F80CE0184B2B
:1035100093F841301A46D7F894309A4204D1FB7997
:1035200019461A48FFF734F8FB7919461148FFF796
:103530002FF8D7F894300133C7F89430D7F8943087
:10354000112BA0DDFB791846FEF7C8FF13E2FB79CB
:1035500019460720FEF7A4FF0DE200BF87030020F5
:10356000B0020020C5020020DA020020EF02002095
:10357000F00A0020ECF80008F0F8000814F9000840
:1035800018F9000838F9000860F9000884F9000803
:10359000BD4B1B78022B53D107F110031946BB48D2
:1035A000FFF786FA0346002B00F0E78107F11003CE
:1035B00002331946B648FFF77BFA0346002B00F0AA
:1035C000DC81FB7919466E20FEF7C0FFB7F9103099
:1035D000B3F5AF6F2EDDB7F91030B3F5C86F29DA48
:1035E000B7F91230B3F5AF6F24DDB7F91230B3F588
:1035F000C86F1FDAB7F91020B7F912309A420ADA09
:10360000B7F910309BB2B7F9122092B211461846A2
:10361000FDF7FEFF09E0B7F912309BB2B7F91020B1
:1036200092B211461846FDF7F3FFFB791846FEF7F4
:1036300055FFA2E1FB7919460920FEF731FF9CE115
:10364000FB7919466E20FEF781FF924B5B8F1A467D
:10365000FB7919461046FFF701F88E4B9B8F1A46EF
:10366000FB7919461046FEF7F9FFFB791846FEF77D
:1036700035FF82E1844B1B78012B28D107F10E0323
:1036800019468248FFF714FA0346002B00F07781B1
:10369000FB7919467220FEF759FFB7F90E30012B5E
:1036A00004D0B7F90E30B3F1FF3F0AD1B7F90E30AD
:1036B0005AB2784B83F83920FB791846FEF70EFF93
:1036C0005DE1FB7919460A20FEF7EAFE57E1FB7936
:1036D00019467220FEF73AFF6E4B93F939301A46BD
:1036E000FB7919461046FEF7B9FFFB791846FEF73D
:1036F000F5FE44E1FB79184600F050F944E100235F
:10370000A7F89230FB7919463920FEF71FFFFB79A5
:1037100019466148FEF73CFF0023A7F8923022E0EB
:10372000FB7919465D48FEF733FFB7F99230FA7915
:1037300011461846FEF792FFFB7919465848FEF7E6
:1037400027FFB7F99230184600F012FD0246FB79C8
:1037500019461046FEF782FFB7F992309BB201334B
:103760009BB2A7F89230B7F99230112BD8DDFB79D4
:103770001846FEF7B3FE07E1434B1B78012B31D10E
:1037800007F10C0319464148FFF792F90346002B55
:1037900000F0F780FB7919466D20FEF7D7FEB7F9E8
:1037A0000C30002B0BD0B7F90C30012B07D0B7F938
:1037B0000C30032B03D0B7F90C30022B0CD1B7F926
:1037C0000C30DAB2334B83F84220FEF7A9FAFB79CA
:1037D0001846FEF783FED4E0FB7919460B20FEF76E
:1037E0005FFECEE0FB7919466D20FEF7AFFE294B58
:1037F00093F842301A46FB7919461046FEF72EFF21
:10380000FB7919462748FEF7C3FE224B93F8423056
:10381000002B05D1FB7919462348FEF7B9FE1FE0BE
:103820001C4B93F84230012B05D1FB7919461F48F8
:10383000FEF7AEFE14E0174B93F84230032B05D190
:10384000FB7919461A48FEF7A3FE09E0114B93F8DD
:103850004230022B04D1FB7919461648FEF798FE38
:10386000FB791846FEF73AFE8BE0FB7919465320A8
:10387000FEF76CFEFB791846FEF730FEFB79184622
:1038800000F072F980E000BF87030020B002002042
:10389000C5020020F00A0020A0F90008A8F90008DD
:1038A000B0F90008B4F90008B8F90008CCF900082C
:1038B000E8F9000804FA0008354B1B78012B1FD1EA
:1038C00007F10A0319463348FFF7F2F80346002BC5
:1038D00059D0B7F90A309BB219460320FDF73CFFD7
:1038E000B7F90A309AB22C4BA3F86020FB7919463D
:1038F0003520FEF72BFEFB791846FEF7EFFD42E080
:10390000FB7919463520FEF721FE0320FDF756FF0F
:103910000346184607F024FD0A460146FB7918467F
:1039200042EC101BFEF75EFEFB791846FEF7D6FD53
:1039300029E0FB7919460620FEF7B2FD24E000BF1E
:1039400022E000BF20E000BF1EE000BF1CE000BF7F
:103950001AE000BF18E000BF16E000BF14E000BF8F
:1039600012E000BF10E000BF0EE000BF0CE000BF9F
:103970000AE000BF08E000BF06E000BF04E000BFAF
:1039800002E000BF00E000BF00BF9837BD4680BD29
:1039900087030020B0020020F00A002080B582B02A
:1039A00000AF0346FB71FB79184600F047FFFB7937
:1039B000184600F043FFFB79184600F03FFFFB7903
:1039C00019464C4800F026FFFB79184600F036FFF8
:1039D000FB791946484800F01DFFFB791946474816
:1039E00000F018FFFB791946454800F013FFFB79FA
:1039F0001946444800F00EFFFB791946424800F092
:103A000009FFFB791946414800F004FFFB7919468C
:103A10003F4800F0FFFEFB79012B04D1FB791946EA
:103A20003C4800F0F7FEFB7919463B4800F0F2FEF7
:103A3000FB791946394800F0EDFEFB791946384804
:103A400000F0E8FEFB791946364800F0E3FEFB790A
:103A50001946354800F0DEFEFB791946334800F080
:103A6000D9FEFB791946324800F0D4FEFB7919469D
:103A7000304800F0CFFEFB7919462F4800F0CAFE0F
:103A8000FB7919462D4800F0C5FEFB7919462C48F4
:103A900000F0C0FEFB7919462A4800F0BBFEFB7916
:103AA0001946294800F0B6FEFB791946274800F070
:103AB000B1FEFB791946264800F0ACFEFB791946A9
:103AC000244800F0A7FEFB791946234800F0A2FE27
:103AD000FB791946214800F09DFEFB7919462048E4
:103AE00000F098FEFB79184600F0A8FE00BF0837EA
:103AF000BD4680BD10FA000828FA000874FA0008D4
:103B0000C0FA00080CFB000860FB0008B0FB0008CE
:103B100018FC00085CFC0008BCFC000804FD000860
:103B200044FD000898FD0008F4FD00085CFE000854
:103B3000BCFE0008FCFE000844FF00089CFF0008D3
:103B4000E8FF00083C000108A4000108E4000108A7
:103B5000500101089C010108E00101082002010850
:103B60006002010800000000B0B582B000AF03465B
:103B7000FB71FB79184600F061FEFB79184600F0F6
:103B80005DFEFB79184600F059FEFB791946864820
:103B900000F040FEFB79184600F050FEFB79184615
:103BA00000F04CFEFB791946804800F0E1FDFB79FE
:103BB00019467F4800F02EFEFB79184600F03EFEC5
:103BC000FB79184600F03AFEFB791946794800F077
:103BD00021FEFB791946784800F01CFEFB79194656
:103BE000764800F017FEFB791946754800F012FE82
:103BF000FB791946734800F00DFEFB79184600F07A
:103C00001DFEFB791946704800F0B2FDFDF7CAFFB2
:103C100051EC100B62A3D3E9002307F07FFE0346AB
:103C2000002B05D0FB791946684800F0F3FD59E0F8
:103C3000FDF774FF55EC104BFDF7B4FF53EC102B60
:103C40002046294607F074FE0346002B25D0FDF7D9
:103C500065FFB0EE407AF0EE607AFB791846B0EE80
:103C6000470AF0EE670A00F093FDFB7919465848C1
:103C700000F07EFDFDF796FFB0EE407AF0EE607A40
:103C8000FB791846B0EE470AF0EE670A00F080FDB7
:103C9000FB79184600F0D2FD24E0FDF783FFB0EE7B
:103CA000407AF0EE607AFB791846B0EE470AF0EE03
:103CB000670A00F06DFDFB791946454800F058FD94
:103CC000FDF72CFFB0EE407AF0EE607AFB791846F3
:103CD000B0EE470AF0EE670A00F05AFDFB7918468D
:103CE00000F0ACFDFB79184600F0A8FDFB79184602
:103CF00000F0A4FDFB791946364800F08BFDFB79F6
:103D00001946354800F086FDFB79184600F096FD0F
:103D1000FB791946314800F02BFD254B93ED0A7BCA
:103D2000FB791846B0EE470AF0EE670A00F030FD66
:103D3000FDF738FF51EC100B19A3D3E9002307F06E
:103D4000EDFD0346002B05D0FB791946244800F011
:103D500061FD03E0FB79184600F070FDFB79194620
:103D6000204800F005FD124B93ED0C7BFB791846C3
:103D7000B0EE470AF0EE670A00F00AFDFDF712FF09
:103D800051EC100B06A3D3E9002307F0C7FD03464F
:103D9000002B29D0FB791946114800F03BFD27E0A4
:103DA00000000000F069F840A0020108B00201081C
:103DB000F00A0020CC020108FC0201086803010897
:103DC000C4030108300401086004010870040108FC
:103DD0008C0401089804010804050108680501081D
:103DE000A8050108B8050108FB79184600F026FD72
:103DF000FB79184600F022FDFB79184600F01EFD05
:103E0000FB791946B74800F005FDFB791946B6481D
:103E100000F000FDFB791946B44800F0FBFCFB798B
:103E2000184600F00BFDFB791946B14800F0A0FCE4
:103E3000B04B93ED047BFB791846B0EE470AF0EEE9
:103E4000670A00F0A5FCFB791946AB4800F090FC2E
:103E5000A84B93ED067BFB791846B0EE470AF0EECF
:103E6000670A00F095FCFB791946A44800F080FC35
:103E7000A04B93ED087BFB791846B0EE470AF0EEB5
:103E8000670A00F085FCFB79184600F0D7FCFB7947
:103E9000184600F0D3FCFB79184600F0CFFCFB7904
:103EA0001946974800F0B6FCFB791946954800F092
:103EB000B1FCFB791946944800F0ACFCFB7918463C
:103EC00000F0BCFCFB791946904800F051FC894B8E
:103ED0005B8F1A46FB791946104600F013FCFB79FC
:103EE00019468B4800F044FC824B9B8F1A46FB79A5
:103EF0001946104600F006FCFB79184600F09EFCBF
:103F0000FB79184600F09AFCFB79184600F096FC05
:103F1000FB7919467F4800F07DFCFB7919467E4805
:103F200000F078FCFB79184600F088FCFB79194614
:103F30007A4800F01DFC6F4B93F83E301A46FB792F
:103F40001946104600F0DEFBFB791946744800F074
:103F50000FFC684B93F83F301A46FB791946104620
:103F600000F0D0FBFB7919466E4800F001FC614B74
:103F700093F840301A46FB791946104600F0C2FB10
:103F8000FB791946684800F0F3FB5A4B93F841302F
:103F90001A46FB791946104600F0B4FBFB79184627
:103FA00000F04CFCFB79184600F048FCFB79184601
:103FB00000F044FCFB7919465C4800F02BFCFB79CF
:103FC00019465B4800F026FCFB791946594800F079
:103FD00021FCFB79184600F031FCFB791946564864
:103FE00000F0C6FB434B93F939301A46FB7919466A
:103FF000104600F087FBFB79184600F01FFCFB79A8
:10400000184600F01BFCFB79184600F017FCFB7902
:1040100019464A4800F0FEFBFB79184600F00EFCFA
:10402000FB791946464800F0A3FB324B93F8383031
:104030001A46FB791946104600F064FBFB791846D6
:1040400000F0FCFBFB79184600F0F8FBFB79184602
:1040500000F0F4FBFB7919463A4800F0DBFBFB79F2
:10406000184600F0EBFBFB791946374800F080FB5F
:10407000204B93F842301A46FB791946104600F05F
:1040800041FBFB791946314800F072FB194B93F85C
:104090004230002B05D1FB7919462D4800F0BAFBC0
:1040A0000FE0144B93F84230012B05D1FB791946F0
:1040B000284800F0AFFB04E0FB791946264800F0E1
:1040C000A9FBFB79184600F0B9FBFB79184600F014
:1040D000B5FBFB79184600F0B1FB00BF0837BD46C1
:1040E000B0BD00BFF00501085C060108C806010864
:1040F000E8060108F00A0020000701080807010887
:10410000100701087C070108E807010844080108B6
:104110005808010864080108D4080108FC080108CF
:104120001809010824090108300901083C0901089F
:10413000A8090108140A0108840A01089C0A010858
:10414000E00A0108F00A0108080B0108B4F90008A8
:10415000B8F90008100B010804FA000880B400AF99
:10416000024B1846BD465DF8047B7047880300206B
:1041700080B582B000AF78607B68002B18DB7B686D
:10418000112B15DC01F0D8FE01460C4A7B68043384
:10419000DB0013445B68CB1A40F6B832934201D976
:1041A000002306E0054A7B68043332F8333000E030
:1041B000002318460837BD4680BD00BFA403002079
:1041C00080B500AFA74B1B780F2B40F0698101F041
:1041D000B3FE0246A44B5A60A24B1B68C3F30A23EA
:1041E0009BB2184600F062F903461A469E4B1A84A9
:1041F0009D4B5B689C4A53629A4B5B88C3F3CA032E
:104200009BB2184600F052F903461A46964B1A859F
:10421000954B5B68944AD362924BDA789209D2B29A
:104220009B88C3F308039B0013439BB2184600F01E
:104230003DF903461A468C4B1A868B4B5B688A4ABB
:104240005363884B5B68C3F34A239BB2184600F064
:104250002DF903461A46844B1A87834B5B68824AC2
:10426000D363804BDB88C3F30A139BB2184600F07C
:104270001DF903461A467C4BA3F840207A4B5B6835
:10428000794A5364774BDA79D209D2B21B89C3F3E6
:1042900009035B0013439BB2184600F007F903467D
:1042A0001A46714BA3F848206F4B5B686E4AD36483
:1042B0006C4B9B68C3F38A239BB2184600F0F6F858
:1042C00003461A46684BA3F85020674B5B68664A62
:1042D0005365644B5B89C3F34A139BB2184600F0E5
:1042E000E5F803461A46604BA3F858205E4B5B681E
:1042F0005D4AD3655B4B9B89C3F30A039BB21846A7
:1043000000F0D4F803461A46574BA3F86020564BEA
:104310005B68554A5366534BDB68C3F3CA239BB2B1
:10432000184600F0C3F803461A464F4BA3F868201E
:104330004D4B5B684C4AD3664A4BDA89920992B27C
:104340001B7C03F001039B0213439BB2184600F051
:10435000ADF803461A46444BA3F87020424B5B6805
:10436000414A53673F4B1B8AC3F34A039BB218462B
:1043700000F09CF803461A463B4BA3F878203A4BD2
:104380005B68394AD367374B1B69C3F30A339BB267
:10439000184600F08BF803461A46334BA3F88020EA
:1043A000314B5B68304AC2F884302E4B5A8AD209AE
:1043B00092B21B7D03F003035B0213439BB21846CA
:1043C00000F074F803461A46274BA3F88820264BC2
:1043D0005B68254AC2F88C30224B9B8AC3F38A0360
:1043E0009BB2184600F062F803461A461E4BA3F82B
:1043F00090201D4B5B681C4AC2F89430194B5B69D6
:10440000C3F34A339BB2184600F050F803461A46ED
:10441000154BA3F89820144B5B68134AC2F89C30E4
:10442000104BDB7D03F00103002B05D00E4B40F653
:104430003402A3F8A02004E00B4B4FF46172A3F800
:10444000A020094B5B68084AC2F8A430054BDB7D0D
:1044500003F00203002B09D0034B40F63402A3F80B
:10446000A82008E088030020A40300200D4B4FF48F
:104470006172A3F8A8200B4B5B680A4AC2F8AC3003
:10448000094BDB7D03F00403DAB2064B83F8B0205E
:10449000054BDB7D03F00803DAB2024B83F8B12051
:1044A00000BF80BDA40300208803002080B483B037
:1044B00000AF78607B6807EE903AF8EE677AB6EE68
:1044C000047A67EE877A9FED087A77EE877AFCEEBA
:1044D000E77AC7ED007A3B889BB218460C37BD4699
:1044E0005DF8047B704700BF00005C4480B58EB06F
:1044F00000AF78607B681B681B687B637B681B6808
:10450000DB683B637B681B685B69FB620023BB6203
:104510007B681B685B6887F827307B6B03F00F03B1
:10452000BB62BB6A002B64D17B6B03F02003002BC2
:1045300000F0E0803B6B03F02003002B00F0DA80FA
:1045400001F0FAFC38626D4B1B683A6AD31AFB61C2
:10455000FB6940F6AC5293420DD97B68684A9A6277
:104560007B681922DA85654A3B6A1360634BDB6816
:104570000133624AD3607B68DB8D9BB2002B00F075
:10458000B9807B689B6A97F827201A707B68DB8D5F
:104590009BB2192B05D17B689B6A1B780F2B40F0CF
:1045A000A9807B68DB8D9BB2192B02D1534A3B6AF1
:1045B00013607B68DB8D9BB2013B9AB27B68DA8526
:1045C0007B689B6A5A1C7B689A627B68DB8D9BB216
:1045D000002B40F08F80FFF7F3FD7B68484A9A621A
:1045E0007B681922DA85454B9B680133434A936007
:1045F00080E07B6B03F00103002B1AD03B6B03F4CC
:104600008073002B15D07B68DB6B43F001027B6865
:10461000DA630023BB617B681B681B68BB617B6836
:104620001B685B68BB61BB69344B1B690133334A50
:1046300013617B6B03F00403002B1AD0FB6A03F0B9
:104640000103002B15D07B68DB6B43F002027B6813
:10465000DA6300237B617B681B681B687B617B6876
:104660001B685B687B617B69244B5B690133234A70
:1046700053617B6B03F00203002B1AD0FB6A03F03B
:104680000103002B15D07B68DB6B43F004027B68D1
:10469000DA6300233B617B681B681B683B617B68B6
:1046A0001B685B683B613B69144B9B690133134A90
:1046B00093617B6B03F00803002B1BD0FB6A03F0B4
:1046C0000103002B16D07B68DB6B43F008027B688C
:1046D000DA630023FB607B681B681B68FB607B68F8
:1046E0001B685B68FB60FB68044BDB690133034AB2
:1046F000D361FFE700BF3837BD4680BDA40300206B
:104700008803002080B582B000AF78600B46FB7054
:104710007B68074A5021074808F0D2F8FB78194611
:10472000044800F09BF800BF0837BD4680BD00BFBD
:104730001C0B0108580B002080B582B000AF034667
:104740000A46FB711346BB71FB79074A50210748A3
:1047500008F0B6F8BB791946044800F07FF800BFAE
:104760000837BD4680BD00BF240B0108580B002050
:1047700080B582B000AF78600B46FB70FB781946BD
:10478000786800F06BF800BF0837BD4680BD00BFF9
:1047900090B587B002AF87ED020B0346FB7119A3FA
:1047A000D3E90023D7E9020107F0E0F80346002B24
:1047B00009D116A3D3E90023D7E9020107F0B8F81D
:1047C0000346002B05D0FB7919460B4800F046F84C
:1047D0000DE0D7E90234CDE90034084A50210848F9
:1047E00008F06EF8FB791946054800F037F800BF6D
:1047F0001437BD4690BD00BF300B01083C0B0108CB
:10480000580B0020000000007E842E4100000000B4
:104810007E842EC180B582B000AF78600B46FB70FD
:10482000FB781946786800F019F8FB78184600F014
:1048300005F800BF0837BD4680BD00BF80B582B017
:1048400000AF0346FB71FB791946034800F006F8F8
:1048500000BF0837BD4680BD740B010880B582B02B
:1048600000AF78600B46FB70FB78012B02D0FB7821
:10487000022B02D1786800F08DFE00BF0837BD46DC
:1048800080BD00BF0649074A074B9A42BEBF51F898
:10489000040B42F8040BF8E704488047044800473B
:1048A000E80E010800000020700200205D500008A2
:1048B000E50100083349344A002301E041F8043B94
:1048C0009142FBD3FDF75AFAFEE7FEE7FEE7FEE76B
:1048D000FEE7FEE7FEE7FEE7FEE7FEE7FEE7FEE7B0
:1048E000FEE7FEE7FEE7FEE7FEE7FEE7FEE7FEE7A0
:1048F000FEE7FEE7FEE7FEE7FEE7FEE7FEE7FEE790
:10490000FEE7FEE7FEE7FEE7FEE7FEE7FEE7FEE77F
:10491000FEE7FEE7FEE7FEE7FEE7FEE7FEE7FEE76F
:10492000FEE7FEE7FEE7FEE7FEE7FEE7FEE7FEE75F
:10493000FEE7FEE7FEE7FEE7FEE7FEE7FEE7FEE74F
:10494000FEE7FEE7FEE7FEE7FEE7FEE7FEE7FEE73F
:10495000FEE7FEE7FEE7FEE7FEE7FEE7FEE7FEE72F
:10496000FEE7FEE7FEE7FEE7FEE7FEE7FEE7FEE71F
:10497000FEE7FEE7FEE7FEE7FEE7FEE7FEE7FEE70F
:10498000FEE70000700200202034002080B500AF58
:10499000032001F0C5FB002200216FF00B0001F0A5
:1049A000CBFB002200216FF00A0001F0C5FB0022C2
:1049B00000216FF0090001F0BFFB002200216FF021
:1049C000040001F0B9FB002200216FF0030001F0A8
:1049D000B3FB002200216FF0010001F0ADFB0022CB
:1049E00000214FF0FF3001F0A7FB00BF80BD00BFEA
:1049F00080B483B000AF78607B681B68054A93423F
:104A000002D1054B01221A6000BF0C37BD465DF88C
:104A1000047B7047002800403C0E474280B58AB0B6
:104A200000AF78607B681B682D4A93421ED100233B
:104A30003B612C4A2B4B5B6C43F480535364294BF2
:104A40005B6C03F480533B613B69F0237B61022381
:104A5000BB610023FB6103233B6205237B6207F1FB
:104A600014031946204801F0D7FE34E07B681B6828
:104A70001E4A93422FD10023FB601A4A194B1B6C2C
:104A800043F400431364174B1B6C03F40043FB60B7
:104A9000FB684FF400437B610223BB610023FB6191
:104AA00003233B6206237B6207F1140319460E4879
:104AB00001F0B2FE4FF4E0537B610223BB6100239F
:104AC000FB6103233B6206237B6207F11403194653
:104AD000074801F0A1FE00BF2837BD4680BD00BFDA
:104AE000003001400038024000000240003C00401D
:104AF0000008024080B485B000AF78607B681B6816
:104B00000B4A93420DD10023FB600A4A094B1B6CF0
:104B100043F002031364074B1B6C03F00203FB60BA
:104B2000FB6800BF1437BD465DF8047B704700BFCB
:104B3000000400400038024080B588B000AF7860C3
:104B40007B681B68124A93421DD10023BB60114A47
:104B5000104B1B6C43F0080313640E4B1B6C03F0EB
:104B60000803BB60BB680323FB6002233B61012396
:104B70007B610323BB610223FB6107F10C03194630
:104B8000054801F049FE00BF2037BD4680BD00BF8B
:104B9000000C0040003802400000024080B588B0A0
:104BA00000AF78607B681B680B4A93420FD10323E8
:104BB000FB6002233B6100237B610223BB61022374
:104BC000FB6107F10C031946044801F025FE00BF04
:104BD0002037BD4680BD00BF0004004000040240F5
:104BE00080B58AB000AF78607B681B68754A9342D5
:104BF00059D100233B61744A734B5B6C43F0100343
:104C00005364714B5B6C03F010033B613B694FF4E1
:104C1000C0637B610223BB610123FB6103233B6211
:104C200007237B6207F114031946684801F0F4FD7D
:104C3000674B684A1A60664B4FF000625A60644BDB
:104C400000229A60624B0022DA60614B4FF480626E
:104C50001A615F4B00225A615D4B00229A615C4BE6
:104C60000022DA615A4B4FF400321A62584B00228C
:104C70005A62574801F0C0FA0346002B04D040F2B4
:104C80008D115548FDF706FC7B68514A5A63504A1E
:104C90007B68936300220021252001F04DFA252036
:104CA00001F066FA33E17B681B684C4A934240F09E
:104CB0009F800023FB60444A434B1B6C43F400334A
:104CC0001364414B1B6C03F40033FB60FB680C2343
:104CD0007B610223BB610123FB6103233B6207234A
:104CE0007B6207F114031946384801F095FD3C4BEF
:104CF0003C4A1A603A4B4FF000625A60384B00222F
:104D00009A60374B0022DA60354B4FF480621A61AB
:104D1000334B00225A61324B00229A61304B002201
:104D2000DA612F4B00221A622D4B00225A622C4866
:104D300001F062FA0346002B04D04FF4DD712648DF
:104D4000FDF7A8FB7B68264A5A63254A7B68936374
:104D5000254B264A1A60244B4FF000625A60224BC2
:104D600040229A60204B0022DA601F4B4FF4806291
:104D70001A611D4B00225A611B4B00229A611A4B8B
:104D80000022DA61184B00221A62174B00225A6285
:104D9000154801F031FA0346002B04D04FF4E671B8
:104DA0000D48FDF777FB7B680F4A1A630E4A7B6854
:104DB000936300220021262001F0BEF9262001F095
:104DC000D7F9A4E000100140003802400000024082
:104DD000CC06002040640240780B010800440040EB
:104DE00098040020886002402C070020A060024048
:104DF0007B681B68484A934240F089800023BB606F
:104E0000464A464B1B6C43F480231364434B1B6C94
:104E100003F48023BB60BB684FF440637B610223D3
:104E2000BB610123FB6103233B6207237B6207F124
:104E3000140319463A4801F0EFFC3A4B3A4A1A601B
:104E4000384B4FF000625A60364B00229A60354B67
:104E50000022DA60334B4FF480621A61314B00223A
:104E60005A61304B00229A612E4B0022DA612D4BA1
:104E700000221A622B4B00225A622A4801F0BCF928
:104E80000346002B04D040F2F9112848FDF702FB3D
:104E90007B68244A5A63234A7B689363244B254AE0
:104EA0001A60234B4FF000625A60214B40229A60F7
:104EB0001F4B0022DA601E4B4FF480621A611C4BBC
:104EC00000225A611A4B00229A61194B0022DA61C2
:104ED000174B00221A62164B00225A62144801F046
:104EE0008BF90346002B04D040F20B210F48FDF74D
:104EF000D1FA7B680E4A1A630D4A7B6893630022DD
:104F00000021272001F018F9272001F031F900BF16
:104F10002837BD4680BD00BF004800400038024031
:104F200000040240F804002028600240780B0108C9
:104F30009C0500205860024080B400AF00BFBD4611
:104F40005DF8047B704700BF80B400AFFEE700BF90
:104F500080B400AFFEE700BF80B400AFFEE700BF43
:104F600080B400AFFEE700BF80B400AF00BFBD4615
:104F70005DF8047B704700BF80B400AF00BFBD4642
:104F80005DF8047B704700BF80B400AF00BFBD4632
:104F90005DF8047B704700BF80B500AF00F0BEFF36
:104FA00001F01CF900BF80BD80B500AF024801F0E0
:104FB000F3F900BF80BD00BFF804002080B500AF4A
:104FC000024801F0E9F900BF80BD00BF9C05002048
:104FD00080B500AF024801F0DFF900BF80BD00BF1F
:104FE0009804002080B500AF024801F0D5F900BF59
:104FF00080BD00BF2C07002080B500AF0248FFF73E
:1050000075FA00BF80BD00BF8C07002080B500AFDF
:10501000024804F0E9F900BF80BD00BF440A002047
:1050200080B500AF024804F0DFF900BF80BD00BFCB
:105030005805002080B500AF024801F0ADF900BF6F
:1050400080BD00BFCC06002080B500AF024801F053
:10505000D3FE00BF80BD00BF282E002080B400AF6B
:10506000164A164BD3F8883043F47003C2F88830E0
:10507000134A134B1B6843F001031360104B0022CB
:105080009A600F4A0E4B1B6823F0847323F480331D
:1050900013600B4B0B4A5A60094A094B1B6823F4F7
:1050A00080231360064B0022DA60044B4FF000624D
:1050B0009A6000BFBD465DF8047B704700ED00E0DC
:1050C000003802401030002480B500AF00220849AB
:1050D0000848FBF701FB08490648FBF729FB07498D
:1050E0000448FBF75FFA0348FBF73CFB00BF80BDB9
:1050F00094010020A80B00200C0000208401002057
:1051000080B500AF002205490548FBF763FA054961
:105110000348FBF779FA0023184680BDD01500201C
:10512000A80B0020D00D002080B400AF002318464B
:10513000BD465DF8047B704780B483B000AF034682
:105140003960FB711346BB80FB79232B00F28C8006
:1051500001A252F823F000BF69520008695200080A
:105160006952000869520008695200086952000833
:105170006952000869520008695200086952000823
:105180006952000869520008695200086952000813
:105190006952000869520008695200086952000803
:1051A00069520008695200086952000869520008F3
:1051B00069520008695200086952000869520008E3
:1051C00069520008695200086952000869520008D3
:1051D0006952000869520008E9510008235200088A
:1051E00069520008695200083B681A78224B1A700D
:1051F0003B685A78204B5A703B689A781E4B9A70DD
:105200003B68DA781C4BDA703B681A791A4B1A71D2
:105210003B685A79184B5A713B689A79164B9A71C8
:1052200023E0154B1A783B681A703B680133124A29
:1052300052781A703B6802330F4A92781A703B68B2
:1052400003330D4AD2781A703B6804330A4A127944
:105250001A703B680533084A52791A703B68063366
:10526000054A92791A7000E000BF002318460C37F7
:10527000BD465DF8047B7047D02D002080B584B01A
:1052800000AF786039603B681B68FB60314B1A687F
:10529000FB681A44304B1B6850339A4213D92E4B8B
:1052A0001B6803F150022B4B1B689A4204D22B4B14
:1052B00001221A70002349E0274B1A68254B1B680E
:1052C000D31A5033FB60234B1968254BA3FB0123F2
:1052D0009A0913469B0013441B01CA1A13467B818B
:1052E0007B89C3F150031A46FB689A4218D27B8926
:1052F0001C4A98187B89C3F150031A46796806F056
:10530000BBFB7B89C3F150031A467B6899187A89E5
:10531000FB681344503B1A46124806F0ADFB07E009
:105320007B89104A1344FA687968184606F0A4FB92
:10533000084B1A68FB681344064A13600A490B4875
:10534000FBF762F90948FBF79DF90023184610376F
:10535000BD4680BD58040020600400206404002085
:10536000CDCCCCCCD82D0020D0250020A80B0020FF
:1053700080B584B000AF78600B467B807EE04D4BFB
:1053800019684D4BA3FB01239A0913469B00134454
:105390001B01CA1A494B13440121184600F096F824
:1053A000444B1968444BA3FB01239A0913469B0005
:1053B00013441B01CA1A414B9B5C0A2B0ED03D4B78
:1053C00019683D4BA3FB01239A0913469B00134424
:1053D0001B01CA1A394B9B5C0D2B4AD1354B1B68FC
:1053E0000133344A1360334B1A68354B1B68D31AA8
:1053F000FB607A88FB689A4236D3314B19682E4B92
:10540000A3FB01239A0913469B0013441B01CA1AEC
:1054100013467B817A89FB681344502B08D87B891B
:10542000264A1344FA681946786806F025FB14E00A
:105430007B89224A99187B89C3F150031A46786800
:1054400006F01AFB7B897A68D0187A89FB681344C6
:10545000503B1A46194906F00FFB164B1B68184AB9
:105460001360FB689BB220E0124B1B68144A136068
:1054700004E0104B1B6801330E4A13600D4B1A6891
:10548000104B1B689A42FFF47AAF0F4B1B78012B2D
:105490000AD10C4B1B68074A13600A4B1B68084A69
:1054A0001360094B00221A70002318461037BD46BE
:1054B00080BD00BF5C040020CDCCCCCCD82D00201A
:1054C00060040020580400206404002080B586B0E9
:1054D00000AF786039602B4B1B68C3F30A037B6114
:1054E00000F02AFD3861284B93F8FC31032B43D19F
:1054F0003B68B3F5006F3FD209E000F01DFD0246A6
:105500003B69D31AB3F57A7F01D9022335E01D4BED
:105510001A683B681A441D4B1B6803F500639A42E6
:10552000EBD27A693B681344B3F5006F16D97B69F7
:10553000C3F50063FB607B69154A1344FA68796818
:10554000184606F099FA7A68FB68D1183A68FB6841
:10555000D31A1A460E4806F08FFA07E07B690C4A08
:1055600013443A687968184606F086FA054B1A68BB
:105570003B681344034A1360002318461837BD469E
:1055800080BD00BF6C040020A80B00206804002030
:10559000D01D002080B582B000AF7860786807F039
:1055A000E5F9034619467868FFF790FF0346184669
:1055B0000837BD4680BD00BF80B582B000AF1B4B31
:1055C0001B68C3F30A033B60194B1A68174B1B682F
:1055D000D31A7B60174B93F8FC31032B1BD1144B70
:1055E0001A68124B1B689A4215D03A687B681344BC
:1055F000B3F5006F03D93B68C3F500637B603B687C
:105600000D4A13447A6892B219460A48FAF7E2FF43
:105610000848FBF70DF8054B1A687B681344034AEA
:10562000136000BF0837BD4680BD00BF680400207E
:105630006C040020A80B0020D01D002080B588B08D
:1056400000AF78607B681B68B3F1A04F2CD14FF49A
:10565000C053FB6002233B6100237B610323BB61DA
:105660000A23FB6107F10C031946114801F0D4F835
:10567000104A104B5B6B43F0800353630023BB6005
:105680000C4A0C4B5B6C43F480435364094B5B6CDA
:1056900003F48043BB60BB6800220021432000F07C
:1056A0004BFD432000F064FD00BF2037BD4680BDA8
:1056B000000002400038024080B582B000AF786040
:1056C0007B68D3F8EC237B6803F56F7319461046AB
:1056D000FBF794F800BF0837BD4680BD80B582B0A7
:1056E00000AF78600B46FB707B68D3F8EC03FA7868
:1056F00079681346DB009B1A9B000B4403F501738A
:105700001A68FB781946FBF7C3F800BF0837BD4697
:1057100080BD00BF80B582B000AF78600B46FB70E3
:105720007B68D3F8EC03FA7879681346DB009B1AA0
:105730009B000B4444331A68FB781946FBF704F9C5
:1057400000BF0837BD4680BD80B582B000AF78602D
:105750007B68D3F8EC331846FBF7EEF900BF083747
:10576000BD4680BD80B584B000AF78600123FB7377
:105770007B68DB68002B02D0022B03D005E00023FE
:10578000FB7305E00123FB7302E00123FB7300BF01
:105790007B68D3F8EC33FA7B11461846FBF794F993
:1057A0007B68D3F8EC331846FBF75EF900BF10377F
:1057B000BD4680BD80B582B000AF78607B68D3F80D
:1057C000EC331846FBF790F97B681B6803F56063C0
:1057D0001A467B681B6803F560631B6843F001038E
:1057E00013607B681B6A002B05D0054A044B1B69BC
:1057F00043F00603136100BF0837BD4680BD00BFFC
:1058000000ED00E080B582B000AF78607B68D3F82F
:10581000EC331846FBF77EF900BF0837BD4680BD64
:1058200080B582B000AF78600B46FB707B68D3F820
:10583000EC33FA7811461846FBF7A6F900BF083793
:10584000BD4680BD80B582B000AF78600B46FB706E
:105850007B68D3F8EC33FA7811461846FBF786F9E3
:1058600000BF0837BD4680BD80B582B000AF78600C
:105870007B68D3F8EC331846FBF794F900BF083780
:10588000BD4680BD80B582B000AF78607B68D3F83C
:10589000EC331846FBF792F900BF0837BD4680BDD0
:1058A00080B582B000AF78607B681B78002B42D156
:1058B000234A7B68C2F8EC337B68214AC3F8202274
:1058C0001F4B4FF0A0421A601D4B04225A601C4B24
:1058D0000222DA601A4B00221A61194B00225A6127
:1058E000174B02229A61164B0022DA61144B0022F8
:1058F0001A62134B00225A62114B0022DA62104BDB
:1059000000221A630E4801F04DF90346002B04D023
:105910004FF49A710B48FCF7BDFD8021084802F056
:10592000E1F940220021064802F090F9802201218D
:10593000034802F08BF9002318460837BD4680BDA6
:10594000282E0020A80B010880B584B000AF786035
:105950000023BB730023FB737B68D3F82032184607
:1059600001F028FA0346BB73BB7B032B16D801A2B8
:1059700052F823F0855900088B5900089159000806
:10598000975900080023FB730BE00223FB7308E028
:105990000123FB7305E00223FB7302E00223FB7388
:1059A00000BFFB7B18461037BD4680BD80B584B074
:1059B00000AF7860084611461A460346FB700B4656
:1059C000BB7013463B800023BB730023FB737B68D3
:1059D000D3F82002BB783A88F97801F0ADFE03468F
:1059E000BB73BB7B032B17D801A252F823F000BF77
:1059F000015A0008075A00080D5A0008135A0008F7
:105A00000023FB730BE00223FB7308E00123FB730D
:105A100005E00223FB7302E00223FB7300BFFB7B64
:105A200018461037BD4680BD80B584B000AF7860A1
:105A30000B46FB700023BB730023FB737B68D3F81A
:105A40002032FA781146184601F0DEFE0346BB7399
:105A5000BB7B032B16D801A252F823F06D5A000825
:105A6000735A0008795A00087F5A00080023FB7314
:105A70000BE00223FB7308E00123FB7305E0022324
:105A8000FB7302E00223FB7300BFFB7B1846103759
:105A9000BD4680BD80B584B000AF78600B46FB701A
:105AA0000023BB730023FB737B68D3F82032FA78A2
:105AB0001146184601F0A0FF0346BB73BB7B032BC6
:105AC00016D801A252F823F0D95A0008DF5A00086C
:105AD000E55A0008EB5A00080023FB730BE0022391
