:020000040800F2
:1000000000000220AD6400085D6A00086D6A000807
:10001000756A00087D6A0008856A00080000000013
:100020000000000000000000000000008D6A0008D1
:100030009D6A000800000000AD6A0008BD6A000863
:1000400007650008096500080B6500080D650008D4
:100050000F650008116500081365000815650008A4
:1000600017650008196500081B6500081D65000874
:100070001F65000821650008236500082565000844
:1000800027650008296500082B6500082D65000814
:100090002F650008316500083365000835650008E4
:1000A00037650008396500083B6500081D6B0008CE
:1000B0003F65000841650008436500084565000884
:1000C00047650008496500084B6500084D65000854
:1000D0004F650008CD6A0008E16A0008F56A00086B
:1000E00057650008596500085B6500085D650008F4
:1000F0005F650008616500086365000865650008C4
:100100006765000869650008316B00086D650008C7
:100110006F65000871650008736500087565000863
:1001200077650008796500087B6500087D65000833
:100130007F65000881650008836500088565000803
:1001400087650008896500088B650008096B000851
:100150008F650008916500089365000895650008A3
:1001600097650008996500089B6500089D65000873
:100170009F650008A1650008A3650008A565000843
:10018000A7650008A965000810B5054C237833B9A8
:10019000044B13B10448AFF300800123237010BD5A
:1001A00048020020000000007C4D0108084B10B5FB
:1001B0001BB108490848AFF300800848036803B939
:1001C00010BD074B002BFBD0BDE81040184700BF07
:1001D000000000004C0200207C4D01084802002075
:1001E00000000000154B002B08BF134B9D46A3F5E4
:1001F000803A00218B460F461348144A121A0EF01B
:1002000012FD0F4B002B00D098470E4B002B00D057
:1002100098470020002104000D000D48002802D05E
:100220000C48AFF300800EF0BDFC2000290002F066
:1002300097FA0EF0A3FC00BF0000080000000220A7
:1002400000000000000000004802002040D900200B
:10025000000000000000000080B584B000AF7860AE
:100260000B46FB700023FB737B681B7C002B0ED1BD
:100270004FF4007302228121786807F0E1FA4FF40D
:10028000007302220121786807F0DAFA0BE04023BC
:1002900002228121786807F0D3FA4023022201214B
:1002A000786807F0CDFA082303228221786807F0E6
:1002B000C7FA4FF407700EF09BFC03461A467B68A2
:1002C000C3F818227B68D3F81832002B02D101231F
:1002D000FB7326E07B68D3F81832BB607B68D3F8E9
:1002E0001C321B689847BB680022C3F81422BB6805
:1002F0000022C3F818227B681B7C002B09D1BB6845
:10030000D3F804224FF400730121786807F014FC3D
:1003100007E0BB68D3F8042240230121786807F086
:100320000BFCFB7B18461037BD4680BD80B584B002
:1003300000AF78600B46FB700023FB738121786867
:1003400007F0BCFA0121786807F0B8FA82217868D2
:1003500007F0B4FA7B68D3F81832002B0ED07B6814
:10036000D3F81C325B6898477B68D3F8183218467C
:100370000EF046FC7B680022C3F81822FB7B18466F
:100380001037BD4680BD00BF80B584B000AF786037
:1003900039607B68D3F81832FB603B681B7803F048
:1003A0006003002B3AD0202B00D043E03B68DB8871
:1003B000002B29D03B681B785BB2002B11DA7B68DD
:1003C000D3F81C329B683A685078F9683A68D2884A
:1003D0009847F9683B68DB881A46786801F068F846
:1003E00029E03B685A78FB6883F800223B68DB8889
:1003F000DAB2FB6883F80122F9683B68DB881A46A9
:10040000786801F083F816E07B68D3F81C329B68AB
:100410003A6850780022396898470CE03B685B786E
:100420000A2B01D00B2B05E001220549786801F069
:100430003FF800BF00BF002318461037BD4680BDFF
:100440006402002080B485B000AF78600B46FB707A
:100450007B68D3F81832FB607B68D3F81832002B26
:1004600005D0FB680022C3F81422002300E0022319
:1004700018461437BD465DF8047B704780B584B0DC
:1004800000AF78600B46FB707B68D3F81832FB60D6
:10049000FB781946786807F089FB0246FB68C3F8C9
:1004A0000C227B68D3F81832002B0DD07B68D3F870
:1004B0001C32DB68FA68D2F80402FA6802F50372AB
:1004C00011469847002300E0022318461037BD4626
:1004D00080BD00BF80B584B000AF78607B68D3F882
:1004E0001832FB607B68D3F81C32002B15D0FB68F8
:1004F00093F80032FF2B10D07B68D3F81C329B6836
:10050000FA6892F80002F968FA6892F8012292B249
:100510009847FB68FF2283F8002200231846103713
:10052000BD4680BD80B483B000AF78607B68432255
:100530001A80034B18460C37BD465DF8047B7047A4
:100540008800002080B483B000AF78607B684322CD
:100550001A80034B18460C37BD465DF8047B704784
:100560004400002080B483B000AF78607B684322F1
:100570001A80034B18460C37BD465DF8047B704764
:10058000CC00002080B483B000AF78607B680A2282
:100590001A80034B18460C37BD465DF8047B704744
:1005A0000000002080B485B000AF7860396002237D
:1005B000FB733B68002B05D07B683A68C3F81C22AC
:1005C0000023FB73FB7B18461437BD465DF8047BA4
:1005D000704700BF80B487B000AFF860B9601346C1
:1005E000FB80FB68D3F818327B617B69BA68C3F87B
:1005F0000822FA887B69C3F81022002318461C37AA
:10060000BD465DF8047B704780B485B000AF78606C
:1006100039607B68D3F81832FB60FB683A68C3F82E
:100620000422002318461437BD465DF8047B70474A
:1006300080B584B000AF78607B68D3F81832FB6077
:100640007B68D3F81832002B17D0FB68D3F814322C
:10065000002B10D1FB680122C3F81422FB68D3F8E9
:100660000822FB68D3F810329BB28121786807F02A
:1006700029FA002302E0012300E002231846103784
:10068000BD4680BD80B584B000AF78607B68D3F88C
:100690001832FB607B68D3F81832002B17D07B68C8
:1006A0001B7C002B09D1FB68D3F804224FF40073A4
:1006B0000121786807F040FA07E0FB68D3F80422CC
:1006C00040230121786807F037FA002300E0022375
:1006D00018461037BD4680BD80B584B000AFF860C5
:1006E000B9601346FB71FB68002B01D102231AE0AD
:1006F000FB68D3F81432002B03D0FB680022C3F848
:100700001422BB68002B03D0FB68BA68C3F8102220
:10071000FB68012283F8FC21FB68FA791A70F868FB
:1007200007F008F8002318461037BD4680BD00BF0B
:1007300080B485B000AF786039600023FB733B68FC
:10074000002B06D07B683A68C3F814220023FB73A1
:1007500001E00223FB73FB7B18461437BD465DF8AE
:10076000047B704780B582B000AF7860786807F08E
:1007700035F8002318460837BD4680BD80B483B0E5
:1007800000AF7860002318460C37BD465DF8047B47
:10079000704700BF80B584B000AF78600B46FB7037
:1007A0000223FB737B68D3F81432002B0CD07B68D8
:1007B000D3F814321B68FA781146786898470346D4
:1007C000002B01D10023FB73FB7B18461037BD467D
:1007D00080BD00BF80B582B000AF78600B46FB7073
:1007E0007B68D3F814325B68FA78114678689847CA
:1007F000002318460837BD4680BD00BF80B582B0D3
:1008000000AF786039607B6803F502733968184679
:1008100000F0A2FD7B680122C3F8F4217B68B3F8E5
:100820000E321A467B68C3F8F8217B6893F80832C9
:1008300003F01F03012B0BD0022B11D0002B17D17B
:100840007B6803F502731946786800F0CFF91AE067
:100850007B6803F502731946786800F017FA12E016
:100860007B6803F502731946786800F043FA0AE0E2
:100870007B6893F8083223F07F03DBB2194678686F
:1008800007F052F800BF002318460837BD4680BD68
:1008900080B586B000AFF8600B467A60FB72FB7AD9
:1008A000002B38D1FB6803F582737B61FB68D3F8BA
:1008B000F431032B42D17B699A687B69DB689A42E9
:1008C00014D97B699A687B69DB68D21A7B699A6064
:1008D0007B69DA687B699B68934228BF13469BB2A9
:1008E0001A467968F86800F02FFE27E0FB68D3F815
:1008F00014321B69002B0AD0FB6893F8FC31032BE0
:1009000005D1FB68D3F814321B69F8689847F8687A
:1009100000F02CFE12E0FB68D3F814329B69002B28
:100920000CD0FB6893F8FC31032B07D1FB68D3F89C
:1009300014329B69FA7A1146F868984700231846E2
:100940001837BD4680BD00BF80B586B000AFF860E7
:100950000B467A60FB72FB7A002B6CD1FB68143378
:100960007B61FB68D3F8F431022B57D17B699A681D
:100970007B69DB689A4215D97B699A687B69DB6879
:10098000D21A7B699A607B699B689BB21A46796828
:10099000F86800F0A9FD002300220021F86807F0A4
:1009A000CBF83BE07B695B687A69D268B3FBF2F114
:1009B00002FB01F29B1A002B1CD17B695A687B69F0
:1009C000DB689A4216D37B695A68FB68D3F8F83122
:1009D0009A420FD200220021F86800F085FDFB68E2
:1009E0000022C3F8F821002300220021F86807F054
:1009F000A3F813E0FB68D3F81432DB68002B0AD0AD
:100A0000FB6893F8FC31032B05D1FB68D3F8143253
:100A1000DB68F8689847F86800F0BCFDFB6893F85D
:100A20000032012B1AD1F868FFF7A8FEFB680022FC
:100A300083F8002212E0FB68D3F814325B69002BC4
:100A40000CD0FB6893F8FC31032B07D1FB68D3F87B
:100A500014325B69FA7A1146F86898470023184601
:100A60001837BD4680BD00BF80B582B000AF78604A
:100A7000402300220021786806F0E2FE7B684022D5
:100A8000C3F81021402300228021786806F0D8FEA8
:100A90007B6840221A627B68012283F8FC217B6814
:100AA000D3F81832002B09D07B68D3F814325B6876
:100AB0007A685268D2B2114678689847002318467F
:100AC0000837BD4680BD00BF80B483B000AF7860FA
:100AD0000B46FB707B68FA781A74002318460C37B3
:100AE000BD465DF8047B704780B483B000AF78608A
:100AF0007B6893F8FC217B6883F8FD217B680422E6
:100B000083F8FC21002318460C37BD465DF8047BB2
:100B1000704700BF80B483B000AF78607B6893F803
:100B2000FD217B6883F8FC21002318460C37BD4665
:100B30005DF8047B704700BF80B582B000AF78607D
:100B40007B6893F8FC31032B0BD17B68D3F814320C
:100B5000DB69002B05D07B68D3F81432DB69786839
:100B60009847002318460837BD4680BD80B483B03F
:100B700000AF78600B46FB70002318460C37BD466B
:100B80005DF8047B704700BF80B483B000AF78602D
:100B90000B46FB70002318460C37BD465DF8047BFE
:100BA000704700BF80B483B000AF78600023184660
:100BB0000C37BD465DF8047B704700BF80B582B03E
:100BC00000AF78607B68012283F8FC217B68D3F852
:100BD00014325B687A685268D2B2114678689847D6
:100BE000002318460837BD4680BD00BF80B584B0DD
:100BF00000AF786039600023FB733B685B78092B9A
:100C000039D801A252F823F0590C00086D0C0008E5
:100C1000770C0008630C0008770C00083B0C0008F8
:100C2000310C0008770C00084F0C0008450C000838
:100C30003968786800F036F922E03968786800F0A1
:100C400025FA1DE03968786800F05EFA18E0396826
:100C5000786800F0E1FA13E03968786800F00EFB7C
:100C60000EE03968786800F033FB09E0396878688D
:100C700000F04AFB04E03968786800F0ABFB00BF85
:100C8000FB7B18461037BD4680BD00BF80B584B0E1
:100C900000AF786039600023FB737B6893F8FC3108
:100CA000032B1BD13B689B88DBB2012B11D87B68DF
:100CB000D3F814329B683968786898473B68DB88BA
:100CC000002B10D1FB7B002B0DD1786800F04EFC7F
:100CD00009E03968786800F07DFB04E039687868DD
:100CE00000F078FB00E000BF002318461037BD4637
:100CF00080BD00BF80B584B000AF7860396000234C
:100D0000FB733B689B88BB733B681B7803F06003F5
:100D1000202B08D17B68D3F814329B683968786837
:100D200098470023BAE03B685B78012B39D0032B4E
:100D300002D0002B6BD0B0E07B6893F8FC31022B23
:100D400002D0032B0CD025E0BB7B002B27D0BB7B34
:100D5000802B24D0BB7B1946786806F0E5FD1EE0A9
:100D60003B685B88002B0AD1BB7B002B07D0BB7B89
:100D7000802B04D0BB7B1946786806F0D5FD7B68D4
:100D8000D3F814329B68396878689847786800F01F
:100D9000EDFB05E03968786800F01CFB00E000BF5F
:100DA0007BE07B6893F8FC31022B02D0032B0CD044
:100DB00024E0BB7B002B26D0BB7B802B23D0BB7BCE
:100DC0001946786806F0B0FD1DE03B685B88002B93
:100DD0001BD1BB7B03F07F03002B0BD0BB7B1946E1
:100DE000786806F0D7FD7B68D3F814329B683968C1
:100DF00078689847786800F0B9FB06E03968786849
:100E000000F0E8FA02E000BF47E000BF45E07B6881
:100E100093F8FC31022B02D0032B0BD036E0BB7BC6
:100E200003F07F03002B36D0BB7B1946786806F0B1
:100E30007BFD30E097F90E30002B08DABB7B03F026
:100E40007F0301331B017A681344043307E0BB7B43
:100E500003F07F0310331B017A6813440433BB6033
:100E6000BB7B1946786806F0CBFD0346002B03D008
:100E7000BB6801221A6002E0BB6800221A60BB68EE
:100E800002221946786800F013FB05E0396878689B
:100E900000F0A0FA00E000BF00BFFB7B184610374F
:100EA000BD4680BD80B584B000AF786039603B68D6
:100EB0005B881B0A9BB2013B062B00F2C98001A292
:100EC00052F823F0E10E0008F90E0008390F00086F
:100ED0005110000851100008FD0F000823100008F1
:100EE0007B68D3F810321B687A68127C07F10A011C
:100EF00010469847F860B0E07B681B7C002B0DD152
:100F00007B68D3F814329B6A07F10A0210469847AF
:100F1000F860FB68013302221A709EE07B68D3F808
:100F20001432DB6A07F10A0210469847F860FB6842
:100F3000013302221A7090E03B685B88DBB2052B1C
:100F400056D801A252F823F0610F0008790F00086B
:100F5000910F0008A90F0008C10F0008D90F000861
:100F60007B68D3F810325B687A68127C07F10A015B
:100F700010469847F86040E07B68D3F810329B68D1
:100F80007A68127C07F10A0110469847F86034E04D
:100F90007B68D3F81032DB687A68127C07F10A01AB
:100FA00010469847F86028E07B68D3F810321B6938
:100FB0007A68127C07F10A0110469847F8601CE035
:100FC0007B68D3F810325B697A68127C07F10A01FA
:100FD00010469847F86010E07B68D3F810329B69A0
:100FE0007A68127C07F10A0110469847F86004E01D
:100FF0003968786800F0EEF944E02EE07B681B7CED
:10100000002B09D17B68D3F814325B6B07F10A021D
:1010100010469847F86020E03968786800F0DAF9FF
:1010200030E07B681B7C002B0DD17B68D3F8143239
:101030001B6B07F10A0210469847F860FB68013302
:1010400007221A7009E03968786800F0C3F919E0DE
:101050003968786800F0BEF914E07B89002B11D064
:101060003B68DB88002B0DD03B68DA887B89934294
:1010700028BF13469BB27B817B891A46F968786842
:1010800000F016FA1037BD4680BD00BF80B584B0B1
:1010900000AF786039603B689B88002B2CD13B689F
:1010A000DB88002B28D13B685B88DBB203F07F0331
:1010B000FB737B6893F8FC31032B04D139687868A3
:1010C00000F088F91CE07B68FA7B83F8FE21FB7B4B
:1010D0001946786806F0C0FC786800F047FAFB7B98
:1010E000002B04D07B68022283F8FC2108E07B6897
:1010F000012283F8FC2103E03968786800F06AF97E
:1011000000BF1037BD4680BD80B582B000AF7860AB
:1011100039603B685B88DAB23E4B1A703D4B1B78F6
:10112000012B04D93968786800F054F96FE07B68C6
:1011300093F8FC31022B02D0032B23D062E0354B15
:101140001B78002B1AD0334B1B781A467B685A60E9
:101150007B68032283F8FC212E4B1B7819467868A4
:10116000FFF718FB0346022B04D13968786800F0BA
:1011700031F94CE0786800F0F9F948E0786800F05F
:10118000F5F944E0234B1B78002B12D17B68022237
:1011900083F8FC211F4B1B781A467B685A601D4B55
:1011A0001B7819467868FFF715FB786800F0DEF9C0
:1011B0002DE0184B1B781A467B685B689A421DD05D
:1011C0007B685B68DBB219467868FFF703FB114B5D
:1011D0001B781A467B685A600E4B1B781946786854
:1011E000FFF7D8FA0346022B04D13968786800F07B
:1011F000F1F80CE0786800F0B9F908E0786800F0E0
:10120000B5F904E03968786800F0E4F800BF083701
:10121000BD4680BD6502002080B582B000AF786019
:1012200039603B68DB88012B04D03968786800F0AE
:10123000D1F81FE07B6893F8FC31022B02D0032B1E
:101240000BD012E07B6800229A607B680833012291
:101250001946786800F02CF90CE07B680433012211
:101260001946786800F024F904E03968786800F0DD
:10127000B1F800BF00BF0837BD4680BD80B582B061
:1012800000AF786039607B6893F8FC31023B012B3A
:1012900015D87B680122DA607B68D3F80432002B12
:1012A00005D07B68DB6843F002027B68DA607B680C
:1012B0000C3302221946786800F0FAF804E0396825
:1012C000786800F087F800BF00BF0837BD4680BDD2
:1012D00080B582B000AF786039603B685B88012BD5
:1012E0000DD17B680122C3F804227B68D3F8143245
:1012F0009B68396878689847786800F037F900BFCC
:101300000837BD4680BD00BF80B582B000AF7860B1
:1013100039607B6893F8FC31023B012B12D83B68A3
:101320005B88012B13D17B680022C3F804227B6801
:10133000D3F814329B68396878689847786800F069
:1013400015F904E03968786800F044F800E000BF5F
:1013500000BF0837BD4680BD80B483B000AF786061
:1013600039603B681A787B681A703B685A787B68EA
:101370005A703B6802331B789AB23B6803331B7880
:101380009BB21B029BB213449AB27B685A803B68A3
:1013900004331B789AB23B6805331B789BB21B025F
:1013A0009BB213449AB27B689A803B6806331B78E1
:1013B0009AB23B6807331B789BB21B029BB2134463
:1013C0009AB27B68DA8000BF0C37BD465DF8047BBB
:1013D000704700BF80B582B000AF7860396080216F
:1013E000786806F0A1FA0021786806F09DFA00BF3F
:1013F0000837BD4680BD00BF80B586B000AFF8603D
:10140000B9607A600023FB75FB68002B33D0F86865
:1014100000F036F8034601339BB25B009AB27B685A
:101420001A80FB7D5A1CFA751A46BB6813447A6809
:101430001288D2B21A70FB7D5A1CFA751A46BB6824
:10144000134403221A7012E0FB7D5A1CFA751A46E7
:10145000BB681A44FB68591CF9601B781370FB7D4C
:101460005A1CFA751A46BB68134400221A70FB68AE
:101470001B78002BE8D100BF1837BD4680BD00BFE8
:1014800080B485B000AF78600023FB7305E0FB7B80
:101490000133FB737B6801337B607B681B78002B17
:1014A000F5D1FB7B18461437BD465DF8047B7047C9
:1014B00080B584B000AFF860B9601346FB80FB686C
:1014C0000222C3F8F421FA88FB689A61FA88FB6863
:1014D000DA61FB88BA680021F86806F0F3FA0023A5
:1014E00018461037BD4680BD80B584B000AFF860A7
:1014F000B9601346FB80FB88BA680021F86806F0E3
:10150000E1FA002318461037BD4680BD80B584B08F
:1015100000AFF860B9601346FB80FB680322C3F894
:10152000F421FA88FB68C3F80821FA88FB68C3F83D
:101530000C21FB88BA680021F86806F0FDFA002348
:1015400018461037BD4680BD80B584B000AFF86046
:10155000B9601346FB80FB88BA680021F86806F082
:10156000EBFA002318461037BD4680BD80B582B027
:1015700000AF78607B680422C3F8F42100230022C6
:101580000021786806F09EFA002318460837BD4609
:1015900080BD00BF80B582B000AF78607B68052257
:1015A000C3F8F421002300220021786806F0C4FA71
:1015B000002318460837BD4680BD00BFB0B58CB0CB
:1015C00000AF002387F82330764B3C1D1D460FCD1E
:1015D0000FC495E8070084E80700002387F82F3040
:1015E000002387F82E303DE0012004F05BFC012150
:1015F0006D4804F05DFB97F82F309B0007F1300237
:10160000134453F82C3C0121184604F061FB0121DE
:10161000664804F0D7FB97F82F309B0007F13002A3
:10162000134453F82C3C184600F042F9002160485E
:1016300004F03EFB07F1230207F12403114618468C
:1016400000F0CEF807F1230207F1240311461846F3
:1016500000F012F90346002B09D197F82F3001331F
:1016600087F82F3097F82F30062BBDD900E000BF48
:1016700097F82F30072B00F08C80012004F012FC2B
:1016800001214C4804F014FB97F82F309B0007F120
:101690003002134453F82C3C0121184604F018FB87
:1016A0000121424804F08EFB97F82F30042B26D0FE
:1016B0000121414804F086FB0021404804F0F8FA7B
:1016C00007F1230207F124031146184600F088F8B9
:1016D0004FF4164000F0ECF807F1230207F1240361
:1016E0001146184600F0C8F80346002B04D001212B
:1016F000334804F067FB02E0012387F82E3097F8A7
:101700002E30002B45D1012004F0CCFB01212D48C7
:1017100004F058FB00212C4804F0CAFA07F1230218
:1017200007F124031146184600F05AF807F1230286
:1017300007F124031146184600F09EF80346002BDB
:1017400027D00121214804F03DFB012004F0AAFB31
:1017500001211F4804F036FB00211E4804F0A8FABE
:1017600007F1230207F124031146184600F038F868
:1017700007F1230207F124031146184600F07CF814
:101780000346002B05D00121134804F01BFB012365
:1017900004E00121114804F015FB002318463037FE
:1017A000BD46B0BD483201086830010898300108D4
:1017B000A0300108A4300108D43001080831010824
:1017C00014310108303101086C3101087C31010805
:1017D000A0310108E0310108EC310108183201089C
:1017E00080B586B000AF7860396006F01DFE3861C4
:1017F0003B6800221A701F4BDB8DFB8229E005F04D
:1018000025FE1C4BDB8D9BB2FA8A9A4221D0194BE4
:10181000996A184B9A8DFB8AB3FBF2F002FB00F237
:101820009B1A9BB20B441B78FB733B681B78092BFC
:101830000CD83B681B781A467B681344FA7B1A70F5
:101840003B681B780133DAB23B681A70FB8A0133BC
:10185000FB8206F0E9FD02463B69D31A40F6B73237
:101860009342CCD9012004F01DFB00BF1837BD46C0
:1018700080BD00BFDC02002080B483B000AF786080
:1018800039603B681B78012B0AD97B681B784F2B8A
:1018900006D17B6801331B784B2B01D1012300E07B
:1018A000002318460C37BD465DF8047B704700BF27
:1018B00080B582B000AF7860084A7B685360074803
:1018C0000AF0E4FE0346002B03D00121044804F093
:1018D00079FA00BF0837BD4680BD00BFDC0200209A
:1018E0006432010880B400AF044B1B680133034A23
:1018F000136000BFBD465DF8047B7047680200209E
:1019000080B400AF094B1A68094BA3FB02131B09F3
:10191000322101FB03F3D31A002B0CBF0123002358
:10192000DBB21846BD465DF8047B704768020020B4
:101930001F85EB5180B400AF0A4B19680A4BA3FB1B
:101940000123DA0813469B0013445B00CA1A002ADD
:101950000CBF01230023DBB21846BD465DF8047BB3
:10196000704700BF68020020CDCCCCCC98B500AF4A
:1019700006F05AFD0246154B1B68D31AB3F5FA6FF1
:1019800004D94FF000034FF0000418E0104B1B681F
:10199000002B04D14FF000034FF000040FE00C4B7C
:1019A0001B6818460CF09CFD03460C461A4623465D
:1019B0004FF0000007490CF033FF03460C4644EC9F
:1019C000173BB0EE470AF0EE670A98BD740200209C
:1019D000700200200000544090B400AF054BD3E9E2
:1019E000003444EC173BB0EE470AF0EE670ABD4600
:1019F00090BC70477802002080B400AF034B1B6896
:101A00001BB21846BD465DF8047B70476C0200208F
:101A100080B400AF034B5B6A1846BD465DF8047B9B
:101A2000704700BF000C004080B400AF044B02229E
:101A300083F8512000BFBD465DF8047B704700BFAE
:101A4000A8070020B0B582B000AF87ED000B4FF0C3
:101A500000024FF00003D7E900010DF029F803461A
:101A6000002B04D03C687B6883F0004501E0D7E997
:101A7000004545EC174BB0EE470AF0EE670A083711
:101A8000BD46B0BD80B500AF044B93F83730184663
:101A900003F042FF03469BB2184680BD2807002092
:101AA00080B500AF044B93F83830184603F034FF8C
:101AB00003469BB2184680BD2807002080B500AFC2
:101AC000044B93F86830184603F026FF03469BB298
:101AD000184680BD2807002080B500AF044B93F85E
:101AE0006930184603F018FF03469BB2184680BDC4
:101AF0002807002080B500AF044B93F86A301846E1
:101B000003F00AFF03469BB2184680BD2807002059
:101B100080B582B000AF484B93F83630184603F0DA
:101B2000FBFE03469AB2444BB3F92A309BB2D31A58
:101B30009BB2FB80B7F906203F4BB3F92A305B42DA
:101B40009A4201D1002373E03C4B93F85130022BB1
:101B500004D03A4B93F85130032B47D1364BB3F9AD
:101B60002C30B7F906209A4207DCB7F90620324B31
:101B7000B3F92C305B429A4238DA304B93F851304B
:101B8000022B31D102212E4804F092F8B7F9063029
:101B90000221184604F054F802212A4804F088F87B
:101BA000B7F906300221184604F04AF80221264807
:101BB00004F07EF8204BB3F92A300221184604F0D5
:101BC0003FF80221214804F073F81B4BB3F92C3085
:101BD0000221184604F034F802211D4804F068F888
:101BE000164B032283F85120002321E0124BB3F956
:101BF0002C30B7F906209A4208DDFA880E4BB3F96B
:101C00002C309BB2D31A9BB21BB211E0B7F906205D
:101C1000094BB3F92C305B429A4208DA064BB3F910
:101C20002C309AB2FB8813449BB21BB200E0002315
:101C300018460837BD4680BD28070020A8070020A9
:101C4000A8320108C8320108E0320108FC3201085C
:101C500000330108F0B595B000AF87ED020B87EDBA
:101C6000001BFFF755FF0346A7F84230B7F9423093
:101C700018460CF045FC04460D46814BB3F96C3018
:101C80001A467F4BB3F92C30D31A18460CF038FCA7
:101C900002460B46204629460CF0C2FD03460C4680
:101CA000C7E90E34764BD3E91E341A4623464FF06B
:101CB000000074490CF0D6FA03460C46184621463B
:101CC000D7E90E230CF082FC03460C461846214649
:101CD000D7E90E230CF07AFC03460C461846214641
:101CE000D7E90E230CF072FC03460C4625461C4631
:101CF000634BD3E91E01D7E90E230CF067FC0246C3
:101D00000B46204629460CF0AFFA03460C46C7E9BD
:101D10000C345B4BB3F96C301A46594BB3F92C3089
:101D2000D31A18460CF0ECFBD7E90C230CF04EFC50
:101D300003460C46184621460CF0F8FE02463223B4
:101D400003FB02F3FB64504B5B6A504A12689B1A18
:101D5000FB624B4B93F83930012B00F07A82484BF1
:101D6000B3F92E30BB64464BB3F930307B64484B3B
:101D700093F85130002B07D0414BB3F93230BB649C
:101D80003F4BB3F934307B64424B1B68FA6CD31A77
:101D9000BB62BA6ABB6C9A4204DCBB6C5A42BB6A37
:101DA0009A4218DD3A4B03F520435A331B7883F0EF
:101DB0000103DBB2002B07D00221374803F078FF84
:101DC0000221B86C04F012F8314B03F520435A336A
:101DD00001221A7005E02E4B03F520435A330022EE
:101DE0001A70BA6ABB6C9A4205DD2A4B1A68BB6C42
:101DF0001344FB6409E0BB6C5A42BB6A9A4204DD9F
:101E0000244B1A68BB6CD31AFB647B6C322202FB36
:101E100003F2FB6C9A4207DB7B6C6FF0310202FB32
:101E200003F2FB6C9A4218DD194B03F520435B3338
:101E30001B7883F00103DBB2002B07D00221174887
:101E400003F036FF0221786C03F0D0FF104B03F54E
:101E500020435B3301221A7005E00D4B03F520434C
:101E60005B3300221A707B6C322202FB03F2FB6CA4
:101E70009A4215DA7B6C322202FB03F3FB641DE00D
:101E8000280700200000F03F000C004080020020E6
:101E9000A80700206C0200205433010870330108A9
:101EA0007B6C6FF0310202FB03F2FB6C9A4205DDA2
:101EB0007B6C6FF0310202FB03F3FB64B64B93F8CB
:101EC0005130002B40F0C581B44B93F83930012BD1
:101ED00000F0BF81B14B93F83930022B00F0B9818B
:101EE000AE4BD3E91201AD4BD3E914341A46234665
:101EF0000CF0FCFD0346002B0FD0A84BD3E91234A5
:101F0000C7E90834A54BD3E91434A44AC2E9123412
:101F1000A24AD7E90834C2E91434D7E90023D7E943
:101F200002010CF0A1F903460C46184621469B4BD2
:101F3000D3E914341A4623460CF0BAFD0346002BAD
:101F400020D0D7E90023D7E902010CF08BF9034632
:101F50000C4618462146914BD3E912341A462346C3
:101F60000CF0C4FD0346002B0CD08B4B03F5204333
:101F70005C3300221A70884B03F520435D33002246
:101F80001A7066E1D7E90023D7E902010CF06CF979
:101F900003460C4618462146804BD3E914341A46B2
:101FA00023460CF099FD0346002B00F098807B4BF4
:101FB00093F929301A46FB6C03FB02F3002B3DDD3D
:101FC000774B1A68754B93F929301946BB6C03FBA4
:101FD00001F3D31AFB64714B93F929301A46FB6C59
:101FE00003FB02F3002B01DA0023FB646A4B03F5C9
:101FF00020435C331B7883F00103DBB2002B03D05A
:102000000221684803F0DEFE634B03F520435C3396
:1020100001221A7000221021634806F023FE5F4B54
:10202000D3E91401D7E902230CF04CFD0346002B41
:1020300015D05B4B00221A60002312E2564B03F5C9
:1020400020435C3300221A70534B03F520435D3369
:1020500000221A7001221021534806F003FED7E92E
:102060000023D7E902010CF0FFF803460C461D4699
:1020700026464A4BD3E91401484BD3E910341A469B
:1020800023460CF0F1F803460C461A462346284630
:1020900031460CF021FD0346002B20D0FB6A002BBB
:1020A0001DDD3D4B03F520435D331B7883F00103B9
:1020B000DBB2002B03D002213C4803F083FE364BF9
:1020C00003F520435D3301221A70002210213648A7
:1020D00006F0C8FD324AFB6C13600023C1E1D7E96A
:1020E0000023D7E902010CF0BDF803460C46184660
:1020F00021462A4BD3E912341A4623460CF0E2FC5F
:102100000346002B00F0A580244B93F929301A4692
:10211000FB6C03FB02F3002B4ADA204B93F92930C6
:102120001A46BB6C03FB02F21D4B1B681344FB6495
:102130001A4B93F929301A46FB6C03FB02F3002B70
:1021400001DD0023FB64144B03F520435C331B7853
:1021500083F00103DBB2002B03D00221114803F00E
:1021600031FE0D4B03F520435C3301221A7000222F
:1021700010210D4806F076FD084BD3E91201D7E98E
:1021800002230CF0A9FC0346002B22D0044B0022B2
:102190001A60002365E100BFA8070020280700207F
:1021A0006C020020843301080004024098330108C7
:1021B000AE4B03F520435C3300221A70AB4B03F5A2
:1021C00020435D3300221A7001221021A84806F036
:1021D00049FDD7E90023D7E902010CF043F8034693
:1021E0000C461D462646A34BD3E91201A14BD3E969
:1021F00010341A4623460CF035F803460C461A46AE
:102200002346284631460CF05DFC0346002B20D0C7
:10221000FB6A002B1DDA954B03F520435D331B78D9
:1022200083F00103DBB2002B03D00221924803F0BC
:10223000C9FD8E4B03F520435D3301221A70002245
:1022400010218B4806F00EFD8C4AFB6C13600023B6
:1022500007E18A4AFB6C1360FFF714FC0346B3F5F1
:10226000966F0DD9814B93F85130002B03D002218A
:10227000834803F0A7FD7D4B002283F851200FE037
:102280007A4B93F85130012B06D07E4B00221A7006
:1022900002217D4803F096FD744B012283F8512002
:1022A000FFF7FEFB0346FB83FB8BB3F5966F4ED91E
:1022B0006E4B93F85130012B49D1744B1B88B3F509
:1022C000966F44D8714B1B88002B40D0704B5B6AD3
:1022D000BB616C4B1B78002B0FD1B8690CF010F967
:1022E00003460C46634AC2E91234664B01221A7057
:1022F0000221684803F066FD29E00221664803F0E8
:1023000061FD5C4BD3E91245B8690CF0F9F802465F
:102310000B46204629460CF0CBFB0346002B08D089
:10232000B8690CF0EDF803460C46524AC2E9143481
:102330000DE0504BD3E912344E4AC2E91434B86967
:102340000CF0DEF803460C464A4AC2E912344F4A02
:10235000FB8B1380FFF7B2FB0346FB82FB8A002B4B
:102360001AD0FA8A434BB3F92A301946414BB3F9D4
:102370002C300B449A420FDD3E4BB3F92A309BB20E
:10238000FA8AD31A9AB23B4BB3F92C309BB2D31AC8
:102390009BB21AB2374BDA85FFF79EFB0346BB822E
:1023A000BB8A002B1AD0BA8A324BB3F92A301946AD
:1023B000304BB3F92C300B449A420FDD2D4BB3F95F
:1023C0002A309BB2BA8AD31A9AB22A4BB3F92C306C
:1023D0009BB2D31A9BB21AB2264B1A86FFF78AFB1E
:1023E00003467B827B8A002B3AD07A8A214BB3F951
:1023F0002A3019461F4BB3F92C30CB1A9A4204DA13
:102400001C4B012283F8392013E07A8A194BB3F967
:102410002A301946174BB3F92C300B449A4204DD8D
:10242000144B032283F8392003E0124B022283F875
:102430003920104B93F83920184B1B789A420FD053
:102440000C4B93F83920154B1A700A4B93F839301E
:10245000184603F057F903460221184603F0B2FC70
:10246000FB6C18465437BD46F0BD00BFA8070020DE
:102470000004024028070020983301086C02002065
:10248000AC33010884020020C83301088602002012
:10249000000C0040EC330108F83301080F01002064
:1024A00090B591B000AF7F4B5B6A7B637E4B1A683F
:1024B0007B6BD31A18460CF023F803460C4644EC09
:1024C000103BFFF7BFFAB0EE407AF0EE607A774B40
:1024D00083ED007B786B0CF013F803460C46C7E9DC
:1024E0000A34FFF743FA87ED080B704BD3E9003449
:1024F000C7E90E346D4BD3E900014FF000026C4B7D
:102500000CF0E0FA0346002B03D0D7E90834C7E902
:102510000E34FFF771FA03461A46664BB3F92E30B4
:1025200092FBF3F318460BF0EBFF03460C4644EC2A
:10253000103BFFF787FA87ED060BD7E90623D7E9AB
:102540000E010CF043F803460C46184621464FF0A6
:1025500000024FF080430CF063F903460C46C7E9D4
:10256000043497ED041B97ED0A0BFFF773FBF8603B
:10257000FB68BB60BB68002B12DD4F494D4BB3F9C4
:1025800062301A464B4BB3F964301A44494BB3F9E5
:1025900066301846BB6893FBF0F31344CB631AE034
:1025A000BB68002B12DA4449424BB3F962301A4639
:1025B000404BB3F96430D21A3E4BB3F9663018463B
:1025C000BB6893FBF0F31344CB6304E03A4B394A06
:1025D000B2F96220DA63B86805F0F6FB4FF000024A
:1025E0004FF00003D7E90E010CF058FA0346002B18
:1025F00002D0BB68002B4BD0304B03F5204358333F
:10260000B3F900301A4613469B001344DB005833DD
:102610002A4A13447B607A68D7E90434C2E9043457
:10262000254BDB6B9AB27B681A847A68D7E90A3447
:10263000C2E900347A68D7E90E34C2E90634FFF7FC
:10264000DBF903461A467B681A8105F0EDFE024667
:102650007B685A62194B03F520435833B3F90030B5
:102660009BB201339BB21AB2144B03F5204358338B
:102670001A80124B03F520435833B3F90030B3F5F9
:10268000806F05DD0D4B03F52043583300221A807F
:10269000054A7B6B1360FFF733F900BF4437BD4633
:1026A00090BD00BF000C0040800200207802002096
:1026B000000014402807002000040040A807002064
:1026C00080B500AF03F022FE0246064B1A60054BB0
:1026D0001B68054A934201D0002300E000231846FE
:1026E00080BD00BF880200201520200080B584B086
:1026F00000AF78600B467B8013463B800E4B1B6817
:10270000092B01D8022312E03B881B04FB60F86808
:1027100003F0FEFB7B881A46F968786803F088FCB2
:102720007B881A46F968786803F02EFD0346184640
:102730001037BD4680BD00BF8802002080B584B040
:1027400000AFF860B9601346FB80FB881B04BA68D1
:102750001946F86803F080FD00BF1037BD4680BD04
:10276000B0B5A0B000AF05F013FE00F015FA00F010
:102770001BFD00F09FFA00F0C7FA00F0FFFA00F02E
:1027800047FB00F0E3FC04F029FC00F0B1FC00F092
:10279000A7FB00F0F5FD05F0CDFA0421B44808F0E0
:1027A000C1FE01221021B34806F05CFA0821B248AC
:1027B00008F02EFD0346002B03D08D21AF4800F01A
:1027C000B5FD0C21AC4808F023FD0346002B03D0D7
:1027D0009221AA4800F0AAFDFFF772FF0346002BE2
:1027E00003D09821A54800F0A1FDA54B002283F855
:1027F0002920A34A4FF000034FF00004C2E904343B
:102800009F4A4FF000034FF00004C2E906349C4A8F
:102810004FF000034FF00004C2E90834984A4FF02B
:102820000003984CC2E91034954B012283F83920FB
:10283000934A89A4D4E90034C2E91434904A88A4A4
:10284000D4E90034C2E912348D4B062283F83820D3
:102850008B4B052283F83720894B002283F83620E2
:10286000874B6422DA85864BC8225A86844B4FF404
:10287000FA721A86824B64229A86814B4FF47872E0
:102880005A857F4B1E229A857D4B7F4A07CA03C318
:102890001A707B4A4FF000034FF00004C2E916346F
:1028A000774B002283F86020754B40F2DC52A3F88E
:1028B0006220734B1E22A3F86420714BFF2283F821
:1028C00068206F4BFF2283F869206D4BFF2283F84D
:1028D0006A206B4B4FF44872A3F86C20684B4CF2A3
:1028E00050321A67664A60A4D4E90034C2E91E3443
:1028F0003B46002280211846FFF720FF3B460B2273
:1029000019465F480DF03AF90346002B11D15C4B94
:1029100018463B46802219460CF07AF95B4A5C4B1C
:1029200014461D460FCD0FC495E8070084E8070044
:102930008AE03B460222194656480DF01FF903462D
:10294000002B79D13B464E4918460DF007F94C4B08
:1029500018463B46802219460CF05AF94B4A4E4B1A
:1029600014461D460FCD0FC40FCD0FC40FCD0FC49D
:102970002B681A46228002341B0C2370404BB3F99B
:102980006230002B08DC3E4B40F2DC52A3F86220A0
:102990003B4B1E22A3F86420394B93F86830002B80
:1029A00007D1374BFF2283F86820354BFF2283F88D
:1029B0006920334B93F86A30002B03D1304BFF2250
:1029C00083F86A202E4BB3F96C30002B03DD2C4BBF
:1029D0001B6F002B08DC2A4B4FF44872A3F86C20C5
:1029E000274B4CF250321A67254BD3E91E014FF0AA
:1029F00000024FF000030CF065F80346002B14D1E1
:102A00001F4BD3E91E014FF00002244B0CF06EF86F
:102A10000346002B09D11A4BD3E91E0102460B468F
:102A20000CF06EF80346002B0ED0154A0EA4D4E924
:102A30000034C2E91E3407E0144A194B1046194607
:102A400044231A460CF0E4F80D4B93F86030012B48
:102A500028D100F01BFC27E00000C0FFFFFFDF4192
:102A60000000C0FFFFFFDFC1000000A09999B93F3F
:102A700020030020000402405C030020943401087D
:102A80002807002000005940A0340108A8070020B2
:102A9000AC340108C8340108CC3401080000F03F10
:102AA0000035010800F01CFCFEF7BEFF05F082F9BE
:102AB00003464FF4007219462F4809F0F1FE4FF417
:102AC00000722E492E4804F039F905F0ADFC02469B
:102AD0002C4B1B68D31A142B3BD905F0A5FC0246DE
:102AE000284B1A60FEF7FEFE04F0B0FCFEF708FF6C
:102AF0000346002B08D0244B93F85130002B03D110
:102B00002021224806F0C8F8FEF714FF0346002BE8
:102B100008D01D4B93F85130012B03D120211B48C5
:102B200006F0BAF8184B93F85130022B04D0164B2C
:102B300093F85130032B05D100221021134806F0E1
:102B400091F804E001221021104806F08BF8FFF7FD
:102B5000A7FC04F095FB0346002B03D00C49012091
:102B600000F01EFE04F0B0F90346002BADD0094979
:102B7000002000F015FEA8E7E40600208C040020E9
:102B8000DC0200201C030020A807002000040240F3
:102B9000D0AC0020ACA8002080B598B000AF0023D6
:102BA000BB60404A3F4B1B6C43F0805313643D4B6A
:102BB0001B6C03F08053BB60BB6800237B603A4A08
:102BC000394B1B6843F480431360374B1B6803F495
:102BD00080437B607B680B233B634FF480337B63D4
:102BE0000123FB6310233B6401237B640223BB644A
:102BF0004FF48003FB6404233B6548237B65022379
:102C0000BB650323FB6507F13003184607F008F99D
:102C10000346002B04D040F25B11244800F086FBF1
:102C20000F23FB6100233B6200237B620023BB6216
:102C30000023FB6207F11C030021184607F04AFB42
:102C40000346002B04D040F26911184800F06EFBD7
:102C50000223FB604FF40073BB6107F10C031846BD
:102C600007F018FD0346002B04D04FF4B8710F484D
:102C700000F05CFB07F0BEFC02460D4BA3FB0223F9
:102C80009B09184605F022FD042005F02BFD0022CB
:102C900000214FF0FF3005F0E1FC00BF6037BD467A
:102CA00080BD00BF0038024000700040943401082D
:102CB000D34D621080B500AF104B114A1A600F4B14
:102CC00000225A600D4B7F229A600C4BFF22DA6083
:102CD0000A4B00221A61094B00225A61074B00225D
:102CE0009A61064807F0CCFD0346002B04D040F261
:102CF0008D11044800F01AFB00BF80BD3004002095
:102D0000002800409434010880B500AF184B194AE0
:102D10001A60174B4FF482725A60154B00229A606A
:102D2000134B0022DA60124B00221A61104B002272
:102D30005A610F4B00229A610D4B0022DA610C4B55
:102D400000221A620A4B00225A62094B00229A6240
:102D5000074B0A22DA62064807F03AFE0346002BC8
:102D600004D040F2A311044800F0E0FA00BF80BD97
:102D70008C060020003001409434010880B500AF7B
:102D8000012208211E4805F06DFF1E4B1E4A1A60E5
:102D90001C4B4FF482725A601A4B00229A60194BF6
:102DA0000022DA60174B02221A61164B01225A6187
:102DB000144B4FF400729A61124B0822DA61114BE6
:102DC00000221A620F4B00225A620E4B00229A62B6
:102DD0000C4B0722DA620B4807F0FAFD0346002B82
:102DE00004D04FF4DD71094800F0A0FA054B1B68D0
:102DF000044A1268126842F040021A6000BF80BDA7
:102E00000004024098030020003C00409434010874
:102E100080B58AB000AF2F4B2F4A1A602D4B0F227E
:102E20005A602C4B00229A602A4B44F62062DA60EA
:102E3000284B00221A61274808F0BEF90346002BF0
:102E400004D040F2CF11254800F070FA00233B6215
:102E500000237B6207F1200319461E4809F0BCFBE2
:102E60000346002B04D04FF4EB711C4800F05EFACF
:102E700060237B6040F2DC53BB600023FB600023D7
:102E80007B6100233B610023FB610023BB613B1D91
:102E9000082219460F4808F041FD0346002B04D0D4
:102EA0004FF4F1710D4800F041FA3B1D0C22194618
:102EB000084808F033FD0346002B04D040F2E71128
:102EC000064800F033FA034803F0BEFC00BF283781
:102ED000BD4680BD5C03002000040040943401081E
:102EE00080B58CB000AF224B224A1A60204B0022E2
:102EF0005A601F4B00229A601D4B4FF0FF32DA6080
:102F00001B4B00221A610323FB6000233B6101235A
:102F10007B610023BB610023FB6100233B62012333
:102F20007B620023BB620023FB6207F10C0319469E
:102F30000F4808F061FA0346002B04D040F2032149
:102F40000D4800F0F3F900237B600023BB603B1DBC
:102F50001946074809F040FB0346002B04D040F215
:102F60000A21054800F0E2F900BF3037BD4680BDB8
:102F700020030020000C00409434010880B58CB080
:102F800000AF3E4B3E4A1A603C4B0F225A603B4B0F
:102F900000229A60394B4FF6FF72DA60374B0022FD
:102FA0001A61364B00225A61344808F0D9F80346BA
:102FB000002B04D040F21E21324800F0B7F92F4810
:102FC00008F05AF90346002B04D040F223212D4883
:102FD00000F0ACF90423FB6160233B6202237B62B7
:102FE0000023FB6207F11C031946244808F05CFD2E
:102FF0000346002B04D04FF40B71224800F096F9E1
:1030000000237B610023BB6107F1140319461B48B1
:1030100009F0E2FA0346002B04D040F233211948AC
:1030200000F084F900237B600123BB600023FB6078
:1030300000233B613B1D08221946104808F0D2FBD3
:103040000346002B04D040F23D210E4800F06EF9FB
:1030500002237B600223BB603B1D0C2219460748FC
:1030600008F0C0FB0346002B04D04FF41171054853
:1030700000F05CF900BF3037BD4680BD5004002031
:10308000000001409434010880B500AF144B154A8C
:103090001A60134B144A5A60114B4FF480529A60D5
:1030A0000F4B4FF40052DA600D4B4FF480621A61FF
:1030B0000B4B04225A610A4B00229A61084B4FF4D1
:1030C0000042DA61064809F0E1FA0346002B04D019
:1030D00040F25921054800F029F900BF80BD00BF2A
:1030E000F003002000100140A08601009434010884
:1030F00080B500AF124B134A1A60114B4FF4E13206
:103100005A600F4B00229A600D4B0022DA600C4B84
:1031100000221A610A4B0C225A61094B00229A6163
:10312000074B0022DA61064809F0B0FA0346002B8B
:1031300004D040F26D21044800F0F8F800BF80BDD3
:10314000E4060020004400409434010880B500AF3C
:10315000124B134A1A60114B4FF416425A600F4B30
:1031600000229A600D4B0022DA600C4B00221A619B
:103170000A4B0C225A61094B00229A61074B00222C
:10318000DA61064809F082FA0346002B04D040F2C7
:103190007E21044800F0CAF800BF80BDDC02002098
:1031A000004800409434010880B58AB000AF002385
:1031B0003B61324A314B1B6B43F0800313632F4B4F
:1031C0001B6B03F080033B613B690023FB602B4AD0
:1031D0002A4B1B6B43F001031363284B1B6B03F05B
:1031E0000103FB60FB680023BB60244A234B1B6B7D
:1031F00043F004031363214B1B6B03F00403BB6018
:10320000BB6800237B601D4A1C4B1B6B43F0020311
:1032100013631A4B1B6B03F002037B607B68002275
:103220003821174805F01EFD10237B61154BBB614B
:103230000023FB6107F114031946134805F07CFADB
:1032400001237B610123BB610023FB6107F11403B0
:1032500019460D4805F070FA38237B610123BB61E4
:103260000023FB6100233B6207F114031946044865
:1032700005F062FA00BF2837BD4680BD0038024025
:1032800000040240000011100008024080B500AFA9
:1032900008210F4808F026F80C210D4808F022F804
:1032A000FFF7F2FE02F0A0FB034619221946094877
:1032B00009F0F6FA01220121074805F0D3FC074B7B
:1032C0003C22A3F86620012002F03EFA00BF80BD38
:1032D00050040020F00300200008024028070020CE
:1032E00080B500AF0D4809F01FFAFFF747FE002236
:1032F00001210B4805F0B6FC08210A4808F01CF82B
:103300000C21084808F018F8074B1E22A3F8662085
:10331000002002F019FA00BF80BD00BFF0030020BA
:1033200000080240500400202807002080B483B029
:1033300000AF78603960054B054AB2F96220DA6364
:10334000024B034AB2F962201A64FEE7000400400F
:103350002807002080B483B000AF0346FB80B7F994
:1033600006301B121AB2B7F906301B021BB2134308
:103370001BB218460C37BD465DF8047B704700BF92
:1033800080B400AF00BFBD465DF8047B704700BF4E
:1033900080B582B000AF03460A46FB711346BB718D
:1033A000BB791946074802F083FCFB79064A52F8BC
:1033B0002330BA791146184602F004FD00BF0837E1
:1033C000BD4680BD503701081001002080B584B093
:1033D00000AF0346FB71164B1B7883F02003DAB273
:1033E000134B1A70124B1B7883F04F03DAB2104B59
:1033F0001A700F4B1B7883F04B03DAB20C4B1A7028
:103400000B4B1B7807F108000A4A05210CF024FB3E
:10341000FB791946084802F04BFCFA7907F10803DA
:103420001146184602F0CEFC00BF1037BD4680BDE5
:103430008C0200205C3701086437010880B582B037
:1034400000AF03460A46FB711346BB71BB791946B0
:10345000074802F02DFCBA79FB791146184602F0B4
:103460000BFC044AFB79137000BF0837BD4680BDD2
:103470006C3701088C02002080B584B000AF786002
:103480000B46FB700023FB600CE0FB687A6813447A
:103490001A780D4B1B785340DAB20B4B1A70FB684D
:1034A0000133FB60FB68272B05DCFB687A6813445B
:1034B0001B78002BE9D1FB781946786802F0F8FBFD
:1034C00000BF1037BD4680BD8C02002080B582B0A1
:1034D00000AF03460A46FB711346BB71084B1A78CE
:1034E000FB795340DAB2064B1A70BA79FB79114670
:1034F000184602F0C1FB00BF0837BD4680BD00BFC3
:103500008C02002090B59DB002AF87ED020B034600
:10351000FB7107F11400D7E90234CDE90034154AF4
:1035200050210CF099FA00237B660DE007F114029C
:103530007B6E13441A78104B1B785340DAB20E4B53
:103540001A707B6E01337B667B6E272B06DC07F1DE
:1035500014027B6E13441B78002BE7D1FA7907F134
:1035600014031146184602F0A3FB00BF6C37BD469A
:1035700090BD00BF703701088C02002090B59BB051
:1035800002AF87ED010A0346FB7078680AF0CAFFB4
:1035900003460C4607F10C00CDE90034144A5021D3
:1035A0000CF05AFA0023FB650DE007F10C02FB6DED
:1035B00013441A780F4B1B785340DAB20D4B1A7034
:1035C000FB6D0133FB65FB6D272B06DC07F10C025D
:1035D000FB6D13441B78002BE7D1FA7807F10C033D
:1035E0001146184602F064FB00BF6437BD4690BD2B
:1035F000783701088C02002080B598B000AF0346F0
:103600000A46FB8013467B71B7F9063007F10C00C0
:10361000144A50210CF020FA0023FB650DE007F15D
:103620000C02FB6D13441A780F4B1B785340DAB22F
:103630000D4B1A70FB6D0133FB65FB6D272B06DC10
:1036400007F10C02FB6D13441B78002BE7D17A794C
:1036500007F10C031146184602F02AFB00BF603741
:10366000BD4680BD803701088C02002080B584B043
:1036700000AF03460A46FB711346BB71FB7907F1A5
:103680000800154A03210CF0E7F90023FB600DE068
:1036900007F10802FB6813441A78104B1B7853405B
:1036A000DAB20E4B1A70FB680133FB60FB68022B29
:1036B00006DC07F10802FB6813441B78002BE7D1F6
:1036C000BA7907F108031146184602F0F1FA00BF73
:1036D0001037BD4680BD00BF843701088C02002032
:1036E00080B598B000AF78600B46FB7007F10C0016
:1036F0007B68154A50210CF0AFF90023FB650DE003
:1037000007F10C02FB6D13441A78104B1B785340E1
:10371000DAB20E4B1A70FB6D0133FB65FB6D272B84
:1037200006DC07F10C02FB6D13441B78002BE7D17C
:10373000FA7807F10C031146184602F0B9FA00BFF7
:103740006037BD4680BD00BF8C3701088C02002069
:1037500080B483B000AF0346FB71FB792F2B05D9F2
:10376000FB79392B02D8FB79303B13E0FB79602BD6
:1037700005D9FB79662B02D8FB79573B0AE0FB7928
:10378000402B05D9FB79462B02D8FB79373B01E06A
:103790004FF0FF3318460C37BD465DF8047B704789
:1037A00080B586B000AF03463960FB710023FB8211
:1037B0000023BB8295E0FB8A5A1CFA821A463B68BA
:1037C00013441B787B747B7C002B00F090804A4B69
:1037D0001B78202B09D17B7C242B02D07B7C212BD6
:1037E0007FD1454B24221A707BE07B7C0A2B02D0D0
:1037F0007B7C0D2B27D1BB8A002B06D1FB8A013B9A
:103800003A68134400221A7004E0BB8A3A681344F1
:1038100000221A70384B1B782A2B09D1FA7CBB7C0A
:103820009A4205D0FB7919460420FFF7B1FD04E068
:10383000FB793968184600F063F80023FB742E4BBF
:1038400020221A704DE07B7C2A2B06D12A4B312294
:103850001A70FB8A013BBB8243E0274B1B78312B5C
:1038600010D17B7C1846FFF773FFF860FB68B3F15B
:10387000FF3F36D0FB68DBB21B01BB741E4B32220C
:103880001A702EE01C4B1B78322B11D17B7C184612
:10389000FFF75EFFB860BB68B3F1FF3F21D0BB68A4
:1038A000DAB2BB7C1344BB74134B2A221A7018E0A3
:1038B000114B1B78242B04D1FA7C7B7C5340FB7486
:1038C0000FE00D4B1B782A2B05D1FB7919460520FB
:1038D000FFF75EFD0CE0FB7919460020FFF758FD6D
:1038E00006E0FB8AB3F5007FFFF465AF00E000BFA0
:1038F0001837BD4680BD00BF4C010020000000000D
:1039000090B5C9B004AF02463B461960FB1D1A7062
:103910003B461B685B7887F8033197F80331423BDD
:10392000382B01F2458201A252F823F03D490008EC
:10393000B14D0008B14D0008A1490008B14D000883
:10394000B14D0008B14D000807450008B14D000811
:10395000B14D0008B14D0008B14D0008C342000848
:10396000B14D0008B14D0008B14D0008B14D00083F
:10397000CD460008B14D0008B14D0008B14D00081A
:10398000B14D0008B14D0008B14D0008B14D00081F
:10399000B14D0008B14D0008B14D0008B14D00080F
:1039A000B14D0008B14D0008113A0008FB4600086F
:1039B000B14D0008B14D000877440008B14D000832
:1039C000D53A0008E5450008393D0008B14D00082A
:1039D000B14D0008B14D0008F1450008B1410008A3
:1039E000B14D0008793B0008B14D0008D9430008EB
:1039F000B14D0008B14D0008B14D0008193C000858
:103A0000DD3C000893480008B14D0008EF4600086F
:103A10003B461B68981C07F1C403023307F1C4023C
:103A2000C1490CF06FF80346A7F80031B7F900312F
:103A3000022B23D1B7F9C430002B17DDB7F9C630FC
:103A4000002B13DDB7F9C420B84BDA85B7F9C620CF
:103A5000B64B5A86FB1D1B7819466120FFF7EEFC1A
:103A6000FB1D1B781846FFF7B1FC30E0FB1D1B78EF
:103A700019460E20FFF78CFC01F0A1B9B7F900310F
:103A8000002B1EDCFB1D1B7819466120FFF7D6FCBE
:103A9000A64BB3F92E20FB1D1B7819461046FFF7E5
:103AA000ABFDA24BB3F93220FB1D1B781946104623
:103AB000FFF7A2FDFB1D1B781846FFF787FC01F0FE
:103AC0007EB9FB1D1B7819460720FFF761FC00BF7C
:103AD00001F075B93B461B68023307F1B8029449FF
:103AE00018460CF00FF80346A7F80031B7F900317B
:103AF000012B24D1D7E92E014FF000024FF0000333
:103B00000AF0F4FF0346002B11D0D7E92E34874A80
:103B1000C2E91034FB1D1B7819466720FFF78EFCA5
:103B2000FB1D1B781846FFF751FC01F048B9FB1D3F
:103B30001B7819460E20FFF72BFC01F040B9FB1D46
:103B40001B7819466720FFF779FC784BD3E91034CE
:103B5000184621460AF0EAFF03461AB2FB1D1B78FD
:103B600019461046FFF748FDFB1D1B781846FFF766
:103B70002DFC00BF01F023B9FB1D1B7819467020F6
:103B8000FFF75CFC694BD3E91234184621460AF072
:103B9000CDFF0246FB1D1B7819461046FFF7A0FD1E
:103BA000624BD3E91434184621460AF0BFFF02469F
:103BB000FB1D1B7819461046FFF792FDFDF728FF05
:103BC0000246FB1D1B7819461046FFF789FDFDF7DD
:103BD00003FFB0EE407AF0EE607AFB1D1B781846CA
:103BE000B0EE470AF0EE670AFFF78CFCFDF7BEFE69
:103BF000B0EE407AF0EE607AFB1D1B781846B0EE0E
:103C0000470AF0EE670AFFF77DFCFB1D1B7818469C
:103C1000FFF7DCFB01F0D3B83B461B68981C07F1AB
:103C2000B403023307F1B4023F490BF06BFF0346C4
:103C3000A7F80031B7F90031022B23D1B7F9B4301E
:103C4000002B17DDB7F9B630002B13DDB7F9B42020
:103C5000364B1A86B7F9B620344B9A86FB1D1B7873
:103C600019467620FFF7EAFBFB1D1B781846FFF785
:103C7000ADFB30E0FB1D1B7819460E20FFF788FBDB
:103C800001F09DB8B7F90031002B1EDCFB1D1B783D
:103C900019467620FFF7D2FB244BB3F93020FB1DE9
:103CA0001B7819461046FFF7A7FC204BB3F93420C8
:103CB000FB1D1B7819461046FFF79EFCFB1D1B7869
:103CC0001846FFF783FB01F07AB8FB1D1B781946F5
:103CD0000720FFF75DFB00BF01F071B800228021D3
:103CE0001248FEF703FDC7F8FC00FB1D1B781946C0
:103CF0007720FFF7A3FBD7F8FC30002B0CD1FB1D7E
:103D00001B7819460B48FFF7B7FBFB1D1B781846BD
:103D1000FFF75CFB01F053B8FB1D1B781946082028
:103D2000FFF736FB01F04BB8943701082807002055
:103D30009C370108A03701083B461B68981C07F117
:103D4000A803991C07F1A80207F1A8030A330393FB
:103D500007F1A8030833029307F1A8030633019380
:103D600007F1A803043300930B46B4490BF0CAFED5
:103D70000346A7F80031B7F90031022B40F3F88071
:103D8000B7F9A830002B40F3EB80B7F9A830102B1F
:103D900000F3E680B7F9AA30002B40F3E180B7F9D1
:103DA000AA30102B00F3DC80B7F9AC30002B40F3C5
:103DB000D780B7F9AC30102B00F3D280B7F9A82028
:103DC000B7F9AA309A4200F0CB80B7F9A820B7F92A
:103DD000AC309A4200F0C480B7F9AA20B7F9AC30F1
:103DE0009A4200F0BD80B7F9A830DBB2013BDAB2ED
:103DF000934B83F83620B7F9AA30DBB2013BDAB235
:103E00008F4B83F83720B7F9AC30DBB2013BDAB225
:103E10008B4B83F83820FB1D1B7819466920FFF770
:103E20000DFB874B93F836309BB201339BB21AB22D
:103E3000FB1D1B7819461046FFF7DEFB804B93F8FD
:103E400037309BB201339BB21AB2FB1D1B78194667
:103E50001046FFF7D1FB7A4B93F838309BB2013311
:103E60009BB21AB2FB1D1B7819461046FFF7C4FB24
:103E7000B7F90031032B21DDB7F9AE30002B19DD86
:103E8000B7F9AE30102B15DCB7F9AE30DBB2013B21
:103E9000DAB26B4B83F86820694B93F868309BB2B9
:103EA00001339BB21AB2FB1D1B7819461046FFF76F
:103EB000A3FB03E0624BFF2283F86820B7F90031CF
:103EC000042B21DDB7F9B030002B19DDB7F9B03084
:103ED000102B15DCB7F9B030DBB2013BDAB2584B2E
:103EE00083F86920564B93F869309BB201339BB23B
:103EF0001AB2FB1D1B7819461046FFF77DFB03E045
:103F00004F4BFF2283F86920B7F90031052B21DDE3
:103F1000B7F9B230002B19DDB7F9B230102B15DC30
:103F2000B7F9B230DBB2013BDAB2454B83F86A2015
:103F3000434B93F86A309BB201339BB21AB2FB1D1C
:103F40001B7819461046FFF757FB03E03C4BFF2256
:103F500083F86A20FB1D1B781846FFF737FA24E127
:103F6000FB1D1B7819460E20FFF712FA00F027BF41
:103F7000B7F90031002B00F31281FB1D1B781946A5
:103F80006920FFF75BFA2E4B93F836309BB2013372
:103F90009BB21AB2FB1D1B7819461046FFF72CFB8B
:103FA000274B93F837309BB201339BB21AB2FB1DFB
:103FB0001B7819461046FFF71FFB214B93F838304A
:103FC0009BB201339BB21AB2FB1D1B7819461046F7
:103FD000FFF712FB1A4B93F868309BB201339BB288
:103FE0001AB2FB1D1B7819461046FFF705FB144B50
:103FF00093F869309BB201339BB21AB2FB1D1B7858
:1040000019461046FFF7F8FA0D4B93F86A309BB249
:1040100001339BB21AB2FB1D1B7819461046FFF7FD
:10402000EBFAFB1D1B7819460648FFF725FA00231B
:10403000C7F80C310023C7F80C318FE0C0370108F6
:1040400028070020D8370108FB1D1B781946BE48F9
:10405000FFF712FAD7F80C319BB201339BB21AB2B8
:10406000FB1D1B7819461046FFF7C6FAFB1D1B788F
:104070001946B648FFF700FAD7F80C31DBB21846FC
:1040800001F04AFC03461A46FB1D1B7819461046F0
:10409000FFF7B2FAAE4B93F836301A46D7F80C3128
:1040A0009A4206D1FB1D1B781946AA48FFF7E4F98E
:1040B00049E0A74B93F837301A46D7F80C319A42AB
:1040C00006D1FB1D1B781946A348FFF7D5F93AE046
:1040D0009F4B93F838301A46D7F80C319A4206D1E4
:1040E000FB1D1B7819469D48FFF7C6F92BE0984B3E
:1040F00093F868301A46D7F80C319A4206D1FB1D66
:104100001B7819469648FFF7B7F91CE0904B93F8D7
:1041100069301A46D7F80C319A4206D1FB1D1B783C
:1041200019469048FFF7A8F90DE0894B93F86A30DB
:104130001A46D7F80C319A4205D1FB1D1B78194657
:104140008948FFF799F9FB1D1B7819468748FFF747
:1041500093F9D7F80C310133C7F80C31D7F80C318B
:104160000F2B7FF771AFFB1D1B7819468048FFF7B7
:1041700083F9804BDB6B1AB2FB1D1B781946104686
:10418000FFF73AFAFB1D1B7819467848FFF774F9D8
:10419000FB1D1B781846FFF719F900F010BEFB1D38
:1041A0001B7819460720FFF7F3F800BF00F007BEA1
:1041B0003B461B68981C07F1A003991C07F1A0025D
:1041C00007F1A003043300930B466B490BF09AFCF4
:1041D0000346A7F80031B7F90031032B3CD1B7F9FA
:1041E000A030B3F5FA7F2FDDB7F9A030B3F5FA6F41
:1041F0002ADAB7F9A230002B26DDB7F9A230632BFB
:1042000022DCB7F9A430B3F5967F1DDDB7F9A430F1
:10421000B3F5AF6F18DAFB1D1B7819466E20FFF758
:104220000DF9B7F9A0204A4B5A85B7F9A220484B9F
:104230009A85B7F9A420464BA3F86C20FB1D1B7888
:104240001846FFF7C3F839E0FB1D1B7819460E200E
:10425000FFF79EF800F0B3BDB7F90031002B27DC63
:10426000FB1D1B7819466E20FFF7E8F8384BB3F9B1
:104270002A20FB1D1B7819461046FFF7BDF9344B69
:10428000B3F92C20FB1D1B7819461046FFF7B4F933
:104290002F4BB3F96C20FB1D1B7819461046FFF716
:1042A000ABF9FB1D1B781846FFF790F800F087BDAF
:1042B000FB1D1B7819460720FFF76AF800BF00F0C6
:1042C0007EBD3B461B68981C07F19C03023307F137
:1042D0009C022A490BF016FC0346A7F80031B7F9F7
:1042E0000031022B4CD1B7F99C30B3F5FA7F22DDB7
:1042F000B7F99C30B3F5FA6F1DDAB7F99E30002B91
:1043000019DDB7F99E30632B15DCFB1D1B781946B0
:104310004E20FFF793F8B7F99C200D4BA3F86220CD
:10432000B7F99E200A4BA3F86420FB1D1B781846A2
:10433000FFF74CF84DE0FB1D1B7819460E20FFF7E8
:1043400027F800F03CBD00BFDC3701080038010849
:1043500028070020043801082438010844380108DF
:10436000603801088C380108AC380108D8370108DA
:10437000C838010800040040EC38010894370108EF
:10438000B7F90031002B1EDCFB1D1B7819464E20AF
:10439000FFF754F8C64BB3F96220FB1D1B78194692
:1043A0001046FFF729F9C24BB3F96420FB1D1B78B7
:1043B00019461046FFF720F9FB1D1B781846FFF73A
:1043C00005F800F0FCBCFB1D1B7819460720FEF722
:1043D000DFFF00BF00F0F3BC3B461B68023307F170
:1043E0009A02B44918460BF08DFB0346A7F800313A
:1043F000B7F90031012B26D1B7F99A30012B08D03B
:10440000B7F99A30B3F1FF3F03D0B7F99A30002BD8
:1044100011D1FB1D1B7819467220FFF70FF8B7F971
:104420009A305AB2A24B83F82920FB1D1B781846FC
:10443000FEF7CCFF1CE0FB1D1B7819460A20FEF797
:10444000A7FF00F0BCBCFB1D1B7819467220FEF7CD
:10445000F5FF974B93F929301AB2FB1D1B781946CB
:104460001046FFF7C9F8FB1D1B781846FEF7AEFF94
:1044700000BF00F0A4BC3B461B68023307F1940266
:104480008D4918460BF03EFB0346A7F80031B7F9FB
:104490000031012B21D1D7F89430B3F5FA7F14DD28
:1044A000D7F89430854A93420FDCFB1D1B781946E0
:1044B0006520FEF7C3FFD7F894307D4A1367FB1DD4
:1044C0001B781846FEF782FF1AE0FB1D1B78194681
:1044D0000E20FEF75DFF00F072BCFB1D1B78194635
:1044E0006520FEF7ABFF724B1A6FFB1D1B78194658
:1044F0001046FFF7F5F8FB1D1B781846FEF766FF20
:1045000000BF00F05CBC3B461B68023307F192021F
:10451000684918460BF0F6FA0346A7F80031B7F9D8
:104520000031012B35D1B7F99230002B12D1FB1D90
:104530001B7819464920FEF781FF5D4B002283F866
:104540006020FEF7CDFEFB1D1B781846FEF73EFFF0
:1045500000F035BCB7F99230012B12D1FB1D1B784E
:1045600019464920FEF76AFF514B012283F860206B
:10457000FEF78CFEFB1D1B781846FEF727FF00F0A8
:104580001EBCFB1D1B7819460E20FEF701FF00F034
:1045900016BCFB1D1B7819464920FEF74FFF444B04
:1045A00093F860301AB2FB1D1B7819461046FFF7CE
:1045B00023F83F4B93F86030002B06D1FB1D1B788E
:1045C00019463F48FEF758FF05E0FB1D1B781946CA
:1045D0003C48FEF751FFFB1D1B781846FEF7F6FE20
:1045E00000BFECE3FB1D1B78184600F0F5FBE6E38B
:1045F0003B461B68023307F190022E4918460BF028
:1046000081FA0346A7F80031B7F90031012B24D114
:10461000B7F99030022B07D0B7F99030032B03D0B5
:10462000B7F99030012B11D1FB1D1B7819466D2075
:10463000FEF704FFB7F99030DAB21D4B83F839204A
:10464000FB1D1B781846FEF7C1FE2EE0FB1D1B78F4
:1046500019460B20FEF79CFEB1E3FB1D1B781946A3
:104660006D20FEF7EBFE124B93F839301AB2FB1DAA
:104670001B7819461046FEF7BFFFFB1D1B78194635
:104680001148FEF7F9FE0A4B93F83930184601F04D
:1046900039F80246FB1D1B7819461046FEF7ECFE62
:1046A000FB1D1B781846FEF791FE00BF87E300BF95
:1046B00028070020F8380108FC380108A08601000E
:1046C00000390108203901083C390108FB1D1B781D
:1046D00019465320FEF7B2FEFB1D1B781846FEF765
:1046E00075FEFB1D1B78184600F078FC67E3FB1D88
:1046F0001B78184600F008FF61E33B4618680BF092
:1047000035FA03460A2B40F296800223A7F80A31B5
:1047100007F10803C7F8F83004E0B7F80A310133AD
:10472000A7F80A31B7F80A413B4618680BF01EFAA1
:1047300003469C420CD2B7F80A31B3F5FF7F07D885
:10474000B7F80A313A46126813441B78202BE4D09C
:104750000023A7F8083146E0B7F80A315A1CA7F839
:104760000A211A463B461B6813441B781846FEF77D
:10477000EFFFC7F8F400B7F80A315A1CA7F80A216E
:104780001A463B461B6813441B781846FEF7E0FFA9
:10479000C7F8F000D7F8F430B3F1FF3F1CD0D7F8DA
:1047A000F030B3F1FF3F17D0D7F8F430DBB21B0184
:1047B000DAB2D7F8F030DBB2134487F8EF30B7F84D
:1047C00008315A1CA7F808211A46D7F8F8301344C4
:1047D00097F8EF201A7006E0FB1D1B7819460E2093
:1047E000FEF7D6FDEBE2B7F80A413B4618680BF03E
:1047F000BDF90346013B9C4208D2B7F80A31B3F534
:10480000FF7F03D8B7F808317F2BA5D9B7F8083157
:104810007F2B07D8FB1D1B7819460E20FEF7B8FD2D
:1048200000BFCCE25A4A07F108031046194680231C
:104830001A460AF0EDF9FB1D1B7819466220FEF7B7
:10484000FDFDFB1D1B7819462020FEF73FFE504B57
:10485000C7F8F8300023C7F8043110E0D7F8043166
:10486000D7F8F82013441A78FB1D1B781946104618
:10487000FEF7FCFED7F804310133C7F80431D7F84E
:1048800004317F2BEAD9FB1D1B781846FEF79EFDED
:1048900095E23B461B68023307F188023D49184602
:1048A0000BF030F90346A7F80031B7F90031012BBE
:1048B0002CD1D7E922014FF000024FF000030AF09B
:1048C00015F90346002B1AD0D7E922014FF0000258
:1048D000314B0AF0F7F80346002B10D0D7E9223409
:1048E0002B4AC2E91E34FB1D1B7819467820FEF7BF
:1048F000A5FDFB1D1B781846FEF768FD5FE2FB1D5A
:104900001B7819460E20FEF743FD58E2FB1D1B786D
:1049100019467820FEF792FD1D4B93ED1E7BFB1D83
:104920001B781846B0EE470AF0EE670AFEF7EAFD7C
:10493000FB1D1B781846FEF749FD40E2FB1D1B7866
:10494000012B1DD1FB1D1B7819464220FEF776FD79
:10495000FB1D1B7819461148FEF78EFDFCF72EFE55
:104960000346012B05D1FB1D1B781846FEF72EFDD3
:1049700025E2FB1D1B7819460C20FEF709FD1EE2FF
:10498000FB1D1B7819460D20FEF702FD17E200BF44
:10499000280700209C3701080000F03F403901083B
:1049A000FB1D1B7819464520FEF748FDFB1D1B78B3
:1049B0001946D948FEF760FDD84BB3F900301BB259
:1049C0001846FEF7C7FC034607EE903AF8EEE77A82
:1049D000B2EE047AC7EE876AFB1D1B781846B0EE6C
:1049E000660AFEF7CBFDFB1D1B781946CC48FEF787
:1049F00043FDCA4BB3F902301BB21846FEF7AAFCBE
:104A0000034607EE903AF8EEE77AB2EE047AC7EE84
:104A1000876AFB1D1B781846B0EE660AFEF7AEFDEE
:104A2000FB1D1B781946BF48FEF726FDBB4B5B6894
:104A3000C7F8E830D7F8E8301BBA184609F050FD3F
:104A40004FF00002B84B09F0EBFE03460C4644EC75
:104A5000173BFB1D1B781846B0EE470AF0EE670ABD
:104A6000FEF750FDFB1D1B781946B048FEF704FD0C
:104A7000AA4B9B68C7F8E430D7F8E4301BBA184655
:104A800009F02EFD4FF00002A74B09F0C9FE0346C6
:104A90000C4644EC173BFB1D1B781846B0EE470A4A
:104AA000F0EE670AFEF72EFDFB1D1B781946A048A5
:104AB000FEF7E2FC994BB3F914301BB21846FEF72F
:104AC00049FC034607EE903AF8EEE77A9FED997AB3
:104AD000C7EE876AFB1D1B781846B0EE660AFEF724
:104AE0004DFDFB1D1B7819469348FEF7C5FC8B4B0B
:104AF000D3F81630C7F8E030D7F8E0301BBA1A46C2
:104B0000FB1D1B7819461046FEF7EAFDFB1D1B78BE
:104B100019468A48FEF7B0FC804BB3F91A301BB235
:104B20001846FEF717FC034607EE903AF8EEE77AD0
:104B3000B2EE047AC7EE876AFB1D1B781846B0EE0A
:104B4000660AFEF71BFDFB1D1B7819467C48FEF725
:104B500093FC724BDB69C7F8DC30D7F8DC301BBA4A
:104B6000184609F0BDFC4FF00002764B09F058FEE4
:104B700003460C4644EC173BFB1D1B781846B0EE71
:104B8000470AF0EE670AFEF7BDFCFB1D1B781946CD
:104B90006D48FEF771FC614B1B6AC7F8D830D7F837
:104BA000D8301BBA184609F09BFC4FF00002654B49
:104BB00009F036FE03460C4644EC173BFB1D1B7800
:104BC0001846B0EE470AF0EE670AFEF79BFCFB1DA5
:104BD0001B7819465D48FEF74FFC504B5B6AC7F8DF
:104BE000D430D7F8D4301BBA184609F079FC48A362
:104BF000D3E9002309F014FE03460C4644EC173BAE
:104C0000FB1D1B781846B0EE470AF0EE670AFEF768
:104C100079FCFB1D1B7819464D48FEF72DFC3F4BD8
:104C20009B6AC7F8D030D7F8D0301BBA184609F0C5
:104C300057FC37A3D3E9002309F0F2FD03460C46E5
:104C400044EC173BFB1D1B781846B0EE470AF0EE0C
:104C5000670AFEF757FCFB1D1B7819463D48FEF717
:104C60000BFC2E4BDB6AC7F8CC30D7F8CC301BBA24
:104C70001A46FB1D1B7819461046FEF731FDFB1D39
:104C80001B7819463448FEF7F7FB244B1B6BC7F81B
:104C9000C830D7F8C8301BBA1A46FB1D1B78194616
:104CA0001046FEF71DFDFB1D1B7819462B48FEF72D
:104CB000E3FB1A4B93F83430062B73D801A252F859
:104CC00023F000BFE14C0008EF4C0008FD4C000849
:104CD0006D4D00087B4D0008894D0008974D000878
:104CE000FB1D1B7819461E48FEF7C6FB5AE0FB1D4C
:104CF0001B7819461B48FEF7BFFB53E0FB1D1B78D2
:104D000019461948FEF7B8FB4CE000BFAFF300802E
:104D1000000000000088C34058390108F4D6002084
:104D200068390108783901080000594088390108BC
:104D30009839010800007A44A4390108AC39010807
:104D4000B839010800002440CC390108E0390108D5
:104D5000F0390108043A0108143A0108283A010818
:104D6000343A01083C3A01084C3A0108FB1D1B7813
:104D700019461548FEF780FB14E0FB1D1B78194609
:104D80001248FEF779FB0DE0FB1D1B781946104811
:104D9000FEF772FB06E0FB1D1B7819460D48FEF777
:104DA0006BFB00BFFB1D1B781846FEF70FFB06E0F0
:104DB000FB1D1B7819460620FEF7EAFA00BF07F52F
:104DC0008A77BD4690BD00BF5C3A0108683A010889
:104DD000783A0108883A010880B582B000AF0346EE
:104DE000FB71FB79184601F05DF8FB79184601F07C
:104DF00059F8FB7919465D4800F0E4FFFB79194644
:104E00005B4800F055FF5B4B93F83930184600F0D3
:104E100079FC0246FB791946104600F0D3FFFB7976
:104E20001946554800F044FF524B93F86030002B70
:104E300005D1FB791946514800F0C4FF04E0FB7925
:104E400019464F4800F0BEFFFB7919464D4800F067
:104E50002FFF00F02BFC0246FB791946104600F0AC
:104E600027FFFB79184601F01DF8FB79184601F081
:104E700019F8FB79184601F015F8FB79184601F08E
:104E800011F8FB791946404800F09CFFFB79184661
:104E900001F008F802F0DAFAFB7919463B4800F015
:104EA00091FFFB7919463A4800F08CFFFB791946CF
:104EB000384800F087FFFB791946374800F082FF39
:104EC000FB791946354800F07DFFFB7919463448D7
:104ED00000F078FFFB791946324800F073FFFB7948
:104EE0001946314800F06EFFFB7919462F4800F053
:104EF00069FFFB7919462E4800F064FFFB791946DB
:104F00002C4800F05FFFFB7919462B4800F05AFF50
:104F100002F09CFAFB791946284800F053FFFB7910
:104F20001946274800F04EFFFB791946254800F046
:104F300049FFFB791946244800F044FFFB791946E4
:104F4000224800F03FFFFB791946214800F03AFF64
:104F5000FB7919461F4800F035FFFB7919461E48BA
:104F600000F030FF00BF0837BD4680BDA807002015
:104F70009C3A010828070020AC3A0108C43A01080D
:104F8000CC3A0108D43A0108F83A0108103B01086C
:104F9000843B0108E83B0108683C0108B43C010877
:104FA0002C3D0108A43D01080C3E0108583E0108B3
:104FB000A43E0108F43E0108543F0108C03F010827
:104FC0003040010888400108C04001082C41010818
:104FD00068410108D441010818420108B0B584B005
:104FE00000AF0346FB71FB79184600F05BFFFB79CD
:104FF000184600F057FFFB79184600F053FFFB7985
:105000001946B14800F0DEFEFB79184600F04AFF71
:10501000FB79184600F046FFFB791946AB4800F0D3
:1050200047FEFB791946AA4800F0CCFEFB791846EA
:1050300000F038FFFB79184600F034FFFB79194681
:10504000A44800F0BFFEA44B5B6AFB60A04BD3E911
:1050500012019F4BD3E914341A46234609F046FD4A
:105060000346002B16D09A4BD3E91234184621463A
:1050700009F05CFD0346BB60954BD3E91434944AB8
:10508000C2E91234B86809F03BFA03460C46904A6C
:10509000C2E91434FB791946904800F009FEF8681B
:1050A00009F02EFA8A4BD3E912341A46234609F046
:1050B000FFFC0346002B09D0FB791946F86800F085
:1050C00007FEFB791946864800F0F2FD804BD3E9D4
:1050D00012341846214609F029FD0246FB7919468B
:1050E000104600F0F5FDFB7919467E4800F0E0FD22
:1050F000774BD3E91245F86809F002FA02460B46ED
:105100002046294609F0DEFC0346002B11D0F86842
:1051100009F0F6F96E4BD3E914341A46234609F028
:10512000D1FC0346002B04D0FB791946F86800F047
:10513000CFFDFB7919466C4800F0BAFD644BD3E90A
:1051400014341846214609F0F1FC0246FB79194651
:10515000104600F0BDFDF86809F0D2F95C4BD3E9C8
:1051600014341A46234609F0C1FC0346002B09D02B
:10517000FB7919465A4800F09BFDFB791946F868FF
:1051800000F0A6FDFB79184600F08CFEFB7918466E
:1051900000F088FEFB79184600F084FEFB79194682
:1051A000524800F00FFEFB791946514800F080FD8F
:1051B000474BB3F92A30FA791146184600F040FD02
:1051C000FB7919464B4800F073FD414BB3F92C3085
:1051D000FA791146184600F0D9FDFB79184600F01F
:1051E00061FEFB79184600F05DFEFB7919464248E6
:1051F00000F0E8FDFB791946404800F059FD404BAE
:1052000093F85130002B05D1FB7919463D4800F049
:10521000D9FD03E0FB79184600F044FE2C4B93F8CF
:105220003930022B16D02A4B93F83930032B11D08A
:10523000FB791946344800F03BFD00F037FA02468E
:10524000FB791946104600F033FDFB7919462F48CB
:1052500000F0B8FDFB7919462D4800F029FD1C4BE4
:10526000B3F92E30FA791146184600F0E9FCFB79C3
:105270001946284800F01CFDFB791946264800F025
:1052800017FD134BB3F93030FA791146184600F088
:10529000D7FCFB791946214800F094FDFB791846AC
:1052A00000F000FE02F0D2F8FB7919461C4800F02D
:1052B000FFFC134B93F85130012B33D1FB79194686
:1052C000104800F07FFD31E090420108A042010843
:1052D00028070020C4420108000C0040F8420108E1
:1052E000FC42010804430108144301082443010857
:1052F0004C430108604301086443010874430108FA
:10530000A80700208843010894430108A44301082A
:10531000D0430108EC430108F84301081C4401088C
:1053200038440108FB79184600F0BCFDFB791946AA
:10533000634800F0BDFC634BB3F93230FA79114693
:10534000184600F07DFCFB7919465F4800F0B0FC80
:10535000FB7919465D4800F0ABFC5A4BB3F9343089
:10536000FA791146184600F06BFCFB79194658484B
:1053700000F028FDFB79184600F094FDFB791846F3
:1053800000F090FDFB791946524800F01BFDFB79B7
:105390001946514800F08CFC4A4BB3F96230FA7957
:1053A0001146184600F04CFCFB7919464B4800F0BA
:1053B0007FFC444BB3F96430FA791146184600F08B
:1053C000E5FCFB79184600F06DFDFB79184600F00E
:1053D00069FDFB791946424800F0F4FCFB79194657
:1053E000404800F0EFFCFB7919463F4800F0EAFC2A
:1053F000FB7919463D4800F05BFC324B93F92930AC
:105400001BB2FA791146184600F01AFC2D4B93F99D
:105410002930B3F1FF3F07D0012B0BD1FB7919469F
:10542000334800F045FC0BE0FB791946314800F0A9
:105430003FFC05E0FB7919462F4800F039FC00BF1E
:10544000FB79184600F02EFDFB79184600F02AFD86
:10545000FB79184600F026FDFB791946274800F035
:10546000B1FCFB791946264800F022FC154B93F855
:1054700039301BB2FA791146184600F0E1FBFB798E
:105480001946204800F014FC0E4B93F839301846AA
:1054900000F038F90246FB791946104600F092FCFC
:1054A000FB79184600F0FEFCFB79184600F0FAFC88
:1054B000FB79184600F0F6FC00BF1037BD46B0BDC2
:1054C000D043010828070020EC430108F8430108F5
:1054D0001C4401084C4401084C4301086043010886
:1054E00094440108E844010848450108A84501081A
:1054F000C0450108EC450108184601086C46010842
:10550000844601083C39010880B588B000AF0346E5
:10551000FB71644B03F5204358331B88FB82B7F9BA
:105520001630FB6158E0FA6913469B001344DB0018
:1055300058335C4A13443B613B695B6A002B48D09B
:105540003B695B6A1A46FB791946104600F0C0FBBE
:105550003B69B3F90830FA791146184600F070FB40
:105560003B691B8C1BB2FA791146184600F068FBA8
:105570003B6993ED067BFB791846B0EE470AF0EEE7
:10558000670A00F0C1FB3B6993ED007BFB7918468D
:10559000B0EE470AF0EE670A00F0B6FB3B6993ED08
:1055A000047BFB791846B0EE470AF0EE670A00F07C
:1055B00037FCF9693C4B83FB0123DA10CB17D21A75
:1055C00013469B0013449B00CA1A002A01D101F024
:1055D0003DFFFB690133FB61FB69B3F5806FA2DB23
:1055E0000023BB6154E0BA6913469B001344DB00FF
:1055F00058332C4A1344FB60FB685B6A1A46FB79FC
:105600001946104600F064FBFB68B3F90830FA79DC
:105610001146184600F014FBFB681B8C1BB2FA798C
:105620001146184600F00CFBFB6893ED067BFB79F6
:105630001846B0EE470AF0EE670A00F065FBFB681B
:1056400093ED007BFB791846B0EE470AF0EE670A4F
:1056500000F05AFBFB6893ED047BFB791846B0EE33
:10566000470AF0EE670A00F0DBFBB9690E4B83FBDB
:105670000123DA10CB17D21A13469B0013449B0068
:10568000CA1A002A01D101F0E1FEBB690133BB61F6
:10569000B7F91620BB699A42A5DC00BF2037BD468A
:1056A00080BD00BFA80700206766666680B400AFB3
:1056B0000E4B93F85130032B12D801A252F823F06D
:1056C000DD560008D9560008D1560008D556000806
:1056D000074B06E0074B04E0074B02E0074B00E0F6
:1056E000074B1846BD465DF8047B7047A8070020AD
:1056F0008C46010898460108B0460108CC460108CE
:10570000D846010880B483B000AF0346FB71FB7933
:10571000022B04D0032B04D0012B04D005E0064B50
:1057200004E0064B02E0064B00E0064B18460C373F
:10573000BD465DF8047B7047F04601080C47010840
:10574000344701084047010880B483B000AF0346E6
:10575000FB71064B00225A60044AFB7982F84C30F8
:1057600000BF0C37BD465DF8047B704708A80020D9
:1057700080B500AF664B1B780F2B40F0C780644BA1
:105780001B7E002B40F0C28002F04EFE0246614BB1
:105790005A605F4B1B68C3F30A239BB21A465D4BEA
:1057A0001A855B4B5B88C3F3CA039BB21A46594BFD
:1057B0005A85574BDA789209D2B29B88C3F3080313
:1057C0009B0013439BB21A46524B9A85504B5B6821
:1057D000C3F34A239BB21A464E4BDA854C4BDB8807
:1057E000C3F30A139BB21A464A4B1A86484BDA791E
:1057F000D209D2B21B89C3F309035B0013439BB2E6
:105800001A46444B5A86424B9B68C3F38A239BB289
:105810001A46404B9A863E4B5B89C3F34A139BB2B0
:105820001A463C4BDA863A4B9B89C3F30A039BB278
:105830001A46384B1A87364BDB68C3F3CA239BB230
:105840001A46344B5A87324BDA89920992B21B7C42
:1058500003F001039B0213439BB21A462D4B9A8718
:105860002B4B1B8AC3F34A039BB21A46294BDA8798
:10587000274B1B69C3F30A339BB21A46254BA3F887
:105880004020234B5A8AD20992B21B7D03F00303B6
:105890005B0213439BB21A461E4BA3F842201C4BDB
:1058A0009B8AC3F38A039BB21A461A4BA3F844207F
:1058B000174B5B69C3F34A339BB21A46154BA3F8E7
:1058C0004620134BDB7D03F00103DAB2114B83F862
:1058D00048200F4BDB7D03F00203DAB20D4B83F857
:1058E00049200B4BDB7D03F00403DAB2094B83F84C
:1058F0004A20074BDB7D03F00803DAB2054B83F83F
:105900004B20044B1B690133024A136100BF80BD69
:105910009002002008A8002080B584B000AF0346A4
:10592000FB7102F081FD02462D4B5B68D31A40F6F5
:10593000B832934204D82A4B93F84B30002B01D055
:10594000002348E0FB790F2B44D80023FB81FB792F
:10595000234A143332F81330002B01D100233AE0EC
:105960001F4B93F84C30022B09D1FB791C4A14339E
:1059700032F81330A3F5FA739BB2FB8105E0FB7993
:10598000174A143332F81330FB81B7F90E20154B48
:10599000B3F92A301946134BB3F96C30CB1A1149BD
:1059A000B1F92C105B1A9A4212DBB7F90E200D4B9D
:1059B000B3F92A3019460B4BB3F92C300B44094983
:1059C000B1F96C100B449A4202DCB7F90E3002E0D8
:1059D000002300E0002318461037BD4680BD00BFFD
:1059E00008A800202807002080B400AF024B18460A
:1059F000BD465DF8047B70479002002080B58EB0F4
:105A000000AF78607B681B681B683B637B681B6822
:105A1000DB68FB627B681B685B69BB6200237B629F
:105A20007B681B685B6887F823303B6B03F00F03D0
:105A30007B627B6A002B62D13B6B03F02003002B5F
:105A400000F0F680FB6A03F02003002B00F0F080EA
:105A500002F0EAFCF861784B1B68FA69D31ABB6163
:105A6000BB69032B0DD97B68744A9A627B68192243
:105A7000DA85714AFB6913606F4B5B6901336E4ACB
:105A800053617B68DB8D9BB2002B00F0D1807B687B
:105A90009B6A97F823201A707B68DB8D9BB2192BC9
:105AA00005D17B689B6A1B780F2B40F0C1807B6817
:105AB000DB8D9BB2192B02D15F4AFB6913607B68B7
:105AC000DB8D9BB2013B9AB27B68DA857B689B6A6F
:105AD0005A1C7B689A627B68DB8D9BB2002B40F07E
