:020000040800F2
:100000000000022091860008A18C0008B18C000835
:10001000C58C0008D98C0008ED8C00080000000099
:10002000000000000000000000000000018D00083A
:10003000118D000800000000218D0008318D00089E
:10004000EB860008ED860008EF860008F1860008C0
:10005000F3860008F5860008F7860008F986000890
:10006000FB860008FD860008FF860008018700085F
:10007000038700080587000807870008098700082C
:100080000B8700080D8700080F87000811870008FC
:1000900013870008158700081787000819870008CC
:1000A0001B8700081D8700081F870008A58D000812
:1000B000238700082587000827870008298700086C
:1000C0002B8700082D8700082F870008318700083C
:1000D00033870008418D0008558D0008698D0008A0
:1000E0003B8700083D8700083F87000841870008DC
:1000F00043870008458700084787000849870008AC
:100100004B8700084D870008B98D0008518700080B
:10011000538700085587000857870008598700084B
:100120005B8700085D8700085F870008618700081B
:1001300063870008658700086787000869870008EB
:100140006B8700086D8700086F870008918D000895
:100150007387000875870008778700087D8D000881
:100160007B8700087D8700087F870008818700085B
:10017000838700088587000887870008898700082B
:100180008B8700088D87000810B5054C237833B99C
:10019000044B13B10448AFF300800123237010BD5A
:1001A00044020020000000007C7F0108084B10B5CD
:1001B0001BB108490848AFF300800848036803B939
:1001C00010BD074B002BFBD0BDE81040184700BF07
:1001D00000000000480200207C7F0108440200204B
:1001E00000000000154B002B08BF134B9D46A3F5E4
:1001F000803A00218B460F461348144A121A11F018
:10020000B6F80F4B002B00D098470E4B002B00D0B8
:1002100098470020002104000D000D48002802D05E
:100220000C48AFF3008011F061F82000290002F0C3
:100230007FFB11F047F800BF00000800000002201B
:10024000000000000000000044020020A839002047
:10025000000000000000000080B584B000AF7860AE
:100260000B46FB700023FB737B681B7C002B0ED1BD
:100270004FF4007302228121786809F035FC4FF4B5
:10028000007302220121786809F02EFC0BE0402364
:1002900002228121786809F027FC402302220121F3
:1002A000786809F021FC082303228221786809F08C
:1002B0001BFC4FF4077011F03FF803461A467B68A9
:1002C000C3F818227B68D3F81832002B02D101231F
:1002D000FB7326E07B68D3F81832BB607B68D3F8E9
:1002E0001C321B689847BB680022C3F81422BB6805
:1002F0000022C3F818227B681B7C002B09D1BB6845
:10030000D3F804224FF400730121786809F068FDE6
:1003100007E0BB68D3F8042240230121786809F084
:100320005FFDFB7B18461037BD4680BD80B584B0AD
:1003300000AF78600B46FB700023FB738121786867
:1003400009F010FC0121786809F00CFC8221786822
:1003500009F008FC7B68D3F81832002B0ED07B68BC
:10036000D3F81C325B6898477B68D3F8183218467C
:1003700010F0EAFF7B680022C3F81822FB7B1846C6
:100380001037BD4680BD00BF80B584B000AF786037
:1003900039607B68D3F81832FB603B681B7803F048
:1003A0006003002B3AD0202B00D043E03B68DB8871
:1003B000002B29D03B681B785BB2002B11DA7B68DD
:1003C000D3F81C329B683A685078F9683A68D2884A
:1003D0009847F9683B68DB881A46786801F068F846
:1003E00029E03B685A78FB6883F800223B68DB8889
:1003F000DAB2FB6883F80122F9683B68DB881A46A9
:10040000786801F083F816E07B68D3F81C329B68AB
:100410003A6850780022396898470CE03B685B786E
:100420000A2B01D00B2B05E001220549786801F069
:100430003FF800BF00BF002318461037BD4680BDFF
:100440006002002080B485B000AF78600B46FB707E
:100450007B68D3F81832FB607B68D3F81832002B26
:1004600005D0FB680022C3F81422002300E0022319
:1004700018461437BD465DF8047B704780B584B0DC
:1004800000AF78600B46FB707B68D3F81832FB60D6
:10049000FB781946786809F0DDFC0246FB68C3F872
:1004A0000C227B68D3F81832002B0DD07B68D3F870
:1004B0001C32DB68FA68D2F80402FA6802F50372AB
:1004C00011469847002300E0022318461037BD4626
:1004D00080BD00BF80B584B000AF78607B68D3F882
:1004E0001832FB607B68D3F81C32002B15D0FB68F8
:1004F00093F80032FF2B10D07B68D3F81C329B6836
:10050000FA6892F80002F968FA6892F8012292B249
:100510009847FB68FF2283F8002200231846103713
:10052000BD4680BD80B483B000AF78607B68432255
:100530001A80034B18460C37BD465DF8047B7047A4
:100540008800002080B483B000AF78607B684322CD
:100550001A80034B18460C37BD465DF8047B704784
:100560004400002080B483B000AF78607B684322F1
:100570001A80034B18460C37BD465DF8047B704764
:10058000CC00002080B483B000AF78607B680A2282
:100590001A80034B18460C37BD465DF8047B704744
:1005A0000000002080B485B000AF7860396002237D
:1005B000FB733B68002B05D07B683A68C3F81C22AC
:1005C0000023FB73FB7B18461437BD465DF8047BA4
:1005D000704700BF80B487B000AFF860B9601346C1
:1005E000FB80FB68D3F818327B617B69BA68C3F87B
:1005F0000822FA887B69C3F81022002318461C37AA
:10060000BD465DF8047B704780B485B000AF78606C
:1006100039607B68D3F81832FB60FB683A68C3F82E
:100620000422002318461437BD465DF8047B70474A
:1006300080B584B000AF78607B68D3F81832FB6077
:100640007B68D3F81832002B17D0FB68D3F814322C
:10065000002B10D1FB680122C3F81422FB68D3F8E9
:100660000822FB68D3F810329BB28121786809F028
:100670007DFB002302E0012300E00223184610372F
:10068000BD4680BD80B584B000AF78607B68D3F88C
:100690001832FB607B68D3F81832002B17D07B68C8
:1006A0001B7C002B09D1FB68D3F804224FF40073A4
:1006B0000121786809F094FB07E0FB68D3F8042275
:1006C00040230121786809F08BFB002300E002231E
:1006D00018461037BD4680BD80B584B000AFF860C5
:1006E000B9601346FB71FB68002B01D102231AE0AD
:1006F000FB68D3F81432002B03D0FB680022C3F848
:100700001422BB68002B03D0FB68BA68C3F8102220
:10071000FB68012283F8FC21FB68FA791A70F868FB
:1007200009F05CF9002318461037BD4680BD00BFB4
:1007300080B485B000AF786039600023FB733B68FC
:10074000002B06D07B683A68C3F814220023FB73A1
:1007500001E00223FB73FB7B18461437BD465DF8AE
:10076000047B704780B582B000AF7860786809F08C
:1007700089F9002318460837BD4680BD80B483B090
:1007800000AF7860002318460C37BD465DF8047B47
:10079000704700BF80B584B000AF78600B46FB7037
:1007A0000223FB737B68D3F81432002B0CD07B68D8
:1007B000D3F814321B68FA781146786898470346D4
:1007C000002B01D10023FB73FB7B18461037BD467D
:1007D00080BD00BF80B582B000AF78600B46FB7073
:1007E0007B68D3F814325B68FA78114678689847CA
:1007F000002318460837BD4680BD00BF80B582B0D3
:1008000000AF786039607B6803F502733968184679
:1008100000F0A2FD7B680122C3F8F4217B68B3F8E5
:100820000E321A467B68C3F8F8217B6893F80832C9
:1008300003F01F03012B0BD0022B11D0002B17D17B
:100840007B6803F502731946786800F0CFF91AE067
:100850007B6803F502731946786800F017FA12E016
:100860007B6803F502731946786800F043FA0AE0E2
:100870007B6893F8083223F07F03DBB2194678686F
:1008800009F0A6F900BF002318460837BD4680BD11
:1008900080B586B000AFF8600B467A60FB72FB7AD9
:1008A000002B38D1FB6803F582737B61FB68D3F8BA
:1008B000F431032B42D17B699A687B69DB689A42E9
:1008C00014D97B699A687B69DB68D21A7B699A6064
:1008D0007B69DA687B699B68934228BF13469BB2A9
:1008E0001A467968F86800F02FFE27E0FB68D3F815
:1008F00014321B69002B0AD0FB6893F8FC31032BE0
:1009000005D1FB68D3F814321B69F8689847F8687A
:1009100000F02CFE12E0FB68D3F814329B69002B28
:100920000CD0FB6893F8FC31032B07D1FB68D3F89C
:1009300014329B69FA7A1146F868984700231846E2
:100940001837BD4680BD00BF80B586B000AFF860E7
:100950000B467A60FB72FB7A002B6CD1FB68143378
:100960007B61FB68D3F8F431022B57D17B699A681D
:100970007B69DB689A4215D97B699A687B69DB6879
:10098000D21A7B699A607B699B689BB21A46796828
:10099000F86800F0A9FD002300220021F86809F0A2
:1009A0001FFA3BE07B695B687A69D268B3FBF2F1BE
:1009B00002FB01F29B1A002B1CD17B695A687B69F0
:1009C000DB689A4216D37B695A68FB68D3F8F83122
:1009D0009A420FD200220021F86800F085FDFB68E2
:1009E0000022C3F8F821002300220021F86809F052
:1009F000F7F913E0FB68D3F81432DB68002B0AD058
:100A0000FB6893F8FC31032B05D1FB68D3F8143253
:100A1000DB68F8689847F86800F0BCFDFB6893F85D
:100A20000032012B1AD1F868FFF7A8FEFB680022FC
:100A300083F8002212E0FB68D3F814325B69002BC4
:100A40000CD0FB6893F8FC31032B07D1FB68D3F87B
:100A500014325B69FA7A1146F86898470023184601
:100A60001837BD4680BD00BF80B582B000AF78604A
:100A7000402300220021786809F036F87B68402284
:100A8000C3F81021402300228021786809F02CF857
:100A90007B6840221A627B68012283F8FC217B6814
:100AA000D3F81832002B09D07B68D3F814325B6876
:100AB0007A685268D2B2114678689847002318467F
:100AC0000837BD4680BD00BF80B483B000AF7860FA
:100AD0000B46FB707B68FA781A74002318460C37B3
:100AE000BD465DF8047B704780B483B000AF78608A
:100AF0007B6893F8FC217B6883F8FD217B680422E6
:100B000083F8FC21002318460C37BD465DF8047BB2
:100B1000704700BF80B483B000AF78607B6893F803
:100B2000FD217B6883F8FC21002318460C37BD4665
:100B30005DF8047B704700BF80B582B000AF78607D
:100B40007B6893F8FC31032B0BD17B68D3F814320C
:100B5000DB69002B05D07B68D3F81432DB69786839
:100B60009847002318460837BD4680BD80B483B03F
:100B700000AF78600B46FB70002318460C37BD466B
:100B80005DF8047B704700BF80B483B000AF78602D
:100B90000B46FB70002318460C37BD465DF8047BFE
:100BA000704700BF80B483B000AF78600023184660
:100BB0000C37BD465DF8047B704700BF80B582B03E
:100BC00000AF78607B68012283F8FC217B68D3F852
:100BD00014325B687A685268D2B2114678689847D6
:100BE000002318460837BD4680BD00BF80B584B0DD
:100BF00000AF786039600023FB733B685B78092B9A
:100C000039D801A252F823F0590C00086D0C0008E5
:100C1000770C0008630C0008770C00083B0C0008F8
:100C2000310C0008770C00084F0C0008450C000838
:100C30003968786800F036F922E03968786800F0A1
:100C400025FA1DE03968786800F05EFA18E0396826
:100C5000786800F0E1FA13E03968786800F00EFB7C
:100C60000EE03968786800F033FB09E0396878688D
:100C700000F04AFB04E03968786800F0ABFB00BF85
:100C8000FB7B18461037BD4680BD00BF80B584B0E1
:100C900000AF786039600023FB737B6893F8FC3108
:100CA000032B1BD13B689B88DBB2012B11D87B68DF
:100CB000D3F814329B683968786898473B68DB88BA
:100CC000002B10D1FB7B002B0DD1786800F04EFC7F
:100CD00009E03968786800F07DFB04E039687868DD
:100CE00000F078FB00E000BF002318461037BD4637
:100CF00080BD00BF80B584B000AF7860396000234C
:100D0000FB733B689B88BB733B681B7803F06003F5
:100D1000202B08D17B68D3F814329B683968786837
:100D200098470023BAE03B685B78012B39D0032B4E
:100D300002D0002B6BD0B0E07B6893F8FC31022B23
:100D400002D0032B0CD025E0BB7B002B27D0BB7B34
:100D5000802B24D0BB7B1946786808F039FF1EE051
:100D60003B685B88002B0AD1BB7B002B07D0BB7B89
:100D7000802B04D0BB7B1946786808F029FF7B687C
:100D8000D3F814329B68396878689847786800F01F
:100D9000EDFB05E03968786800F01CFB00E000BF5F
:100DA0007BE07B6893F8FC31022B02D0032B0CD044
:100DB00024E0BB7B002B26D0BB7B802B23D0BB7BCE
:100DC0001946786808F004FF1DE03B685B88002B3B
:100DD0001BD1BB7B03F07F03002B0BD0BB7B1946E1
:100DE000786808F02BFF7B68D3F814329B68396869
:100DF00078689847786800F0B9FB06E03968786849
:100E000000F0E8FA02E000BF47E000BF45E07B6881
:100E100093F8FC31022B02D0032B0BD036E0BB7BC6
:100E200003F07F03002B36D0BB7B1946786808F0AF
:100E3000CFFE30E097F90E30002B08DABB7B03F0D1
:100E40007F0301331B017A681344043307E0BB7B43
:100E500003F07F0310331B017A6813440433BB6033
:100E6000BB7B1946786808F01FFF0346002B03D0B0
:100E7000BB6801221A6002E0BB6800221A60BB68EE
:100E800002221946786800F013FB05E0396878689B
:100E900000F0A0FA00E000BF00BFFB7B184610374F
:100EA000BD4680BD80B584B000AF786039603B68D6
:100EB0005B881B0A9BB2013B062B00F2C98001A292
:100EC00052F823F0E10E0008F90E0008390F00086F
:100ED0005110000851100008FD0F000823100008F1
:100EE0007B68D3F810321B687A68127C07F10A011C
:100EF00010469847F860B0E07B681B7C002B0DD152
:100F00007B68D3F814329B6A07F10A0210469847AF
:100F1000F860FB68013302221A709EE07B68D3F808
:100F20001432DB6A07F10A0210469847F860FB6842
:100F3000013302221A7090E03B685B88DBB2052B1C
:100F400056D801A252F823F0610F0008790F00086B
:100F5000910F0008A90F0008C10F0008D90F000861
:100F60007B68D3F810325B687A68127C07F10A015B
:100F700010469847F86040E07B68D3F810329B68D1
:100F80007A68127C07F10A0110469847F86034E04D
:100F90007B68D3F81032DB687A68127C07F10A01AB
:100FA00010469847F86028E07B68D3F810321B6938
:100FB0007A68127C07F10A0110469847F8601CE035
:100FC0007B68D3F810325B697A68127C07F10A01FA
:100FD00010469847F86010E07B68D3F810329B69A0
:100FE0007A68127C07F10A0110469847F86004E01D
:100FF0003968786800F0EEF944E02EE07B681B7CED
:10100000002B09D17B68D3F814325B6B07F10A021D
:1010100010469847F86020E03968786800F0DAF9FF
:1010200030E07B681B7C002B0DD17B68D3F8143239
:101030001B6B07F10A0210469847F860FB68013302
:1010400007221A7009E03968786800F0C3F919E0DE
:101050003968786800F0BEF914E07B89002B11D064
:101060003B68DB88002B0DD03B68DA887B89934294
:1010700028BF13469BB27B817B891A46F968786842
:1010800000F016FA1037BD4680BD00BF80B584B0B1
:1010900000AF786039603B689B88002B2CD13B689F
:1010A000DB88002B28D13B685B88DBB203F07F0331
:1010B000FB737B6893F8FC31032B04D139687868A3
:1010C00000F088F91CE07B68FA7B83F8FE21FB7B4B
:1010D0001946786808F014FE786800F047FAFB7B40
:1010E000002B04D07B68022283F8FC2108E07B6897
:1010F000012283F8FC2103E03968786800F06AF97E
:1011000000BF1037BD4680BD80B582B000AF7860AB
:1011100039603B685B88DAB23E4B1A703D4B1B78F6
:10112000012B04D93968786800F054F96FE07B68C6
:1011300093F8FC31022B02D0032B23D062E0354B15
:101140001B78002B1AD0334B1B781A467B685A60E9
:101150007B68032283F8FC212E4B1B7819467868A4
:10116000FFF718FB0346022B04D13968786800F0BA
:1011700031F94CE0786800F0F9F948E0786800F05F
:10118000F5F944E0234B1B78002B12D17B68022237
:1011900083F8FC211F4B1B781A467B685A601D4B55
:1011A0001B7819467868FFF715FB786800F0DEF9C0
:1011B0002DE0184B1B781A467B685B689A421DD05D
:1011C0007B685B68DBB219467868FFF703FB114B5D
:1011D0001B781A467B685A600E4B1B781946786854
:1011E000FFF7D8FA0346022B04D13968786800F07B
:1011F000F1F80CE0786800F0B9F908E0786800F0E0
:10120000B5F904E03968786800F0E4F800BF083701
:10121000BD4680BD6102002080B582B000AF78601D
:1012200039603B68DB88012B04D03968786800F0AE
:10123000D1F81FE07B6893F8FC31022B02D0032B1E
:101240000BD012E07B6800229A607B680833012291
:101250001946786800F02CF90CE07B680433012211
:101260001946786800F024F904E03968786800F0DD
:10127000B1F800BF00BF0837BD4680BD80B582B061
:1012800000AF786039607B6893F8FC31023B012B3A
:1012900015D87B680122DA607B68D3F80432002B12
:1012A00005D07B68DB6843F002027B68DA607B680C
:1012B0000C3302221946786800F0FAF804E0396825
:1012C000786800F087F800BF00BF0837BD4680BDD2
:1012D00080B582B000AF786039603B685B88012BD5
:1012E0000DD17B680122C3F804227B68D3F8143245
:1012F0009B68396878689847786800F037F900BFCC
:101300000837BD4680BD00BF80B582B000AF7860B1
:1013100039607B6893F8FC31023B012B12D83B68A3
:101320005B88012B13D17B680022C3F804227B6801
:10133000D3F814329B68396878689847786800F069
:1013400015F904E03968786800F044F800E000BF5F
:1013500000BF0837BD4680BD80B483B000AF786061
:1013600039603B681A787B681A703B685A787B68EA
:101370005A703B6802331B789AB23B6803331B7880
:101380009BB21B029BB213449AB27B685A803B68A3
:1013900004331B789AB23B6805331B789BB21B025F
:1013A0009BB213449AB27B689A803B6806331B78E1
:1013B0009AB23B6807331B789BB21B029BB2134463
:1013C0009AB27B68DA8000BF0C37BD465DF8047BBB
:1013D000704700BF80B582B000AF7860396080216F
:1013E000786808F0F5FB0021786808F0F1FB00BF91
:1013F0000837BD4680BD00BF80B586B000AFF8603D
:10140000B9607A600023FB75FB68002B33D0F86865
:1014100000F036F8034601339BB25B009AB27B685A
:101420001A80FB7D5A1CFA751A46BB6813447A6809
:101430001288D2B21A70FB7D5A1CFA751A46BB6824
:10144000134403221A7012E0FB7D5A1CFA751A46E7
:10145000BB681A44FB68591CF9601B781370FB7D4C
:101460005A1CFA751A46BB68134400221A70FB68AE
:101470001B78002BE8D100BF1837BD4680BD00BFE8
:1014800080B485B000AF78600023FB7305E0FB7B80
:101490000133FB737B6801337B607B681B78002B17
:1014A000F5D1FB7B18461437BD465DF8047B7047C9
:1014B00080B584B000AFF860B9601346FB80FB686C
:1014C0000222C3F8F421FA88FB689A61FA88FB6863
:1014D000DA61FB88BA680021F86808F047FC00234D
:1014E00018461037BD4680BD80B584B000AFF860A7
:1014F000B9601346FB80FB88BA680021F86808F0E1
:1015000035FC002318461037BD4680BD80B584B039
:1015100000AFF860B9601346FB80FB680322C3F894
:10152000F421FA88FB68C3F80821FA88FB68C3F83D
:101530000C21FB88BA680021F86808F051FC0023F0
:1015400018461037BD4680BD80B584B000AFF86046
:10155000B9601346FB80FB88BA680021F86808F080
:101560003FFC002318461037BD4680BD80B582B0D1
:1015700000AF78607B680422C3F8F42100230022C6
:101580000021786808F0F2FB002318460837BD46B2
:1015900080BD00BF80B582B000AF78607B68052257
:1015A000C3F8F421002300220021786808F018FC19
:1015B000002318460837BD4680BD00BFB0B58CB0CB
:1015C00000AF002387F82330764B3C1D1D460FCD1E
:1015D0000FC495E8070084E80700002387F82F3040
:1015E000002387F82E303DE0012006F04DFD01215B
:1015F0006D4806F073FC97F82F309B0007F130021E
:10160000134453F82C3C0121184606F077FC0121C5
:10161000664806F0E7FC97F82F309B0007F1300290
:10162000134453F82C3C184600F042F9002160485E
:1016300006F054FC07F1230207F124031146184673
:1016400000F0CEF807F1230207F1240311461846F3
:1016500000F012F90346002B09D197F82F3001331F
:1016600087F82F3097F82F30062BBDD900E000BF48
:1016700097F82F30072B00F08C80012006F004FD36
:1016800001214C4806F02AFC97F82F309B0007F107
:101690003002134453F82C3C0121184606F02EFC6E
:1016A0000121424806F09EFC97F82F30042B26D0EB
:1016B0000121414806F096FC0021404806F00EFC4E
:1016C00007F1230207F124031146184600F088F8B9
:1016D0004FF4164000F0ECF807F1230207F1240361
:1016E0001146184600F0C8F80346002B04D001212B
:1016F000334806F077FC02E0012387F82E3097F894
:101700002E30002B45D1012006F0BEFC01212D48D2
:1017100006F068FC00212C4806F0E0FB07F12302EC
:1017200007F124031146184600F05AF807F1230286
:1017300007F124031146184600F09EF80346002BDB
:1017400027D00121214806F04DFC012006F09CFC29
:1017500001211F4806F046FC00211E4806F0BEFB92
:1017600007F1230207F124031146184600F038F868
:1017700007F1230207F124031146184600F07CF814
:101780000346002B05D00121134806F02BFC012352
:1017900004E00121114806F025FC002318463037EB
:1017A000BD46B0BD045A0108245801085458010828
:1017B0005C5801086058010890580108C458010895
:1017C000D0580108EC580108285901083859010877
:1017D0005C5901089C590108A8590108D45901080D
:1017E00080B586B000AF7860396008F081FF38615D
:1017F0003B6800221A701F4BDB8DFB8229E007F04B
:1018000079FF1C4BDB8D9BB2FA8A9A4221D0194B8F
:10181000996A184B9A8DFB8AB3FBF2F002FB00F237
:101820009B1A9BB20B441B78FB733B681B78092BFC
:101830000CD83B681B781A467B681344FA7B1A70F5
:101840003B681B780133DAB23B681A70FB8A0133BC
:10185000FB8208F04DFF02463B69D31A40F6B732CF
:101860009342CCD9012006F00FFC00BF1837BD46CB
:1018700080BD00BF2003002080B483B000AF78603B
:1018800039603B681B78012B0AD97B681B784F2B8A
:1018900006D17B6801331B784B2B01D1012300E07B
:1018A000002318460C37BD465DF8047B704700BF27
:1018B00080B582B000AF7860084A7B685360074803
:1018C0000DF06AF80346002B03D00121044806F00E
:1018D00089FB00BF0837BD4680BD00BF2003002044
:1018E000205A010880B400AF044B1B680133034A3F
:1018F000136000BFBD465DF8047B704764020020A2
:1019000080B400AF094B1A68094BA3FB02131B09F3
:10191000322101FB03F3D31A002B0CBF0123002358
:10192000DBB21846BD465DF8047B704764020020B8
:101930001F85EB5180B400AF0A4B19680A4BA3FB1B
:101940000123DA0813469B0013445B00CA1A002ADD
:101950000CBF01230023DBB21846BD465DF8047BB3
:10196000704700BF64020020CDCCCCCC80B500AF66
:1019700008F0BEFE02460E4B1B68D31AB3F5FA6F91
:1019800002D9DFED0C7A10E00B4B1B68002B02D163
:10199000DFED087A09E0084B1B6807EE903AB8EED5
:1019A000677ADFED066AC6EE877AB0EE670A80BD19
:1019B00070020020000000006C0200200000A04225
:1019C00080B400AF044B1B6807EE903AB0EE670A94
:1019D000BD465DF8047B70477402002080B400AF00
:1019E000044B1B6807EE903AB0EE670ABD465DF8FF
:1019F000047B70476802002080B400AF034B5B6A31
:101A00001846BD465DF8047B704700BF000C0040DF
:101A100080B400AF044B022283F8512000BFBD46C2
:101A20005DF8047B704700BF0C08002080B483B0D1
:101A300000AF87ED010AD7ED017AF5EEC07AF1EE3D
:101A400010FA04D5D7ED017AF1EE677A01E0D7ED0F
:101A5000017AB0EE670A0C37BD465DF8047B70472B
:101A600080B500AF044BDB7D184606F01DF8F0EEA4
:101A7000407AB0EE670A80BDA807002080B500AFAD
:101A8000044B1B7E184606F00FF8F0EE407AB0EEDD
:101A9000670A80BDA807002080B500AF044B5B7EBD
:101AA000184606F001F8F0EE407AB0EE670A80BD05
:101AB000A807002080B500AF044B9B7E184605F0B8
:101AC000F3FFF0EE407AB0EE670A80BDA807002071
:101AD00080B500AF044BDB7E184605F0E5FFF0EE65
:101AE000407AB0EE670A80BDA807002080B500AF3D
:101AF000054B93F85630184605F0D6FFF0EE407AC5
:101B0000B0EE670A80BD00BFA807002080B500AF17
:101B1000054B93F85230184605F0C6FFF0EE407AB8
:101B2000B0EE670A80BD00BFA807002080B584B072
:101B300000AF794B9B7D184605F0B6FF87ED030A91
:101B400097ED037AD7ED037AB4EE677AF1EE10FAE7
:101B500002D74FF00003D7E0704B93F85130022BBF
:101B600004D06E4B93F85130032B2FD1D7ED037A6D
:101B7000F5EE407AF1EE10FA28D0684B93F8513028
:101B8000022B20D10221664806F0A8F9022097ED29
:101B9000030A06F0CDF90221624806F09FF9D7ED5D
:101BA000037AFDEEE77AC7ED017ABB881BB202210A
:101BB000184606F05BF902215B4806F08FF9574B97
:101BC000032283F851204FF000039DE0574B5B6ADE
:101BD000BB60524B93F85130002B40F094804F4B38
:101BE00093F85830002B00F08E804B4B1B7F032B5B
:101BF00040F08980D7ED037AF5EE407AF1EE10FAE5
:101C000040F08180444BD3ED097A9FED497AF4EEA0
:101C1000477AF1EE10FA76D03F4BD3ED0A7A9FED7A
:101C2000457AF4EE477AF1EE10FA6CD008F060FDD8
:101C300002463A4BDB6DD31AB3F5FA6F63D2374BDA
:101C400093F9593007EE903AB8EEE77A324BD3ED7C
:101C5000037AF1EE677AB4EE677AF1EE10FA2BD1DF
:101C60002D4B93ED097ABB6807EE903AF8EEE77AD0
:101C7000B4EEE77AF1EE10FA0CD5274BD3ED107ADB
:101C8000F1EE677AC7ED037A08F032FD0246234B86
:101C90001A6638E04FF00003FB6008F029FD0246A9
:101CA0001E4B1B6ED31A41F2883293422BD91B4B29
:101CB000012283F8592026E0174B93ED0A7ABB687E
:101CC00007EE903AF8EEE77AB4EEE77AF1EE10FA22
:101CD00008DD114B1B6CFB6008F00AFD02460F4B40
:101CE0001A6610E04FF00003FB6008F001FD0246A9
:101CF0000A4B1B6ED31A41F28832934203D9074B29
:101D0000FF2283F85920FB6807EE903AB0EE670A8D
:101D10001037BD4680BD00BFA80700200C0800207A
:101D2000645A0108845A01089C5A0108000C0040BA
:101D3000000000CF0000004F80B58EB000AF87EDEF
:101D4000010AC7ED000AFFF7F1FE87ED0A0AC84B4A
:101D5000D3ED0E7AB7EE007A37EE677AD7ED0A7ACE
:101D600027EE277AD7ED0A7A27EE277AD7ED0A7A77
:101D700027EE277ABE4BD3ED0E6AD7ED0A7A66EED0
:101D8000A77A77EE277AC7ED0D7AB94B1B7F012B27
:101D900000F02082B64BDB6B3B63B54B1B6CFB62E8
:101DA000B44B93F85130002B05D0B14B5B6C3B63C7
:101DB000AF4B9B6CFB62B04BD3ED007A97ED0D7A85
:101DC00077EE677AC7ED097A97ED097AD7ED0C7A45
:101DD000B4EEE77AF1EE10FA0ADCD7ED0C7AB1EE48
:101DE000677AD7ED097AB4EEE77AF1EE10FA04DDFE
:101DF000A04B012283F8542003E09E4B002283F87D
:101E0000542097ED097AD7ED0C7AB4EEE77AF1EE2B
:101E100010FA09DD984B93ED007AD7ED0C7A77EE46
:101E2000277AC7ED0D7A13E0D7ED0C7AB1EE677A19
:101E3000D7ED097AB4EEE77AF1EE10FA08DD8E4BB1
:101E400093ED007AD7ED0C7A77EE677AC7ED0D7ACD
:101E500097ED0D7AD7ED0B7AB4EEE77AF1EE10FA42
:101E60000ADCD7ED0B7AB1EE677AD7ED0D7AB4EED6
:101E7000E77AF1EE10FA04DD7E4B012283F855205B
:101E800003E07C4B002283F8552097ED0D7AD7EDC7
:101E90000B7AB4EEE77AF1EE10FA02DDFB6A7B63AF
:101EA00010E0D7ED0B7AB1EE677AD7ED0D7AB4EE8C
:101EB000E77AF1EE10FA05DDD7ED0B7AF1EE677AED
:101EC000C7ED0D7A6B4B93F85130002B40F08281B7
:101ED000674B1B7F012B00F07D81654B1B7F022B25
:101EE00000F07881624B93ED097A614BD3ED0A7A69
:101EF000B4EEE77AF1EE10FA09DD5D4B5B6A3B6206
:101F00005B4B9B6A5A4A5362594A3B6A936297ED0C
:101F1000017AD7ED007A37EE277A554BD3ED0A7A5E
:101F2000B4EEE77AF1EE10FA16D597ED017AD7ED17
:101F3000007A37EE677A4E4BD3ED097AB4EEE77A42
:101F4000F1EE10FA08DD4B4B002283F85620494B86
:101F5000002283F857203DE197ED017AD7ED007A12
:101F600037EE277A424BD3ED0A7AB4EEE77AF1EEF8
:101F700010FAC0F296803E4B93ED037AD7ED0D7ABE
:101F800067EE277AF5EEC07AF1EE10FA7CDD3A4B77
:101F900093ED007A364BD3ED036AD7ED0C7A66EEFB
:101FA000A77A77EE677AC7ED0D7A314B93ED037A16
:101FB000D7ED0D7A67EE277AF5EEC07AF1EE10FADA
:101FC00002D54FF000037B632A4B93F8563083F021
:101FD0000103DBB2002B03D00221284806F002F8EF
:101FE000244B012283F8562000221021244808F0B7
:101FF000BFFF1F4B93ED0A7AD7ED017AB4EEE77A73
:10200000F1EE10FA06D81C4B4FF000021A604FF0A8
:102010000003CAE297ED017AD7ED007A37EE277A0E
:10202000134BD3ED0A6A124BD3ED087A76EEA77AFA
:10203000B4EEE77AF1EE10FA33DB0E4B93F857303B
:1020400083F00103DBB2002B03D002210D4805F021
:10205000C9FF084B012283F85720002210210848AD
:1020600008F086FF044A7B6B13604FF000039CE28C
:10207000A80700200C08002068020020F05A010880
:1020800000040240045B0108B84B002283F856208C
:10209000B64B002283F8572001221021B44808F0E3
:1020A00067FF97ED017AD7ED007A37EE677AB14B8B
:1020B000D3ED097AB4EEE77AF1EE10FA00F28A80F5
:1020C000AC4B93ED037AD7ED0D7A67EE277AF5EEF8
:1020D000C07AF1EE10FA70D5A64B93ED037AD7EDE6
:1020E0000C7A27EE277AA44BD3ED007A77EE277A85
:1020F000C7ED0D7A9F4B93ED037AD7ED0D7A67EE1E
:10210000277AF5EEC07AF1EE10FA02DD4FF0000307
:102110007B63964B93F8563083F00103DBB2002BC0
:1021200003D00221954805F05DFF904B012283F812
:102130005620002210218E4808F01AFF8D4B93ED97
:10214000097AD7ED017AB4EEE77AF1EE10FA06DB00
:10215000894B4FF000021A604FF0000325E297ED23
:10216000017AD7ED007A37EE677A824BD3ED096AB0
:10217000804BD3ED087A76EEE77AB4EEE77AF1EEAB
:1021800010FA27D8794B93F8573083F00103DBB26C
:10219000002B03D002217A4805F024FF734B012263
:1021A00083F8572000221021714808F0E1FE724A9E
:1021B0007B6B13604FF00003F7E16C4B002283F858
:1021C00056206A4B002283F85720012210216848CC
:1021D00008F0CEFE684A7B6B1360FFF741FCB0EE5F
:1021E000407ADFED687AB4EEE77AF1EE10FA0DDDB1
:1021F0005E4B93F85130002B03D00221624805F06A
:10220000F1FE5A4B002283F851200FE0574B93F810
:102210005130012B06D05D4B00221A7002215C4820
:1022200005F0E0FE514B012283F85120594B93ED0C
:10223000007AD7ED0D7A77EE277A564BC3ED007A08
:10224000FFF71CFC87ED070AD7ED077A9FED4D7A63
:10225000F4EEC77AF1EE10FA40F30581434B93F8A0
:102260005130012B40F0FF804B4BD3ED007A9FEDB6
:10227000457AF4EEC77AF1EE10FA00F2F480464B9C
:10228000D3ED007AF4EE677AF1EE10FA80F1EB808C
:102290003E4B1B78002B0ED1364A7B6853623B4B7A
:1022A00001221A7002213D4805F09CFE394B4FF087
:1022B00000021A60D7E00221394805F093FE2D4B49
:1022C00093ED097AD7ED017AB4EEE77AF1EE10FAE0
:1022D00072D5284A7B6893620221324805F0FEFDE0
:1022E000244BD3ED097A0220B0EE670A05F020FEF8
:1022F00002212D4805F0F2FD1E4BD3ED0A7A022093
:10230000B0EE670A05F082FE1A4BD3ED037AF5EEC4
:10231000407AF1EE10FA40F0A6800221234805F041
:10232000DDFD1C4BD3ED007A0220B0EE670A05F00C
:10233000FFFD02211E4805F0D1FD164BD3ED007ABA
:10234000F5EEC07AF1EE10FA04DD0A4B4FF07E5242
:10235000DA6002E0074B174ADA60064BD3ED037AE6
:102360000220B0EE670A05F051FE7CE00C08002068
:1023700000040240A807002068020020F05A01086B
:10238000045B0108CDCC4C3F185B010880020020A3
:10239000345B01087802002084020020585B0108A9
:1023A000645B0108705B0108845B0108885B0108BD
:1023B000A05B0108000080BF7F4B5B6A7E4A93628E
:1023C0007D4A7B68536202217C4805F087FD7A4B89
:1023D000D3ED0A7A0220B0EE670A05F0A9FD0221CA
:1023E000774805F07BFD744BD3ED097A0220B0EEFF
:1023F000670A05F00BFE704BD3ED037AF5EE407AD9
:10240000F1EE10FA2FD102216E4805F067FD6E4BF8
:10241000D3ED007A0220B0EE670A05F089FD0221B3
:102420006A4805F05BFD684BD3ED007AF5EEC07AA3
:10243000F1EE10FA03DD604B654ADA600BE0624BA7
:10244000D3ED007AF5EEC07AF1EE10FA03D55A4BCF
:102450004FF07E52DA60584BD3ED037A0220B0EE93
:10246000670A05F0D3FD5B4AFB691360FFF714FBB5
:1024700087ED060A97ED067AD7ED067AB4EE677A0D
:10248000F1EE10FA14D6D7ED067AB7EE007A37EEF1
:10249000877ADFED516AC7EE267A9FED507A77EEA4
:1024A000877A9FED4F7A67EE877A434BC3ED0F7AB9
:1024B000FFF700FB87ED050A97ED057AD7ED057A62
:1024C000B4EE677AF1EE10FA10D6D7ED057AB7EED2
:1024D000007A37EE877ADFED436AC7EE267A9FED02
:1024E000427A77EE877A344BC3ED107AFFF7F0FA31
:1024F00087ED040A97ED047AD7ED047AB4EE677A93
:10250000F1EE10FA2CD6D7ED047AF5EEC07AF1EEA2
:1025100010FA03D5284B01221A770DE0D7ED047A83
:10252000F5EEC07AF1EE10FA03DD234B03221A77A1
:1025300002E0214B02221A771F4B1A7F2B4B1B788C
:102540009A420DD01C4B1A7F284B1A701A4B1B7FD6
:10255000184604F095FE03460221184605F042FD98
:10256000FFF7C4FA87ED030A97ED037AD7ED037AF4
:10257000B4EE677AF1EE10FA12D6D7ED037A9FED3A
:102580001C7AF4EEC77AF1EE10FA09DD194B01223C
:1025900083F8582008F0ACF80246164BDA6503E0E1
:1025A000144B002283F858207B6B07EE903AB0EE74
:1025B000670A3837BD4680BDA8070020C45B010804
:1025C000E45B0108885B010878020020A05B010839
:1025D000000080BF8402002066660640CDCC4C3DE2
:1025E0000AD7A33CA2450E40CDCCCC3D0F01002024
:1025F000CDCC4C3F0C08002080B58CB000AF894B8F
:102600005B6A7B62884B1A687B6AD31A07EE903A42
:10261000F8EEE77AB0EE670AFFF708FAF0EE407AD4
:10262000824BC3ED007A7B6A07EE903AF8EEE77AC8
:10263000C7ED087AFFF79AF987ED070A7B4B1B680D
:10264000FB627A4BD3ED007AB1EE047AF4EEC77AEE
:10265000F1EE10FA01D8FB69FB62FFF7BFF9F0EE6B
:10266000406A734BD3ED0F7A86EEA77AB0EE470A35
:10267000FFF7DCF987ED060A97ED0B7AD7ED067ABE
:1026800027EE277AF0EE006AC7EE267AC7ED057AC4
:10269000D7ED050A97ED080AFFF74EFB87ED040A10
:1026A000D7ED047AF5EEC07AF1EE10FA1CDD614A3E
:1026B0005F4BB3F92E3019465D4BB3F930300B4404
:1026C0005B49B1F9321007EE901AB8EEE77AD7ED10
:1026D000047A67EE277AFDEEE77AC7ED017AB988CA
:1026E00009B20B44D36328E0D7ED047AF5EEC07A43
:1026F000F1EE10FA1CD54F4A4D4BB3F92E30194666
:102700004B4BB3F93030CB1A4949B1F9321007EECF
:10271000901AB8EEE77AD7ED047A67EE277AFDEEE5
:10272000E77AC7ED017AB98809B20B44D36304E0B4
:10273000404B3F4AB2F92E20DA6397ED040A07F0C6
:10274000EDFCFFF7E3F987ED030AD7ED037AF5EE29
:10275000C07AF1EE10FA1CDD364A354BB3F92E3053
:102760001946334BB3F930300B443149B1F93210CB
:1027700007EE901AB8EEE77AD7ED037A67EE277A7C
:10278000FDEEE77AC7ED017AB98809B20B4413640C
:1027900028E0D7ED037AF5EEC07AF1EE10FA1CD5F9
:1027A000244A234BB3F92E301946214BB3F930306C
:1027B000CB1A1F49B1F9321007EE901AB8EEE77A3A
:1027C000D7ED037A67EE277AFDEEE77AC7ED017A57
:1027D000B98809B20B44136404E0164B144AB2F9E9
:1027E0002E201A640023BB620FE0BB6ADBB21846DE
:1027F00000F024F8F0EE407A0F4ABB6A9B001344C5
:10280000C3ED007ABB6A0133BB62BB6A072BECDD08
:10281000094804F025FF044A7B6A136000BF303783
:10282000BD4680BD000C00407C02002074020020E8
:10283000A8070020000400400003002080B483B0FB
:1028400000AF0346FB71FB790E4A134493F85730EF
:10285000FF2B02D1DFED0C7A0CE0FB79094A13441F
:1028600093F85730094A143332F8133007EE903A90
:10287000F8EE677AB0EE670A0C37BD465DF8047B68
:10288000704700BFA80700200000C07F700800202C
:1028900080B500AF05F02CFE0246064B1A60054BD2
:1028A0001B68054A934201D0002300E0002318462C
:1028B00080BD00BF880200201520200080B584B0B4
:1028C00000AF78600B467B8013463B800E4B1B6845
:1028D000092B01D8022312E03B881B04FB60F86837
:1028E00005F008FC7B881A46F968786805F092FCC8
:1028F0007B881A46F968786805F038FD0346184663
:102900001037BD4680BD00BF8802002080B584B06E
:1029100000AFF860B9601346FB80FB881B04BA68FF
:102920001946F86805F08AFD00BF1037BD4680BD26
:10293000B0B59CB000AF07F08FFE00F0E9F900F0F1
:1029400023FD00F073FA00F09BFA00F0D3FA00F0D8
:102950001BFB00F0B7FC06F0A3FC00F085FC00F0C8
:102960007BFB00F0DDFC00F0FFFD07F037FB0421EE
:1029700098480AF05DFF01221021974808F0F8FA04
:10298000082196480AF0CAFD0346002B03D0902187
:10299000934800F0AFFD0C2190480AF0BFFD0346BC
:1029A000002B03D095218E4800F0A4FDFFF770FFA7
:1029B0000346002B03D09B21894800F09BFD894BE7
:1029C000894A07CA03C31A70864B4FF00002DA60C7
:1029D000844B864A1A62834B01221A77814B4FF04F
:1029E0009E429A627F4B4FF04F425A627D4B0022CB
:1029F00083F82C207B4BFF221A767A4BFF22DA7564
:102A0000784B00229A75774BFF225A76754BFF223E
:102A10009A76744BFF22DA76724B754ADA63714B01
:102A2000744A5A646F4B4FF07E521A646D4B4FF0EC
:102A30007A529A646B4B4FF478721A82694B1E2259
:102A40005A82684B4FF42F725A86664B40F2DC5222
:102A5000DA85644B1E221A86624B4FF448729A82C2
:102A6000604B4CF250325A635E4B634A9A635D4B43
:102A70003C22A3F84E205B4B0A22A3F84C20594B72
:102A80000122A3F85020574BFF2283F85220554BC8
:102A9000FF2283F85320534BFF2283F85420514BDD
:102AA000FF2283F855204F4BFF2283F85620002346
:102AB000FB6608E04B4AFB6E13445733FF221A7043
:102AC000FB6E0133FB66FB6E072BF3DD454B642287
:102AD000A3F860203B1D002264211846FFF716FF73
:102AE0003B1D0B2219463F480FF0ECFB0346002B21
:102AF00011D13C4B18463B1D642219460EF02CFCAC
:102B00003E4A3F4B14461D460FCD0FC495E80700C3
:102B100084E8070055E03B1D0422194639480FF0B0
:102B2000D1FB0346002B0FD1344A374B14461D46C8
:102B30000FCD0FC40FCD0FC40FCD0FC495E8030008
:102B40002060043421803CE03B1D022219462F48BE
:102B50000FF0B8FB0346002B2BD13B1D2149184633
:102B60000FF0A0FBB7F86430A7F86A30B7F86A3006
:102B7000002B03D0B7F86A30642B02D96423A7F87E
:102B80006A30B7F86A203B1D194616480EF0E4FB80
:102B90001A4A1F4B14461D460FCD0FC40FCD0FC44C
:102BA0000FCD0FC42B681A46228002341B0C2370F1
:102BB00007E0124A174B1046194644231A460EF0F6
:102BC000CBFB084B93F82C30012B25D100F04EFCA9
:102BD00024E000BF6403002000040240A0030020A2
:102BE000845C0108A8070020905C01080000C8422E
:102BF0000AD7233C6F12833ACDCCCC3D0C08002081
:102C00009C5C0108B85C0108C05C0108F85C010824
:102C1000FC5C0108305D010800F04CFCFEF7F8FE9A
:102C200007F024FA03464FF40072194630480CF0BE
:102C300003F84FF400722F492F4806F0C3F907F04C
:102C400057FD02462D4B1B68D31A142B3BD907F0B6
:102C50004FFD0246294B1A60FEF744FE06F04AFD7E
:102C6000FEF74EFE0346002B08D0254B93F851305B
:102C7000002B03D12021234808F094F9FEF75AFED7
:102C80000346002B08D01E4B93F85130012B03D183
:102C900020211C4808F086F9194B93F85130022B7B
:102CA00004D0174B93F85130032B05D1002210218B
:102CB000144808F05DF904E001221021114808F0E1
:102CC00057F9FFF799FC06F03DFC0346002B03D0B3
:102CD0000D49012000F058FE06F03AFA0346002B99
:102CE00003D00A49002000F04FFE05F0A1F8A6E746
:102CF00068070020D004002020030020600300208B
:102D00000C08002000040240380D002014090020A7
:102D100080B598B000AF0023BB60404A3F4B1B6CAE
:102D200043F0805313643D4B1B6C03F08053BB6036
:102D3000BB6800237B603A4A394B1B6843F48043ED
:102D40001360374B1B6803F480437B607B680B2365
:102D50003B634FF480337B630123FB6310233B64AD
:102D600001237B640223BB644FF48003FB640423D0
:102D70003B6548237B650223BB650323FB6507F1A5
:102D80003003184609F0D2F90346002B04D04FF463
:102D9000A471244800F0AEFB0F23FB6100233B62CB
:102DA00000237B620023BB620023FB6207F11C034C
:102DB0000021184609F014FC0346002B04D04FF400
:102DC000AB71184800F096FB0223FB604FF40073D0
:102DD000BB6107F10C03184609F0E2FD0346002B26
:102DE00004D040F25D110F4800F084FB09F088FD2B
:102DF00002460D4BA3FB02239B09184607F0CAFDB0
:102E0000042007F0D3FD002200214FF0FF3007F02F
:102E100089FD00BF6037BD4680BD00BF003802405D
:102E200000700040845C0108D34D621080B500AF93
:102E3000104B114A1A600F4B00225A600D4B7F2233
:102E40009A600C4BFF22DA600A4B00221A61094B90
:102E500000225A61074B00229A61064809F096FE4B
:102E60000346002B04D04FF4BD71044800F042FB30
:102E700000BF80BD7404002000280040845C01086D
:102E800080B500AF184B194A1A60174B4FF4827285
:102E90005A60154B00229A60134B0022DA60124BE5
:102EA00000221A61104B00225A610F4B00229A61D6
:102EB0000D4B0022DA610C4B00221A620A4B0022F1
:102EC0005A62094B00229A62074B0A22DA620648CC
:102ED00009F004FF0346002B04D04FF4C8710448E6
:102EE00000F008FB00BF80BD10070020003001404B
:102EF000845C010880B500AF012208211E4808F05B
:102F000037F81E4B1E4A1A601C4B4FF482725A60EF
:102F10001A4B00229A60194B0022DA60174B0222EA
:102F20001A61164B01225A61144B4FF400729A61D8
:102F3000124B0822DA61114B00221A620F4B002259
:102F40005A620E4B00229A620C4B0722DA620B483F
:102F500009F0C4FE0346002B04D040F2A711094833
:102F600000F0C8FA054B1B68044A1268126842F068
:102F700040021A6000BF80BD00040240DC03002054
:102F8000003C0040845C010880B58AB000AF2F4B44
:102F90002F4A1A602D4B0F225A602C4B00229A6048
:102FA0002A4B44F62062DA60284B00221A61274837
:102FB0000AF088FA0346002B04D04FF4DE7125484E
:102FC00000F098FA00233B6200237B6207F12003A4
:102FD00019461E480BF086FC0346002B04D040F235
:102FE000C3111C4800F086FA60237B6040F2DC537A
:102FF000BB600023FB6000237B6100233B61002357
:10300000FB610023BB613B1D082219460F480AF0F3
:103010000BFE0346002B04D040F2CF110D4800F008
:1030200069FA3B1D0C22194608480AF0FDFD0346CB
:10303000002B04D04FF4EA71064800F05BFA034815
:1030400005F0F4FC00BF2837BD4680BDA00300207A
:1030500000040040845C010880B58CB000AF224BB6
:10306000224A1A60204B00225A601F4B00229A60AD
:103070001D4B4FF0FF32DA601B4B00221A61032315
:10308000FB6000233B6101237B610023BB610023C4
:10309000FB6100233B6201237B620023BB620023B0
:1030A000FB6207F10C0319460F480AF02BFB03469D
:1030B000002B04D04FF4F8710D4800F01BFA0023E8
:1030C0007B600023BB603B1D194607480BF00AFCE0
:1030D0000346002B04D040F2F711054800F00AFA2D
:1030E00000BF3037BD4680BD64030020000C0040A7
:1030F000845C010880B58CB000AF3E4B3E4A1A603C
:103100003C4B0F225A603B4B00229A60394B4FF6E2
:10311000FF72DA60374B00221A61364B00225A6187
:1031200034480AF0A3F90346002B04D040F20B21E7
:10313000324800F0DFF92F480AF024FA0346002B4A
:1031400004D04FF404712D4800F0D4F90423FB613E
:1031500060233B6202237B620023FB6207F11C03B6
:10316000194624480AF026FE0346002B04D040F2FC
:103170001921224800F0BEF900237B610023BB61C6
:1031800007F1140319461B480BF0ACFB0346002B58
:1031900004D04FF40871194800F0ACF900237B60AB
:1031A0000123BB600023FB6000233B613B1D082221
:1031B000194610480AF09CFC0346002B04D040F24C
:1031C0002A210E4800F096F902237B600223BB609F
:1031D0003B1D0C22194607480AF08AFC0346002BC7
:1031E00004D040F23121054800F084F900BF3037A7
:1031F000BD4680BD9404002000000140845C0108AD
:1032000080B500AF144B154A1A60134B144A5A602C
:10321000114B4FF480529A600F4B4FF40052DA601A
:103220000D4B4FF480621A610B4B04225A610A4B1A
:1032300000229A61084B4FF40042DA6106480BF015
:10324000ABFB0346002B04D040F24621054800F0BA
:1032500051F900BF80BD00BF3404002000100140C0
:10326000A0860100845C010880B500AF124B134AB0
:103270001A60114B4FF4E1325A600F4B00229A60F2
:103280000D4B0022DA600C4B00221A610A4B0C2213
:103290005A61094B00229A61074B0022DA61064805
:1032A0000BF07AFB0346002B04D040F25A2104486D
:1032B00000F020F900BF80BD6807002000440040F6
:1032C000845C010880B500AF124B134A1A60114BA1
:1032D0004FF416425A600F4B00229A600D4B0022A9
:1032E000DA600C4B00221A610A4B0C225A61094B1E
:1032F00000229A61074B0022DA6106480BF04CFB72
:103300000346002B04D040F26B21044800F0F2F891
:1033100000BF80BD2003002000480040845C0108FD
:1033200080B500AF144B154A1A60134B144A5A600B
:10333000114B4FF480529A600F4B4FF40052DA60F9
:103340000D4B4FF480621A610B4B08225A610A4BF5
:1033500000229A61084B4FF40042DA6106480BF0F4
:103360001BFB0346002B04D040F27F21054800F0F0
:10337000C1F800BF80BD00BFD0060020001401408E
:10338000A0860100845C010880B58AB000AF0023EC
:103390003B61324A314B1B6B43F0800313632F4B6D
:1033A0001B6B03F080033B613B690023FB602B4AEE
:1033B0002A4B1B6B43F001031363284B1B6B03F079
:1033C0000103FB60FB680023BB60244A234B1B6B9B
:1033D00043F004031363214B1B6B03F00403BB6036
:1033E000BB6800237B601D4A1C4B1B6B43F0020330
:1033F00013631A4B1B6B03F002037B607B68002294
:103400003821174807F0B4FD10237B61154BBB61D1
:103410000023FB6107F114031946134807F012FB60
:1034200001237B610123BB610023FB6107F11403CE
:1034300019460D4807F006FB38237B610123BB6169
:103440000023FB6100233B6207F114031946044883
:1034500007F0F8FA00BF2837BD4680BD00380240AB
:1034600000040240000011100008024080B500AFC7
:1034700008210D480AF0BCF80C210B480AF0B8F8F6
:10348000FFF7BEFE04F0A8FB0346192219460748C1
:103490000BF0D2FB01220121054807F069FD012054
:1034A00004F076F800BF80BD9404002034040020AE
:1034B0000008024080B500AF0B480BF0BBFAFFF7E5
:1034C00019FE00220121094807F052FD0821084891
:1034D0000AF0B8F80C2106480AF0B4F8002004F00D
:1034E00057F800BF80BD00BF340400200008024030
:1034F0009404002080B5ADF5805D82B000AF07F187
:103500000803043B186007F10803083B1960144BDB
:10351000144AB2F92E20DA6307F10803083B07F1D9
:103520000800022219460DF017FF07F10803043BBB
:1035300018680EF0BFFE0346591C07F10803043B50
:1035400007F10802901C0A4619680DF005FF07F103
:10355000080301224FF480511846FFF7AFF9FEE748
:1035600000040040A807002080B400AF00BFBD46A3
:103570005DF8047B704700BF80B582B000AF0346A2
:103580000A46FB711346BB71BB791946074804F024
:10359000A5FCFB79064A52F82330BA791146184641
:1035A00004F020FD00BF0837BD4680BD845F0108E0
:1035B0001001002080B584B000AF0346FB71164BAC
:1035C0001B7883F02003DAB2134B1A70124B1B786E
:1035D00083F04F03DAB2104B1A700F4B1B7883F055
:1035E0004B03DAB20C4B1A700B4B1B7807F1080037
:1035F0000A4A05210EF0D4FDFB791946084804F06B
:103600006DFCFA7907F108031146184604F0EAFC4C
:1036100000BF1037BD4680BD8C020020905F0108BE
:10362000985F010880B582B000AF03460A46FB717F
:103630001346BB71BB791946074804F04FFCBA79B1
:10364000FB791146184604F02DFC044AFB791370EF
:1036500000BF0837BD4680BDA05F01088C02002076
:1036600080B584B000AF78600B46FB700023FB6030
:103670000CE0FB687A6813441A780D4B1B785340B2
:10368000DAB20B4B1A70FB680133FB60FB68272B27
:1036900005DCFB687A6813441B78002BE9D1FB78C2
:1036A0001946786804F01AFC00BF1037BD4680BD8B
:1036B0008C02002080B582B000AF03460A46FB7141
:1036C0001346BB71084B1A78FB795340DAB2064BAC
:1036D0001A70BA79FB791146184604F0E3FB00BF73
:1036E0000837BD4680BD00BF8C02002090B59DB05C
:1036F00002AF87ED020B0346FB7107F11400D7E917
:103700000234CDE90034154A50210EF049FD002362
:103710007B660DE007F114027B6E13441A78104BA0
:103720001B785340DAB20E4B1A707B6E01337B6606
:103730007B6E272B06DC07F114027B6E13441B788B
:10374000002BE7D1FA7907F114031146184604F06B
:10375000C5FB00BF6C37BD4690BD00BFA45F01082C
:103760008C02002090B59BB002AF87ED010A0346A2
:10377000FB7078680DF0B8FA03460C4607F10C00B0
:10378000CDE90034144A50210EF00AFD0023FB65F8
:103790000DE007F10C02FB6D13441A780F4B1B78F8
:1037A0005340DAB20D4B1A70FB6D0133FB65FB6DB4
:1037B000272B06DC07F10C02FB6D13441B78002B52
:1037C000E7D1FA7807F10C031146184604F086FB9E
:1037D00000BF6437BD4690BDAC5F01088C0200207D
:1037E00080B598B000AF03460A46FB8013467B7154
:1037F000B7F9063007F10C00144A50210EF0D0FC46
:103800000023FB650DE007F10C02FB6D13441A78F1
:103810000F4B1B785340DAB20D4B1A70FB6D01331E
:10382000FB65FB6D272B06DC07F10C02FB6D1344D7
:103830001B78002BE7D17A7907F10C031146184663
:1038400004F04CFB00BF6037BD4680BDB45F01088B
:103850008C02002080B584B000AF03460A46FB719D
:103860001346BB71FB7907F10800154A03210EF0DE
:1038700097FC0023FB600DE007F10802FB6813448E
:103880001A78104B1B785340DAB20E4B1A70FB6853
:103890000133FB60FB68022B06DC07F10802FB68C2
:1038A00013441B78002BE7D1BA7907F108031146BE
:1038B000184604F013FB00BF1037BD4680BD00BFA3
:1038C000B85F01088C02002080B598B000AF786026
:1038D0000B46FB7007F10C007B68154A50210EF077
:1038E0005FFC0023FB650DE007F10C02FB6D134448
:1038F0001A78104B1B785340DAB20E4B1A70FB6DDE
:103900000133FB65FB6D272B06DC07F10C02FB6D19
:1039100013441B78002BE7D1FA7807F10C0311460A
:10392000184604F0DBFA00BF6037BD4680BD00BF1B
:10393000C05F01088C02002080B483B000AF034652
:10394000FB71FB792F2B05D9FB79392B02D8FB7939
:10395000303B13E0FB79602B05D9FB79662B02D84D
:10396000FB79573B0AE0FB79402B05D9FB79462BC5
:1039700002D8FB79373B01E04FF0FF3318460C3794
:10398000BD465DF8047B704780B586B000AF034646
:103990003960FB710023FB820023BB8295E0FB8A28
:1039A0005A1CFA821A463B6813441B787B747B7C52
:1039B000002B00F090804A4B1B78202B09D17B7C98
:1039C000242B02D07B7C212B7FD1454B24221A70E3
:1039D0007BE07B7C0A2B02D07B7C0D2B27D1BB8A22
:1039E000002B06D1FB8A013B3A68134400221A706F
:1039F00004E0BB8A3A68134400221A70384B1B78E3
:103A00002A2B09D1FA7CBB7C9A4205D0FB79194656
:103A10000420FFF7B1FD04E0FB793968184600F097
:103A200063F80023FB742E4B20221A704DE07B7C40
:103A30002A2B06D12A4B31221A70FB8A013BBB820A
:103A400043E0274B1B78312B10D17B7C1846FFF7C6
:103A500073FFF860FB68B3F1FF3F36D0FB68DBB261
:103A60001B01BB741E4B32221A702EE01C4B1B78BC
:103A7000322B11D17B7C1846FFF75EFFB860BB6824
:103A8000B3F1FF3F21D0BB68DAB2BB7C1344BB74F7
:103A9000134B2A221A7018E0114B1B78242B04D1E7
:103AA000FA7C7B7C5340FB740FE00D4B1B782A2B78
:103AB00005D1FB7919460520FFF75EFD0CE0FB7987
:103AC00019460020FFF758FD06E0FB8AB3F5007F9A
:103AD000FFF465AF00E000BF1837BD4680BD00BFF2
:103AE0004C0100200000000090B5ADF58D5D85B063
:103AF00006AF024607F11803103B196007F11803DF
:103B0000093B1A7007F11803103B1B685B7807F537
:103B10008C5202F10702137007F58C5303F107036F
:103B20001B78313B472B02F2978501A252F823F014
:103B30006D57000859660008596600085966000864
:103B40005966000859660008596600085966000859
:103B50005966000859660008596600085966000849
:103B60005966000859660008596600085966000839
:103B7000596600088951000859660008596600080E
:103B80005553000859660008D95E00084D5E0008CC
:103B90006D4B000859660008596600085966000810
:103BA00059660008F547000859660008976500083F
:103BB0005966000859660008BF4D0008596600089C
:103BC00059660008596600085966000859660008D9
:103BD00059660008596600085966000859660008C9
:103BE00059660008596600085966000859660008B9
:103BF000513C0008EF4D0008F951000859660008D3
:103C0000874A000859660008DF3D00089B4C000801
:103C100029410008F5600008596600085966000847
:103C2000AD4C00084B46000859660008AB3E000842
:103C3000596600088B490008596600085966000853
:103C400059660008613F0008BB400008A550000805
:103C500007F11803103B1B68981C07F58B5303F101
:103C60000803043307F58B5202F10802B8490EF03D
:103C7000EDFA034607F58C5202F10402138007F5B2
:103C80008C5303F10403B3F90030022B63D107F521
:103C90008B5303F10803D3ED007AF5EEC07AF1EE11
:103CA00010FA4EDD07F58B5303F10C03D3ED007AC8
:103CB000F5EEC07AF1EE10FA43DD07F58B5303F110
:103CC0000803D3ED007AB7EE007AF4EEC77AF1EE8E
:103CD00010FA36D507F58B5303F10C03D3ED007AB8
:103CE000B7EE007AF4EEC77AF1EE10FA29D507F5AF
:103CF0008B5303F10803D3ED007A9FED967A67EEBC
:103D0000877A954BC3ED0F7A07F58B5303F10C03BC
:103D1000D3ED007A9FED8F7A67EE877A8E4BC3EDF5
:103D2000117A07F11803093B1B7819466120FFF748
:103D300079FC07F11803093B1B781846FFF73AFC9A
:103D40004AE007F11803093B1B7819460E20FFF7DC
:103D500013FC02F08ABC07F58C5303F10403B3F99A
:103D60000030002B30DC07F11803093B1B781946A3
:103D70006120FFF757FC784BD3ED0F7A9FED757AF2
:103D8000C7EE876A07F11803093B1B781846B0EEA7
:103D9000660AFFF7E7FC704BD3ED117A9FED6D7A61
:103DA000C7EE876A07F11803093B1B781846B0EE87
:103DB000660AFFF7D7FC07F11803093B1B78184682
:103DC000FFF7F8FB02F051BC07F11803093B1B7821
:103DD00019460720FFF7D0FB00BF02F046BC07F1F1
:103DE0001803103B1B68023307F58B5202F10402E3
:103DF0005A4918460EF02AFA034607F58C5202F18A
:103E00000402138007F58C5303F10403B3F9003067
:103E1000012B2CD107F58B5303F10403D3ED007A6A
:103E2000F5EEC07AF1EE10FA17DD07F58B5303F1CA
:103E300004031B68484A136207F11803093B1B7807
:103E400019466720FFF7EEFB07F11803093B1B78C3
:103E50001846FFF7AFFB02F008BC07F11803093B57
:103E60001B7819460E20FFF787FB02F0FEBB07F117
:103E70001803093B1B7819466720FFF7D3FB364B25
:103E8000D3ED087A07F11803093B1B781846B0EE0A
:103E9000670AFFF767FC07F11803093B1B78184610
:103EA000FFF788FB00BF02F0E0BB07F11803093BF6
:103EB0001B7819467020FFF7B5FB274BD3ED097A25
:103EC000FDEEE77A07F11803093B1B78194617EE58
:103ED000900AFFF7F9FC204BD3ED0A7AFDEEE77A62
:103EE00007F11803093B1B78194617EE900AFFF7F4
:103EF000EBFCFDF781FD024607F11803093B1B7837
:103F000019461046FFF7E0FCFDF75AFDF0EE407A47
:103F100007F11803093B1B781846B0EE670AFFF754
:103F200021FCFDF723FDF0EE407A07F11803093B71
:103F30001B781846B0EE670AFFF714FC07F1180368
:103F4000093B1B781846FFF735FB02F08EBB00BF1C
:103F5000C85F01080AD7A33CA8070020D05F01086A
:103F600007F11803103B1B68981C07F58A5303F1EF
:103F70001C03043307F58A5202F11C0267490EF054
:103F800065F9034607F58C5202F10402138007F528
:103F90008C5303F10403B3F90030022B51D107F520
:103FA0008A5303F11C03D3ED007AF5EEC07AF1EEEB
:103FB00010FA3CDD07F58B53D3ED007AF5EEC07AAD
:103FC000F1EE10FA33DD07F58A5303F11C03D3ED4C
:103FD000007AB7EE007AF4EEC77AF1EE10FA26D83E
:103FE00007F58B53D3ED007AB7EE007AF4EEC77A7B
:103FF000F1EE10FA1BD507F58A5303F11C031B6879
:10400000474A136407F58B531B68454A936407F1CD
:104010001803093B1B7819467620FFF703FB07F1CD
:104020001803093B1B781846FFF7C4FA42E007F172
:104030001803093B1B7819460E20FFF79DFA02F082
:1040400014BB07F58C5303F10403B3F90030002BC4
:1040500028DC07F11803093B1B7819467620FFF787
:10406000E1FA2F4BD3ED107A07F11803093B1B78C7
:104070001846B0EE670AFFF775FB294BD3ED127AAD
:1040800007F11803093B1B781846B0EE670AFFF7E3
:1040900069FB07F11803093B1B781846FFF78AFAFA
:1040A00002F0E3BA07F11803093B1B781946072011
:1040B000FFF762FA00BF02F0D8BA00226421184864
:1040C000FEF7FCFB07F58C53186007F11803093B5A
:1040D0001B7819467720FFF7A5FA07F58C531B6864
:1040E000002B10D107F11803093B1B7819460D4826
:1040F000FFF7B6FA07F11803093B1B781846FFF7DC
:1041000059FA02F0B2BA07F11803093B1B781946B5
:104110000820FFF731FA02F0A8BA00BFC85F010813
:10412000A8070020D45F010807F11803103B1B68A3
:10413000981C07F58A5303F10C03991C07F58A5262
:1041400002F10C0207F58A5303F10C030C330493BC
:1041500007F58A5303F10C030A33039307F58A53D7
:1041600003F10C030833029307F58A5303F10C03A0
:104170000633019307F58A5303F10C0304330093CC
:104180000B46C6490EF062F8034607F58C5202F161
:104190000402138007F58C5303F10403B3F90030D4
:1041A000002B40F3C48107F58A5303F10C03B3F9E4
:1041B0000030002B40F3B18107F58A5303F10C0363
:1041C000B3F90030102B00F3A88107F58A5303F1EF
:1041D0000E03B3F90030002B40F39F8107F58A539B
:1041E00003F10E03B3F90030102B00F3968107F5AD
:1041F0008A5303F11003B3F90030002B40F38D8193
:1042000007F58A5303F11003B3F90030102B00F3C4
:10421000848107F58A5303F10C03B3F9002007F5F5
:104220008A5303F10E03B3F900309A4200F075810E
:1042300007F58A5303F10C03B3F9002007F58A53FD
:1042400003F11003B3F900309A4200F0668107F5DC
:104250008A5303F10E03B3F9002007F58A5303F1E3
:104260001003B3F900309A4200F0578107F58A53E2
:1042700003F10C03B3F90030DBB2013BDAB2884B37
:104280009A7507F11803093B1B7819466920FFF757
:10429000C9F9834B9B7D9BB201339BB21AB207F1E4
:1042A0001803093B1B7819461046FFF799FA07F5E2
:1042B0008C5303F10403B3F90030012B28DD07F51B
:1042C0008A5303F10E03B3F90030002B20DD07F50C
:1042D0008A5303F10E03B3F90030102B18DC07F5F5
:1042E0008A5303F10E03B3F90030DBB2013BDAB2BB
:1042F0006B4BDA756A4BDB7D9BB201339BB21AB212
:1043000007F11803093B1B7819461046FFF768FAB6
:1043100007F58C5303F10403B3F90030022B28DDB9
:1043200007F58A5303F11003B3F90030002B20DDA9
:1043300007F58A5303F11003B3F90030102B18DC92
:1043400007F58A5303F11003B3F90030DBB2013BE8
:10435000DAB2534B1A76524B1B7E9BB201339BB29F
:104360001AB207F11803093B1B7819461046FFF7EC
:1043700037FA07F58C5303F10403B3F90030032B2C
:1043800028DD07F58A5303F11203B3F90030002B3F
:1043900020DD07F58A5303F11203B3F90030102B27
:1043A00018DC07F58A5303F11203B3F90030DBB2CE
:1043B000013BDAB23A4B5A76394B5B7E9BB2013302
:1043C0009BB21AB207F11803093B1B781946104635
:1043D000FFF706FA07F58C5303F10403B3F9003035
:1043E000042B28DD07F58A5303F11403B3F90030D9
:1043F000002B20DD07F58A5303F11403B3F90030D5
:10440000102B18DC07F58A5303F11403B3F90030BD
:10441000DBB2013BDAB2224B9A76214B9B7E9BB2F8
:1044200001339BB21AB207F11803093B1B781946F6
:104430001046FFF7D5F907F58C5303F10403B3F9E0
:104440000030052B2EDD07F58A5303F11603B3F96F
:104450000030002B26DD07F58A5303F11603B3F96C
:104460000030102B1EDC07F58A5303F11603B3F955
:104470000030DBB2013BDAB2094BDA76084BDB7E67
:104480009BB201339BB21AB207F11803093B1B78A8
:1044900019461046FFF7A4F904E000BFF45F0108D5
:1044A000A807002007F58C5303F10403B3F900308B
:1044B000062B2ADD07F58A5303F11803B3F9003000
:1044C000002B22DD07F58A5303F11803B3F90030FE
:1044D000102B1ADC07F58A5303F11803B3F90030E7
:1044E000DBB2013BDAB2C14B83F85220BF4B93F8E9
:1044F00052309BB201339BB21AB207F11803093B49
:104500001B7819461046FFF76BF907F11803093BB2
:104510001B781846FFF74EF894E007F11803093BA3
:104520001B7819460E20FFF727F802F09EB807F512
:104530008C5303F10403B3F90030002B7ADC07F14C
:104540001803093B1B7819466920FFF76BF8A74B46
:104550009B7D9BB201339BB21AB207F11803093B52
:104560001B7819461046FFF73BF9A04BDB7D9BB249
:1045700001339BB21AB207F11803093B1B781946A5
:104580001046FFF72DF9994B1B7E9BB201339BB26E
:104590001AB207F11803093B1B7819461046FFF7BA
:1045A0001FF9924B5B7E9BB201339BB21AB207F1AB
:1045B0001803093B1B7819461046FFF711F98B4B7E
:1045C0009B7E9BB201339BB21AB207F11803093BE1
:1045D0001B7819461046FFF703F9844BDB7E9BB22C
:1045E00001339BB21AB207F11803093B1B78194635
:1045F0001046FFF7F5F87D4B93F852309BB201332C
:104600009BB21AB207F11803093B1B7819461046F2
:10461000FFF7E6F807F11803093B1B781846FEF789
:10462000C9FF07F11803093B1B78184602F04AFE40
:1046300002F01BB807F11803093B1B781946072045
:10464000FEF79AFF00BF02F010B807F11803103B05
:104650001B68981C07F58A5303F10403991C07F59E
:104660008A5202F1040207F58A5303F1040304336A
:1046700000930B465E490DF0E9FD034607F58C52A9
:1046800002F10402138007F58C5303F10403B3F91C
:104690000030032B65D107F58A5303F10403B3F906
:1046A0000030B3F5FA7F52DD07F58A5303F10403B6
:1046B000B3F90030B3F5FA6F49DA07F58A5303F11D
:1046C0000603B3F90030002B41DD07F58A5303F1EF
:1046D0000603B3F90030632B39DC07F58A5303F185
:1046E0000803B3F90030B3F5967F30DD07F58A5340
:1046F00003F10803B3F90030B3F5AF6F27DA07F120
:104700001803093B1B7819466E20FEF78BFF07F54F
:104710008A5303F10403B3F90020344B1A8207F5DE
:104720008A5303F10603B3F90020304B5A8207F590
:104730008A5303F10803B3F900202C4B9A8207F146
:104740001803093B1B781846FEF734FF4BE007F1CE
:104750001803093B1B7819460E20FEF70DFF01F0E8
:1047600084BF07F58C5303F10403B3F90030002B29
:1047700031DC07F11803093B1B7819466E20FEF760
:1047800051FF1A4BB3F9102007F11803093B1B78AE
:1047900019461046FFF724F8144BB3F9122007F11D
:1047A0001803093B1B7819461046FFF719F80F4B01
:1047B000B3F9142007F11803093B1B78194610467A
:1047C000FFF70EF807F11803093B1B781846FEF7B0
:1047D000F1FE01F04ABF07F11803093B1B781946A7
:1047E0000720FEF7C9FE00BF01F03FBFA807002069
:1047F0001060010807F11803103B1B68981C07F5AF
:10480000895303F11C03991C07F5895202F11C021C
:1048100007F5895303F11C03043300930B46CE497B
:104820000DF014FD034607F58C5202F104021380CB
:1048300007F58C5303F10403B3F90030032B5FD168
:1048400007F5895303F11C03B3F90030B3F5FA7F80
:104850004CDD07F5895303F11C03B3F90030B3F5C0
:10486000FA6F43DA07F5895303F11E03B3F90030F9
:10487000002B3BDD07F5895303F11E03B3F900302C
:10488000632B33DC07F58A53B3F90030B3F5967F19
:104890002CDD07F58A53B3F90030B3F5617F25DAD3
:1048A00007F11803093B1B7819464E20FEF7BAFEA4
:1048B00007F5895303F11C03B3F90020A74BDA85F0
:1048C00007F5895303F11E03B3F90020A34B1A86A1
:1048D00007F58A53B3F90020A04B5A8607F1180355
:1048E000093B1B781846FEF765FE4BE007F11803FD
:1048F000093B1B7819460E20FEF73EFE01F0B5BEBF
:1049000007F58C5303F10403B3F90030002B31DCBD
:1049100007F11803093B1B7819464E20FEF782FE6B
:104920008E4BB3F92E2007F11803093B1B7819466B
:104930001046FEF755FF894BB3F9302007F11803F5
:10494000093B1B7819461046FEF74AFF834BB3F923
:10495000322007F11803093B1B7819461046FEF771
:104960003FFF07F11803093B1B781846FEF722FEAC
:1049700001F07BBE07F11803093B1B78194607209D
:10498000FEF7FAFD00BF01F070BE07F11803103BFF
:104990001B68023307F5895202F11A027049184662
:1049A0000DF054FC034607F58C5202F1040213800B
:1049B00007F58C5303F10403B3F90030012B3FD109
:1049C00007F5895303F11A03B3F90030012B10D016
:1049D00007F5895303F11A03B3F90030B3F1FF3F30
:1049E00007D007F5895303F11A03B3F90030002B00
:1049F0001CD107F11803093B1B7819467220FEF7FA
:104A000011FE07F5895303F11A03B3F9003007EEDD
:104A1000903AF8EEE77A514BC3ED037A07F11803A9
:104A2000093B1B781846FEF7C5FD29E007F118037E
:104A3000093B1B7819460A20FEF79EFD01F015BEC2
:104A400007F11803093B1B7819467220FEF7EAFDAF
:104A5000424BD3ED037AFDEEE77AC7ED017ABB88CE
:104A60001AB207F11803093B1B7819461046FEF7E6
:104A7000B7FE07F11803093B1B781846FEF79AFDAD
:104A800000BF01F0F2BD07F11803103B1B680233B1
:104A900007F5895202F11402324918460DF0D6FB8F
:104AA000034607F58C5202F10402138007F58C537C
:104AB00003F10403B3F90030012B30D107F589531A
:104AC00003F114031B68B3F5FA7F1EDD07F5895364
:104AD00003F114031B68244A934216DC07F1180300
:104AE000093B1B7819466520FEF79CFD07F58953A5
:104AF00003F114031B68194A536307F11803093BB8
:104B00001B781846FEF756FD22E007F11803093B13
:104B10001B7819460E20FEF72FFD01F0A6BD07F108
:104B20001803093B1B7819466520FEF77BFD0B4BEC
:104B30005A6B07F11803093B1B7819461046FEF71C
:104B4000C3FE07F11803093B1B781846FEF732FD38
:104B500000BF01F08ABD00BF10600108A807002057
:104B60001C60010820600108A086010007F11803FD
:104B7000103B1B68023307F5895202F11202C34948
:104B800018460DF063FB034607F58C5202F1040250
:104B9000138007F58C5303F10403B3F90030012BA4
:104BA00047D107F5895303F11203B3F90030002B05
:104BB00016D107F11803093B1B7819464920FEF767
:104BC00031FDB34B002283F82C20FEF773FC07F174
:104BD0001803093B1B781846FEF7ECFC01F045BDB5
:104BE00007F5895303F11203B3F90030012B16D1F5
:104BF00007F11803093B1B7819464920FEF712FDFF
:104C0000A34B012283F82C20FEF730FC07F1180398
:104C1000093B1B781846FEF7CDFC01F026BD07F1D5
:104C20001803093B1B7819460E20FEF7A5FC01F07E
:104C30001CBD07F11803093B1B7819464920FEF7F4
:104C4000F1FC934B93F82C301AB207F11803093B8F
:104C50001B7819461046FEF7C3FD8D4B93F82C3098
:104C6000002B08D107F11803093B1B781946894826
:104C7000FEF7F6FC07E007F11803093B1B7819461D
:104C80008548FEF7EDFC07F11803093B1B78184631
:104C9000FEF790FC00BF01F0E8BC07F11803093BE8
:104CA0001B78184601F03AFF01F0DFBC07F118034A
:104CB000103B1B68023307F5895202F11002734959
:104CC00018460DF0C3FA034607F58C5202F10402B0
:104CD000138007F58C5303F10403B3F90030012B63
:104CE0003AD107F5895303F11003B3F90030022BD1
:104CF0000FD007F5895303F11003B3F90030032BEC
:104D000007D007F5895303F11003B3F90030012BE5
:104D100018D107F11803093B1B7819466D20FEF7DF
:104D200081FC07F5895303F11003B3F90030DAB2BF
:104D3000574B1A7707F11803093B1B781846FEF703
:104D400039FC39E007F11803093B1B7819460B20A1
:104D5000FEF712FC01F089BC07F11803093B1B7830
:104D600019466D20FEF75EFC494B1B7F1AB207F116
:104D70001803093B1B7819461046FEF731FD07F171
:104D80001803093B1B7819464448FEF769FC404B61
:104D90001B7F184602F074FA024607F11803093B1C
:104DA0001B7819461046FEF75BFC07F11803093B18
:104DB0001B781846FEF7FEFB00BF01F056BC07F15A
:104DC0001803093B1B7819465320FEF72BFC07F10B
:104DD0001803093B1B781846FEF7ECFB07F1180394
:104DE000093B1B78184601F097FF01F03EBC07F124
:104DF0001803103B18680DF05DFA03460A2B40F2C9
:104E00000581022307F58C5202F11602138007F583
:104E10008C73143B07F58B5202F11C0213600AE0FD
:104E200007F58C5303F116031B88013307F58C52E9
:104E300002F11602138007F58C5303F116031C8848
:104E400007F11803103B18680DF034FA03469C4232
:104E500014D207F58C5303F116031B88B3F5FF7FBB
:104E60000CD807F58C5303F116031A8807F11803C1
:104E7000103B1B6813441B78202BD1D0002307F56F
:104E80008C5202F11402138085E000BF1C600108FF
:104E9000A807002024600108446001086060010840
:104EA00007F58C5303F116031B885A1C07F58C5128
:104EB00001F116010A801A4607F11803103B1B681E
:104EC00013441B781846FEF737FD07F58B5303F1A3
:104ED0001803186007F58C5303F116031B885A1C3E
:104EE00007F58C5101F116010A801A4607F11803E3
:104EF000103B1B6813441B781846FEF71DFD07F591
:104F00008B5303F11403186007F58B5303F1180357
:104F10001B68B3F1FF3F34D007F58B5303F1140343
:104F20001B68B3F1FF3F2CD007F58B5303F1180337
:104F30001B68DBB21B01DAB207F58B5303F11403D4
:104F40001B68DBB2134407F58B5202F11302137096
:104F500007F58C5303F114031B885A1C07F58C5179
:104F600001F114010A801A4607F58B5303F11C0363
:104F70001B68134407F58B5202F1130212781A7062
:104F800009E007F11803093B1B7819460E20FEF7CC
:104F9000F3FA01F06ABB07F58C5303F116031C8882
:104FA00007F11803103B18680DF084F90346013B24
:104FB0009C420FD207F58C5303F116031B88B3F5FF
:104FC000FF7F07D807F58C5303F114031B88632B6D
:104FD0007FF666AF07F58C5303F114031B88632B30
:104FE0000AD807F11803093B1B7819460E20FEF773
:104FF000C3FA00BF01F039BBD24A07F58C73143BEA
:105000001046194664231A460CF0A6F907F1180356
:10501000093B1B7819466220FEF704FB07F11803D1
:10502000093B1B7819462020FEF744FBC54B07F5CA
:105030008B5202F11C021360002307F58C5202F11F
:10504000100213601EE007F58B5303F11C031A686E
:1050500007F58C5303F110031B6813441A7807F10A
:105060001803093B1B7819461046FEF7F3FB07F5BA
:105070008C5303F110031B68013307F58C5202F1C6
:105080001002136007F58C5303F110031B68632BA8
:10509000D9D907F11803093B1B781846FEF78AFA9D
:1050A00001F0E3BA07F11803103B1B68023307F560
:1050B000895202F10C02A44918460DF0C7F80346C4
:1050C00007F58C5202F10402138007F58C5303F1AB
:1050D0000403B3F90030012B39D107F5895303F1EB
:1050E0000C03D3ED007AF5EEC07AF1EE10FA24DD70
:1050F00007F5895303F10C03D3ED007AB7EE007A7C
:10510000F4EEC77AF1EE10FA17D807F5895303F1D8
:105110000C031B688B4A936307F11803093B1B7848
:1051200019467820FEF77EFA07F11803093B1B7831
:105130001846FEF73FFA01F098BA07F11803093B49
:105140001B7819460E20FEF717FA01F08EBA07F108
:105150001803093B1B7819467820FEF763FA794B50
:10516000D3ED0E7A07F11803093B1B781846B0EE11
:10517000670AFEF7F7FA07F11803093B1B78184690
:10518000FEF718FA01F071BA07F11803093B1B7812
:10519000012B27D107F11803093B1B781946422040
:1051A000FEF740FA07F11803093B1B7819466748D8
:1051B000FEF756FAFCF702FA0346012B08D107F175
:1051C0001803093B1B781846FEF7F4F901F04DBAB5
:1051D00007F11803093B1B7819460C20FEF7CCF9A0
:1051E00001F043BA07F11803093B1B7819460D205B
:1051F000FEF7C2F901F039BA07F11803103B1B683A
:10520000981C07F5895303F10403991C07F589528B
:1052100002F1040207F5895303F1040304330093F8
:105220000B464B490DF012F8034607F58C5202F17C
:105230000402138007F58C5303F10403B3F9003023
:10524000032B4DD107F5895303F10403B3F9003063
:10525000002B3BDB07F5895303F10603B3F900305C
:10526000002B33DB07F5895303F10803B3F9003052
:10527000002B2BDB07F5895303F10403B3F900205E
:10528000304BA3F84E2007F5895303F10603B3F919
:1052900000202C4BA3F84C2007F5895303F1080399
:1052A000B3F90020274BA3F8502007F11803093B5E
:1052B0001B7819466320FEF7B5F907F11803093B7F
:1052C0001B781846FEF776F901F0CFB907F11803FD
:1052D000093B1B7819460E20FEF74EF901F0C5B9BF
:1052E00007F11803093B1B7819466320FEF79AF96A
:1052F000144BB3F94E2007F11803093B1B781946EC
:105300001046FEF76DFA0F4BB3F94C2007F1180366
:10531000093B1B7819461046FEF762FA094BB3F9B0
:10532000502007F11803093B1B7819461046FEF779
:1053300057FA07F11803093B1B781846FEF73AF9AC
:1053400001F093B9A8070020D05F0108646001084C
:105350001060010807F11803093B1B781946452026
:10536000FEF760F907F11803093B1B781946D64888
:10537000FEF776F9D54B1B889BB2B2EE040A1846AD
:1053800004F07EFEF0EE407A07F11803093B1B782B
:105390001846B0EE670AFEF7E5F907F11803093B76
:1053A0001B781946CA48FEF75BF9C84B5B889BB26D
:1053B000B2EE040A184604F063FEF0EE407A07F1FC
:1053C0001803093B1B781846B0EE670AFEF7CAF9C6
:1053D00007F11803093B1B781946BE48FEF740F950
:1053E000BA4B5B689FEDB20B184604F06BFEB0EE53
:1053F000407AF0EE607A07F11803093B1B781846F3
:10540000B0EE470AF0EE670AFEF770F907F11803ED
:10541000093B1B781946B048FEF722F9AB4B9B6855
:105420009FEDA30B184604F04DFEB0EE407AF0EE6F
:10543000607A07F11803093B1B781846B0EE470A5B
:10544000F0EE670AFEF752F907F11803093B1B78E3
:105450001946A248FEF704F99C4B9B8A9BB29FED2C
:10546000A00A184604F00CFEF0EE407A07F118038B
:10547000093B1B781846B0EE670AFEF773F907F18F
:105480001803093B1B7819469648FEF7E9F88F4B3D
:10549000D3F81630184604F033FE024607F118031D
:1054A000093B1B7819461046FEF70EFA07F1180360
:1054B000093B1B7819468C48FEF7D2F8834B5B8B6F
:1054C0009BB2B2EE040A184604F0DAFDF0EE407A20
:1054D00007F11803093B1B781846B0EE670AFEF780
:1054E00041F907F11803093B1B7819467F48FEF77D
:1054F000B7F8764BDB699FED700B184604F0E2FDC0
:10550000B0EE407AF0EE607A07F11803093B1B78A1
:105510001846B0EE470AF0EE670AFEF7E7F807F123
:105520001803093B1B7819467148FEF799F8674B39
:105530001B6A9FED610B184604F0C4FDB0EE407A83
:10554000F0EE607A07F11803093B1B781846B0EEBD
:10555000470AF0EE670AFEF7C9F807F11803093B9E
:105560001B7819466348FEF77BF8584B5B6A9FED42
:10557000540B184604F0A6FDB0EE407AF0EE607AC7
:1055800007F11803093B1B781846B0EE470AF0EE06
:10559000670AFEF7ABF807F11803093B1B781946B9
:1055A0005548FEF75DF8494B9B6A9FED450B184641
:1055B00004F088FDB0EE407AF0EE607A07F118034F
:1055C000093B1B781846B0EE470AF0EE670AFEF773
:1055D0008DF807F11803093B1B7819464748FEF779
:1055E0003FF83A4BDB6A184604F08AFD024607F1A1
:1055F0001803093B1B7819461046FEF765F907F1B9
:105600001803093B1B7819463D48FEF729F82F4B34
:105610001B6B184604F074FD024607F11803093BA2
:105620001B7819461046FEF74FF907F11803093B9E
:105630001B7819463348FEF713F8244B93F834309F
:10564000062B00F2848001A252F823F0695600086C
:105650007B5600088D5600089F5600081957000811
:105660002B5700083D57000807F11803093B1B782A
:1056700019462548FDF7F4FF69E007F11803093BD7
:105680001B7819462148FDF7EBFF60E007F118038E
:10569000093B1B7819461E48FDF7E2FF57E007F16A
:1056A0001803093B1B7819461A48FDF7D9FF4EE04D
:1056B00000000000000059400000000000002440ED
:1056C000000000000088C3407C6001085C370020B7
:1056D0008C6001089C600108AC600108BC60010896
:1056E00000007A44C8600108D0600108DC6001084D
:1056F000F0600108046101081461010828610108D3
:10570000386101084C6101085861010860610108B5
:10571000706101088061010807F11803093B1B78DB
:1057200019460F48FDF79CFF11E007F11803093BEC
:105730001B7819460B48FDF793FF08E007F11803A3
:10574000093B1B7819460848FDF78AFF00BF07F19F
:105750001803093B1B781846FDF72CFF00F085BFA6
:105760008C6101089C610108AC61010807F1180314
:10577000093B1B781946C74802F034FC07F11803AF
:10578000093B1B781946C44802F02CFCC34B042289
:1057900083F85120FF2307F5895202F103021370A9
:1057A00007F11803093B1B781946BD4802F01AFCA3
:1057B00003F0A0FF07F58C72143A07F17801143951
:1057C00007F11800043807F11803093B1B78009310
:1057D00042F2107301F08CF807F11803093B1A78B4
:1057E00007F17801143907F11803043B184600F05B
:1057F000A1FF0346002B00F0108307F11803093BBB
:105800001B781946A74802F0EDFB07F11803093B86
:105810001B78184602F038FC07F11803093B1B7887
:105820001946A14802F0DEFB07F11803093B1B787B
:1058300019469E4802F0D6FB07F11803093B1B7876
:1058400019469B4802F0CEFB03F054FF07F1B80263
:10585000043A07F17801143907F11800043807F108
:105860001803093B1B78009343F6982301F040F896
:1058700007F11803093B1B7807F5895202F103026F
:1058800007F17801143907F11800043800F0B4FF6B
:105890000346002B00F0C18207F5895303F103038F
:1058A0001A7807F11803093B1B7807F58C71143936
:1058B00007F1B800043800F0E3FE0346002B00F0C7
:1058C000AC8207F11803093B1B781946794802F0AE
:1058D00005FB07F5895303F103031B789BB20133E2
:1058E0009BB21AB207F11803093B1B781946104600
:1058F00002F05CFB07F5895303F103031A786E4B42
:105900009A7507F5895303F103031B781A4607F5C7
:105910008C73143B143233F812301AB2664B1A826D
:10592000654B1E225A8207F5895303F103031B7846
:105930001A4607F17803143B143233F81230194633
:1059400007F5895303F103031B781A4607F118037F
:10595000043B143233F81230CB1ADA0F13445B10C5
:105960009AB2554BB3F912309BB2D31A9BB21AB20A
:10597000514B9A8207F11803093B1B7819464F488F
:1059800002F0ACFA4C4BB3F9102007F11803093BB5
:105990001B781946104602F069FA07F11803093B13
:1059A0001B781946464802F099FA434BB3F9122086
:1059B00007F11803093B1B781946104602F0F6FA66
:1059C00007F11803093B1B7819463E4802F086FA96
:1059D000394BB3F9142007F11803093B1B7819461A
:1059E000104602F0E3FA07F11803093B1B78194649
:1059F000354802F0F7FA07F11803093B1B781946FE
:105A0000324802F0EFFA07F58C72143A07F1780188
:105A1000143907F11800043807F11803093B1B7803
:105A2000009342F2107300F063FF07F11803093B83
:105A30001B7807F5895202F1030207F17801143946
:105A400007F11800043800F0D7FE0346002B3FD0C2
:105A500007F11803093B1B781946164802F03EFA75
:105A600007F5895303F103031B789BB201339BB203
:105A70001AB207F11803093B1B781946104602F0C9
:105A800095FA07F5895303F103031A780A4BDA757F
:105A900029E000BFC0610108F06101080C08002086
:105AA0000862010838620108446201085462010872
:105AB000A0620108D4620108A8070020FC62010866
:105AC0001463010818630108306301084463010886
:105AD00007F11803093B1B781946BF4802F082FA08
