:020000040800F2
:10000000000002209D8B0008AD910008BD91000802
:10001000D1910008E5910008F99100080000000066
:100020000000000000000000000000000D92000829
:100030001D920008000000002D9200083D9200086B
:10004000F78B0008F98B0008FB8B0008FD8B00087C
:10005000FF8B0008018C0008038C0008058C000849
:10006000078C0008098C00080B8C00080D8C000818
:100070000F8C0008118C0008138C0008158C0008E8
:10008000178C0008198C00081B8C00081D8C0008B8
:100090001F8C0008218C0008238C0008258C000888
:1000A000278C0008298C00082B8C0008B1920008CE
:1000B0002F8C0008318C0008338C0008358C000828
:1000C000378C0008398C00083B8C00083D8C0008F8
:1000D0003F8C00084D92000861920008759200085C
:1000E000478C0008498C00084B8C00084D8C000898
:1000F0004F8C0008518C0008538C0008558C000868
:10010000578C0008598C0008C59200085D8C0008C7
:100110005F8C0008618C0008638C0008658C000807
:10012000678C0008698C00086B8C00086D8C0008D7
:100130006F8C0008718C0008738C0008758C0008A7
:10014000778C0008798C00087B8C00089D92000851
:100150007F8C0008818C0008838C0008899200083D
:10016000878C0008898C00088B8C00088D8C000817
:100170008F8C0008918C0008938C0008958C0008E7
:10018000978C0008998C000810B5054C237833B97A
:10019000044B13B10448AFF300800123237010BD5A
:1001A0004402002000000000F4840108084B10B550
:1001B0001BB108490848AFF300800848036803B939
:1001C00010BD074B002BFBD0BDE81040184700BF07
:1001D0000000000048020020F484010844020020CE
:1001E00000000000154B002B08BF134B9D46A3F5E4
:1001F000803A00218B460F461348144A121A11F018
:10020000FCFA0F4B002B00D098470E4B002B00D070
:1002100098470020002104000D000D48002802D05E
:100220000C48AFF3008011F0A7FA2000290002F07B
:1002300003FD11F08DFA00BF00000800000002204D
:10024000000000000000000044020020DC39002013
:10025000000000000000000080B584B000AF7860AE
:100260000B46FB700023FB737B681B7C002B0ED1BD
:100270004FF4007302228121786809F0ABFE4FF43D
:10028000007302220121786809F0A4FE0BE04023EC
:1002900002228121786809F09DFE4023022201217B
:1002A000786809F097FE082303228221786809F014
:1002B00091FE4FF4077011F085FA03461A467B68E9
:1002C000C3F818227B68D3F81832002B02D101231F
:1002D000FB7326E07B68D3F81832BB607B68D3F8E9
:1002E0001C321B689847BB680022C3F81422BB6805
:1002F0000022C3F818227B681B7C002B09D1BB6845
:10030000D3F804224FF400730121786809F0DEFF6E
:1003100007E0BB68D3F8042240230121786809F084
:10032000D5FFFB7B18461037BD4680BD80B584B035
:1003300000AF78600B46FB700023FB738121786867
:1003400009F086FE0121786809F082FE8221786832
:1003500009F07EFE7B68D3F81832002B0ED07B6844
:10036000D3F81C325B6898477B68D3F8183218467C
:1003700011F030FA7B680022C3F81822FB7B184684
:100380001037BD4680BD00BF80B584B000AF786037
:1003900039607B68D3F81832FB603B681B7803F048
:1003A0006003002B3AD0202B00D043E03B68DB8871
:1003B000002B29D03B681B785BB2002B11DA7B68DD
:1003C000D3F81C329B683A685078F9683A68D2884A
:1003D0009847F9683B68DB881A46786801F068F846
:1003E00029E03B685A78FB6883F800223B68DB8889
:1003F000DAB2FB6883F80122F9683B68DB881A46A9
:10040000786801F083F816E07B68D3F81C329B68AB
:100410003A6850780022396898470CE03B685B786E
:100420000A2B01D00B2B05E001220549786801F069
:100430003FF800BF00BF002318461037BD4680BDFF
:100440006002002080B485B000AF78600B46FB707E
:100450007B68D3F81832FB607B68D3F81832002B26
:1004600005D0FB680022C3F81422002300E0022319
:1004700018461437BD465DF8047B704780B584B0DC
:1004800000AF78600B46FB707B68D3F81832FB60D6
:10049000FB781946786809F053FF0246FB68C3F8F9
:1004A0000C227B68D3F81832002B0DD07B68D3F870
:1004B0001C32DB68FA68D2F80402FA6802F50372AB
:1004C00011469847002300E0022318461037BD4626
:1004D00080BD00BF80B584B000AF78607B68D3F882
:1004E0001832FB607B68D3F81C32002B15D0FB68F8
:1004F00093F80032FF2B10D07B68D3F81C329B6836
:10050000FA6892F80002F968FA6892F8012292B249
:100510009847FB68FF2283F8002200231846103713
:10052000BD4680BD80B483B000AF78607B68432255
:100530001A80034B18460C37BD465DF8047B7047A4
:100540008800002080B483B000AF78607B684322CD
:100550001A80034B18460C37BD465DF8047B704784
:100560004400002080B483B000AF78607B684322F1
:100570001A80034B18460C37BD465DF8047B704764
:10058000CC00002080B483B000AF78607B680A2282
:100590001A80034B18460C37BD465DF8047B704744
:1005A0000000002080B485B000AF7860396002237D
:1005B000FB733B68002B05D07B683A68C3F81C22AC
:1005C0000023FB73FB7B18461437BD465DF8047BA4
:1005D000704700BF80B487B000AFF860B9601346C1
:1005E000FB80FB68D3F818327B617B69BA68C3F87B
:1005F0000822FA887B69C3F81022002318461C37AA
:10060000BD465DF8047B704780B485B000AF78606C
:1006100039607B68D3F81832FB60FB683A68C3F82E
:100620000422002318461437BD465DF8047B70474A
:1006300080B584B000AF78607B68D3F81832FB6077
:100640007B68D3F81832002B17D0FB68D3F814322C
:10065000002B10D1FB680122C3F81422FB68D3F8E9
:100660000822FB68D3F810329BB28121786809F028
:10067000F3FD002302E0012300E0022318461037B7
:10068000BD4680BD80B584B000AF78607B68D3F88C
:100690001832FB607B68D3F81832002B17D07B68C8
:1006A0001B7C002B09D1FB68D3F804224FF40073A4
:1006B0000121786809F00AFE07E0FB68D3F80422FC
:1006C00040230121786809F001FE002300E00223A5
:1006D00018461037BD4680BD80B584B000AFF860C5
:1006E000B9601346FB71FB68002B01D102231AE0AD
:1006F000FB68D3F81432002B03D0FB680022C3F848
:100700001422BB68002B03D0FB68BA68C3F8102220
:10071000FB68012283F8FC21FB68FA791A70F868FB
:1007200009F0D2FB002318461037BD4680BD00BF3C
:1007300080B485B000AF786039600023FB733B68FC
:10074000002B06D07B683A68C3F814220023FB73A1
:1007500001E00223FB73FB7B18461437BD465DF8AE
:10076000047B704780B582B000AF7860786809F08C
:10077000FFFB002318460837BD4680BD80B483B018
:1007800000AF7860002318460C37BD465DF8047B47
:10079000704700BF80B584B000AF78600B46FB7037
:1007A0000223FB737B68D3F81432002B0CD07B68D8
:1007B000D3F814321B68FA781146786898470346D4
:1007C000002B01D10023FB73FB7B18461037BD467D
:1007D00080BD00BF80B582B000AF78600B46FB7073
:1007E0007B68D3F814325B68FA78114678689847CA
:1007F000002318460837BD4680BD00BF80B582B0D3
:1008000000AF786039607B6803F502733968184679
:1008100000F0A2FD7B680122C3F8F4217B68B3F8E5
:100820000E321A467B68C3F8F8217B6893F80832C9
:1008300003F01F03012B0BD0022B11D0002B17D17B
:100840007B6803F502731946786800F0CFF91AE067
:100850007B6803F502731946786800F017FA12E016
:100860007B6803F502731946786800F043FA0AE0E2
:100870007B6893F8083223F07F03DBB2194678686F
:1008800009F01CFC00BF002318460837BD4680BD98
:1008900080B586B000AFF8600B467A60FB72FB7AD9
:1008A000002B38D1FB6803F582737B61FB68D3F8BA
:1008B000F431032B42D17B699A687B69DB689A42E9
:1008C00014D97B699A687B69DB68D21A7B699A6064
:1008D0007B69DA687B699B68934228BF13469BB2A9
:1008E0001A467968F86800F02FFE27E0FB68D3F815
:1008F00014321B69002B0AD0FB6893F8FC31032BE0
:1009000005D1FB68D3F814321B69F8689847F8687A
:1009100000F02CFE12E0FB68D3F814329B69002B28
:100920000CD0FB6893F8FC31032B07D1FB68D3F89C
:1009300014329B69FA7A1146F868984700231846E2
:100940001837BD4680BD00BF80B586B000AFF860E7
:100950000B467A60FB72FB7A002B6CD1FB68143378
:100960007B61FB68D3F8F431022B57D17B699A681D
:100970007B69DB689A4215D97B699A687B69DB6879
:10098000D21A7B699A607B699B689BB21A46796828
:10099000F86800F0A9FD002300220021F86809F0A2
:1009A00095FC3BE07B695B687A69D268B3FBF2F146
:1009B00002FB01F29B1A002B1CD17B695A687B69F0
:1009C000DB689A4216D37B695A68FB68D3F8F83122
:1009D0009A420FD200220021F86800F085FDFB68E2
:1009E0000022C3F8F821002300220021F86809F052
:1009F0006DFC13E0FB68D3F81432DB68002B0AD0DF
:100A0000FB6893F8FC31032B05D1FB68D3F8143253
:100A1000DB68F8689847F86800F0BCFDFB6893F85D
:100A20000032012B1AD1F868FFF7A8FEFB680022FC
:100A300083F8002212E0FB68D3F814325B69002BC4
:100A40000CD0FB6893F8FC31032B07D1FB68D3F87B
:100A500014325B69FA7A1146F86898470023184601
:100A60001837BD4680BD00BF80B582B000AF78604A
:100A7000402300220021786809F0ACFA7B6840220C
:100A8000C3F81021402300228021786809F0A2FADF
:100A90007B6840221A627B68012283F8FC217B6814
:100AA000D3F81832002B09D07B68D3F814325B6876
:100AB0007A685268D2B2114678689847002318467F
:100AC0000837BD4680BD00BF80B483B000AF7860FA
:100AD0000B46FB707B68FA781A74002318460C37B3
:100AE000BD465DF8047B704780B483B000AF78608A
:100AF0007B6893F8FC217B6883F8FD217B680422E6
:100B000083F8FC21002318460C37BD465DF8047BB2
:100B1000704700BF80B483B000AF78607B6893F803
:100B2000FD217B6883F8FC21002318460C37BD4665
:100B30005DF8047B704700BF80B582B000AF78607D
:100B40007B6893F8FC31032B0BD17B68D3F814320C
:100B5000DB69002B05D07B68D3F81432DB69786839
:100B60009847002318460837BD4680BD80B483B03F
:100B700000AF78600B46FB70002318460C37BD466B
:100B80005DF8047B704700BF80B483B000AF78602D
:100B90000B46FB70002318460C37BD465DF8047BFE
:100BA000704700BF80B483B000AF78600023184660
:100BB0000C37BD465DF8047B704700BF80B582B03E
:100BC00000AF78607B68012283F8FC217B68D3F852
:100BD00014325B687A685268D2B2114678689847D6
:100BE000002318460837BD4680BD00BF80B584B0DD
:100BF00000AF786039600023FB733B685B78092B9A
:100C000039D801A252F823F0590C00086D0C0008E5
:100C1000770C0008630C0008770C00083B0C0008F8
:100C2000310C0008770C00084F0C0008450C000838
:100C30003968786800F036F922E03968786800F0A1
:100C400025FA1DE03968786800F05EFA18E0396826
:100C5000786800F0E1FA13E03968786800F00EFB7C
:100C60000EE03968786800F033FB09E0396878688D
:100C700000F04AFB04E03968786800F0ABFB00BF85
:100C8000FB7B18461037BD4680BD00BF80B584B0E1
:100C900000AF786039600023FB737B6893F8FC3108
:100CA000032B1BD13B689B88DBB2012B11D87B68DF
:100CB000D3F814329B683968786898473B68DB88BA
:100CC000002B10D1FB7B002B0DD1786800F04EFC7F
:100CD00009E03968786800F07DFB04E039687868DD
:100CE00000F078FB00E000BF002318461037BD4637
:100CF00080BD00BF80B584B000AF7860396000234C
:100D0000FB733B689B88BB733B681B7803F06003F5
:100D1000202B08D17B68D3F814329B683968786837
:100D200098470023BAE03B685B78012B39D0032B4E
:100D300002D0002B6BD0B0E07B6893F8FC31022B23
:100D400002D0032B0CD025E0BB7B002B27D0BB7B34
:100D5000802B24D0BB7B1946786809F0AFF91EE0E0
:100D60003B685B88002B0AD1BB7B002B07D0BB7B89
:100D7000802B04D0BB7B1946786809F09FF97B680B
:100D8000D3F814329B68396878689847786800F01F
:100D9000EDFB05E03968786800F01CFB00E000BF5F
:100DA0007BE07B6893F8FC31022B02D0032B0CD044
:100DB00024E0BB7B002B26D0BB7B802B23D0BB7BCE
:100DC0001946786809F07AF91DE03B685B88002BCA
:100DD0001BD1BB7B03F07F03002B0BD0BB7B1946E1
:100DE000786809F0A1F97B68D3F814329B683968F8
:100DF00078689847786800F0B9FB06E03968786849
:100E000000F0E8FA02E000BF47E000BF45E07B6881
:100E100093F8FC31022B02D0032B0BD036E0BB7BC6
:100E200003F07F03002B36D0BB7B1946786809F0AE
:100E300045F930E097F90E30002B08DABB7B03F060
:100E40007F0301331B017A681344043307E0BB7B43
:100E500003F07F0310331B017A6813440433BB6033
:100E6000BB7B1946786809F095F90346002B03D03F
:100E7000BB6801221A6002E0BB6800221A60BB68EE
:100E800002221946786800F013FB05E0396878689B
:100E900000F0A0FA00E000BF00BFFB7B184610374F
:100EA000BD4680BD80B584B000AF786039603B68D6
:100EB0005B881B0A9BB2013B062B00F2C98001A292
:100EC00052F823F0E10E0008F90E0008390F00086F
:100ED0005110000851100008FD0F000823100008F1
:100EE0007B68D3F810321B687A68127C07F10A011C
:100EF00010469847F860B0E07B681B7C002B0DD152
:100F00007B68D3F814329B6A07F10A0210469847AF
:100F1000F860FB68013302221A709EE07B68D3F808
:100F20001432DB6A07F10A0210469847F860FB6842
:100F3000013302221A7090E03B685B88DBB2052B1C
:100F400056D801A252F823F0610F0008790F00086B
:100F5000910F0008A90F0008C10F0008D90F000861
:100F60007B68D3F810325B687A68127C07F10A015B
:100F700010469847F86040E07B68D3F810329B68D1
:100F80007A68127C07F10A0110469847F86034E04D
:100F90007B68D3F81032DB687A68127C07F10A01AB
:100FA00010469847F86028E07B68D3F810321B6938
:100FB0007A68127C07F10A0110469847F8601CE035
:100FC0007B68D3F810325B697A68127C07F10A01FA
:100FD00010469847F86010E07B68D3F810329B69A0
:100FE0007A68127C07F10A0110469847F86004E01D
:100FF0003968786800F0EEF944E02EE07B681B7CED
:10100000002B09D17B68D3F814325B6B07F10A021D
:1010100010469847F86020E03968786800F0DAF9FF
:1010200030E07B681B7C002B0DD17B68D3F8143239
:101030001B6B07F10A0210469847F860FB68013302
:1010400007221A7009E03968786800F0C3F919E0DE
:101050003968786800F0BEF914E07B89002B11D064
:101060003B68DB88002B0DD03B68DA887B89934294
:1010700028BF13469BB27B817B891A46F968786842
:1010800000F016FA1037BD4680BD00BF80B584B0B1
:1010900000AF786039603B689B88002B2CD13B689F
:1010A000DB88002B28D13B685B88DBB203F07F0331
:1010B000FB737B6893F8FC31032B04D139687868A3
:1010C00000F088F91CE07B68FA7B83F8FE21FB7B4B
:1010D0001946786809F08AF8786800F047FAFB7BCF
:1010E000002B04D07B68022283F8FC2108E07B6897
:1010F000012283F8FC2103E03968786800F06AF97E
:1011000000BF1037BD4680BD80B582B000AF7860AB
:1011100039603B685B88DAB23E4B1A703D4B1B78F6
:10112000012B04D93968786800F054F96FE07B68C6
:1011300093F8FC31022B02D0032B23D062E0354B15
:101140001B78002B1AD0334B1B781A467B685A60E9
:101150007B68032283F8FC212E4B1B7819467868A4
:10116000FFF718FB0346022B04D13968786800F0BA
:1011700031F94CE0786800F0F9F948E0786800F05F
:10118000F5F944E0234B1B78002B12D17B68022237
:1011900083F8FC211F4B1B781A467B685A601D4B55
:1011A0001B7819467868FFF715FB786800F0DEF9C0
:1011B0002DE0184B1B781A467B685B689A421DD05D
:1011C0007B685B68DBB219467868FFF703FB114B5D
:1011D0001B781A467B685A600E4B1B781946786854
:1011E000FFF7D8FA0346022B04D13968786800F07B
:1011F000F1F80CE0786800F0B9F908E0786800F0E0
:10120000B5F904E03968786800F0E4F800BF083701
:10121000BD4680BD6102002080B582B000AF78601D
:1012200039603B68DB88012B04D03968786800F0AE
:10123000D1F81FE07B6893F8FC31022B02D0032B1E
:101240000BD012E07B6800229A607B680833012291
:101250001946786800F02CF90CE07B680433012211
:101260001946786800F024F904E03968786800F0DD
:10127000B1F800BF00BF0837BD4680BD80B582B061
:1012800000AF786039607B6893F8FC31023B012B3A
:1012900015D87B680122DA607B68D3F80432002B12
:1012A00005D07B68DB6843F002027B68DA607B680C
:1012B0000C3302221946786800F0FAF804E0396825
:1012C000786800F087F800BF00BF0837BD4680BDD2
:1012D00080B582B000AF786039603B685B88012BD5
:1012E0000DD17B680122C3F804227B68D3F8143245
:1012F0009B68396878689847786800F037F900BFCC
:101300000837BD4680BD00BF80B582B000AF7860B1
:1013100039607B6893F8FC31023B012B12D83B68A3
:101320005B88012B13D17B680022C3F804227B6801
:10133000D3F814329B68396878689847786800F069
:1013400015F904E03968786800F044F800E000BF5F
:1013500000BF0837BD4680BD80B483B000AF786061
:1013600039603B681A787B681A703B685A787B68EA
:101370005A703B6802331B789AB23B6803331B7880
:101380009BB21B029BB213449AB27B685A803B68A3
:1013900004331B789AB23B6805331B789BB21B025F
:1013A0009BB213449AB27B689A803B6806331B78E1
:1013B0009AB23B6807331B789BB21B029BB2134463
:1013C0009AB27B68DA8000BF0C37BD465DF8047BBB
:1013D000704700BF80B582B000AF7860396080216F
:1013E000786808F06BFE0021786808F067FE00BF9F
:1013F0000837BD4680BD00BF80B586B000AFF8603D
:10140000B9607A600023FB75FB68002B33D0F86865
:1014100000F036F8034601339BB25B009AB27B685A
:101420001A80FB7D5A1CFA751A46BB6813447A6809
:101430001288D2B21A70FB7D5A1CFA751A46BB6824
:10144000134403221A7012E0FB7D5A1CFA751A46E7
:10145000BB681A44FB68591CF9601B781370FB7D4C
:101460005A1CFA751A46BB68134400221A70FB68AE
:101470001B78002BE8D100BF1837BD4680BD00BFE8
:1014800080B485B000AF78600023FB7305E0FB7B80
:101490000133FB737B6801337B607B681B78002B17
:1014A000F5D1FB7B18461437BD465DF8047B7047C9
:1014B00080B584B000AFF860B9601346FB80FB686C
:1014C0000222C3F8F421FA88FB689A61FA88FB6863
:1014D000DA61FB88BA680021F86808F0BDFE0023D5
:1014E00018461037BD4680BD80B584B000AFF860A7
:1014F000B9601346FB80FB88BA680021F86808F0E1
:10150000ABFE002318461037BD4680BD80B584B0C1
:1015100000AFF860B9601346FB80FB680322C3F894
:10152000F421FA88FB68C3F80821FA88FB68C3F83D
:101530000C21FB88BA680021F86808F0C7FE002378
:1015400018461037BD4680BD80B584B000AFF86046
:10155000B9601346FB80FB88BA680021F86808F080
:10156000B5FE002318461037BD4680BD80B582B059
:1015700000AF78607B680422C3F8F42100230022C6
:101580000021786808F068FE002318460837BD4639
:1015900080BD00BF80B582B000AF78607B68052257
:1015A000C3F8F421002300220021786808F08EFEA1
:1015B000002318460837BD4680BD00BFB0B58CB0CB
:1015C00000AF002387F82330764B3C1D1D460FCD1E
:1015D0000FC495E8070084E80700002387F82F3040
:1015E000002387F82E303DE0012006F0FFFE0121A8
:1015F0006D4806F025FE97F82F309B0007F130026A
:10160000134453F82C3C0121184606F029FE012111
:10161000664806F099FE97F82F309B0007F13002DC
:10162000134453F82C3C184600F042F9002160485E
:1016300006F006FE07F1230207F1240311461846BF
:1016400000F0CEF807F1230207F1240311461846F3
:1016500000F012F90346002B09D197F82F3001331F
:1016600087F82F3097F82F30062BBDD900E000BF48
:1016700097F82F30072B00F08C80012006F0B6FE83
:1016800001214C4806F0DCFD97F82F309B0007F154
:101690003002134453F82C3C0121184606F0E0FDBB
:1016A0000121424806F050FE97F82F30042B26D037
:1016B0000121414806F048FE0021404806F0C0FDE7
:1016C00007F1230207F124031146184600F088F8B9
:1016D0004FF4164000F0ECF807F1230207F1240361
:1016E0001146184600F0C8F80346002B04D001212B
:1016F000334806F029FE02E0012387F82E3097F8E0
:101700002E30002B45D1012006F070FE01212D481E
:1017100006F01AFE00212C4806F092FD07F1230284
:1017200007F124031146184600F05AF807F1230286
:1017300007F124031146184600F09EF80346002BDB
:1017400027D00121214806F0FFFD012006F04EFEC2
:1017500001211F4806F0F8FD00211E4806F070FD2B
:1017600007F1230207F124031146184600F038F868
:1017700007F1230207F124031146184600F07CF814
:101780000346002B05D00121134806F0DDFD01239F
:1017900004E00121114806F0D7FD00231846303738
:1017A000BD46B0BD945E0108B45C0108E45C01086C
:1017B000EC5C0108F05C0108205D0108545D010843
:1017C000605D01087C5D0108B85D0108C85D010825
:1017D000EC5D01082C5E0108385E0108645E0108BA
:1017E00080B586B000AF7860396009F0C7F938611C
:1017F0003B6800221A701F4BDB8DFB8229E008F04A
:10180000EFF91C4BDB8D9BB2FA8A9A4221D0194B1F
:10181000996A184B9A8DFB8AB3FBF2F002FB00F237
:101820009B1A9BB20B441B78FB733B681B78092BFC
:101830000CD83B681B781A467B681344FA7B1A70F5
:101840003B681B780133DAB23B681A70FB8A0133BC
:10185000FB8209F093F902463B69D31A40F6B7328E
:101860009342CCD9012006F0C1FD00BF1837BD4618
:1018700080BD00BF3403002080B483B000AF786027
:1018800039603B681B78012B0AD97B681B784F2B8A
:1018900006D17B6801331B784B2B01D1012300E07B
:1018A000002318460C37BD465DF8047B704700BF27
:1018B00080B582B000AF7860084A7B685360074803
:1018C0000DF0B0FA0346002B03D00121044806F0C6
:1018D0003BFD00BF0837BD4680BD00BF340300207C
:1018E000B05E010880B400AF044B1B680133034AAB
:1018F000136000BFBD465DF8047B704764020020A2
:1019000080B400AF094B1A68094BA3FB02131B09F3
:10191000322101FB03F3D31A002B0CBF0123002358
:10192000DBB21846BD465DF8047B704764020020B8
:101930001F85EB5180B400AF0A4B19680A4BA3FB1B
:101940000123DA0813469B0013445B00CA1A002ADD
:101950000CBF01230023DBB21846BD465DF8047BB3
:10196000704700BF64020020CDCCCCCC80B500AF66
:1019700009F004F902460E4B1B68D31AB3F5FA6F4F
:1019800002D9DFED0C7A10E00B4B1B68002B02D163
:10199000DFED087A09E0084B1B6807EE903AB8EED5
:1019A000677ADFED066AC6EE877AB0EE670A80BD19
:1019B00070020020000000006C0200200000A04225
:1019C00080B400AF044B1B6807EE903AB0EE670A94
:1019D000BD465DF8047B70477402002080B400AF00
:1019E000044B1B6807EE903AB0EE670ABD465DF8FF
:1019F000047B70476802002080B400AF034B5B6A31
:101A00001846BD465DF8047B704700BF000C0040DF
:101A100080B400AF044B022283F8512000BFBD46C2
:101A20005DF8047B704700BF3808002080B483B0A5
:101A300000AF87ED010AD7ED017AF5EEC07AF1EE3D
:101A400010FA04D5D7ED017AF1EE677A01E0D7ED0F
:101A5000017AB0EE670A0C37BD465DF8047B70472B
:101A600080B500AF044BDB7D184606F0CFF9F0EEF1
:101A7000407AB0EE670A80BDD407002080B500AF81
:101A8000044B1B7E184606F0C1F9F0EE407AB0EE2A
:101A9000670A80BDD407002080B500AF044B5B7E91
:101AA000184606F0B3F9F0EE407AB0EE670A80BD52
:101AB000D407002080B500AF044B9B7E184606F08B
:101AC000A5F9F0EE407AB0EE670A80BDD407002099
:101AD00080B500AF044BDB7E184606F097F9F0EEB8
:101AE000407AB0EE670A80BDD407002080B500AF11
:101AF000054B93F85630184606F088F9F0EE407A18
:101B0000B0EE670A80BD00BFD407002080B500AFEB
:101B1000054B93F85230184606F078F9F0EE407A0B
:101B2000B0EE670A80BD00BFD407002080B584B046
:101B300000AF8D4B9B7D184606F068F987ED030AD0
:101B400097ED037AD7ED037AB4EE677AF1EE10FAE7
:101B500002D74FF0000300E1844B93F85130022B81
:101B600004D0824B93F85130032B2FD1D7ED037A59
:101B7000F5EE407AF1EE10FA28D07C4B93F8513014
:101B8000022B20D102217A4806F05AFB022097ED61
:101B9000030A06F07FFB0221764806F051FBD7EDE1
:101BA000037AFDEEE77AC7ED017ABB881BB202210A
:101BB000184606F00DFB02216F4806F041FB6B4B07
:101BC000032283F851204FF00003C6E06B4B5B6AA1
:101BD000BB60664B93F85130002B40F0BD80634BE7
:101BE00093F85830002B00F0B7805F4B1B7F032B1E
:101BF00040F0B280D7ED037AF5EE407AF1EE10FABC
:101C000040F0AA805E4BD3ED037A9FED5E7AF4EE4E
:101C1000477AF1EE10FA00F09F80594BD3ED047A29
:101C20009FED597AF4EE477AF1EE10FA00F09480C5
:101C300008F0A4FF02464D4BDB6DD31AB3F5FA6FE3
:101C400080F08A80494B93F9593007EE903AB8EE0C
:101C5000E77A454BD3ED037AF1EE677AB4EE677A13
:101C6000F1EE10FA3CD1464BD3ED037A9FED477A63
:101C700037EE877ABB6807EE903AF8EEE77AB4EE73
:101C8000E77AF1EE10FA11D5374BD3ED107AB1EEB9
:101C9000677A354BD3ED037A67EE277AC7ED037A7F
:101CA00008F06CFF0246314B1A6655E04FF0000316
:101CB000FB6008F063FF02462C4B1B6ED31A41F207
:101CC0008832934248D9284BD3ED037AFDEEE77A68
:101CD000C7ED017A3B795AB2244B83F859203BE097
:101CE000274BD3ED047A9FED297A37EEC77ABB688C
:101CF00007EE903AF8EEE77AB4EEE77AF1EE10FAF2
:101D00000FDD08F03BFF0246184B1A66164B93EDA9
:101D1000107A154BD3ED037A67EE277AC7ED037A75
:101D20001AE04FF00003FB6008F028FF02460F4B5B
:101D30001B6ED31A41F2883293420DD90A4BD3ED70
:101D4000037AF1EE677AFDEEE77AC7ED017A3B7927
:101D50005AB2064B83F85920FB6807EE903AB0EE72
:101D6000670A1037BD4680BDD40700203808002020
:101D7000F45E0108145F01082C5F0108000C0040AC
:101D8000BC070020000000CF0000004F0000C84248
:101D900080B58EB000AF87ED010AC7ED000AFFF7EE
:101DA000C5FE87ED0A0ACD4BD3ED0E7AB7EE007A69
:101DB00037EE677AD7ED0A7A27EE277AD7ED0A7AD7
:101DC00027EE277AD7ED0A7A27EE277AC34BD3ED91
:101DD0000E6AD7ED0A7A66EEA77A77EE277AC7ED14
:101DE0000D7ABE4B1B7F012B00F07C82BC4B5B6EDF
:101DF0007B62BC4BD3ED007A97ED0D7A77EE677A74
:101E0000C7ED087A97ED087AD7ED097AB4EEE77A4C
:101E1000F1EE10FA0ADCD7ED097AB1EE677AD7ED68
:101E2000087AB4EEE77AF1EE10FA04DDAC4B012249
:101E300083F8542003E0AA4B002283F8542097ED46
:101E4000087AD7ED097AB4EEE77AF1EE10FA09DDF7
:101E5000A44B93ED007AD7ED097A77EE277AC7ED98
:101E60000D7A13E0D7ED097AB1EE677AD7ED087AEB
:101E7000B4EEE77AF1EE10FA08DD9A4B93ED007AB2
:101E8000D7ED097A77EE677AC7ED0D7A944B93F820
:101E90005130002B40F02682904B1B7F012B00F02D
:101EA00021828E4B1B7F022B00F01C828E4B93ED08
:101EB000037A8D4BD3ED047AB4EEE77AF1EE10FAA3
:101EC00009DD894BDB68FB61874B1B69864AD36060
:101ED000854AFB69136197ED017AD7ED007A37EEF9
:101EE000277A814BD3ED047ADFED806A77EEE67ACC
:101EF000B4EEE77AF1EE10FA1AD597ED017AD7ED44
:101F0000007A37EE677A784BD3ED037ADFED776AA4
:101F100077EEA67AB4EEE77AF1EE10FA08DD704BB0
:101F2000002283F856206E4B002283F85720D9E117
:101F300097ED017AD7ED007A37EE277A6A4BD3ED29
:101F4000047ADFED6A6A77EEE67AB4EEE77AF1EECC
:101F500010FAC0F2E480614B93ED037AD7ED0D7A6D
:101F600067EE277AF5EEC07AF1EE10FA40F3CA80F8
:101F7000002210215E4809F041FA5B4B93ED047A90
:101F8000D7ED017AB4EEE77AF1EE10FA06D8554BA8
:101F90004FF000021A60534B1B68B5E3524BD3ED70
:101FA000047A9FED527A37EEC77AD7ED017AB4EE14
:101FB000E77AF1EE10FA0CD8484BD3ED037A9FED97
:101FC0004D7A67EE877A474BC3ED007A454B1B6825
:101FD0009AE3444B93ED007A404BD3ED036AD7ED7F
:101FE000097A66EEA77A77EE677AC7ED0D7A3B4BF2
:101FF00093ED037AD7ED0D7A67EE277AF5EEC07A86
:10200000F1EE10FA02D54FF000037B63344B93F8E6
:10201000563083F00103DBB2002B18D00221364882
:1020200006F00EF9304B93ED047AD7ED017A77EE96
:10203000677A0220B0EE670A06F02CF902212F48D9
:1020400006F0FEF8022097ED000A06F091F9244B05
:10205000012283F85620214BD3ED087AF5EE407A21
:10206000F1EE10FA5BD097ED017AD7ED007A37EEFA
:10207000277A1D4BD3ED046A184BD3ED087A76EE20
:10208000A76AD7ED007AB3EE0E6A67EE865A134B55
:1020900093ED086AC5EE867A76EEA77AB4EEE77A13
:1020A000F1EE10FA3BDB0E4B93F8573083F001034F
:1020B000DBB2002B03D00221114806F045F9084B92
:1020C000012283F8572000221021094809F096F9CF
:1020D000044A7B6B13604FF0000315E3D407002024
:1020E0003808002068020020BC0700200000C84219
:1020F000000402400AD7A33B805F0108A05F0108EB
:10210000C05F0108B04B002283F85620AE4B00227E
:1021100083F8572001221021AC4809F06FF997EDA0
:10212000017AD7ED007A37EE677AA94BD3ED037ABF
:10213000DFEDA86A77EEA67AB4EEE77AF1EE10FA50
:1021400000F2D080A44B93ED037AD7ED0D7A67EEC1
:10215000277AF5EEC07AF1EE10FA40F1B68000224F
:1021600010219A4809F04AF9994B93ED037AD7ED7B
:10217000017AB4EEE77AF1EE10FA06DB974B4FF0F6
:1021800000021A604FF00003BEE2914BD3ED037AD8
:102190009FED907A37EE877AD7ED017AB4EEE77A41
:1021A000F1EE10FA0CDB8C4BD3ED037A9FED8C7AB9
:1021B00067EE877A894BC3ED007A884B1B68A3E2F0
:1021C000854B93ED037AD7ED097A27EE277A834B77
:1021D000D3ED007A77EE277AC7ED0D7A7E4B93ED3B
:1021E000037AD7ED0D7A67EE277AF5EEC07AF1EE35
:1021F00010FA02DD4FF000037B63734B93F8563007
:1022000083F00103DBB2002B18D00221754806F0E1
:1022100017F86F4BD3ED037A97ED017A77EE677A73
:102220000220B0EE670A06F035F802216E4806F08B
:1022300007F8022097ED000A06F09AF8624B012297
:1022400083F85620644BD3ED087AF5EE407AF1EE30
:1022500010FA47D097ED017AD7ED007A37EE677A1A
:102260005B4BD3ED036A5C4BD3ED087A76EEE76AFD
:10227000D7ED007AB3EE0E6A67EE865A564B93EDB1
:10228000086AC5EE867A76EEE77AB4EEE77AF1EE82
:1022900010FA27D84C4B93F8573083F00103DBB288
:1022A000002B03D00221514806F04EF8464B012284
:1022B00083F8572000221021444809F09FF8474A2C
:1022C0007B6B13604FF000031EE23F4B002283F84C
:1022D00056203D4B002283F85720012210213B4815
:1022E00009F08CF83D4A7B6B1360FFF7B9FBB0EE49
:1022F000407ADFED3F7AB4EEE77AF1EE10FA0DDDC9
:10230000314B93F85130002B03D00221394806F0AD
:102310001BF82D4B002283F851200FE02A4B93F835
:102320005130012B06D0344B00221A700221334861
:1023300006F00AF8244B012283F85120304B93ED2C
:10234000007AD7ED0D7A77EE277A2D4BC3ED007A20
:10235000FFF794FB87ED060AD7ED067A9FED247A06
:10236000F4EEC77AF1EE10FA40F30681164B93F8BB
:102370005130012B40F00081224BD3ED007A9FEDCC
:102380001C7AF4EEC77AF1EE10FA00F2F5801D4BDC
:10239000D3ED007AF4EE677AF1EE10FA80F1EC807A
:1023A000154B1B78002B31D1094A7B68D360124B47
:1023B00001221A700221144805F0C6FF104B4FF09D
:1023C00000021A60D8E000BF380800200004024074
:1023D000BC0700200000C842D4070020680200208B
:1023E0000AD7A3BB805F0108A05F0108C05F010896
:1023F000CDCC4C3FD45F010880020020F05F010883
:102400007802002084020020146001080221C248E2
:1024100005F09AFFC14B93ED037AD7ED017AB4EE44
:10242000E77AF1EE10FA4BD5BC4A7B6813610221C2
:10243000BB4805F005FFB94BD3ED037A0220B0EE9F
:10244000670A05F027FF0221B64805F0F9FEB34BF5
:10245000D3ED047A0220B0EE670A05F089FFB24B93
:10246000D3ED037AF5EE407AF1EE10FA7FD1022136
:10247000AE4805F0E5FEAE4BD3ED007A0220B0EE9B
:10248000670A05F007FF0221AA4805F0D9FEA84B0C
:10249000D3ED007AF5EEC07AF1EE10FA04DDA24B2E
:1024A0004FF07E52DA6002E09F4BA34ADA609E4B07
:1024B000D3ED037A0220B0EE670A05F059FF56E02B
:1024C000964BDB68954A1361944A7B68D36002217E
:1024D0009A4805F0B5FE914BD3ED047A0220B0EE98
:1024E000670A05F0D7FE0221954805F0A9FE8B4B3F
:1024F000D3ED037A0220B0EE670A05F039FF8A4B6C
:10250000D3ED037AF5EE407AF1EE10FA2FD10221E5
:10251000864805F095FE864BD3ED007A0220B0EE9A
:10252000670A05F0B7FE0221824805F089FE804B5C
:10253000D3ED007AF5EEC07AF1EE10FA03DD7A4BB6
:102540007D4ADA600BE07A4BD3ED007AF5EEC07A83
:10255000F1EE10FA03D5744B4FF07E52DA60724BF5
:10256000D3ED037A0220B0EE670A05F001FF0322E3
:1025700018216A4800F0B4FA724ABB691360724BC2
:1025800093F85130002B06D0674B5B6C3B63664B76
:102590009B6CFB6205E0644BDB6B3B63624B1B6C2B
:1025A000FB62FFF779FA87ED050A97ED057AD7ED1B
:1025B000057AB4EE677AF1EE10FA19D6D7ED057AFE
:1025C000B7EE007A77EE877AF0EE006A87EEA67AA9
:1025D000D7ED0C7ADFED5D6A77EEE67A67EE277A63
:1025E0009FED5A7A77EE877A574BC3ED197A02E05E
:1025F000554A3B6B5366FFF75DFA87ED040A97ED8A
:10260000047AD7ED047AB4EE677AF1EE10FA19D6AF
:10261000D7ED047AB7EE007A77EE877AF0EE006AAB
:1026200087EEA67AD7ED0B7ADFED496A77EEE67A88
:1026300067EE277A9FED467A77EE877A424BC3EDB5
:102640001A7A02E0404AFB6A9366FFF741FA87ED87
:10265000030A97ED037AD7ED037AB4EE677AF1EEC9
:1026600010FA2CD6D7ED037AF5EEC07AF1EE10FA17
:1026700003D52D4B01221A770DE0D7ED037AF5EE45
:10268000C07AF1EE10FA03DD274B03221A7702E03D
:10269000254B02221A77244B1A7F2E4B1B789A4225
:1026A0000DD0214B1A7F2B4B1A701F4B1B7F1846E6
:1026B00004F098FF03460221184605F045FEFFF797
:1026C00015FA87ED020A97ED027AD7ED027AB4EE99
:1026D000677AF1EE10FA12D6D7ED027A9FED1E7AE4
:1026E000F4EEC77AF1EE10FA09DD174B012283F8F8
:1026F000582008F043FA0246134BDA6503E0124B08
:10270000002283F858207B6B07EE903AB0EE670A00
:102710003837BD4680BD00BF20600108BC070020DF
:102720002C60010840600108D407002044600108C3
:10273000780200205C600108000080BF8060010812
:10274000A060010884020020380800206F12833A3C
:10275000CDCCCC3D0F010020CDCC4C3F80B58CB012
:1027600000AF8E4B5B6A7B628D4B1A687B6AD31A13
:1027700007EE903AF8EEE77AB0EE670AFFF756F9FF
:10278000F0EE407A874BC3ED007A7B6A07EE903A11
:10279000F8EEE77AC7ED087AFFF7E8F887ED070A61
:1027A000804B1B68FB627F4BD3ED007AB1EE047A5D
:1027B000F4EEC77AF1EE10FA01D8FB69FB62FFF77D
:1027C0000DF9F0EE406A784BD3ED197A86EEA77AD0
:1027D000B0EE470AFFF72AF987ED060A97ED0B7A64
:1027E000D7ED067A27EE277AF0EE006AC7EE267A52
:1027F000C7ED057AD7ED050A97ED080AFFF7C8FA85
:1028000087ED040AD7ED047AF5EEC07AF1EE10FAFE
:1028100021DD664A664BB3F92E301946644BB3F995
:1028200030300B44604991ED1A7AD7ED047A27EEE7
:10283000277A5F49B1F9321007EE901AF8EEE77A7D
:1028400067EE277AFDEEE77AC7ED017AB98809B21B
:102850000B44D3632DE0D7ED047AF5EEC07AF1EEA8
:1028600010FA21D5514A524BB3F92E301946504B2C
:10287000B3F93030CB1A4C4991ED1A7AD7ED047A7E
:1028800027EE277A4A49B1F9321007EE901AF8EE8E
:10289000E77A67EE277AFDEEE77AC7ED017AB98825
:1028A00009B20B44D36304E0404B414AB2F92E20F5
:1028B000DA6397ED040A07F09FFEFFF727F987ED2B
:1028C000030AD7ED037AF5EEC07AF1EE10FA1CDDBB
:1028D000364A374BB3F92E301946354BB3F9303001
:1028E0000B443349B1F9321007EE901AB8EEE77A8B
:1028F000D7ED037A67EE277AFDEEE77AC7ED017A26
:10290000B98809B20B44136428E0D7ED037AF5EED9
:10291000C07AF1EE10FA1CD5244A254BB3F92E30BB
:102920001946234BB3F93030CB1A2149B1F9321093
:1029300007EE901AB8EEE77AD7ED037A67EE277ABA
:10294000FDEEE77AC7ED017AB98809B20B4413644A
:1029500004E0164B164AB2F92E201A640023BB621B
:102960000FE0BB6ADBB2184600F026F8F0EE407AC2
:10297000104ABB6A9B001344C3ED007ABB6A013363
:10298000BB62BB6A072BECDD0A4805F01BF8044A62
:102990007B6A136000BF3037BD4680BD000C00402D
:1029A0007C0200207402002038080020000400404F
:1029B000D40700201403002080B483B000AF034686
:1029C000FB71FB790E4A134493F85730FF2B02D169
:1029D000DFED0C7A0CE0FB79094A134493F8573089
:1029E000094A143332F8133007EE903AF8EE677A5A
:1029F000B0EE670A0C37BD465DF8047B704700BF38
:102A0000D40700200000C07FA408002080B500AFDC
:102A100005F08EFF0246064B1A60054B1B68054AFF
:102A2000934201D0002300E00023184680BD00BF80
:102A3000880200201520200080B584B000AF7860A7
:102A40000B467B8013463B800E4B1B68092B01D83D
:102A5000022312E03B881B04FB60F86805F0FCFCD5
:102A60007B881A46F968786805F0B4FD7B881A46B9
:102A7000F968786805F098FE034618461037BD4699
:102A800080BD00BF8802002080B584B000AF03463F
:102A9000FB80084B1B68092B01D8022306E0FB884A
:102AA0001B04FB60F86805F0D7FC03461846103796
:102AB000BD4680BD8802002080B584B000AFF860BC
:102AC000B9601346FB80FB881B04BA681946F86896
:102AD00005F0D2FE034618461037BD4680BD00BF44
:102AE00080B582B000AF78600B467B8013463B8098
:102AF000114B1B88002B19D10F4B1B8801339AB245
:102B00000D4B1A800D4A7B6813600D4A7B88138039
:102B10003B881B040B4A136008F030F8034603F5AA
:102B20001C531033084A1360002300E001231846A9
:102B30000837BD4680BD00BF8C02002090020020F7
:102B400094020020980200209C02002080B582B0F0
:102B500000AF324B1B88002B5CD000237B602F4BD7
:102B60001B88013B042B3FD801A252F823F000BF81
:102B7000852B00089F2B0008B72B00089F2B00080F
:102B8000D92B0008264B1B68184605F079FC7860A5
:102B9000224B1B8801339AB2204B1A8029E005F0A2
:102BA000B1FF0346002B23D11C4B1B8801339AB283
:102BB0001A4B1A801CE01B4B1868194B19681A4BEA
:102BC0001B881A4605F01EFD7860144B1B880133E4
:102BD0009AB2124B1A800CE00221144805F0B4FBA3
:102BE0000E4B00221A8004E00C4B00221A8000E0F9
:102BF00000BF7B68002B06D107F0C0FF02460C4BDC
:102C00001B689A4206D9054B00221A800221094806
:102C100005F09AFB00BF0837BD4680BD8C0200203E
:102C200098020020900200209402002040610108D8
:102C30009C02002058610108B0B59CB000AF07F0BD
:102C400051FF00F025FA00F05FFD00F0AFFA00F050
:102C5000D7FA00F00FFB00F057FB00F0F3FC06F092
:102C600095FD00F0C1FC00F0B7FB00F019FD00F08D
:102C70003BFE07F029FC0421B1480BF01FF80122AC
:102C80001021B04808F0BAFB0821AF480AF08CFECA
:102C90000346002B03D09021AC4800F0EBFD0C2143
:102CA000A9480AF081FE0346002B03D09521A748CE
:102CB00000F0E0FDFFF7AAFE0346002B03D09B21A6
:102CC000A24800F0D7FDA24BA24A07CA03C31A705C
:102CD0009F4B4FF00002DA609D4B9F4A1A629C4B5B
:102CE00001221A779A4B002283F82C20984BFF225E
:102CF0001A76974BFF22DA75954B00229A75944B02
:102D0000FF225A76924BFF229A76914BFF22DA7677
:102D10008F4B924ADA638E4B904A5A648C4B4FF039
:102D20007E521A648A4B4FF07A529A64884B4FF461
:102D300078721A82864B1E225A82854B4FF42F726C
:102D40005A86834B40F2DC52DA85814B1E221A866A
:102D50007F4B4FF448729A827D4B4CF250325A634B
:102D60007B4B7F4A9A637A4B3C22A3F84E20784BE8
:102D70000A22A3F84C20764B0122A3F85020744B72
:102D8000FF2283F85220724BFF2283F85320704BAE
:102D9000FF2283F854206E4BFF2283F855206C4BA2
:102DA000FF2283F856200023FB6608E0684AFB6E8A
:102DB00013445733FF221A70FB6E0133FB66FB6E20
:102DC000072BF3DD624B6422A3F860203B1D002239
:102DD00064211846FFF770FE3B1D0B2219465C4824
:102DE0000FF0B6FC0346002B11D1594B18463B1D82
:102DF000642219460EF0F6FC5A4A5B4B14461D46F7
:102E00000FCD0FC495E8070084E8070055E03B1D8F
:102E10000422564918460FF09BFC0346002B0FD1A5
:102E2000504A534B14461D460FCD0FC40FCD0FC44F
:102E30000FCD0FC495E803002060043421803CE0EE
:102E40003B1D04224B4918460FF082FC0346002B21
:102E50002BDB3B1D3E4918460FF06AFCB7F8643087
:102E6000A7F86A30B7F86A30002B03D0B7F86A3099
:102E7000642B02D96423A7F86A30B7F86A203B1D97
:102E8000194633480EF0AEFC364A3B4B14461D46FD
:102E90000FCD0FC40FCD0FC40FCD0FC42B681A4632
:102EA000228002341B0C237007E02E4A334B10465D
:102EB000194644231A460EF095FC03221821304887
:102EC000FFF7FAFD0B222F492D480FF041FC034676
:102ED000002B11D002212C4805F036FA284B4FF078
:102EE0009E421A61264B4FF04F42DA60244B254A2E
:102EF00007CA03C31A7017E00221244805F0A0F99D
:102F00001F4BD3ED037A0220B0EE670A05F0C2F939
:102F100002211F4805F094F9194BD3ED047A0220E1
:102F2000B0EE670A05F024FA154B18229A82084B76
:102F300093F82C30012B2DD100F058FC2CE000BF71
:102F40007803002000040240B40300206C610108F3
:102F5000D4070020786101080000C8420AD7233C4A
:102F6000CDCCCC3D3808002084610108A061010867
:102F7000A8610108E0610108E86101081C6201081C
:102F8000BC070020606201086C620108A0620108B1
:102F9000B062010800F04EFCFEF73AFD07F0D4FAEB
:102FA00003464FF40072194631480CF08BF84FF489
:102FB00000723049304806F07BFA07F0DFFD024628
:102FC0002E4B1B68D31A142B3BD907F0D7FD0246B2
:102FD0002A4B1A60FEF786FC06F002FEFEF790FC14
:102FE0000346002B08D0264B93F85130002B03D119
:102FF0002021244808F01CFAFEF79CFC0346002B15
:1030000008D01F4B93F85130012B03D120211D48CC
:1030100008F00EFA1A4B93F85130022B04D0184BDB
:1030200093F85130032B05D100221021154808F0E8
:10303000E5F904E001221021124808F0DFF9FFF75A
:103040008DFB06F0F5FC0346002B03D00E49012052
:1030500000F05AFE06F0F2FA0346002B03D00B49AB
:10306000002000F051FE05F095F8FFF76FFDA4E792
:103070007C070020E40400203403002074030020B7
:1030800038080020000402406C0D00204809002090
:1030900080B598B000AF0023BB60404A3F4B1B6C2B
:1030A00043F0805313643D4B1B6C03F08053BB60B3
:1030B000BB6800237B603A4A394B1B6843F480436A
:1030C0001360374B1B6803F480437B607B680B23E2
:1030D0003B634FF480337B630123FB6310233B642A
:1030E00001237B640223BB644FF48003FB6404234D
:1030F0003B6548237B650223BB650323FB6507F122
:103100003003184609F058FA0346002B04D04FF458
:10311000AE71244800F0AEFB0F23FB6100233B623D
:1031200000237B620023BB620023FB6207F11C03C8
:103130000021184609F09AFC0346002B04D04FF4F6
:10314000B571184800F096FB0223FB604FF4007342
:10315000BB6107F10C03184609F068FE0346002B1B
:1031600004D040F271110F4800F084FB09F00EFE0C
:1031700002460D4BA3FB02239B09184607F050FEA5
:10318000042007F059FE002200214FF0FF3007F025
:103190000FFE00BF6037BD4680BD00BF0038024053
:1031A000007000406C610108D34D621080B500AF23
:1031B000104B114A1A600F4B00225A600D4B7F22B0
:1031C0009A600C4BFF22DA600A4B00221A61094B0D
:1031D00000225A61074B00229A61064809F01CFF41
:1031E0000346002B04D04FF4C771044800F042FBA3
:1031F00000BF80BD88040020002800406C610108E9
:1032000080B500AF184B194A1A60174B4FF4827201
:103210005A60154B00229A60134B0022DA60124B61
:1032200000221A61104B00225A610F4B00229A6152
:103230000D4B0022DA610C4B00221A620A4B00226D
:103240005A62094B00229A62074B0A22DA62064848
:1032500009F08AFF0346002B04D04FF4D2710448D2
:1032600000F008FB00BF80BD2407002000300140B3
:103270006C61010880B500AF012208211E4808F0EA
:10328000BDF81E4B1E4A1A601C4B4FF482725A60E6
:103290001A4B00229A60194B0022DA60174B022267
:1032A0001A61164B01225A61144B4FF400729A6155
:1032B000124B0822DA61114B00221A620F4B0022D6
:1032C0005A620E4B00229A620C4B0722DA620B48BC
:1032D00009F04AFF0346002B04D040F2BB11094815
:1032E00000F0C8FA054B1B68044A1268126842F0E5
:1032F00040021A6000BF80BD00040240F0030020BD
:10330000003C00406C61010880B58AB000AF2F4BD3
:103310002F4A1A602D4B0F225A602C4B00229A60C4
:103320002A4B44F62062DA60284B00221A612748B3
:103330000AF00EFB0346002B04D04FF4E871254839
:1033400000F098FA00233B6200237B6207F1200320
:1033500019461E480BF00CFD0346002B04D040F22A
:10336000D7111C4800F086FA60237B6040F2DC53E2
:10337000BB600023FB6000237B6100233B610023D3
:10338000FB610023BB613B1D082219460F480AF070
:1033900091FE0346002B04D040F2E3110D4800F0EB
:1033A00069FA3B1D0C22194608480AF083FE0346C1
:1033B000002B04D04FF4F471064800F05BFA034888
:1033C00005F0BAFD00BF2837BD4680BDB40300201C
:1033D000000400406C61010880B58CB000AF224B46
:1033E000224A1A60204B00225A601F4B00229A602A
:1033F0001D4B4FF0FF32DA601B4B00221A61032392
:10340000FB6000233B6101237B610023BB6104233C
:10341000FB6100233B6201237B620023BB62042328
:10342000FB6207F10C0319460F480AF0B1FB034693
:10343000002B04D04FF401710D4800F01BFA00235B
:103440007B600023BB603B1D194607480BF090FCD6
:103450000346002B04D040F20B21054800F00AFA85
:1034600000BF3037BD4680BD78030020000C00400F
:103470006C61010880B58CB000AF3E4B3E4A1A60CB
:103480003C4B0F225A603B4B00229A60394B4FF65F
:10349000FF72DA60374B00221A61364B00225A6104
:1034A00034480AF029FA0346002B04D040F21F21C9
:1034B000324800F0DFF92F480AF0AAFA0346002B41
:1034C00004D04FF409712D4800F0D4F90423FB61B6
:1034D00060233B6202237B620023FB6207F11C0333
:1034E000194624480AF0ACFE0346002B04D040F2F3
:1034F0002D21224800F0BEF900237B610023BB612F
:1035000007F1140319461B480BF032FC0346002B4D
:1035100004D04FF40D71194800F0ACF900237B6022
:103520000123BB600023FB6000233B613B1D08229D
:10353000194610480AF022FD0346002B04D040F241
:103540003E210E4800F096F902237B600223BB6007
:103550003B1D0C22194607480AF010FD0346002BBC
:1035600004D040F24521054800F084F900BF30370F
:10357000BD4680BDA8040020000001406C61010828
:1035800080B500AF144B154A1A60134B144A5A60A9
:10359000114B4FF480529A600F4B4FF40052DA6097
:1035A0000D4B4FF480621A610B4B04225A610A4B97
:1035B00000229A61084B4FF40042DA6106480BF092
:1035C00031FC0346002B04D040F25A21054800F09C
:1035D00051F900BF80BD00BF480400200010014029
:1035E000A08601006C61010880B500AF124B134A40
:1035F0001A60114B4FF4E1325A600F4B00229A606F
:103600000D4B0022DA600C4B00221A610A4B0C228F
:103610005A61094B00229A61074B0022DA61064881
:103620000BF000FC0346002B04D040F26E2104484E
:1036300000F020F900BF80BD7C070020004400405E
:103640006C61010880B500AF124B134A1A60114B30
:103650004FF416425A600F4B00229A600D4B002225
:10366000DA600C4B00221A610A4B0C225A61094B9A
:1036700000229A61074B0022DA6106480BF0D2FB68
:103680000346002B04D040F27F21044800F0F2F8FA
:1036900000BF80BD34030020004800406C61010879
:1036A00080B500AF144B154A1A60134B144A5A6088
:1036B000114B4FF480529A600F4B4FF40052DA6076
:1036C0000D4B4FF480621A610B4B08225A610A4B72
:1036D00000229A61084B4FF40042DA6106480BF071
:1036E000A1FB0346002B04D040F29321054800F0D3
:1036F000C1F800BF80BD00BFE406002000140140F7
:10370000A08601006C61010880B58AB000AF00237B
:103710003B61324A314B1B6B43F0800313632F4BE9
:103720001B6B03F080033B613B690023FB602B4A6A
:103730002A4B1B6B43F001031363284B1B6B03F0F5
:103740000103FB60FB680023BB60244A234B1B6B17
:1037500043F004031363214B1B6B03F00403BB60B2
:10376000BB6800237B601D4A1C4B1B6B43F00203AC
:1037700013631A4B1B6B03F002037B607B68002210
:103780003821174807F03AFE10237B61154BBB61C7
:103790000023FB6107F114031946134807F098FB57
:1037A00001237B610123BB610023FB6107F114034B
:1037B00019460D4807F08CFB38237B610123BB6160
:1037C0000023FB6100233B6207F114031946044800
:1037D00007F07EFB00BF2837BD4680BD00380240A1
:1037E00000040240000011100008024080B500AF44
:1037F00008210D480AF042F90C210B480AF03EF965
:10380000FFF7BEFE04F09AFB03461922194607484B
:103810000BF058FC01220121054807F0EFFD0120C3
:1038200004F068F800BF80BDA80400204804002010
:103830000008024080B500AF0B480BF041FBFFF7DA
:1038400019FE00220121094807F0D8FD0821084887
:103850000AF03EF90C2106480AF03AF9002004F07B
:1038600049F800BF80BD00BF4804002000080240A6
:10387000A804002080B5ADF5805D82B000AF07F1EF
:103880000803043B186007F10803083B1960144B58
:10389000144AB2F92E20DA6307F10803083B07F156
:1038A0000800022219460DF09DFF07F10803043BB2
:1038B00018680EF045FF0346591C07F10803043B46
:1038C00007F10802901C0A4619680DF08BFF07F1FA
:1038D000080301224FF480511846FFF7ADF8FEE7C8
:1038E00000040040D407002080B400AF00BFBD46F4
:1038F0005DF8047B704700BF80B582B000AF03461F
:103900000A46FB711346BB71BB791946074804F0A0
:1039100097FCFB79064A52F82330BA7911461846CB
:1039200004F012FD00BF0837BD4680BDD064010819
:103930001001002080B584B000AF0346FB71164B28
:103940001B7883F02003DAB2134B1A70124B1B78EA
:1039500083F04F03DAB2104B1A700F4B1B7883F0D1
:103960004B03DAB20C4B1A700B4B1B7807F10800B3
:103970000A4A05210EF05AFEFB791946084804F060
:103980005FFCFA7907F108031146184604F0DCFCE5
:1039900000BF1037BD4680BDA0020020DC640108D6
:1039A000E464010880B582B000AF03460A46FB71AB
:1039B0001346BB71BB791946074804F041FCBA793C
:1039C000FB791146184604F01FFC044AFB7913707A
:1039D00000BF0837BD4680BDEC640108A00200208E
:1039E00080B584B000AF78600B46FB700023FB60AD
:1039F0000CE0FB687A6813441A780D4B1B7853402F
:103A0000DAB20B4B1A70FB680133FB60FB68272BA3
:103A100005DCFB687A6813441B78002BE9D1FB783E
:103A20001946786804F00CFC00BF1037BD4680BD15
:103A3000A002002080B582B000AF03460A46FB71A9
:103A40001346BB71084B1A78FB795340DAB2064B28
:103A50001A70BA79FB791146184604F0D5FB00BFFD
:103A60000837BD4680BD00BFA002002090B59DB0C4
:103A700002AF87ED020B0346FB7107F11400D7E993
:103A80000234CDE90034154A50210EF0CFFD002359
:103A90007B660DE007F114027B6E13441A78104B1D
:103AA0001B785340DAB20E4B1A707B6E01337B6683
:103AB0007B6E272B06DC07F114027B6E13441B7808
:103AC000002BE7D1FA7907F114031146184604F0E8
:103AD000B7FB00BF6C37BD4690BD00BFF064010866
:103AE000A002002090B59BB002AF87ED010A03460B
:103AF000FB7078680DF03EFB03460C4607F10C00A6
:103B0000CDE90034144A50210EF090FD0023FB65EE
:103B10000DE007F10C02FB6D13441A780F4B1B7874
:103B20005340DAB20D4B1A70FB6D0133FB65FB6D30
:103B3000272B06DC07F10C02FB6D13441B78002BCE
:103B4000E7D1FA7807F10C031146184604F078FB28
:103B500000BF6437BD4690BDF8640108A002002094
:103B600080B598B000AF03460A46FB8013467B71D0
:103B7000B7F9063007F10C00144A50210EF056FD3B
:103B80000023FB650DE007F10C02FB6D13441A786E
:103B90000F4B1B785340DAB20D4B1A70FB6D01339B
:103BA000FB65FB6D272B06DC07F10C02FB6D134454
:103BB0001B78002BE7D17A7907F10C0311461846E0
:103BC00004F03EFB00BF6037BD4680BD00650108C4
:103BD000A002002080B584B000AF03460A46FB7106
:103BE0001346BB71FB7907F10800154A03210EF05B
:103BF0001DFD0023FB600DE007F10802FB68134484
:103C00001A78104B1B785340DAB20E4B1A70FB68CF
:103C10000133FB60FB68022B06DC07F10802FB683E
:103C200013441B78002BE7D1BA7907F1080311463A
:103C3000184604F005FB00BF1037BD4680BD00BF2D
:103C400004650108A002002080B598B000AF78603C
:103C50000B46FB7007F10C007B68154A50210EF0F3
:103C6000E5FC0023FB650DE007F10C02FB6D13443E
:103C70001A78104B1B785340DAB20E4B1A70FB6D5A
:103C80000133FB65FB6D272B06DC07F10C02FB6D96
:103C900013441B78002BE7D1FA7807F10C03114687
:103CA000184604F0CDFA00BF6037BD4680BD00BFA6
:103CB0000C650108A002002080B483B000AF034669
:103CC000FB71FB792F2B05D9FB79392B02D8FB79B6
:103CD000303B13E0FB79602B05D9FB79662B02D8CA
:103CE000FB79573B0AE0FB79402B05D9FB79462B42
:103CF00002D8FB79373B01E04FF0FF3318460C3711
:103D0000BD465DF8047B704780B586B000AF0346C2
:103D10003960FB710023FB820023BB8295E0FB8AA4
:103D20005A1CFA821A463B6813441B787B747B7CCE
:103D3000002B00F090804A4B1B78202B09D17B7C14
:103D4000242B02D07B7C212B7FD1454B24221A705F
:103D50007BE07B7C0A2B02D07B7C0D2B27D1BB8A9E
:103D6000002B06D1FB8A013B3A68134400221A70EB
:103D700004E0BB8A3A68134400221A70384B1B785F
:103D80002A2B09D1FA7CBB7C9A4205D0FB791946D3
:103D90000420FFF7B1FD04E0FB793968184600F014
:103DA00063F80023FB742E4B20221A704DE07B7CBD
:103DB0002A2B06D12A4B31221A70FB8A013BBB8287
:103DC00043E0274B1B78312B10D17B7C1846FFF743
:103DD00073FFF860FB68B3F1FF3F36D0FB68DBB2DE
:103DE0001B01BB741E4B32221A702EE01C4B1B7839
:103DF000322B11D17B7C1846FFF75EFFB860BB68A1
:103E0000B3F1FF3F21D0BB68DAB2BB7C1344BB7473
:103E1000134B2A221A7018E0114B1B78242B04D163
:103E2000FA7C7B7C5340FB740FE00D4B1B782A2BF4
:103E300005D1FB7919460520FFF75EFD0CE0FB7903
:103E400019460020FFF758FD06E0FB8AB3F5007F16
:103E5000FFF465AF00E000BF1837BD4680BD00BF6E
:103E60004C0100200000000090B5ADF58D5D83B0E1
:103E700006AF024607F11003083B196007F1100373
:103E8000013B1A7007F11003083B1B685B7807F5CC
:103E90008B5202F11F02137007F58B5303F11F03BE
:103EA0001B78313B472B02F2078601A252F823F020
:103EB000D55B0008B96A0008B96A0008B96A000849
:103EC000B96A0008B96A0008B96A0008B96A000846
:103ED000B96A0008B96A0008B96A0008B96A000836
:103EE000B96A0008B96A0008B96A0008B96A000826
:103EF000B96A00083D560008B96A0008B96A0008A6
:103F0000BD570008B96A0008296300089D620008CF
:103F100019500008B96A0008B96A0008B96A0008AF
:103F2000B96A00089F4C0008B96A0008C369000814
:103F3000B96A0008B96A00086B520008B96A00083B
:103F4000B96A0008896A0008F9440008B96A0008DB
:103F5000B96A0008B96A0008B96A0008B96A0008B5
:103F6000B96A0008B96A0008B96A0008B96A0008A5
:103F7000D13F0008B9520008AD560008B96A0008E0
:103F8000494F0008B96A00087B4100084751000802
:103F90004D45000821650008B96A0008B96A0008A3
:103FA00059510008014B0008B96A0008474200084F
:103FB000B96A0008414E0008B96A0008B96A0008E9
:103FC000B96A0008094300086F4400085955000801
:103FD00007F11003083B1B68981C07F58B5304334B
:103FE00007F58B52C1490EF077FB034607F58B525C
:103FF00002F11C02138007F58B5303F11C03B3F984
:104000000030022B5DD107F58B53D3ED007AF5EE2E
:10401000C07AF1EE10FA4ADD07F58B5303F1040381
:10402000D3ED007AF5EEC07AF1EE10FA3FDD07F538
:104030008B53D3ED007AB7EE007AF4EEC77AF1EE47
:1040400010FA34D507F58B5303F10403D3ED007A4E
:10405000B7EE007AF4EEC77AF1EE10FA27D507F53D
:104060008B53D3ED007A9FEDA27A67EE877AA14B4E
:10407000C3ED0F7A07F58B5303F10403D3ED007AF8
:104080009FED9B7A67EE877A9A4BC3ED117A07F121
:104090001003013B1B7819466120FFF783FC07F1F1
:1040A0001003013B1B781846FFF744FC62E007F160
:1040B0001003013B1B7819460E20FFF71DFC02F090
:1040C00004BD07F58B5303F11C03B3F90030002B3B
:1040D00048DC07F11003013B1B7819466120FFF70C
:1040E00061FC844BD3ED0F7A9FED817AC7EE876A2E
:1040F00007F11003013B1B781846B0EE660AFFF784
:10410000F1FC7C4BD3ED117A9FED797AC7EE876A8B
:1041100007F11003013B1B781846B0EE660AFFF763
:10412000E1FC07F11003013B1B781846FFF702FC86
:1041300007F11003013B1B7819466F4804F080F823
:104140006E4B93F8543007EE903AF8EE677A07F129
:104150001003013B1B781846B0EE670A04F008F91B
:1041600002F0B3BC07F11003013B1B78194607208E
:10417000FFF7C2FB00BF02F0A8BC07F11003083B29
:104180001B68023307F58A5202F11C025C4918468B
:104190000EF0A2FA034607F58B5202F11C021380BF
:1041A00007F58B5303F11C03B3F90030012B2CD11D
:1041B00007F58A5303F11C03D3ED007AF5EEC07ABC
:1041C000F1EE10FA17DD07F58A5303F11C031B68A3
:1041D000484A136207F11003013B1B781946672018
:1041E000FFF7E0FB07F11003013B1B781846FFF7D0
:1041F000A1FB02F06ABC07F11003013B1B781946D2
:104200000E20FFF779FB02F060BC07F11003013BC1
:104210001B7819466720FFF7C5FB364BD3ED087AAC
:1042200007F11003013B1B781846B0EE670AFFF751
:1042300059FC07F11003013B1B781846FFF77AFB86
:1042400000BF02F042BC07F11003013B1B78194686
:104250007020FFF7A7FB2B4BD3ED037AFDEEE77A37
:1042600007F11003013B1B78194617EE900AFFF780
:10427000EBFC244BD3ED047AFDEEE77A07F1100353
:10428000013B1B78194617EE900AFFF7DDFCFDF79E
:10429000B3FB024607F11003013B1B781946104699
:1042A000FFF7D2FCFDF78CFBF0EE407A07F110032C
:1042B000013B1B781846B0EE670AFFF713FCFDF7C9
:1042C00055FBF0EE407A07F11003013B1B781846CE
:1042D000B0EE670AFFF706FC07F11003013B1B78FD
:1042E0001846FFF727FB02F0F0BB00BF146501087A
:1042F0000AD7A33CD40700201C6501083808002019
:104300002C650108BC07002007F11003083B1B685F
:10431000981C07F58A5303F11403043307F58A52F6
:1043200002F1140284490EF0D7F9034607F58B52C7
:1043300002F11C02138007F58B5303F11C03B3F940
:104340000030022B57D107F58A5303F11403D3ED44
:10435000007AF5EEC07AF1EE10FA42DD07F58A53E5
:1043600003F11803D3ED007AF5EEC07AF1EE10FAFE
:1043700037DD07F58A5303F11403D3ED007AB7EE66
:10438000007AF4EEC77AF1EE10FA2AD807F58A53CC
:1043900003F11803D3ED007AB7EE007AF4EEC77A92
:1043A000F1EE10FA1DD507F58A5303F114031B68CB
:1043B000624A136407F58A5303F118031B685F4AC6
:1043C000936407F11003013B1B7819467620FFF731
:1043D000E9FA07F11003013B1B781846FFF7AAFA28
:1043E00042E007F11003013B1B7819460E20FFF74E
:1043F00083FA02F06ABB07F58B5303F11C03B3F990
:104400000030002B28DC07F11003013B1B78194614
:104410007620FFF7C7FA494BD3ED107A07F1100366
:10442000013B1B781846B0EE670AFFF75BFB434B76
:10443000D3ED127A07F11003013B1B781846B0EE5A
:10444000670AFFF74FFB07F11003013B1B78184683
:10445000FFF770FA02F039BB07F11003013B1B783C
:1044600019460720FFF748FA00BF02F02EBB0022D2
:1044700064213248FEF7E0FA07F58B5303F1180385
:104480001860032218212E48FEF7D6FA024607F5D7
:104490008B5303F118031B68134407F58B5202F189
:1044A0001802136007F11003013B1B7819467720AF
:1044B000FFF778FA07F58B5303F118031B68002BFD
:1044C00010D107F11003013B1B7819461D48FFF777
:1044D00087FA07F11003013B1B781846FFF72AFA09
:1044E00002F0F3BA07F11003013B1B7819460820CC
:1044F000FFF702FA02F0E9BA0020FEF7C5FA03203E
:10450000FEF7C2FA07F11003013B1B78194657204A
:10451000FFF748FA07F11003013B1B7819460A48D8
:10452000FFF75EFA07F11003013B1B781846FFF70F
:1045300001FA02F0CABA00BF14650108D4070020CE
:10454000BC070020306501085065010807F1100321
:10455000083B1B68981C07F58A5303F10403991C58
:1045600007F58A5202F1040207F58A5303F10403A6
:104570000E33059307F58A5303F104030C330493B8
:1045800007F58A5303F104030A33039307F58A53AB
:1045900003F104030833029307F58A5303F104037C
:1045A0000633019307F58A5303F1040304330093A0
:1045B0000B46C6490EF090F8034607F58B5202F100
:1045C0001C02138007F58B5303F11C03B3F9003071
:1045D000002B40F3F78107F58A5303F10403B3F985
:1045E0000030002B40F3E48107F58A5303F1040304
:1045F000B3F90030102B00F3DB8107F58A5303F188
:104600000603B3F90030002B40F3D28107F58A533B
:1046100003F10603B3F90030102B00F3C98107F54D
:104620008A5303F10803B3F90030002B40F3C08133
:1046300007F58A5303F10803B3F90030102B00F398
:10464000B78107F58A5303F10403B3F9002007F596
:104650008A5303F10603B3F900309A4200F0A881AF
:1046600007F58A5303F10403B3F9002007F58A53D1
:1046700003F10803B3F900309A4200F0998107F57D
:104680008A5303F10603B3F9002007F58A5303F1B7
:104690000803B3F900309A4200F08A8107F58A5383
:1046A00003F10403B3F90030DBB2013BDAB2884B0B
:1046B0009A7507F11003013B1B7819466920FFF733
:1046C00071F9834B9B7D9BB201339BB21AB207F108
:1046D0001003013B1B7819461046FFF741FA07F516
:1046E0008B5303F11C03B3F90030012B28DD07F5D0
:1046F0008A5303F10603B3F90030002B20DD07F5E0
:104700008A5303F10603B3F90030102B18DC07F5C8
:104710008A5303F10603B3F90030DBB2013BDAB28E
:104720006B4BDA756A4BDB7D9BB201339BB21AB2DD
:1047300007F11003013B1B7819461046FFF710FAEA
:1047400007F58B5303F11C03B3F90030022B28DD6E
:1047500007F58A5303F10803B3F90030002B20DD7D
:1047600007F58A5303F10803B3F90030102B18DC66
:1047700007F58A5303F10803B3F90030DBB2013BBC
:10478000DAB2534B1A76524B1B7E9BB201339BB26B
:104790001AB207F11003013B1B7819461046FFF7C8
:1047A000DFF907F58B5303F11C03B3F90030032B3A
:1047B00028DD07F58A5303F10A03B3F90030002B13
:1047C00020DD07F58A5303F10A03B3F90030102BFB
:1047D00018DC07F58A5303F10A03B3F90030DBB2A2
:1047E000013BDAB23A4B5A76394B5B7E9BB20133CE
:1047F0009BB21AB207F11003013B1B781946104611
:10480000FFF7AEF907F58B5303F11C03B3F9003042
:10481000042B28DD07F58A5303F10C03B3F90030AC
:10482000002B20DD07F58A5303F10C03B3F90030A8
:10483000102B18DC07F58A5303F10C03B3F9003091
:10484000DBB2013BDAB2224B9A76214B9B7E9BB2C4
:1048500001339BB21AB207F11003013B1B781946D2
:104860001046FFF77DF907F58B5303F11C03B3F9ED
:104870000030052B2EDD07F58A5303F10E03B3F943
:104880000030002B26DD07F58A5303F10E03B3F940
:104890000030102B1EDC07F58A5303F10E03B3F929
:1048A0000030DBB2013BDAB2094BDA76084BDB7E33
:1048B0009BB201339BB21AB207F11003013B1B7884
:1048C00019461046FFF74CF904E000BF6065010887
:1048D000D407002007F58B5303F11C03B3F9003014
:1048E000062B2ADD07F58A5303F11003B3F90030D4
:1048F000002B22DD07F58A5303F11003B3F90030D2
:10490000102B1ADC07F58A5303F11003B3F90030BA
:10491000DBB2013BDAB2BD4B83F85220BB4B93F8BC
:1049200052309BB201339BB21AB207F11003013B24
:104930001B7819461046FFF713F907F58B5303F15F
:104940001C03B3F90030072B2ADD07F58A5303F166
:104950001203B3F90030002B22DD07F58A5303F16F
:104960001203B3F90030102B1ADC07F58A5303F158
:104970001203B3F90030DBB2013BDAB2A34B83F888
:104980005620A24B93F856309BB201339BB21AB219
:1049900007F11003013B1B7819461046FFF7E0F8BA
:1049A00007F11003013B1B781846FEF7C3FFA4E094
:1049B00007F11003013B1B7819460E20FEF79CFF00
:1049C00002F083B807F58B5303F11C03B3F90030F1
:1049D000002B00F38A8007F11003013B1B78194676
:1049E0006920FEF7DFFF894B9B7D9BB201339BB2B1
:1049F0001AB207F11003013B1B7819461046FFF766
:104A0000AFF8824BDB7D9BB201339BB21AB207F148
:104A10001003013B1B7819461046FFF7A1F87B4BAA
:104A20001B7E9BB201339BB21AB207F11003013B0C
:104A30001B7819461046FFF793F8744B5B7E9BB2C8
:104A400001339BB21AB207F11003013B1B781946E0
:104A50001046FFF785F86D4B9B7E9BB201339BB2EE
:104A60001AB207F11003013B1B7819461046FFF7F5
:104A700077F8664BDB7E9BB201339BB21AB207F12B
:104A80001003013B1B7819461046FFF769F85F4B8E
:104A900093F852309BB201339BB21AB207F1100364
:104AA000013B1B7819461046FFF75AF8574B93F80D
:104AB00056309BB201339BB21AB207F11003013B8F
:104AC0001B7819461046FFF74BF807F11003013B1E
:104AD0001B781846FEF72EFF07F11003013B1B78E9
:104AE000184602F0A1FD01F0F0BF07F11003013BF1
:104AF0001B7819460720FEF7FFFE00BF01F0E5BF57
:104B000007F11003083B1B68981C07F5895303F154
:104B10001C03991C07F5895202F11C0207F5895301
:104B200003F11C03043300930B4639490DF0D4FD07
:104B3000034607F58B5202F11C02138007F58B53D5
:104B400003F11C03B3F90030032B63D107F589533C
:104B500003F11C03B3F90030B3F5FA7F4CDD07F520
:104B6000895303F11C03B3F90030B3F5FA6F43DA4C
:104B700007F5895303F11E03B3F90030002B3BDD29
:104B800007F5895303F11E03B3F90030632B33DCBF
:104B900007F58A53B3F90030B3F5967F2CDD07F59E
:104BA0008A53B3F90030B3F5AF6F25DA07F110037C
:104BB000013B1B7819466E20FEF7F4FE07F589537A
:104BC00003F11C03B3F90020104B1A8207F5895337
:104BD00003F11E03B3F900200C4B5A8207F58A53E8
:104BE000B3F90020094B9A8207F11003013B1B78AF
:104BF0001846FEF79FFE4FE007F11003013B1B78BC
:104C000019460E20FEF778FE01F05FBFD4070020A2
:104C10008065010807F58B5303F11C03B3F90030DD
:104C2000002B31DC07F11003013B1B7819466E2085
:104C3000FEF7B8FEC14BB3F9102007F11003013B9A
:104C40001B7819461046FEF78BFFBC4BB3F91220B8
:104C500007F11003013B1B7819461046FEF780FF51
:104C6000B64BB3F9142007F11003013B1B7819462A
:104C70001046FEF775FF07F11003013B1B7818463D
:104C8000FEF758FE01F021BF07F11003013B1B782E
:104C900019460720FEF730FE00BF01F016BF07F1EE
:104CA0001003083B1B68981C07F5895303F1140394
:104CB000991C07F5895202F1140207F5895303F193
:104CC0001403043300930B469D490DF005FD034684
:104CD00007F58B5202F11C02138007F58B5303F189
:104CE0001C03B3F90030032B65D107F5895303F199
:104CF0001403B3F90030B3F5FA7F52DD07F5895399
:104D000003F11403B3F90030B3F5FA6F49DA07F58C
:104D1000895303F11603B3F90030002B41DD07F589
:104D2000895303F11603B3F90030632B39DC07F51F
:104D3000895303F11803B3F90030B3F5967F30DDE2
:104D400007F5895303F11803B3F90030B3F5617F18
:104D500027DA07F11003013B1B7819464E20FEF7B6
:104D600021FE07F5895303F11403B3F90020734BB7
:104D7000DA8507F5895303F11603B3F900206F4B69
:104D80001A8607F5895303F11803B3F900206B4B1A
:104D90005A8607F11003013B1B781846FEF7CAFD3F
:104DA0004BE007F11003013B1B7819460E20FEF77C
:104DB000A3FD01F08ABE07F58B5303F11C03B3F981
:104DC0000030002B31DC07F11003013B1B78194642
:104DD0004E20FEF7E7FD594BB3F92E2007F11003E3
:104DE000013B1B7819461046FEF7BAFE534BB3F948
:104DF000302007F11003013B1B7819461046FEF7DF
:104E0000AFFE4E4BB3F9322007F11003013B1B7884
:104E100019461046FEF7A4FE07F11003013B1B786C
:104E20001846FEF787FD01F050BE07F11003013B65
:104E30001B7819460720FEF75FFD00BF01F045BE55
:104E400007F11003083B1B68023307F5895202F192
:104E500012023C4918460DF03FFC034607F58B5201
:104E600002F11C02138007F58B5303F11C03B3F905
:104E70000030012B3FD107F5895303F11203B3F939
:104E80000030012B10D007F5895303F11203B3F959
:104E90000030B3F1FF3F07D007F5895303F1120348
:104EA000B3F90030002B1CD107F11003013B1B7834
:104EB00019467220FEF776FD07F5895303F11203B8
:104EC000B3F9003007EE903AF8EEE77A1B4BC3EDEA
:104ED000037A07F11003013B1B781846FEF72AFD01
:104EE00029E007F11003013B1B7819460A20FEF761
:104EF00003FD01F0EABD07F11003013B1B781946E1
:104F00007220FEF74FFD0D4BD3ED037AFDEEE77AED
:104F1000C7ED017ABB881AB207F11003013B1B7879
:104F200019461046FEF71CFE07F11003013B1B78E3
:104F30001846FEF7FFFC00BF01F0C7BDD4070020F4
:104F4000806501088C65010807F11003083B1B68A8
:104F5000023307F5895202F10C02D04918460DF0D0
:104F6000BBFB034607F58B5202F11C02138007F5C9
:104F70008B5303F11C03B3F90030012B30D107F53B
:104F8000895303F10C031B68B3F5FA7F1EDD07F5A7
:104F9000895303F10C031B68C14A934216DC07F1E5
:104FA0001003013B1B7819466520FEF7FBFC07F553
:104FB000895303F10C031B68BA4A536307F11003CA
:104FC000013B1B781846FEF7B5FC22E007F1100301
:104FD000013B1B7819460E20FEF78EFC01F075BDD3
:104FE00007F11003013B1B7819466520FEF7DAFC38
:104FF000AC4B5A6B07F11003013B1B781946104666
:10500000FEF722FE07F11003013B1B781846FEF75E
:1050100091FC00BF01F059BD07F11003083B1B686C
:10502000023307F5895202F10A029F4918460DF032
:1050300053FB034607F58B5202F11C02138007F560
:105040008B5303F11C03B3F90030012B47D107F553
:10505000895303F10A03B3F90030002B16D107F18D
:105060001003013B1B7819464920FEF79BFC8D4B32
:10507000002283F82C20FEF7DDFB07F11003013B33
:105080001B781846FEF756FC01F01FBD07F5895343
:1050900003F10A03B3F90030012B16D107F1100315
:1050A000013B1B7819464920FEF77CFC7D4B012211
:1050B00083F82C20FEF79AFB07F11003013B1B78C5
:1050C0001846FEF737FC01F000BD07F11003013B65
:1050D0001B7819460E20FEF70FFC01F0F6BC07F115
:1050E0001003013B1B7819464920FEF75BFC6D4B12
:1050F00093F82C301AB207F11003013B1B781946C4
:105100001046FEF72DFD674B93F82C30002B08D18D
:1051100007F11003013B1B7819466448FEF760FC59
:1051200007E007F11003013B1B7819466048FEF7C2
:1051300057FC07F11003013B1B781846FEF7FAFBFA
:1051400000BF01F0C2BC07F11003013B1B781846F9
:1051500001F014FF01F0B9BC07F11003083B1B6814
:10516000023307F5895202F108024F4918460DF043
:10517000B3FA034607F58B5202F11C02138007F5C0
:105180008B5303F11C03B3F90030012B3AD107F51F
:10519000895303F10803B3F90030022B0FD007F550
:1051A000895303F10803B3F90030032B07D007F547
:1051B000895303F10803B3F90030012B18D107F12B
:1051C0001003013B1B7819466D20FEF7EBFB07F53A
:1051D000895303F10803B3F90030DAB2314B1A777F
:1051E00007F11003013B1B781846FEF7A3FB39E0DB
:1051F00007F11003013B1B7819460B20FEF77CFBDF
:1052000001F063BC07F11003013B1B7819466D20C8
:10521000FEF7C8FB234B1B7F1AB207F11003013BBB
:105220001B7819461046FEF79BFC07F11003013B63
:105230001B7819461F48FEF7D3FB1A4B1B7F1846F5
:1052400002F0D0F9024607F11003013B1B78194622
:105250001046FEF7C5FB07F11003013B1B7818460B
:10526000FEF768FB00BF01F030BC07F11003013B03
:105270001B7819465320FEF795FB07F11003013BFD
:105280001B781846FEF756FB07F11003013B1B780D
:10529000184601F07FFF01F018BC00BF90650108BF
:1052A000A0860100D40700208C65010894650108E0
:1052B000B4650108D065010807F11003083B1868C0
:1052C0000DF03EFA03460A2B40F2FA80022307F55E
:1052D0008C5202F10E02138007F58873103B07F51C
:1052E0008B5202F1140213600AE007F58C5303F1AC
:1052F0000E031B88013307F58C5202F10E02138056
:1053000007F58C5303F10E031C8807F11003083BCB
:1053100018680DF015FA03469C4214D207F58C5319
:1053200003F10E031B88B3F5FF7F0CD807F58C53F0
:1053300003F10E031A8807F11003083B1B6813449E
:105340001B78202BD1D0002307F58C5202F10C02E0
:1053500013807AE007F58C5303F10E031B885A1C67
:1053600007F58C5101F10E010A801A4607F110036E
:10537000083B1B6813441B781846FEF79DFC07F595
:105380008B5303F11003186007F58C5303F10E03E0
:105390001B885A1C07F58C5101F10E010A801A4630
:1053A00007F11003083B1B6813441B781846FEF7EF
:1053B00083FC07F58B5303F10C03186007F58B533F
:1053C00003F110031B68B3F1FF3F34D007F58B5393
:1053D00003F10C031B68B3F1FF3F2CD007F58B538F
:1053E00003F110031B68DBB21B01DAB207F58B5324
:1053F00003F10C031B68DBB2134407F58B5202F177
:105400000B02137007F58C5303F10C031B885A1C15
:1054100007F58C5101F10C010A801A4607F58B53F0
:1054200003F114031B68134407F58B5202F10B02BE
:1054300012781A7009E007F11003013B1B78194636
:105440000E20FEF759FA01F040BB07F58C5303F12B
:105450000E031C8807F11003083B18680DF070F963
:105460000346013B9C420FD207F58C5303F10E0318
:105470001B88B3F5FF7F07D807F58C5303F10C03A6
:105480001B88632B7FF666AF07F58C5303F10C0383
:105490001B88632B0AD807F11003013B1B781946C0
:1054A0000E20FEF729FA00BF01F00FBBBF4A07F537
:1054B0008873103B1046194664231A460CF092F983
:1054C00007F11003013B1B7819466220FEF76AFAC8
:1054D00007F11003013B1B7819462020FEF7AAFABA
:1054E000B24B07F58B5202F114021360002307F54B
:1054F0008C5202F1080213601EE007F58B5303F192
:1055000014031A6807F58C5303F108031B6813444E
:105510001A7807F11003013B1B7819461046FEF775
:1055200059FB07F58C5303F108031B68013307F59A
:105530008C5202F10802136007F58C5303F1080343
:105540001B68632BD9D907F11003013B1B78184660
:10555000FEF7F0F901F0B9BA07F11003083B1B6838
:10556000023307F5895202F10402914918460DF001
:10557000B3F8034607F58B5202F11C02138007F5BE
:105580008B5303F11C03B3F90030012B39D107F51C
:10559000895303F10403D3ED007AF5EEC07AF1EEFE
:1055A00010FA24DD07F5895303F10403D3ED007AE3
:1055B000B7EE007AF4EEC77AF1EE10FA17D807F5D5
:1055C000895303F104031B68784A936307F11003BE
:1055D000013B1B7819467820FEF7E4F907F1100328
:1055E000013B1B781846FEF7A5F901F06EBA07F1EA
:1055F0001003013B1B7819460E20FEF77DF901F0E0
:1056000064BA07F11003013B1B7819467820FEF7B6
:10561000C9F9664BD3ED0E7A07F11003013B1B78F5
:105620001846B0EE670AFEF75DFA07F11003013B7A
:105630001B781846FEF77EF901F047BA07F1100310
:10564000013B1B78012B27D107F11003013B1B788D
:1056500019464220FEF7A6F907F11003013B1B781B
:1056600019465448FEF7BCF9FBF7A8FF0346012B87
:1056700008D107F11003013B1B781846FEF75AF9D1
:1056800001F023BA07F11003013B1B7819460C20E7
:10569000FEF732F901F019BA07F11003013B1B784C
:1056A00019460D20FEF728F901F00FBA07F1100393
:1056B000083B1B68981C07F58953023307F589528C
:1056C0003D490DF009F8034607F58B5202F11C0223
:1056D000138007F58B5303F11C03B3F90030032B40
:1056E0003CD107F58953B3F90030002B2CDB07F5CB
:1056F000895303F10203B3F90030002B24DB2B4B59
:105700000022A3F84E2007F58953B3F90020274B58
:10571000A3F84C2007F5895303F10203B3F90020E5
:10572000224BA3F8502007F11003013B1B781946C8
:105730006320FEF737F907F11003013B1B78184689
:10574000FEF7F8F801F0C1B907F11003013B1B782F
:1057500019460E20FEF7D0F801F0B7B907F1100393
:10576000013B1B7819466320FEF71CF90F4BB3F978
:105770004C2007F11003013B1B7819461046FEF739
:10578000EFF90A4BB3F9502007F11003013B1B78E6
:1057900019461046FEF7E4F907F11003013B1B78A8
:1057A0001846FEF7C7F801F090B900BFD4070020F3
:1057B0002C650108D4650108EC65010807F11003A8
:1057C000013B1B7819464520FEF7ECF807F1100362
:1057D000013B1B781946D648FEF702F9D54B1B88CA
:1057E0009BB2B2EE040A184604F0B8FEF0EE407A1E
:1057F00007F11003013B1B781846B0EE670AFEF76D
:1058000071F907F11003013B1B781946CA48FEF7EE
:10581000E7F8C84B5B889BB2B2EE040A184604F066
:105820009DFEF0EE407A07F11003013B1B7818460D
:10583000B0EE670AFEF756F907F11003013B1B783B
:105840001946BE48FEF7CCF8BA4B5B689FEDB20B29
:10585000184604F0A5FEB0EE407AF0EE607A07F14B
:105860001003013B1B781846B0EE470AF0EE670ABA
:10587000FEF7FCF807F11003013B1B781946B0480E
:10588000FEF7AEF8AB4B9B689FEDA30B184604F0F8
:1058900087FEB0EE407AF0EE607A07F11003013B2C
:1058A0001B781846B0EE470AF0EE670AFEF7DEF8FE
:1058B00007F11003013B1B781946A248FEF790F848
:1058C0009C4B9B8A9BB29FEDA00A184604F046FEB3
:1058D000F0EE407A07F11003013B1B781846B0EE5A
:1058E000670AFEF7FFF807F11003013B1B78194622
:1058F0009648FEF775F88F4BD3F81630184604F02B
:105900006DFE024607F11003013B1B781946104655
:10591000FEF79AF907F11003013B1B7819468C48F2
:10592000FEF75EF8834B5B8B9BB2B2EE040A18461F
:1059300004F014FEF0EE407A07F11003013B1B78EF
:105940001846B0EE670AFEF7CDF807F11003013BE9
:105950001B7819467F48FEF743F8764BDB699FEDCD
:10596000700B184604F01CFEB0EE407AF0EE607A40
:1059700007F11003013B1B781846B0EE470AF0EE22
:10598000670AFEF773F807F11003013B1B7819460D
:105990007148FEF725F8674B1B6A9FED610B1846AF
:1059A00004F0FEFDB0EE407AF0EE607A07F11003ED
:1059B000013B1B781846B0EE470AF0EE670AFEF787
:1059C00055F807F11003013B1B7819466348FEF7B1
:1059D00007F8584B5B6A9FED540B184604F0E0FD46
:1059E000B0EE407AF0EE607A07F11003013B1B78CD
:1059F0001846B0EE470AF0EE670AFEF737F807F1EF
:105A00001003013B1B7819465548FDF7E9FF494B48
:105A10009B6A9FED450B184604F0C2FDB0EE407A3C
:105A2000F0EE607A07F11003013B1B781846B0EEE8
:105A3000470AF0EE670AFEF719F807F11003013B79
:105A40001B7819464748FDF7CBFF3A4BDB6A1846EF
:105A500004F0C4FD024607F11003013B1B78194610
:105A60001046FEF7F1F807F11003013B1B781946C9
:105A70003D48FDF7B5FF2F4B1B6B184604F0AEFDFC
:105A8000024607F11003013B1B7819461046FEF74A
:105A9000DBF807F11003013B1B7819463348FDF78B
:105AA0009FFF244B93F83430062B00F2848001A230
:105AB00052F823F0D15A0008E35A0008F55A0008BA
:105AC000075B0008815B0008935B0008A55B00088A
:105AD00007F11003013B1B7819462548FDF780FFAD
