:020000040800F2
:1000000000000220A96E00085974000869740008F5
:100010007D74000891740008A574000800000000B9
:10002000000000000000000000000000B97400089B
:10003000C974000800000000D9740008E9740008C1
:10004000036F0008056F0008076F0008096F0008BC
:100050000B6F00080D6F00080F6F0008116F00088C
:10006000136F0008156F0008176F0008196F00085C
:100070001B6F00081D6F00081F6F0008216F00082C
:10008000236F0008256F0008276F0008296F0008FC
:100090002B6F00082D6F00082F6F0008316F0008CC
:1000A000336F0008356F0008376F00084975000886
:1000B0003B6F00083D6F00083F6F0008416F00086C
:1000C000436F0008456F0008476F0008496F00083C
:1000D0004B6F0008F97400080D75000821750008C1
:1000E000536F0008556F0008576F0008596F0008DC
:1000F0005B6F00085D6F00085F6F0008616F0008AC
:10010000636F0008656F00085D750008696F00087F
:100110006B6F00086D6F00086F6F0008716F00084B
:10012000736F0008756F0008776F0008796F00081B
:100130007B6F00087D6F00087F6F0008816F0008EB
:10014000836F0008856F0008876F00083575000809
:100150008B6F00088D6F00088F6F0008916F00088B
:10016000936F0008956F0008976F0008996F00085B
:100170009B6F00089D6F00089F6F0008A16F00082B
:10018000A36F0008A56F000810B5054C237833B99C
:10019000044B13B10448AFF300800123237010BD5A
:1001A00044020020000000003C5E0108084B10B52E
:1001B0001BB108490848AFF300800848036803B939
:1001C00010BD074B002BFBD0BDE81040184700BF07
:1001D00000000000480200203C5E010844020020AC
:1001E00000000000154B002B08BF134B9D46A3F5E4
:1001F000803A00218B460F461348144A121A0FF01A
:10020000ECF90F4B002B00D098470E4B002B00D081
:1002100098470020002104000D000D48002802D05E
:100220000C48AFF300800FF097F92000290002F08E
:100230002BFA0FF07DF900BF00000800000002203B
:100240000000000000000000440200200C99002083
:10025000000000000000000080B584B000AF7860AE
:100260000B46FB700023FB737B681B7C002B0ED1BD
:100270004FF4007302228121786807F0E9FF4FF400
:10028000007302220121786807F0E2FF0BE04023AF
:1002900002228121786807F0DBFF4023022201213E
:1002A000786807F0D5FF082303228221786807F0D9
:1002B000CFFF4FF407700FF075F903461A467B68BD
:1002C000C3F818227B68D3F81832002B02D101231F
:1002D000FB7326E07B68D3F81832BB607B68D3F8E9
:1002E0001C321B689847BB680022C3F81422BB6805
:1002F0000022C3F818227B681B7C002B09D1BB6845
:10030000D3F804224FF400730121786808F01CF937
:1003100007E0BB68D3F8042240230121786808F085
:1003200013F9FB7B18461037BD4680BD80B584B0FD
:1003300000AF78600B46FB700023FB738121786867
:1003400007F0C4FF0121786807F0C0FF82217868B8
:1003500007F0BCFF7B68D3F81832002B0ED07B6807
:10036000D3F81C325B6898477B68D3F8183218467C
:100370000FF020F97B680022C3F81822FB7B184697
:100380001037BD4680BD00BF80B584B000AF786037
:1003900039607B68D3F81832FB603B681B7803F048
:1003A0006003002B3AD0202B00D043E03B68DB8871
:1003B000002B29D03B681B785BB2002B11DA7B68DD
:1003C000D3F81C329B683A685078F9683A68D2884A
:1003D0009847F9683B68DB881A46786801F068F846
:1003E00029E03B685A78FB6883F800223B68DB8889
:1003F000DAB2FB6883F80122F9683B68DB881A46A9
:10040000786801F083F816E07B68D3F81C329B68AB
:100410003A6850780022396898470CE03B685B786E
:100420000A2B01D00B2B05E001220549786801F069
:100430003FF800BF00BF002318461037BD4680BDFF
:100440006002002080B485B000AF78600B46FB707E
:100450007B68D3F81832FB607B68D3F81832002B26
:1004600005D0FB680022C3F81422002300E0022319
:1004700018461437BD465DF8047B704780B584B0DC
:1004800000AF78600B46FB707B68D3F81832FB60D6
:10049000FB781946786808F091F80246FB68C3F8C3
:1004A0000C227B68D3F81832002B0DD07B68D3F870
:1004B0001C32DB68FA68D2F80402FA6802F50372AB
:1004C00011469847002300E0022318461037BD4626
:1004D00080BD00BF80B584B000AF78607B68D3F882
:1004E0001832FB607B68D3F81C32002B15D0FB68F8
:1004F00093F80032FF2B10D07B68D3F81C329B6836
:10050000FA6892F80002F968FA6892F8012292B249
:100510009847FB68FF2283F8002200231846103713
:10052000BD4680BD80B483B000AF78607B68432255
:100530001A80034B18460C37BD465DF8047B7047A4
:100540008800002080B483B000AF78607B684322CD
:100550001A80034B18460C37BD465DF8047B704784
:100560004400002080B483B000AF78607B684322F1
:100570001A80034B18460C37BD465DF8047B704764
:10058000CC00002080B483B000AF78607B680A2282
:100590001A80034B18460C37BD465DF8047B704744
:1005A0000000002080B485B000AF7860396002237D
:1005B000FB733B68002B05D07B683A68C3F81C22AC
:1005C0000023FB73FB7B18461437BD465DF8047BA4
:1005D000704700BF80B487B000AFF860B9601346C1
:1005E000FB80FB68D3F818327B617B69BA68C3F87B
:1005F0000822FA887B69C3F81022002318461C37AA
:10060000BD465DF8047B704780B485B000AF78606C
:1006100039607B68D3F81832FB60FB683A68C3F82E
:100620000422002318461437BD465DF8047B70474A
:1006300080B584B000AF78607B68D3F81832FB6077
:100640007B68D3F81832002B17D0FB68D3F814322C
:10065000002B10D1FB680122C3F81422FB68D3F8E9
:100660000822FB68D3F810329BB28121786807F02A
:1006700031FF002302E0012300E002231846103777
:10068000BD4680BD80B584B000AF78607B68D3F88C
:100690001832FB607B68D3F81832002B17D07B68C8
:1006A0001B7C002B09D1FB68D3F804224FF40073A4
:1006B0000121786807F048FF07E0FB68D3F80422BF
:1006C00040230121786807F03FFF002300E0022368
:1006D00018461037BD4680BD80B584B000AFF860C5
:1006E000B9601346FB71FB68002B01D102231AE0AD
:1006F000FB68D3F81432002B03D0FB680022C3F848
:100700001422BB68002B03D0FB68BA68C3F8102220
:10071000FB68012283F8FC21FB68FA791A70F868FB
:1007200007F010FD002318461037BD4680BD00BFFE
:1007300080B485B000AF786039600023FB733B68FC
:10074000002B06D07B683A68C3F814220023FB73A1
:1007500001E00223FB73FB7B18461437BD465DF8AE
:10076000047B704780B582B000AF7860786807F08E
:100770003DFD002318460837BD4680BD80B483B0D8
:1007800000AF7860002318460C37BD465DF8047B47
:10079000704700BF80B584B000AF78600B46FB7037
:1007A0000223FB737B68D3F81432002B0CD07B68D8
:1007B000D3F814321B68FA781146786898470346D4
:1007C000002B01D10023FB73FB7B18461037BD467D
:1007D00080BD00BF80B582B000AF78600B46FB7073
:1007E0007B68D3F814325B68FA78114678689847CA
:1007F000002318460837BD4680BD00BF80B582B0D3
:1008000000AF786039607B6803F502733968184679
:1008100000F0A2FD7B680122C3F8F4217B68B3F8E5
:100820000E321A467B68C3F8F8217B6893F80832C9
:1008300003F01F03012B0BD0022B11D0002B17D17B
:100840007B6803F502731946786800F0CFF91AE067
:100850007B6803F502731946786800F017FA12E016
:100860007B6803F502731946786800F043FA0AE0E2
:100870007B6893F8083223F07F03DBB2194678686F
:1008800007F05AFD00BF002318460837BD4680BD5B
:1008900080B586B000AFF8600B467A60FB72FB7AD9
:1008A000002B38D1FB6803F582737B61FB68D3F8BA
:1008B000F431032B42D17B699A687B69DB689A42E9
:1008C00014D97B699A687B69DB68D21A7B699A6064
:1008D0007B69DA687B699B68934228BF13469BB2A9
:1008E0001A467968F86800F02FFE27E0FB68D3F815
:1008F00014321B69002B0AD0FB6893F8FC31032BE0
:1009000005D1FB68D3F814321B69F8689847F8687A
:1009100000F02CFE12E0FB68D3F814329B69002B28
:100920000CD0FB6893F8FC31032B07D1FB68D3F89C
:1009300014329B69FA7A1146F868984700231846E2
:100940001837BD4680BD00BF80B586B000AFF860E7
:100950000B467A60FB72FB7A002B6CD1FB68143378
:100960007B61FB68D3F8F431022B57D17B699A681D
:100970007B69DB689A4215D97B699A687B69DB6879
:10098000D21A7B699A607B699B689BB21A46796828
:10099000F86800F0A9FD002300220021F86807F0A4
:1009A000D3FD3BE07B695B687A69D268B3FBF2F107
:1009B00002FB01F29B1A002B1CD17B695A687B69F0
:1009C000DB689A4216D37B695A68FB68D3F8F83122
:1009D0009A420FD200220021F86800F085FDFB68E2
:1009E0000022C3F8F821002300220021F86807F054
:1009F000ABFD13E0FB68D3F81432DB68002B0AD0A0
:100A0000FB6893F8FC31032B05D1FB68D3F8143253
:100A1000DB68F8689847F86800F0BCFDFB6893F85D
:100A20000032012B1AD1F868FFF7A8FEFB680022FC
:100A300083F8002212E0FB68D3F814325B69002BC4
:100A40000CD0FB6893F8FC31032B07D1FB68D3F87B
:100A500014325B69FA7A1146F86898470023184601
:100A60001837BD4680BD00BF80B582B000AF78604A
:100A7000402300220021786807F0EAFB7B684022CF
:100A8000C3F81021402300228021786807F0E0FBA2
:100A90007B6840221A627B68012283F8FC217B6814
:100AA000D3F81832002B09D07B68D3F814325B6876
:100AB0007A685268D2B2114678689847002318467F
:100AC0000837BD4680BD00BF80B483B000AF7860FA
:100AD0000B46FB707B68FA781A74002318460C37B3
:100AE000BD465DF8047B704780B483B000AF78608A
:100AF0007B6893F8FC217B6883F8FD217B680422E6
:100B000083F8FC21002318460C37BD465DF8047BB2
:100B1000704700BF80B483B000AF78607B6893F803
:100B2000FD217B6883F8FC21002318460C37BD4665
:100B30005DF8047B704700BF80B582B000AF78607D
:100B40007B6893F8FC31032B0BD17B68D3F814320C
:100B5000DB69002B05D07B68D3F81432DB69786839
:100B60009847002318460837BD4680BD80B483B03F
:100B700000AF78600B46FB70002318460C37BD466B
:100B80005DF8047B704700BF80B483B000AF78602D
:100B90000B46FB70002318460C37BD465DF8047BFE
:100BA000704700BF80B483B000AF78600023184660
:100BB0000C37BD465DF8047B704700BF80B582B03E
:100BC00000AF78607B68012283F8FC217B68D3F852
:100BD00014325B687A685268D2B2114678689847D6
:100BE000002318460837BD4680BD00BF80B584B0DD
:100BF00000AF786039600023FB733B685B78092B9A
:100C000039D801A252F823F0590C00086D0C0008E5
:100C1000770C0008630C0008770C00083B0C0008F8
:100C2000310C0008770C00084F0C0008450C000838
:100C30003968786800F036F922E03968786800F0A1
:100C400025FA1DE03968786800F05EFA18E0396826
:100C5000786800F0E1FA13E03968786800F00EFB7C
:100C60000EE03968786800F033FB09E0396878688D
:100C700000F04AFB04E03968786800F0ABFB00BF85
:100C8000FB7B18461037BD4680BD00BF80B584B0E1
:100C900000AF786039600023FB737B6893F8FC3108
:100CA000032B1BD13B689B88DBB2012B11D87B68DF
:100CB000D3F814329B683968786898473B68DB88BA
:100CC000002B10D1FB7B002B0DD1786800F04EFC7F
:100CD00009E03968786800F07DFB04E039687868DD
:100CE00000F078FB00E000BF002318461037BD4637
:100CF00080BD00BF80B584B000AF7860396000234C
:100D0000FB733B689B88BB733B681B7803F06003F5
:100D1000202B08D17B68D3F814329B683968786837
:100D200098470023BAE03B685B78012B39D0032B4E
:100D300002D0002B6BD0B0E07B6893F8FC31022B23
:100D400002D0032B0CD025E0BB7B002B27D0BB7B34
:100D5000802B24D0BB7B1946786807F0EDFA1EE0A3
:100D60003B685B88002B0AD1BB7B002B07D0BB7B89
:100D7000802B04D0BB7B1946786807F0DDFA7B68CE
:100D8000D3F814329B68396878689847786800F01F
:100D9000EDFB05E03968786800F01CFB00E000BF5F
:100DA0007BE07B6893F8FC31022B02D0032B0CD044
:100DB00024E0BB7B002B26D0BB7B802B23D0BB7BCE
:100DC0001946786807F0B8FA1DE03B685B88002B8D
:100DD0001BD1BB7B03F07F03002B0BD0BB7B1946E1
:100DE000786807F0DFFA7B68D3F814329B683968BB
:100DF00078689847786800F0B9FB06E03968786849
:100E000000F0E8FA02E000BF47E000BF45E07B6881
:100E100093F8FC31022B02D0032B0BD036E0BB7BC6
:100E200003F07F03002B36D0BB7B1946786807F0B0
:100E300083FA30E097F90E30002B08DABB7B03F021
:100E40007F0301331B017A681344043307E0BB7B43
:100E500003F07F0310331B017A6813440433BB6033
:100E6000BB7B1946786807F0D3FA0346002B03D002
:100E7000BB6801221A6002E0BB6800221A60BB68EE
:100E800002221946786800F013FB05E0396878689B
:100E900000F0A0FA00E000BF00BFFB7B184610374F
:100EA000BD4680BD80B584B000AF786039603B68D6
:100EB0005B881B0A9BB2013B062B00F2C98001A292
:100EC00052F823F0E10E0008F90E0008390F00086F
:100ED0005110000851100008FD0F000823100008F1
:100EE0007B68D3F810321B687A68127C07F10A011C
:100EF00010469847F860B0E07B681B7C002B0DD152
:100F00007B68D3F814329B6A07F10A0210469847AF
:100F1000F860FB68013302221A709EE07B68D3F808
:100F20001432DB6A07F10A0210469847F860FB6842
:100F3000013302221A7090E03B685B88DBB2052B1C
:100F400056D801A252F823F0610F0008790F00086B
:100F5000910F0008A90F0008C10F0008D90F000861
:100F60007B68D3F810325B687A68127C07F10A015B
:100F700010469847F86040E07B68D3F810329B68D1
:100F80007A68127C07F10A0110469847F86034E04D
:100F90007B68D3F81032DB687A68127C07F10A01AB
:100FA00010469847F86028E07B68D3F810321B6938
:100FB0007A68127C07F10A0110469847F8601CE035
:100FC0007B68D3F810325B697A68127C07F10A01FA
:100FD00010469847F86010E07B68D3F810329B69A0
:100FE0007A68127C07F10A0110469847F86004E01D
:100FF0003968786800F0EEF944E02EE07B681B7CED
:10100000002B09D17B68D3F814325B6B07F10A021D
:1010100010469847F86020E03968786800F0DAF9FF
:1010200030E07B681B7C002B0DD17B68D3F8143239
:101030001B6B07F10A0210469847F860FB68013302
:1010400007221A7009E03968786800F0C3F919E0DE
:101050003968786800F0BEF914E07B89002B11D064
:101060003B68DB88002B0DD03B68DA887B89934294
:1010700028BF13469BB27B817B891A46F968786842
:1010800000F016FA1037BD4680BD00BF80B584B0B1
:1010900000AF786039603B689B88002B2CD13B689F
:1010A000DB88002B28D13B685B88DBB203F07F0331
:1010B000FB737B6893F8FC31032B04D139687868A3
:1010C00000F088F91CE07B68FA7B83F8FE21FB7B4B
:1010D0001946786807F0C8F9786800F047FAFB7B92
:1010E000002B04D07B68022283F8FC2108E07B6897
:1010F000012283F8FC2103E03968786800F06AF97E
:1011000000BF1037BD4680BD80B582B000AF7860AB
:1011100039603B685B88DAB23E4B1A703D4B1B78F6
:10112000012B04D93968786800F054F96FE07B68C6
:1011300093F8FC31022B02D0032B23D062E0354B15
:101140001B78002B1AD0334B1B781A467B685A60E9
:101150007B68032283F8FC212E4B1B7819467868A4
:10116000FFF718FB0346022B04D13968786800F0BA
:1011700031F94CE0786800F0F9F948E0786800F05F
:10118000F5F944E0234B1B78002B12D17B68022237
:1011900083F8FC211F4B1B781A467B685A601D4B55
:1011A0001B7819467868FFF715FB786800F0DEF9C0
:1011B0002DE0184B1B781A467B685B689A421DD05D
:1011C0007B685B68DBB219467868FFF703FB114B5D
:1011D0001B781A467B685A600E4B1B781946786854
:1011E000FFF7D8FA0346022B04D13968786800F07B
:1011F000F1F80CE0786800F0B9F908E0786800F0E0
:10120000B5F904E03968786800F0E4F800BF083701
:10121000BD4680BD6102002080B582B000AF78601D
:1012200039603B68DB88012B04D03968786800F0AE
:10123000D1F81FE07B6893F8FC31022B02D0032B1E
:101240000BD012E07B6800229A607B680833012291
:101250001946786800F02CF90CE07B680433012211
:101260001946786800F024F904E03968786800F0DD
:10127000B1F800BF00BF0837BD4680BD80B582B061
:1012800000AF786039607B6893F8FC31023B012B3A
:1012900015D87B680122DA607B68D3F80432002B12
:1012A00005D07B68DB6843F002027B68DA607B680C
:1012B0000C3302221946786800F0FAF804E0396825
:1012C000786800F087F800BF00BF0837BD4680BDD2
:1012D00080B582B000AF786039603B685B88012BD5
:1012E0000DD17B680122C3F804227B68D3F8143245
:1012F0009B68396878689847786800F037F900BFCC
:101300000837BD4680BD00BF80B582B000AF7860B1
:1013100039607B6893F8FC31023B012B12D83B68A3
:101320005B88012B13D17B680022C3F804227B6801
:10133000D3F814329B68396878689847786800F069
:1013400015F904E03968786800F044F800E000BF5F
:1013500000BF0837BD4680BD80B483B000AF786061
:1013600039603B681A787B681A703B685A787B68EA
:101370005A703B6802331B789AB23B6803331B7880
:101380009BB21B029BB213449AB27B685A803B68A3
:1013900004331B789AB23B6805331B789BB21B025F
:1013A0009BB213449AB27B689A803B6806331B78E1
:1013B0009AB23B6807331B789BB21B029BB2134463
:1013C0009AB27B68DA8000BF0C37BD465DF8047BBB
:1013D000704700BF80B582B000AF7860396080216F
:1013E000786806F0A9FF0021786806F0A5FF00BF25
:1013F0000837BD4680BD00BF80B586B000AFF8603D
:10140000B9607A600023FB75FB68002B33D0F86865
:1014100000F036F8034601339BB25B009AB27B685A
:101420001A80FB7D5A1CFA751A46BB6813447A6809
:101430001288D2B21A70FB7D5A1CFA751A46BB6824
:10144000134403221A7012E0FB7D5A1CFA751A46E7
:10145000BB681A44FB68591CF9601B781370FB7D4C
:101460005A1CFA751A46BB68134400221A70FB68AE
:101470001B78002BE8D100BF1837BD4680BD00BFE8
:1014800080B485B000AF78600023FB7305E0FB7B80
:101490000133FB737B6801337B607B681B78002B17
:1014A000F5D1FB7B18461437BD465DF8047B7047C9
:1014B00080B584B000AFF860B9601346FB80FB686C
:1014C0000222C3F8F421FA88FB689A61FA88FB6863
:1014D000DA61FB88BA680021F86806F0FBFF002398
:1014E00018461037BD4680BD80B584B000AFF860A7
:1014F000B9601346FB80FB88BA680021F86806F0E3
:10150000E9FF002318461037BD4680BD80B584B082
:1015100000AFF860B9601346FB80FB680322C3F894
:10152000F421FA88FB68C3F80821FA88FB68C3F83D
:101530000C21FB88BA680021F86807F005F8002341
:1015400018461037BD4680BD80B584B000AFF86046
:10155000B9601346FB80FB88BA680021F86806F082
:10156000F3FF002318461037BD4680BD80B582B01A
:1015700000AF78607B680422C3F8F42100230022C6
:101580000021786806F0A6FF002318460837BD46FC
:1015900080BD00BF80B582B000AF78607B68052257
:1015A000C3F8F421002300220021786806F0CCFF64
:1015B000002318460837BD4680BD00BFB0B58CB0CB
:1015C00000AF002387F82330764B3C1D1D460FCD1E
:1015D0000FC495E8070084E80700002387F82F3040
:1015E000002387F82E303DE0012005F059F9012154
:1015F0006D4805F07FF897F82F309B0007F1300217
:10160000134453F82C3C0121184605F083F80121BE
:10161000664805F0F3F897F82F309B0007F1300289
:10162000134453F82C3C184600F042F9002160485E
:1016300005F060F807F1230207F12403114618466C
:1016400000F0CEF807F1230207F1240311461846F3
:1016500000F012F90346002B09D197F82F3001331F
:1016600087F82F3097F82F30062BBDD900E000BF48
:1016700097F82F30072B00F08C80012005F010F92F
:1016800001214C4805F036F897F82F309B0007F100
:101690003002134453F82C3C0121184605F03AF867
:1016A0000121424805F0AAF897F82F30042B26D0E4
:1016B0000121414805F0A2F80021404805F01AF840
:1016C00007F1230207F124031146184600F088F8B9
:1016D0004FF4164000F0ECF807F1230207F1240361
:1016E0001146184600F0C8F80346002B04D001212B
:1016F000334805F083F802E0012387F82E3097F88D
:101700002E30002B45D1012005F0CAF801212D48CB
:1017100005F074F800212C4804F0ECFF07F12302D7
:1017200007F124031146184600F05AF807F1230286
:1017300007F124031146184600F09EF80346002BDB
:1017400027D00121214805F059F8012005F0A8F81B
:1017500001211F4805F052F800211E4804F0CAFF7D
:1017600007F1230207F124031146184600F038F868
:1017700007F1230207F124031146184600F07CF814
:101780000346002B05D00121134805F037F801234B
:1017900004E00121114805F031F8002318463037E4
:1017A000BD46B0BD743C0108943A0108C43A010832
:1017B000CC3A0108D03A0108003B0108343B01084B
:1017C000403B01085C3B0108983B0108A83B01082D
:1017D000CC3B01080C3C0108183C0108443C0108C2
:1017E00080B586B000AF7860396007F035FB3861AE
:1017F0003B6800221A701F4BDB8DFB8229E006F04C
:101800002DFB1C4BDB8D9BB2FA8A9A4221D0194BDF
:10181000996A184B9A8DFB8AB3FBF2F002FB00F237
:101820009B1A9BB20B441B78FB733B681B78092BFC
:101830000CD83B681B781A467B681344FA7B1A70F5
:101840003B681B780133DAB23B681A70FB8A0133BC
:10185000FB8207F001FB02463B69D31A40F6B73220
:101860009342CCD9012005F01BF800BF1837BD46C4
:1018700080BD00BFDC02002080B483B000AF786080
:1018800039603B681B78012B0AD97B681B784F2B8A
:1018900006D17B6801331B784B2B01D1012300E07B
:1018A000002318460C37BD465DF8047B704700BF27
:1018B00080B582B000AF7860084A7B685360074803
:1018C0000BF0FCFB0346002B03D00121044804F07D
:1018D00095FF00BF0837BD4680BD00BFDC02002079
:1018E000903C010880B400AF044B1B680133034AED
:1018F000136000BFBD465DF8047B704764020020A2
:1019000080B400AF094B1A68094BA3FB02131B09F3
:10191000322101FB03F3D31A002B0CBF0123002358
:10192000DBB21846BD465DF8047B704764020020B8
:101930001F85EB5180B400AF0A4B19680A4BA3FB1B
:101940000123DA0813469B0013445B00CA1A002ADD
:101950000CBF01230023DBB21846BD465DF8047BB3
:10196000704700BF64020020CDCCCCCC80B500AF66
:1019700007F072FA02460E4B1B68D31AB3F5FA6FE2
:1019800002D9DFED0C7A10E00B4B1B68002B02D163
:10199000DFED087A09E0084B1B6807EE903AB8EED5
:1019A000677ADFED066AC6EE877AB0EE670A80BD19
:1019B00070020020000000006C0200200000A04225
:1019C00080B400AF044B1B6807EE903AB0EE670A94
:1019D000BD465DF8047B70477402002080B400AF00
:1019E000044B1B6807EE903AB0EE670ABD465DF8FF
:1019F000047B70476802002080B400AF034B5B6A31
:101A00001846BD465DF8047B704700BF000C0040DF
:101A100080B400AF044B022283F8512000BFBD46C2
:101A20005DF8047B704700BF7807002080B483B066
:101A300000AF87ED010AD7ED017AF5EEC07AF1EE3D
:101A400010FA04D5D7ED017AF1EE677A01E0D7ED0F
:101A5000017AB0EE670A0C37BD465DF8047B70472B
:101A600080B500AF044BDB7D184604F047FCF0EE78
:101A7000407AB0EE670A80BD2407002080B500AF31
:101A8000044B1B7E184604F039FCF0EE407AB0EEB1
:101A9000670A80BD2407002080B500AF044B5B7E41
:101AA000184604F02BFCF0EE407AB0EE670A80BDD9
:101AB0002407002080B500AF044B9B7E184604F03D
:101AC0001DFCF0EE407AB0EE670A80BD24070020CE
:101AD00080B500AF044BDB7E184604F00FFCF0EE3F
:101AE000407AB0EE670A80BD2407002080B584B03C
:101AF00000AF2A4B9B7D184604F000FC87ED030ADB
:101B000097ED037AD7ED037AB4EE677AF1EE10FA27
:101B100002D74FF000033AE0214B93F85130022BEB
:101B200004D01F4B93F85130032B2FD1D7ED037AFC
:101B3000F5EE407AF1EE10FA28D0194B93F85130B7
:101B4000022B20D10221174804F0D4FD022097ED8A
:101B5000030A04F0F9FD0221134804F0CBFDD7ED90
:101B6000037AFDEEE77AC7ED017ABB881BB202214A
:101B7000184604F087FD02210C4804F0BBFD084B19
:101B8000032283F851204FF0000300E0FB6807EECA
:101B9000903AB0EE670A1037BD4680BD240700209A
:101BA00078070020D43C0108F43C01080C3D0108F2
:101BB00080B58EB000AF87ED010AC7ED000AFFF7D0
:101BC00095FF87ED0A0ABC4BD3ED0E7AB7EE007A8B
:101BD00037EE677AD7ED0A7A27EE277AD7ED0A7AB9
:101BE00027EE277AD7ED0A7A27EE277AB24BD3ED84
:101BF0000E6AD7ED0A7A66EEA77A77EE277AC7EDF6
:101C00000D7AAE4B5B6AAE4A12689B1A7B62AA4B96
:101C10001B7F012B00F04C82A74BDB6B3B63A64B79
:101C20001B6CFB62A74B93F85130002B05D0A24BE5
:101C30005B6C3B63A04B9B6CFB62A34BD3ED007AC8
:101C400097ED0D7A77EE677AC7ED087A97ED087A07
:101C5000D7ED0C7AB4EEE77AF1EE10FA0ADCD7EDA4
:101C60000C7AB1EE677AD7ED087AB4EEE77AF1EE46
:101C700010FA06DD934B03F5C043563301221A7068
:101C800005E0904B03F5C043563300221A7097EDE0
:101C9000087AD7ED0C7AB4EEE77AF1EE10FA09DDA6
:101CA000894B93ED007AD7ED0C7A77EE277AC7ED62
:101CB0000D7A13E0D7ED0C7AB1EE677AD7ED087A9A
:101CC000B4EEE77AF1EE10FA08DD7F4B93ED007A7F
:101CD000D7ED0C7A77EE677AC7ED0D7A97ED0D7A2E
:101CE000D7ED0B7AB4EEE77AF1EE10FA0ADCD7ED15
:101CF0000B7AB1EE677AD7ED0D7AB4EEE77AF1EEB2
:101D000010FA06DD6F4B03F5C043573301221A70FA
:101D100005E06C4B03F5C043573300221A7097ED72
:101D20000D7AD7ED0B7AB4EEE77AF1EE10FA02DD18
:101D3000FB6A7B6310E0D7ED0B7AB1EE677AD7EDE3
:101D40000D7AB4EEE77AF1EE10FA05DDD7ED0B7AF5
:101D5000F1EE677AC7ED0D7A5A4B93F85130002BAC
:101D600040F0A681544B1B7F012B00F0A181524B08
:101D70001B7F022B00F09C814F4B93ED097A4E4B59
:101D8000D3ED0A7AB4EEE77AF1EE10FA09DD4A4BA8
:101D90005B6AFB61484B9B6A474A5362464AFB6950
:101DA000936297ED017AD7ED007A37EE277A424BAE
:101DB000D3ED0A7AB4EEE77AF1EE10FA1AD597ED80
:101DC000017AD7ED007A37EE677A3B4BD3ED097A8B
:101DD000B4EEE77AF1EE10FA0CDD3A4B03F5C043AE
:101DE000583300221A70374B03F5C0435933002291
:101DF0001A705DE197ED017AD7ED007A37EE277A18
:101E00002D4BD3ED0A7AB4EEE77AF1EE10FAC0F278
:101E1000A780294B93ED037AD7ED0D7A67EE277AE9
:101E2000F5EEC07AF1EE10FA54DD274B93ED007A0F
:101E3000214BD3ED036AD7ED0C7A66EEA77A77EEE5
:101E4000677AC7ED0D7A1C4B93ED037AD7ED0D7AC7
:101E500067EE277AF5EEC07AF1EE10FA02D54FF070
:101E600000037B63174B03F5C04358331B7883F0A3
:101E70000103DBB2002B03D00221144804F0BEFCA6
:101E8000104B03F5C043583301221A700022102171
:101E90000F4807F0FFFB084B93ED0A7AD7ED017A64
:101EA000B4EEE77AF1EE10FA25D8074B4FF00002B6
:101EB0001A604FF00003B6E224070020000C004037
:101EC0007C0200207807002068020020603D0108A5
:101ED00000040240AF4B03F5C043583300221A7090
:101EE000AC4B03F5C043593300221A700122102174
:101EF000A94807F0CFFB97ED017AD7ED007A37EECE
:101F0000277AA64BD3ED0A6AA44BD3ED087A76EE76
:101F1000A77AB4EEE77AF1EE10FA21DB7B6A002BA8
:101F20001EDD9C4B03F5C04359331B7883F001033E
:101F3000DBB2002B03D00221994804F05FFC954BE3
:101F400003F5C043593301221A7000221021924830
:101F500007F0A0FB934A7B6B13604FF0000362E233
:101F600097ED017AD7ED007A37EE677A8B4BD3ED98
:101F7000097AB4EEE77AF1EE10FA00F29980874B15
:101F800093ED037AD7ED0D7A67EE277AF5EEC07AF6
:101F9000F1EE10FA46D5814B93ED037AD7ED0C7A2A
:101FA00027EE277A7F4BD3ED007A77EE277AC7EDBD
:101FB0000D7A7A4B93ED037AD7ED0D7A67EE277A97
:101FC000F5EEC07AF1EE10FA02DD4FF000037B630C
:101FD000704B03F5C04358331B7883F00103DBB229
:101FE000002B03D00221704804F008FC694B03F574
:101FF000C043583301221A7000221021664807F0AE
:1020000049FB664B93ED097AD7ED017AB4EEE77A96
:10201000F1EE10FA17DB634B4FF000021A604FF03D
:10202000000300E25B4B03F5C043583300221A70F3
:10203000584B03F5C043593300221A700122102176
:10204000554807F027FB97ED017AD7ED007A37EE78
:10205000677A524BD3ED096A504BD3ED087A76EE8E
:10206000E77AB4EEE77AF1EE10FA21D87B6A002B1A
:102070001EDA484B03F5C04359331B7883F0010344
:10208000DBB2002B03D00221454804F0B7FB414BE3
:1020900003F5C043593301221A70002210213E4833
:1020A00007F0F8FA3F4A7B6B13604FF00003BAE188
:1020B0003C4A7B6B1360FFF7D3FCB0EE407ADFED58
:1020C0003B7AB4EEE77AF1EE10FA0DDD314B93F87E
:1020D0005130002B03D00221354804F08FFB2D4BEB
:1020E000002283F851200FE02A4B93F85130012B46
:1020F00006D0304B00221A7002212F4804F07EFBDC
:10210000244B012283F851202C4B93ED007AD7ED1C
:102110000D7A77EE277A294BC3ED007AFFF7AEFCF4
:1021200087ED060AD7ED067A9FED207AF4EEC77A9E
:10213000F1EE10FA40F3F980164B93F85130012B71
:1021400040F0F3801E4BD3ED007A9FED187AF4EE49
:10215000C77AF1EE10FA00F2E880194BD3ED007A5D
:10216000F4EE677AF1EE10FA80F1DF80114B1B7804
:10217000002B29D1094A7B6853620E4B01221A7049
:102180000221104804F03AFB0C4B4FF000021A6099
:10219000CBE000BF780700200004024024070020A5
:1021A000743D010868020020603D0108CDCC4C3F21
:1021B000883D010880020020A43D0108780200202B
:1021C00084020020C83D010802219A4804F016FB51
:1021D000994B93ED097AD7ED017AB4EEE77AF1EEF7
:1021E00010FA4BD5944A7B6893620221934804F01D
:1021F00081FA914BD3ED097A0220B0EE670A04F020
:10220000A3FA02218E4804F075FA8B4BD3ED0A7ABB
:102210000220B0EE670A04F005FB874BD3ED037A8A
:10222000F5EE407AF1EE10FA7FD10221854804F0F4
:1022300061FA854BD3ED007A0220B0EE670A04F014
:1022400083FA0221814804F055FA7F4BD3ED007ADE
:10225000F5EEC07AF1EE10FA04DD774B4FF07E52C6
:10226000DA6002E0744B7A4ADA60734BD3ED037A9A
:102270000220B0EE670A04F0D5FA56E06E4B5B6AB6
:102280006D4A93626C4A7B6853620221714804F084
:1022900031FA694BD3ED0A7A0220B0EE670A04F0F6
:1022A00053FA02216C4804F025FA634BD3ED097A06
:1022B0000220B0EE670A04F0B5FA5F4BD3ED037A63
:1022C000F5EE407AF1EE10FA2FD102215D4804F0CC
:1022D00011FA5D4BD3ED007A0220B0EE670A04F0EC
:1022E00033FA0221594804F005FA574BD3ED007A2E
:1022F000F5EEC07AF1EE10FA03DD4F4B544ADA6086
:102300000BE0514BD3ED007AF5EEC07AF1EE10FA06
:1023100003D5494B4FF07E52DA60474BD3ED037A39
:102320000220B0EE670A04F07DFA4C4ABB691360E4
:10233000FFF7B2FB87ED050A97ED057AD7ED057A31
:10234000B4EE677AF1EE10FA14D6D7ED057AB7EE4F
:10235000007A37EE877ADFED426AC7EE267A9FED84
:10236000417A77EE877A9FED407A67EE877A324B33
:10237000C3ED0F7AFFF79EFB87ED040A97ED047A11
:10238000D7ED047AB4EE677AF1EE10FA10D6D7EDF5
:10239000047AB7EE007A37EE877ADFED346AC7EE5B
:1023A000267A9FED337A77EE877A234BC3ED107A46
:1023B000FFF78EFB87ED030A97ED037AD7ED037ADB
:1023C000B4EE677AF1EE10FA2CD6D7ED037AF5EE7B
:1023D000C07AF1EE10FA03D5174B01221A770DE0FF
:1023E000D7ED037AF5EEC07AF1EE10FA03DD124B69
:1023F00003221A7702E0104B02221A770E4B1A7F43
:102400001C4B1B789A420DD00B4B1A7F194B1A703C
:10241000094B1B7F184603F067FE0346022118464E
:1024200004F0ECF97B6B07EE903AB0EE670A3837B0
:10243000BD4680BDD43D010824070020E03D0108D1
:10244000F43D0108F83D010878020020103E010823
:10245000000080BF343E0108543E01088402002081
:102460003F358E40CDCC4C3D0AD7A33CA2450E4013
:10247000CDCCCC3D0F01002080B58AB000AF554BCC
:102480005B6A3B62544B1A683B6AD31A07EE903A78
:10249000F8EEE77AB0EE670AFFF7C8FAF0EE407A96
:1024A0004E4BC3ED007A3B6A07EE903AF8EEE77ABE
:1024B000C7ED077AFFF75AFA87ED060A474B1B6804
:1024C0007B62464BD3ED007AB1EE047AF4EEC77A24
:1024D000F1EE10FA01D8BB697B62FFF77FFAF0EEEC
:1024E000406A3F4BD3ED0F7A86EEA77AB0EE470AEB
:1024F000FFF79CFA87ED050A97ED097AD7ED057A83
:1025000027EE277AF0EE006AC7EE267AC7ED047A46
:10251000D7ED040A97ED070AFFF74AFB87ED030A98
:10252000D7ED037AF5EEC07AF1EE10FA1CDD2D4AF4
:102530002B4BB3F92E301946294BB3F930300B44ED
:102540002749B1F9321007EE901AB8EEE77AD7EDC5
:10255000037A67EE277AFDEEE77AC7ED017AB9884C
:1025600009B20B44D36328E0D7ED037AF5EEC07AC5
:10257000F1EE10FA1CD51B4A194BB3F92E3019464F
:10258000174BB3F93030CB1A1549B1F9321007EEB9
:10259000901AB8EEE77AD7ED037A67EE277AFDEE68
:1025A000E77AC7ED017AB98809B20B44D36304E036
:1025B0000C4B0B4AB2F92E20DA6397ED030A06F0B2
:1025C00061F9054A3B6A1360FFF79AF900BF2837A3
:1025D000BD4680BD000C00407C020020740200203B
:1025E000240700200004004080B500AF04F08CFBFD
:1025F0000246064B1A60054B1B68054A934201D000
:10260000002300E00023184680BD00BF88020020A0
:102610001520200080B584B000AF78600B467B8029
:1026200013463B800E4B1B68092B01D8022312E096
:102630003B881B04FB60F86804F068F97B881A4645
:10264000F968786804F0F2F97B881A46F9687868C6
:1026500004F098FA034618461037BD4680BD00BF07
:102660008802002080B584B000AFF860B9601346DE
:10267000FB80FB881B04BA681946F86804F0EAFA84
:1026800000BF1037BD4680BDB0B596B000AF06F0B4
:1026900097FB00F0ABF900F0B1FC00F035FA00F068
:1026A0005DFA00F095FA00F0DDFA00F079FC05F033
:1026B000ADF900F047FC00F03DFB00F07DFD06F0B9
:1026C00041F80421B24809F045FC01221021B1482B
:1026D00006F0E0FF0821B04809F0B2FA0346002BEB
:1026E00003D08E21AD4800F03FFD0C21AA4809F02F
:1026F000A7FA0346002B03D09321A84800F034FD2D
:10270000FFF772FF0346002B03D09921A34800F086
:102710002BFDA34BA34A07CA03C31A70A04B4FF06B
:102720000002DA609E4BA04A1A629D4B01221A7782
:102730009B4B4FF09E429A62994B4FF04F425A6228
:10274000974B002283F82C20954BFF221A76944B4E
:10275000FF22DA75924B00229A75914BFF225A762E
:102760008F4BFF229A768E4BFF22DA768C4B8F4A64
:10277000DA638B4B8E4A5A64894B4FF07E521A644F
:10278000874B4FF07A529A64854B4FF478721A82D5
:10279000834B1E225A82824B4FF42F725A86804BF3
:1027A00040F2DC52DA857E4B1E221A867C4B4FF4B7
:1027B00048729A827A4B4CF250325A63784B7D4A77
:1027C0009A63774B3C22A3F84E20754B0A22A3F85C
:1027D0004C20734B0122A3F850203B1D00225421B2
:1027E0001846FFF73FFF3B1D0B2219466C480DF0C2
:1027F0009FFE0346002B11D1694B18463B1D542206
:1028000019460CF0DFFE6C4A6C4B14461D460FCD8A
:102810000FC495E8070084E8070046E03B1D04224A
:10282000194667480DF084FE0346002B0FD1624A1B
:10283000644B14461D460FCD0FC40FCD0FC40FCDF2
:102840000FC495E803002060043421802DE03B1D77
:10285000022219465C480DF06BFE0346002B1CD18A
:102860003B1D4F4918460DF053FE4D4B18463B1D7E
:10287000542219460CF0A6FE4F4A544B14461D46EE
:102880000FCD0FC40FCD0FC40FCD0FC42B681A4648
:10289000228002341B0C237007E0474A4C4B104641
:1028A000194644231A460CF08DFE3D4B93F82C300C
:1028B000012B02D100F014FC01E000F035FCFFF721
:1028C000A7F805F087FF03464FF400721946414808
:1028D0000AF0FEFC4FF400723F49404804F044FF08
:1028E00006F0BAFA02463E4B1B68D31A142B3BD9AA
:1028F00006F0B2FA02463A4B1A60FEF7F3FF05F013
:10290000ADFAFEF7FDFF0346002B08D02A4B93F8E3
:102910005130002B03D120211E4806F0D5FEFFF7D1
:1029200009F80346002B08D0234B93F85130012BB4
:1029300003D12021174806F0C7FE1F4B93F85130F2
:10294000022B04D01C4B93F85130032B05D10022ED
:102950001021104806F09EFE04E0012210210D48CF
:1029600006F098FEFFF788FD05F0A0F90346002B5E
:1029700003D01C49012000F02FFE04F0BBFF0346EA
:10298000002BADD01849002000F026FEA8E700BFBC
:1029900020030020000402405C030020F43E0108F4
:1029A00024070020003F01080000C8420AD7233C4A
:1029B0006F12833ACDCCCC3D780700200C3F010844
:1029C000283F0108303F0108683F01086C3F0108BB
:1029D000A03F0108E40600208C040020DC02002057
:1029E0001C0300209C6C00207868002080B598B003
:1029F00000AF0023BB60404A3F4B1B6C43F0805349
:102A000013643D4B1B6C03F08053BB60BB68002319
:102A10007B603A4A394B1B6843F480431360374B61
:102A20001B6803F480437B607B680B233B634FF49C
:102A300080337B630123FB6310233B6401237B64AE
:102A40000223BB644FF48003FB6404233B654823EB
:102A50007B650223BB650323FB6507F13003184642
:102A600007F0F6FE0346002B04D040F23311244851
:102A700000F07AFB0F23FB6100233B6200237B62A3
:102A80000023BB620023FB6207F11C0300211846F0
:102A900008F038F90346002B04D040F241111848E1
:102AA00000F062FB0223FB604FF40073BB6107F18F
:102AB0000C03184608F006FB0346002B04D04FF425
:102AC000A4710F4800F050FB08F0ACFA02460D4B21
:102AD000A3FB02239B09184606F010FB042006F016
:102AE00019FB002200214FF0FF3006F0CFFA00BFA3
:102AF0006037BD4680BD00BF003802400070004016
:102B0000F43E0108D34D621080B500AF104B114A5E
:102B10001A600F4B00225A600D4B7F229A600C4BBB
:102B2000FF22DA600A4B00221A61094B00225A6127
:102B3000074B00229A61064808F0BAFB0346002BB7
:102B400004D040F26511044800F00EFB00BF80BDC8
:102B50003004002000280040F43E010880B500AF9A
:102B6000184B194A1A60174B4FF482725A60154B72
:102B700000229A60134B0022DA60124B00221A6185
:102B8000104B00225A610F4B00229A610D4B00221C
:102B9000DA610C4B00221A620A4B00225A62094B7E
:102BA00000229A62074B0A22DA62064808F028FCE3
:102BB0000346002B04D040F27B11044800F0D4FA05
:102BC00000BF80BD8C06002000300140F43E0108AB
:102BD00080B500AF012208211E4806F05BFD1E4BA8
:102BE0001E4A1A601C4B4FF482725A601A4B002224
:102BF0009A60194B0022DA60174B02221A61164BB9
:102C000001225A61144B4FF400729A61124B082250
:102C1000DA61114B00221A620F4B00225A620E4BEE
:102C200000229A620C4B0722DA620B4808F0E8FB9C
:102C30000346002B04D04FF4C971094800F094FA00
:102C4000054B1B68044A1268126842F040021A6081
:102C500000BF80BD0004024098030020003C0040FB
:102C6000F43E010880B58AB000AF2F4B2F4A1A609E
:102C70002D4B0F225A602C4B00229A602A4B44F6AF
:102C80002062DA60284B00221A61274808F0ACFF66
:102C90000346002B04D040F2A711254800F064FA47
:102CA00000233B6200237B6207F1200319461E4884
:102CB0000AF0AAF90346002B04D04FF4D7711C4840
:102CC00000F052FA60237B6040F2DC53BB600023CB
:102CD000FB6000237B6100233B610023FB61002339
:102CE000BB613B1D082219460F4809F02FFB034624
:102CF000002B04D04FF4DD710D4800F035FA3B1D78
:102D00000C221946084809F021FB0346002B04D089
:102D100040F2BF11064800F027FA034804F092FA87
:102D200000BF2837BD4680BD5C0300200004004082
:102D3000F43E010880B58CB000AF224B224A1A60E5
:102D4000204B00225A601F4B00229A601D4B4FF00F
:102D5000FF32DA601B4B00221A610323FB60002361
:102D60003B6101237B610023BB610023FB610023E6
:102D70003B6201237B620023BB620023FB6207F1FD
:102D80000C0319460F4809F04FF80346002B04D0F6
:102D900040F2DB110D4800F0E7F900237B600023CF
:102DA000BB603B1D194607480AF02EF90346002B6D
:102DB00004D04FF4F171054800F0D6F900BF303768
:102DC000BD4680BD20030020000C0040F43E0108F9
:102DD00080B58CB000AF3E4B3E4A1A603C4B0F2290
:102DE0005A603B4B00229A60394B4FF6FF72DA6013
:102DF000374B00221A61364B00225A61344808F0E2
:102E0000C7FE0346002B04D04FF4FB71324800F09C
:102E1000ABF92F4808F048FF0346002B04D040F2DE
:102E2000FB112D4800F0A0F90423FB6160233B62F5
:102E300002237B620023FB6207F11C03194624482E
:102E400009F04AFB0346002B04D04FF401712248DD
:102E500000F08AF900237B610023BB6107F11403B2
:102E600019461B480AF0D0F80346002B04D040F264
:102E70000B21194800F078F900237B600123BB6027
:102E80000023FB6000233B613B1D082219461048CC
:102E900009F0C0F90346002B04D040F215210E487A
:102EA00000F062F902237B600223BB603B1D0C2211
:102EB0001946074809F0AEF90346002B04D04FF439
:102EC0000771054800F050F900BF3037BD4680BD9E
:102ED0005004002000000140F43E010880B500AF1E
:102EE000144B154A1A60134B144A5A60114B4FF495
:102EF00080529A600F4B4FF40052DA600D4B4FF442
:102F000080621A610B4B04225A610A4B00229A61BB
:102F1000084B4FF40042DA6106480AF0CFF8034646
:102F2000002B04D040F23121054800F01DF900BF0C
:102F300080BD00BFF003002000100140A08601000A
:102F4000F43E010880B500AF124B134A1A60114BD2
:102F50004FF4E1325A600F4B00229A600D4B002271
:102F6000DA600C4B00221A610A4B0C225A61094BA1
:102F700000229A61074B0022DA6106480AF09EF8A7
:102F80000346002B04D040F24521044800F0ECF841
:102F900000BF80BDE406002000440040F43E01086C
:102FA00080B500AF124B134A1A60114B4FF4164212
:102FB0005A600F4B00229A600D4B0022DA600C4BD6
:102FC00000221A610A4B0C225A61094B00229A61B5
:102FD000074B0022DA6106480AF070F80346002B1E
:102FE00004D040F25621044800F0BEF800BF80BD76
:102FF000DC02002000480040F43E010880B58AB0A1
:1030000000AF00233B61324A314B1B6B43F080031E
:1030100013632F4B1B6B03F080033B613B69002361
:10302000FB602B4A2A4B1B6B43F001031363284BB5
:103030001B6B03F00103FB60FB680023BB60244AA9
:10304000234B1B6B43F004031363214B1B6B03F0F7
:103050000403BB60BB6800237B601D4A1C4B1B6BD9
:1030600043F0020313631A4B1B6B03F002037B60F4
:103070007B6800223821174806F00CFB10237B6187
:10308000154BBB610023FB6107F11403194613487C
:1030900006F06AF801237B610123BB610023FB6119
:1030A00007F1140319460D4806F05EF838237B61DA
:1030B0000123BB610023FB6100233B6207F1140382
:1030C0001946044806F050F800BF2837BD4680BDB9
:1030D00000380240000402400000111000080240C5
:1030E00080B500AF08210D4808F014FE0C210B48F4
:1030F00008F010FEFFF7F2FE03F098F903461922DC
:10310000194607480AF0E4F801220121054806F0B3
:10311000C1FA012003F00AF800BF80BD500400206E
:10312000F00300200008024080B500AF0B480AF011
:1031300013F8FFF74DFE00220121094806F0AAFA14
:103140000821084808F010FE0C21064808F00CFE83
:10315000002002F0EBFF00BF80BD00BFF0030020A5
:10316000000802405004002080B582B000AF7860B3
:1031700039600D4B0D4AB2F92E20DA6302210C485A
:1031800003F0B8FA0221786803F0B4FA0221094882
:1031900003F0B0FA3B681BB20221184603F012FBA1
:1031A00004F05CFEFEE700BF00040040240700209E
:1031B000E43F0108F83F010880B400AF00BFBD46FE
:1031C0005DF8047B704700BF80B582B000AF034656
:1031D0000A46FB711346BB71BB791946074803F0D9
:1031E00089FAFB79064A52F82330BA791146184613
:1031F00003F004FB00BF0837BD4680BDB84201089C
:103200001001002080B584B000AF0346FB71164B5F
:103210001B7883F02003DAB2134B1A70124B1B7821
:1032200083F04F03DAB2104B1A700F4B1B7883F008
:103230004B03DAB20C4B1A700B4B1B7807F10800EA
:103240000A4A05210DF0E2F8FB791946084803F017
:1032500051FAFA7907F108031146184603F0CEFA3D
:1032600000BF1037BD4680BD8C020020C44201085B
:10327000CC42010880B582B000AF03460A46FB711C
:103280001346BB71BB791946074803F033FABA7984
:10329000FB791146184603F011FA044AFB791370C2
:1032A00000BF0837BD4680BDD44201088C02002013
:1032B00080B584B000AF78600B46FB700023FB60E4
:1032C0000CE0FB687A6813441A780D4B1B78534066
:1032D000DAB20B4B1A70FB680133FB60FB68272BDB
:1032E00005DCFB687A6813441B78002BE9D1FB7876
:1032F0001946786803F0FEF900BF1037BD4680BD5F
:103300008C02002080B582B000AF03460A46FB71F4
:103310001346BB71084B1A78FB795340DAB2064B5F
:103320001A70BA79FB791146184603F0C7F900BF45
:103330000837BD4680BD00BF8C02002090B59DB00F
:1033400002AF87ED020B0346FB7107F11400D7E9CA
:103350000234CDE90034154A50210DF057F800230E
:103360007B660DE007F114027B6E13441A78104B54
:103370001B785340DAB20E4B1A707B6E01337B66BA
:103380007B6E272B06DC07F114027B6E13441B783F
:10339000002BE7D1FA7907F114031146184603F020
:1033A000A9F900BF6C37BD4690BD00BFD8420108E7
:1033B0008C02002090B59BB002AF87ED010A034656
:1033C000FB7078680BF0C6FD03460C4607F10C0055
:1033D000CDE90034144A50210DF018F80023FB65A4
:1033E0000DE007F10C02FB6D13441A780F4B1B78AC
:1033F0005340DAB20D4B1A70FB6D0133FB65FB6D68
:10340000272B06DC07F10C02FB6D13441B78002B05
:10341000E7D1FA7807F10C031146184603F06AF970
:1034200000BF6437BD4690BDE04201088C02002019
:1034300080B598B000AF03460A46FB8013467B7107
:10344000B7F9063007F10C00144A50210CF0DEFFEA
:103450000023FB650DE007F10C02FB6D13441A78A5
:103460000F4B1B785340DAB20D4B1A70FB6D0133D2
:10347000FB65FB6D272B06DC07F10C02FB6D13448B
:103480001B78002BE7D17A7907F10C031146184617
:1034900003F030F900BF6037BD4680BDE842010847
:1034A0008C02002080B584B000AF03460A46FB7151
:1034B0001346BB71FB7907F10800154A03210CF094
:1034C000A5FF0023FB600DE007F10802FB68134431
:1034D0001A78104B1B785340DAB20E4B1A70FB6807
:1034E0000133FB60FB68022B06DC07F10802FB6876
:1034F00013441B78002BE7D1BA7907F10803114672
:10350000184603F0F7F800BF1037BD4680BD00BF76
:10351000EC4201088C02002080B598B000AF7860C2
:103520000B46FB7007F10C007B68154A50210CF02C
:103530006DFF0023FB650DE007F10C02FB6D1344EA
:103540001A78104B1B785340DAB20E4B1A70FB6D91
:103550000133FB65FB6D272B06DC07F10C02FB6DCD
:1035600013441B78002BE7D1FA7807F10C031146BE
:10357000184603F0BFF800BF6037BD4680BD00BFEE
:10358000F44201088C02002080B483B000AF0346EF
:10359000FB71FB792F2B05D9FB79392B02D8FB79ED
:1035A000303B13E0FB79602B05D9FB79662B02D801
:1035B000FB79573B0AE0FB79402B05D9FB79462B79
:1035C00002D8FB79373B01E04FF0FF3318460C3748
:1035D000BD465DF8047B704780B586B000AF0346FA
:1035E0003960FB710023FB820023BB8295E0FB8ADC
:1035F0005A1CFA821A463B6813441B787B747B7C06
:10360000002B00F090804A4B1B78202B09D17B7C4B
:10361000242B02D07B7C212B7FD1454B24221A7096
:103620007BE07B7C0A2B02D07B7C0D2B27D1BB8AD5
:10363000002B06D1FB8A013B3A68134400221A7022
:1036400004E0BB8A3A68134400221A70384B1B7896
:103650002A2B09D1FA7CBB7C9A4205D0FB7919460A
:103660000420FFF7B1FD04E0FB793968184600F04B
:1036700063F80023FB742E4B20221A704DE07B7CF4
:103680002A2B06D12A4B31221A70FB8A013BBB82BE
:1036900043E0274B1B78312B10D17B7C1846FFF77A
:1036A00073FFF860FB68B3F1FF3F36D0FB68DBB215
:1036B0001B01BB741E4B32221A702EE01C4B1B7870
:1036C000322B11D17B7C1846FFF75EFFB860BB68D8
:1036D000B3F1FF3F21D0BB68DAB2BB7C1344BB74AB
:1036E000134B2A221A7018E0114B1B78242B04D19B
:1036F000FA7C7B7C5340FB740FE00D4B1B782A2B2C
:1037000005D1FB7919460520FFF75EFD0CE0FB793A
:1037100019460020FFF758FD06E0FB8AB3F5007F4D
:10372000FFF465AF00E000BF1837BD4680BD00BFA5
:103730004C0100200000000090B5F7B004AF024635
:1037400007F10803196007F10F031A7007F1080366
:103750001B685B7887F8BB3197F8BB31313B472B4F
:1037600001F2898601A252F823F000BFF74E00084B
:1037700077540008775400087754000877540008FD
:1037800077540008775400087754000877540008ED
:1037900077540008775400087754000877540008DD
:1037A00077540008775400087754000877540008CD
:1037B000C54900087754000877540008294B0008D1
:1037C00077540008775400087754000851450008E2
:1037D000775400087754000877540008775400089D
:1037E000BD42000877540008775400087754000859
:1037F00077540008254700087754000877540008DC
:10380000775400087754000877540008775400086C
:10381000775400087754000877540008775400085C
:103820007754000877540008775400088D38000852
:103830004F470008294A0008775400089D440008B3
:1038400077540008BB390008474600085D3C000873
:10385000775400087754000877540008574600084A
:103860009941000877540008593A00087754000835
:10387000E1430008775400087754000877540008A3
:10388000EF3A0008093C00081749000807F108034F
:103890001B68981C07F5CE73043307F5CE72D64922
:1038A0000CF00AFE0346A7F8B831B7F9B831022B7D
:1038B00048D1D7ED677AF5EEC07AF1EE10FA38DD2F
:1038C000D7ED687AF5EEC07AF1EE10FA31DDD7ED7A
:1038D000677AB7EE007AF4EEC77AF1EE10FA28D5DF
:1038E000D7ED687AB7EE007AF4EEC77AF1EE10FA07
:1038F0001FD5D7ED677A9FEDC17A67EE877AC04B07
:10390000C3ED0F7AD7ED687A9FEDBC7A67EE877AC0
:10391000BB4BC3ED117A07F10F031B7819466120E9
:10392000FFF7A8FC07F10F031B781846FFF76AFCA6
:1039300040E007F10F031B7819460E20FFF744FC07
:1039400001F0A1BDB7F9B831002B2CDC07F10F0352
:103950001B7819466120FFF78DFCA94BD3ED0F7A38
:103960009FEDA67AC7EE876A07F10F031B7818460A
:10397000B0EE660AFFF71EFDA14BD3ED117A9FED65
:103980009F7AC7EE876A07F10F031B781846B0EEDF
:10399000660AFFF70FFD07F10F031B781846FFF7C4
:1039A00031FC01F070BD07F10F031B7819460720A9
:1039B000FFF70AFC00BF01F066BD07F108031B68B2
:1039C000023307F5CC728F4918460CF075FD03469B
:1039D000A7F8B831B7F9B831012B22D1D7ED667A03
:1039E000F5EEC07AF1EE10FA12DDD7F89831844A7C
:1039F000136207F10F031B7819466720FFF73AFCA3
:103A000007F10F031B781846FFF7FCFB01F03BBDE5
:103A100007F10F031B7819460E20FFF7D5FB01F0C5
:103A200032BD07F10F031B7819466720FFF722FC10
:103A3000734BD3ED087A07F10F031B781846B0EEED
:103A4000670AFFF7B7FC07F10F031B781846FFF76B
:103A5000D9FB00BF01F017BD07F10F031B78194612
:103A60007020FFF707FC664BD3ED097AFDEEE77A8D
:103A700007F10F031B78194617EE900AFFF74CFD6C
:103A80005F4BD3ED0A7AFDEEE77A07F10F031B785F
:103A9000194617EE900AFFF73FFDFDF7ADFF02460E
:103AA00007F10F031B7819461046FFF735FDFDF7A8
:103AB00087FFF0EE407A07F10F031B781846B0EE4F
:103AC000670AFFF777FCFDF751FFF0EE407A07F148
:103AD0000F031B781846B0EE670AFFF76BFC07F17F
:103AE0000F031B781846FFF78DFB01F0CCBC07F1E4
:103AF00008031B68981C07F5C873043307F5C872E0
:103B00003D490CF0D9FC0346A7F8B831B7F9B831F4
:103B1000022B3ED1D7ED647AF5EEC07AF1EE10FAC1
:103B20002EDDD7ED657AF5EEC07AF1EE10FA27DDDD
:103B3000D7ED647AB7EE007AF4EEC77AF1EE10FAB8
:103B40001ED8D7ED657AB7EE007AF4EEC77AF1EEBB
:103B500010FA15D5D7F89031294A1364D7F8943163
:103B6000274A936407F10F031B7819467620FFF765
:103B700081FB07F10F031B781846FFF743FB38E082
:103B800007F10F031B7819460E20FFF71DFB01F00C
:103B90007ABCB7F9B831002B24DC07F10F031B788E
:103BA00019467620FFF766FB154BD3ED107A07F127
:103BB0000F031B781846B0EE670AFFF7FBFB104BAC
:103BC000D3ED127A07F10F031B781846B0EE670A9F
:103BD000FFF7F0FB07F10F031B781846FFF712FB06
:103BE00001F051BC07F10F031B7819460720FFF7BE
:103BF000EBFA00BF01F047BCFC4201080AD7A33C26
:103C0000240700200443010800225421AF48FEF796
:103C100001FDC7F8B40107F10F031B78194677209F
:103C2000FFF728FBD7F8B431002B0ED107F10F03B3
:103C30001B781946A648FFF73BFB07F10F031B78DB
:103C40001846FFF7DFFA01F01EBC07F10F031B78DF
:103C500019460820FFF7B8FA01F015BC07F1080370
:103C60001B68981C07F5C273991C07F5C27207F50B
:103C7000C2730A33039307F5C2730833029307F53F
:103C8000C2730633019307F5C273043300930B46E6
:103C900090490CF011FC0346A7F8B831B7F9B831D8
:103CA000002B40F31981B7F98431002B40F30481D4
:103CB000B7F98431102B00F3FF80B7F98631002B60
:103CC00040F3FA80B7F98631102B00F3F580B7F98D
:103CD0008831002B40F3F080B7F98831102B00F3C6
:103CE000EB80B7F98421B7F986319A4200F0E4807D
:103CF000B7F98421B7F988319A4200F0DD80B7F92D
:103D00008621B7F988319A4200F0D680B7F984311C
:103D1000DBB2013BDAB26D4B9A7507F10F031B78EA
:103D200019466920FFF7A6FA684B9B7D9BB20133C9
:103D30009BB21AB207F10F031B7819461046FFF722
:103D400077FBB7F9B831012B1FDDB7F98631002BAE
:103D500018DDB7F98631102B14DCB7F98631DBB2E8
:103D6000013BDAB2594BDA75584BDB7D9BB201331C
:103D70009BB21AB207F10F031B7819461046FFF7E2
:103D800057FB02E0514BFF225A76B7F9B831032BAB
:103D90001FDDB7F98831002B18DDB7F98831102BFA
:103DA00014DCB7F98831DBB2013BDAB2474B1A7643
:103DB000464B1B7E9BB201339BB21AB207F10F0335
:103DC0001B7819461046FFF733FB02E03F4BFF22FA
:103DD0005A76B7F9B831032B1FDDB7F98A31002BBA
:103DE00018DDB7F98A31102B14DCB7F98A31DBB250
:103DF000013BDAB2354B5A76344B5B7E9BB20133D2
:103E00009BB21AB207F10F031B7819461046FFF751
:103E10000FFB02E02D4BFF225A76B7F9B831042B85
:103E20001FDDB7F98C31002B18DDB7F98C31102B61
:103E300014DCB7F98C31DBB2013BDAB2234B9A7652
:103E4000224B9B7E9BB201339BB21AB207F10F0348
:103E50001B7819461046FFF7EBFA02E01B4BFF22D6
:103E60009A76B7F9B831052B1FDDB7F98E31002BE3
:103E700018DDB7F98E31102B14DCB7F98E31DBB2B7
:103E8000013BDAB2114BDA76104BDB7E9BB2013389
:103E90009BB21AB207F10F031B7819461046FFF7C1
:103EA000C7FA02E0094BFF22DA7607F10F031B780D
:103EB0001846FFF7A7F94DE107F10F031B781946E4
:103EC0000E20FFF781F901F0DEBA00BF24070020C1
:103ED0000843010828430108B7F9B831002B00F363
:103EE000328107F10F031B7819466920FFF7C2F9E9
:103EF0009A4B9B7D9BB201339BB21AB207F10F0321
:103F00001B7819461046FFF793FA944BDB7D9BB262
:103F100001339BB21AB207F10F031B781946104602
:103F2000FFF786FA8D4B1B7E9BB201339BB21AB210
:103F300007F10F031B7819461046FFF779FA874BF4
:103F40005B7E9BB201339BB21AB207F10F031B7861
:103F500019461046FFF76CFA804B9B7E9BB20133EB
:103F60009BB21AB207F10F031B7819461046FFF7F0
:103F70005FFA7A4BDB7E9BB201339BB21AB207F138
:103F80000F031B7819461046FFF752FA07F10F038B
:103F90001B7819467248FFF78BF907F10F031B785E
:103FA00019467048FFF784F904F056FF02466E4B3D
:103FB0005B68D31A1A4607F10F031B78194610469F
:103FC000FFF7AAFA07F10F031B7819466748FFF7B6
:103FD0006FF90023C7F8C4310023C7F8C4318DE05E
:103FE00007F10F031B7819466148FFF761F9D7F80D
:103FF000C4319BB201339BB21AB207F10F031B7895
:1040000019461046FFF714FA07F10F031B781946FB
:104010005848FFF74DF9544AD7F8C431143332F8F1
:1040200013301AB207F10F031B7819461046FFF739
:10403000FFF94A4B9B7D1A46D7F8C4319A4207D103
:1040400007F10F031B7819464B48FFF731F949E098
:10405000424BDB7D1A46D7F8C4319A4207D107F1AB
:104060000F031B7819464548FFF722F93AE03B4B0E
:104070001B7E1A46D7F8C4319A4207D107F10F03C5
:104080001B7819463E48FFF713F92BE0334B5B7E54
:104090001A46D7F8C4319A4207D107F10F031B78AB
:1040A00019463848FFF704F91CE02C4B9B7E1A4652
:1040B000D7F8C4319A4207D107F10F031B7819468C
:1040C0003148FFF7F5F80DE0244BDB7E1A46D7F8B0
:1040D000C4319A4206D107F10F031B7819462B48C9
:1040E000FFF7E6F807F10F031B7819461C48FFF7A6
:1040F000DFF8D7F8C4310133C7F8C431D7F8C43179
:104100000F2B7FF76DAF07F10F031B78194620487F
:10411000FFF7CEF81F4BDB6B1AB207F10F031B78CA
:1041200019461046FFF784F907F10F031B7819466B
:104130000B48FFF7BDF807F10F031B781846FFF790
:1041400061F801F0A0B907F10F031B7819460720A9
:10415000FFF73AF800BF01F096B900BF240700202E
:104160004043010844430108D46700205C43010830
:10417000684301087043010874430108944301082F
:10418000B4430108D0430108FC4301081C44010862
:10419000384401080004004007F108031B68981C1C
:1041A00007F5BE73991C07F5BE7207F5BE7304339D
:1041B00000930B46D0490CF07FF90346A7F8B831BD
:1041C000B7F9B831032B3ED1B7F97C31B3F5FA7F9B
:1041D00030DDB7F97C31B3F5FA6F2BDAB7F97E3100
:1041E000002B27DDB7F97E31632B23DCB7F9803153
:1041F000B3F5967F1EDDB7F98031B3F5AF6F19DAED
:1042000007F10F031B7819466E20FFF733F8B7F953
:104210007C21BA4B1A82B7F97E21B84B5A82B7F982
:104220008021B64B9A8207F10F031B781846FEF7E0
:10423000E9FF40E007F10F031B7819460E20FEF757
:10424000C3FF01F020B9B7F9B831002B2CDC07F11E
:104250000F031B7819466E20FFF70CF8A74BB3F934
:10426000102007F10F031B7819461046FFF7E0F8FE
:10427000A24BB3F9122007F10F031B781946104621
:10428000FFF7D6F89D4BB3F9142007F10F031B7805
:1042900019461046FFF7CCF807F10F031B781846B4
:1042A000FEF7B0FF01F0EFB807F10F031B781946D6
:1042B0000720FEF789FF00BF01F0E5B807F108030A
:1042C0001B68981C07F5BA73991C07F5BA7207F5B5
:1042D000BA73043300930B4687490CF0EDF803469C
:1042E000A7F8B831B7F9B831032B3ED1B7F974311B
:1042F000B3F5FA7F30DDB7F97431B3F5FA6F2BDA25
:10430000B7F97631002B27DDB7F97631632B23DC43
:10431000B7F97831B3F5967F1EDDB7F97831B3F58B
:10432000617F19DA07F10F031B7819464E20FEF75B
:10433000A1FFB7F97421714BDA85B7F976216F4B7C
:104340001A86B7F978216D4B5A8607F10F031B784F
:104350001846FEF757FF40E007F10F031B78194698
:104360000E20FEF731FF01F08EB8B7F9B831002BFF
:104370002CDC07F10F031B7819464E20FEF77AFF5D
:104380005E4BB3F92E2007F10F031B781946104638
:10439000FFF74EF8594BB3F9302007F10F031B78A4
:1043A00019461046FFF744F8544BB3F9322007F191
:1043B0000F031B7819461046FFF73AF807F10F0371
:1043C0001B781846FEF71EFF01F05DB807F10F03DA
:1043D0001B7819460720FEF7F7FE00BF01F053B81F
:1043E00007F108031B68023307F5B9724449184600
:1043F0000CF062F80346A7F8B831B7F9B831012BD1
:104400002CD1B7F97231012B08D0B7F97231B3F161
:10441000FF3F03D0B7F97231002B16D107F10F031C
:104420001B7819467220FEF725FFB7F9723107EEA7
:10443000903AF8EEE77A314BC3ED037A07F10F03B8
:104440001B781846FEF7DEFE25E007F10F031B7808
:1044500019460A20FEF7B8FE01F015B807F10F0360
:104460001B7819467220FEF705FF244BD3ED037A23
:10447000FDEEE77AC7ED017ABB881AB207F10F03A8
:104480001B7819461046FEF7D3FF07F10F031B7880
:104490001846FEF7B7FE00BF00F0F5BF07F10803AE
:1044A0001B68023307F5B672164918460CF004F87B
:1044B0000346A7F8B831B7F9B831012B2FD1D7F897
:1044C0006C31B3F5FA7F21DDD7F86C310E4A934297
:1044D0001CDC07F10F031B7819466520FEF7CAFEA6
:1044E000D7F86C31054A536307F10F031B78184660
:1044F000FEF788FE29E000BF5C4401082407002085
:10450000684401086C440108A086010007F10F030C
:104510001B7819460E20FEF757FE00F0B4BF07F1D6
:104520000F031B7819466520FEF7A4FEC64B5A6B95
:1045300007F10F031B7819461046FEF7EDFF07F150
:104540000F031B781846FEF75DFE00BF00F09BBF0F
:1045500007F108031B68023307F5B572BB4918461B
:104560000BF0AAFF0346A7F8B831B7F9B831012B11
:104570003AD1B7F96A31002B14D107F10F031B7838
:1045800019464920FEF776FEAF4B002283F82C2017
:10459000FEF7CAFD07F10F031B781846FEF732FE3F
:1045A00000F071BFB7F96A31012B14D107F10F0385
:1045B0001B7819464920FEF75DFEA34B012283F8C4
:1045C0002C20FEF78DFD07F10F031B781846FEF730
:1045D00019FE00F058BF07F10F031B7819460E2093
:1045E000FEF7F2FD00F04FBF07F10F031B781946ED
:1045F0004920FEF73FFE944B93F82C301AB207F196
:104600000F031B7819461046FEF712FF8E4B93F8E6
:104610002C30002B07D107F10F031B7819468C486B
:10462000FEF746FE06E007F10F031B78194689489E
:10463000FEF73EFE07F10F031B781846FEF7E2FD7A
:1046400000BF00F020BF07F10F031B78184601F0F0
:1046500085F900F018BF07F108031B68023307F55E
:10466000B4727A4918460BF027FF0346A7F8B83111
:10467000B7F9B831012B27D1B7F96831022B07D030
:10468000B7F96831032B03D0B7F96831012B12D188
:1046900007F10F031B7819466D20FEF7EBFDB7F904
:1046A0006831DAB2684B1A7707F10F031B781846A6
:1046B000FEF7A8FD33E007F10F031B7819460B2026
:1046C000FEF782FD00F0DFBE07F10F031B781946ED
:1046D0006D20FEF7CFFD5C4B1B7F1AB207F10F0375
:1046E0001B7819461046FEF7A3FE07F10F031B784F
:1046F00019465948FEF7DCFD534B1B7F184601F065
:10470000F3FC024607F10F031B7819461046FEF72B
:10471000CFFD07F10F031B781846FEF773FD00BFAE
:1047200000F0B1BE07F10F031B7819465320FEF7C6
:10473000A1FD07F10F031B781846FEF763FD07F193
:104740000F031B78184601F00BFA00F09CBE07F12E
:10475000080318680BF0E4FE03460A2B40F2A88019
:104760000223A7F8C23107F58273C7F8B03104E01D
:10477000B7F8C2310133A7F8C231B7F8C24107F127
:10478000080318680BF0CCFE03469C420DD2B7F824
:10479000C231B3F5FF7F08D8B7F8C23107F108027C
:1047A000126813441B78202BE2D00023A7F8C031F5
:1047B00054E0B7F8C2315A1CA7F8C2211A4607F1D3
:1047C00008031B6813441B781846FEF7DDFEC7F884
:1047D000AC01B7F8C2315A1CA7F8C2211A4607F13A
:1047E00008031B6813441B781846FEF7CDFEC7F874
:1047F000A801D7F8AC31B3F1FF3F1CD0D7F8A831EE
:10480000B3F1FF3F17D0D7F8AC31DBB21B01DAB2FE
:10481000D7F8A831DBB2134487F8A731B7F8C03115
:104820005A1CA7F8C0211A46D7F8B031134497F89C
:10483000A7211A7012E007F10F031B7819460E200A
:10484000FEF7C2FC00F01FBE2407002068440108E8
:104850007044010890440108AC440108B7F8C24113
:1048600007F1080318680BF05BFE0346013B9C420E
:1048700008D2B7F8C231B3F5FF7F03D8B7F8C0311B
:10488000532B96D9B7F8C031532B09D807F10F0332
:104890001B7819460E20FEF797FC00BF00F0F3BD11
:1048A0009D4B184607F58273542219460AF08AFE7A
:1048B00007F10F031B7819466220FEF7DBFC07F1B6
:1048C0000F031B7819462020FEF71CFD924BC7F8FA
:1048D000B0310023C7F8BC3111E0D7F8B021D7F8C8
:1048E000BC3113441A7807F10F031B7819461046A0
:1048F000FEF7D8FDD7F8BC310133C7F8BC31D7F883
:10490000BC31532BE9D907F10F031B781846FEF78A
:1049100079FC00F0B8BD07F108031B68023307F506
:10492000B2727E4918460BF0C7FD0346A7F8B831AE
:10493000B7F9B831012B2BD1D7ED597AF5EEC07A02
:10494000F1EE10FA1BDDD7ED597AB7EE007AF4EEEE
:10495000C77AF1EE10FA12D8D7F864316E4A936331
:1049600007F10F031B7819467820FEF783FC07F147
:104970000F031B781846FEF745FC00F084BD07F1D5
:104980000F031B7819460E20FEF71EFC00F07BBDBE
:1049900007F10F031B7819467820FEF76BFC5E4B7E
:1049A000D3ED0E7A07F10F031B781846B0EE670AB5
:1049B000FEF700FD07F10F031B781846FEF722FCF7
:1049C00000F061BD07F10F031B78012B23D107F124
:1049D0000F031B7819464220FEF74CFC07F10F032A
:1049E0001B7819464E48FEF763FCFCF7E7FD0346CB
:1049F000012B07D107F10F031B781846FEF702FCC5
:104A000000F041BD07F10F031B7819460C20FEF79B
:104A1000DBFB00F038BD07F10F031B7819460D20B2
:104A2000FEF7D2FB00F02FBD07F108031B68981CAE
:104A300007F5AE73991C07F5AE7207F5AE73043334
:104A400000930B4637490BF037FD0346A7F8B83102
:104A5000B7F9B831032B32D1B7F95C31002B25DB24
:104A6000B7F95E31002B21DBB7F96031002B1DDB7C
:104A7000B7F95C21284BA3F84E20B7F95E21264BED
:104A8000A3F84C20B7F96021234BA3F8502007F17D
:104A90000F031B7819466320FEF7ECFB07F10F03A9
:104AA0001B781846FEF7AEFB00F0EDBC07F10F03D4
:104AB0001B7819460E20FEF787FB00F0E4BC07F1D7
:104AC0000F031B7819466320FEF7D4FB124BB3F992
:104AD0004E2007F10F031B7819461046FEF7A8FC7D
:104AE0000D4BB3F94C2007F10F031B781946104604
:104AF000FEF79EFC084BB3F9502007F10F031B781B
:104B000019461046FEF794FC07F10F031B78184670
:104B1000FEF778FB00F0B7BC24070020044301082F
:104B2000B04401085C44010807F10F031B781946E3
:104B30004520FEF79FFB07F10F031B781946D0486D
:104B4000FEF7B6FBCF4B1B889BB2B2EE040A1846A9
:104B500003F04AFEF0EE407A07F10F031B78184687
:104B6000B0EE670AFEF726FC07F10F031B78194623
:104B7000C548FEF79DFBC34B5B889BB2B2EE040AAF
:104B8000184603F031FEF0EE407A07F10F031B7870
:104B90001846B0EE670AFEF70DFC07F10F031B780D
:104BA0001946BA48FEF784FBB64B5B689FEDAE0B27
:104BB000184603F03BFEB0EE407AF0EE607A07F163
:104BC0000F031B781846B0EE470AF0EE670AFEF7AF
:104BD000B5FB07F10F031B781946AD48FEF768FBDC
:104BE000A84B9B689FEDA00B184603F01FFEB0EE8C
:104BF000407AF0EE607A07F10F031B781846B0EEAA
:104C0000470AF0EE670AFEF799FB07F10F031B78DE
:104C10001946A048FEF74CFB9A4B9B8A9BB29FED2E
:104C20009E0A184603F0E0FDF0EE407A07F10F030C
:104C30001B781846B0EE670AFEF7BCFB07F10F03BE
:104C40001B7819469548FEF733FB8E4BD3F8163088
:104C5000184603F009FE024607F10F031B781946B8
:104C60001046FEF759FC07F10F031B7819468C48D4
:104C7000FEF71EFB834B5B8B9BB2B2EE040A184619
:104C800003F0B2FDF0EE407A07F10F031B781846EF
:104C9000B0EE670AFEF78EFB07F10F031B7819468B
:104CA0008048FEF705FB774BDB699FED710B1846DB
:104CB00003F0BCFDB0EE407AF0EE607A07F10F032E
:104CC0001B781846B0EE470AF0EE670AFEF736FB8F
:104CD00007F10F031B7819467348FEF7E9FA694B91
:104CE0001B6A9FED630B184603F0A0FDB0EE407AFF
:104CF000F0EE607A07F10F031B781846B0EE470A12
:104D0000F0EE670AFEF71AFB07F10F031B7819464E
:104D10006648FEF7CDFA5B4B5B6A9FED570B184672
:104D200003F084FDB0EE407AF0EE607A07F10F03F5
:104D30001B781846B0EE470AF0EE670AFEF7FEFA57
:104D400007F10F031B7819465948FEF7B1FA4D4B8E
:104D50009B6A9FED490B184603F068FDB0EE407A60
:104D6000F0EE607A07F10F031B781846B0EE470AA1
:104D7000F0EE670AFEF7E2FA07F10F031B78194617
:104D80004C48FEF795FA3F4BDB6A184603F06CFD82
:104D9000024607F10F031B7819461046FEF7BCFBCD
:104DA00007F10F031B7819464348FEF781FA354B8C
:104DB0001B6B184603F058FD024607F10F031B78E2
:104DC00019461046FEF7A8FB07F10F031B7819469A
:104DD0003A48FEF76DFA2B4B93F83430062B00F26D
:104DE000838001A252F823F0054E0008154E0008FA
:104DF000254E0008354E0008454E0008554E000867
:104E0000D94E000807F10F031B7819462C48FEF70E
:104E10004FFA69E007F10F031B7819462948FEF79E
:104E200047FA61E007F10F031B7819462648FEF7A1
:104E30003FFA59E007F10F031B7819462348FEF7A4
:104E400037FA51E007F10F031B7819462048FEF7A7
:104E50002FFA49E007F10F031B7819461D48FEF7AA
:104E600027FA41E0AFF30080000000000000594045
:104E70000000000000002440000000000088C34043
:104E8000C8440108C0960020D8440108E84401083D
:104E9000F84401080845010800007A441445010857
:104EA0001C450108284501083C45010850450108FA
:104EB00060450108744501088445010898450108CA
:104EC000A4450108AC450108BC450108CC450108D2
:104ED000D8450108E845010807F10F031B7819467A
:104EE000CE48FEF7E5F900BF07F10F031B7818461F
:104EF000FEF788F9C7E207F10F031B781946C84887
:104F000001F07CFC07F10F031B781946C54801F03E
:104F100075FCC54B042283F85120FF2387F85B31D1
:104F200007F10F031B781946C04801F067FC02F037
:104F300095FF07F5827207F1640107F1140007F18C
:104F40000F031B78009342F2107300F0F1FB07F19E
:104F50000F031A7807F1640107F11403184600F0F3
:104F600009FB0346002B00F0708207F10F031B784A
:104F70001946AF4801F042FC07F10F031B781846B1
:104F800001F08EFC07F10F031B781946A94801F0C8
:104F900035FC07F10F031B781946A74801F02EFCDA
:104FA00007F10F031B781946A44801F027FC02F013
:104FB00055FF07F1B40207F1640107F1140007F18E
:104FC0000F031B78009343F6982300F0B1FB07F121
:104FD0000F031B7807F25B1207F1640107F114005D
:104FE00000F02AFB0346002B00F02F8297F85B218C
:104FF00007F10F031B7807F5827107F1B40000F089
:105000005FFA0346002B00F0208207F10F031B78A4
:1050100019468B4801F06EFB97F85B319BB2013368
:105020009BB21AB207F10F031B781946104601F024
:10503000C9FB97F85B21834B9A7597F85B31143362
:105040005B0007F5E472134433F8C43C1AB27D4B9D
:105050001A827C4B1E225A8297F85B311A4607F15E
:105060006403143233F81230194697F85B311A464C
:1050700007F11403143233F81230CB1ADA0F134449
:105080005B109AB26F4BB3F912309BB2D31A9BB23A
:105090001AB26C4B9A8207F10F031B7819466A48C3
:1050A00001F028FB674BB3F9102007F10F031B78C1
:1050B0001946104601F0E6FA07F10F031B7819466E
:1050C000624801F017FB5F4BB3F9122007F10F03A1
:1050D0001B781946104601F075FB07F10F031B788A
:1050E00019465B4801F006FB564BB3F9142007F153
:1050F0000F031B781946104601F064FB07F10F03FC
:105100001B781946534801F079FB07F10F031B7810
:105110001946514801F072FB07F5827207F16401EC
:1051200007F1140007F10F031B78009342F210738C
:1051300000F0FEFA07F10F031B7807F25B1207F18C
:10514000640107F1140000F077FA0346002B18D031
:1051500007F10F031B781946394801F0CBFA97F88D
:105160005B319BB201339BB21AB207F10F031B787C
:105170001946104601F026FB97F85B21314BDA7592
:1051800009E007F10F031B781946344801F036FB9C
:105190002C4BFF22DA7507F10F031B7819463048B4
:1051A00001F02CFB07F10F031B7819462D4801F085
:1051B00025FB07F5827207F1640107F1140007F17E
:1051C0000F031B78009342F2107300F0B1FA07F15D
:1051D0000F031B7807F25B1207F1640107F114005B
:1051E00000F02AFA0346002B3ED007F10F031B788C
:1051F0001946134801F07EFA97F85B319BB20133F0
:105200009BB21AB207F10F031B781946104601F042
:10521000D9FA97F85B210B4B1A762FE0F845010875
:105220000C4601083C460108780700205446010856
:105230008446010890460108A0460108EC46010892
:10524000204701082407002048470108604701085B
:10525000644701087C47010890470108C4470108DA
:10526000EC4701080448010807F10F031B781946B1
:10527000874801F0C3FA874BFF221A7607F10F0324
:105280001B781946844801F0B9FA07F10F031B781F
:105290001946824801F0B2FA07F5827207F16401FB
:1052A00007F1140007F10F031B78009342F210730B
:1052B00000F03EFA07F10F031B7807F25B1207F1CB
:1052C000640107F1140000F0B7F90346002B18D071
:1052D00007F10F031B781946714801F00BFA97F894
:1052E0005B319BB201339BB21AB207F10F031B78FB
:1052F0001946104601F066FA97F85B21654B5A761D
:1053000009E007F10F031B781946614801F076FAAE
:10531000604BFF225A7607F10F031B78194661484C
:1053200001F06CFA07F10F031B7819465E4801F093
:1053300065FA07F5827207F1640107F1140007F1BD
:105340000F031B78009342F2107300F0F1F907F19C
:105350000F031B7807F25B1207F1640107F11400D9
:1053600000F06AF90346002B18D007F10F031B78F1
:1053700019464B4801F0BEF997F85B319BB20133F7
:105380009BB21AB207F10F031B781946104601F0C1
:1053900019FA97F85B213F4B9A7609E007F10F0362
:1053A0001B7819463A4801F029FA3A4BFF229A76BF
:1053B00007F10F031B7819463C4801F01FFA07F16B
:1053C0000F031B7819463A4801F018FA07F5827264
:1053D00007F1640107F1140007F10F031B78009334
:1053E00042F2107300F0A4F907F10F031B7807F2E3
:1053F0005B1207F1640107F1140000F01DF9034688
:10540000002B18D007F10F031B781946244801F030
:1054100071F997F85B319BB201339BB21AB207F175
:105420000F031B781946104601F0CCF997F85B2161
:10543000184BDA7609E007F10F031B781946144878
:1054400001F0DCF9134BFF22DA7607F10F031B782A
:105450001946184801F0D2F907F10F031B781946D5
:10546000154801F0CBF902F0F9FC144B022283F845
:10547000512000BF07E007F10F031B7819460620F3
:10548000FDF7A2FE00BF07F5E677BD4690BD00BF61
:10549000C4470108240700203C4801084C48010883
:1054A000204701087C4801088C480108BC480108D5
:1054B000CC480108044901081C490108780700206C
:1054C00080B586B000AFF860B96011461A460B4649
:1054D000FB711346BB71FA79FB68143233F8122062
:1054E000F979BB68143133F81130D31A9BB2FB82BF
:1054F000BB7919461B4801F0FDF8FA79FB681432B4
:1055000033F812301BB2BA791146184601F0BAF8D6
:10551000BB791946144801F0EDF8FA79BB681432EA
:1055200033F812301BB2BA791146184601F04AF925
:10553000B7F9163013F1090F0ADBB7F91630092B4A
:1055400006DCBB791946094801F058F9012305E04A
:10555000BB791946064801F051F90023184618375F
:10556000BD4680BD60490108784901089849010895
:10557000B449010880B586B000AFF860B960134641
:10558000FB7100237B6146E0BB687A69143233F813
:1055900012301946FB687A69143233F81230CB1A8C
:1055A000C82B35DDFB7919461F4801F0A3F87B694C
:1055B0009BB201339BB21BB2FA791146184601F037
:1055C00061F8FB791946194801F094F8FB687A698B
:1055D000143233F812301BB2FA791146184601F032
:1055E00051F8FB791946124801F084F8BB687A69D2
:1055F000143233F812301BB2FA791146184601F012
:1056000041F8FB7919460B4801F0F8F8002306E051
:105610007B6901337B617B690F2BB5DD0123184664
:105620001837BD4680BD00BF144A0108204A010852
:10563000344A0108384A010880B586B000AFF860E6
:10564000B9607A60FB700023FB7500233B614BE07F
:10565000BB683A69143233F812301946FB683A696C
:10566000143233F81230CB1A642B3ADDFB7819462A
:10567000294801F03FF83B699BB201339BB21BB252
:10568000FA781146184600F0FDFFFB7819462348CA
:1056900001F030F8FB683A69143233F812301BB26B
:1056A000FA781146184600F0EDFFFB7819461C48C1
:1056B00001F020F8BB683A69143233F812301BB29B
:1056C000FA781146184600F0DDFFFB7819461548B8
:1056D00001F094F83B69DAB27B681A70FB7D013304
:1056E000FB753B6901333B613B690F2BB0DDFB7DF3
:1056F000012B01D101230AE0FB7819460A4801F089
:105700007DF8FB781946094801F078F8002318461F
:105710001837BD4680BD00BF144A0108204A010861
:10572000344A0108944A0108AC4A0108FC4A0108BD
:1057300080B58AB000AFF860B9607A603B6003F072
:105740008BFB786203F088FB02463B6813447B6165
:1057500097F83030184601F0A3F800233B620EE0C2
:10576000BB683A6A1432002123F81210FB683A6AC7
:105770001432002123F812103B6A01333B623B6A6A
:105780000F2BEDDD4DE003F067FB02467B6AD31A79
:10579000B3F5FA7F09D903F05FFB786297F83030F0
:1057A0001A46B968F86800F06BF80023FB6135E031
:1057B000BB68FA69143233F812203049FB6914339C
:1057C00031F813309A4209D22C4AFB69143332F86B
:1057D0001310BB68FA69143223F81210FB68FA69D7
:1057E000143233F812202549FB69143331F8133091
:1057F0009A4206D8FB68FA69143233F81230002B4B
:1058000009D11E4AFB69143332F81310FB68FA6998
:10581000143223F81210FB690133FB61FB690F2B73
:10582000C6DD03F019FB02467B699A42ABD3002325
:10583000BB6117E0BB68BA69143233F812301946FD
:10584000FB68BA69143233F812300B44DA0F134490
:105850005B1099B27B68BA69143223F81210BB69E5
:105860000133BB61BB690F2BE4DD97F8303018467C
:1058700001F016F800BF2837BD4680BDD467002070
:1058800080B586B000AFF860B9601346FB71FB7954
:1058900019460D2000F012FF00237B614FE07B6969
:1058A000002B04D0FB791946294800F023FFBB6880
:1058B0007A69143233F812301946FB687A69143267
:1058C00033F81230CB1AC82B04DDFB791946214876
:1058D00000F010FFFB791946232000F0EFFE7B69F2
:1058E0009BB201339BB21BB2FA791146184600F005
:1058F000C9FEFB7919463A2000F0E0FE164A7B69A2
:10590000143332F813301BB2FA791146184600F0FE
:10591000B9FEBB687A69143233F812301946FB6855
:105920007A69143233F81230CB1AC82B04DDFB79B4
:105930001946084800F0DEFE7B6901337B617B6914
:105940000F2BACDD02F08AFA00BF1837BD4680BDD0
:105950002C4B0108304B0108D467002080B582B081
:1059600000AF0346FB71FB79184600F099FFFB7905
:10597000184600F095FFFB7919465D4800F03EFFA0
:10598000FB7919465B4800F0B5FE5B4B1B7F184660
:1059900000F0AAFB0246FB791946104600F02EFFE4
:1059A000FB791946554800F0A5FE534B93F82C306F
:1059B000002B05D1FB791946514800F01FFF04E088
:1059C000FB7919464F4800F019FFFB7919464E48FC
:1059D00000F090FE00F05CFB0246FB791946104691
:1059E00000F088FEFB79184600F05AFFFB79184654
:1059F00000F056FFFB79184600F052FFFB7918467D
:105A000000F04EFFFB791946404800F0F7FEFB79A5
:105A1000184600F045FF02F021FAFB7919463C4890
:105A200000F0ECFEFB7919463A4800F0E7FEFB79FE
:105A30001946394800F0E2FEFB791946374800F074
:105A4000DDFEFB791946364800F0D8FEFB79194691
:105A5000344800F0D3FEFB791946334800F0CEFEFF
:105A6000FB791946314800F0C9FEFB7919463048E8
:105A700000F0C4FEFB7919462E4800F0BFFEFB790A
:105A800019462D4800F0BAFEFB7919462B4800F064
:105A9000B5FE02F0E3F9FB791946294800F0AEFEA5
:105AA000FB791946274800F0A9FEFB7919462648DC
:105AB00000F0A4FEFB791946244800F09FFEFB7914
:105AC0001946234800F09AFEFB791946214800F058
:105AD00095FEFB791946204800F090FEFB791946A7
